{"contracts/orderbook/AFTRVParimutuelOrderBook.sol":{"AFTRVParimutuelOrderBook":{"abi":[{"inputs":[{"internalType":"address","name":"_marketFactory","type":"address"},{"internalType":"address","name":"_owner","type":"address"}],"stateMutability":"nonpayable","type":"constructor"},{"inputs":[],"name":"FailedCall","type":"error"},{"inputs":[{"internalType":"uint256","name":"balance","type":"uint256"},{"internalType":"uint256","name":"needed","type":"uint256"}],"name":"InsufficientBalance","type":"error"},{"inputs":[{"internalType":"address","name":"owner","type":"address"}],"name":"OwnableInvalidOwner","type":"error"},{"inputs":[{"internalType":"address","name":"account","type":"address"}],"name":"OwnableUnauthorizedAccount","type":"error"},{"inputs":[{"internalType":"address","name":"token","type":"address"}],"name":"SafeERC20FailedOperation","type":"error"},{"anonymous":false,"inputs":[{"indexed":true,"internalType":"address","name":"market","type":"address"},{"indexed":true,"internalType":"address","name":"token","type":"address"},{"indexed":true,"internalType":"address","name":"user","type":"address"},{"indexed":false,"internalType":"uint256","name":"price","type":"uint256"},{"indexed":false,"internalType":"bytes32","name":"orderId","type":"bytes32"}],"name":"OrderCancelled","type":"event"},{"anonymous":false,"inputs":[{"indexed":true,"internalType":"address","name":"market","type":"address"},{"indexed":true,"internalType":"address","name":"token","type":"address"},{"indexed":true,"internalType":"address","name":"maker","type":"address"},{"indexed":false,"internalType":"address","name":"taker","type":"address"},{"indexed":false,"internalType":"uint256","name":"price","type":"uint256"},{"indexed":false,"internalType":"uint256","name":"amount","type":"uint256"}],"name":"OrderMatched","type":"event"},{"anonymous":false,"inputs":[{"indexed":true,"internalType":"address","name":"market","type":"address"},{"indexed":true,"internalType":"address","name":"token","type":"address"},{"indexed":true,"internalType":"address","name":"user","type":"address"},{"indexed":false,"internalType":"uint256","name":"price","type":"uint256"},{"indexed":false,"internalType":"uint256","name":"amount","type":"uint256"},{"indexed":false,"internalType":"bytes32","name":"orderId","type":"bytes32"},{"indexed":false,"internalType":"bool","name":"isBuy","type":"bool"}],"name":"OrderPlaced","type":"event"},{"anonymous":false,"inputs":[{"indexed":true,"internalType":"address","name":"previousOwner","type":"address"},{"indexed":true,"internalType":"address","name":"newOwner","type":"address"}],"name":"OwnershipTransferred","type":"event"},{"inputs":[{"internalType":"address","name":"","type":"address"}],"name":"accumulatedFeeErc20","outputs":[{"internalType":"uint256","name":"","type":"uint256"}],"stateMutability":"view","type":"function"},{"inputs":[],"name":"accumulatedFeeNative","outputs":[{"internalType":"uint256","name":"","type":"uint256"}],"stateMutability":"view","type":"function"},{"inputs":[{"internalType":"address","name":"","type":"address"},{"internalType":"address","name":"","type":"address"},{"internalType":"uint256","name":"","type":"uint256"}],"name":"buyOrderBook","outputs":[{"internalType":"uint256","name":"length","type":"uint256"},{"internalType":"bytes32","name":"head","type":"bytes32"},{"internalType":"bytes32","name":"tail","type":"bytes32"}],"stateMutability":"view","type":"function"},{"inputs":[{"internalType":"address","name":"market","type":"address"},{"internalType":"address","name":"token","type":"address"},{"internalType":"uint256","name":"price","type":"uint256"},{"internalType":"bytes32","name":"orderId","type":"bytes32"}],"name":"cancelBuyOrder","outputs":[],"stateMutability":"nonpayable","type":"function"},{"inputs":[{"internalType":"address","name":"market","type":"address"},{"internalType":"address","name":"token","type":"address"},{"internalType":"uint256","name":"price","type":"uint256"},{"internalType":"bytes32","name":"orderId","type":"bytes32"}],"name":"cancelSellOrder","outputs":[],"stateMutability":"nonpayable","type":"function"},{"inputs":[{"internalType":"address","name":"collateralAsset","type":"address"}],"name":"collectFees","outputs":[],"stateMutability":"nonpayable","type":"function"},{"inputs":[],"name":"feeRate","outputs":[{"internalType":"uint16","name":"","type":"uint16"}],"stateMutability":"view","type":"function"},{"inputs":[{"internalType":"address","name":"market","type":"address"},{"internalType":"address","name":"token","type":"address"}],"name":"getBestAsk","outputs":[{"internalType":"uint256","name":"","type":"uint256"}],"stateMutability":"view","type":"function"},{"inputs":[{"internalType":"address","name":"market","type":"address"},{"internalType":"address","name":"token","type":"address"}],"name":"getBestBid","outputs":[{"internalType":"uint256","name":"","type":"uint256"}],"stateMutability":"view","type":"function"},{"inputs":[],"name":"marketFactory","outputs":[{"internalType":"contract IAFTRBookFactory","name":"","type":"address"}],"stateMutability":"view","type":"function"},{"inputs":[],"name":"owner","outputs":[{"internalType":"address","name":"","type":"address"}],"stateMutability":"view","type":"function"},{"inputs":[{"internalType":"address","name":"market","type":"address"},{"internalType":"address","name":"token","type":"address"},{"internalType":"uint256","name":"price","type":"uint256"},{"internalType":"uint256","name":"amount","type":"uint256"}],"name":"placeBuyOrder","outputs":[{"internalType":"bytes32","name":"orderId","type":"bytes32"}],"stateMutability":"payable","type":"function"},{"inputs":[{"internalType":"address","name":"market","type":"address"},{"internalType":"address","name":"token","type":"address"},{"internalType":"uint256","name":"price","type":"uint256"},{"internalType":"uint256","name":"amount","type":"uint256"}],"name":"placeSellOrder","outputs":[{"internalType":"bytes32","name":"orderId","type":"bytes32"}],"stateMutability":"nonpayable","type":"function"},{"inputs":[],"name":"renounceOwnership","outputs":[],"stateMutability":"nonpayable","type":"function"},{"inputs":[{"internalType":"address","name":"","type":"address"},{"internalType":"address","name":"","type":"address"},{"internalType":"uint256","name":"","type":"uint256"}],"name":"sellOrderBook","outputs":[{"internalType":"uint256","name":"length","type":"uint256"},{"internalType":"bytes32","name":"head","type":"bytes32"},{"internalType":"bytes32","name":"tail","type":"bytes32"}],"stateMutability":"view","type":"function"},{"inputs":[{"internalType":"uint16","name":"_feeRate","type":"uint16"}],"name":"setFeeRate","outputs":[],"stateMutability":"nonpayable","type":"function"},{"inputs":[{"internalType":"address","name":"newOwner","type":"address"}],"name":"transferOwnership","outputs":[],"stateMutability":"nonpayable","type":"function"},{"stateMutability":"payable","type":"receive"}],"evm":{"bytecode":{"linkReferences":{"contracts/libraries/OrderBookLinkedList.sol":{"OrderBookLinkedList":[{"length":20,"start":1296},{"length":20,"start":2053},{"length":20,"start":2766},{"length":20,"start":3258},{"length":20,"start":4188},{"length":20,"start":4761},{"length":20,"start":5441},{"length":20,"start":6077}]}},"object":"60a034620000ef57601f6200257d38819003918201601f19168301916001600160401b03831184841017620000f4578084926040948552833981010312620000ef5760206200004e826200010a565b916001600160a01b039182916200006691016200010a565b168015620000d6576000549160405193828285167f8be0079c531659141344cd1fd0a4f28419497f9722a3daafe3b4186f6b6457e0600080a3166080526001600160b01b031990911617601960a11b1760005561245d90816200012082396080518181816117880152611afa0152f35b604051631e4fbdf760e01b815260006004820152602490fd5b600080fd5b634e487b7160e01b600052604160045260246000fd5b51906001600160a01b0382168203620000ef5756fe608080604052600436101561001d575b50361561001b57600080fd5b005b60003560e01c90816306ae709514611775575080630933b2ae1461170a57806310d16b5914610fbb578063117c0bc014610e5857806329ff077314610dd25780634926819114610d63578063543ddf5114610d455780635671eed214610d19578063715018a614610cc057806375fcb6a314610c865780638da5cb5b14610c5d578063978bbdb914610c3857806399db37c514610ac9578063a05118c214610218578063a480ca79146101ac578063b9f8b5aa146101785763f2fde38b146100e5573861000f565b34610173576020366003190112610173576100fe6117b7565b61010661223b565b6001600160a01b0390811690811561015a57600054826bffffffffffffffffffffffff60a01b821617600055167f8be0079c531659141344cd1fd0a4f28419497f9722a3daafe3b4186f6b6457e0600080a3005b604051631e4fbdf760e01b815260006004820152602490fd5b600080fd5b346101735760403660031901126101735760206101a46101966117b7565b61019e6117cd565b90611a4d565b604051908152f35b34610173576020366003190112610173576101c56117b7565b6101cd61223b565b6001600160a01b0390811690816101f55761001b915060025490600060025560005416611f09565b8161001b9260005260016020526040600020916000835493556000541690611ea8565b61022136611818565b9290916000916102318282611ad1565b83151580610ac0575b61024390611851565b61024d8282612267565b94909561026f61025d8383611a00565b61026960ff8916611cad565b90611a13565b61029061271061028861ffff60005460a01c1684611a00565b048092611a33565b906001600160a01b03891680610a5d5750813410610a3257816102bd923411610a19575b50600254611a33565b6002559493945b946102cf8484612267565b9690505b6001600160a01b038481166000908152600360209081526040808320938916835292815282822086835290522054151580610a10575b15610629576001600160a01b038481166000908152600360208181526040808420948a1684529381528383208784528152838320600180820154808652919093019091529183902060028082015494519395939290919061036984611883565b8101546001600160a01b03168352015460208201528282106105125761039e6103928785611a00565b61026960ff8d16611cad565b60018060a01b0388166000526003602052604060002060018060a01b038a166000526020526040600020876000526020526040600020906040519163b3d3fb9d60e01b8352600483015260208260248173__$c4a3267dc0ad9004dd41e6a27ff0e111ab$__5af48015610506576104cf9661048893610457926104d7575b5060018060a01b038b166000526005602052604060002060018060a01b038d16600052602052604060002060018060a01b0386511690611f8d565b50610463888b8b612196565b61047785336001600160a01b038d16611ea8565b82516001600160a01b03168d61233d565b5160408051338152602081018890529081018490526001600160a01b039182169189811691908916906000805160206124088339815191529080606081015b0390a4611a40565b945b946102d3565b6104f89060203d6020116104ff575b6104f081836118bb565b810190611915565b508f61041c565b503d6104e6565b6040513d6000823e3d90fd5b9150916105e4906105be846105378c61026960ff6105308c86611a00565b9216611cad565b9260018060a01b038a166000526003602052604060002060018060a01b038c16600052602052604060002089600052602052600360406000200181600052602052600260406000200161058b838254611a40565b90556001600160a01b038a811660009081526005602090815260408083208f8516845290915290208751909116906122c6565b506105d384336001600160a01b038b16611ea8565b82516001600160a01b03168b61233d565b516040805133815260208101869052908101929092526001600160a01b03908116918682169186169060008051602061240883398151915290606090a46000946104d1565b848493878361063e575b602085604051908152f35b83945061026960ff61053084610655959697611a00565b9360018060a01b03168060005260209360048552604060002060018060a01b038516600052855260406000208360005285526040600020541560001461095c576000828152600480875260408083206001600160a01b038816845288528083208684528852918290209151630ede5d8760e31b81529081019190915233602482015260448101879052858160648173__$c4a3267dc0ad9004dd41e6a27ff0e111ab$__5af49081156105065760009161092f575b5060008381526009875260408082206001600160a01b03881683528852808220868352885290205490959060ff16156107bc575b61076d6020975b60008581526006845260408082206001600160a01b038a16835285529020869089903390611d0d565b50604051938452830152836040830152600160608301527f08df2dfcfaa1d4b132f1ade3fb5f295ce8fa7d2257abef9845734f54d254a7706080339460018060a01b031693a482808080610633565b60008381526009825260408082206001600160a01b0388168084529084528183208784528452818320805460ff191660019081179091558684526008855282842091845290845290822080549091805b6108ef575b50600160401b8110156108d95780600161082e920183558261192d565b815491600019928360039360031b1b1916905582548281019081116108c3575b84811161088d57505050978561088361086c61076d9460209c61192d565b819391549060031b91821b91600019901b19161790565b905597505061073d565b8281018181116108c3576108a1908561192d565b905490831b1c6108b461086c838761192d565b905580156108c357820161084e565b634e487b7160e01b600052601160045260246000fd5b634e487b7160e01b600052604160045260246000fd5b9281811080610916575b156109105760001981146108c3578301928061080c565b92610811565b5087610922828561192d565b90549060031b1c116108f9565b90508581813d8311610955575b61094681836118bb565b81010312610173575187610709565b503d61093c565b6000828152600480875260408083206001600160a01b0388168452885280832086845288529182902091516350fe157760e01b815290810191909152336024820152604481018790529594808760648173__$c4a3267dc0ad9004dd41e6a27ff0e111ab$__5af4968715610506576000976109df575b5061076d60209796610744565b96508087813d8311610a09575b6109f681836118bb565b810103126101735795519561076d6109d2565b503d6109ec565b50801515610309565b610a26610a2c9134611a40565b33611f09565b896102b4565b60405162461bcd60e51b815260206004820152600360248201526208aa8960eb1b6044820152606490fd5b909134610a9257610a7090303384611c20565b6000526001602052610a886040600020918254611a33565b90559493946102c4565b60405162461bcd60e51b815260206004820152600660248201526509cde408aa8960d31b6044820152606490fd5b5084151561023a565b3461017357610ad736611818565b60018060a0959493951b0392838116928360005260209160038352610b566040600020968084169788600052855260406000208960005285526003604060002001866000528552610b4e604060002086600260405194610b3686611883565b600184015416928386520154930192835233146118dd565b513388611ea8565b84600052600383526040600020866000528352604060002087600052835260406000209160405192632014b08b60e21b84526004840152846024840152838360448173__$c4a3267dc0ad9004dd41e6a27ff0e111ab$__5af491821561050657610bea938993610c1b575b5086600052600585526040600020886000528552610be486336040600020611f8d565b50612196565b6040519485528401527f4d808958216860d10b60c5927cdbbcff69e2318be11e150596eae39dc0d8ea1860403394a4005b610c3190863d88116104ff576104f081836118bb565b5089610bc1565b3461017357600036600319011261017357602061ffff60005460a01c16604051908152f35b34610173576000366003190112610173576000546040516001600160a01b039091168152602090f35b34610173576020366003190112610173576001600160a01b03610ca76117b7565b1660005260016020526020604060002054604051908152f35b3461017357600036600319011261017357610cd961223b565b600080546001600160a01b0319811682556001600160a01b03167f8be0079c531659141344cd1fd0a4f28419497f9722a3daafe3b4186f6b6457e08280a3005b346101735760403660031901126101735760206101a4610d376117b7565b610d3f6117cd565b9061195b565b34610173576000366003190112610173576020600254604051908152f35b3461017357610d71366117e3565b9160018060a01b0380911660005260036020526040600020911660005260205260406000209060005260205260406000208054610dce60026001840154930154604051938493846040919493926060820195825260208201520152565b0390f35b346101735760203660031901126101735760043561ffff8116808203610173576103e890610dfe61223b565b11610e24576000805461ffff60a01b191660a09290921b61ffff60a01b16919091179055005b60405162461bcd60e51b815260206004820152600c60248201526b08ccaca40e8dede40d0d2ced60a31b6044820152606490fd5b3461017357610e6636611818565b60018060a0959493951b03928381169283600052602091600483526040600020958083169687600052845260406000208860005284526003604060002001856000528452604060002090610edc60405192610ec084611883565b86600284600184015416928387520154940193845233146118dd565b610ee583611dd3565b501680610fa95750610ef8905133611f09565b84600052600483526040600020866000528352604060002087600052835260406000209160405192632014b08b60e21b84526004840152846024840152838360448173__$c4a3267dc0ad9004dd41e6a27ff0e111ab$__5af491821561050657610bea938993610f8c575b5086600052600685526040600020886000528552610f8686336040600020611f8d565b506120e5565b610fa290863d88116104ff576104f081836118bb565b5089610f63565b610fb69151903390611ea8565b610ef8565b3461017357610fc936611818565b929091600093610fd98284611ad1565b83151580611701575b610fee90959395611851565b6110038130336001600160a01b038616611c20565b9361100e8282612267565b9490955b6001600160a01b0383811660009081526004602090815260408083209388168352928152828220858352905220541515806116f8575b15611377576001600160a01b03838116600090815260046020908152604080832093881683529281528282208583528152828220600181015480845260039091019091529190206002015490916110b3846110ae6110a860ff8c16611cad565b85611a00565b611a13565b9160018060a01b0386166000526004602052604060002060018060a01b03881660005260205260406000208560005260205260036040600020018460005260205260406000209060026040519261110984611883565b60018101546001600160a01b031684520154602083015283831061126f5760018060a01b0387166000526004602052604060002060018060a01b0389166000526020526040600020866000526020526040600020906040519163b3d3fb9d60e01b8352600483015260208260248173__$c4a3267dc0ad9004dd41e6a27ff0e111ab$__5af480156105065761124896611205936111d792611250575b506001600160a01b038a811660009081526006602090815260408083208f851684529091529020865190911690611f8d565b506111e3878a8a6120e5565b82516111fe9086906001600160a01b03908116908c16611ea8565b338c61233d565b5160408051338152602081018790529081018490526001600160a01b039182169188811691908816906000805160206124088339815191529080606081016104c7565b935b93611012565b6112689060203d6020116104ff576104f081836118bb565b508e6111a5565b509150916113329061130f6112876103928787611a00565b809260018060a01b0389166000526004602052604060002060018060a01b038b1660005260205260406000208860005260205260036040600020018160005260205260026040600020016112dc838254611a40565b90556001600160a01b0389811660009081526006602090815260408083208e8516845290915290208751909116906122c6565b50825161132b9085906001600160a01b03908116908a16611ea8565b338a61233d565b516040805133815260208101859052908101929092526001600160a01b03908116918582169185169060008051602061240883398151915290606090a460009361124a565b909284928261138c575b602084604051908152f35b9091925060018060a01b03169283600052600393602093858552604060002060018060a01b038516600052855260406000208360005285526040600020541560001461164e57600082815286865260408082206001600160a01b038716835287528082208583528752908190209051630ede5d8760e31b8152600481019190915233602482015260448101829052858160648173__$c4a3267dc0ad9004dd41e6a27ff0e111ab$__5af490811561050657600091611621575b5060008381526009875260408082206001600160a01b03881683528852808220868352885290205490959060ff16156114f8575b602096505b8260005260058152604060002060018060a01b03861660005281526114aa828588336040600020611d0d565b50604051938452830152836040830152600060608301527f08df2dfcfaa1d4b132f1ade3fb5f295ce8fa7d2257abef9845734f54d254a7706080339460018060a01b031693a4828080611381565b60008381526009825260408082206001600160a01b0388168084529084528183208784528452818320805460ff19166001908117909155868452600785528284209184529084529082208054929990929091805b6115e2575b50600160401b8110156108d95780600161156e920184558361192d565b919080546000198094841b1b1916905582548281019081116108c3575b8a81116115ac575050506115a561086c602099879361192d565b9055611479565b8281018181116108c3576115c0908561192d565b905490831b1c6115d361086c838761192d565b905580156108c357820161158b565b9981811080611609575b156116035760001981146108c3578a01998061154c565b99611551565b5087611615828661192d565b905490851b1c106115ec565b90508581813d8311611647575b61163881836118bb565b81010312610173575187611445565b503d61162e565b600082815295855260408087206001600160a01b0386168852865280872084885286529586902095516350fe157760e01b8152600481019690965233602487015260448601819052848660648173__$c4a3267dc0ad9004dd41e6a27ff0e111ab$__5af48015610506576000906116ca575b602096509461147e565b508486813d83116116f1575b6116e081836118bb565b8101031261017357602095516116c0565b503d6116d6565b50801515611048565b50801515610fe2565b3461017357611718366117e3565b9160018060a01b0380911660005260046020526040600020911660005260205260406000209060005260205260406000208054610dce60026001840154930154604051938493846040919493926060820195825260208201520152565b34610173576000366003190112610173577f00000000000000000000000000000000000000000000000000000000000000006001600160a01b03168152602090f35b600435906001600160a01b038216820361017357565b602435906001600160a01b038216820361017357565b6060906003190112610173576001600160a01b0390600435828116810361017357916024359081168103610173579060443590565b6080906003190112610173576001600160a01b039060043582811681036101735791602435908116810361017357906044359060643590565b1561185857565b606460405162461bcd60e51b81526020600482015260046024820152634172677360e01b6044820152fd5b6040810190811067ffffffffffffffff8211176108d957604052565b6060810190811067ffffffffffffffff8211176108d957604052565b90601f8019910116810190811067ffffffffffffffff8211176108d957604052565b156118e457565b60405162461bcd60e51b81526020600482015260096024820152682737ba1037bbb732b960b91b6044820152606490fd5b90816020910312610173575180151581036101735790565b80548210156119455760005260206000200190600090565b634e487b7160e01b600052603260045260246000fd5b9060018060a01b0380921690600092828452602090600760205260409060408620931692838652602052604085209182549485156119f757865b8681106119a6575050505050505090565b8188526003808452848920878a5284528489206119c3838861192d565b905490831b1c8a528452848920546119de5750600101611995565b975094505050506119ef925061192d565b9054911b1c90565b50505050505090565b818102929181159184041417156108c357565b8115611a1d570490565b634e487b7160e01b600052601260045260246000fd5b919082018092116108c357565b919082039182116108c357565b60018060a01b0380911690600092828452602091600860205260409060408620921691828652602052604085209182549485156119f757865b868110611a97575050505050505090565b818852600486528388208389528652838820611ab3828761192d565b919054600392831b1c8a528752848920546119de5750600101611a86565b604080516337649a6d60e11b81526001600160a01b0392831660048201819052602094929392917f00000000000000000000000000000000000000000000000000000000000000008416908681602481855afa908115611c1557600091611bf8575b5015611bcb57859291604491865195869485936302fb78a760e31b855260048501521660248301525afa908115611bc057600091611ba3575b5015611b76575050565b60649250519062461bcd60e51b8252600482015260076024820152664f7574636f6d6560c81b6044820152fd5b611bba9150833d85116104ff576104f081836118bb565b38611b6c565b82513d6000823e3d90fd5b845162461bcd60e51b815260048101879052600660248201526513585c9ad95d60d21b6044820152606490fd5b611c0f9150873d89116104ff576104f081836118bb565b38611b33565b86513d6000823e3d90fd5b6040516323b872dd60e01b60009081526001600160a01b03938416600452938316602452604494909452909160209060648180855af1600160005114811615611c8d575b83604052600060605215611c7757505050565b635274afe760e01b835216600482015260249150fd5b6001811516611ca357813b15153d151616611c64565b833d6000823e3d90fd5b604d81116108c357600a0a90565b8054821015611945576000526003602060002091020190600090565b9190611cf757604081600292518455602081015160018501550151910155565b634e487b7160e01b600052600060045260246000fd5b93909291936001810191600093868552836020526040958686205415600014611daf5760018060a01b0316918286528360205286862090875192611d508461189f565b898452602084015287830152805490600160401b821015611d9b5781611d7f916001611d859594018155611cbb565b90611cd7565b8352602052828220549382526020522055600190565b634e487b7160e01b87526041600452602487fd5b505050505091505090565b90816020910312610173575160ff811681036101735790565b6040516348d399e760e01b8152602092916001600160a01b03908116918481600481865afa918215610506578591600093611e67575b5050604051630ec9c6c360e41b81529192829060049082905afa93841561050657600094611e38575b50509190565b611e58929450803d10611e60575b611e5081836118bb565b810190611dba565b913880611e32565b503d611e46565b90929181813d8311611ea1575b611e7e81836118bb565b81010312611e9d57519182168203611e9a575083600438611e09565b80fd5b5080fd5b503d611e74565b60405163a9059cbb60e01b60009081526001600160a01b039384166004526024949094529260209060448180855af1600160005114811615611ef3575b8360405215611c7757505050565b6001811516611ca357813b15153d151616611ee5565b814710611f6e576040516020810181811067ffffffffffffffff8211176108d957604052600080809481948280955260018060a01b03165af115611f4a5750565b3d15611f5c57604051903d90823e3d90fd5b60405163d6bda27560e01b8152600490fd5b60405163cf47918160e01b815247600482015260248101839052604490fd5b90600182019060009380855260209183835260409485872054918215156000146120db5760001992808401918183116120c7576001600160a01b0316808a52838752888a205490928582019182116120b3578782828c938e9503612054575b505050509050528352848620908154801561204057019061200d8282611cbb565b61202c5760028189809355826001820155015555845252812055600190565b634e487b7160e01b88526004889052602488fd5b634e487b7160e01b88526031600452602488fd5b61209e9361206d611d7f938988528a8652828820611cbb565b50956002825197889661207f8861189f565b81548852600182015490880152015482860152888152898d5220611cbb565b51895286865287892055388888878380611fec565b634e487b7160e01b8b52601160045260248bfd5b634e487b7160e01b8a52601160045260248afd5b5050505050505090565b6001600160a01b0390811660008181526003602090815260408083209590941680835294815283822086835281528382205492959491921580612174575b612130575b505050505050565b85612169968452600982528484208385528252848420868552825284842060ff1981541690558352600881528383209183525220612366565b388080808080612128565b5085835260048152838320828452815283832085845281528383205415612123565b6001600160a01b0390811660008181526003602090815260408083209590941680835294815283822086835281528382205492959491921580612219575b6121e057505050505050565b85612169968452600982528484208385528252848420868552825284842060ff1981541690558352600781528383209183525220612366565b50858352600481528383208284528152838320858452815283832054156121d4565b6000546001600160a01b0316330361224f57565b60405163118cdaa760e01b8152336004820152602490fd5b6020612277600492949394611dd3565b5060405163313ce56760e01b815290949092839182906001600160a01b03165afa908115610506576000916122aa575090565b6122c3915060203d602011611e6057611e5081836118bb565b90565b600092835260018101602052604083205492918315612335576001600160a01b03168252602052604081206000198301929091908311612321575061231061231a92600292611cbb565b5001918254611a40565b9055600190565b634e487b7160e01b81526011600452602490fd5b505091505090565b6001600160a01b0392919083168061235c575061235a9216611f09565b565b61235a9350611ea8565b60005b81549081811015612401578391612380828561192d565b959054600396871b1c1461239a5750909250600101612369565b60001992508281019081116108c35761086c6123b96123c6928661192d565b905490871b1c928561192d565b9055815480156123eb578101926123dd848461192d565b81939154921b1b1916905555565b634e487b7160e01b600052603160045260246000fd5b5050505056fe3cbbc8402f36c579ec0a401deda27129168a12e63fcc158db749aa8beb3b0379a2646970667358221220aa9e4b8347882e12112352da1e0fb3f45036ef288e0290c83ee64e5d02feb85c64736f6c63430008180033","opcodes":"PUSH1 0xA0 CALLVALUE PUSH3 0xEF JUMPI PUSH1 0x1F PUSH3 0x257D CODESIZE DUP2 SWAP1 SUB SWAP2 DUP3 ADD PUSH1 0x1F NOT AND DUP4 ADD SWAP2 PUSH1 0x1 PUSH1 0x1 PUSH1 0x40 SHL SUB DUP4 GT DUP5 DUP5 LT OR PUSH3 0xF4 JUMPI DUP1 DUP5 SWAP3 PUSH1 0x40 SWAP5 DUP6 MSTORE DUP4 CODECOPY DUP2 ADD SUB SLT PUSH3 0xEF JUMPI PUSH1 0x20 PUSH3 0x4E DUP3 PUSH3 0x10A JUMP JUMPDEST SWAP2 PUSH1 0x1 PUSH1 0x1 PUSH1 0xA0 SHL SUB SWAP2 DUP3 SWAP2 PUSH3 0x66 SWAP2 ADD PUSH3 0x10A JUMP JUMPDEST AND DUP1 ISZERO PUSH3 0xD6 JUMPI PUSH1 0x0 SLOAD SWAP2 PUSH1 0x40 MLOAD SWAP4 DUP3 DUP3 DUP6 AND PUSH32 0x8BE0079C531659141344CD1FD0A4F28419497F9722A3DAAFE3B4186F6B6457E0 PUSH1 0x0 DUP1 LOG3 AND PUSH1 0x80 MSTORE PUSH1 0x1 PUSH1 0x1 PUSH1 0xB0 SHL SUB NOT SWAP1 SWAP2 AND OR PUSH1 0x19 PUSH1 0xA1 SHL OR PUSH1 0x0 SSTORE PUSH2 0x245D SWAP1 DUP2 PUSH3 0x120 DUP3 CODECOPY PUSH1 0x80 MLOAD DUP2 DUP2 DUP2 PUSH2 0x1788 ADD MSTORE PUSH2 0x1AFA ADD MSTORE RETURN JUMPDEST PUSH1 0x40 MLOAD PUSH4 0x1E4FBDF7 PUSH1 0xE0 SHL DUP2 MSTORE PUSH1 0x0 PUSH1 0x4 DUP3 ADD MSTORE PUSH1 0x24 SWAP1 REVERT JUMPDEST PUSH1 0x0 DUP1 REVERT JUMPDEST PUSH4 0x4E487B71 PUSH1 0xE0 SHL PUSH1 0x0 MSTORE PUSH1 0x41 PUSH1 0x4 MSTORE PUSH1 0x24 PUSH1 0x0 REVERT JUMPDEST MLOAD SWAP1 PUSH1 0x1 PUSH1 0x1 PUSH1 0xA0 SHL SUB DUP3 AND DUP3 SUB PUSH3 0xEF JUMPI JUMP INVALID PUSH1 0x80 DUP1 PUSH1 0x40 MSTORE PUSH1 0x4 CALLDATASIZE LT ISZERO PUSH2 0x1D JUMPI JUMPDEST POP CALLDATASIZE ISZERO PUSH2 0x1B JUMPI PUSH1 0x0 DUP1 REVERT JUMPDEST STOP JUMPDEST PUSH1 0x0 CALLDATALOAD PUSH1 0xE0 SHR SWAP1 DUP2 PUSH4 0x6AE7095 EQ PUSH2 0x1775 JUMPI POP DUP1 PUSH4 0x933B2AE EQ PUSH2 0x170A JUMPI DUP1 PUSH4 0x10D16B59 EQ PUSH2 0xFBB JUMPI DUP1 PUSH4 0x117C0BC0 EQ PUSH2 0xE58 JUMPI DUP1 PUSH4 0x29FF0773 EQ PUSH2 0xDD2 JUMPI DUP1 PUSH4 0x49268191 EQ PUSH2 0xD63 JUMPI DUP1 PUSH4 0x543DDF51 EQ PUSH2 0xD45 JUMPI DUP1 PUSH4 0x5671EED2 EQ PUSH2 0xD19 JUMPI DUP1 PUSH4 0x715018A6 EQ PUSH2 0xCC0 JUMPI DUP1 PUSH4 0x75FCB6A3 EQ PUSH2 0xC86 JUMPI DUP1 PUSH4 0x8DA5CB5B EQ PUSH2 0xC5D JUMPI DUP1 PUSH4 0x978BBDB9 EQ PUSH2 0xC38 JUMPI DUP1 PUSH4 0x99DB37C5 EQ PUSH2 0xAC9 JUMPI DUP1 PUSH4 0xA05118C2 EQ PUSH2 0x218 JUMPI DUP1 PUSH4 0xA480CA79 EQ PUSH2 0x1AC JUMPI DUP1 PUSH4 0xB9F8B5AA EQ PUSH2 0x178 JUMPI PUSH4 0xF2FDE38B EQ PUSH2 0xE5 JUMPI CODESIZE PUSH2 0xF JUMP JUMPDEST CALLVALUE PUSH2 0x173 JUMPI PUSH1 0x20 CALLDATASIZE PUSH1 0x3 NOT ADD SLT PUSH2 0x173 JUMPI PUSH2 0xFE PUSH2 0x17B7 JUMP JUMPDEST PUSH2 0x106 PUSH2 0x223B JUMP JUMPDEST PUSH1 0x1 PUSH1 0x1 PUSH1 0xA0 SHL SUB SWAP1 DUP2 AND SWAP1 DUP2 ISZERO PUSH2 0x15A JUMPI PUSH1 0x0 SLOAD DUP3 PUSH12 0xFFFFFFFFFFFFFFFFFFFFFFFF PUSH1 0xA0 SHL DUP3 AND OR PUSH1 0x0 SSTORE AND PUSH32 0x8BE0079C531659141344CD1FD0A4F28419497F9722A3DAAFE3B4186F6B6457E0 PUSH1 0x0 DUP1 LOG3 STOP JUMPDEST PUSH1 0x40 MLOAD PUSH4 0x1E4FBDF7 PUSH1 0xE0 SHL DUP2 MSTORE PUSH1 0x0 PUSH1 0x4 DUP3 ADD MSTORE PUSH1 0x24 SWAP1 REVERT JUMPDEST PUSH1 0x0 DUP1 REVERT JUMPDEST CALLVALUE PUSH2 0x173 JUMPI PUSH1 0x40 CALLDATASIZE PUSH1 0x3 NOT ADD SLT PUSH2 0x173 JUMPI PUSH1 0x20 PUSH2 0x1A4 PUSH2 0x196 PUSH2 0x17B7 JUMP JUMPDEST PUSH2 0x19E PUSH2 0x17CD JUMP JUMPDEST SWAP1 PUSH2 0x1A4D JUMP JUMPDEST PUSH1 0x40 MLOAD SWAP1 DUP2 MSTORE RETURN JUMPDEST CALLVALUE PUSH2 0x173 JUMPI PUSH1 0x20 CALLDATASIZE PUSH1 0x3 NOT ADD SLT PUSH2 0x173 JUMPI PUSH2 0x1C5 PUSH2 0x17B7 JUMP JUMPDEST PUSH2 0x1CD PUSH2 0x223B JUMP JUMPDEST PUSH1 0x1 PUSH1 0x1 PUSH1 0xA0 SHL SUB SWAP1 DUP2 AND SWAP1 DUP2 PUSH2 0x1F5 JUMPI PUSH2 0x1B SWAP2 POP PUSH1 0x2 SLOAD SWAP1 PUSH1 0x0 PUSH1 0x2 SSTORE PUSH1 0x0 SLOAD AND PUSH2 0x1F09 JUMP JUMPDEST DUP2 PUSH2 0x1B SWAP3 PUSH1 0x0 MSTORE PUSH1 0x1 PUSH1 0x20 MSTORE PUSH1 0x40 PUSH1 0x0 KECCAK256 SWAP2 PUSH1 0x0 DUP4 SLOAD SWAP4 SSTORE PUSH1 0x0 SLOAD AND SWAP1 PUSH2 0x1EA8 JUMP JUMPDEST PUSH2 0x221 CALLDATASIZE PUSH2 0x1818 JUMP JUMPDEST SWAP3 SWAP1 SWAP2 PUSH1 0x0 SWAP2 PUSH2 0x231 DUP3 DUP3 PUSH2 0x1AD1 JUMP JUMPDEST DUP4 ISZERO ISZERO DUP1 PUSH2 0xAC0 JUMPI JUMPDEST PUSH2 0x243 SWAP1 PUSH2 0x1851 JUMP JUMPDEST PUSH2 0x24D DUP3 DUP3 PUSH2 0x2267 JUMP JUMPDEST SWAP5 SWAP1 SWAP6 PUSH2 0x26F PUSH2 0x25D DUP4 DUP4 PUSH2 0x1A00 JUMP JUMPDEST PUSH2 0x269 PUSH1 0xFF DUP10 AND PUSH2 0x1CAD JUMP JUMPDEST SWAP1 PUSH2 0x1A13 JUMP JUMPDEST PUSH2 0x290 PUSH2 0x2710 PUSH2 0x288 PUSH2 0xFFFF PUSH1 0x0 SLOAD PUSH1 0xA0 SHR AND DUP5 PUSH2 0x1A00 JUMP JUMPDEST DIV DUP1 SWAP3 PUSH2 0x1A33 JUMP JUMPDEST SWAP1 PUSH1 0x1 PUSH1 0x1 PUSH1 0xA0 SHL SUB DUP10 AND DUP1 PUSH2 0xA5D JUMPI POP DUP2 CALLVALUE LT PUSH2 0xA32 JUMPI DUP2 PUSH2 0x2BD SWAP3 CALLVALUE GT PUSH2 0xA19 JUMPI JUMPDEST POP PUSH1 0x2 SLOAD PUSH2 0x1A33 JUMP JUMPDEST PUSH1 0x2 SSTORE SWAP5 SWAP4 SWAP5 JUMPDEST SWAP5 PUSH2 0x2CF DUP5 DUP5 PUSH2 0x2267 JUMP JUMPDEST SWAP7 SWAP1 POP JUMPDEST PUSH1 0x1 PUSH1 0x1 PUSH1 0xA0 SHL SUB DUP5 DUP2 AND PUSH1 0x0 SWAP1 DUP2 MSTORE PUSH1 0x3 PUSH1 0x20 SWAP1 DUP2 MSTORE PUSH1 0x40 DUP1 DUP4 KECCAK256 SWAP4 DUP10 AND DUP4 MSTORE SWAP3 DUP2 MSTORE DUP3 DUP3 KECCAK256 DUP7 DUP4 MSTORE SWAP1 MSTORE KECCAK256 SLOAD ISZERO ISZERO DUP1 PUSH2 0xA10 JUMPI JUMPDEST ISZERO PUSH2 0x629 JUMPI PUSH1 0x1 PUSH1 0x1 PUSH1 0xA0 SHL SUB DUP5 DUP2 AND PUSH1 0x0 SWAP1 DUP2 MSTORE PUSH1 0x3 PUSH1 0x20 DUP2 DUP2 MSTORE PUSH1 0x40 DUP1 DUP5 KECCAK256 SWAP5 DUP11 AND DUP5 MSTORE SWAP4 DUP2 MSTORE DUP4 DUP4 KECCAK256 DUP8 DUP5 MSTORE DUP2 MSTORE DUP4 DUP4 KECCAK256 PUSH1 0x1 DUP1 DUP3 ADD SLOAD DUP1 DUP7 MSTORE SWAP2 SWAP1 SWAP4 ADD SWAP1 SWAP2 MSTORE SWAP2 DUP4 SWAP1 KECCAK256 PUSH1 0x2 DUP1 DUP3 ADD SLOAD SWAP5 MLOAD SWAP4 SWAP6 SWAP4 SWAP3 SWAP1 SWAP2 SWAP1 PUSH2 0x369 DUP5 PUSH2 0x1883 JUMP JUMPDEST DUP2 ADD SLOAD PUSH1 0x1 PUSH1 0x1 PUSH1 0xA0 SHL SUB AND DUP4 MSTORE ADD SLOAD PUSH1 0x20 DUP3 ADD MSTORE DUP3 DUP3 LT PUSH2 0x512 JUMPI PUSH2 0x39E PUSH2 0x392 DUP8 DUP6 PUSH2 0x1A00 JUMP JUMPDEST PUSH2 0x269 PUSH1 0xFF DUP14 AND PUSH2 0x1CAD JUMP JUMPDEST PUSH1 0x1 DUP1 PUSH1 0xA0 SHL SUB DUP9 AND PUSH1 0x0 MSTORE PUSH1 0x3 PUSH1 0x20 MSTORE PUSH1 0x40 PUSH1 0x0 KECCAK256 PUSH1 0x1 DUP1 PUSH1 0xA0 SHL SUB DUP11 AND PUSH1 0x0 MSTORE PUSH1 0x20 MSTORE PUSH1 0x40 PUSH1 0x0 KECCAK256 DUP8 PUSH1 0x0 MSTORE PUSH1 0x20 MSTORE PUSH1 0x40 PUSH1 0x0 KECCAK256 SWAP1 PUSH1 0x40 MLOAD SWAP2 PUSH4 0xB3D3FB9D PUSH1 0xE0 SHL DUP4 MSTORE PUSH1 0x4 DUP4 ADD MSTORE PUSH1 0x20 DUP3 PUSH1 0x24 DUP2 PUSH20 0x0 GAS DELEGATECALL DUP1 ISZERO PUSH2 0x506 JUMPI PUSH2 0x4CF SWAP7 PUSH2 0x488 SWAP4 PUSH2 0x457 SWAP3 PUSH2 0x4D7 JUMPI JUMPDEST POP PUSH1 0x1 DUP1 PUSH1 0xA0 SHL SUB DUP12 AND PUSH1 0x0 MSTORE PUSH1 0x5 PUSH1 0x20 MSTORE PUSH1 0x40 PUSH1 0x0 KECCAK256 PUSH1 0x1 DUP1 PUSH1 0xA0 SHL SUB DUP14 AND PUSH1 0x0 MSTORE PUSH1 0x20 MSTORE PUSH1 0x40 PUSH1 0x0 KECCAK256 PUSH1 0x1 DUP1 PUSH1 0xA0 SHL SUB DUP7 MLOAD AND SWAP1 PUSH2 0x1F8D JUMP JUMPDEST POP PUSH2 0x463 DUP9 DUP12 DUP12 PUSH2 0x2196 JUMP JUMPDEST PUSH2 0x477 DUP6 CALLER PUSH1 0x1 PUSH1 0x1 PUSH1 0xA0 SHL SUB DUP14 AND PUSH2 0x1EA8 JUMP JUMPDEST DUP3 MLOAD PUSH1 0x1 PUSH1 0x1 PUSH1 0xA0 SHL SUB AND DUP14 PUSH2 0x233D JUMP JUMPDEST MLOAD PUSH1 0x40 DUP1 MLOAD CALLER DUP2 MSTORE PUSH1 0x20 DUP2 ADD DUP9 SWAP1 MSTORE SWAP1 DUP2 ADD DUP5 SWAP1 MSTORE PUSH1 0x1 PUSH1 0x1 PUSH1 0xA0 SHL SUB SWAP2 DUP3 AND SWAP2 DUP10 DUP2 AND SWAP2 SWAP1 DUP10 AND SWAP1 PUSH1 0x0 DUP1 MLOAD PUSH1 0x20 PUSH2 0x2408 DUP4 CODECOPY DUP2 MLOAD SWAP2 MSTORE SWAP1 DUP1 PUSH1 0x60 DUP2 ADD JUMPDEST SUB SWAP1 LOG4 PUSH2 0x1A40 JUMP JUMPDEST SWAP5 JUMPDEST SWAP5 PUSH2 0x2D3 JUMP JUMPDEST PUSH2 0x4F8 SWAP1 PUSH1 0x20 RETURNDATASIZE PUSH1 0x20 GT PUSH2 0x4FF JUMPI JUMPDEST PUSH2 0x4F0 DUP2 DUP4 PUSH2 0x18BB JUMP JUMPDEST DUP2 ADD SWAP1 PUSH2 0x1915 JUMP JUMPDEST POP DUP16 PUSH2 0x41C JUMP JUMPDEST POP RETURNDATASIZE PUSH2 0x4E6 JUMP JUMPDEST PUSH1 0x40 MLOAD RETURNDATASIZE PUSH1 0x0 DUP3 RETURNDATACOPY RETURNDATASIZE SWAP1 REVERT JUMPDEST SWAP2 POP SWAP2 PUSH2 0x5E4 SWAP1 PUSH2 0x5BE DUP5 PUSH2 0x537 DUP13 PUSH2 0x269 PUSH1 0xFF PUSH2 0x530 DUP13 DUP7 PUSH2 0x1A00 JUMP JUMPDEST SWAP3 AND PUSH2 0x1CAD JUMP JUMPDEST SWAP3 PUSH1 0x1 DUP1 PUSH1 0xA0 SHL SUB DUP11 AND PUSH1 0x0 MSTORE PUSH1 0x3 PUSH1 0x20 MSTORE PUSH1 0x40 PUSH1 0x0 KECCAK256 PUSH1 0x1 DUP1 PUSH1 0xA0 SHL SUB DUP13 AND PUSH1 0x0 MSTORE PUSH1 0x20 MSTORE PUSH1 0x40 PUSH1 0x0 KECCAK256 DUP10 PUSH1 0x0 MSTORE PUSH1 0x20 MSTORE PUSH1 0x3 PUSH1 0x40 PUSH1 0x0 KECCAK256 ADD DUP2 PUSH1 0x0 MSTORE PUSH1 0x20 MSTORE PUSH1 0x2 PUSH1 0x40 PUSH1 0x0 KECCAK256 ADD PUSH2 0x58B DUP4 DUP3 SLOAD PUSH2 0x1A40 JUMP JUMPDEST SWAP1 SSTORE PUSH1 0x1 PUSH1 0x1 PUSH1 0xA0 SHL SUB DUP11 DUP2 AND PUSH1 0x0 SWAP1 DUP2 MSTORE PUSH1 0x5 PUSH1 0x20 SWAP1 DUP2 MSTORE PUSH1 0x40 DUP1 DUP4 KECCAK256 DUP16 DUP6 AND DUP5 MSTORE SWAP1 SWAP2 MSTORE SWAP1 KECCAK256 DUP8 MLOAD SWAP1 SWAP2 AND SWAP1 PUSH2 0x22C6 JUMP JUMPDEST POP PUSH2 0x5D3 DUP5 CALLER PUSH1 0x1 PUSH1 0x1 PUSH1 0xA0 SHL SUB DUP12 AND PUSH2 0x1EA8 JUMP JUMPDEST DUP3 MLOAD PUSH1 0x1 PUSH1 0x1 PUSH1 0xA0 SHL SUB AND DUP12 PUSH2 0x233D JUMP JUMPDEST MLOAD PUSH1 0x40 DUP1 MLOAD CALLER DUP2 MSTORE PUSH1 0x20 DUP2 ADD DUP7 SWAP1 MSTORE SWAP1 DUP2 ADD SWAP3 SWAP1 SWAP3 MSTORE PUSH1 0x1 PUSH1 0x1 PUSH1 0xA0 SHL SUB SWAP1 DUP2 AND SWAP2 DUP7 DUP3 AND SWAP2 DUP7 AND SWAP1 PUSH1 0x0 DUP1 MLOAD PUSH1 0x20 PUSH2 0x2408 DUP4 CODECOPY DUP2 MLOAD SWAP2 MSTORE SWAP1 PUSH1 0x60 SWAP1 LOG4 PUSH1 0x0 SWAP5 PUSH2 0x4D1 JUMP JUMPDEST DUP5 DUP5 SWAP4 DUP8 DUP4 PUSH2 0x63E JUMPI JUMPDEST PUSH1 0x20 DUP6 PUSH1 0x40 MLOAD SWAP1 DUP2 MSTORE RETURN JUMPDEST DUP4 SWAP5 POP PUSH2 0x269 PUSH1 0xFF PUSH2 0x530 DUP5 PUSH2 0x655 SWAP6 SWAP7 SWAP8 PUSH2 0x1A00 JUMP JUMPDEST SWAP4 PUSH1 0x1 DUP1 PUSH1 0xA0 SHL SUB AND DUP1 PUSH1 0x0 MSTORE PUSH1 0x20 SWAP4 PUSH1 0x4 DUP6 MSTORE PUSH1 0x40 PUSH1 0x0 KECCAK256 PUSH1 0x1 DUP1 PUSH1 0xA0 SHL SUB DUP6 AND PUSH1 0x0 MSTORE DUP6 MSTORE PUSH1 0x40 PUSH1 0x0 KECCAK256 DUP4 PUSH1 0x0 MSTORE DUP6 MSTORE PUSH1 0x40 PUSH1 0x0 KECCAK256 SLOAD ISZERO PUSH1 0x0 EQ PUSH2 0x95C JUMPI PUSH1 0x0 DUP3 DUP2 MSTORE PUSH1 0x4 DUP1 DUP8 MSTORE PUSH1 0x40 DUP1 DUP4 KECCAK256 PUSH1 0x1 PUSH1 0x1 PUSH1 0xA0 SHL SUB DUP9 AND DUP5 MSTORE DUP9 MSTORE DUP1 DUP4 KECCAK256 DUP7 DUP5 MSTORE DUP9 MSTORE SWAP2 DUP3 SWAP1 KECCAK256 SWAP2 MLOAD PUSH4 0xEDE5D87 PUSH1 0xE3 SHL DUP2 MSTORE SWAP1 DUP2 ADD SWAP2 SWAP1 SWAP2 MSTORE CALLER PUSH1 0x24 DUP3 ADD MSTORE PUSH1 0x44 DUP2 ADD DUP8 SWAP1 MSTORE DUP6 DUP2 PUSH1 0x64 DUP2 PUSH20 0x0 GAS DELEGATECALL SWAP1 DUP2 ISZERO PUSH2 0x506 JUMPI PUSH1 0x0 SWAP2 PUSH2 0x92F JUMPI JUMPDEST POP PUSH1 0x0 DUP4 DUP2 MSTORE PUSH1 0x9 DUP8 MSTORE PUSH1 0x40 DUP1 DUP3 KECCAK256 PUSH1 0x1 PUSH1 0x1 PUSH1 0xA0 SHL SUB DUP9 AND DUP4 MSTORE DUP9 MSTORE DUP1 DUP3 KECCAK256 DUP7 DUP4 MSTORE DUP9 MSTORE SWAP1 KECCAK256 SLOAD SWAP1 SWAP6 SWAP1 PUSH1 0xFF AND ISZERO PUSH2 0x7BC JUMPI JUMPDEST PUSH2 0x76D PUSH1 0x20 SWAP8 JUMPDEST PUSH1 0x0 DUP6 DUP2 MSTORE PUSH1 0x6 DUP5 MSTORE PUSH1 0x40 DUP1 DUP3 KECCAK256 PUSH1 0x1 PUSH1 0x1 PUSH1 0xA0 SHL SUB DUP11 AND DUP4 MSTORE DUP6 MSTORE SWAP1 KECCAK256 DUP7 SWAP1 DUP10 SWAP1 CALLER SWAP1 PUSH2 0x1D0D JUMP JUMPDEST POP PUSH1 0x40 MLOAD SWAP4 DUP5 MSTORE DUP4 ADD MSTORE DUP4 PUSH1 0x40 DUP4 ADD MSTORE PUSH1 0x1 PUSH1 0x60 DUP4 ADD MSTORE PUSH32 0x8DF2DFCFAA1D4B132F1ADE3FB5F295CE8FA7D2257ABEF9845734F54D254A770 PUSH1 0x80 CALLER SWAP5 PUSH1 0x1 DUP1 PUSH1 0xA0 SHL SUB AND SWAP4 LOG4 DUP3 DUP1 DUP1 DUP1 PUSH2 0x633 JUMP JUMPDEST PUSH1 0x0 DUP4 DUP2 MSTORE PUSH1 0x9 DUP3 MSTORE PUSH1 0x40 DUP1 DUP3 KECCAK256 PUSH1 0x1 PUSH1 0x1 PUSH1 0xA0 SHL SUB DUP9 AND DUP1 DUP5 MSTORE SWAP1 DUP5 MSTORE DUP2 DUP4 KECCAK256 DUP8 DUP5 MSTORE DUP5 MSTORE DUP2 DUP4 KECCAK256 DUP1 SLOAD PUSH1 0xFF NOT AND PUSH1 0x1 SWAP1 DUP2 OR SWAP1 SWAP2 SSTORE DUP7 DUP5 MSTORE PUSH1 0x8 DUP6 MSTORE DUP3 DUP5 KECCAK256 SWAP2 DUP5 MSTORE SWAP1 DUP5 MSTORE SWAP1 DUP3 KECCAK256 DUP1 SLOAD SWAP1 SWAP2 DUP1 JUMPDEST PUSH2 0x8EF JUMPI JUMPDEST POP PUSH1 0x1 PUSH1 0x40 SHL DUP2 LT ISZERO PUSH2 0x8D9 JUMPI DUP1 PUSH1 0x1 PUSH2 0x82E SWAP3 ADD DUP4 SSTORE DUP3 PUSH2 0x192D JUMP JUMPDEST DUP2 SLOAD SWAP2 PUSH1 0x0 NOT SWAP3 DUP4 PUSH1 0x3 SWAP4 PUSH1 0x3 SHL SHL NOT AND SWAP1 SSTORE DUP3 SLOAD DUP3 DUP2 ADD SWAP1 DUP2 GT PUSH2 0x8C3 JUMPI JUMPDEST DUP5 DUP2 GT PUSH2 0x88D JUMPI POP POP POP SWAP8 DUP6 PUSH2 0x883 PUSH2 0x86C PUSH2 0x76D SWAP5 PUSH1 0x20 SWAP13 PUSH2 0x192D JUMP JUMPDEST DUP2 SWAP4 SWAP2 SLOAD SWAP1 PUSH1 0x3 SHL SWAP2 DUP3 SHL SWAP2 PUSH1 0x0 NOT SWAP1 SHL NOT AND OR SWAP1 JUMP JUMPDEST SWAP1 SSTORE SWAP8 POP POP PUSH2 0x73D JUMP JUMPDEST DUP3 DUP2 ADD DUP2 DUP2 GT PUSH2 0x8C3 JUMPI PUSH2 0x8A1 SWAP1 DUP6 PUSH2 0x192D JUMP JUMPDEST SWAP1 SLOAD SWAP1 DUP4 SHL SHR PUSH2 0x8B4 PUSH2 0x86C DUP4 DUP8 PUSH2 0x192D JUMP JUMPDEST SWAP1 SSTORE DUP1 ISZERO PUSH2 0x8C3 JUMPI DUP3 ADD PUSH2 0x84E JUMP JUMPDEST PUSH4 0x4E487B71 PUSH1 0xE0 SHL PUSH1 0x0 MSTORE PUSH1 0x11 PUSH1 0x4 MSTORE PUSH1 0x24 PUSH1 0x0 REVERT JUMPDEST PUSH4 0x4E487B71 PUSH1 0xE0 SHL PUSH1 0x0 MSTORE PUSH1 0x41 PUSH1 0x4 MSTORE PUSH1 0x24 PUSH1 0x0 REVERT JUMPDEST SWAP3 DUP2 DUP2 LT DUP1 PUSH2 0x916 JUMPI JUMPDEST ISZERO PUSH2 0x910 JUMPI PUSH1 0x0 NOT DUP2 EQ PUSH2 0x8C3 JUMPI DUP4 ADD SWAP3 DUP1 PUSH2 0x80C JUMP JUMPDEST SWAP3 PUSH2 0x811 JUMP JUMPDEST POP DUP8 PUSH2 0x922 DUP3 DUP6 PUSH2 0x192D JUMP JUMPDEST SWAP1 SLOAD SWAP1 PUSH1 0x3 SHL SHR GT PUSH2 0x8F9 JUMP JUMPDEST SWAP1 POP DUP6 DUP2 DUP2 RETURNDATASIZE DUP4 GT PUSH2 0x955 JUMPI JUMPDEST PUSH2 0x946 DUP2 DUP4 PUSH2 0x18BB JUMP JUMPDEST DUP2 ADD SUB SLT PUSH2 0x173 JUMPI MLOAD DUP8 PUSH2 0x709 JUMP JUMPDEST POP RETURNDATASIZE PUSH2 0x93C JUMP JUMPDEST PUSH1 0x0 DUP3 DUP2 MSTORE PUSH1 0x4 DUP1 DUP8 MSTORE PUSH1 0x40 DUP1 DUP4 KECCAK256 PUSH1 0x1 PUSH1 0x1 PUSH1 0xA0 SHL SUB DUP9 AND DUP5 MSTORE DUP9 MSTORE DUP1 DUP4 KECCAK256 DUP7 DUP5 MSTORE DUP9 MSTORE SWAP2 DUP3 SWAP1 KECCAK256 SWAP2 MLOAD PUSH4 0x50FE1577 PUSH1 0xE0 SHL DUP2 MSTORE SWAP1 DUP2 ADD SWAP2 SWAP1 SWAP2 MSTORE CALLER PUSH1 0x24 DUP3 ADD MSTORE PUSH1 0x44 DUP2 ADD DUP8 SWAP1 MSTORE SWAP6 SWAP5 DUP1 DUP8 PUSH1 0x64 DUP2 PUSH20 0x0 GAS DELEGATECALL SWAP7 DUP8 ISZERO PUSH2 0x506 JUMPI PUSH1 0x0 SWAP8 PUSH2 0x9DF JUMPI JUMPDEST POP PUSH2 0x76D PUSH1 0x20 SWAP8 SWAP7 PUSH2 0x744 JUMP JUMPDEST SWAP7 POP DUP1 DUP8 DUP2 RETURNDATASIZE DUP4 GT PUSH2 0xA09 JUMPI JUMPDEST PUSH2 0x9F6 DUP2 DUP4 PUSH2 0x18BB JUMP JUMPDEST DUP2 ADD SUB SLT PUSH2 0x173 JUMPI SWAP6 MLOAD SWAP6 PUSH2 0x76D PUSH2 0x9D2 JUMP JUMPDEST POP RETURNDATASIZE PUSH2 0x9EC JUMP JUMPDEST POP DUP1 ISZERO ISZERO PUSH2 0x309 JUMP JUMPDEST PUSH2 0xA26 PUSH2 0xA2C SWAP2 CALLVALUE PUSH2 0x1A40 JUMP JUMPDEST CALLER PUSH2 0x1F09 JUMP JUMPDEST DUP10 PUSH2 0x2B4 JUMP JUMPDEST PUSH1 0x40 MLOAD PUSH3 0x461BCD PUSH1 0xE5 SHL DUP2 MSTORE PUSH1 0x20 PUSH1 0x4 DUP3 ADD MSTORE PUSH1 0x3 PUSH1 0x24 DUP3 ADD MSTORE PUSH3 0x8AA89 PUSH1 0xEB SHL PUSH1 0x44 DUP3 ADD MSTORE PUSH1 0x64 SWAP1 REVERT JUMPDEST SWAP1 SWAP2 CALLVALUE PUSH2 0xA92 JUMPI PUSH2 0xA70 SWAP1 ADDRESS CALLER DUP5 PUSH2 0x1C20 JUMP JUMPDEST PUSH1 0x0 MSTORE PUSH1 0x1 PUSH1 0x20 MSTORE PUSH2 0xA88 PUSH1 0x40 PUSH1 0x0 KECCAK256 SWAP2 DUP3 SLOAD PUSH2 0x1A33 JUMP JUMPDEST SWAP1 SSTORE SWAP5 SWAP4 SWAP5 PUSH2 0x2C4 JUMP JUMPDEST PUSH1 0x40 MLOAD PUSH3 0x461BCD PUSH1 0xE5 SHL DUP2 MSTORE PUSH1 0x20 PUSH1 0x4 DUP3 ADD MSTORE PUSH1 0x6 PUSH1 0x24 DUP3 ADD MSTORE PUSH6 0x9CDE408AA89 PUSH1 0xD3 SHL PUSH1 0x44 DUP3 ADD MSTORE PUSH1 0x64 SWAP1 REVERT JUMPDEST POP DUP5 ISZERO ISZERO PUSH2 0x23A JUMP JUMPDEST CALLVALUE PUSH2 0x173 JUMPI PUSH2 0xAD7 CALLDATASIZE PUSH2 0x1818 JUMP JUMPDEST PUSH1 0x1 DUP1 PUSH1 0xA0 SWAP6 SWAP5 SWAP4 SWAP6 SHL SUB SWAP3 DUP4 DUP2 AND SWAP3 DUP4 PUSH1 0x0 MSTORE PUSH1 0x20 SWAP2 PUSH1 0x3 DUP4 MSTORE PUSH2 0xB56 PUSH1 0x40 PUSH1 0x0 KECCAK256 SWAP7 DUP1 DUP5 AND SWAP8 DUP9 PUSH1 0x0 MSTORE DUP6 MSTORE PUSH1 0x40 PUSH1 0x0 KECCAK256 DUP10 PUSH1 0x0 MSTORE DUP6 MSTORE PUSH1 0x3 PUSH1 0x40 PUSH1 0x0 KECCAK256 ADD DUP7 PUSH1 0x0 MSTORE DUP6 MSTORE PUSH2 0xB4E PUSH1 0x40 PUSH1 0x0 KECCAK256 DUP7 PUSH1 0x2 PUSH1 0x40 MLOAD SWAP5 PUSH2 0xB36 DUP7 PUSH2 0x1883 JUMP JUMPDEST PUSH1 0x1 DUP5 ADD SLOAD AND SWAP3 DUP4 DUP7 MSTORE ADD SLOAD SWAP4 ADD SWAP3 DUP4 MSTORE CALLER EQ PUSH2 0x18DD JUMP JUMPDEST MLOAD CALLER DUP9 PUSH2 0x1EA8 JUMP JUMPDEST DUP5 PUSH1 0x0 MSTORE PUSH1 0x3 DUP4 MSTORE PUSH1 0x40 PUSH1 0x0 KECCAK256 DUP7 PUSH1 0x0 MSTORE DUP4 MSTORE PUSH1 0x40 PUSH1 0x0 KECCAK256 DUP8 PUSH1 0x0 MSTORE DUP4 MSTORE PUSH1 0x40 PUSH1 0x0 KECCAK256 SWAP2 PUSH1 0x40 MLOAD SWAP3 PUSH4 0x2014B08B PUSH1 0xE2 SHL DUP5 MSTORE PUSH1 0x4 DUP5 ADD MSTORE DUP5 PUSH1 0x24 DUP5 ADD MSTORE DUP4 DUP4 PUSH1 0x44 DUP2 PUSH20 0x0 GAS DELEGATECALL SWAP2 DUP3 ISZERO PUSH2 0x506 JUMPI PUSH2 0xBEA SWAP4 DUP10 SWAP4 PUSH2 0xC1B JUMPI JUMPDEST POP DUP7 PUSH1 0x0 MSTORE PUSH1 0x5 DUP6 MSTORE PUSH1 0x40 PUSH1 0x0 KECCAK256 DUP9 PUSH1 0x0 MSTORE DUP6 MSTORE PUSH2 0xBE4 DUP7 CALLER PUSH1 0x40 PUSH1 0x0 KECCAK256 PUSH2 0x1F8D JUMP JUMPDEST POP PUSH2 0x2196 JUMP JUMPDEST PUSH1 0x40 MLOAD SWAP5 DUP6 MSTORE DUP5 ADD MSTORE PUSH32 0x4D808958216860D10B60C5927CDBBCFF69E2318BE11E150596EAE39DC0D8EA18 PUSH1 0x40 CALLER SWAP5 LOG4 STOP JUMPDEST PUSH2 0xC31 SWAP1 DUP7 RETURNDATASIZE DUP9 GT PUSH2 0x4FF JUMPI PUSH2 0x4F0 DUP2 DUP4 PUSH2 0x18BB JUMP JUMPDEST POP DUP10 PUSH2 0xBC1 JUMP JUMPDEST CALLVALUE PUSH2 0x173 JUMPI PUSH1 0x0 CALLDATASIZE PUSH1 0x3 NOT ADD SLT PUSH2 0x173 JUMPI PUSH1 0x20 PUSH2 0xFFFF PUSH1 0x0 SLOAD PUSH1 0xA0 SHR AND PUSH1 0x40 MLOAD SWAP1 DUP2 MSTORE RETURN JUMPDEST CALLVALUE PUSH2 0x173 JUMPI PUSH1 0x0 CALLDATASIZE PUSH1 0x3 NOT ADD SLT PUSH2 0x173 JUMPI PUSH1 0x0 SLOAD PUSH1 0x40 MLOAD PUSH1 0x1 PUSH1 0x1 PUSH1 0xA0 SHL SUB SWAP1 SWAP2 AND DUP2 MSTORE PUSH1 0x20 SWAP1 RETURN JUMPDEST CALLVALUE PUSH2 0x173 JUMPI PUSH1 0x20 CALLDATASIZE PUSH1 0x3 NOT ADD SLT PUSH2 0x173 JUMPI PUSH1 0x1 PUSH1 0x1 PUSH1 0xA0 SHL SUB PUSH2 0xCA7 PUSH2 0x17B7 JUMP JUMPDEST AND PUSH1 0x0 MSTORE PUSH1 0x1 PUSH1 0x20 MSTORE PUSH1 0x20 PUSH1 0x40 PUSH1 0x0 KECCAK256 SLOAD PUSH1 0x40 MLOAD SWAP1 DUP2 MSTORE RETURN JUMPDEST CALLVALUE PUSH2 0x173 JUMPI PUSH1 0x0 CALLDATASIZE PUSH1 0x3 NOT ADD SLT PUSH2 0x173 JUMPI PUSH2 0xCD9 PUSH2 0x223B JUMP JUMPDEST PUSH1 0x0 DUP1 SLOAD PUSH1 0x1 PUSH1 0x1 PUSH1 0xA0 SHL SUB NOT DUP2 AND DUP3 SSTORE PUSH1 0x1 PUSH1 0x1 PUSH1 0xA0 SHL SUB AND PUSH32 0x8BE0079C531659141344CD1FD0A4F28419497F9722A3DAAFE3B4186F6B6457E0 DUP3 DUP1 LOG3 STOP JUMPDEST CALLVALUE PUSH2 0x173 JUMPI PUSH1 0x40 CALLDATASIZE PUSH1 0x3 NOT ADD SLT PUSH2 0x173 JUMPI PUSH1 0x20 PUSH2 0x1A4 PUSH2 0xD37 PUSH2 0x17B7 JUMP JUMPDEST PUSH2 0xD3F PUSH2 0x17CD JUMP JUMPDEST SWAP1 PUSH2 0x195B JUMP JUMPDEST CALLVALUE PUSH2 0x173 JUMPI PUSH1 0x0 CALLDATASIZE PUSH1 0x3 NOT ADD SLT PUSH2 0x173 JUMPI PUSH1 0x20 PUSH1 0x2 SLOAD PUSH1 0x40 MLOAD SWAP1 DUP2 MSTORE RETURN JUMPDEST CALLVALUE PUSH2 0x173 JUMPI PUSH2 0xD71 CALLDATASIZE PUSH2 0x17E3 JUMP JUMPDEST SWAP2 PUSH1 0x1 DUP1 PUSH1 0xA0 SHL SUB DUP1 SWAP2 AND PUSH1 0x0 MSTORE PUSH1 0x3 PUSH1 0x20 MSTORE PUSH1 0x40 PUSH1 0x0 KECCAK256 SWAP2 AND PUSH1 0x0 MSTORE PUSH1 0x20 MSTORE PUSH1 0x40 PUSH1 0x0 KECCAK256 SWAP1 PUSH1 0x0 MSTORE PUSH1 0x20 MSTORE PUSH1 0x40 PUSH1 0x0 KECCAK256 DUP1 SLOAD PUSH2 0xDCE PUSH1 0x2 PUSH1 0x1 DUP5 ADD SLOAD SWAP4 ADD SLOAD PUSH1 0x40 MLOAD SWAP4 DUP5 SWAP4 DUP5 PUSH1 0x40 SWAP2 SWAP5 SWAP4 SWAP3 PUSH1 0x60 DUP3 ADD SWAP6 DUP3 MSTORE PUSH1 0x20 DUP3 ADD MSTORE ADD MSTORE JUMP JUMPDEST SUB SWAP1 RETURN JUMPDEST CALLVALUE PUSH2 0x173 JUMPI PUSH1 0x20 CALLDATASIZE PUSH1 0x3 NOT ADD SLT PUSH2 0x173 JUMPI PUSH1 0x4 CALLDATALOAD PUSH2 0xFFFF DUP2 AND DUP1 DUP3 SUB PUSH2 0x173 JUMPI PUSH2 0x3E8 SWAP1 PUSH2 0xDFE PUSH2 0x223B JUMP JUMPDEST GT PUSH2 0xE24 JUMPI PUSH1 0x0 DUP1 SLOAD PUSH2 0xFFFF PUSH1 0xA0 SHL NOT AND PUSH1 0xA0 SWAP3 SWAP1 SWAP3 SHL PUSH2 0xFFFF PUSH1 0xA0 SHL AND SWAP2 SWAP1 SWAP2 OR SWAP1 SSTORE STOP JUMPDEST PUSH1 0x40 MLOAD PUSH3 0x461BCD PUSH1 0xE5 SHL DUP2 MSTORE PUSH1 0x20 PUSH1 0x4 DUP3 ADD MSTORE PUSH1 0xC PUSH1 0x24 DUP3 ADD MSTORE PUSH12 0x8CCACA40E8DEDE40D0D2CED PUSH1 0xA3 SHL PUSH1 0x44 DUP3 ADD MSTORE PUSH1 0x64 SWAP1 REVERT JUMPDEST CALLVALUE PUSH2 0x173 JUMPI PUSH2 0xE66 CALLDATASIZE PUSH2 0x1818 JUMP JUMPDEST PUSH1 0x1 DUP1 PUSH1 0xA0 SWAP6 SWAP5 SWAP4 SWAP6 SHL SUB SWAP3 DUP4 DUP2 AND SWAP3 DUP4 PUSH1 0x0 MSTORE PUSH1 0x20 SWAP2 PUSH1 0x4 DUP4 MSTORE PUSH1 0x40 PUSH1 0x0 KECCAK256 SWAP6 DUP1 DUP4 AND SWAP7 DUP8 PUSH1 0x0 MSTORE DUP5 MSTORE PUSH1 0x40 PUSH1 0x0 KECCAK256 DUP9 PUSH1 0x0 MSTORE DUP5 MSTORE PUSH1 0x3 PUSH1 0x40 PUSH1 0x0 KECCAK256 ADD DUP6 PUSH1 0x0 MSTORE DUP5 MSTORE PUSH1 0x40 PUSH1 0x0 KECCAK256 SWAP1 PUSH2 0xEDC PUSH1 0x40 MLOAD SWAP3 PUSH2 0xEC0 DUP5 PUSH2 0x1883 JUMP JUMPDEST DUP7 PUSH1 0x2 DUP5 PUSH1 0x1 DUP5 ADD SLOAD AND SWAP3 DUP4 DUP8 MSTORE ADD SLOAD SWAP5 ADD SWAP4 DUP5 MSTORE CALLER EQ PUSH2 0x18DD JUMP JUMPDEST PUSH2 0xEE5 DUP4 PUSH2 0x1DD3 JUMP JUMPDEST POP AND DUP1 PUSH2 0xFA9 JUMPI POP PUSH2 0xEF8 SWAP1 MLOAD CALLER PUSH2 0x1F09 JUMP JUMPDEST DUP5 PUSH1 0x0 MSTORE PUSH1 0x4 DUP4 MSTORE PUSH1 0x40 PUSH1 0x0 KECCAK256 DUP7 PUSH1 0x0 MSTORE DUP4 MSTORE PUSH1 0x40 PUSH1 0x0 KECCAK256 DUP8 PUSH1 0x0 MSTORE DUP4 MSTORE PUSH1 0x40 PUSH1 0x0 KECCAK256 SWAP2 PUSH1 0x40 MLOAD SWAP3 PUSH4 0x2014B08B PUSH1 0xE2 SHL DUP5 MSTORE PUSH1 0x4 DUP5 ADD MSTORE DUP5 PUSH1 0x24 DUP5 ADD MSTORE DUP4 DUP4 PUSH1 0x44 DUP2 PUSH20 0x0 GAS DELEGATECALL SWAP2 DUP3 ISZERO PUSH2 0x506 JUMPI PUSH2 0xBEA SWAP4 DUP10 SWAP4 PUSH2 0xF8C JUMPI JUMPDEST POP DUP7 PUSH1 0x0 MSTORE PUSH1 0x6 DUP6 MSTORE PUSH1 0x40 PUSH1 0x0 KECCAK256 DUP9 PUSH1 0x0 MSTORE DUP6 MSTORE PUSH2 0xF86 DUP7 CALLER PUSH1 0x40 PUSH1 0x0 KECCAK256 PUSH2 0x1F8D JUMP JUMPDEST POP PUSH2 0x20E5 JUMP JUMPDEST PUSH2 0xFA2 SWAP1 DUP7 RETURNDATASIZE DUP9 GT PUSH2 0x4FF JUMPI PUSH2 0x4F0 DUP2 DUP4 PUSH2 0x18BB JUMP JUMPDEST POP DUP10 PUSH2 0xF63 JUMP JUMPDEST PUSH2 0xFB6 SWAP2 MLOAD SWAP1 CALLER SWAP1 PUSH2 0x1EA8 JUMP JUMPDEST PUSH2 0xEF8 JUMP JUMPDEST CALLVALUE PUSH2 0x173 JUMPI PUSH2 0xFC9 CALLDATASIZE PUSH2 0x1818 JUMP JUMPDEST SWAP3 SWAP1 SWAP2 PUSH1 0x0 SWAP4 PUSH2 0xFD9 DUP3 DUP5 PUSH2 0x1AD1 JUMP JUMPDEST DUP4 ISZERO ISZERO DUP1 PUSH2 0x1701 JUMPI JUMPDEST PUSH2 0xFEE SWAP1 SWAP6 SWAP4 SWAP6 PUSH2 0x1851 JUMP JUMPDEST PUSH2 0x1003 DUP2 ADDRESS CALLER PUSH1 0x1 PUSH1 0x1 PUSH1 0xA0 SHL SUB DUP7 AND PUSH2 0x1C20 JUMP JUMPDEST SWAP4 PUSH2 0x100E DUP3 DUP3 PUSH2 0x2267 JUMP JUMPDEST SWAP5 SWAP1 SWAP6 JUMPDEST PUSH1 0x1 PUSH1 0x1 PUSH1 0xA0 SHL SUB DUP4 DUP2 AND PUSH1 0x0 SWAP1 DUP2 MSTORE PUSH1 0x4 PUSH1 0x20 SWAP1 DUP2 MSTORE PUSH1 0x40 DUP1 DUP4 KECCAK256 SWAP4 DUP9 AND DUP4 MSTORE SWAP3 DUP2 MSTORE DUP3 DUP3 KECCAK256 DUP6 DUP4 MSTORE SWAP1 MSTORE KECCAK256 SLOAD ISZERO ISZERO DUP1 PUSH2 0x16F8 JUMPI JUMPDEST ISZERO PUSH2 0x1377 JUMPI PUSH1 0x1 PUSH1 0x1 PUSH1 0xA0 SHL SUB DUP4 DUP2 AND PUSH1 0x0 SWAP1 DUP2 MSTORE PUSH1 0x4 PUSH1 0x20 SWAP1 DUP2 MSTORE PUSH1 0x40 DUP1 DUP4 KECCAK256 SWAP4 DUP9 AND DUP4 MSTORE SWAP3 DUP2 MSTORE DUP3 DUP3 KECCAK256 DUP6 DUP4 MSTORE DUP2 MSTORE DUP3 DUP3 KECCAK256 PUSH1 0x1 DUP2 ADD SLOAD DUP1 DUP5 MSTORE PUSH1 0x3 SWAP1 SWAP2 ADD SWAP1 SWAP2 MSTORE SWAP2 SWAP1 KECCAK256 PUSH1 0x2 ADD SLOAD SWAP1 SWAP2 PUSH2 0x10B3 DUP5 PUSH2 0x10AE PUSH2 0x10A8 PUSH1 0xFF DUP13 AND PUSH2 0x1CAD JUMP JUMPDEST DUP6 PUSH2 0x1A00 JUMP JUMPDEST PUSH2 0x1A13 JUMP JUMPDEST SWAP2 PUSH1 0x1 DUP1 PUSH1 0xA0 SHL SUB DUP7 AND PUSH1 0x0 MSTORE PUSH1 0x4 PUSH1 0x20 MSTORE PUSH1 0x40 PUSH1 0x0 KECCAK256 PUSH1 0x1 DUP1 PUSH1 0xA0 SHL SUB DUP9 AND PUSH1 0x0 MSTORE PUSH1 0x20 MSTORE PUSH1 0x40 PUSH1 0x0 KECCAK256 DUP6 PUSH1 0x0 MSTORE PUSH1 0x20 MSTORE PUSH1 0x3 PUSH1 0x40 PUSH1 0x0 KECCAK256 ADD DUP5 PUSH1 0x0 MSTORE PUSH1 0x20 MSTORE PUSH1 0x40 PUSH1 0x0 KECCAK256 SWAP1 PUSH1 0x2 PUSH1 0x40 MLOAD SWAP3 PUSH2 0x1109 DUP5 PUSH2 0x1883 JUMP JUMPDEST PUSH1 0x1 DUP2 ADD SLOAD PUSH1 0x1 PUSH1 0x1 PUSH1 0xA0 SHL SUB AND DUP5 MSTORE ADD SLOAD PUSH1 0x20 DUP4 ADD MSTORE DUP4 DUP4 LT PUSH2 0x126F JUMPI PUSH1 0x1 DUP1 PUSH1 0xA0 SHL SUB DUP8 AND PUSH1 0x0 MSTORE PUSH1 0x4 PUSH1 0x20 MSTORE PUSH1 0x40 PUSH1 0x0 KECCAK256 PUSH1 0x1 DUP1 PUSH1 0xA0 SHL SUB DUP10 AND PUSH1 0x0 MSTORE PUSH1 0x20 MSTORE PUSH1 0x40 PUSH1 0x0 KECCAK256 DUP7 PUSH1 0x0 MSTORE PUSH1 0x20 MSTORE PUSH1 0x40 PUSH1 0x0 KECCAK256 SWAP1 PUSH1 0x40 MLOAD SWAP2 PUSH4 0xB3D3FB9D PUSH1 0xE0 SHL DUP4 MSTORE PUSH1 0x4 DUP4 ADD MSTORE PUSH1 0x20 DUP3 PUSH1 0x24 DUP2 PUSH20 0x0 GAS DELEGATECALL DUP1 ISZERO PUSH2 0x506 JUMPI PUSH2 0x1248 SWAP7 PUSH2 0x1205 SWAP4 PUSH2 0x11D7 SWAP3 PUSH2 0x1250 JUMPI JUMPDEST POP PUSH1 0x1 PUSH1 0x1 PUSH1 0xA0 SHL SUB DUP11 DUP2 AND PUSH1 0x0 SWAP1 DUP2 MSTORE PUSH1 0x6 PUSH1 0x20 SWAP1 DUP2 MSTORE PUSH1 0x40 DUP1 DUP4 KECCAK256 DUP16 DUP6 AND DUP5 MSTORE SWAP1 SWAP2 MSTORE SWAP1 KECCAK256 DUP7 MLOAD SWAP1 SWAP2 AND SWAP1 PUSH2 0x1F8D JUMP JUMPDEST POP PUSH2 0x11E3 DUP8 DUP11 DUP11 PUSH2 0x20E5 JUMP JUMPDEST DUP3 MLOAD PUSH2 0x11FE SWAP1 DUP7 SWAP1 PUSH1 0x1 PUSH1 0x1 PUSH1 0xA0 SHL SUB SWAP1 DUP2 AND SWAP1 DUP13 AND PUSH2 0x1EA8 JUMP JUMPDEST CALLER DUP13 PUSH2 0x233D JUMP JUMPDEST MLOAD PUSH1 0x40 DUP1 MLOAD CALLER DUP2 MSTORE PUSH1 0x20 DUP2 ADD DUP8 SWAP1 MSTORE SWAP1 DUP2 ADD DUP5 SWAP1 MSTORE PUSH1 0x1 PUSH1 0x1 PUSH1 0xA0 SHL SUB SWAP2 DUP3 AND SWAP2 DUP9 DUP2 AND SWAP2 SWAP1 DUP9 AND SWAP1 PUSH1 0x0 DUP1 MLOAD PUSH1 0x20 PUSH2 0x2408 DUP4 CODECOPY DUP2 MLOAD SWAP2 MSTORE SWAP1 DUP1 PUSH1 0x60 DUP2 ADD PUSH2 0x4C7 JUMP JUMPDEST SWAP4 JUMPDEST SWAP4 PUSH2 0x1012 JUMP JUMPDEST PUSH2 0x1268 SWAP1 PUSH1 0x20 RETURNDATASIZE PUSH1 0x20 GT PUSH2 0x4FF JUMPI PUSH2 0x4F0 DUP2 DUP4 PUSH2 0x18BB JUMP JUMPDEST POP DUP15 PUSH2 0x11A5 JUMP JUMPDEST POP SWAP2 POP SWAP2 PUSH2 0x1332 SWAP1 PUSH2 0x130F PUSH2 0x1287 PUSH2 0x392 DUP8 DUP8 PUSH2 0x1A00 JUMP JUMPDEST DUP1 SWAP3 PUSH1 0x1 DUP1 PUSH1 0xA0 SHL SUB DUP10 AND PUSH1 0x0 MSTORE PUSH1 0x4 PUSH1 0x20 MSTORE PUSH1 0x40 PUSH1 0x0 KECCAK256 PUSH1 0x1 DUP1 PUSH1 0xA0 SHL SUB DUP12 AND PUSH1 0x0 MSTORE PUSH1 0x20 MSTORE PUSH1 0x40 PUSH1 0x0 KECCAK256 DUP9 PUSH1 0x0 MSTORE PUSH1 0x20 MSTORE PUSH1 0x3 PUSH1 0x40 PUSH1 0x0 KECCAK256 ADD DUP2 PUSH1 0x0 MSTORE PUSH1 0x20 MSTORE PUSH1 0x2 PUSH1 0x40 PUSH1 0x0 KECCAK256 ADD PUSH2 0x12DC DUP4 DUP3 SLOAD PUSH2 0x1A40 JUMP JUMPDEST SWAP1 SSTORE PUSH1 0x1 PUSH1 0x1 PUSH1 0xA0 SHL SUB DUP10 DUP2 AND PUSH1 0x0 SWAP1 DUP2 MSTORE PUSH1 0x6 PUSH1 0x20 SWAP1 DUP2 MSTORE PUSH1 0x40 DUP1 DUP4 KECCAK256 DUP15 DUP6 AND DUP5 MSTORE SWAP1 SWAP2 MSTORE SWAP1 KECCAK256 DUP8 MLOAD SWAP1 SWAP2 AND SWAP1 PUSH2 0x22C6 JUMP JUMPDEST POP DUP3 MLOAD PUSH2 0x132B SWAP1 DUP6 SWAP1 PUSH1 0x1 PUSH1 0x1 PUSH1 0xA0 SHL SUB SWAP1 DUP2 AND SWAP1 DUP11 AND PUSH2 0x1EA8 JUMP JUMPDEST CALLER DUP11 PUSH2 0x233D JUMP JUMPDEST MLOAD PUSH1 0x40 DUP1 MLOAD CALLER DUP2 MSTORE PUSH1 0x20 DUP2 ADD DUP6 SWAP1 MSTORE SWAP1 DUP2 ADD SWAP3 SWAP1 SWAP3 MSTORE PUSH1 0x1 PUSH1 0x1 PUSH1 0xA0 SHL SUB SWAP1 DUP2 AND SWAP2 DUP6 DUP3 AND SWAP2 DUP6 AND SWAP1 PUSH1 0x0 DUP1 MLOAD PUSH1 0x20 PUSH2 0x2408 DUP4 CODECOPY DUP2 MLOAD SWAP2 MSTORE SWAP1 PUSH1 0x60 SWAP1 LOG4 PUSH1 0x0 SWAP4 PUSH2 0x124A JUMP JUMPDEST SWAP1 SWAP3 DUP5 SWAP3 DUP3 PUSH2 0x138C JUMPI JUMPDEST PUSH1 0x20 DUP5 PUSH1 0x40 MLOAD SWAP1 DUP2 MSTORE RETURN JUMPDEST SWAP1 SWAP2 SWAP3 POP PUSH1 0x1 DUP1 PUSH1 0xA0 SHL SUB AND SWAP3 DUP4 PUSH1 0x0 MSTORE PUSH1 0x3 SWAP4 PUSH1 0x20 SWAP4 DUP6 DUP6 MSTORE PUSH1 0x40 PUSH1 0x0 KECCAK256 PUSH1 0x1 DUP1 PUSH1 0xA0 SHL SUB DUP6 AND PUSH1 0x0 MSTORE DUP6 MSTORE PUSH1 0x40 PUSH1 0x0 KECCAK256 DUP4 PUSH1 0x0 MSTORE DUP6 MSTORE PUSH1 0x40 PUSH1 0x0 KECCAK256 SLOAD ISZERO PUSH1 0x0 EQ PUSH2 0x164E JUMPI PUSH1 0x0 DUP3 DUP2 MSTORE DUP7 DUP7 MSTORE PUSH1 0x40 DUP1 DUP3 KECCAK256 PUSH1 0x1 PUSH1 0x1 PUSH1 0xA0 SHL SUB DUP8 AND DUP4 MSTORE DUP8 MSTORE DUP1 DUP3 KECCAK256 DUP6 DUP4 MSTORE DUP8 MSTORE SWAP1 DUP2 SWAP1 KECCAK256 SWAP1 MLOAD PUSH4 0xEDE5D87 PUSH1 0xE3 SHL DUP2 MSTORE PUSH1 0x4 DUP2 ADD SWAP2 SWAP1 SWAP2 MSTORE CALLER PUSH1 0x24 DUP3 ADD MSTORE PUSH1 0x44 DUP2 ADD DUP3 SWAP1 MSTORE DUP6 DUP2 PUSH1 0x64 DUP2 PUSH20 0x0 GAS DELEGATECALL SWAP1 DUP2 ISZERO PUSH2 0x506 JUMPI PUSH1 0x0 SWAP2 PUSH2 0x1621 JUMPI JUMPDEST POP PUSH1 0x0 DUP4 DUP2 MSTORE PUSH1 0x9 DUP8 MSTORE PUSH1 0x40 DUP1 DUP3 KECCAK256 PUSH1 0x1 PUSH1 0x1 PUSH1 0xA0 SHL SUB DUP9 AND DUP4 MSTORE DUP9 MSTORE DUP1 DUP3 KECCAK256 DUP7 DUP4 MSTORE DUP9 MSTORE SWAP1 KECCAK256 SLOAD SWAP1 SWAP6 SWAP1 PUSH1 0xFF AND ISZERO PUSH2 0x14F8 JUMPI JUMPDEST PUSH1 0x20 SWAP7 POP JUMPDEST DUP3 PUSH1 0x0 MSTORE PUSH1 0x5 DUP2 MSTORE PUSH1 0x40 PUSH1 0x0 KECCAK256 PUSH1 0x1 DUP1 PUSH1 0xA0 SHL SUB DUP7 AND PUSH1 0x0 MSTORE DUP2 MSTORE PUSH2 0x14AA DUP3 DUP6 DUP9 CALLER PUSH1 0x40 PUSH1 0x0 KECCAK256 PUSH2 0x1D0D JUMP JUMPDEST POP PUSH1 0x40 MLOAD SWAP4 DUP5 MSTORE DUP4 ADD MSTORE DUP4 PUSH1 0x40 DUP4 ADD MSTORE PUSH1 0x0 PUSH1 0x60 DUP4 ADD MSTORE PUSH32 0x8DF2DFCFAA1D4B132F1ADE3FB5F295CE8FA7D2257ABEF9845734F54D254A770 PUSH1 0x80 CALLER SWAP5 PUSH1 0x1 DUP1 PUSH1 0xA0 SHL SUB AND SWAP4 LOG4 DUP3 DUP1 DUP1 PUSH2 0x1381 JUMP JUMPDEST PUSH1 0x0 DUP4 DUP2 MSTORE PUSH1 0x9 DUP3 MSTORE PUSH1 0x40 DUP1 DUP3 KECCAK256 PUSH1 0x1 PUSH1 0x1 PUSH1 0xA0 SHL SUB DUP9 AND DUP1 DUP5 MSTORE SWAP1 DUP5 MSTORE DUP2 DUP4 KECCAK256 DUP8 DUP5 MSTORE DUP5 MSTORE DUP2 DUP4 KECCAK256 DUP1 SLOAD PUSH1 0xFF NOT AND PUSH1 0x1 SWAP1 DUP2 OR SWAP1 SWAP2 SSTORE DUP7 DUP5 MSTORE PUSH1 0x7 DUP6 MSTORE DUP3 DUP5 KECCAK256 SWAP2 DUP5 MSTORE SWAP1 DUP5 MSTORE SWAP1 DUP3 KECCAK256 DUP1 SLOAD SWAP3 SWAP10 SWAP1 SWAP3 SWAP1 SWAP2 DUP1 JUMPDEST PUSH2 0x15E2 JUMPI JUMPDEST POP PUSH1 0x1 PUSH1 0x40 SHL DUP2 LT ISZERO PUSH2 0x8D9 JUMPI DUP1 PUSH1 0x1 PUSH2 0x156E SWAP3 ADD DUP5 SSTORE DUP4 PUSH2 0x192D JUMP JUMPDEST SWAP2 SWAP1 DUP1 SLOAD PUSH1 0x0 NOT DUP1 SWAP5 DUP5 SHL SHL NOT AND SWAP1 SSTORE DUP3 SLOAD DUP3 DUP2 ADD SWAP1 DUP2 GT PUSH2 0x8C3 JUMPI JUMPDEST DUP11 DUP2 GT PUSH2 0x15AC JUMPI POP POP POP PUSH2 0x15A5 PUSH2 0x86C PUSH1 0x20 SWAP10 DUP8 SWAP4 PUSH2 0x192D JUMP JUMPDEST SWAP1 SSTORE PUSH2 0x1479 JUMP JUMPDEST DUP3 DUP2 ADD DUP2 DUP2 GT PUSH2 0x8C3 JUMPI PUSH2 0x15C0 SWAP1 DUP6 PUSH2 0x192D JUMP JUMPDEST SWAP1 SLOAD SWAP1 DUP4 SHL SHR PUSH2 0x15D3 PUSH2 0x86C DUP4 DUP8 PUSH2 0x192D JUMP JUMPDEST SWAP1 SSTORE DUP1 ISZERO PUSH2 0x8C3 JUMPI DUP3 ADD PUSH2 0x158B JUMP JUMPDEST SWAP10 DUP2 DUP2 LT DUP1 PUSH2 0x1609 JUMPI JUMPDEST ISZERO PUSH2 0x1603 JUMPI PUSH1 0x0 NOT DUP2 EQ PUSH2 0x8C3 JUMPI DUP11 ADD SWAP10 DUP1 PUSH2 0x154C JUMP JUMPDEST SWAP10 PUSH2 0x1551 JUMP JUMPDEST POP DUP8 PUSH2 0x1615 DUP3 DUP7 PUSH2 0x192D JUMP JUMPDEST SWAP1 SLOAD SWAP1 DUP6 SHL SHR LT PUSH2 0x15EC JUMP JUMPDEST SWAP1 POP DUP6 DUP2 DUP2 RETURNDATASIZE DUP4 GT PUSH2 0x1647 JUMPI JUMPDEST PUSH2 0x1638 DUP2 DUP4 PUSH2 0x18BB JUMP JUMPDEST DUP2 ADD SUB SLT PUSH2 0x173 JUMPI MLOAD DUP8 PUSH2 0x1445 JUMP JUMPDEST POP RETURNDATASIZE PUSH2 0x162E JUMP JUMPDEST PUSH1 0x0 DUP3 DUP2 MSTORE SWAP6 DUP6 MSTORE PUSH1 0x40 DUP1 DUP8 KECCAK256 PUSH1 0x1 PUSH1 0x1 PUSH1 0xA0 SHL SUB DUP7 AND DUP9 MSTORE DUP7 MSTORE DUP1 DUP8 KECCAK256 DUP5 DUP9 MSTORE DUP7 MSTORE SWAP6 DUP7 SWAP1 KECCAK256 SWAP6 MLOAD PUSH4 0x50FE1577 PUSH1 0xE0 SHL DUP2 MSTORE PUSH1 0x4 DUP2 ADD SWAP7 SWAP1 SWAP7 MSTORE CALLER PUSH1 0x24 DUP8 ADD MSTORE PUSH1 0x44 DUP7 ADD DUP2 SWAP1 MSTORE DUP5 DUP7 PUSH1 0x64 DUP2 PUSH20 0x0 GAS DELEGATECALL DUP1 ISZERO PUSH2 0x506 JUMPI PUSH1 0x0 SWAP1 PUSH2 0x16CA JUMPI JUMPDEST PUSH1 0x20 SWAP7 POP SWAP5 PUSH2 0x147E JUMP JUMPDEST POP DUP5 DUP7 DUP2 RETURNDATASIZE DUP4 GT PUSH2 0x16F1 JUMPI JUMPDEST PUSH2 0x16E0 DUP2 DUP4 PUSH2 0x18BB JUMP JUMPDEST DUP2 ADD SUB SLT PUSH2 0x173 JUMPI PUSH1 0x20 SWAP6 MLOAD PUSH2 0x16C0 JUMP JUMPDEST POP RETURNDATASIZE PUSH2 0x16D6 JUMP JUMPDEST POP DUP1 ISZERO ISZERO PUSH2 0x1048 JUMP JUMPDEST POP DUP1 ISZERO ISZERO PUSH2 0xFE2 JUMP JUMPDEST CALLVALUE PUSH2 0x173 JUMPI PUSH2 0x1718 CALLDATASIZE PUSH2 0x17E3 JUMP JUMPDEST SWAP2 PUSH1 0x1 DUP1 PUSH1 0xA0 SHL SUB DUP1 SWAP2 AND PUSH1 0x0 MSTORE PUSH1 0x4 PUSH1 0x20 MSTORE PUSH1 0x40 PUSH1 0x0 KECCAK256 SWAP2 AND PUSH1 0x0 MSTORE PUSH1 0x20 MSTORE PUSH1 0x40 PUSH1 0x0 KECCAK256 SWAP1 PUSH1 0x0 MSTORE PUSH1 0x20 MSTORE PUSH1 0x40 PUSH1 0x0 KECCAK256 DUP1 SLOAD PUSH2 0xDCE PUSH1 0x2 PUSH1 0x1 DUP5 ADD SLOAD SWAP4 ADD SLOAD PUSH1 0x40 MLOAD SWAP4 DUP5 SWAP4 DUP5 PUSH1 0x40 SWAP2 SWAP5 SWAP4 SWAP3 PUSH1 0x60 DUP3 ADD SWAP6 DUP3 MSTORE PUSH1 0x20 DUP3 ADD MSTORE ADD MSTORE JUMP JUMPDEST CALLVALUE PUSH2 0x173 JUMPI PUSH1 0x0 CALLDATASIZE PUSH1 0x3 NOT ADD SLT PUSH2 0x173 JUMPI PUSH32 0x0 PUSH1 0x1 PUSH1 0x1 PUSH1 0xA0 SHL SUB AND DUP2 MSTORE PUSH1 0x20 SWAP1 RETURN JUMPDEST PUSH1 0x4 CALLDATALOAD SWAP1 PUSH1 0x1 PUSH1 0x1 PUSH1 0xA0 SHL SUB DUP3 AND DUP3 SUB PUSH2 0x173 JUMPI JUMP JUMPDEST PUSH1 0x24 CALLDATALOAD SWAP1 PUSH1 0x1 PUSH1 0x1 PUSH1 0xA0 SHL SUB DUP3 AND DUP3 SUB PUSH2 0x173 JUMPI JUMP JUMPDEST PUSH1 0x60 SWAP1 PUSH1 0x3 NOT ADD SLT PUSH2 0x173 JUMPI PUSH1 0x1 PUSH1 0x1 PUSH1 0xA0 SHL SUB SWAP1 PUSH1 0x4 CALLDATALOAD DUP3 DUP2 AND DUP2 SUB PUSH2 0x173 JUMPI SWAP2 PUSH1 0x24 CALLDATALOAD SWAP1 DUP2 AND DUP2 SUB PUSH2 0x173 JUMPI SWAP1 PUSH1 0x44 CALLDATALOAD SWAP1 JUMP JUMPDEST PUSH1 0x80 SWAP1 PUSH1 0x3 NOT ADD SLT PUSH2 0x173 JUMPI PUSH1 0x1 PUSH1 0x1 PUSH1 0xA0 SHL SUB SWAP1 PUSH1 0x4 CALLDATALOAD DUP3 DUP2 AND DUP2 SUB PUSH2 0x173 JUMPI SWAP2 PUSH1 0x24 CALLDATALOAD SWAP1 DUP2 AND DUP2 SUB PUSH2 0x173 JUMPI SWAP1 PUSH1 0x44 CALLDATALOAD SWAP1 PUSH1 0x64 CALLDATALOAD SWAP1 JUMP JUMPDEST ISZERO PUSH2 0x1858 JUMPI JUMP JUMPDEST PUSH1 0x64 PUSH1 0x40 MLOAD PUSH3 0x461BCD PUSH1 0xE5 SHL DUP2 MSTORE PUSH1 0x20 PUSH1 0x4 DUP3 ADD MSTORE PUSH1 0x4 PUSH1 0x24 DUP3 ADD MSTORE PUSH4 0x41726773 PUSH1 0xE0 SHL PUSH1 0x44 DUP3 ADD MSTORE REVERT JUMPDEST PUSH1 0x40 DUP2 ADD SWAP1 DUP2 LT PUSH8 0xFFFFFFFFFFFFFFFF DUP3 GT OR PUSH2 0x8D9 JUMPI PUSH1 0x40 MSTORE JUMP JUMPDEST PUSH1 0x60 DUP2 ADD SWAP1 DUP2 LT PUSH8 0xFFFFFFFFFFFFFFFF DUP3 GT OR PUSH2 0x8D9 JUMPI PUSH1 0x40 MSTORE JUMP JUMPDEST SWAP1 PUSH1 0x1F DUP1 NOT SWAP2 ADD AND DUP2 ADD SWAP1 DUP2 LT PUSH8 0xFFFFFFFFFFFFFFFF DUP3 GT OR PUSH2 0x8D9 JUMPI PUSH1 0x40 MSTORE JUMP JUMPDEST ISZERO PUSH2 0x18E4 JUMPI JUMP JUMPDEST PUSH1 0x40 MLOAD PUSH3 0x461BCD PUSH1 0xE5 SHL DUP2 MSTORE PUSH1 0x20 PUSH1 0x4 DUP3 ADD MSTORE PUSH1 0x9 PUSH1 0x24 DUP3 ADD MSTORE PUSH9 0x2737BA1037BBB732B9 PUSH1 0xB9 SHL PUSH1 0x44 DUP3 ADD MSTORE PUSH1 0x64 SWAP1 REVERT JUMPDEST SWAP1 DUP2 PUSH1 0x20 SWAP2 SUB SLT PUSH2 0x173 JUMPI MLOAD DUP1 ISZERO ISZERO DUP2 SUB PUSH2 0x173 JUMPI SWAP1 JUMP JUMPDEST DUP1 SLOAD DUP3 LT ISZERO PUSH2 0x1945 JUMPI PUSH1 0x0 MSTORE PUSH1 0x20 PUSH1 0x0 KECCAK256 ADD SWAP1 PUSH1 0x0 SWAP1 JUMP JUMPDEST PUSH4 0x4E487B71 PUSH1 0xE0 SHL PUSH1 0x0 MSTORE PUSH1 0x32 PUSH1 0x4 MSTORE PUSH1 0x24 PUSH1 0x0 REVERT JUMPDEST SWAP1 PUSH1 0x1 DUP1 PUSH1 0xA0 SHL SUB DUP1 SWAP3 AND SWAP1 PUSH1 0x0 SWAP3 DUP3 DUP5 MSTORE PUSH1 0x20 SWAP1 PUSH1 0x7 PUSH1 0x20 MSTORE PUSH1 0x40 SWAP1 PUSH1 0x40 DUP7 KECCAK256 SWAP4 AND SWAP3 DUP4 DUP7 MSTORE PUSH1 0x20 MSTORE PUSH1 0x40 DUP6 KECCAK256 SWAP2 DUP3 SLOAD SWAP5 DUP6 ISZERO PUSH2 0x19F7 JUMPI DUP7 JUMPDEST DUP7 DUP2 LT PUSH2 0x19A6 JUMPI POP POP POP POP POP POP POP SWAP1 JUMP JUMPDEST DUP2 DUP9 MSTORE PUSH1 0x3 DUP1 DUP5 MSTORE DUP5 DUP10 KECCAK256 DUP8 DUP11 MSTORE DUP5 MSTORE DUP5 DUP10 KECCAK256 PUSH2 0x19C3 DUP4 DUP9 PUSH2 0x192D JUMP JUMPDEST SWAP1 SLOAD SWAP1 DUP4 SHL SHR DUP11 MSTORE DUP5 MSTORE DUP5 DUP10 KECCAK256 SLOAD PUSH2 0x19DE JUMPI POP PUSH1 0x1 ADD PUSH2 0x1995 JUMP JUMPDEST SWAP8 POP SWAP5 POP POP POP POP PUSH2 0x19EF SWAP3 POP PUSH2 0x192D JUMP JUMPDEST SWAP1 SLOAD SWAP2 SHL SHR SWAP1 JUMP JUMPDEST POP POP POP POP POP POP SWAP1 JUMP JUMPDEST DUP2 DUP2 MUL SWAP3 SWAP2 DUP2 ISZERO SWAP2 DUP5 DIV EQ OR ISZERO PUSH2 0x8C3 JUMPI JUMP JUMPDEST DUP2 ISZERO PUSH2 0x1A1D JUMPI DIV SWAP1 JUMP JUMPDEST PUSH4 0x4E487B71 PUSH1 0xE0 SHL PUSH1 0x0 MSTORE PUSH1 0x12 PUSH1 0x4 MSTORE PUSH1 0x24 PUSH1 0x0 REVERT JUMPDEST SWAP2 SWAP1 DUP3 ADD DUP1 SWAP3 GT PUSH2 0x8C3 JUMPI JUMP JUMPDEST SWAP2 SWAP1 DUP3 SUB SWAP2 DUP3 GT PUSH2 0x8C3 JUMPI JUMP JUMPDEST PUSH1 0x1 DUP1 PUSH1 0xA0 SHL SUB DUP1 SWAP2 AND SWAP1 PUSH1 0x0 SWAP3 DUP3 DUP5 MSTORE PUSH1 0x20 SWAP2 PUSH1 0x8 PUSH1 0x20 MSTORE PUSH1 0x40 SWAP1 PUSH1 0x40 DUP7 KECCAK256 SWAP3 AND SWAP2 DUP3 DUP7 MSTORE PUSH1 0x20 MSTORE PUSH1 0x40 DUP6 KECCAK256 SWAP2 DUP3 SLOAD SWAP5 DUP6 ISZERO PUSH2 0x19F7 JUMPI DUP7 JUMPDEST DUP7 DUP2 LT PUSH2 0x1A97 JUMPI POP POP POP POP POP POP POP SWAP1 JUMP JUMPDEST DUP2 DUP9 MSTORE PUSH1 0x4 DUP7 MSTORE DUP4 DUP9 KECCAK256 DUP4 DUP10 MSTORE DUP7 MSTORE DUP4 DUP9 KECCAK256 PUSH2 0x1AB3 DUP3 DUP8 PUSH2 0x192D JUMP JUMPDEST SWAP2 SWAP1 SLOAD PUSH1 0x3 SWAP3 DUP4 SHL SHR DUP11 MSTORE DUP8 MSTORE DUP5 DUP10 KECCAK256 SLOAD PUSH2 0x19DE JUMPI POP PUSH1 0x1 ADD PUSH2 0x1A86 JUMP JUMPDEST PUSH1 0x40 DUP1 MLOAD PUSH4 0x37649A6D PUSH1 0xE1 SHL DUP2 MSTORE PUSH1 0x1 PUSH1 0x1 PUSH1 0xA0 SHL SUB SWAP3 DUP4 AND PUSH1 0x4 DUP3 ADD DUP2 SWAP1 MSTORE PUSH1 0x20 SWAP5 SWAP3 SWAP4 SWAP3 SWAP2 PUSH32 0x0 DUP5 AND SWAP1 DUP7 DUP2 PUSH1 0x24 DUP2 DUP6 GAS STATICCALL SWAP1 DUP2 ISZERO PUSH2 0x1C15 JUMPI PUSH1 0x0 SWAP2 PUSH2 0x1BF8 JUMPI JUMPDEST POP ISZERO PUSH2 0x1BCB JUMPI DUP6 SWAP3 SWAP2 PUSH1 0x44 SWAP2 DUP7 MLOAD SWAP6 DUP7 SWAP5 DUP6 SWAP4 PUSH4 0x2FB78A7 PUSH1 0xE3 SHL DUP6 MSTORE PUSH1 0x4 DUP6 ADD MSTORE AND PUSH1 0x24 DUP4 ADD MSTORE GAS STATICCALL SWAP1 DUP2 ISZERO PUSH2 0x1BC0 JUMPI PUSH1 0x0 SWAP2 PUSH2 0x1BA3 JUMPI JUMPDEST POP ISZERO PUSH2 0x1B76 JUMPI POP POP JUMP JUMPDEST PUSH1 0x64 SWAP3 POP MLOAD SWAP1 PUSH3 0x461BCD PUSH1 0xE5 SHL DUP3 MSTORE PUSH1 0x4 DUP3 ADD MSTORE PUSH1 0x7 PUSH1 0x24 DUP3 ADD MSTORE PUSH7 0x4F7574636F6D65 PUSH1 0xC8 SHL PUSH1 0x44 DUP3 ADD MSTORE REVERT JUMPDEST PUSH2 0x1BBA SWAP2 POP DUP4 RETURNDATASIZE DUP6 GT PUSH2 0x4FF JUMPI PUSH2 0x4F0 DUP2 DUP4 PUSH2 0x18BB JUMP JUMPDEST CODESIZE PUSH2 0x1B6C JUMP JUMPDEST DUP3 MLOAD RETURNDATASIZE PUSH1 0x0 DUP3 RETURNDATACOPY RETURNDATASIZE SWAP1 REVERT JUMPDEST DUP5 MLOAD PUSH3 0x461BCD PUSH1 0xE5 SHL DUP2 MSTORE PUSH1 0x4 DUP2 ADD DUP8 SWAP1 MSTORE PUSH1 0x6 PUSH1 0x24 DUP3 ADD MSTORE PUSH6 0x13585C9AD95D PUSH1 0xD2 SHL PUSH1 0x44 DUP3 ADD MSTORE PUSH1 0x64 SWAP1 REVERT JUMPDEST PUSH2 0x1C0F SWAP2 POP DUP8 RETURNDATASIZE DUP10 GT PUSH2 0x4FF JUMPI PUSH2 0x4F0 DUP2 DUP4 PUSH2 0x18BB JUMP JUMPDEST CODESIZE PUSH2 0x1B33 JUMP JUMPDEST DUP7 MLOAD RETURNDATASIZE PUSH1 0x0 DUP3 RETURNDATACOPY RETURNDATASIZE SWAP1 REVERT JUMPDEST PUSH1 0x40 MLOAD PUSH4 0x23B872DD PUSH1 0xE0 SHL PUSH1 0x0 SWAP1 DUP2 MSTORE PUSH1 0x1 PUSH1 0x1 PUSH1 0xA0 SHL SUB SWAP4 DUP5 AND PUSH1 0x4 MSTORE SWAP4 DUP4 AND PUSH1 0x24 MSTORE PUSH1 0x44 SWAP5 SWAP1 SWAP5 MSTORE SWAP1 SWAP2 PUSH1 0x20 SWAP1 PUSH1 0x64 DUP2 DUP1 DUP6 GAS CALL PUSH1 0x1 PUSH1 0x0 MLOAD EQ DUP2 AND ISZERO PUSH2 0x1C8D JUMPI JUMPDEST DUP4 PUSH1 0x40 MSTORE PUSH1 0x0 PUSH1 0x60 MSTORE ISZERO PUSH2 0x1C77 JUMPI POP POP POP JUMP JUMPDEST PUSH4 0x5274AFE7 PUSH1 0xE0 SHL DUP4 MSTORE AND PUSH1 0x4 DUP3 ADD MSTORE PUSH1 0x24 SWAP2 POP REVERT JUMPDEST PUSH1 0x1 DUP2 ISZERO AND PUSH2 0x1CA3 JUMPI DUP2 EXTCODESIZE ISZERO ISZERO RETURNDATASIZE ISZERO AND AND PUSH2 0x1C64 JUMP JUMPDEST DUP4 RETURNDATASIZE PUSH1 0x0 DUP3 RETURNDATACOPY RETURNDATASIZE SWAP1 REVERT JUMPDEST PUSH1 0x4D DUP2 GT PUSH2 0x8C3 JUMPI PUSH1 0xA EXP SWAP1 JUMP JUMPDEST DUP1 SLOAD DUP3 LT ISZERO PUSH2 0x1945 JUMPI PUSH1 0x0 MSTORE PUSH1 0x3 PUSH1 0x20 PUSH1 0x0 KECCAK256 SWAP2 MUL ADD SWAP1 PUSH1 0x0 SWAP1 JUMP JUMPDEST SWAP2 SWAP1 PUSH2 0x1CF7 JUMPI PUSH1 0x40 DUP2 PUSH1 0x2 SWAP3 MLOAD DUP5 SSTORE PUSH1 0x20 DUP2 ADD MLOAD PUSH1 0x1 DUP6 ADD SSTORE ADD MLOAD SWAP2 ADD SSTORE JUMP JUMPDEST PUSH4 0x4E487B71 PUSH1 0xE0 SHL PUSH1 0x0 MSTORE PUSH1 0x0 PUSH1 0x4 MSTORE PUSH1 0x24 PUSH1 0x0 REVERT JUMPDEST SWAP4 SWAP1 SWAP3 SWAP2 SWAP4 PUSH1 0x1 DUP2 ADD SWAP2 PUSH1 0x0 SWAP4 DUP7 DUP6 MSTORE DUP4 PUSH1 0x20 MSTORE PUSH1 0x40 SWAP6 DUP7 DUP7 KECCAK256 SLOAD ISZERO PUSH1 0x0 EQ PUSH2 0x1DAF JUMPI PUSH1 0x1 DUP1 PUSH1 0xA0 SHL SUB AND SWAP2 DUP3 DUP7 MSTORE DUP4 PUSH1 0x20 MSTORE DUP7 DUP7 KECCAK256 SWAP1 DUP8 MLOAD SWAP3 PUSH2 0x1D50 DUP5 PUSH2 0x189F JUMP JUMPDEST DUP10 DUP5 MSTORE PUSH1 0x20 DUP5 ADD MSTORE DUP8 DUP4 ADD MSTORE DUP1 SLOAD SWAP1 PUSH1 0x1 PUSH1 0x40 SHL DUP3 LT ISZERO PUSH2 0x1D9B JUMPI DUP2 PUSH2 0x1D7F SWAP2 PUSH1 0x1 PUSH2 0x1D85 SWAP6 SWAP5 ADD DUP2 SSTORE PUSH2 0x1CBB JUMP JUMPDEST SWAP1 PUSH2 0x1CD7 JUMP JUMPDEST DUP4 MSTORE PUSH1 0x20 MSTORE DUP3 DUP3 KECCAK256 SLOAD SWAP4 DUP3 MSTORE PUSH1 0x20 MSTORE KECCAK256 SSTORE PUSH1 0x1 SWAP1 JUMP JUMPDEST PUSH4 0x4E487B71 PUSH1 0xE0 SHL DUP8 MSTORE PUSH1 0x41 PUSH1 0x4 MSTORE PUSH1 0x24 DUP8 REVERT JUMPDEST POP POP POP POP POP SWAP2 POP POP SWAP1 JUMP JUMPDEST SWAP1 DUP2 PUSH1 0x20 SWAP2 SUB SLT PUSH2 0x173 JUMPI MLOAD PUSH1 0xFF DUP2 AND DUP2 SUB PUSH2 0x173 JUMPI SWAP1 JUMP JUMPDEST PUSH1 0x40 MLOAD PUSH4 0x48D399E7 PUSH1 0xE0 SHL DUP2 MSTORE PUSH1 0x20 SWAP3 SWAP2 PUSH1 0x1 PUSH1 0x1 PUSH1 0xA0 SHL SUB SWAP1 DUP2 AND SWAP2 DUP5 DUP2 PUSH1 0x4 DUP2 DUP7 GAS STATICCALL SWAP2 DUP3 ISZERO PUSH2 0x506 JUMPI DUP6 SWAP2 PUSH1 0x0 SWAP4 PUSH2 0x1E67 JUMPI JUMPDEST POP POP PUSH1 0x40 MLOAD PUSH4 0xEC9C6C3 PUSH1 0xE4 SHL DUP2 MSTORE SWAP2 SWAP3 DUP3 SWAP1 PUSH1 0x4 SWAP1 DUP3 SWAP1 GAS STATICCALL SWAP4 DUP5 ISZERO PUSH2 0x506 JUMPI PUSH1 0x0 SWAP5 PUSH2 0x1E38 JUMPI JUMPDEST POP POP SWAP2 SWAP1 JUMP JUMPDEST PUSH2 0x1E58 SWAP3 SWAP5 POP DUP1 RETURNDATASIZE LT PUSH2 0x1E60 JUMPI JUMPDEST PUSH2 0x1E50 DUP2 DUP4 PUSH2 0x18BB JUMP JUMPDEST DUP2 ADD SWAP1 PUSH2 0x1DBA JUMP JUMPDEST SWAP2 CODESIZE DUP1 PUSH2 0x1E32 JUMP JUMPDEST POP RETURNDATASIZE PUSH2 0x1E46 JUMP JUMPDEST SWAP1 SWAP3 SWAP2 DUP2 DUP2 RETURNDATASIZE DUP4 GT PUSH2 0x1EA1 JUMPI JUMPDEST PUSH2 0x1E7E DUP2 DUP4 PUSH2 0x18BB JUMP JUMPDEST DUP2 ADD SUB SLT PUSH2 0x1E9D JUMPI MLOAD SWAP2 DUP3 AND DUP3 SUB PUSH2 0x1E9A JUMPI POP DUP4 PUSH1 0x4 CODESIZE PUSH2 0x1E09 JUMP JUMPDEST DUP1 REVERT JUMPDEST POP DUP1 REVERT JUMPDEST POP RETURNDATASIZE PUSH2 0x1E74 JUMP JUMPDEST PUSH1 0x40 MLOAD PUSH4 0xA9059CBB PUSH1 0xE0 SHL PUSH1 0x0 SWAP1 DUP2 MSTORE PUSH1 0x1 PUSH1 0x1 PUSH1 0xA0 SHL SUB SWAP4 DUP5 AND PUSH1 0x4 MSTORE PUSH1 0x24 SWAP5 SWAP1 SWAP5 MSTORE SWAP3 PUSH1 0x20 SWAP1 PUSH1 0x44 DUP2 DUP1 DUP6 GAS CALL PUSH1 0x1 PUSH1 0x0 MLOAD EQ DUP2 AND ISZERO PUSH2 0x1EF3 JUMPI JUMPDEST DUP4 PUSH1 0x40 MSTORE ISZERO PUSH2 0x1C77 JUMPI POP POP POP JUMP JUMPDEST PUSH1 0x1 DUP2 ISZERO AND PUSH2 0x1CA3 JUMPI DUP2 EXTCODESIZE ISZERO ISZERO RETURNDATASIZE ISZERO AND AND PUSH2 0x1EE5 JUMP JUMPDEST DUP2 SELFBALANCE LT PUSH2 0x1F6E JUMPI PUSH1 0x40 MLOAD PUSH1 0x20 DUP2 ADD DUP2 DUP2 LT PUSH8 0xFFFFFFFFFFFFFFFF DUP3 GT OR PUSH2 0x8D9 JUMPI PUSH1 0x40 MSTORE PUSH1 0x0 DUP1 DUP1 SWAP5 DUP2 SWAP5 DUP3 DUP1 SWAP6 MSTORE PUSH1 0x1 DUP1 PUSH1 0xA0 SHL SUB AND GAS CALL ISZERO PUSH2 0x1F4A JUMPI POP JUMP JUMPDEST RETURNDATASIZE ISZERO PUSH2 0x1F5C JUMPI PUSH1 0x40 MLOAD SWAP1 RETURNDATASIZE SWAP1 DUP3 RETURNDATACOPY RETURNDATASIZE SWAP1 REVERT JUMPDEST PUSH1 0x40 MLOAD PUSH4 0xD6BDA275 PUSH1 0xE0 SHL DUP2 MSTORE PUSH1 0x4 SWAP1 REVERT JUMPDEST PUSH1 0x40 MLOAD PUSH4 0xCF479181 PUSH1 0xE0 SHL DUP2 MSTORE SELFBALANCE PUSH1 0x4 DUP3 ADD MSTORE PUSH1 0x24 DUP2 ADD DUP4 SWAP1 MSTORE PUSH1 0x44 SWAP1 REVERT JUMPDEST SWAP1 PUSH1 0x1 DUP3 ADD SWAP1 PUSH1 0x0 SWAP4 DUP1 DUP6 MSTORE PUSH1 0x20 SWAP2 DUP4 DUP4 MSTORE PUSH1 0x40 SWAP5 DUP6 DUP8 KECCAK256 SLOAD SWAP2 DUP3 ISZERO ISZERO PUSH1 0x0 EQ PUSH2 0x20DB JUMPI PUSH1 0x0 NOT SWAP3 DUP1 DUP5 ADD SWAP2 DUP2 DUP4 GT PUSH2 0x20C7 JUMPI PUSH1 0x1 PUSH1 0x1 PUSH1 0xA0 SHL SUB AND DUP1 DUP11 MSTORE DUP4 DUP8 MSTORE DUP9 DUP11 KECCAK256 SLOAD SWAP1 SWAP3 DUP6 DUP3 ADD SWAP2 DUP3 GT PUSH2 0x20B3 JUMPI DUP8 DUP3 DUP3 DUP13 SWAP4 DUP15 SWAP6 SUB PUSH2 0x2054 JUMPI JUMPDEST POP POP POP POP SWAP1 POP MSTORE DUP4 MSTORE DUP5 DUP7 KECCAK256 SWAP1 DUP2 SLOAD DUP1 ISZERO PUSH2 0x2040 JUMPI ADD SWAP1 PUSH2 0x200D DUP3 DUP3 PUSH2 0x1CBB JUMP JUMPDEST PUSH2 0x202C JUMPI PUSH1 0x2 DUP2 DUP10 DUP1 SWAP4 SSTORE DUP3 PUSH1 0x1 DUP3 ADD SSTORE ADD SSTORE SSTORE DUP5 MSTORE MSTORE DUP2 KECCAK256 SSTORE PUSH1 0x1 SWAP1 JUMP JUMPDEST PUSH4 0x4E487B71 PUSH1 0xE0 SHL DUP9 MSTORE PUSH1 0x4 DUP9 SWAP1 MSTORE PUSH1 0x24 DUP9 REVERT JUMPDEST PUSH4 0x4E487B71 PUSH1 0xE0 SHL DUP9 MSTORE PUSH1 0x31 PUSH1 0x4 MSTORE PUSH1 0x24 DUP9 REVERT JUMPDEST PUSH2 0x209E SWAP4 PUSH2 0x206D PUSH2 0x1D7F SWAP4 DUP10 DUP9 MSTORE DUP11 DUP7 MSTORE DUP3 DUP9 KECCAK256 PUSH2 0x1CBB JUMP JUMPDEST POP SWAP6 PUSH1 0x2 DUP3 MLOAD SWAP8 DUP9 SWAP7 PUSH2 0x207F DUP9 PUSH2 0x189F JUMP JUMPDEST DUP2 SLOAD DUP9 MSTORE PUSH1 0x1 DUP3 ADD SLOAD SWAP1 DUP9 ADD MSTORE ADD SLOAD DUP3 DUP7 ADD MSTORE DUP9 DUP2 MSTORE DUP10 DUP14 MSTORE KECCAK256 PUSH2 0x1CBB JUMP JUMPDEST MLOAD DUP10 MSTORE DUP7 DUP7 MSTORE DUP8 DUP10 KECCAK256 SSTORE CODESIZE DUP9 DUP9 DUP8 DUP4 DUP1 PUSH2 0x1FEC JUMP JUMPDEST PUSH4 0x4E487B71 PUSH1 0xE0 SHL DUP12 MSTORE PUSH1 0x11 PUSH1 0x4 MSTORE PUSH1 0x24 DUP12 REVERT JUMPDEST PUSH4 0x4E487B71 PUSH1 0xE0 SHL DUP11 MSTORE PUSH1 0x11 PUSH1 0x4 MSTORE PUSH1 0x24 DUP11 REVERT JUMPDEST POP POP POP POP POP POP POP SWAP1 JUMP JUMPDEST PUSH1 0x1 PUSH1 0x1 PUSH1 0xA0 SHL SUB SWAP1 DUP2 AND PUSH1 0x0 DUP2 DUP2 MSTORE PUSH1 0x3 PUSH1 0x20 SWAP1 DUP2 MSTORE PUSH1 0x40 DUP1 DUP4 KECCAK256 SWAP6 SWAP1 SWAP5 AND DUP1 DUP4 MSTORE SWAP5 DUP2 MSTORE DUP4 DUP3 KECCAK256 DUP7 DUP4 MSTORE DUP2 MSTORE DUP4 DUP3 KECCAK256 SLOAD SWAP3 SWAP6 SWAP5 SWAP2 SWAP3 ISZERO DUP1 PUSH2 0x2174 JUMPI JUMPDEST PUSH2 0x2130 JUMPI JUMPDEST POP POP POP POP POP POP JUMP JUMPDEST DUP6 PUSH2 0x2169 SWAP7 DUP5 MSTORE PUSH1 0x9 DUP3 MSTORE DUP5 DUP5 KECCAK256 DUP4 DUP6 MSTORE DUP3 MSTORE DUP5 DUP5 KECCAK256 DUP7 DUP6 MSTORE DUP3 MSTORE DUP5 DUP5 KECCAK256 PUSH1 0xFF NOT DUP2 SLOAD AND SWAP1 SSTORE DUP4 MSTORE PUSH1 0x8 DUP2 MSTORE DUP4 DUP4 KECCAK256 SWAP2 DUP4 MSTORE MSTORE KECCAK256 PUSH2 0x2366 JUMP JUMPDEST CODESIZE DUP1 DUP1 DUP1 DUP1 DUP1 PUSH2 0x2128 JUMP JUMPDEST POP DUP6 DUP4 MSTORE PUSH1 0x4 DUP2 MSTORE DUP4 DUP4 KECCAK256 DUP3 DUP5 MSTORE DUP2 MSTORE DUP4 DUP4 KECCAK256 DUP6 DUP5 MSTORE DUP2 MSTORE DUP4 DUP4 KECCAK256 SLOAD ISZERO PUSH2 0x2123 JUMP JUMPDEST PUSH1 0x1 PUSH1 0x1 PUSH1 0xA0 SHL SUB SWAP1 DUP2 AND PUSH1 0x0 DUP2 DUP2 MSTORE PUSH1 0x3 PUSH1 0x20 SWAP1 DUP2 MSTORE PUSH1 0x40 DUP1 DUP4 KECCAK256 SWAP6 SWAP1 SWAP5 AND DUP1 DUP4 MSTORE SWAP5 DUP2 MSTORE DUP4 DUP3 KECCAK256 DUP7 DUP4 MSTORE DUP2 MSTORE DUP4 DUP3 KECCAK256 SLOAD SWAP3 SWAP6 SWAP5 SWAP2 SWAP3 ISZERO DUP1 PUSH2 0x2219 JUMPI JUMPDEST PUSH2 0x21E0 JUMPI POP POP POP POP POP POP JUMP JUMPDEST DUP6 PUSH2 0x2169 SWAP7 DUP5 MSTORE PUSH1 0x9 DUP3 MSTORE DUP5 DUP5 KECCAK256 DUP4 DUP6 MSTORE DUP3 MSTORE DUP5 DUP5 KECCAK256 DUP7 DUP6 MSTORE DUP3 MSTORE DUP5 DUP5 KECCAK256 PUSH1 0xFF NOT DUP2 SLOAD AND SWAP1 SSTORE DUP4 MSTORE PUSH1 0x7 DUP2 MSTORE DUP4 DUP4 KECCAK256 SWAP2 DUP4 MSTORE MSTORE KECCAK256 PUSH2 0x2366 JUMP JUMPDEST POP DUP6 DUP4 MSTORE PUSH1 0x4 DUP2 MSTORE DUP4 DUP4 KECCAK256 DUP3 DUP5 MSTORE DUP2 MSTORE DUP4 DUP4 KECCAK256 DUP6 DUP5 MSTORE DUP2 MSTORE DUP4 DUP4 KECCAK256 SLOAD ISZERO PUSH2 0x21D4 JUMP JUMPDEST PUSH1 0x0 SLOAD PUSH1 0x1 PUSH1 0x1 PUSH1 0xA0 SHL SUB AND CALLER SUB PUSH2 0x224F JUMPI JUMP JUMPDEST PUSH1 0x40 MLOAD PUSH4 0x118CDAA7 PUSH1 0xE0 SHL DUP2 MSTORE CALLER PUSH1 0x4 DUP3 ADD MSTORE PUSH1 0x24 SWAP1 REVERT JUMPDEST PUSH1 0x20 PUSH2 0x2277 PUSH1 0x4 SWAP3 SWAP5 SWAP4 SWAP5 PUSH2 0x1DD3 JUMP JUMPDEST POP PUSH1 0x40 MLOAD PUSH4 0x313CE567 PUSH1 0xE0 SHL DUP2 MSTORE SWAP1 SWAP5 SWAP1 SWAP3 DUP4 SWAP2 DUP3 SWAP1 PUSH1 0x1 PUSH1 0x1 PUSH1 0xA0 SHL SUB AND GAS STATICCALL SWAP1 DUP2 ISZERO PUSH2 0x506 JUMPI PUSH1 0x0 SWAP2 PUSH2 0x22AA JUMPI POP SWAP1 JUMP JUMPDEST PUSH2 0x22C3 SWAP2 POP PUSH1 0x20 RETURNDATASIZE PUSH1 0x20 GT PUSH2 0x1E60 JUMPI PUSH2 0x1E50 DUP2 DUP4 PUSH2 0x18BB JUMP JUMPDEST SWAP1 JUMP JUMPDEST PUSH1 0x0 SWAP3 DUP4 MSTORE PUSH1 0x1 DUP2 ADD PUSH1 0x20 MSTORE PUSH1 0x40 DUP4 KECCAK256 SLOAD SWAP3 SWAP2 DUP4 ISZERO PUSH2 0x2335 JUMPI PUSH1 0x1 PUSH1 0x1 PUSH1 0xA0 SHL SUB AND DUP3 MSTORE PUSH1 0x20 MSTORE PUSH1 0x40 DUP2 KECCAK256 PUSH1 0x0 NOT DUP4 ADD SWAP3 SWAP1 SWAP2 SWAP1 DUP4 GT PUSH2 0x2321 JUMPI POP PUSH2 0x2310 PUSH2 0x231A SWAP3 PUSH1 0x2 SWAP3 PUSH2 0x1CBB JUMP JUMPDEST POP ADD SWAP2 DUP3 SLOAD PUSH2 0x1A40 JUMP JUMPDEST SWAP1 SSTORE PUSH1 0x1 SWAP1 JUMP JUMPDEST PUSH4 0x4E487B71 PUSH1 0xE0 SHL DUP2 MSTORE PUSH1 0x11 PUSH1 0x4 MSTORE PUSH1 0x24 SWAP1 REVERT JUMPDEST POP POP SWAP2 POP POP SWAP1 JUMP JUMPDEST PUSH1 0x1 PUSH1 0x1 PUSH1 0xA0 SHL SUB SWAP3 SWAP2 SWAP1 DUP4 AND DUP1 PUSH2 0x235C JUMPI POP PUSH2 0x235A SWAP3 AND PUSH2 0x1F09 JUMP JUMPDEST JUMP JUMPDEST PUSH2 0x235A SWAP4 POP PUSH2 0x1EA8 JUMP JUMPDEST PUSH1 0x0 JUMPDEST DUP2 SLOAD SWAP1 DUP2 DUP2 LT ISZERO PUSH2 0x2401 JUMPI DUP4 SWAP2 PUSH2 0x2380 DUP3 DUP6 PUSH2 0x192D JUMP JUMPDEST SWAP6 SWAP1 SLOAD PUSH1 0x3 SWAP7 DUP8 SHL SHR EQ PUSH2 0x239A JUMPI POP SWAP1 SWAP3 POP PUSH1 0x1 ADD PUSH2 0x2369 JUMP JUMPDEST PUSH1 0x0 NOT SWAP3 POP DUP3 DUP2 ADD SWAP1 DUP2 GT PUSH2 0x8C3 JUMPI PUSH2 0x86C PUSH2 0x23B9 PUSH2 0x23C6 SWAP3 DUP7 PUSH2 0x192D JUMP JUMPDEST SWAP1 SLOAD SWAP1 DUP8 SHL SHR SWAP3 DUP6 PUSH2 0x192D JUMP JUMPDEST SWAP1 SSTORE DUP2 SLOAD DUP1 ISZERO PUSH2 0x23EB JUMPI DUP2 ADD SWAP3 PUSH2 0x23DD DUP5 DUP5 PUSH2 0x192D JUMP JUMPDEST DUP2 SWAP4 SWAP2 SLOAD SWAP3 SHL SHL NOT AND SWAP1 SSTORE SSTORE JUMP JUMPDEST PUSH4 0x4E487B71 PUSH1 0xE0 SHL PUSH1 0x0 MSTORE PUSH1 0x31 PUSH1 0x4 MSTORE PUSH1 0x24 PUSH1 0x0 REVERT JUMPDEST POP POP POP POP JUMP INVALID EXTCODECOPY 0xBB 0xC8 BLOCKHASH 0x2F CALLDATASIZE 0xC5 PUSH26 0xEC0A401DEDA27129168A12E63FCC158DB749AA8BEB3B0379A264 PUSH10 0x70667358221220AA9E4B DUP4 SELFBALANCE DUP9 0x2E SLT GT 0x23 MSTORE 0xDA 0x1E 0xF 0xB3 DELEGATECALL POP CALLDATASIZE 0xEF 0x28 DUP15 MUL SWAP1 0xC8 RETURNDATACOPY 0xE6 0x4E TSTORE MUL INVALID 0xB8 TLOAD PUSH5 0x736F6C6343 STOP ADDMOD XOR STOP CALLER "},"methodIdentifiers":{"accumulatedFeeErc20(address)":"75fcb6a3","accumulatedFeeNative()":"543ddf51","buyOrderBook(address,address,uint256)":"0933b2ae","cancelBuyOrder(address,address,uint256,bytes32)":"117c0bc0","cancelSellOrder(address,address,uint256,bytes32)":"99db37c5","collectFees(address)":"a480ca79","feeRate()":"978bbdb9","getBestAsk(address,address)":"5671eed2","getBestBid(address,address)":"b9f8b5aa","marketFactory()":"06ae7095","owner()":"8da5cb5b","placeBuyOrder(address,address,uint256,uint256)":"a05118c2","placeSellOrder(address,address,uint256,uint256)":"10d16b59","renounceOwnership()":"715018a6","sellOrderBook(address,address,uint256)":"49268191","setFeeRate(uint16)":"29ff0773","transferOwnership(address)":"f2fde38b"}}}}}