{"contracts/factory/AFTRParimutuelDeployer.sol":{"AFTRParimutuelDeployer":{"abi":[{"inputs":[{"internalType":"address","name":"factory_","type":"address"}],"stateMutability":"nonpayable","type":"constructor"},{"inputs":[],"name":"EmptyLabel","type":"error"},{"inputs":[],"name":"OnlyFactory","type":"error"},{"inputs":[{"internalType":"address","name":"owner_","type":"address"},{"internalType":"address","name":"feeRecipient_","type":"address"},{"internalType":"address","name":"collateralToken_","type":"address"},{"internalType":"uint8","name":"collateralDecimals_","type":"uint8"},{"internalType":"uint8","name":"numOutcomes_","type":"uint8"},{"internalType":"uint256","name":"virtualReserve_","type":"uint256"},{"internalType":"uint256","name":"stakeEndTimestamp_","type":"uint256"},{"internalType":"uint256","name":"resolveAfterTimestamp_","type":"uint256"},{"internalType":"bytes32","name":"metadataHash_","type":"bytes32"},{"internalType":"address","name":"optimisticOracleV2_","type":"address"},{"internalType":"bytes32","name":"umaIdentifier_","type":"bytes32"},{"internalType":"uint64","name":"umaLiveness_","type":"uint64"},{"internalType":"uint256","name":"umaReward_","type":"uint256"},{"internalType":"address","name":"bondToken_","type":"address"},{"internalType":"uint256","name":"minBootstrapTotal_","type":"uint256"},{"internalType":"string[]","name":"outcomeLabels","type":"string[]"}],"name":"deployEventMarket","outputs":[{"internalType":"address","name":"market","type":"address"},{"internalType":"address[]","name":"tokens","type":"address[]"}],"stateMutability":"nonpayable","type":"function"},{"inputs":[{"internalType":"address","name":"owner_","type":"address"},{"internalType":"address","name":"feeRecipient_","type":"address"},{"internalType":"address","name":"collateralToken_","type":"address"},{"internalType":"uint8","name":"collateralDecimals_","type":"uint8"},{"internalType":"uint8","name":"numOutcomes_","type":"uint8"},{"internalType":"uint256","name":"virtualReserve_","type":"uint256"},{"internalType":"uint256","name":"stakeEndTimestamp_","type":"uint256"},{"internalType":"uint256","name":"resolveAfterTimestamp_","type":"uint256"},{"internalType":"bytes32","name":"metadataHash_","type":"bytes32"},{"internalType":"address","name":"chainlinkFeed_","type":"address"},{"internalType":"uint256","name":"priceThreshold_","type":"uint256"},{"internalType":"enum AFTRVParimutuelMarket.PriceThresholdKind","name":"priceKind_","type":"uint8"},{"internalType":"uint256","name":"priceUpperBound_","type":"uint256"},{"internalType":"uint256","name":"maxPriceStaleness_","type":"uint256"},{"internalType":"uint256","name":"minBootstrapTotal_","type":"uint256"},{"internalType":"string[]","name":"outcomeLabels","type":"string[]"}],"name":"deployPriceMarket","outputs":[{"internalType":"address","name":"market","type":"address"},{"internalType":"address[]","name":"tokens","type":"address[]"}],"stateMutability":"nonpayable","type":"function"},{"inputs":[],"name":"factory","outputs":[{"internalType":"address","name":"","type":"address"}],"stateMutability":"view","type":"function"}],"evm":{"bytecode":{"linkReferences":{},"object":"60a03461007e57601f61521438819003918201601f19168301916001600160401b038311848410176100835780849260209460405283398101031261007e57516001600160a01b038116810361007e5760805260405161517a908161009a823960805181818160de015281816102700152818161034a01526106940152f35b600080fd5b634e487b7160e01b600052604160045260246000fdfe60806040908082526004803610156200001757600080fd5b600091823560e01c9081638318c9fa146200029f57508063c45a015514620002595763c494b3a6146200004957600080fd5b346200025557610200928360031936011262000251576200006962000494565b9162000074620004b0565b946200007f620004c7565b906200008a620004f6565b6200009462000507565b6200009e620004de565b90610164359260038410156200024d5767ffffffffffffffff956101e4358781116200024957620000d39036908a0162000518565b6001600160a01b039d7f00000000000000000000000000000000000000000000000000000000000000008f169c9092909190338e900362000239576200011b91869162000629565b9b8b519a613b3990818d019b8d8d10908d11176200022657508f94958f98948c9a978f8f9d9a956102c09f938f9460208c60ff9b8198958d9b8397620007ab903984521691015216908d01521660608b01521660808901521660a087015260a43560c087015260c43560e087015260e435610100870152846101208701526101043561014087015216610160850152610144356101808501526101a0840152610184356101c08401526101a4356101e0840152820152866102208201528661024082015286610260820152866102808201526101c4356102a082015203019084f09283156200021b57509062000217915193849316836200054c565b0390f35b9051903d90823e3d90fd5b8f6041602492634e487b7160e01b835252fd5b8c51630636a15760e11b81528c90fd5b8b80fd5b8980fd5b8280fd5b5080fd5b8284346200025557816003193601126200025557517f00000000000000000000000000000000000000000000000000000000000000006001600160a01b03168152602090f35b919390503462000251576102003660031901126200025157620002c162000494565b93620002cc620004b0565b620002d6620004c7565b90620002e1620004f6565b620002eb62000507565b620002f5620004de565b90610164359267ffffffffffffffff9586851680950362000490576001600160a01b039b6101a4358d81169791908890036200048c576101e4358981116200048857620003478f9136908d0162000518565b917f0000000000000000000000000000000000000000000000000000000000000000169d8e33036200047a57506200038191869162000629565b9b8b519a613b3990818d019b8d8d10908d1117620002265750948f8c9a98958e8260ff976102c09f8f819f9d99849d908c9a8692602094620007ab903984521691015216908c01521660608a01521660808801521660a086015260a43560c086015260c43560e086015260e4356101008601526001610120860152610104356101408601528a6101608601528a6101808601528a6101a08601528a6101c08601528a6101e08601521661020084015261014435610220840152610240830152610184356102608301526102808201526101c4356102a082015203019084f09283156200021b57509062000217915193849316836200054c565b630636a15760e11b81528c90fd5b8d80fd5b8c80fd5b8a80fd5b600435906001600160a01b0382168203620004ab57565b600080fd5b602435906001600160a01b0382168203620004ab57565b604435906001600160a01b0382168203620004ab57565b61012435906001600160a01b0382168203620004ab57565b6064359060ff82168203620004ab57565b6084359060ff82168203620004ab57565b9181601f84011215620004ab5782359167ffffffffffffffff8311620004ab576020808501948460051b010111620004ab57565b6001600160a01b03918216815260406020808301829052845191830182905260609092019382019160005b8281106200058757505050505090565b835185168652948101949281019260010162000577565b67ffffffffffffffff8111620005b75760051b60200190565b634e487b7160e01b600052604160045260246000fd5b9190811015620006135760051b81013590601e1981360301821215620004ab57019081359167ffffffffffffffff8311620004ab576020018236038113620004ab579190565b634e487b7160e01b600052603260045260246000fd5b92919262000637826200059e565b91604092835191601f1980601f8094011684019067ffffffffffffffff9185811083821117620005b757875282855262000671836200059e565b93816020950136602088013785996000610e61620042e49560018060a01b0397887f000000000000000000000000000000000000000000000000000000000000000016935b818110620006ce575050505050505050505050505050565b620006db81838f620005cd565b90501562000799578d620006f2828f8590620005cd565b90918051928784019084821088831117620005b7578f916060908f948f8f8f908f968f9360039260e09c60ff968f9d8e39806080808b528a01528060a094858b0137600084828b010152011686019881878b0301908701528801526213d55560ea1b60c0880152169082015201520301906000f09081156200078e578c5181101562000613578c8c8c60019416918360051b01015201620006b6565b8e513d6000823e3d90fd5b8d5163cccf65f560e01b8152600490fdfe34620008b15762003b39388190036103c0601f8201601f19168101906001600160401b03821190821017620008b6576102c09282916040526103c03912620008b1576200004e6103c0620008cc565b6200005b6103e0620008cc565b6103a0526200006c610400620008cc565b62000079610420620008cc565b9062000087610440620008e1565b9162000095610460620008e1565b610480516104a0516104c0516104e0519196939291906002821015620008b1576105005190620000c7610520620008cc565b61054051610320526105605161034081905290999060031115620008b15761058051610360526105a05161038052620001026105c0620008cc565b6105e05161060051989097919691906001600160401b038a168a03620008b157610620519a62000134610640620008cc565b9c6102a06103c001519f60018060a01b036103a05116156200089857600180546001600160a01b0319908116909155600080546103a0516001600160a01b039081169382168417835560405193929116907f8be0079c531659141344cd1fd0a4f28419497f9722a3daafe3b4186f6b6457e09080a360017f9b779b17422d0df92223018b32b4d1fa46e071723d6817e2486d003becc55f00556001600160a01b0382161515806200088f575b806200087c575b156200084b575060ff8516600281101590816200083e575b501562000808578515620007d157428711156200079b57868811156200076657881562000736576001600160a01b03831615620006f7575b60805260a05260c05260e0526101005261012052610140526101605281610180526101a05215600014620005bb57505050506001600160a01b038216159050620005905761038051156200055f57600261034051146200051d575b6101c052610320516101e05261034051610200526103605161022052610380516102405260006102605260006102805260006102a05260006102c05260006102e0525b61030052600019600955604051613248620008f18239608051818181610e400152611ac8015260a0518181816119fa01528181612e2801528181612e770152612eac015260c05181818161047601528181611482015281816119b501526130c8015260e05181610bb80152610100518181816103f40152818161041d0152818161044c015281816104cb01528181610eef015281816111ee0152818161144601528181611b0501528181611e0301528181611f3201528181611f650152818161295301528181612a8c01528181612c760152612f4a015261012051818181611248015261298601526101405181818161039d01528181611417015261182e015261016051818181610847015281816121b6015261251e01526101805181818161080001528181611138015281816117520152818161187801528181611b4301528181611b6a01528181611b97015261217601526101a05181610e0701526101c05181818161128101526121eb01526101e051818181610d7301528181612af201528181612b360152612b5e015261020051818181610c550152612ac201526102205181818161104c0152612b91015261024051818181610dcc015261224001526102605181818161092c01528181610a280152818161192101526124810152610280518181816108ae0152818161108701526118e201526102a051816111b001526102c05181818161087a01526116af01526102e0518181816108fd01528181610a050152818161178e015261211e0152610300518181816102840152610757015261324890f35b610360516103205110620002925760405162461bcd60e51b815260206004820152600c60248201526b52616e676520626f756e647360a01b6044820152606490fd5b60405162461bcd60e51b81526020600482015260096024820152685374616c656e65737360b81b6044820152606490fd5b606460405162461bcd60e51b81526020600482015260046024820152631199595960e21b6044820152fd5b93945091929091906001600160a01b03811615620006cc5781156200069e576001600160401b038316156200066e576001600160a01b038516156200063a5760006101c05260006101e05260006102005260006102205260006102405260018060a01b031661026052610280526102a0526102c0526102e052620002d5565b60405162461bcd60e51b815260206004820152600c60248201526b554d412063757272656e637960a01b6044820152606490fd5b60405162461bcd60e51b81526020600482015260086024820152674c6976656e65737360c01b6044820152606490fd5b60405162461bcd60e51b8152602060048201526006602482015265155350481a5960d21b6044820152606490fd5b606460405162461bcd60e51b815260206004820152600460248201526327a7bb1960e11b6044820152fd5b601260ff85160315620002375760405162461bcd60e51b815260206004820152600a6024820152694554482031382064656360b01b6044820152606490fd5b60405162461bcd60e51b81526020600482015260086024820152674d6574616461746160c01b6044820152606490fd5b60405162461bcd60e51b815260206004820152600d60248201526c2932b9b7b63b329037b93232b960991b6044820152606490fd5b60405162461bcd60e51b815260206004820152600e60248201526d14dd185ad948195b99081c185cdd60921b6044820152606490fd5b60405162461bcd60e51b815260206004820152600f60248201526e5669727475616c207265736572766560881b6044820152606490fd5b60405162461bcd60e51b815260206004820152600e60248201526d4f7574636f6d65732072616e676560901b6044820152606490fd5b60209150111538620001ff565b62461bcd60e51b815260206004820152600c60248201526b5a65726f206164647265737360a01b6044820152606490fd5b506001600160a01b0383161515620001e7565b506001620001e0565b604051631e4fbdf760e01b815260006004820152602490fd5b600080fd5b634e487b7160e01b600052604160045260246000fd5b51906001600160a01b0382168203620008b157565b519060ff82168203620008b15756fe608080604052600436101561001d575b50361561001b57600080fd5b005b600090813560e01c90816306fdccc7146125075750806308460328146124ea5780630c7bd33b146124b05780630d2af8d31461246b578063116a343a146124405780631448d31214612424578063158ef93e146124015780632567d7d61461214d5780632c4c5e501461210857806335142c8c146120e25780633bfdbbc914611a2957806346904840146119e457806348d399e71461199f578063493dcae1146118515780634b841d24146118165780634f12a39f14611728578063540385a31461170a57806355c1abe9146116d257806367bd151e14611697578063698b0676146113be578063715018a61461135857806379ba5097146112ce5780637d4035c5146112b05780637dbdf1f51461126b57806380c08a5d146112305780638192a437146112125780638767d64e146111d45780638d56aa3e1461118f5780638da5cb5b146111685780638e8daa7c14611122578063912397c3146110f65780639228c39b146110cd578063a2ffbe8e146110aa578063a5dc90f21461106f578063b972821914611034578063bb482f9614610e98578063c19d93fb14610e6f578063c45a015514610e2a578063c5a1d7f014610def578063c80d36b814610db4578063ca45504714610d96578063cc2f609314610d5b578063d6adc9ec14610c85578063d7f59f5b14610c40578063e1a4521814610c23578063e30c397814610bfa578063e3eecc6f14610bdc578063ec9c6c3014610b9e578063ee879258146107d9578063f0d677d714610354578063f11d7bdf1461031b578063f2fde38b146102aa5763ff3bb37e0361000f57346102a757806003193601126102a75760206040517f00000000000000000000000000000000000000000000000000000000000000008152f35b80fd5b50346102a75760203660031901126102a7576004356001600160a01b0381811691829003610316576102da6130a9565b600180546001600160a01b031916831790558254167f38d16b8cac22d99fc7c124b9cd0de2d3fa1faef420bfe791d8c362d765e227008380a380f35b600080fd5b50346102a75760203660031901126102a757600435906005548210156102a7576020610346836125fc565b90546040519160031b1c8152f35b5060403660031901126102a7576024356001600160a01b03811690036103165761037c612a53565b60065460ff8116156107c75760081c60ff1661039781612674565b6107b5577f00000000000000000000000000000000000000000000000000000000000000004210156107a35760ff600d5460a01c16610791576024356001600160a01b03161561077f57600435158015610754575b6107425760ff7f0000000000000000000000000000000000000000000000000000000000000000161561072e5760ff7f0000000000000000000000000000000000000000000000000000000000000000166004350661071c5761047460ff7f0000000000000000000000000000000000000000000000000000000000000000166004356127b8565b7f00000000000000000000000000000000000000000000000000000000000000006001600160a01b0316806106ee575060043534036106dc57905b80670de0b6b3a7640000928084810204841481151715925b60ff7f00000000000000000000000000000000000000000000000000000000000000001660ff82161015610660576104fe81612944565b8461050a821515612903565b61064c5761051a818785026127b8565b90811561063a5761055961052d84612541565b91908054926105428860039583871b1c612937565b825460001960039390931b92831b1916911b179055565b610562846125c5565b9054911b1c6001600160a01b0316803b15610636576040516340c10f1960e01b8152602480356001600160a01b03166004830152810184905290869082908183816044810103925af1801561062b57908691610613575b505060408051858152602081019390935282015260ff91600191818416906001600160a01b03602435169033907f8241d0defadd8507317470d315422749a6c8f8b8c9c0872aab09c665eaf3b66b90606090a401166104c7565b61061c906126ce565b6106275784386105b9565b8480fd5b6040513d88823e3d90fd5b8580fd5b604051639811e0c760e01b8152600490fd5b634e487b7160e01b84526011600452602484fd5b50600d80546001600160a81b0319163360ff60a01b19811691909117600160a01b1790915560408051600435815260208101939093526024356001600160a01b0316927f95194d0fd3e6e16008575e16c429d993d868b1a25d9993d071d1039853d22a749190a360016000805160206131f38339815191525580f35b6040516332afe6d360e21b8152600490fd5b3461070a5761070490600435903090339061301c565b906104af565b60405163cc43410f60e01b8152600490fd5b604051632e7d0d2d60e21b8152600490fd5b634e487b7160e01b81526012600452602490fd5b604051638568e8bd60e01b8152600490fd5b507f0000000000000000000000000000000000000000000000000000000000000000600435106103ec565b604051637a2a206960e11b8152600490fd5b604051635c03d07560e11b8152600490fd5b604051639622d9cf60e01b8152600490fd5b60405163300b4e3360e21b8152600490fd5b6040516321c4e35760e21b8152600490fd5b50346102a757806003193601126102a7576107f2612a53565b60065460ff8116156107c7577f0000000000000000000000000000000000000000000000000000000000000000906002821015610b8a576001809203610b785760081c60ff1661084181612674565b610b78577f00000000000000000000000000000000000000000000000000000000000000004210610b665761087461281a565b426008557f0000000000000000000000000000000000000000000000000000000000000000806109fb575b6040516311df92f160e01b81527f0000000000000000000000000000000000000000000000000000000000000000600482015242602482015260a060448201526020816001600160a01b038188816108fa60a482018a61271a565b847f000000000000000000000000000000000000000000000000000000000000000016606483015288608483015203927f0000000000000000000000000000000000000000000000000000000000000000165af180156109f0576109c5575b507fe4d3d3c620d2a4b140fa3731b55b8f71306ed6ab936d7b660b613ecdbbf69db6916109a99161010061ff0019600654161760065560405192839242845260606020850152606084019061271a565b9060408301520390a16000805160206131f38339815191525580f35b602090813d83116109e9575b6109db81836126f8565b810103126103165738610959565b503d6109d1565b6040513d87823e3d90fd5b60018060a01b03807f000000000000000000000000000000000000000000000000000000000000000016907f00000000000000000000000000000000000000000000000000000000000000001690600091604051602063095ea7b360e01b94858152836004528660245260448180875af18760005114811615610b59575b8160405215610a8c575b5050505061089f565b60206000858152836004528060245260448180875af18760005114811615610b3a575b8160405215610b2457506020906000906040519482526004528460245260448180855af18560005114811615610b05575b8260405215610af0578080610a83565b635274afe760e01b8252600482015260249150fd5b85811516610b1a57813b15153d151616610ae0565b823d6000823e3d90fd5b635274afe760e01b815260048101839052602490fd5b87811516610b4f57833b15153d151616610aaf565b503d6000823e3d90fd5b833b15153d151616610a79565b604051630fce133d60e01b8152600490fd5b60405163baf3f0f760e01b8152600490fd5b634e487b7160e01b83526021600452602483fd5b50346102a757806003193601126102a757602060405160ff7f0000000000000000000000000000000000000000000000000000000000000000168152f35b50346102a757806003193601126102a7576020600b54604051908152f35b50346102a757806003193601126102a7576001546040516001600160a01b039091168152602090f35b50346102a757806003193601126102a75760206040516127108152f35b50346102a757806003193601126102a75760207f000000000000000000000000000000000000000000000000000000000000000060405190610c8181612674565b8152f35b50346102a757806003193601126102a75760405190808260075491610ca983612694565b9283835260209460019186600182169182600014610d39575050600114610cf1575b5050610cd9925003836126f8565b610ced60405192828493845283019061271a565b0390f35b90859250600782526000805160206131d38339815191525b858310610d21575050610cd993508201013880610ccb565b80548389018501528794508693909201918101610d09565b9250935050610cd994915060ff191682840152151560051b8201013880610ccb565b50346102a757806003193601126102a75760206040517f00000000000000000000000000000000000000000000000000000000000000008152f35b50346102a757806003193601126102a7576020600854604051908152f35b50346102a757806003193601126102a75760206040517f00000000000000000000000000000000000000000000000000000000000000008152f35b50346102a757806003193601126102a75760206040517f00000000000000000000000000000000000000000000000000000000000000008152f35b50346102a757806003193601126102a7576040517f00000000000000000000000000000000000000000000000000000000000000006001600160a01b03168152602090f35b50346102a757806003193601126102a757602060ff60065460081c1660405190610c8181612674565b50346102a75760403660031901126102a757610eb2612664565b60243590610ebe612a53565b60065460ff8116156107c75760ff60029160081c16610edc81612674565b03610b7857811561063a5760ff811660ff7f0000000000000000000000000000000000000000000000000000000000000000168110156110225760ff600954160361102257600a54801561101057610f3d670de0b6b3a764000091846127a5565b04918215610fe257610f4f84926125c5565b905460039190911b1c6001600160a01b0316803b15610fde5760405163079cc67960e41b8152336004820152602481019290925282908290604490829084905af18015610fd357610fbb575b50610fa682336130bd565b60016000805160206131f38339815191525580f35b610fc4906126ce565b610fcf578138610f9b565b5080fd5b6040513d84823e3d90fd5b8280fd5b60405162461bcd60e51b815260206004820152600660248201526514185e5bdd5d60d21b6044820152606490fd5b60405163b3b7d75f60e01b8152600490fd5b60405163c74a206d60e01b8152600490fd5b50346102a757806003193601126102a75760206040517f00000000000000000000000000000000000000000000000000000000000000008152f35b50346102a757806003193601126102a75760206040517f00000000000000000000000000000000000000000000000000000000000000008152f35b50346102a757806003193601126102a7576020604051670de0b6b3a76400008152f35b50346102a757806003193601126102a757600d546040516001600160a01b039091168152602090f35b50346102a75760203660031901126102a757602061111a611115612664565b612944565b604051908152f35b50346102a757806003193601126102a7576040517f00000000000000000000000000000000000000000000000000000000000000006002811015610b8a57602092508152f35b50346102a757806003193601126102a757546040516001600160a01b039091168152602090f35b50346102a757806003193601126102a757602060405167ffffffffffffffff7f0000000000000000000000000000000000000000000000000000000000000000168152f35b50346102a757806003193601126102a757602060405160ff7f0000000000000000000000000000000000000000000000000000000000000000168152f35b50346102a757806003193601126102a7576020600c54604051908152f35b50346102a757806003193601126102a75760206040517f00000000000000000000000000000000000000000000000000000000000000008152f35b50346102a757806003193601126102a7576040517f00000000000000000000000000000000000000000000000000000000000000006001600160a01b03168152602090f35b50346102a757806003193601126102a7576020600954604051908152f35b50346102a757806003193601126102a7576001546001600160a01b033381831603611340576bffffffffffffffffffffffff60a01b8092166001556000549133908316176000553391167f8be0079c531659141344cd1fd0a4f28419497f9722a3daafe3b4186f6b6457e0600080a380f35b60405163118cdaa760e01b8152336004820152602490fd5b50346102a757806003193601126102a7576113716130a9565b600180546001600160a01b0319908116909155600080549182168155906001600160a01b03167f8be0079c531659141344cd1fd0a4f28419497f9722a3daafe3b4186f6b6457e08280a380f35b5060803660031901126102a7576113d3612664565b604435906001600160a01b038083169160243591838503610636576113f6612a53565b60065460ff8116156107c75760081c60ff1661141181612674565b6107b5577f00000000000000000000000000000000000000000000000000000000000000004210156107a35760ff82169460ff7f0000000000000000000000000000000000000000000000000000000000000000168610156110225783159261147a84156128ce565b8515611666577f000000000000000000000000000000000000000000000000000000000000000083168061162057508434036106dc575b6114ba81612944565b936114c6851515612903565b670de0b6b3a7640000908187029187830414171561160c57846114e8916127b8565b92831561063a5760643584106115fa5761151e826115196115098c95612541565b6105428b83548360031b1c612937565b6125c5565b90549060031b1c1691823b15610fcf576040516340c10f1960e01b81526001600160a01b0391909116600482015260248101849052918290604490829084905af180156115ef576115ba575b5060408051938452602084019190915282015233907f8241d0defadd8507317470d315422749a6c8f8b8c9c0872aab09c665eaf3b66b90606090a460016000805160206131f38339815191525580f35b956115e77f8241d0defadd8507317470d315422749a6c8f8b8c9c0872aab09c665eaf3b66b9392976126ce565b95909161156a565b6040513d89823e3d90fd5b6040516307dd37f760e41b8152600490fd5b634e487b7160e01b89526011600452602489fd5b346116385785611633913090339061301c565b6114b1565b60405162461bcd60e51b815260206004820152600660248201526509cde408aa8960d31b6044820152606490fd5b60405162461bcd60e51b8152602060048201526009602482015268149958da5c1a595b9d60ba1b6044820152606490fd5b50346102a757806003193601126102a75760206040517f00000000000000000000000000000000000000000000000000000000000000008152f35b50346102a75760203660031901126102a75760206116f16004356125c5565b905460405160039290921b1c6001600160a01b03168152f35b50346102a757806003193601126102a7576020600a54604051908152f35b50346102a75760203660031901126102a757600435611745612a53565b60ff60065416156107c7577f00000000000000000000000000000000000000000000000000000000000000006002811015610b8a576001036118045761178c8115156128ce565b7f00000000000000000000000000000000000000000000000000000000000000006001600160a01b0316906117c38130338561301c565b6040519081527fb70ccb2b3a65ba201e6b7107278d5064431bc3acf6e932d8f869a913a679738760203392a360016000805160206131f38339815191525580f35b60405163588dccfd60e01b8152600490fd5b50346102a757806003193601126102a75760206040517f00000000000000000000000000000000000000000000000000000000000000008152f35b50346102a757806003193601126102a75761186a612a53565b60065460ff8116156107c7577f00000000000000000000000000000000000000000000000000000000000000006002811015610b8a57600103610b785760ff60019160081c166118b981612674565b03610b785761191c60206118cb61281a565b60085460405193849283926353b5923960e01b84527f00000000000000000000000000000000000000000000000000000000000000006004850152602484015260606044840152606483019061271a565b0381857f00000000000000000000000000000000000000000000000000000000000000006001600160a01b03165af18015610fd357829061196b575b610fa6915061196681612f46565b612c71565b506020813d602011611997575b81611985602093836126f8565b81010312610fcf57610fa69051611958565b3d9150611978565b50346102a757806003193601126102a7576040517f00000000000000000000000000000000000000000000000000000000000000006001600160a01b03168152602090f35b50346102a757806003193601126102a7576040517f00000000000000000000000000000000000000000000000000000000000000006001600160a01b03168152602090f35b50346102a75760803660031901126102a75767ffffffffffffffff600435818111610fde57611a5c903690600401612633565b9180602435116120de573660236024350112156120de578060243560040135116120de5736602480356004013581350101116120de5760443581811161062757611aaa903690600401612633565b909160643590811161063657611ac4903690600401612633565b90917f00000000000000000000000000000000000000000000000000000000000000006001600160a01b031633036120cc5760065460ff81166120bb5760ff7f00000000000000000000000000000000000000000000000000000000000000001687036120885760ff1916600117600655865b868110611fd2575060027f00000000000000000000000000000000000000000000000000000000000000001015611fbe577f000000000000000000000000000000000000000000000000000000000000000015611df9575b5050505060017f000000000000000000000000000000000000000000000000000000000000000014611c6c575b6040519180604084016040855252606083019190845b818110611c3e57857fa8457c2bcbbdb92c70cae1f959de4c2fb0bd95a61c6fdabe79a02bfe7ea3860186602081888181038383015260243560040135815260243560040135602480350184830137600460243501358181018401879052601f01601f191601030190a180f35b90919283359060018060a01b038216809203611c6857908152602090810193019190600101611bd2565b8680fd5b6024356004013515611dc957611c83600754612694565b601f8111611d6c575b5082601f6024356004013511600114611ce157839060243560040135611cd2575b506024356004013560011b906000196024356004013560031b1c191617600755611bbc565b60248092503501013538611cad565b600784526000805160206131d38339815191529060046024350135601f1916855b818110611d5057506024356004013511611d2d575b5050600160243560040135811b01600755611bbc565b602460001960f882356004013560031b161c199181350101351690553880611d17565b9192602060018192602487813501013581550194019201611d02565b600784526000805160206131d3833981519152601f602435600401350160051c81019160206024356004013510611dbf575b601f0160051c01905b818110611db45750611c8c565b848155600101611da7565b9091508190611d9e565b60405162461bcd60e51b815260206004820152600860248201526728bab2b9ba34b7b760c11b6044820152606490fd5b8015611f5b5760ff7f000000000000000000000000000000000000000000000000000000000000000016811480611f2f575b611e34906127e8565b865b818110611e4c5750505050505b38808080611b8f565b611e578183876127d8565b35611e638285876127d8565b3510611efd57611e748183876127d8565b3560045490600160401b9182811015611ee95790611e9b826001611eb4940160045561258e565b90919082549060031b91821b91600019901b1916179055565b611ebf8285876127d8565b35906005805491821015611ee95791611e9b826001959486611ee3950190556125fc565b01611e36565b634e487b7160e01b8b52604160045260248bfd5b60405162461bcd60e51b815260206004820152600a60248201526942696e20626f756e647360b01b6044820152606490fd5b507f000000000000000000000000000000000000000000000000000000000000000060ff168214611e2b565b50505050600260ff7f0000000000000000000000000000000000000000000000000000000000000000160315611e435760405162461bcd60e51b815260206004820152600b60248201526a2134b7399037b910271e9960a91b6044820152606490fd5b634e487b7160e01b87526021600452602487fd5b611fdd8188886127d8565b356001600160a01b038116908190036120845760028054600160401b918282101561207057600182019055612011906125c5565b928154600394851b91821b9160018060a01b03901b191617905581549081101561205c5790612047826001809594018355612541565b9091825491600019911b1b1916905501611b37565b634e487b7160e01b8a52604160045260248afd5b634e487b7160e01b8c52604160045260248cfd5b8880fd5b60405162461bcd60e51b815260206004820152600b60248201526a151bdad95b8818dbdd5b9d60aa1b6044820152606490fd5b60405162dc149f60e41b8152600490fd5b604051630636a15760e11b8152600490fd5b8380fd5b50346102a757806003193601126102a757602060ff600d5460a01c166040519015158152f35b50346102a757806003193601126102a7576040517f00000000000000000000000000000000000000000000000000000000000000006001600160a01b03168152602090f35b50346102a757806003193601126102a757612166612a53565b60065460ff90818116156107c7577f000000000000000000000000000000000000000000000000000000000000000060028110156123ed57610b785760081c81166121b081612674565b610b78577f00000000000000000000000000000000000000000000000000000000000000004210610b6657604051633fabe5a360e21b8152907f00000000000000000000000000000000000000000000000000000000000000006001600160a01b031660a083600481845afa80156123335784938591612399575b508484131561236b5761223e9042612771565b7f00000000000000000000000000000000000000000000000000000000000000001061233e5760206004916040519283809263313ce56760e01b82525afa801561233357829185916122f5575b5016600681106122d257600519019081116122be57906119666122b96122b3610fa694612794565b836127b8565b612a83565b634e487b7160e01b83526011600452602483fd5b6006039081116122be57906119666122b96122ef610fa694612794565b836127a5565b9150506020813d60201161232b575b81612311602093836126f8565b810103126120de575181811681036120de5781903861228b565b3d9150612304565b6040513d86823e3d90fd5b60405162461bcd60e51b81526020600482015260056024820152645374616c6560d81b6044820152606490fd5b60405162461bcd60e51b815260206004820152600660248201526520b739bbb2b960d11b6044820152606490fd5b93505060a0833d60a0116123e5575b816123b560a093836126f8565b810103126120de576123c68361275a565b5060208301516123dd60806060860151950161275a565b50923861222b565b3d91506123a8565b634e487b7160e01b84526021600452602484fd5b50346102a757806003193601126102a757602060ff600654166040519015158152f35b50346102a757806003193601126102a757602060405160328152f35b50346102a75760203660031901126102a757600435906004548210156102a75760206103468361258e565b50346102a757806003193601126102a7576040517f00000000000000000000000000000000000000000000000000000000000000006001600160a01b03168152602090f35b50346102a75760203660031901126102a757600435906003548210156102a75760206124db83612541565b90549060031b1c604051908152f35b50346102a757806003193601126102a757602060405161012c8152f35b905034610fcf5781600319360112610fcf576020907f00000000000000000000000000000000000000000000000000000000000000008152f35b6003548110156125785760036000527fc2575a0e9e593c00f959f8c92f12db2869c3395a3b0502d05e2516446f71f85b0190600090565b634e487b7160e01b600052603260045260246000fd5b6004548110156125785760046000527f8a35acfbc15ff81a39ae7d344fd709f28e8600b4aa8c65c6b64bfe7fe36bd19b0190600090565b6002548110156125785760026000527f405787fa12a823e0f2b7631cc41b3ba8828b3321ca811111fa75cd3aa3bb5ace0190600090565b6005548110156125785760056000527f036b6384b5eca791c62761152d0c79bb0604c104a5fb6f4eb0703f3154bb3db00190600090565b9181601f840112156103165782359167ffffffffffffffff8311610316576020808501948460051b01011161031657565b6004359060ff8216820361031657565b6003111561267e57565b634e487b7160e01b600052602160045260246000fd5b90600182811c921680156126c4575b60208310146126ae57565b634e487b7160e01b600052602260045260246000fd5b91607f16916126a3565b67ffffffffffffffff81116126e257604052565b634e487b7160e01b600052604160045260246000fd5b90601f8019910116810190811067ffffffffffffffff8211176126e257604052565b919082519283825260005b848110612746575050826000602080949584010152601f8019910116010190565b602081830181015184830182015201612725565b519069ffffffffffffffffffff8216820361031657565b9190820391821161277e57565b634e487b7160e01b600052601160045260246000fd5b60ff16604d811161277e57600a0a90565b8181029291811591840414171561277e57565b81156127c2570490565b634e487b7160e01b600052601260045260246000fd5b91908110156125785760051b0190565b156127ef57565b606460405162461bcd60e51b815260206004820152600460248201526342696e7360e01b6044820152fd5b604051906000826007549161282e83612694565b808352926020906001908181169081156128aa575060011461285b575b5050612859925003836126f8565b565b91509260076000526000805160206131d3833981519152936000925b8284106128925750612859945050508101602001388061284b565b85548885018301529485019487945092810192612877565b9150506020925061285994915060ff191682840152151560051b820101388061284b565b156128d557565b60405162461bcd60e51b8152602060048201526006602482015265105b5bdd5b9d60d21b6044820152606490fd5b1561290a57565b60405162461bcd60e51b8152602060048201526005602482015264507269636560d81b6044820152606490fd5b9190820180921161277e57565b60ff60065416156107c75760ff7f000000000000000000000000000000000000000000000000000000000000000016908160ff821610156110225760009160007f0000000000000000000000000000000000000000000000000000000000000000915b808210612a2457505082156129f6576129c26129cf92612541565b90549060031b1c90612937565b90670de0b6b3a76400009182810292818404149015171561277e576129f3916127b8565b90565b60405162461bcd60e51b815260206004820152600660248201526515d95a59da1d60d21b6044820152606490fd5b9093612a4b600191612a45612a3888612541565b90549060031b1c86612937565b90612937565b9401906129a7565b6000805160206131f38339815191526002815414612a715760029055565b604051633ee5aeb560e01b8152600490fd5b600480549060ff7f000000000000000000000000000000000000000000000000000000000000000016809214612bb857506002612ac091146127e8565b7f0000000000000000000000000000000000000000000000000000000000000000612aea81612674565b80612b2357507f000000000000000000000000000000000000000000000000000000000000000011155b15612b1e57600090565b600190565b80612b2f600192612674565b03612b5c577f00000000000000000000000000000000000000000000000000000000000000001015612b14565b7f00000000000000000000000000000000000000000000000000000000000000008110159081612b8d575b50612b14565b90507f0000000000000000000000000000000000000000000000000000000000000000101538612b87565b906000918293835b838110612c045750505050600103612bd55790565b60405162461bcd60e51b815260206004820152600760248201526627b732903134b760c91b6044820152606490fd5b612c0d8161258e565b9054600391821b1c8310159081612c58575b50612c2d575b600101612bc0565b9450926000198114612c43576001019284612c25565b601182634e487b7160e01b6000525260246000fd5b9050612c63826125fc565b9054911b1c82111538612c1f565b6000907f000000000000000000000000000000000000000000000000000000000000000060ff16825b818110612f1e57505061012c91828102908015938183041484171561277e57612710809204936032820290828204603214171561277e5760049260209104612cec86612ce68382612771565b94612771565b92612cf6866125c5565b90546040516318160ddd60e01b8152966001600160a01b0395928892839160031b1c87165afa948515612f1257600095612ede575b50612d3586612541565b90549060031b1c9287612e52575b505083159050612de05781612d5791612937565b94670de0b6b3a76400009586810296818804149015171561277e57612da0612ddb937f1156c82479e3534ddd36ca57cd84557fd8b25737545b9b3572c4f2878613af54976127b8565b600a555b83600955600b5542600c5561020061ff00196006541617600655604051938493846040919493926060820195825260208201520152565b0390a1565b612ddb925094612e16827f1156c82479e3534ddd36ca57cd84557fd8b25737545b9b3572c4f2878613af54976000600a55612937565b80612e22575b50612da4565b612e4c907f00000000000000000000000000000000000000000000000000000000000000006130bd565b38612e1c565b80600d5416151580612ed5575b15612ea357612e9b92612e7591600d54166130bd565b7f00000000000000000000000000000000000000000000000000000000000000006130bd565b388080612d43565b505050612ed0857f00000000000000000000000000000000000000000000000000000000000000006130bd565b612e9b565b50821515612e5f565b9094506020813d602011612f0a575b81612efa602093836126f8565b8101031261031657519338612d2b565b3d9150612eed565b6040513d6000823e3d90fd5b828103612f2e575b600101612c9a565b92612f3e6001916129c286612541565b939050612f26565b60ff7f00000000000000000000000000000000000000000000000000000000000000001690600282146130025760008112612fd057670de0b6b3a764000090818110612fc85704905b811015612f995790565b60405162461bcd60e51b81526020600482015260076024820152660aa9a8240d2c8f60cb1b6044820152606490fd5b905090612f8f565b60405162461bcd60e51b815260206004820152600a602482015269283934b1b29039b4b3b760b11b6044820152606490fd5b670de0b6b3a764000091501461301757600190565b600090565b6040516323b872dd60e01b60009081526001600160a01b03938416600452938316602452604494909452909160209060648180855af1600160005114811615613089575b8360405260006060521561307357505050565b635274afe760e01b835216600482015260249150fd5b600181151661309f57813b15153d151616613060565b833d6000823e3d90fd5b6000546001600160a01b0316330361134057565b906001600160a01b037f00000000000000000000000000000000000000000000000000000000000000008116806130f95750612859921661314e565b91906020916000916040519563a9059cbb60e01b84521660045260245260448180855af1600160005114811615613138575b8260405215610af0575050565b6001811516610b1a57813b15153d15161661312b565b8147106131b3576040516020810181811067ffffffffffffffff8211176126e257604052600080809481948280955260018060a01b03165af11561318f5750565b3d156131a157604051903d90823e3d90fd5b60405163d6bda27560e01b8152600490fd5b60405163cf47918160e01b815247600482015260248101839052604490fdfea66cc928b5edb82af9bd49922954155ab7b0942694bea4ce44661d9a8736c6889b779b17422d0df92223018b32b4d1fa46e071723d6817e2486d003becc55f00a2646970667358221220e04fc6ef1727d5fd227c6d2fa37d4ca7403dce0b877f17a9fcce01f05b9393f864736f6c6343000818003360a060405234620003b25762000e61803803806200001d81620003b7565b928339810190608081830312620003b25780516001600160401b0390818111620003b257836200004f918401620003dd565b926020908184015190838211620003b2576200006d918501620003dd565b9360408401519360ff85168503620003b257606001516001600160a01b03958682169491859003620003b2578251828111620002b2576003918254916001958684811c94168015620003a7575b8885101462000391578190601f948581116200033b575b508890858311600114620002d457600092620002c8575b505060001982861b1c191690861b1783555b8051938411620002b25760049586548681811c91168015620002a7575b82821014620002925783811162000247575b5080928511600114620001d95750938394918492600095620001cd575b50501b92600019911b1c19161781555b8115620001b55750600580546001600160a01b03198116831790915560405193167f8be0079c531659141344cd1fd0a4f28419497f9722a3daafe3b4186f6b6457e0600080a3608052610a119081620004508239608051816105640152f35b602490600060405191631e4fbdf760e01b8352820152fd5b01519350388062000146565b92919084601f1981168860005285600020956000905b898383106200022c575050501062000211575b50505050811b01815562000156565b01519060f884600019921b161c191690553880808062000202565b858701518955909701969485019488935090810190620001ef565b87600052816000208480880160051c82019284891062000288575b0160051c019087905b8281106200027b57505062000129565b600081550187906200026b565b9250819262000262565b602288634e487b7160e01b6000525260246000fd5b90607f169062000117565b634e487b7160e01b600052604160045260246000fd5b015190503880620000e8565b90889350601f19831691876000528a6000209260005b8c8282106200032457505084116200030b575b505050811b018355620000fa565b015160001983881b60f8161c19169055388080620002fd565b8385015186558c97909501949384019301620002ea565b90915085600052886000208580850160051c8201928b861062000387575b918a91869594930160051c01915b82811062000377575050620000d1565b600081558594508a910162000367565b9250819262000359565b634e487b7160e01b600052602260045260246000fd5b93607f1693620000ba565b600080fd5b6040519190601f01601f191682016001600160401b03811183821017620002b257604052565b919080601f84011215620003b25782516001600160401b038111620002b25760209062000413601f8201601f19168301620003b7565b92818452828287010111620003b25760005b8181106200043b57508260009394955001015290565b85810183015184820184015282016200042556fe6080604081815260048036101561001557600080fd5b600092833560e01c90816306fdde031461068d57508063095ea7b3146105e457806318160ddd146105c557806323b872dd14610588578063313ce5671461054a57806340c10f191461049b57806370a0823114610464578063715018a61461040457806379cc6790146103185780638da5cb5b146102ef57806395d89b41146101cd578063a9059cbb1461019c578063dd62ed3e1461014f5763f2fde38b146100bd57600080fd5b3461014b57602036600319011261014b576100d66107cd565b906100df6109af565b6001600160a01b03918216928315610135575050600554826bffffffffffffffffffffffff60a01b821617600555167f8be0079c531659141344cd1fd0a4f28419497f9722a3daafe3b4186f6b6457e08380a380f35b51631e4fbdf760e01b8152908101849052602490fd5b8280fd5b5050346101985780600319360112610198578060209261016d6107cd565b6101756107e8565b6001600160a01b0391821683526001865283832091168252845220549051908152f35b5080fd5b5050346101985780600319360112610198576020906101c66101bc6107cd565b60243590336108d1565b5160018152f35b5091903461019857816003193601126101985780519082845460018160011c90600183169283156102e5575b60209384841081146102d2578388529081156102b65750600114610261575b505050829003601f01601f191682019267ffffffffffffffff84118385101761024e575082918261024a925282610784565b0390f35b634e487b7160e01b815260418552602490fd5b8787529192508591837f8a35acfbc15ff81a39ae7d344fd709f28e8600b4aa8c65c6b64bfe7fe36bd19b5b8385106102a25750505050830101388080610218565b80548886018301529301928490820161028c565b60ff1916878501525050151560051b8401019050388080610218565b634e487b7160e01b895260228a52602489fd5b91607f16916101f9565b50503461019857816003193601126101985760055490516001600160a01b039091168152602090f35b508290346101985782600319360112610198576103336107cd565b6001600160a01b0381169160243591338490036103f4575b83156103dd578385528460205285852054918383106103a95750508184957fddf252ad1be2c89b69c2b068fc378daa952ba7f163c4a11628f55a4df523b3ef936020938688528785520381872055816002540360025551908152a380f35b865163391434e360e21b81526001600160a01b03909216908201908152602081018390526040810184905281906060010390fd5b8551634b637e8f60e11b8152808301869052602490fd5b6103ff8333836107fe565b61034b565b833461046157806003193601126104615761041d6109af565b600580546001600160a01b0319811690915581906001600160a01b03167f8be0079c531659141344cd1fd0a4f28419497f9722a3daafe3b4186f6b6457e08280a380f35b80fd5b5050346101985760203660031901126101985760209181906001600160a01b0361048c6107cd565b16815280845220549051908152f35b50903461014b578060031936011261014b576104b56107cd565b90602435916104c26109af565b6001600160a01b03169283156105355760025490838201809211610522575084927fddf252ad1be2c89b69c2b068fc378daa952ba7f163c4a11628f55a4df523b3ef9260209260025585855284835280852082815401905551908152a380f35b634e487b7160e01b865260119052602485fd5b84602492519163ec442f0560e01b8352820152fd5b5050346101985781600319360112610198576020905160ff7f0000000000000000000000000000000000000000000000000000000000000000168152f35b505034610198576060366003190112610198576020906101c66105a96107cd565b6105b16107e8565b604435916105c08333836107fe565b6108d1565b5050346101985781600319360112610198576020906002549051908152f35b503461014b578160031936011261014b576105fd6107cd565b602435903315610676576001600160a01b031691821561065f57508083602095338152600187528181208582528752205582519081527f8c5be1e5ebec7d5bd14f71427d1e84f3dd0314c0f7b2291e5b200ac8c7c3b925843392a35160018152f35b8351634a1406b160e11b8152908101859052602490fd5b835163e602df0560e01b8152808401869052602490fd5b849150833461014b578260031936011261014b578260035460018160011c906001831692831561077a575b60209384841081146102d25783885290811561075e575060011461070857505050829003601f01601f191682019267ffffffffffffffff84118385101761024e575082918261024a925282610784565b600387529192508591837fc2575a0e9e593c00f959f8c92f12db2869c3395a3b0502d05e2516446f71f85b5b83851061074a5750505050830101858080610218565b805488860183015293019284908201610734565b60ff1916878501525050151560051b8401019050858080610218565b91607f16916106b8565b6020808252825181830181905290939260005b8281106107b957505060409293506000838284010152601f8019910116010190565b818101860151848201604001528501610797565b600435906001600160a01b03821682036107e357565b600080fd5b602435906001600160a01b03821682036107e357565b9160018060a01b03809316916000938385526001602052604093848620918316918287526020528486205492600019841061083d575b50505050505050565b8484106108a15750801561088957811561087157855260016020528385209085526020520391205538808080808080610834565b8451634a1406b160e11b815260048101879052602490fd5b845163e602df0560e01b815260048101879052602490fd5b8551637dc7a0d960e11b81526001600160a01b039190911660048201526024810184905260448101859052606490fd5b916001600160a01b03808416928315610996571692831561097d576000908382528160205260408220549083821061094b575091604082827fddf252ad1be2c89b69c2b068fc378daa952ba7f163c4a11628f55a4df523b3ef958760209652828652038282205586815220818154019055604051908152a3565b60405163391434e360e21b81526001600160a01b03919091166004820152602481019190915260448101839052606490fd5b60405163ec442f0560e01b815260006004820152602490fd5b604051634b637e8f60e11b815260006004820152602490fd5b6005546001600160a01b031633036109c357565b60405163118cdaa760e01b8152336004820152602490fdfea2646970667358221220f466ad3611f91c0035afc98cd212a546e1bf84827e5f6d1f969630ef715b53fc64736f6c63430008180033a264697066735822122038885b65d7bbc526b6b002495fa9622c5565be6986f160c4dd29cf7a503ad44564736f6c63430008180033","opcodes":"PUSH1 0xA0 CALLVALUE PUSH2 0x7E JUMPI PUSH1 0x1F PUSH2 0x5214 CODESIZE DUP2 SWAP1 SUB SWAP2 DUP3 ADD PUSH1 0x1F NOT AND DUP4 ADD SWAP2 PUSH1 0x1 PUSH1 0x1 PUSH1 0x40 SHL SUB DUP4 GT DUP5 DUP5 LT OR PUSH2 0x83 JUMPI DUP1 DUP5 SWAP3 PUSH1 0x20 SWAP5 PUSH1 0x40 MSTORE DUP4 CODECOPY DUP2 ADD SUB SLT PUSH2 0x7E JUMPI MLOAD PUSH1 0x1 PUSH1 0x1 PUSH1 0xA0 SHL SUB DUP2 AND DUP2 SUB PUSH2 0x7E JUMPI PUSH1 0x80 MSTORE PUSH1 0x40 MLOAD PUSH2 0x517A SWAP1 DUP2 PUSH2 0x9A DUP3 CODECOPY PUSH1 0x80 MLOAD DUP2 DUP2 DUP2 PUSH1 0xDE ADD MSTORE DUP2 DUP2 PUSH2 0x270 ADD MSTORE DUP2 DUP2 PUSH2 0x34A ADD MSTORE PUSH2 0x694 ADD MSTORE RETURN JUMPDEST PUSH1 0x0 DUP1 REVERT JUMPDEST PUSH4 0x4E487B71 PUSH1 0xE0 SHL PUSH1 0x0 MSTORE PUSH1 0x41 PUSH1 0x4 MSTORE PUSH1 0x24 PUSH1 0x0 REVERT INVALID PUSH1 0x80 PUSH1 0x40 SWAP1 DUP1 DUP3 MSTORE PUSH1 0x4 DUP1 CALLDATASIZE LT ISZERO PUSH3 0x17 JUMPI PUSH1 0x0 DUP1 REVERT JUMPDEST PUSH1 0x0 SWAP2 DUP3 CALLDATALOAD PUSH1 0xE0 SHR SWAP1 DUP2 PUSH4 0x8318C9FA EQ PUSH3 0x29F JUMPI POP DUP1 PUSH4 0xC45A0155 EQ PUSH3 0x259 JUMPI PUSH4 0xC494B3A6 EQ PUSH3 0x49 JUMPI PUSH1 0x0 DUP1 REVERT JUMPDEST CALLVALUE PUSH3 0x255 JUMPI PUSH2 0x200 SWAP3 DUP4 PUSH1 0x3 NOT CALLDATASIZE ADD SLT PUSH3 0x251 JUMPI PUSH3 0x69 PUSH3 0x494 JUMP JUMPDEST SWAP2 PUSH3 0x74 PUSH3 0x4B0 JUMP JUMPDEST SWAP5 PUSH3 0x7F PUSH3 0x4C7 JUMP JUMPDEST SWAP1 PUSH3 0x8A PUSH3 0x4F6 JUMP JUMPDEST PUSH3 0x94 PUSH3 0x507 JUMP JUMPDEST PUSH3 0x9E PUSH3 0x4DE JUMP JUMPDEST SWAP1 PUSH2 0x164 CALLDATALOAD SWAP3 PUSH1 0x3 DUP5 LT ISZERO PUSH3 0x24D JUMPI PUSH8 0xFFFFFFFFFFFFFFFF SWAP6 PUSH2 0x1E4 CALLDATALOAD DUP8 DUP2 GT PUSH3 0x249 JUMPI PUSH3 0xD3 SWAP1 CALLDATASIZE SWAP1 DUP11 ADD PUSH3 0x518 JUMP JUMPDEST PUSH1 0x1 PUSH1 0x1 PUSH1 0xA0 SHL SUB SWAP14 PUSH32 0x0 DUP16 AND SWAP13 SWAP1 SWAP3 SWAP1 SWAP2 SWAP1 CALLER DUP15 SWAP1 SUB PUSH3 0x239 JUMPI PUSH3 0x11B SWAP2 DUP7 SWAP2 PUSH3 0x629 JUMP JUMPDEST SWAP12 DUP12 MLOAD SWAP11 PUSH2 0x3B39 SWAP1 DUP2 DUP14 ADD SWAP12 DUP14 DUP14 LT SWAP1 DUP14 GT OR PUSH3 0x226 JUMPI POP DUP16 SWAP5 SWAP6 DUP16 SWAP9 SWAP5 DUP13 SWAP11 SWAP8 DUP16 DUP16 SWAP14 SWAP11 SWAP6 PUSH2 0x2C0 SWAP16 SWAP4 DUP16 SWAP5 PUSH1 0x20 DUP13 PUSH1 0xFF SWAP12 DUP2 SWAP9 SWAP6 DUP14 SWAP12 DUP4 SWAP8 PUSH3 0x7AB SWAP1 CODECOPY DUP5 MSTORE AND SWAP2 ADD MSTORE AND SWAP1 DUP14 ADD MSTORE AND PUSH1 0x60 DUP12 ADD MSTORE AND PUSH1 0x80 DUP10 ADD MSTORE AND PUSH1 0xA0 DUP8 ADD MSTORE PUSH1 0xA4 CALLDATALOAD PUSH1 0xC0 DUP8 ADD MSTORE PUSH1 0xC4 CALLDATALOAD PUSH1 0xE0 DUP8 ADD MSTORE PUSH1 0xE4 CALLDATALOAD PUSH2 0x100 DUP8 ADD MSTORE DUP5 PUSH2 0x120 DUP8 ADD MSTORE PUSH2 0x104 CALLDATALOAD PUSH2 0x140 DUP8 ADD MSTORE AND PUSH2 0x160 DUP6 ADD MSTORE PUSH2 0x144 CALLDATALOAD PUSH2 0x180 DUP6 ADD MSTORE PUSH2 0x1A0 DUP5 ADD MSTORE PUSH2 0x184 CALLDATALOAD PUSH2 0x1C0 DUP5 ADD MSTORE PUSH2 0x1A4 CALLDATALOAD PUSH2 0x1E0 DUP5 ADD MSTORE DUP3 ADD MSTORE DUP7 PUSH2 0x220 DUP3 ADD MSTORE DUP7 PUSH2 0x240 DUP3 ADD MSTORE DUP7 PUSH2 0x260 DUP3 ADD MSTORE DUP7 PUSH2 0x280 DUP3 ADD MSTORE PUSH2 0x1C4 CALLDATALOAD PUSH2 0x2A0 DUP3 ADD MSTORE SUB ADD SWAP1 DUP5 CREATE SWAP3 DUP4 ISZERO PUSH3 0x21B JUMPI POP SWAP1 PUSH3 0x217 SWAP2 MLOAD SWAP4 DUP5 SWAP4 AND DUP4 PUSH3 0x54C JUMP JUMPDEST SUB SWAP1 RETURN JUMPDEST SWAP1 MLOAD SWAP1 RETURNDATASIZE SWAP1 DUP3 RETURNDATACOPY RETURNDATASIZE SWAP1 REVERT JUMPDEST DUP16 PUSH1 0x41 PUSH1 0x24 SWAP3 PUSH4 0x4E487B71 PUSH1 0xE0 SHL DUP4 MSTORE MSTORE REVERT JUMPDEST DUP13 MLOAD PUSH4 0x636A157 PUSH1 0xE1 SHL DUP2 MSTORE DUP13 SWAP1 REVERT JUMPDEST DUP12 DUP1 REVERT JUMPDEST DUP10 DUP1 REVERT JUMPDEST DUP3 DUP1 REVERT JUMPDEST POP DUP1 REVERT JUMPDEST DUP3 DUP5 CALLVALUE PUSH3 0x255 JUMPI DUP2 PUSH1 0x3 NOT CALLDATASIZE ADD SLT PUSH3 0x255 JUMPI MLOAD PUSH32 0x0 PUSH1 0x1 PUSH1 0x1 PUSH1 0xA0 SHL SUB AND DUP2 MSTORE PUSH1 0x20 SWAP1 RETURN JUMPDEST SWAP2 SWAP4 SWAP1 POP CALLVALUE PUSH3 0x251 JUMPI PUSH2 0x200 CALLDATASIZE PUSH1 0x3 NOT ADD SLT PUSH3 0x251 JUMPI PUSH3 0x2C1 PUSH3 0x494 JUMP JUMPDEST SWAP4 PUSH3 0x2CC PUSH3 0x4B0 JUMP JUMPDEST PUSH3 0x2D6 PUSH3 0x4C7 JUMP JUMPDEST SWAP1 PUSH3 0x2E1 PUSH3 0x4F6 JUMP JUMPDEST PUSH3 0x2EB PUSH3 0x507 JUMP JUMPDEST PUSH3 0x2F5 PUSH3 0x4DE JUMP JUMPDEST SWAP1 PUSH2 0x164 CALLDATALOAD SWAP3 PUSH8 0xFFFFFFFFFFFFFFFF SWAP6 DUP7 DUP6 AND DUP1 SWAP6 SUB PUSH3 0x490 JUMPI PUSH1 0x1 PUSH1 0x1 PUSH1 0xA0 SHL SUB SWAP12 PUSH2 0x1A4 CALLDATALOAD DUP14 DUP2 AND SWAP8 SWAP2 SWAP1 DUP9 SWAP1 SUB PUSH3 0x48C JUMPI PUSH2 0x1E4 CALLDATALOAD DUP10 DUP2 GT PUSH3 0x488 JUMPI PUSH3 0x347 DUP16 SWAP2 CALLDATASIZE SWAP1 DUP14 ADD PUSH3 0x518 JUMP JUMPDEST SWAP2 PUSH32 0x0 AND SWAP14 DUP15 CALLER SUB PUSH3 0x47A JUMPI POP PUSH3 0x381 SWAP2 DUP7 SWAP2 PUSH3 0x629 JUMP JUMPDEST SWAP12 DUP12 MLOAD SWAP11 PUSH2 0x3B39 SWAP1 DUP2 DUP14 ADD SWAP12 DUP14 DUP14 LT SWAP1 DUP14 GT OR PUSH3 0x226 JUMPI POP SWAP5 DUP16 DUP13 SWAP11 SWAP9 SWAP6 DUP15 DUP3 PUSH1 0xFF SWAP8 PUSH2 0x2C0 SWAP16 DUP16 DUP2 SWAP16 SWAP14 SWAP10 DUP5 SWAP14 SWAP1 DUP13 SWAP11 DUP7 SWAP3 PUSH1 0x20 SWAP5 PUSH3 0x7AB SWAP1 CODECOPY DUP5 MSTORE AND SWAP2 ADD MSTORE AND SWAP1 DUP13 ADD MSTORE AND PUSH1 0x60 DUP11 ADD MSTORE AND PUSH1 0x80 DUP9 ADD MSTORE AND PUSH1 0xA0 DUP7 ADD MSTORE PUSH1 0xA4 CALLDATALOAD PUSH1 0xC0 DUP7 ADD MSTORE PUSH1 0xC4 CALLDATALOAD PUSH1 0xE0 DUP7 ADD MSTORE PUSH1 0xE4 CALLDATALOAD PUSH2 0x100 DUP7 ADD MSTORE PUSH1 0x1 PUSH2 0x120 DUP7 ADD MSTORE PUSH2 0x104 CALLDATALOAD PUSH2 0x140 DUP7 ADD MSTORE DUP11 PUSH2 0x160 DUP7 ADD MSTORE DUP11 PUSH2 0x180 DUP7 ADD MSTORE DUP11 PUSH2 0x1A0 DUP7 ADD MSTORE DUP11 PUSH2 0x1C0 DUP7 ADD MSTORE DUP11 PUSH2 0x1E0 DUP7 ADD MSTORE AND PUSH2 0x200 DUP5 ADD MSTORE PUSH2 0x144 CALLDATALOAD PUSH2 0x220 DUP5 ADD MSTORE PUSH2 0x240 DUP4 ADD MSTORE PUSH2 0x184 CALLDATALOAD PUSH2 0x260 DUP4 ADD MSTORE PUSH2 0x280 DUP3 ADD MSTORE PUSH2 0x1C4 CALLDATALOAD PUSH2 0x2A0 DUP3 ADD MSTORE SUB ADD SWAP1 DUP5 CREATE SWAP3 DUP4 ISZERO PUSH3 0x21B JUMPI POP SWAP1 PUSH3 0x217 SWAP2 MLOAD SWAP4 DUP5 SWAP4 AND DUP4 PUSH3 0x54C JUMP JUMPDEST PUSH4 0x636A157 PUSH1 0xE1 SHL DUP2 MSTORE DUP13 SWAP1 REVERT JUMPDEST DUP14 DUP1 REVERT JUMPDEST DUP13 DUP1 REVERT JUMPDEST DUP11 DUP1 REVERT JUMPDEST PUSH1 0x4 CALLDATALOAD SWAP1 PUSH1 0x1 PUSH1 0x1 PUSH1 0xA0 SHL SUB DUP3 AND DUP3 SUB PUSH3 0x4AB JUMPI JUMP JUMPDEST PUSH1 0x0 DUP1 REVERT JUMPDEST PUSH1 0x24 CALLDATALOAD SWAP1 PUSH1 0x1 PUSH1 0x1 PUSH1 0xA0 SHL SUB DUP3 AND DUP3 SUB PUSH3 0x4AB JUMPI JUMP JUMPDEST PUSH1 0x44 CALLDATALOAD SWAP1 PUSH1 0x1 PUSH1 0x1 PUSH1 0xA0 SHL SUB DUP3 AND DUP3 SUB PUSH3 0x4AB JUMPI JUMP JUMPDEST PUSH2 0x124 CALLDATALOAD SWAP1 PUSH1 0x1 PUSH1 0x1 PUSH1 0xA0 SHL SUB DUP3 AND DUP3 SUB PUSH3 0x4AB JUMPI JUMP JUMPDEST PUSH1 0x64 CALLDATALOAD SWAP1 PUSH1 0xFF DUP3 AND DUP3 SUB PUSH3 0x4AB JUMPI JUMP JUMPDEST PUSH1 0x84 CALLDATALOAD SWAP1 PUSH1 0xFF DUP3 AND DUP3 SUB PUSH3 0x4AB JUMPI JUMP JUMPDEST SWAP2 DUP2 PUSH1 0x1F DUP5 ADD SLT ISZERO PUSH3 0x4AB JUMPI DUP3 CALLDATALOAD SWAP2 PUSH8 0xFFFFFFFFFFFFFFFF DUP4 GT PUSH3 0x4AB JUMPI PUSH1 0x20 DUP1 DUP6 ADD SWAP5 DUP5 PUSH1 0x5 SHL ADD ADD GT PUSH3 0x4AB JUMPI JUMP JUMPDEST PUSH1 0x1 PUSH1 0x1 PUSH1 0xA0 SHL SUB SWAP2 DUP3 AND DUP2 MSTORE PUSH1 0x40 PUSH1 0x20 DUP1 DUP4 ADD DUP3 SWAP1 MSTORE DUP5 MLOAD SWAP2 DUP4 ADD DUP3 SWAP1 MSTORE PUSH1 0x60 SWAP1 SWAP3 ADD SWAP4 DUP3 ADD SWAP2 PUSH1 0x0 JUMPDEST DUP3 DUP2 LT PUSH3 0x587 JUMPI POP POP POP POP POP SWAP1 JUMP JUMPDEST DUP4 MLOAD DUP6 AND DUP7 MSTORE SWAP5 DUP2 ADD SWAP5 SWAP3 DUP2 ADD SWAP3 PUSH1 0x1 ADD PUSH3 0x577 JUMP JUMPDEST PUSH8 0xFFFFFFFFFFFFFFFF DUP2 GT PUSH3 0x5B7 JUMPI PUSH1 0x5 SHL PUSH1 0x20 ADD SWAP1 JUMP JUMPDEST PUSH4 0x4E487B71 PUSH1 0xE0 SHL PUSH1 0x0 MSTORE PUSH1 0x41 PUSH1 0x4 MSTORE PUSH1 0x24 PUSH1 0x0 REVERT JUMPDEST SWAP2 SWAP1 DUP2 LT ISZERO PUSH3 0x613 JUMPI PUSH1 0x5 SHL DUP2 ADD CALLDATALOAD SWAP1 PUSH1 0x1E NOT DUP2 CALLDATASIZE SUB ADD DUP3 SLT ISZERO PUSH3 0x4AB JUMPI ADD SWAP1 DUP2 CALLDATALOAD SWAP2 PUSH8 0xFFFFFFFFFFFFFFFF DUP4 GT PUSH3 0x4AB JUMPI PUSH1 0x20 ADD DUP3 CALLDATASIZE SUB DUP2 SGT PUSH3 0x4AB JUMPI SWAP2 SWAP1 JUMP JUMPDEST PUSH4 0x4E487B71 PUSH1 0xE0 SHL PUSH1 0x0 MSTORE PUSH1 0x32 PUSH1 0x4 MSTORE PUSH1 0x24 PUSH1 0x0 REVERT JUMPDEST SWAP3 SWAP2 SWAP3 PUSH3 0x637 DUP3 PUSH3 0x59E JUMP JUMPDEST SWAP2 PUSH1 0x40 SWAP3 DUP4 MLOAD SWAP2 PUSH1 0x1F NOT DUP1 PUSH1 0x1F DUP1 SWAP5 ADD AND DUP5 ADD SWAP1 PUSH8 0xFFFFFFFFFFFFFFFF SWAP2 DUP6 DUP2 LT DUP4 DUP3 GT OR PUSH3 0x5B7 JUMPI DUP8 MSTORE DUP3 DUP6 MSTORE PUSH3 0x671 DUP4 PUSH3 0x59E JUMP JUMPDEST SWAP4 DUP2 PUSH1 0x20 SWAP6 ADD CALLDATASIZE PUSH1 0x20 DUP9 ADD CALLDATACOPY DUP6 SWAP10 PUSH1 0x0 PUSH2 0xE61 PUSH3 0x42E4 SWAP6 PUSH1 0x1 DUP1 PUSH1 0xA0 SHL SUB SWAP8 DUP9 PUSH32 0x0 AND SWAP4 JUMPDEST DUP2 DUP2 LT PUSH3 0x6CE JUMPI POP POP POP POP POP POP POP POP POP POP POP POP POP POP JUMP JUMPDEST PUSH3 0x6DB DUP2 DUP4 DUP16 PUSH3 0x5CD JUMP JUMPDEST SWAP1 POP ISZERO PUSH3 0x799 JUMPI DUP14 PUSH3 0x6F2 DUP3 DUP16 DUP6 SWAP1 PUSH3 0x5CD JUMP JUMPDEST SWAP1 SWAP2 DUP1 MLOAD SWAP3 DUP8 DUP5 ADD SWAP1 DUP5 DUP3 LT DUP9 DUP4 GT OR PUSH3 0x5B7 JUMPI DUP16 SWAP2 PUSH1 0x60 SWAP1 DUP16 SWAP5 DUP16 DUP16 DUP16 SWAP1 DUP16 SWAP7 DUP16 SWAP4 PUSH1 0x3 SWAP3 PUSH1 0xE0 SWAP13 PUSH1 0xFF SWAP7 DUP16 SWAP14 DUP15 CODECOPY DUP1 PUSH1 0x80 DUP1 DUP12 MSTORE DUP11 ADD MSTORE DUP1 PUSH1 0xA0 SWAP5 DUP6 DUP12 ADD CALLDATACOPY PUSH1 0x0 DUP5 DUP3 DUP12 ADD ADD MSTORE ADD AND DUP7 ADD SWAP9 DUP2 DUP8 DUP12 SUB ADD SWAP1 DUP8 ADD MSTORE DUP9 ADD MSTORE PUSH3 0x13D555 PUSH1 0xEA SHL PUSH1 0xC0 DUP9 ADD MSTORE AND SWAP1 DUP3 ADD MSTORE ADD MSTORE SUB ADD SWAP1 PUSH1 0x0 CREATE SWAP1 DUP2 ISZERO PUSH3 0x78E JUMPI DUP13 MLOAD DUP2 LT ISZERO PUSH3 0x613 JUMPI DUP13 DUP13 DUP13 PUSH1 0x1 SWAP5 AND SWAP2 DUP4 PUSH1 0x5 SHL ADD ADD MSTORE ADD PUSH3 0x6B6 JUMP JUMPDEST DUP15 MLOAD RETURNDATASIZE PUSH1 0x0 DUP3 RETURNDATACOPY RETURNDATASIZE SWAP1 REVERT JUMPDEST DUP14 MLOAD PUSH4 0xCCCF65F5 PUSH1 0xE0 SHL DUP2 MSTORE PUSH1 0x4 SWAP1 REVERT INVALID CALLVALUE PUSH3 0x8B1 JUMPI PUSH3 0x3B39 CODESIZE DUP2 SWAP1 SUB PUSH2 0x3C0 PUSH1 0x1F DUP3 ADD PUSH1 0x1F NOT AND DUP2 ADD SWAP1 PUSH1 0x1 PUSH1 0x1 PUSH1 0x40 SHL SUB DUP3 GT SWAP1 DUP3 LT OR PUSH3 0x8B6 JUMPI PUSH2 0x2C0 SWAP3 DUP3 SWAP2 PUSH1 0x40 MSTORE PUSH2 0x3C0 CODECOPY SLT PUSH3 0x8B1 JUMPI PUSH3 0x4E PUSH2 0x3C0 PUSH3 0x8CC JUMP JUMPDEST PUSH3 0x5B PUSH2 0x3E0 PUSH3 0x8CC JUMP JUMPDEST PUSH2 0x3A0 MSTORE PUSH3 0x6C PUSH2 0x400 PUSH3 0x8CC JUMP JUMPDEST PUSH3 0x79 PUSH2 0x420 PUSH3 0x8CC JUMP JUMPDEST SWAP1 PUSH3 0x87 PUSH2 0x440 PUSH3 0x8E1 JUMP JUMPDEST SWAP2 PUSH3 0x95 PUSH2 0x460 PUSH3 0x8E1 JUMP JUMPDEST PUSH2 0x480 MLOAD PUSH2 0x4A0 MLOAD PUSH2 0x4C0 MLOAD PUSH2 0x4E0 MLOAD SWAP2 SWAP7 SWAP4 SWAP3 SWAP2 SWAP1 PUSH1 0x2 DUP3 LT ISZERO PUSH3 0x8B1 JUMPI PUSH2 0x500 MLOAD SWAP1 PUSH3 0xC7 PUSH2 0x520 PUSH3 0x8CC JUMP JUMPDEST PUSH2 0x540 MLOAD PUSH2 0x320 MSTORE PUSH2 0x560 MLOAD PUSH2 0x340 DUP2 SWAP1 MSTORE SWAP1 SWAP10 SWAP1 PUSH1 0x3 GT ISZERO PUSH3 0x8B1 JUMPI PUSH2 0x580 MLOAD PUSH2 0x360 MSTORE PUSH2 0x5A0 MLOAD PUSH2 0x380 MSTORE PUSH3 0x102 PUSH2 0x5C0 PUSH3 0x8CC JUMP JUMPDEST PUSH2 0x5E0 MLOAD PUSH2 0x600 MLOAD SWAP9 SWAP1 SWAP8 SWAP2 SWAP7 SWAP2 SWAP1 PUSH1 0x1 PUSH1 0x1 PUSH1 0x40 SHL SUB DUP11 AND DUP11 SUB PUSH3 0x8B1 JUMPI PUSH2 0x620 MLOAD SWAP11 PUSH3 0x134 PUSH2 0x640 PUSH3 0x8CC JUMP JUMPDEST SWAP13 PUSH2 0x2A0 PUSH2 0x3C0 ADD MLOAD SWAP16 PUSH1 0x1 DUP1 PUSH1 0xA0 SHL SUB PUSH2 0x3A0 MLOAD AND ISZERO PUSH3 0x898 JUMPI PUSH1 0x1 DUP1 SLOAD PUSH1 0x1 PUSH1 0x1 PUSH1 0xA0 SHL SUB NOT SWAP1 DUP2 AND SWAP1 SWAP2 SSTORE PUSH1 0x0 DUP1 SLOAD PUSH2 0x3A0 MLOAD PUSH1 0x1 PUSH1 0x1 PUSH1 0xA0 SHL SUB SWAP1 DUP2 AND SWAP4 DUP3 AND DUP5 OR DUP4 SSTORE PUSH1 0x40 MLOAD SWAP4 SWAP3 SWAP2 AND SWAP1 PUSH32 0x8BE0079C531659141344CD1FD0A4F28419497F9722A3DAAFE3B4186F6B6457E0 SWAP1 DUP1 LOG3 PUSH1 0x1 PUSH32 0x9B779B17422D0DF92223018B32B4D1FA46E071723D6817E2486D003BECC55F00 SSTORE PUSH1 0x1 PUSH1 0x1 PUSH1 0xA0 SHL SUB DUP3 AND ISZERO ISZERO DUP1 PUSH3 0x88F JUMPI JUMPDEST DUP1 PUSH3 0x87C JUMPI JUMPDEST ISZERO PUSH3 0x84B JUMPI POP PUSH1 0xFF DUP6 AND PUSH1 0x2 DUP2 LT ISZERO SWAP1 DUP2 PUSH3 0x83E JUMPI JUMPDEST POP ISZERO PUSH3 0x808 JUMPI DUP6 ISZERO PUSH3 0x7D1 JUMPI TIMESTAMP DUP8 GT ISZERO PUSH3 0x79B JUMPI DUP7 DUP9 GT ISZERO PUSH3 0x766 JUMPI DUP9 ISZERO PUSH3 0x736 JUMPI PUSH1 0x1 PUSH1 0x1 PUSH1 0xA0 SHL SUB DUP4 AND ISZERO PUSH3 0x6F7 JUMPI JUMPDEST PUSH1 0x80 MSTORE PUSH1 0xA0 MSTORE PUSH1 0xC0 MSTORE PUSH1 0xE0 MSTORE PUSH2 0x100 MSTORE PUSH2 0x120 MSTORE PUSH2 0x140 MSTORE PUSH2 0x160 MSTORE DUP2 PUSH2 0x180 MSTORE PUSH2 0x1A0 MSTORE ISZERO PUSH1 0x0 EQ PUSH3 0x5BB JUMPI POP POP POP POP PUSH1 0x1 PUSH1 0x1 PUSH1 0xA0 SHL SUB DUP3 AND ISZERO SWAP1 POP PUSH3 0x590 JUMPI PUSH2 0x380 MLOAD ISZERO PUSH3 0x55F JUMPI PUSH1 0x2 PUSH2 0x340 MLOAD EQ PUSH3 0x51D JUMPI JUMPDEST PUSH2 0x1C0 MSTORE PUSH2 0x320 MLOAD PUSH2 0x1E0 MSTORE PUSH2 0x340 MLOAD PUSH2 0x200 MSTORE PUSH2 0x360 MLOAD PUSH2 0x220 MSTORE PUSH2 0x380 MLOAD PUSH2 0x240 MSTORE PUSH1 0x0 PUSH2 0x260 MSTORE PUSH1 0x0 PUSH2 0x280 MSTORE PUSH1 0x0 PUSH2 0x2A0 MSTORE PUSH1 0x0 PUSH2 0x2C0 MSTORE PUSH1 0x0 PUSH2 0x2E0 MSTORE JUMPDEST PUSH2 0x300 MSTORE PUSH1 0x0 NOT PUSH1 0x9 SSTORE PUSH1 0x40 MLOAD PUSH2 0x3248 PUSH3 0x8F1 DUP3 CODECOPY PUSH1 0x80 MLOAD DUP2 DUP2 DUP2 PUSH2 0xE40 ADD MSTORE PUSH2 0x1AC8 ADD MSTORE PUSH1 0xA0 MLOAD DUP2 DUP2 DUP2 PUSH2 0x19FA ADD MSTORE DUP2 DUP2 PUSH2 0x2E28 ADD MSTORE DUP2 DUP2 PUSH2 0x2E77 ADD MSTORE PUSH2 0x2EAC ADD MSTORE PUSH1 0xC0 MLOAD DUP2 DUP2 DUP2 PUSH2 0x476 ADD MSTORE DUP2 DUP2 PUSH2 0x1482 ADD MSTORE DUP2 DUP2 PUSH2 0x19B5 ADD MSTORE PUSH2 0x30C8 ADD MSTORE PUSH1 0xE0 MLOAD DUP2 PUSH2 0xBB8 ADD MSTORE PUSH2 0x100 MLOAD DUP2 DUP2 DUP2 PUSH2 0x3F4 ADD MSTORE DUP2 DUP2 PUSH2 0x41D ADD MSTORE DUP2 DUP2 PUSH2 0x44C ADD MSTORE DUP2 DUP2 PUSH2 0x4CB ADD MSTORE DUP2 DUP2 PUSH2 0xEEF ADD MSTORE DUP2 DUP2 PUSH2 0x11EE ADD MSTORE DUP2 DUP2 PUSH2 0x1446 ADD MSTORE DUP2 DUP2 PUSH2 0x1B05 ADD MSTORE DUP2 DUP2 PUSH2 0x1E03 ADD MSTORE DUP2 DUP2 PUSH2 0x1F32 ADD MSTORE DUP2 DUP2 PUSH2 0x1F65 ADD MSTORE DUP2 DUP2 PUSH2 0x2953 ADD MSTORE DUP2 DUP2 PUSH2 0x2A8C ADD MSTORE DUP2 DUP2 PUSH2 0x2C76 ADD MSTORE PUSH2 0x2F4A ADD MSTORE PUSH2 0x120 MLOAD DUP2 DUP2 DUP2 PUSH2 0x1248 ADD MSTORE PUSH2 0x2986 ADD MSTORE PUSH2 0x140 MLOAD DUP2 DUP2 DUP2 PUSH2 0x39D ADD MSTORE DUP2 DUP2 PUSH2 0x1417 ADD MSTORE PUSH2 0x182E ADD MSTORE PUSH2 0x160 MLOAD DUP2 DUP2 DUP2 PUSH2 0x847 ADD MSTORE DUP2 DUP2 PUSH2 0x21B6 ADD MSTORE PUSH2 0x251E ADD MSTORE PUSH2 0x180 MLOAD DUP2 DUP2 DUP2 PUSH2 0x800 ADD MSTORE DUP2 DUP2 PUSH2 0x1138 ADD MSTORE DUP2 DUP2 PUSH2 0x1752 ADD MSTORE DUP2 DUP2 PUSH2 0x1878 ADD MSTORE DUP2 DUP2 PUSH2 0x1B43 ADD MSTORE DUP2 DUP2 PUSH2 0x1B6A ADD MSTORE DUP2 DUP2 PUSH2 0x1B97 ADD MSTORE PUSH2 0x2176 ADD MSTORE PUSH2 0x1A0 MLOAD DUP2 PUSH2 0xE07 ADD MSTORE PUSH2 0x1C0 MLOAD DUP2 DUP2 DUP2 PUSH2 0x1281 ADD MSTORE PUSH2 0x21EB ADD MSTORE PUSH2 0x1E0 MLOAD DUP2 DUP2 DUP2 PUSH2 0xD73 ADD MSTORE DUP2 DUP2 PUSH2 0x2AF2 ADD MSTORE DUP2 DUP2 PUSH2 0x2B36 ADD MSTORE PUSH2 0x2B5E ADD MSTORE PUSH2 0x200 MLOAD DUP2 DUP2 DUP2 PUSH2 0xC55 ADD MSTORE PUSH2 0x2AC2 ADD MSTORE PUSH2 0x220 MLOAD DUP2 DUP2 DUP2 PUSH2 0x104C ADD MSTORE PUSH2 0x2B91 ADD MSTORE PUSH2 0x240 MLOAD DUP2 DUP2 DUP2 PUSH2 0xDCC ADD MSTORE PUSH2 0x2240 ADD MSTORE PUSH2 0x260 MLOAD DUP2 DUP2 DUP2 PUSH2 0x92C ADD MSTORE DUP2 DUP2 PUSH2 0xA28 ADD MSTORE DUP2 DUP2 PUSH2 0x1921 ADD MSTORE PUSH2 0x2481 ADD MSTORE PUSH2 0x280 MLOAD DUP2 DUP2 DUP2 PUSH2 0x8AE ADD MSTORE DUP2 DUP2 PUSH2 0x1087 ADD MSTORE PUSH2 0x18E2 ADD MSTORE PUSH2 0x2A0 MLOAD DUP2 PUSH2 0x11B0 ADD MSTORE PUSH2 0x2C0 MLOAD DUP2 DUP2 DUP2 PUSH2 0x87A ADD MSTORE PUSH2 0x16AF ADD MSTORE PUSH2 0x2E0 MLOAD DUP2 DUP2 DUP2 PUSH2 0x8FD ADD MSTORE DUP2 DUP2 PUSH2 0xA05 ADD MSTORE DUP2 DUP2 PUSH2 0x178E ADD MSTORE PUSH2 0x211E ADD MSTORE PUSH2 0x300 MLOAD DUP2 DUP2 DUP2 PUSH2 0x284 ADD MSTORE PUSH2 0x757 ADD MSTORE PUSH2 0x3248 SWAP1 RETURN JUMPDEST PUSH2 0x360 MLOAD PUSH2 0x320 MLOAD LT PUSH3 0x292 JUMPI PUSH1 0x40 MLOAD PUSH3 0x461BCD PUSH1 0xE5 SHL DUP2 MSTORE PUSH1 0x20 PUSH1 0x4 DUP3 ADD MSTORE PUSH1 0xC PUSH1 0x24 DUP3 ADD MSTORE PUSH12 0x52616E676520626F756E6473 PUSH1 0xA0 SHL PUSH1 0x44 DUP3 ADD MSTORE PUSH1 0x64 SWAP1 REVERT JUMPDEST PUSH1 0x40 MLOAD PUSH3 0x461BCD PUSH1 0xE5 SHL DUP2 MSTORE PUSH1 0x20 PUSH1 0x4 DUP3 ADD MSTORE PUSH1 0x9 PUSH1 0x24 DUP3 ADD MSTORE PUSH9 0x5374616C656E657373 PUSH1 0xB8 SHL PUSH1 0x44 DUP3 ADD MSTORE PUSH1 0x64 SWAP1 REVERT JUMPDEST PUSH1 0x64 PUSH1 0x40 MLOAD PUSH3 0x461BCD PUSH1 0xE5 SHL DUP2 MSTORE PUSH1 0x20 PUSH1 0x4 DUP3 ADD MSTORE PUSH1 0x4 PUSH1 0x24 DUP3 ADD MSTORE PUSH4 0x11995959 PUSH1 0xE2 SHL PUSH1 0x44 DUP3 ADD MSTORE REVERT JUMPDEST SWAP4 SWAP5 POP SWAP2 SWAP3 SWAP1 SWAP2 SWAP1 PUSH1 0x1 PUSH1 0x1 PUSH1 0xA0 SHL SUB DUP2 AND ISZERO PUSH3 0x6CC JUMPI DUP2 ISZERO PUSH3 0x69E JUMPI PUSH1 0x1 PUSH1 0x1 PUSH1 0x40 SHL SUB DUP4 AND ISZERO PUSH3 0x66E JUMPI PUSH1 0x1 PUSH1 0x1 PUSH1 0xA0 SHL SUB DUP6 AND ISZERO PUSH3 0x63A JUMPI PUSH1 0x0 PUSH2 0x1C0 MSTORE PUSH1 0x0 PUSH2 0x1E0 MSTORE PUSH1 0x0 PUSH2 0x200 MSTORE PUSH1 0x0 PUSH2 0x220 MSTORE PUSH1 0x0 PUSH2 0x240 MSTORE PUSH1 0x1 DUP1 PUSH1 0xA0 SHL SUB AND PUSH2 0x260 MSTORE PUSH2 0x280 MSTORE PUSH2 0x2A0 MSTORE PUSH2 0x2C0 MSTORE PUSH2 0x2E0 MSTORE PUSH3 0x2D5 JUMP JUMPDEST PUSH1 0x40 MLOAD PUSH3 0x461BCD PUSH1 0xE5 SHL DUP2 MSTORE PUSH1 0x20 PUSH1 0x4 DUP3 ADD MSTORE PUSH1 0xC PUSH1 0x24 DUP3 ADD MSTORE PUSH12 0x554D412063757272656E6379 PUSH1 0xA0 SHL PUSH1 0x44 DUP3 ADD MSTORE PUSH1 0x64 SWAP1 REVERT JUMPDEST PUSH1 0x40 MLOAD PUSH3 0x461BCD PUSH1 0xE5 SHL DUP2 MSTORE PUSH1 0x20 PUSH1 0x4 DUP3 ADD MSTORE PUSH1 0x8 PUSH1 0x24 DUP3 ADD MSTORE PUSH8 0x4C6976656E657373 PUSH1 0xC0 SHL PUSH1 0x44 DUP3 ADD MSTORE PUSH1 0x64 SWAP1 REVERT JUMPDEST PUSH1 0x40 MLOAD PUSH3 0x461BCD PUSH1 0xE5 SHL DUP2 MSTORE PUSH1 0x20 PUSH1 0x4 DUP3 ADD MSTORE PUSH1 0x6 PUSH1 0x24 DUP3 ADD MSTORE PUSH6 0x155350481A59 PUSH1 0xD2 SHL PUSH1 0x44 DUP3 ADD MSTORE PUSH1 0x64 SWAP1 REVERT JUMPDEST PUSH1 0x64 PUSH1 0x40 MLOAD PUSH3 0x461BCD PUSH1 0xE5 SHL DUP2 MSTORE PUSH1 0x20 PUSH1 0x4 DUP3 ADD MSTORE PUSH1 0x4 PUSH1 0x24 DUP3 ADD MSTORE PUSH4 0x27A7BB19 PUSH1 0xE1 SHL PUSH1 0x44 DUP3 ADD MSTORE REVERT JUMPDEST PUSH1 0x12 PUSH1 0xFF DUP6 AND SUB ISZERO PUSH3 0x237 JUMPI PUSH1 0x40 MLOAD PUSH3 0x461BCD PUSH1 0xE5 SHL DUP2 MSTORE PUSH1 0x20 PUSH1 0x4 DUP3 ADD MSTORE PUSH1 0xA PUSH1 0x24 DUP3 ADD MSTORE PUSH10 0x45544820313820646563 PUSH1 0xB0 SHL PUSH1 0x44 DUP3 ADD MSTORE PUSH1 0x64 SWAP1 REVERT JUMPDEST PUSH1 0x40 MLOAD PUSH3 0x461BCD PUSH1 0xE5 SHL DUP2 MSTORE PUSH1 0x20 PUSH1 0x4 DUP3 ADD MSTORE PUSH1 0x8 PUSH1 0x24 DUP3 ADD MSTORE PUSH8 0x4D65746164617461 PUSH1 0xC0 SHL PUSH1 0x44 DUP3 ADD MSTORE PUSH1 0x64 SWAP1 REVERT JUMPDEST PUSH1 0x40 MLOAD PUSH3 0x461BCD PUSH1 0xE5 SHL DUP2 MSTORE PUSH1 0x20 PUSH1 0x4 DUP3 ADD MSTORE PUSH1 0xD PUSH1 0x24 DUP3 ADD MSTORE PUSH13 0x2932B9B7B63B329037B93232B9 PUSH1 0x99 SHL PUSH1 0x44 DUP3 ADD MSTORE PUSH1 0x64 SWAP1 REVERT JUMPDEST PUSH1 0x40 MLOAD PUSH3 0x461BCD PUSH1 0xE5 SHL DUP2 MSTORE PUSH1 0x20 PUSH1 0x4 DUP3 ADD MSTORE PUSH1 0xE PUSH1 0x24 DUP3 ADD MSTORE PUSH14 0x14DD185AD948195B99081C185CDD PUSH1 0x92 SHL PUSH1 0x44 DUP3 ADD MSTORE PUSH1 0x64 SWAP1 REVERT JUMPDEST PUSH1 0x40 MLOAD PUSH3 0x461BCD PUSH1 0xE5 SHL DUP2 MSTORE PUSH1 0x20 PUSH1 0x4 DUP3 ADD MSTORE PUSH1 0xF PUSH1 0x24 DUP3 ADD MSTORE PUSH15 0x5669727475616C2072657365727665 PUSH1 0x88 SHL PUSH1 0x44 DUP3 ADD MSTORE PUSH1 0x64 SWAP1 REVERT JUMPDEST PUSH1 0x40 MLOAD PUSH3 0x461BCD PUSH1 0xE5 SHL DUP2 MSTORE PUSH1 0x20 PUSH1 0x4 DUP3 ADD MSTORE PUSH1 0xE PUSH1 0x24 DUP3 ADD MSTORE PUSH14 0x4F7574636F6D65732072616E6765 PUSH1 0x90 SHL PUSH1 0x44 DUP3 ADD MSTORE PUSH1 0x64 SWAP1 REVERT JUMPDEST PUSH1 0x20 SWAP2 POP GT ISZERO CODESIZE PUSH3 0x1FF JUMP JUMPDEST PUSH3 0x461BCD PUSH1 0xE5 SHL DUP2 MSTORE PUSH1 0x20 PUSH1 0x4 DUP3 ADD MSTORE PUSH1 0xC PUSH1 0x24 DUP3 ADD MSTORE PUSH12 0x5A65726F2061646472657373 PUSH1 0xA0 SHL PUSH1 0x44 DUP3 ADD MSTORE PUSH1 0x64 SWAP1 REVERT JUMPDEST POP PUSH1 0x1 PUSH1 0x1 PUSH1 0xA0 SHL SUB DUP4 AND ISZERO ISZERO PUSH3 0x1E7 JUMP JUMPDEST POP PUSH1 0x1 PUSH3 0x1E0 JUMP JUMPDEST PUSH1 0x40 MLOAD PUSH4 0x1E4FBDF7 PUSH1 0xE0 SHL DUP2 MSTORE PUSH1 0x0 PUSH1 0x4 DUP3 ADD MSTORE PUSH1 0x24 SWAP1 REVERT JUMPDEST PUSH1 0x0 DUP1 REVERT JUMPDEST PUSH4 0x4E487B71 PUSH1 0xE0 SHL PUSH1 0x0 MSTORE PUSH1 0x41 PUSH1 0x4 MSTORE PUSH1 0x24 PUSH1 0x0 REVERT JUMPDEST MLOAD SWAP1 PUSH1 0x1 PUSH1 0x1 PUSH1 0xA0 SHL SUB DUP3 AND DUP3 SUB PUSH3 0x8B1 JUMPI JUMP JUMPDEST MLOAD SWAP1 PUSH1 0xFF DUP3 AND DUP3 SUB PUSH3 0x8B1 JUMPI JUMP INVALID PUSH1 0x80 DUP1 PUSH1 0x40 MSTORE PUSH1 0x4 CALLDATASIZE LT ISZERO PUSH2 0x1D JUMPI JUMPDEST POP CALLDATASIZE ISZERO PUSH2 0x1B JUMPI PUSH1 0x0 DUP1 REVERT JUMPDEST STOP JUMPDEST PUSH1 0x0 SWAP1 DUP2 CALLDATALOAD PUSH1 0xE0 SHR SWAP1 DUP2 PUSH4 0x6FDCCC7 EQ PUSH2 0x2507 JUMPI POP DUP1 PUSH4 0x8460328 EQ PUSH2 0x24EA JUMPI DUP1 PUSH4 0xC7BD33B EQ PUSH2 0x24B0 JUMPI DUP1 PUSH4 0xD2AF8D3 EQ PUSH2 0x246B JUMPI DUP1 PUSH4 0x116A343A EQ PUSH2 0x2440 JUMPI DUP1 PUSH4 0x1448D312 EQ PUSH2 0x2424 JUMPI DUP1 PUSH4 0x158EF93E EQ PUSH2 0x2401 JUMPI DUP1 PUSH4 0x2567D7D6 EQ PUSH2 0x214D JUMPI DUP1 PUSH4 0x2C4C5E50 EQ PUSH2 0x2108 JUMPI DUP1 PUSH4 0x35142C8C EQ PUSH2 0x20E2 JUMPI DUP1 PUSH4 0x3BFDBBC9 EQ PUSH2 0x1A29 JUMPI DUP1 PUSH4 0x46904840 EQ PUSH2 0x19E4 JUMPI DUP1 PUSH4 0x48D399E7 EQ PUSH2 0x199F JUMPI DUP1 PUSH4 0x493DCAE1 EQ PUSH2 0x1851 JUMPI DUP1 PUSH4 0x4B841D24 EQ PUSH2 0x1816 JUMPI DUP1 PUSH4 0x4F12A39F EQ PUSH2 0x1728 JUMPI DUP1 PUSH4 0x540385A3 EQ PUSH2 0x170A JUMPI DUP1 PUSH4 0x55C1ABE9 EQ PUSH2 0x16D2 JUMPI DUP1 PUSH4 0x67BD151E EQ PUSH2 0x1697 JUMPI DUP1 PUSH4 0x698B0676 EQ PUSH2 0x13BE JUMPI DUP1 PUSH4 0x715018A6 EQ PUSH2 0x1358 JUMPI DUP1 PUSH4 0x79BA5097 EQ PUSH2 0x12CE JUMPI DUP1 PUSH4 0x7D4035C5 EQ PUSH2 0x12B0 JUMPI DUP1 PUSH4 0x7DBDF1F5 EQ PUSH2 0x126B JUMPI DUP1 PUSH4 0x80C08A5D EQ PUSH2 0x1230 JUMPI DUP1 PUSH4 0x8192A437 EQ PUSH2 0x1212 JUMPI DUP1 PUSH4 0x8767D64E EQ PUSH2 0x11D4 JUMPI DUP1 PUSH4 0x8D56AA3E EQ PUSH2 0x118F JUMPI DUP1 PUSH4 0x8DA5CB5B EQ PUSH2 0x1168 JUMPI DUP1 PUSH4 0x8E8DAA7C EQ PUSH2 0x1122 JUMPI DUP1 PUSH4 0x912397C3 EQ PUSH2 0x10F6 JUMPI DUP1 PUSH4 0x9228C39B EQ PUSH2 0x10CD JUMPI DUP1 PUSH4 0xA2FFBE8E EQ PUSH2 0x10AA JUMPI DUP1 PUSH4 0xA5DC90F2 EQ PUSH2 0x106F JUMPI DUP1 PUSH4 0xB9728219 EQ PUSH2 0x1034 JUMPI DUP1 PUSH4 0xBB482F96 EQ PUSH2 0xE98 JUMPI DUP1 PUSH4 0xC19D93FB EQ PUSH2 0xE6F JUMPI DUP1 PUSH4 0xC45A0155 EQ PUSH2 0xE2A JUMPI DUP1 PUSH4 0xC5A1D7F0 EQ PUSH2 0xDEF JUMPI DUP1 PUSH4 0xC80D36B8 EQ PUSH2 0xDB4 JUMPI DUP1 PUSH4 0xCA455047 EQ PUSH2 0xD96 JUMPI DUP1 PUSH4 0xCC2F6093 EQ PUSH2 0xD5B JUMPI DUP1 PUSH4 0xD6ADC9EC EQ PUSH2 0xC85 JUMPI DUP1 PUSH4 0xD7F59F5B EQ PUSH2 0xC40 JUMPI DUP1 PUSH4 0xE1A45218 EQ PUSH2 0xC23 JUMPI DUP1 PUSH4 0xE30C3978 EQ PUSH2 0xBFA JUMPI DUP1 PUSH4 0xE3EECC6F EQ PUSH2 0xBDC JUMPI DUP1 PUSH4 0xEC9C6C30 EQ PUSH2 0xB9E JUMPI DUP1 PUSH4 0xEE879258 EQ PUSH2 0x7D9 JUMPI DUP1 PUSH4 0xF0D677D7 EQ PUSH2 0x354 JUMPI DUP1 PUSH4 0xF11D7BDF EQ PUSH2 0x31B JUMPI DUP1 PUSH4 0xF2FDE38B EQ PUSH2 0x2AA JUMPI PUSH4 0xFF3BB37E SUB PUSH2 0xF JUMPI CALLVALUE PUSH2 0x2A7 JUMPI DUP1 PUSH1 0x3 NOT CALLDATASIZE ADD SLT PUSH2 0x2A7 JUMPI PUSH1 0x20 PUSH1 0x40 MLOAD PUSH32 0x0 DUP2 MSTORE RETURN JUMPDEST DUP1 REVERT JUMPDEST POP CALLVALUE PUSH2 0x2A7 JUMPI PUSH1 0x20 CALLDATASIZE PUSH1 0x3 NOT ADD SLT PUSH2 0x2A7 JUMPI PUSH1 0x4 CALLDATALOAD PUSH1 0x1 PUSH1 0x1 PUSH1 0xA0 SHL SUB DUP2 DUP2 AND SWAP2 DUP3 SWAP1 SUB PUSH2 0x316 JUMPI PUSH2 0x2DA PUSH2 0x30A9 JUMP JUMPDEST PUSH1 0x1 DUP1 SLOAD PUSH1 0x1 PUSH1 0x1 PUSH1 0xA0 SHL SUB NOT AND DUP4 OR SWAP1 SSTORE DUP3 SLOAD AND PUSH32 0x38D16B8CAC22D99FC7C124B9CD0DE2D3FA1FAEF420BFE791D8C362D765E22700 DUP4 DUP1 LOG3 DUP1 RETURN JUMPDEST PUSH1 0x0 DUP1 REVERT JUMPDEST POP CALLVALUE PUSH2 0x2A7 JUMPI PUSH1 0x20 CALLDATASIZE PUSH1 0x3 NOT ADD SLT PUSH2 0x2A7 JUMPI PUSH1 0x4 CALLDATALOAD SWAP1 PUSH1 0x5 SLOAD DUP3 LT ISZERO PUSH2 0x2A7 JUMPI PUSH1 0x20 PUSH2 0x346 DUP4 PUSH2 0x25FC JUMP JUMPDEST SWAP1 SLOAD PUSH1 0x40 MLOAD SWAP2 PUSH1 0x3 SHL SHR DUP2 MSTORE RETURN JUMPDEST POP PUSH1 0x40 CALLDATASIZE PUSH1 0x3 NOT ADD SLT PUSH2 0x2A7 JUMPI PUSH1 0x24 CALLDATALOAD PUSH1 0x1 PUSH1 0x1 PUSH1 0xA0 SHL SUB DUP2 AND SWAP1 SUB PUSH2 0x316 JUMPI PUSH2 0x37C PUSH2 0x2A53 JUMP JUMPDEST PUSH1 0x6 SLOAD PUSH1 0xFF DUP2 AND ISZERO PUSH2 0x7C7 JUMPI PUSH1 0x8 SHR PUSH1 0xFF AND PUSH2 0x397 DUP2 PUSH2 0x2674 JUMP JUMPDEST PUSH2 0x7B5 JUMPI PUSH32 0x0 TIMESTAMP LT ISZERO PUSH2 0x7A3 JUMPI PUSH1 0xFF PUSH1 0xD SLOAD PUSH1 0xA0 SHR AND PUSH2 0x791 JUMPI PUSH1 0x24 CALLDATALOAD PUSH1 0x1 PUSH1 0x1 PUSH1 0xA0 SHL SUB AND ISZERO PUSH2 0x77F JUMPI PUSH1 0x4 CALLDATALOAD ISZERO DUP1 ISZERO PUSH2 0x754 JUMPI JUMPDEST PUSH2 0x742 JUMPI PUSH1 0xFF PUSH32 0x0 AND ISZERO PUSH2 0x72E JUMPI PUSH1 0xFF PUSH32 0x0 AND PUSH1 0x4 CALLDATALOAD MOD PUSH2 0x71C JUMPI PUSH2 0x474 PUSH1 0xFF PUSH32 0x0 AND PUSH1 0x4 CALLDATALOAD PUSH2 0x27B8 JUMP JUMPDEST PUSH32 0x0 PUSH1 0x1 PUSH1 0x1 PUSH1 0xA0 SHL SUB AND DUP1 PUSH2 0x6EE JUMPI POP PUSH1 0x4 CALLDATALOAD CALLVALUE SUB PUSH2 0x6DC JUMPI SWAP1 JUMPDEST DUP1 PUSH8 0xDE0B6B3A7640000 SWAP3 DUP1 DUP5 DUP2 MUL DIV DUP5 EQ DUP2 ISZERO OR ISZERO SWAP3 JUMPDEST PUSH1 0xFF PUSH32 0x0 AND PUSH1 0xFF DUP3 AND LT ISZERO PUSH2 0x660 JUMPI PUSH2 0x4FE DUP2 PUSH2 0x2944 JUMP JUMPDEST DUP5 PUSH2 0x50A DUP3 ISZERO ISZERO PUSH2 0x2903 JUMP JUMPDEST PUSH2 0x64C JUMPI PUSH2 0x51A DUP2 DUP8 DUP6 MUL PUSH2 0x27B8 JUMP JUMPDEST SWAP1 DUP2 ISZERO PUSH2 0x63A JUMPI PUSH2 0x559 PUSH2 0x52D DUP5 PUSH2 0x2541 JUMP JUMPDEST SWAP2 SWAP1 DUP1 SLOAD SWAP3 PUSH2 0x542 DUP9 PUSH1 0x3 SWAP6 DUP4 DUP8 SHL SHR PUSH2 0x2937 JUMP JUMPDEST DUP3 SLOAD PUSH1 0x0 NOT PUSH1 0x3 SWAP4 SWAP1 SWAP4 SHL SWAP3 DUP4 SHL NOT AND SWAP2 SHL OR SWAP1 SSTORE JUMP JUMPDEST PUSH2 0x562 DUP5 PUSH2 0x25C5 JUMP JUMPDEST SWAP1 SLOAD SWAP2 SHL SHR PUSH1 0x1 PUSH1 0x1 PUSH1 0xA0 SHL SUB AND DUP1 EXTCODESIZE ISZERO PUSH2 0x636 JUMPI PUSH1 0x40 MLOAD PUSH4 0x40C10F19 PUSH1 0xE0 SHL DUP2 MSTORE PUSH1 0x24 DUP1 CALLDATALOAD PUSH1 0x1 PUSH1 0x1 PUSH1 0xA0 SHL SUB AND PUSH1 0x4 DUP4 ADD MSTORE DUP2 ADD DUP5 SWAP1 MSTORE SWAP1 DUP7 SWAP1 DUP3 SWAP1 DUP2 DUP4 DUP2 PUSH1 0x44 DUP2 ADD SUB SWAP3 GAS CALL DUP1 ISZERO PUSH2 0x62B JUMPI SWAP1 DUP7 SWAP2 PUSH2 0x613 JUMPI JUMPDEST POP POP PUSH1 0x40 DUP1 MLOAD DUP6 DUP2 MSTORE PUSH1 0x20 DUP2 ADD SWAP4 SWAP1 SWAP4 MSTORE DUP3 ADD MSTORE PUSH1 0xFF SWAP2 PUSH1 0x1 SWAP2 DUP2 DUP5 AND SWAP1 PUSH1 0x1 PUSH1 0x1 PUSH1 0xA0 SHL SUB PUSH1 0x24 CALLDATALOAD AND SWAP1 CALLER SWAP1 PUSH32 0x8241D0DEFADD8507317470D315422749A6C8F8B8C9C0872AAB09C665EAF3B66B SWAP1 PUSH1 0x60 SWAP1 LOG4 ADD AND PUSH2 0x4C7 JUMP JUMPDEST PUSH2 0x61C SWAP1 PUSH2 0x26CE JUMP JUMPDEST PUSH2 0x627 JUMPI DUP5 CODESIZE PUSH2 0x5B9 JUMP JUMPDEST DUP5 DUP1 REVERT JUMPDEST PUSH1 0x40 MLOAD RETURNDATASIZE DUP9 DUP3 RETURNDATACOPY RETURNDATASIZE SWAP1 REVERT JUMPDEST DUP6 DUP1 REVERT JUMPDEST PUSH1 0x40 MLOAD PUSH4 0x9811E0C7 PUSH1 0xE0 SHL DUP2 MSTORE PUSH1 0x4 SWAP1 REVERT JUMPDEST PUSH4 0x4E487B71 PUSH1 0xE0 SHL DUP5 MSTORE PUSH1 0x11 PUSH1 0x4 MSTORE PUSH1 0x24 DUP5 REVERT JUMPDEST POP PUSH1 0xD DUP1 SLOAD PUSH1 0x1 PUSH1 0x1 PUSH1 0xA8 SHL SUB NOT AND CALLER PUSH1 0xFF PUSH1 0xA0 SHL NOT DUP2 AND SWAP2 SWAP1 SWAP2 OR PUSH1 0x1 PUSH1 0xA0 SHL OR SWAP1 SWAP2 SSTORE PUSH1 0x40 DUP1 MLOAD PUSH1 0x4 CALLDATALOAD DUP2 MSTORE PUSH1 0x20 DUP2 ADD SWAP4 SWAP1 SWAP4 MSTORE PUSH1 0x24 CALLDATALOAD PUSH1 0x1 PUSH1 0x1 PUSH1 0xA0 SHL SUB AND SWAP3 PUSH32 0x95194D0FD3E6E16008575E16C429D993D868B1A25D9993D071D1039853D22A74 SWAP2 SWAP1 LOG3 PUSH1 0x1 PUSH1 0x0 DUP1 MLOAD PUSH1 0x20 PUSH2 0x31F3 DUP4 CODECOPY DUP2 MLOAD SWAP2 MSTORE SSTORE DUP1 RETURN JUMPDEST PUSH1 0x40 MLOAD PUSH4 0x32AFE6D3 PUSH1 0xE2 SHL DUP2 MSTORE PUSH1 0x4 SWAP1 REVERT JUMPDEST CALLVALUE PUSH2 0x70A JUMPI PUSH2 0x704 SWAP1 PUSH1 0x4 CALLDATALOAD SWAP1 ADDRESS SWAP1 CALLER SWAP1 PUSH2 0x301C JUMP JUMPDEST SWAP1 PUSH2 0x4AF JUMP JUMPDEST PUSH1 0x40 MLOAD PUSH4 0xCC43410F PUSH1 0xE0 SHL DUP2 MSTORE PUSH1 0x4 SWAP1 REVERT JUMPDEST PUSH1 0x40 MLOAD PUSH4 0x2E7D0D2D PUSH1 0xE2 SHL DUP2 MSTORE PUSH1 0x4 SWAP1 REVERT JUMPDEST PUSH4 0x4E487B71 PUSH1 0xE0 SHL DUP2 MSTORE PUSH1 0x12 PUSH1 0x4 MSTORE PUSH1 0x24 SWAP1 REVERT JUMPDEST PUSH1 0x40 MLOAD PUSH4 0x8568E8BD PUSH1 0xE0 SHL DUP2 MSTORE PUSH1 0x4 SWAP1 REVERT JUMPDEST POP PUSH32 0x0 PUSH1 0x4 CALLDATALOAD LT PUSH2 0x3EC JUMP JUMPDEST PUSH1 0x40 MLOAD PUSH4 0x7A2A2069 PUSH1 0xE1 SHL DUP2 MSTORE PUSH1 0x4 SWAP1 REVERT JUMPDEST PUSH1 0x40 MLOAD PUSH4 0x5C03D075 PUSH1 0xE1 SHL DUP2 MSTORE PUSH1 0x4 SWAP1 REVERT JUMPDEST PUSH1 0x40 MLOAD PUSH4 0x9622D9CF PUSH1 0xE0 SHL DUP2 MSTORE PUSH1 0x4 SWAP1 REVERT JUMPDEST PUSH1 0x40 MLOAD PUSH4 0x300B4E33 PUSH1 0xE2 SHL DUP2 MSTORE PUSH1 0x4 SWAP1 REVERT JUMPDEST PUSH1 0x40 MLOAD PUSH4 0x21C4E357 PUSH1 0xE2 SHL DUP2 MSTORE PUSH1 0x4 SWAP1 REVERT JUMPDEST POP CALLVALUE PUSH2 0x2A7 JUMPI DUP1 PUSH1 0x3 NOT CALLDATASIZE ADD SLT PUSH2 0x2A7 JUMPI PUSH2 0x7F2 PUSH2 0x2A53 JUMP JUMPDEST PUSH1 0x6 SLOAD PUSH1 0xFF DUP2 AND ISZERO PUSH2 0x7C7 JUMPI PUSH32 0x0 SWAP1 PUSH1 0x2 DUP3 LT ISZERO PUSH2 0xB8A JUMPI PUSH1 0x1 DUP1 SWAP3 SUB PUSH2 0xB78 JUMPI PUSH1 0x8 SHR PUSH1 0xFF AND PUSH2 0x841 DUP2 PUSH2 0x2674 JUMP JUMPDEST PUSH2 0xB78 JUMPI PUSH32 0x0 TIMESTAMP LT PUSH2 0xB66 JUMPI PUSH2 0x874 PUSH2 0x281A JUMP JUMPDEST TIMESTAMP PUSH1 0x8 SSTORE PUSH32 0x0 DUP1 PUSH2 0x9FB JUMPI JUMPDEST PUSH1 0x40 MLOAD PUSH4 0x11DF92F1 PUSH1 0xE0 SHL DUP2 MSTORE PUSH32 0x0 PUSH1 0x4 DUP3 ADD MSTORE TIMESTAMP PUSH1 0x24 DUP3 ADD MSTORE PUSH1 0xA0 PUSH1 0x44 DUP3 ADD MSTORE PUSH1 0x20 DUP2 PUSH1 0x1 PUSH1 0x1 PUSH1 0xA0 SHL SUB DUP2 DUP9 DUP2 PUSH2 0x8FA PUSH1 0xA4 DUP3 ADD DUP11 PUSH2 0x271A JUMP JUMPDEST DUP5 PUSH32 0x0 AND PUSH1 0x64 DUP4 ADD MSTORE DUP9 PUSH1 0x84 DUP4 ADD MSTORE SUB SWAP3 PUSH32 0x0 AND GAS CALL DUP1 ISZERO PUSH2 0x9F0 JUMPI PUSH2 0x9C5 JUMPI JUMPDEST POP PUSH32 0xE4D3D3C620D2A4B140FA3731B55B8F71306ED6AB936D7B660B613ECDBBF69DB6 SWAP2 PUSH2 0x9A9 SWAP2 PUSH2 0x100 PUSH2 0xFF00 NOT PUSH1 0x6 SLOAD AND OR PUSH1 0x6 SSTORE PUSH1 0x40 MLOAD SWAP3 DUP4 SWAP3 TIMESTAMP DUP5 MSTORE PUSH1 0x60 PUSH1 0x20 DUP6 ADD MSTORE PUSH1 0x60 DUP5 ADD SWAP1 PUSH2 0x271A JUMP JUMPDEST SWAP1 PUSH1 0x40 DUP4 ADD MSTORE SUB SWAP1 LOG1 PUSH1 0x0 DUP1 MLOAD PUSH1 0x20 PUSH2 0x31F3 DUP4 CODECOPY DUP2 MLOAD SWAP2 MSTORE SSTORE DUP1 RETURN JUMPDEST PUSH1 0x20 SWAP1 DUP2 RETURNDATASIZE DUP4 GT PUSH2 0x9E9 JUMPI JUMPDEST PUSH2 0x9DB DUP2 DUP4 PUSH2 0x26F8 JUMP JUMPDEST DUP2 ADD SUB SLT PUSH2 0x316 JUMPI CODESIZE PUSH2 0x959 JUMP JUMPDEST POP RETURNDATASIZE PUSH2 0x9D1 JUMP JUMPDEST PUSH1 0x40 MLOAD RETURNDATASIZE DUP8 DUP3 RETURNDATACOPY RETURNDATASIZE SWAP1 REVERT JUMPDEST PUSH1 0x1 DUP1 PUSH1 0xA0 SHL SUB DUP1 PUSH32 0x0 AND SWAP1 PUSH32 0x0 AND SWAP1 PUSH1 0x0 SWAP2 PUSH1 0x40 MLOAD PUSH1 0x20 PUSH4 0x95EA7B3 PUSH1 0xE0 SHL SWAP5 DUP6 DUP2 MSTORE DUP4 PUSH1 0x4 MSTORE DUP7 PUSH1 0x24 MSTORE PUSH1 0x44 DUP2 DUP1 DUP8 GAS CALL DUP8 PUSH1 0x0 MLOAD EQ DUP2 AND ISZERO PUSH2 0xB59 JUMPI JUMPDEST DUP2 PUSH1 0x40 MSTORE ISZERO PUSH2 0xA8C JUMPI JUMPDEST POP POP POP POP PUSH2 0x89F JUMP JUMPDEST PUSH1 0x20 PUSH1 0x0 DUP6 DUP2 MSTORE DUP4 PUSH1 0x4 MSTORE DUP1 PUSH1 0x24 MSTORE PUSH1 0x44 DUP2 DUP1 DUP8 GAS CALL DUP8 PUSH1 0x0 MLOAD EQ DUP2 AND ISZERO PUSH2 0xB3A JUMPI JUMPDEST DUP2 PUSH1 0x40 MSTORE ISZERO PUSH2 0xB24 JUMPI POP PUSH1 0x20 SWAP1 PUSH1 0x0 SWAP1 PUSH1 0x40 MLOAD SWAP5 DUP3 MSTORE PUSH1 0x4 MSTORE DUP5 PUSH1 0x24 MSTORE PUSH1 0x44 DUP2 DUP1 DUP6 GAS CALL DUP6 PUSH1 0x0 MLOAD EQ DUP2 AND ISZERO PUSH2 0xB05 JUMPI JUMPDEST DUP3 PUSH1 0x40 MSTORE ISZERO PUSH2 0xAF0 JUMPI DUP1 DUP1 PUSH2 0xA83 JUMP JUMPDEST PUSH4 0x5274AFE7 PUSH1 0xE0 SHL DUP3 MSTORE PUSH1 0x4 DUP3 ADD MSTORE PUSH1 0x24 SWAP2 POP REVERT JUMPDEST DUP6 DUP2 ISZERO AND PUSH2 0xB1A JUMPI DUP2 EXTCODESIZE ISZERO ISZERO RETURNDATASIZE ISZERO AND AND PUSH2 0xAE0 JUMP JUMPDEST DUP3 RETURNDATASIZE PUSH1 0x0 DUP3 RETURNDATACOPY RETURNDATASIZE SWAP1 REVERT JUMPDEST PUSH4 0x5274AFE7 PUSH1 0xE0 SHL DUP2 MSTORE PUSH1 0x4 DUP2 ADD DUP4 SWAP1 MSTORE PUSH1 0x24 SWAP1 REVERT JUMPDEST DUP8 DUP2 ISZERO AND PUSH2 0xB4F JUMPI DUP4 EXTCODESIZE ISZERO ISZERO RETURNDATASIZE ISZERO AND AND PUSH2 0xAAF JUMP JUMPDEST POP RETURNDATASIZE PUSH1 0x0 DUP3 RETURNDATACOPY RETURNDATASIZE SWAP1 REVERT JUMPDEST DUP4 EXTCODESIZE ISZERO ISZERO RETURNDATASIZE ISZERO AND AND PUSH2 0xA79 JUMP JUMPDEST PUSH1 0x40 MLOAD PUSH4 0xFCE133D PUSH1 0xE0 SHL DUP2 MSTORE PUSH1 0x4 SWAP1 REVERT JUMPDEST PUSH1 0x40 MLOAD PUSH4 0xBAF3F0F7 PUSH1 0xE0 SHL DUP2 MSTORE PUSH1 0x4 SWAP1 REVERT JUMPDEST PUSH4 0x4E487B71 PUSH1 0xE0 SHL DUP4 MSTORE PUSH1 0x21 PUSH1 0x4 MSTORE PUSH1 0x24 DUP4 REVERT JUMPDEST POP CALLVALUE PUSH2 0x2A7 JUMPI DUP1 PUSH1 0x3 NOT CALLDATASIZE ADD SLT PUSH2 0x2A7 JUMPI PUSH1 0x20 PUSH1 0x40 MLOAD PUSH1 0xFF PUSH32 0x0 AND DUP2 MSTORE RETURN JUMPDEST POP CALLVALUE PUSH2 0x2A7 JUMPI DUP1 PUSH1 0x3 NOT CALLDATASIZE ADD SLT PUSH2 0x2A7 JUMPI PUSH1 0x20 PUSH1 0xB SLOAD PUSH1 0x40 MLOAD SWAP1 DUP2 MSTORE RETURN JUMPDEST POP CALLVALUE PUSH2 0x2A7 JUMPI DUP1 PUSH1 0x3 NOT CALLDATASIZE ADD SLT PUSH2 0x2A7 JUMPI PUSH1 0x1 SLOAD PUSH1 0x40 MLOAD PUSH1 0x1 PUSH1 0x1 PUSH1 0xA0 SHL SUB SWAP1 SWAP2 AND DUP2 MSTORE PUSH1 0x20 SWAP1 RETURN JUMPDEST POP CALLVALUE PUSH2 0x2A7 JUMPI DUP1 PUSH1 0x3 NOT CALLDATASIZE ADD SLT PUSH2 0x2A7 JUMPI PUSH1 0x20 PUSH1 0x40 MLOAD PUSH2 0x2710 DUP2 MSTORE RETURN JUMPDEST POP CALLVALUE PUSH2 0x2A7 JUMPI DUP1 PUSH1 0x3 NOT CALLDATASIZE ADD SLT PUSH2 0x2A7 JUMPI PUSH1 0x20 PUSH32 0x0 PUSH1 0x40 MLOAD SWAP1 PUSH2 0xC81 DUP2 PUSH2 0x2674 JUMP JUMPDEST DUP2 MSTORE RETURN JUMPDEST POP CALLVALUE PUSH2 0x2A7 JUMPI DUP1 PUSH1 0x3 NOT CALLDATASIZE ADD SLT PUSH2 0x2A7 JUMPI PUSH1 0x40 MLOAD SWAP1 DUP1 DUP3 PUSH1 0x7 SLOAD SWAP2 PUSH2 0xCA9 DUP4 PUSH2 0x2694 JUMP JUMPDEST SWAP3 DUP4 DUP4 MSTORE PUSH1 0x20 SWAP5 PUSH1 0x1 SWAP2 DUP7 PUSH1 0x1 DUP3 AND SWAP2 DUP3 PUSH1 0x0 EQ PUSH2 0xD39 JUMPI POP POP PUSH1 0x1 EQ PUSH2 0xCF1 JUMPI JUMPDEST POP POP PUSH2 0xCD9 SWAP3 POP SUB DUP4 PUSH2 0x26F8 JUMP JUMPDEST PUSH2 0xCED PUSH1 0x40 MLOAD SWAP3 DUP3 DUP5 SWAP4 DUP5 MSTORE DUP4 ADD SWAP1 PUSH2 0x271A JUMP JUMPDEST SUB SWAP1 RETURN JUMPDEST SWAP1 DUP6 SWAP3 POP PUSH1 0x7 DUP3 MSTORE PUSH1 0x0 DUP1 MLOAD PUSH1 0x20 PUSH2 0x31D3 DUP4 CODECOPY DUP2 MLOAD SWAP2 MSTORE JUMPDEST DUP6 DUP4 LT PUSH2 0xD21 JUMPI POP POP PUSH2 0xCD9 SWAP4 POP DUP3 ADD ADD CODESIZE DUP1 PUSH2 0xCCB JUMP JUMPDEST DUP1 SLOAD DUP4 DUP10 ADD DUP6 ADD MSTORE DUP8 SWAP5 POP DUP7 SWAP4 SWAP1 SWAP3 ADD SWAP2 DUP2 ADD PUSH2 0xD09 JUMP JUMPDEST SWAP3 POP SWAP4 POP POP PUSH2 0xCD9 SWAP5 SWAP2 POP PUSH1 0xFF NOT AND DUP3 DUP5 ADD MSTORE ISZERO ISZERO PUSH1 0x5 SHL DUP3 ADD ADD CODESIZE DUP1 PUSH2 0xCCB JUMP JUMPDEST POP CALLVALUE PUSH2 0x2A7 JUMPI DUP1 PUSH1 0x3 NOT CALLDATASIZE ADD SLT PUSH2 0x2A7 JUMPI PUSH1 0x20 PUSH1 0x40 MLOAD PUSH32 0x0 DUP2 MSTORE RETURN JUMPDEST POP CALLVALUE PUSH2 0x2A7 JUMPI DUP1 PUSH1 0x3 NOT CALLDATASIZE ADD SLT PUSH2 0x2A7 JUMPI PUSH1 0x20 PUSH1 0x8 SLOAD PUSH1 0x40 MLOAD SWAP1 DUP2 MSTORE RETURN JUMPDEST POP CALLVALUE PUSH2 0x2A7 JUMPI DUP1 PUSH1 0x3 NOT CALLDATASIZE ADD SLT PUSH2 0x2A7 JUMPI PUSH1 0x20 PUSH1 0x40 MLOAD PUSH32 0x0 DUP2 MSTORE RETURN JUMPDEST POP CALLVALUE PUSH2 0x2A7 JUMPI DUP1 PUSH1 0x3 NOT CALLDATASIZE ADD SLT PUSH2 0x2A7 JUMPI PUSH1 0x20 PUSH1 0x40 MLOAD PUSH32 0x0 DUP2 MSTORE RETURN JUMPDEST POP CALLVALUE PUSH2 0x2A7 JUMPI DUP1 PUSH1 0x3 NOT CALLDATASIZE ADD SLT PUSH2 0x2A7 JUMPI PUSH1 0x40 MLOAD PUSH32 0x0 PUSH1 0x1 PUSH1 0x1 PUSH1 0xA0 SHL SUB AND DUP2 MSTORE PUSH1 0x20 SWAP1 RETURN JUMPDEST POP CALLVALUE PUSH2 0x2A7 JUMPI DUP1 PUSH1 0x3 NOT CALLDATASIZE ADD SLT PUSH2 0x2A7 JUMPI PUSH1 0x20 PUSH1 0xFF PUSH1 0x6 SLOAD PUSH1 0x8 SHR AND PUSH1 0x40 MLOAD SWAP1 PUSH2 0xC81 DUP2 PUSH2 0x2674 JUMP JUMPDEST POP CALLVALUE PUSH2 0x2A7 JUMPI PUSH1 0x40 CALLDATASIZE PUSH1 0x3 NOT ADD SLT PUSH2 0x2A7 JUMPI PUSH2 0xEB2 PUSH2 0x2664 JUMP JUMPDEST PUSH1 0x24 CALLDATALOAD SWAP1 PUSH2 0xEBE PUSH2 0x2A53 JUMP JUMPDEST PUSH1 0x6 SLOAD PUSH1 0xFF DUP2 AND ISZERO PUSH2 0x7C7 JUMPI PUSH1 0xFF PUSH1 0x2 SWAP2 PUSH1 0x8 SHR AND PUSH2 0xEDC DUP2 PUSH2 0x2674 JUMP JUMPDEST SUB PUSH2 0xB78 JUMPI DUP2 ISZERO PUSH2 0x63A JUMPI PUSH1 0xFF DUP2 AND PUSH1 0xFF PUSH32 0x0 AND DUP2 LT ISZERO PUSH2 0x1022 JUMPI PUSH1 0xFF PUSH1 0x9 SLOAD AND SUB PUSH2 0x1022 JUMPI PUSH1 0xA SLOAD DUP1 ISZERO PUSH2 0x1010 JUMPI PUSH2 0xF3D PUSH8 0xDE0B6B3A7640000 SWAP2 DUP5 PUSH2 0x27A5 JUMP JUMPDEST DIV SWAP2 DUP3 ISZERO PUSH2 0xFE2 JUMPI PUSH2 0xF4F DUP5 SWAP3 PUSH2 0x25C5 JUMP JUMPDEST SWAP1 SLOAD PUSH1 0x3 SWAP2 SWAP1 SWAP2 SHL SHR PUSH1 0x1 PUSH1 0x1 PUSH1 0xA0 SHL SUB AND DUP1 EXTCODESIZE ISZERO PUSH2 0xFDE JUMPI PUSH1 0x40 MLOAD PUSH4 0x79CC679 PUSH1 0xE4 SHL DUP2 MSTORE CALLER PUSH1 0x4 DUP3 ADD MSTORE PUSH1 0x24 DUP2 ADD SWAP3 SWAP1 SWAP3 MSTORE DUP3 SWAP1 DUP3 SWAP1 PUSH1 0x44 SWAP1 DUP3 SWAP1 DUP5 SWAP1 GAS CALL DUP1 ISZERO PUSH2 0xFD3 JUMPI PUSH2 0xFBB JUMPI JUMPDEST POP PUSH2 0xFA6 DUP3 CALLER PUSH2 0x30BD JUMP JUMPDEST PUSH1 0x1 PUSH1 0x0 DUP1 MLOAD PUSH1 0x20 PUSH2 0x31F3 DUP4 CODECOPY DUP2 MLOAD SWAP2 MSTORE SSTORE DUP1 RETURN JUMPDEST PUSH2 0xFC4 SWAP1 PUSH2 0x26CE JUMP JUMPDEST PUSH2 0xFCF JUMPI DUP2 CODESIZE PUSH2 0xF9B JUMP JUMPDEST POP DUP1 REVERT JUMPDEST PUSH1 0x40 MLOAD RETURNDATASIZE DUP5 DUP3 RETURNDATACOPY RETURNDATASIZE SWAP1 REVERT JUMPDEST DUP3 DUP1 REVERT JUMPDEST PUSH1 0x40 MLOAD PUSH3 0x461BCD PUSH1 0xE5 SHL DUP2 MSTORE PUSH1 0x20 PUSH1 0x4 DUP3 ADD MSTORE PUSH1 0x6 PUSH1 0x24 DUP3 ADD MSTORE PUSH6 0x14185E5BDD5D PUSH1 0xD2 SHL PUSH1 0x44 DUP3 ADD MSTORE PUSH1 0x64 SWAP1 REVERT JUMPDEST PUSH1 0x40 MLOAD PUSH4 0xB3B7D75F PUSH1 0xE0 SHL DUP2 MSTORE PUSH1 0x4 SWAP1 REVERT JUMPDEST PUSH1 0x40 MLOAD PUSH4 0xC74A206D PUSH1 0xE0 SHL DUP2 MSTORE PUSH1 0x4 SWAP1 REVERT JUMPDEST POP CALLVALUE PUSH2 0x2A7 JUMPI DUP1 PUSH1 0x3 NOT CALLDATASIZE ADD SLT PUSH2 0x2A7 JUMPI PUSH1 0x20 PUSH1 0x40 MLOAD PUSH32 0x0 DUP2 MSTORE RETURN JUMPDEST POP CALLVALUE PUSH2 0x2A7 JUMPI DUP1 PUSH1 0x3 NOT CALLDATASIZE ADD SLT PUSH2 0x2A7 JUMPI PUSH1 0x20 PUSH1 0x40 MLOAD PUSH32 0x0 DUP2 MSTORE RETURN JUMPDEST POP CALLVALUE PUSH2 0x2A7 JUMPI DUP1 PUSH1 0x3 NOT CALLDATASIZE ADD SLT PUSH2 0x2A7 JUMPI PUSH1 0x20 PUSH1 0x40 MLOAD PUSH8 0xDE0B6B3A7640000 DUP2 MSTORE RETURN JUMPDEST POP CALLVALUE PUSH2 0x2A7 JUMPI DUP1 PUSH1 0x3 NOT CALLDATASIZE ADD SLT PUSH2 0x2A7 JUMPI PUSH1 0xD SLOAD PUSH1 0x40 MLOAD PUSH1 0x1 PUSH1 0x1 PUSH1 0xA0 SHL SUB SWAP1 SWAP2 AND DUP2 MSTORE PUSH1 0x20 SWAP1 RETURN JUMPDEST POP CALLVALUE PUSH2 0x2A7 JUMPI PUSH1 0x20 CALLDATASIZE PUSH1 0x3 NOT ADD SLT PUSH2 0x2A7 JUMPI PUSH1 0x20 PUSH2 0x111A PUSH2 0x1115 PUSH2 0x2664 JUMP JUMPDEST PUSH2 0x2944 JUMP JUMPDEST PUSH1 0x40 MLOAD SWAP1 DUP2 MSTORE RETURN JUMPDEST POP CALLVALUE PUSH2 0x2A7 JUMPI DUP1 PUSH1 0x3 NOT CALLDATASIZE ADD SLT PUSH2 0x2A7 JUMPI PUSH1 0x40 MLOAD PUSH32 0x0 PUSH1 0x2 DUP2 LT ISZERO PUSH2 0xB8A JUMPI PUSH1 0x20 SWAP3 POP DUP2 MSTORE RETURN JUMPDEST POP CALLVALUE PUSH2 0x2A7 JUMPI DUP1 PUSH1 0x3 NOT CALLDATASIZE ADD SLT PUSH2 0x2A7 JUMPI SLOAD PUSH1 0x40 MLOAD PUSH1 0x1 PUSH1 0x1 PUSH1 0xA0 SHL SUB SWAP1 SWAP2 AND DUP2 MSTORE PUSH1 0x20 SWAP1 RETURN JUMPDEST POP CALLVALUE PUSH2 0x2A7 JUMPI DUP1 PUSH1 0x3 NOT CALLDATASIZE ADD SLT PUSH2 0x2A7 JUMPI PUSH1 0x20 PUSH1 0x40 MLOAD PUSH8 0xFFFFFFFFFFFFFFFF PUSH32 0x0 AND DUP2 MSTORE RETURN JUMPDEST POP CALLVALUE PUSH2 0x2A7 JUMPI DUP1 PUSH1 0x3 NOT CALLDATASIZE ADD SLT PUSH2 0x2A7 JUMPI PUSH1 0x20 PUSH1 0x40 MLOAD PUSH1 0xFF PUSH32 0x0 AND DUP2 MSTORE RETURN JUMPDEST POP CALLVALUE PUSH2 0x2A7 JUMPI DUP1 PUSH1 0x3 NOT CALLDATASIZE ADD SLT PUSH2 0x2A7 JUMPI PUSH1 0x20 PUSH1 0xC SLOAD PUSH1 0x40 MLOAD SWAP1 DUP2 MSTORE RETURN JUMPDEST POP CALLVALUE PUSH2 0x2A7 JUMPI DUP1 PUSH1 0x3 NOT CALLDATASIZE ADD SLT PUSH2 0x2A7 JUMPI PUSH1 0x20 PUSH1 0x40 MLOAD PUSH32 0x0 DUP2 MSTORE RETURN JUMPDEST POP CALLVALUE PUSH2 0x2A7 JUMPI DUP1 PUSH1 0x3 NOT CALLDATASIZE ADD SLT PUSH2 0x2A7 JUMPI PUSH1 0x40 MLOAD PUSH32 0x0 PUSH1 0x1 PUSH1 0x1 PUSH1 0xA0 SHL SUB AND DUP2 MSTORE PUSH1 0x20 SWAP1 RETURN JUMPDEST POP CALLVALUE PUSH2 0x2A7 JUMPI DUP1 PUSH1 0x3 NOT CALLDATASIZE ADD SLT PUSH2 0x2A7 JUMPI PUSH1 0x20 PUSH1 0x9 SLOAD PUSH1 0x40 MLOAD SWAP1 DUP2 MSTORE RETURN JUMPDEST POP CALLVALUE PUSH2 0x2A7 JUMPI DUP1 PUSH1 0x3 NOT CALLDATASIZE ADD SLT PUSH2 0x2A7 JUMPI PUSH1 0x1 SLOAD PUSH1 0x1 PUSH1 0x1 PUSH1 0xA0 SHL SUB CALLER DUP2 DUP4 AND SUB PUSH2 0x1340 JUMPI PUSH12 0xFFFFFFFFFFFFFFFFFFFFFFFF PUSH1 0xA0 SHL DUP1 SWAP3 AND PUSH1 0x1 SSTORE PUSH1 0x0 SLOAD SWAP2 CALLER SWAP1 DUP4 AND OR PUSH1 0x0 SSTORE CALLER SWAP2 AND PUSH32 0x8BE0079C531659141344CD1FD0A4F28419497F9722A3DAAFE3B4186F6B6457E0 PUSH1 0x0 DUP1 LOG3 DUP1 RETURN JUMPDEST PUSH1 0x40 MLOAD PUSH4 0x118CDAA7 PUSH1 0xE0 SHL DUP2 MSTORE CALLER PUSH1 0x4 DUP3 ADD MSTORE PUSH1 0x24 SWAP1 REVERT JUMPDEST POP CALLVALUE PUSH2 0x2A7 JUMPI DUP1 PUSH1 0x3 NOT CALLDATASIZE ADD SLT PUSH2 0x2A7 JUMPI PUSH2 0x1371 PUSH2 0x30A9 JUMP JUMPDEST PUSH1 0x1 DUP1 SLOAD PUSH1 0x1 PUSH1 0x1 PUSH1 0xA0 SHL SUB NOT SWAP1 DUP2 AND SWAP1 SWAP2 SSTORE PUSH1 0x0 DUP1 SLOAD SWAP2 DUP3 AND DUP2 SSTORE SWAP1 PUSH1 0x1 PUSH1 0x1 PUSH1 0xA0 SHL SUB AND PUSH32 0x8BE0079C531659141344CD1FD0A4F28419497F9722A3DAAFE3B4186F6B6457E0 DUP3 DUP1 LOG3 DUP1 RETURN JUMPDEST POP PUSH1 0x80 CALLDATASIZE PUSH1 0x3 NOT ADD SLT PUSH2 0x2A7 JUMPI PUSH2 0x13D3 PUSH2 0x2664 JUMP JUMPDEST PUSH1 0x44 CALLDATALOAD SWAP1 PUSH1 0x1 PUSH1 0x1 PUSH1 0xA0 SHL SUB DUP1 DUP4 AND SWAP2 PUSH1 0x24 CALLDATALOAD SWAP2 DUP4 DUP6 SUB PUSH2 0x636 JUMPI PUSH2 0x13F6 PUSH2 0x2A53 JUMP JUMPDEST PUSH1 0x6 SLOAD PUSH1 0xFF DUP2 AND ISZERO PUSH2 0x7C7 JUMPI PUSH1 0x8 SHR PUSH1 0xFF AND PUSH2 0x1411 DUP2 PUSH2 0x2674 JUMP JUMPDEST PUSH2 0x7B5 JUMPI PUSH32 0x0 TIMESTAMP LT ISZERO PUSH2 0x7A3 JUMPI PUSH1 0xFF DUP3 AND SWAP5 PUSH1 0xFF PUSH32 0x0 AND DUP7 LT ISZERO PUSH2 0x1022 JUMPI DUP4 ISZERO SWAP3 PUSH2 0x147A DUP5 ISZERO PUSH2 0x28CE JUMP JUMPDEST DUP6 ISZERO PUSH2 0x1666 JUMPI PUSH32 0x0 DUP4 AND DUP1 PUSH2 0x1620 JUMPI POP DUP5 CALLVALUE SUB PUSH2 0x6DC JUMPI JUMPDEST PUSH2 0x14BA DUP2 PUSH2 0x2944 JUMP JUMPDEST SWAP4 PUSH2 0x14C6 DUP6 ISZERO ISZERO PUSH2 0x2903 JUMP JUMPDEST PUSH8 0xDE0B6B3A7640000 SWAP1 DUP2 DUP8 MUL SWAP2 DUP8 DUP4 DIV EQ OR ISZERO PUSH2 0x160C JUMPI DUP5 PUSH2 0x14E8 SWAP2 PUSH2 0x27B8 JUMP JUMPDEST SWAP3 DUP4 ISZERO PUSH2 0x63A JUMPI PUSH1 0x64 CALLDATALOAD DUP5 LT PUSH2 0x15FA JUMPI PUSH2 0x151E DUP3 PUSH2 0x1519 PUSH2 0x1509 DUP13 SWAP6 PUSH2 0x2541 JUMP JUMPDEST PUSH2 0x542 DUP12 DUP4 SLOAD DUP4 PUSH1 0x3 SHL SHR PUSH2 0x2937 JUMP JUMPDEST PUSH2 0x25C5 JUMP JUMPDEST SWAP1 SLOAD SWAP1 PUSH1 0x3 SHL SHR AND SWAP2 DUP3 EXTCODESIZE ISZERO PUSH2 0xFCF JUMPI PUSH1 0x40 MLOAD PUSH4 0x40C10F19 PUSH1 0xE0 SHL DUP2 MSTORE PUSH1 0x1 PUSH1 0x1 PUSH1 0xA0 SHL SUB SWAP2 SWAP1 SWAP2 AND PUSH1 0x4 DUP3 ADD MSTORE PUSH1 0x24 DUP2 ADD DUP5 SWAP1 MSTORE SWAP2 DUP3 SWAP1 PUSH1 0x44 SWAP1 DUP3 SWAP1 DUP5 SWAP1 GAS CALL DUP1 ISZERO PUSH2 0x15EF JUMPI PUSH2 0x15BA JUMPI JUMPDEST POP PUSH1 0x40 DUP1 MLOAD SWAP4 DUP5 MSTORE PUSH1 0x20 DUP5 ADD SWAP2 SWAP1 SWAP2 MSTORE DUP3 ADD MSTORE CALLER SWAP1 PUSH32 0x8241D0DEFADD8507317470D315422749A6C8F8B8C9C0872AAB09C665EAF3B66B SWAP1 PUSH1 0x60 SWAP1 LOG4 PUSH1 0x1 PUSH1 0x0 DUP1 MLOAD PUSH1 0x20 PUSH2 0x31F3 DUP4 CODECOPY DUP2 MLOAD SWAP2 MSTORE SSTORE DUP1 RETURN JUMPDEST SWAP6 PUSH2 0x15E7 PUSH32 0x8241D0DEFADD8507317470D315422749A6C8F8B8C9C0872AAB09C665EAF3B66B SWAP4 SWAP3 SWAP8 PUSH2 0x26CE JUMP JUMPDEST SWAP6 SWAP1 SWAP2 PUSH2 0x156A JUMP JUMPDEST PUSH1 0x40 MLOAD RETURNDATASIZE DUP10 DUP3 RETURNDATACOPY RETURNDATASIZE SWAP1 REVERT JUMPDEST PUSH1 0x40 MLOAD PUSH4 0x7DD37F7 PUSH1 0xE4 SHL DUP2 MSTORE PUSH1 0x4 SWAP1 REVERT JUMPDEST PUSH4 0x4E487B71 PUSH1 0xE0 SHL DUP10 MSTORE PUSH1 0x11 PUSH1 0x4 MSTORE PUSH1 0x24 DUP10 REVERT JUMPDEST CALLVALUE PUSH2 0x1638 JUMPI DUP6 PUSH2 0x1633 SWAP2 ADDRESS SWAP1 CALLER SWAP1 PUSH2 0x301C JUMP JUMPDEST PUSH2 0x14B1 JUMP JUMPDEST PUSH1 0x40 MLOAD PUSH3 0x461BCD PUSH1 0xE5 SHL DUP2 MSTORE PUSH1 0x20 PUSH1 0x4 DUP3 ADD MSTORE PUSH1 0x6 PUSH1 0x24 DUP3 ADD MSTORE PUSH6 0x9CDE408AA89 PUSH1 0xD3 SHL PUSH1 0x44 DUP3 ADD MSTORE PUSH1 0x64 SWAP1 REVERT JUMPDEST PUSH1 0x40 MLOAD PUSH3 0x461BCD PUSH1 0xE5 SHL DUP2 MSTORE PUSH1 0x20 PUSH1 0x4 DUP3 ADD MSTORE PUSH1 0x9 PUSH1 0x24 DUP3 ADD MSTORE PUSH9 0x149958DA5C1A595B9D PUSH1 0xBA SHL PUSH1 0x44 DUP3 ADD MSTORE PUSH1 0x64 SWAP1 REVERT JUMPDEST POP CALLVALUE PUSH2 0x2A7 JUMPI DUP1 PUSH1 0x3 NOT CALLDATASIZE ADD SLT PUSH2 0x2A7 JUMPI PUSH1 0x20 PUSH1 0x40 MLOAD PUSH32 0x0 DUP2 MSTORE RETURN JUMPDEST POP CALLVALUE PUSH2 0x2A7 JUMPI PUSH1 0x20 CALLDATASIZE PUSH1 0x3 NOT ADD SLT PUSH2 0x2A7 JUMPI PUSH1 0x20 PUSH2 0x16F1 PUSH1 0x4 CALLDATALOAD PUSH2 0x25C5 JUMP JUMPDEST SWAP1 SLOAD PUSH1 0x40 MLOAD PUSH1 0x3 SWAP3 SWAP1 SWAP3 SHL SHR PUSH1 0x1 PUSH1 0x1 PUSH1 0xA0 SHL SUB AND DUP2 MSTORE RETURN JUMPDEST POP CALLVALUE PUSH2 0x2A7 JUMPI DUP1 PUSH1 0x3 NOT CALLDATASIZE ADD SLT PUSH2 0x2A7 JUMPI PUSH1 0x20 PUSH1 0xA SLOAD PUSH1 0x40 MLOAD SWAP1 DUP2 MSTORE RETURN JUMPDEST POP CALLVALUE PUSH2 0x2A7 JUMPI PUSH1 0x20 CALLDATASIZE PUSH1 0x3 NOT ADD SLT PUSH2 0x2A7 JUMPI PUSH1 0x4 CALLDATALOAD PUSH2 0x1745 PUSH2 0x2A53 JUMP JUMPDEST PUSH1 0xFF PUSH1 0x6 SLOAD AND ISZERO PUSH2 0x7C7 JUMPI PUSH32 0x0 PUSH1 0x2 DUP2 LT ISZERO PUSH2 0xB8A JUMPI PUSH1 0x1 SUB PUSH2 0x1804 JUMPI PUSH2 0x178C DUP2 ISZERO ISZERO PUSH2 0x28CE JUMP JUMPDEST PUSH32 0x0 PUSH1 0x1 PUSH1 0x1 PUSH1 0xA0 SHL SUB AND SWAP1 PUSH2 0x17C3 DUP2 ADDRESS CALLER DUP6 PUSH2 0x301C JUMP JUMPDEST PUSH1 0x40 MLOAD SWAP1 DUP2 MSTORE PUSH32 0xB70CCB2B3A65BA201E6B7107278D5064431BC3ACF6E932D8F869A913A6797387 PUSH1 0x20 CALLER SWAP3 LOG3 PUSH1 0x1 PUSH1 0x0 DUP1 MLOAD PUSH1 0x20 PUSH2 0x31F3 DUP4 CODECOPY DUP2 MLOAD SWAP2 MSTORE SSTORE DUP1 RETURN JUMPDEST PUSH1 0x40 MLOAD PUSH4 0x588DCCFD PUSH1 0xE0 SHL DUP2 MSTORE PUSH1 0x4 SWAP1 REVERT JUMPDEST POP CALLVALUE PUSH2 0x2A7 JUMPI DUP1 PUSH1 0x3 NOT CALLDATASIZE ADD SLT PUSH2 0x2A7 JUMPI PUSH1 0x20 PUSH1 0x40 MLOAD PUSH32 0x0 DUP2 MSTORE RETURN JUMPDEST POP CALLVALUE PUSH2 0x2A7 JUMPI DUP1 PUSH1 0x3 NOT CALLDATASIZE ADD SLT PUSH2 0x2A7 JUMPI PUSH2 0x186A PUSH2 0x2A53 JUMP JUMPDEST PUSH1 0x6 SLOAD PUSH1 0xFF DUP2 AND ISZERO PUSH2 0x7C7 JUMPI PUSH32 0x0 PUSH1 0x2 DUP2 LT ISZERO PUSH2 0xB8A JUMPI PUSH1 0x1 SUB PUSH2 0xB78 JUMPI PUSH1 0xFF PUSH1 0x1 SWAP2 PUSH1 0x8 SHR AND PUSH2 0x18B9 DUP2 PUSH2 0x2674 JUMP JUMPDEST SUB PUSH2 0xB78 JUMPI PUSH2 0x191C PUSH1 0x20 PUSH2 0x18CB PUSH2 0x281A JUMP JUMPDEST PUSH1 0x8 SLOAD PUSH1 0x40 MLOAD SWAP4 DUP5 SWAP3 DUP4 SWAP3 PUSH4 0x53B59239 PUSH1 0xE0 SHL DUP5 MSTORE PUSH32 0x0 PUSH1 0x4 DUP6 ADD MSTORE PUSH1 0x24 DUP5 ADD MSTORE PUSH1 0x60 PUSH1 0x44 DUP5 ADD MSTORE PUSH1 0x64 DUP4 ADD SWAP1 PUSH2 0x271A JUMP JUMPDEST SUB DUP2 DUP6 PUSH32 0x0 PUSH1 0x1 PUSH1 0x1 PUSH1 0xA0 SHL SUB AND GAS CALL DUP1 ISZERO PUSH2 0xFD3 JUMPI DUP3 SWAP1 PUSH2 0x196B JUMPI JUMPDEST PUSH2 0xFA6 SWAP2 POP PUSH2 0x1966 DUP2 PUSH2 0x2F46 JUMP JUMPDEST PUSH2 0x2C71 JUMP JUMPDEST POP PUSH1 0x20 DUP2 RETURNDATASIZE PUSH1 0x20 GT PUSH2 0x1997 JUMPI JUMPDEST DUP2 PUSH2 0x1985 PUSH1 0x20 SWAP4 DUP4 PUSH2 0x26F8 JUMP JUMPDEST DUP2 ADD SUB SLT PUSH2 0xFCF JUMPI PUSH2 0xFA6 SWAP1 MLOAD PUSH2 0x1958 JUMP JUMPDEST RETURNDATASIZE SWAP2 POP PUSH2 0x1978 JUMP JUMPDEST POP CALLVALUE PUSH2 0x2A7 JUMPI DUP1 PUSH1 0x3 NOT CALLDATASIZE ADD SLT PUSH2 0x2A7 JUMPI PUSH1 0x40 MLOAD PUSH32 0x0 PUSH1 0x1 PUSH1 0x1 PUSH1 0xA0 SHL SUB AND DUP2 MSTORE PUSH1 0x20 SWAP1 RETURN JUMPDEST POP CALLVALUE PUSH2 0x2A7 JUMPI DUP1 PUSH1 0x3 NOT CALLDATASIZE ADD SLT PUSH2 0x2A7 JUMPI PUSH1 0x40 MLOAD PUSH32 0x0 PUSH1 0x1 PUSH1 0x1 PUSH1 0xA0 SHL SUB AND DUP2 MSTORE PUSH1 0x20 SWAP1 RETURN JUMPDEST POP CALLVALUE PUSH2 0x2A7 JUMPI PUSH1 0x80 CALLDATASIZE PUSH1 0x3 NOT ADD SLT PUSH2 0x2A7 JUMPI PUSH8 0xFFFFFFFFFFFFFFFF PUSH1 0x4 CALLDATALOAD DUP2 DUP2 GT PUSH2 0xFDE JUMPI PUSH2 0x1A5C SWAP1 CALLDATASIZE SWAP1 PUSH1 0x4 ADD PUSH2 0x2633 JUMP JUMPDEST SWAP2 DUP1 PUSH1 0x24 CALLDATALOAD GT PUSH2 0x20DE JUMPI CALLDATASIZE PUSH1 0x23 PUSH1 0x24 CALLDATALOAD ADD SLT ISZERO PUSH2 0x20DE JUMPI DUP1 PUSH1 0x24 CALLDATALOAD PUSH1 0x4 ADD CALLDATALOAD GT PUSH2 0x20DE JUMPI CALLDATASIZE PUSH1 0x24 DUP1 CALLDATALOAD PUSH1 0x4 ADD CALLDATALOAD DUP2 CALLDATALOAD ADD ADD GT PUSH2 0x20DE JUMPI PUSH1 0x44 CALLDATALOAD DUP2 DUP2 GT PUSH2 0x627 JUMPI PUSH2 0x1AAA SWAP1 CALLDATASIZE SWAP1 PUSH1 0x4 ADD PUSH2 0x2633 JUMP JUMPDEST SWAP1 SWAP2 PUSH1 0x64 CALLDATALOAD SWAP1 DUP2 GT PUSH2 0x636 JUMPI PUSH2 0x1AC4 SWAP1 CALLDATASIZE SWAP1 PUSH1 0x4 ADD PUSH2 0x2633 JUMP JUMPDEST SWAP1 SWAP2 PUSH32 0x0 PUSH1 0x1 PUSH1 0x1 PUSH1 0xA0 SHL SUB AND CALLER SUB PUSH2 0x20CC JUMPI PUSH1 0x6 SLOAD PUSH1 0xFF DUP2 AND PUSH2 0x20BB JUMPI PUSH1 0xFF PUSH32 0x0 AND DUP8 SUB PUSH2 0x2088 JUMPI PUSH1 0xFF NOT AND PUSH1 0x1 OR PUSH1 0x6 SSTORE DUP7 JUMPDEST DUP7 DUP2 LT PUSH2 0x1FD2 JUMPI POP PUSH1 0x2 PUSH32 0x0 LT ISZERO PUSH2 0x1FBE JUMPI PUSH32 0x0 ISZERO PUSH2 0x1DF9 JUMPI JUMPDEST POP POP POP POP PUSH1 0x1 PUSH32 0x0 EQ PUSH2 0x1C6C JUMPI JUMPDEST PUSH1 0x40 MLOAD SWAP2 DUP1 PUSH1 0x40 DUP5 ADD PUSH1 0x40 DUP6 MSTORE MSTORE PUSH1 0x60 DUP4 ADD SWAP2 SWAP1 DUP5 JUMPDEST DUP2 DUP2 LT PUSH2 0x1C3E JUMPI DUP6 PUSH32 0xA8457C2BCBBDB92C70CAE1F959DE4C2FB0BD95A61C6FDABE79A02BFE7EA38601 DUP7 PUSH1 0x20 DUP2 DUP9 DUP2 DUP2 SUB DUP4 DUP4 ADD MSTORE PUSH1 0x24 CALLDATALOAD PUSH1 0x4 ADD CALLDATALOAD DUP2 MSTORE PUSH1 0x24 CALLDATALOAD PUSH1 0x4 ADD CALLDATALOAD PUSH1 0x24 DUP1 CALLDATALOAD ADD DUP5 DUP4 ADD CALLDATACOPY PUSH1 0x4 PUSH1 0x24 CALLDATALOAD ADD CALLDATALOAD DUP2 DUP2 ADD DUP5 ADD DUP8 SWAP1 MSTORE PUSH1 0x1F ADD PUSH1 0x1F NOT AND ADD SUB ADD SWAP1 LOG1 DUP1 RETURN JUMPDEST SWAP1 SWAP2 SWAP3 DUP4 CALLDATALOAD SWAP1 PUSH1 0x1 DUP1 PUSH1 0xA0 SHL SUB DUP3 AND DUP1 SWAP3 SUB PUSH2 0x1C68 JUMPI SWAP1 DUP2 MSTORE PUSH1 0x20 SWAP1 DUP2 ADD SWAP4 ADD SWAP2 SWAP1 PUSH1 0x1 ADD PUSH2 0x1BD2 JUMP JUMPDEST DUP7 DUP1 REVERT JUMPDEST PUSH1 0x24 CALLDATALOAD PUSH1 0x4 ADD CALLDATALOAD ISZERO PUSH2 0x1DC9 JUMPI PUSH2 0x1C83 PUSH1 0x7 SLOAD PUSH2 0x2694 JUMP JUMPDEST PUSH1 0x1F DUP2 GT PUSH2 0x1D6C JUMPI JUMPDEST POP DUP3 PUSH1 0x1F PUSH1 0x24 CALLDATALOAD PUSH1 0x4 ADD CALLDATALOAD GT PUSH1 0x1 EQ PUSH2 0x1CE1 JUMPI DUP4 SWAP1 PUSH1 0x24 CALLDATALOAD PUSH1 0x4 ADD CALLDATALOAD PUSH2 0x1CD2 JUMPI JUMPDEST POP PUSH1 0x24 CALLDATALOAD PUSH1 0x4 ADD CALLDATALOAD PUSH1 0x1 SHL SWAP1 PUSH1 0x0 NOT PUSH1 0x24 CALLDATALOAD PUSH1 0x4 ADD CALLDATALOAD PUSH1 0x3 SHL SHR NOT AND OR PUSH1 0x7 SSTORE PUSH2 0x1BBC JUMP JUMPDEST PUSH1 0x24 DUP1 SWAP3 POP CALLDATALOAD ADD ADD CALLDATALOAD CODESIZE PUSH2 0x1CAD JUMP JUMPDEST PUSH1 0x7 DUP5 MSTORE PUSH1 0x0 DUP1 MLOAD PUSH1 0x20 PUSH2 0x31D3 DUP4 CODECOPY DUP2 MLOAD SWAP2 MSTORE SWAP1 PUSH1 0x4 PUSH1 0x24 CALLDATALOAD ADD CALLDATALOAD PUSH1 0x1F NOT AND DUP6 JUMPDEST DUP2 DUP2 LT PUSH2 0x1D50 JUMPI POP PUSH1 0x24 CALLDATALOAD PUSH1 0x4 ADD CALLDATALOAD GT PUSH2 0x1D2D JUMPI JUMPDEST POP POP PUSH1 0x1 PUSH1 0x24 CALLDATALOAD PUSH1 0x4 ADD CALLDATALOAD DUP2 SHL ADD PUSH1 0x7 SSTORE PUSH2 0x1BBC JUMP JUMPDEST PUSH1 0x24 PUSH1 0x0 NOT PUSH1 0xF8 DUP3 CALLDATALOAD PUSH1 0x4 ADD CALLDATALOAD PUSH1 0x3 SHL AND SHR NOT SWAP2 DUP2 CALLDATALOAD ADD ADD CALLDATALOAD AND SWAP1 SSTORE CODESIZE DUP1 PUSH2 0x1D17 JUMP JUMPDEST SWAP2 SWAP3 PUSH1 0x20 PUSH1 0x1 DUP2 SWAP3 PUSH1 0x24 DUP8 DUP2 CALLDATALOAD ADD ADD CALLDATALOAD DUP2 SSTORE ADD SWAP5 ADD SWAP3 ADD PUSH2 0x1D02 JUMP JUMPDEST PUSH1 0x7 DUP5 MSTORE PUSH1 0x0 DUP1 MLOAD PUSH1 0x20 PUSH2 0x31D3 DUP4 CODECOPY DUP2 MLOAD SWAP2 MSTORE PUSH1 0x1F PUSH1 0x24 CALLDATALOAD PUSH1 0x4 ADD CALLDATALOAD ADD PUSH1 0x5 SHR DUP2 ADD SWAP2 PUSH1 0x20 PUSH1 0x24 CALLDATALOAD PUSH1 0x4 ADD CALLDATALOAD LT PUSH2 0x1DBF JUMPI JUMPDEST PUSH1 0x1F ADD PUSH1 0x5 SHR ADD SWAP1 JUMPDEST DUP2 DUP2 LT PUSH2 0x1DB4 JUMPI POP PUSH2 0x1C8C JUMP JUMPDEST DUP5 DUP2 SSTORE PUSH1 0x1 ADD PUSH2 0x1DA7 JUMP JUMPDEST SWAP1 SWAP2 POP DUP2 SWAP1 PUSH2 0x1D9E JUMP JUMPDEST PUSH1 0x40 MLOAD PUSH3 0x461BCD PUSH1 0xE5 SHL DUP2 MSTORE PUSH1 0x20 PUSH1 0x4 DUP3 ADD MSTORE PUSH1 0x8 PUSH1 0x24 DUP3 ADD MSTORE PUSH8 0x28BAB2B9BA34B7B7 PUSH1 0xC1 SHL PUSH1 0x44 DUP3 ADD MSTORE PUSH1 0x64 SWAP1 REVERT JUMPDEST DUP1 ISZERO PUSH2 0x1F5B JUMPI PUSH1 0xFF PUSH32 0x0 AND DUP2 EQ DUP1 PUSH2 0x1F2F JUMPI JUMPDEST PUSH2 0x1E34 SWAP1 PUSH2 0x27E8 JUMP JUMPDEST DUP7 JUMPDEST DUP2 DUP2 LT PUSH2 0x1E4C JUMPI POP POP POP POP POP JUMPDEST CODESIZE DUP1 DUP1 DUP1 PUSH2 0x1B8F JUMP JUMPDEST PUSH2 0x1E57 DUP2 DUP4 DUP8 PUSH2 0x27D8 JUMP JUMPDEST CALLDATALOAD PUSH2 0x1E63 DUP3 DUP6 DUP8 PUSH2 0x27D8 JUMP JUMPDEST CALLDATALOAD LT PUSH2 0x1EFD JUMPI PUSH2 0x1E74 DUP2 DUP4 DUP8 PUSH2 0x27D8 JUMP JUMPDEST CALLDATALOAD PUSH1 0x4 SLOAD SWAP1 PUSH1 0x1 PUSH1 0x40 SHL SWAP2 DUP3 DUP2 LT ISZERO PUSH2 0x1EE9 JUMPI SWAP1 PUSH2 0x1E9B DUP3 PUSH1 0x1 PUSH2 0x1EB4 SWAP5 ADD PUSH1 0x4 SSTORE PUSH2 0x258E JUMP JUMPDEST SWAP1 SWAP2 SWAP1 DUP3 SLOAD SWAP1 PUSH1 0x3 SHL SWAP2 DUP3 SHL SWAP2 PUSH1 0x0 NOT SWAP1 SHL NOT AND OR SWAP1 SSTORE JUMP JUMPDEST PUSH2 0x1EBF DUP3 DUP6 DUP8 PUSH2 0x27D8 JUMP JUMPDEST CALLDATALOAD SWAP1 PUSH1 0x5 DUP1 SLOAD SWAP2 DUP3 LT ISZERO PUSH2 0x1EE9 JUMPI SWAP2 PUSH2 0x1E9B DUP3 PUSH1 0x1 SWAP6 SWAP5 DUP7 PUSH2 0x1EE3 SWAP6 ADD SWAP1 SSTORE PUSH2 0x25FC JUMP JUMPDEST ADD PUSH2 0x1E36 JUMP JUMPDEST PUSH4 0x4E487B71 PUSH1 0xE0 SHL DUP12 MSTORE PUSH1 0x41 PUSH1 0x4 MSTORE PUSH1 0x24 DUP12 REVERT JUMPDEST PUSH1 0x40 MLOAD PUSH3 0x461BCD PUSH1 0xE5 SHL DUP2 MSTORE PUSH1 0x20 PUSH1 0x4 DUP3 ADD MSTORE PUSH1 0xA PUSH1 0x24 DUP3 ADD MSTORE PUSH10 0x42696E20626F756E6473 PUSH1 0xB0 SHL PUSH1 0x44 DUP3 ADD MSTORE PUSH1 0x64 SWAP1 REVERT JUMPDEST POP PUSH32 0x0 PUSH1 0xFF AND DUP3 EQ PUSH2 0x1E2B JUMP JUMPDEST POP POP POP POP PUSH1 0x2 PUSH1 0xFF PUSH32 0x0 AND SUB ISZERO PUSH2 0x1E43 JUMPI PUSH1 0x40 MLOAD PUSH3 0x461BCD PUSH1 0xE5 SHL DUP2 MSTORE PUSH1 0x20 PUSH1 0x4 DUP3 ADD MSTORE PUSH1 0xB PUSH1 0x24 DUP3 ADD MSTORE PUSH11 0x2134B7399037B910271E99 PUSH1 0xA9 SHL PUSH1 0x44 DUP3 ADD MSTORE PUSH1 0x64 SWAP1 REVERT JUMPDEST PUSH4 0x4E487B71 PUSH1 0xE0 SHL DUP8 MSTORE PUSH1 0x21 PUSH1 0x4 MSTORE PUSH1 0x24 DUP8 REVERT JUMPDEST PUSH2 0x1FDD DUP2 DUP9 DUP9 PUSH2 0x27D8 JUMP JUMPDEST CALLDATALOAD PUSH1 0x1 PUSH1 0x1 PUSH1 0xA0 SHL SUB DUP2 AND SWAP1 DUP2 SWAP1 SUB PUSH2 0x2084 JUMPI PUSH1 0x2 DUP1 SLOAD PUSH1 0x1 PUSH1 0x40 SHL SWAP2 DUP3 DUP3 LT ISZERO PUSH2 0x2070 JUMPI PUSH1 0x1 DUP3 ADD SWAP1 SSTORE PUSH2 0x2011 SWAP1 PUSH2 0x25C5 JUMP JUMPDEST SWAP3 DUP2 SLOAD PUSH1 0x3 SWAP5 DUP6 SHL SWAP2 DUP3 SHL SWAP2 PUSH1 0x1 DUP1 PUSH1 0xA0 SHL SUB SWAP1 SHL NOT AND OR SWAP1 SSTORE DUP2 SLOAD SWAP1 DUP2 LT ISZERO PUSH2 0x205C JUMPI SWAP1 PUSH2 0x2047 DUP3 PUSH1 0x1 DUP1 SWAP6 SWAP5 ADD DUP4 SSTORE PUSH2 0x2541 JUMP JUMPDEST SWAP1 SWAP2 DUP3 SLOAD SWAP2 PUSH1 0x0 NOT SWAP2 SHL SHL NOT AND SWAP1 SSTORE ADD PUSH2 0x1B37 JUMP JUMPDEST PUSH4 0x4E487B71 PUSH1 0xE0 SHL DUP11 MSTORE PUSH1 0x41 PUSH1 0x4 MSTORE PUSH1 0x24 DUP11 REVERT JUMPDEST PUSH4 0x4E487B71 PUSH1 0xE0 SHL DUP13 MSTORE PUSH1 0x41 PUSH1 0x4 MSTORE PUSH1 0x24 DUP13 REVERT JUMPDEST DUP9 DUP1 REVERT JUMPDEST PUSH1 0x40 MLOAD PUSH3 0x461BCD PUSH1 0xE5 SHL DUP2 MSTORE PUSH1 0x20 PUSH1 0x4 DUP3 ADD MSTORE PUSH1 0xB PUSH1 0x24 DUP3 ADD MSTORE PUSH11 0x151BDAD95B8818DBDD5B9D PUSH1 0xAA SHL PUSH1 0x44 DUP3 ADD MSTORE PUSH1 0x64 SWAP1 REVERT JUMPDEST PUSH1 0x40 MLOAD PUSH3 0xDC149F PUSH1 0xE4 SHL DUP2 MSTORE PUSH1 0x4 SWAP1 REVERT JUMPDEST PUSH1 0x40 MLOAD PUSH4 0x636A157 PUSH1 0xE1 SHL DUP2 MSTORE PUSH1 0x4 SWAP1 REVERT JUMPDEST DUP4 DUP1 REVERT JUMPDEST POP CALLVALUE PUSH2 0x2A7 JUMPI DUP1 PUSH1 0x3 NOT CALLDATASIZE ADD SLT PUSH2 0x2A7 JUMPI PUSH1 0x20 PUSH1 0xFF PUSH1 0xD SLOAD PUSH1 0xA0 SHR AND PUSH1 0x40 MLOAD SWAP1 ISZERO ISZERO DUP2 MSTORE RETURN JUMPDEST POP CALLVALUE PUSH2 0x2A7 JUMPI DUP1 PUSH1 0x3 NOT CALLDATASIZE ADD SLT PUSH2 0x2A7 JUMPI PUSH1 0x40 MLOAD PUSH32 0x0 PUSH1 0x1 PUSH1 0x1 PUSH1 0xA0 SHL SUB AND DUP2 MSTORE PUSH1 0x20 SWAP1 RETURN JUMPDEST POP CALLVALUE PUSH2 0x2A7 JUMPI DUP1 PUSH1 0x3 NOT CALLDATASIZE ADD SLT PUSH2 0x2A7 JUMPI PUSH2 0x2166 PUSH2 0x2A53 JUMP JUMPDEST PUSH1 0x6 SLOAD PUSH1 0xFF SWAP1 DUP2 DUP2 AND ISZERO PUSH2 0x7C7 JUMPI PUSH32 0x0 PUSH1 0x2 DUP2 LT ISZERO PUSH2 0x23ED JUMPI PUSH2 0xB78 JUMPI PUSH1 0x8 SHR DUP2 AND PUSH2 0x21B0 DUP2 PUSH2 0x2674 JUMP JUMPDEST PUSH2 0xB78 JUMPI PUSH32 0x0 TIMESTAMP LT PUSH2 0xB66 JUMPI PUSH1 0x40 MLOAD PUSH4 0x3FABE5A3 PUSH1 0xE2 SHL DUP2 MSTORE SWAP1 PUSH32 0x0 PUSH1 0x1 PUSH1 0x1 PUSH1 0xA0 SHL SUB AND PUSH1 0xA0 DUP4 PUSH1 0x4 DUP2 DUP5 GAS STATICCALL DUP1 ISZERO PUSH2 0x2333 JUMPI DUP5 SWAP4 DUP6 SWAP2 PUSH2 0x2399 JUMPI JUMPDEST POP DUP5 DUP5 SGT ISZERO PUSH2 0x236B JUMPI PUSH2 0x223E SWAP1 TIMESTAMP PUSH2 0x2771 JUMP JUMPDEST PUSH32 0x0 LT PUSH2 0x233E JUMPI PUSH1 0x20 PUSH1 0x4 SWAP2 PUSH1 0x40 MLOAD SWAP3 DUP4 DUP1 SWAP3 PUSH4 0x313CE567 PUSH1 0xE0 SHL DUP3 MSTORE GAS STATICCALL DUP1 ISZERO PUSH2 0x2333 JUMPI DUP3 SWAP2 DUP6 SWAP2 PUSH2 0x22F5 JUMPI JUMPDEST POP AND PUSH1 0x6 DUP2 LT PUSH2 0x22D2 JUMPI PUSH1 0x5 NOT ADD SWAP1 DUP2 GT PUSH2 0x22BE JUMPI SWAP1 PUSH2 0x1966 PUSH2 0x22B9 PUSH2 0x22B3 PUSH2 0xFA6 SWAP5 PUSH2 0x2794 JUMP JUMPDEST DUP4 PUSH2 0x27B8 JUMP JUMPDEST PUSH2 0x2A83 JUMP JUMPDEST PUSH4 0x4E487B71 PUSH1 0xE0 SHL DUP4 MSTORE PUSH1 0x11 PUSH1 0x4 MSTORE PUSH1 0x24 DUP4 REVERT JUMPDEST PUSH1 0x6 SUB SWAP1 DUP2 GT PUSH2 0x22BE JUMPI SWAP1 PUSH2 0x1966 PUSH2 0x22B9 PUSH2 0x22EF PUSH2 0xFA6 SWAP5 PUSH2 0x2794 JUMP JUMPDEST DUP4 PUSH2 0x27A5 JUMP JUMPDEST SWAP2 POP POP PUSH1 0x20 DUP2 RETURNDATASIZE PUSH1 0x20 GT PUSH2 0x232B JUMPI JUMPDEST DUP2 PUSH2 0x2311 PUSH1 0x20 SWAP4 DUP4 PUSH2 0x26F8 JUMP JUMPDEST DUP2 ADD SUB SLT PUSH2 0x20DE JUMPI MLOAD DUP2 DUP2 AND DUP2 SUB PUSH2 0x20DE JUMPI DUP2 SWAP1 CODESIZE PUSH2 0x228B JUMP JUMPDEST RETURNDATASIZE SWAP2 POP PUSH2 0x2304 JUMP JUMPDEST PUSH1 0x40 MLOAD RETURNDATASIZE DUP7 DUP3 RETURNDATACOPY RETURNDATASIZE SWAP1 REVERT JUMPDEST PUSH1 0x40 MLOAD PUSH3 0x461BCD PUSH1 0xE5 SHL DUP2 MSTORE PUSH1 0x20 PUSH1 0x4 DUP3 ADD MSTORE PUSH1 0x5 PUSH1 0x24 DUP3 ADD MSTORE PUSH5 0x5374616C65 PUSH1 0xD8 SHL PUSH1 0x44 DUP3 ADD MSTORE PUSH1 0x64 SWAP1 REVERT JUMPDEST PUSH1 0x40 MLOAD PUSH3 0x461BCD PUSH1 0xE5 SHL DUP2 MSTORE PUSH1 0x20 PUSH1 0x4 DUP3 ADD MSTORE PUSH1 0x6 PUSH1 0x24 DUP3 ADD MSTORE PUSH6 0x20B739BBB2B9 PUSH1 0xD1 SHL PUSH1 0x44 DUP3 ADD MSTORE PUSH1 0x64 SWAP1 REVERT JUMPDEST SWAP4 POP POP PUSH1 0xA0 DUP4 RETURNDATASIZE PUSH1 0xA0 GT PUSH2 0x23E5 JUMPI JUMPDEST DUP2 PUSH2 0x23B5 PUSH1 0xA0 SWAP4 DUP4 PUSH2 0x26F8 JUMP JUMPDEST DUP2 ADD SUB SLT PUSH2 0x20DE JUMPI PUSH2 0x23C6 DUP4 PUSH2 0x275A JUMP JUMPDEST POP PUSH1 0x20 DUP4 ADD MLOAD PUSH2 0x23DD PUSH1 0x80 PUSH1 0x60 DUP7 ADD MLOAD SWAP6 ADD PUSH2 0x275A JUMP JUMPDEST POP SWAP3 CODESIZE PUSH2 0x222B JUMP JUMPDEST RETURNDATASIZE SWAP2 POP PUSH2 0x23A8 JUMP JUMPDEST PUSH4 0x4E487B71 PUSH1 0xE0 SHL DUP5 MSTORE PUSH1 0x21 PUSH1 0x4 MSTORE PUSH1 0x24 DUP5 REVERT JUMPDEST POP CALLVALUE PUSH2 0x2A7 JUMPI DUP1 PUSH1 0x3 NOT CALLDATASIZE ADD SLT PUSH2 0x2A7 JUMPI PUSH1 0x20 PUSH1 0xFF PUSH1 0x6 SLOAD AND PUSH1 0x40 MLOAD SWAP1 ISZERO ISZERO DUP2 MSTORE RETURN JUMPDEST POP CALLVALUE PUSH2 0x2A7 JUMPI DUP1 PUSH1 0x3 NOT CALLDATASIZE ADD SLT PUSH2 0x2A7 JUMPI PUSH1 0x20 PUSH1 0x40 MLOAD PUSH1 0x32 DUP2 MSTORE RETURN JUMPDEST POP CALLVALUE PUSH2 0x2A7 JUMPI PUSH1 0x20 CALLDATASIZE PUSH1 0x3 NOT ADD SLT PUSH2 0x2A7 JUMPI PUSH1 0x4 CALLDATALOAD SWAP1 PUSH1 0x4 SLOAD DUP3 LT ISZERO PUSH2 0x2A7 JUMPI PUSH1 0x20 PUSH2 0x346 DUP4 PUSH2 0x258E JUMP JUMPDEST POP CALLVALUE PUSH2 0x2A7 JUMPI DUP1 PUSH1 0x3 NOT CALLDATASIZE ADD SLT PUSH2 0x2A7 JUMPI PUSH1 0x40 MLOAD PUSH32 0x0 PUSH1 0x1 PUSH1 0x1 PUSH1 0xA0 SHL SUB AND DUP2 MSTORE PUSH1 0x20 SWAP1 RETURN JUMPDEST POP CALLVALUE PUSH2 0x2A7 JUMPI PUSH1 0x20 CALLDATASIZE PUSH1 0x3 NOT ADD SLT PUSH2 0x2A7 JUMPI PUSH1 0x4 CALLDATALOAD SWAP1 PUSH1 0x3 SLOAD DUP3 LT ISZERO PUSH2 0x2A7 JUMPI PUSH1 0x20 PUSH2 0x24DB DUP4 PUSH2 0x2541 JUMP JUMPDEST SWAP1 SLOAD SWAP1 PUSH1 0x3 SHL SHR PUSH1 0x40 MLOAD SWAP1 DUP2 MSTORE RETURN JUMPDEST POP CALLVALUE PUSH2 0x2A7 JUMPI DUP1 PUSH1 0x3 NOT CALLDATASIZE ADD SLT PUSH2 0x2A7 JUMPI PUSH1 0x20 PUSH1 0x40 MLOAD PUSH2 0x12C DUP2 MSTORE RETURN JUMPDEST SWAP1 POP CALLVALUE PUSH2 0xFCF JUMPI DUP2 PUSH1 0x3 NOT CALLDATASIZE ADD SLT PUSH2 0xFCF JUMPI PUSH1 0x20 SWAP1 PUSH32 0x0 DUP2 MSTORE RETURN JUMPDEST PUSH1 0x3 SLOAD DUP2 LT ISZERO PUSH2 0x2578 JUMPI PUSH1 0x3 PUSH1 0x0 MSTORE PUSH32 0xC2575A0E9E593C00F959F8C92F12DB2869C3395A3B0502D05E2516446F71F85B ADD SWAP1 PUSH1 0x0 SWAP1 JUMP JUMPDEST PUSH4 0x4E487B71 PUSH1 0xE0 SHL PUSH1 0x0 MSTORE PUSH1 0x32 PUSH1 0x4 MSTORE PUSH1 0x24 PUSH1 0x0 REVERT JUMPDEST PUSH1 0x4 SLOAD DUP2 LT ISZERO PUSH2 0x2578 JUMPI PUSH1 0x4 PUSH1 0x0 MSTORE PUSH32 0x8A35ACFBC15FF81A39AE7D344FD709F28E8600B4AA8C65C6B64BFE7FE36BD19B ADD SWAP1 PUSH1 0x0 SWAP1 JUMP JUMPDEST PUSH1 0x2 SLOAD DUP2 LT ISZERO PUSH2 0x2578 JUMPI PUSH1 0x2 PUSH1 0x0 MSTORE PUSH32 0x405787FA12A823E0F2B7631CC41B3BA8828B3321CA811111FA75CD3AA3BB5ACE ADD SWAP1 PUSH1 0x0 SWAP1 JUMP JUMPDEST PUSH1 0x5 SLOAD DUP2 LT ISZERO PUSH2 0x2578 JUMPI PUSH1 0x5 PUSH1 0x0 MSTORE PUSH32 0x36B6384B5ECA791C62761152D0C79BB0604C104A5FB6F4EB0703F3154BB3DB0 ADD SWAP1 PUSH1 0x0 SWAP1 JUMP JUMPDEST SWAP2 DUP2 PUSH1 0x1F DUP5 ADD SLT ISZERO PUSH2 0x316 JUMPI DUP3 CALLDATALOAD SWAP2 PUSH8 0xFFFFFFFFFFFFFFFF DUP4 GT PUSH2 0x316 JUMPI PUSH1 0x20 DUP1 DUP6 ADD SWAP5 DUP5 PUSH1 0x5 SHL ADD ADD GT PUSH2 0x316 JUMPI JUMP JUMPDEST PUSH1 0x4 CALLDATALOAD SWAP1 PUSH1 0xFF DUP3 AND DUP3 SUB PUSH2 0x316 JUMPI JUMP JUMPDEST PUSH1 0x3 GT ISZERO PUSH2 0x267E JUMPI JUMP JUMPDEST PUSH4 0x4E487B71 PUSH1 0xE0 SHL PUSH1 0x0 MSTORE PUSH1 0x21 PUSH1 0x4 MSTORE PUSH1 0x24 PUSH1 0x0 REVERT JUMPDEST SWAP1 PUSH1 0x1 DUP3 DUP2 SHR SWAP3 AND DUP1 ISZERO PUSH2 0x26C4 JUMPI JUMPDEST PUSH1 0x20 DUP4 LT EQ PUSH2 0x26AE JUMPI JUMP JUMPDEST PUSH4 0x4E487B71 PUSH1 0xE0 SHL PUSH1 0x0 MSTORE PUSH1 0x22 PUSH1 0x4 MSTORE PUSH1 0x24 PUSH1 0x0 REVERT JUMPDEST SWAP2 PUSH1 0x7F AND SWAP2 PUSH2 0x26A3 JUMP JUMPDEST PUSH8 0xFFFFFFFFFFFFFFFF DUP2 GT PUSH2 0x26E2 JUMPI PUSH1 0x40 MSTORE JUMP JUMPDEST PUSH4 0x4E487B71 PUSH1 0xE0 SHL PUSH1 0x0 MSTORE PUSH1 0x41 PUSH1 0x4 MSTORE PUSH1 0x24 PUSH1 0x0 REVERT JUMPDEST SWAP1 PUSH1 0x1F DUP1 NOT SWAP2 ADD AND DUP2 ADD SWAP1 DUP2 LT PUSH8 0xFFFFFFFFFFFFFFFF DUP3 GT OR PUSH2 0x26E2 JUMPI PUSH1 0x40 MSTORE JUMP JUMPDEST SWAP2 SWAP1 DUP3 MLOAD SWAP3 DUP4 DUP3 MSTORE PUSH1 0x0 JUMPDEST DUP5 DUP2 LT PUSH2 0x2746 JUMPI POP POP DUP3 PUSH1 0x0 PUSH1 0x20 DUP1 SWAP5 SWAP6 DUP5 ADD ADD MSTORE PUSH1 0x1F DUP1 NOT SWAP2 ADD AND ADD ADD SWAP1 JUMP JUMPDEST PUSH1 0x20 DUP2 DUP4 ADD DUP2 ADD MLOAD DUP5 DUP4 ADD DUP3 ADD MSTORE ADD PUSH2 0x2725 JUMP JUMPDEST MLOAD SWAP1 PUSH10 0xFFFFFFFFFFFFFFFFFFFF DUP3 AND DUP3 SUB PUSH2 0x316 JUMPI JUMP JUMPDEST SWAP2 SWAP1 DUP3 SUB SWAP2 DUP3 GT PUSH2 0x277E JUMPI JUMP JUMPDEST PUSH4 0x4E487B71 PUSH1 0xE0 SHL PUSH1 0x0 MSTORE PUSH1 0x11 PUSH1 0x4 MSTORE PUSH1 0x24 PUSH1 0x0 REVERT JUMPDEST PUSH1 0xFF AND PUSH1 0x4D DUP2 GT PUSH2 0x277E JUMPI PUSH1 0xA EXP SWAP1 JUMP JUMPDEST DUP2 DUP2 MUL SWAP3 SWAP2 DUP2 ISZERO SWAP2 DUP5 DIV EQ OR ISZERO PUSH2 0x277E JUMPI JUMP JUMPDEST DUP2 ISZERO PUSH2 0x27C2 JUMPI DIV SWAP1 JUMP JUMPDEST PUSH4 0x4E487B71 PUSH1 0xE0 SHL PUSH1 0x0 MSTORE PUSH1 0x12 PUSH1 0x4 MSTORE PUSH1 0x24 PUSH1 0x0 REVERT JUMPDEST SWAP2 SWAP1 DUP2 LT ISZERO PUSH2 0x2578 JUMPI PUSH1 0x5 SHL ADD SWAP1 JUMP JUMPDEST ISZERO PUSH2 0x27EF JUMPI JUMP JUMPDEST PUSH1 0x64 PUSH1 0x40 MLOAD PUSH3 0x461BCD PUSH1 0xE5 SHL DUP2 MSTORE PUSH1 0x20 PUSH1 0x4 DUP3 ADD MSTORE PUSH1 0x4 PUSH1 0x24 DUP3 ADD MSTORE PUSH4 0x42696E73 PUSH1 0xE0 SHL PUSH1 0x44 DUP3 ADD MSTORE REVERT JUMPDEST PUSH1 0x40 MLOAD SWAP1 PUSH1 0x0 DUP3 PUSH1 0x7 SLOAD SWAP2 PUSH2 0x282E DUP4 PUSH2 0x2694 JUMP JUMPDEST DUP1 DUP4 MSTORE SWAP3 PUSH1 0x20 SWAP1 PUSH1 0x1 SWAP1 DUP2 DUP2 AND SWAP1 DUP2 ISZERO PUSH2 0x28AA JUMPI POP PUSH1 0x1 EQ PUSH2 0x285B JUMPI JUMPDEST POP POP PUSH2 0x2859 SWAP3 POP SUB DUP4 PUSH2 0x26F8 JUMP JUMPDEST JUMP JUMPDEST SWAP2 POP SWAP3 PUSH1 0x7 PUSH1 0x0 MSTORE PUSH1 0x0 DUP1 MLOAD PUSH1 0x20 PUSH2 0x31D3 DUP4 CODECOPY DUP2 MLOAD SWAP2 MSTORE SWAP4 PUSH1 0x0 SWAP3 JUMPDEST DUP3 DUP5 LT PUSH2 0x2892 JUMPI POP PUSH2 0x2859 SWAP5 POP POP POP DUP2 ADD PUSH1 0x20 ADD CODESIZE DUP1 PUSH2 0x284B JUMP JUMPDEST DUP6 SLOAD DUP9 DUP6 ADD DUP4 ADD MSTORE SWAP5 DUP6 ADD SWAP5 DUP8 SWAP5 POP SWAP3 DUP2 ADD SWAP3 PUSH2 0x2877 JUMP JUMPDEST SWAP2 POP POP PUSH1 0x20 SWAP3 POP PUSH2 0x2859 SWAP5 SWAP2 POP PUSH1 0xFF NOT AND DUP3 DUP5 ADD MSTORE ISZERO ISZERO PUSH1 0x5 SHL DUP3 ADD ADD CODESIZE DUP1 PUSH2 0x284B JUMP JUMPDEST ISZERO PUSH2 0x28D5 JUMPI JUMP JUMPDEST PUSH1 0x40 MLOAD PUSH3 0x461BCD PUSH1 0xE5 SHL DUP2 MSTORE PUSH1 0x20 PUSH1 0x4 DUP3 ADD MSTORE PUSH1 0x6 PUSH1 0x24 DUP3 ADD MSTORE PUSH6 0x105B5BDD5B9D PUSH1 0xD2 SHL PUSH1 0x44 DUP3 ADD MSTORE PUSH1 0x64 SWAP1 REVERT JUMPDEST ISZERO PUSH2 0x290A JUMPI JUMP JUMPDEST PUSH1 0x40 MLOAD PUSH3 0x461BCD PUSH1 0xE5 SHL DUP2 MSTORE PUSH1 0x20 PUSH1 0x4 DUP3 ADD MSTORE PUSH1 0x5 PUSH1 0x24 DUP3 ADD MSTORE PUSH5 0x5072696365 PUSH1 0xD8 SHL PUSH1 0x44 DUP3 ADD MSTORE PUSH1 0x64 SWAP1 REVERT JUMPDEST SWAP2 SWAP1 DUP3 ADD DUP1 SWAP3 GT PUSH2 0x277E JUMPI JUMP JUMPDEST PUSH1 0xFF PUSH1 0x6 SLOAD AND ISZERO PUSH2 0x7C7 JUMPI PUSH1 0xFF PUSH32 0x0 AND SWAP1 DUP2 PUSH1 0xFF DUP3 AND LT ISZERO PUSH2 0x1022 JUMPI PUSH1 0x0 SWAP2 PUSH1 0x0 PUSH32 0x0 SWAP2 JUMPDEST DUP1 DUP3 LT PUSH2 0x2A24 JUMPI POP POP DUP3 ISZERO PUSH2 0x29F6 JUMPI PUSH2 0x29C2 PUSH2 0x29CF SWAP3 PUSH2 0x2541 JUMP JUMPDEST SWAP1 SLOAD SWAP1 PUSH1 0x3 SHL SHR SWAP1 PUSH2 0x2937 JUMP JUMPDEST SWAP1 PUSH8 0xDE0B6B3A7640000 SWAP2 DUP3 DUP2 MUL SWAP3 DUP2 DUP5 DIV EQ SWAP1 ISZERO OR ISZERO PUSH2 0x277E JUMPI PUSH2 0x29F3 SWAP2 PUSH2 0x27B8 JUMP JUMPDEST SWAP1 JUMP JUMPDEST PUSH1 0x40 MLOAD PUSH3 0x461BCD PUSH1 0xE5 SHL DUP2 MSTORE PUSH1 0x20 PUSH1 0x4 DUP3 ADD MSTORE PUSH1 0x6 PUSH1 0x24 DUP3 ADD MSTORE PUSH6 0x15D95A59DA1D PUSH1 0xD2 SHL PUSH1 0x44 DUP3 ADD MSTORE PUSH1 0x64 SWAP1 REVERT JUMPDEST SWAP1 SWAP4 PUSH2 0x2A4B PUSH1 0x1 SWAP2 PUSH2 0x2A45 PUSH2 0x2A38 DUP9 PUSH2 0x2541 JUMP JUMPDEST SWAP1 SLOAD SWAP1 PUSH1 0x3 SHL SHR DUP7 PUSH2 0x2937 JUMP JUMPDEST SWAP1 PUSH2 0x2937 JUMP JUMPDEST SWAP5 ADD SWAP1 PUSH2 0x29A7 JUMP JUMPDEST PUSH1 0x0 DUP1 MLOAD PUSH1 0x20 PUSH2 0x31F3 DUP4 CODECOPY DUP2 MLOAD SWAP2 MSTORE PUSH1 0x2 DUP2 SLOAD EQ PUSH2 0x2A71 JUMPI PUSH1 0x2 SWAP1 SSTORE JUMP JUMPDEST PUSH1 0x40 MLOAD PUSH4 0x3EE5AEB5 PUSH1 0xE0 SHL DUP2 MSTORE PUSH1 0x4 SWAP1 REVERT JUMPDEST PUSH1 0x4 DUP1 SLOAD SWAP1 PUSH1 0xFF PUSH32 0x0 AND DUP1 SWAP3 EQ PUSH2 0x2BB8 JUMPI POP PUSH1 0x2 PUSH2 0x2AC0 SWAP2 EQ PUSH2 0x27E8 JUMP JUMPDEST PUSH32 0x0 PUSH2 0x2AEA DUP2 PUSH2 0x2674 JUMP JUMPDEST DUP1 PUSH2 0x2B23 JUMPI POP PUSH32 0x0 GT ISZERO JUMPDEST ISZERO PUSH2 0x2B1E JUMPI PUSH1 0x0 SWAP1 JUMP JUMPDEST PUSH1 0x1 SWAP1 JUMP JUMPDEST DUP1 PUSH2 0x2B2F PUSH1 0x1 SWAP3 PUSH2 0x2674 JUMP JUMPDEST SUB PUSH2 0x2B5C JUMPI PUSH32 0x0 LT ISZERO PUSH2 0x2B14 JUMP JUMPDEST PUSH32 0x0 DUP2 LT ISZERO SWAP1 DUP2 PUSH2 0x2B8D JUMPI JUMPDEST POP PUSH2 0x2B14 JUMP JUMPDEST SWAP1 POP PUSH32 0x0 LT ISZERO CODESIZE PUSH2 0x2B87 JUMP JUMPDEST SWAP1 PUSH1 0x0 SWAP2 DUP3 SWAP4 DUP4 JUMPDEST DUP4 DUP2 LT PUSH2 0x2C04 JUMPI POP POP POP POP PUSH1 0x1 SUB PUSH2 0x2BD5 JUMPI SWAP1 JUMP JUMPDEST PUSH1 0x40 MLOAD PUSH3 0x461BCD PUSH1 0xE5 SHL DUP2 MSTORE PUSH1 0x20 PUSH1 0x4 DUP3 ADD MSTORE PUSH1 0x7 PUSH1 0x24 DUP3 ADD MSTORE PUSH7 0x27B732903134B7 PUSH1 0xC9 SHL PUSH1 0x44 DUP3 ADD MSTORE PUSH1 0x64 SWAP1 REVERT JUMPDEST PUSH2 0x2C0D DUP2 PUSH2 0x258E JUMP JUMPDEST SWAP1 SLOAD PUSH1 0x3 SWAP2 DUP3 SHL SHR DUP4 LT ISZERO SWAP1 DUP2 PUSH2 0x2C58 JUMPI JUMPDEST POP PUSH2 0x2C2D JUMPI JUMPDEST PUSH1 0x1 ADD PUSH2 0x2BC0 JUMP JUMPDEST SWAP5 POP SWAP3 PUSH1 0x0 NOT DUP2 EQ PUSH2 0x2C43 JUMPI PUSH1 0x1 ADD SWAP3 DUP5 PUSH2 0x2C25 JUMP JUMPDEST PUSH1 0x11 DUP3 PUSH4 0x4E487B71 PUSH1 0xE0 SHL PUSH1 0x0 MSTORE MSTORE PUSH1 0x24 PUSH1 0x0 REVERT JUMPDEST SWAP1 POP PUSH2 0x2C63 DUP3 PUSH2 0x25FC JUMP JUMPDEST SWAP1 SLOAD SWAP2 SHL SHR DUP3 GT ISZERO CODESIZE PUSH2 0x2C1F JUMP JUMPDEST PUSH1 0x0 SWAP1 PUSH32 0x0 PUSH1 0xFF AND DUP3 JUMPDEST DUP2 DUP2 LT PUSH2 0x2F1E JUMPI POP POP PUSH2 0x12C SWAP2 DUP3 DUP2 MUL SWAP1 DUP1 ISZERO SWAP4 DUP2 DUP4 DIV EQ DUP5 OR ISZERO PUSH2 0x277E JUMPI PUSH2 0x2710 DUP1 SWAP3 DIV SWAP4 PUSH1 0x32 DUP3 MUL SWAP1 DUP3 DUP3 DIV PUSH1 0x32 EQ OR ISZERO PUSH2 0x277E JUMPI PUSH1 0x4 SWAP3 PUSH1 0x20 SWAP2 DIV PUSH2 0x2CEC DUP7 PUSH2 0x2CE6 DUP4 DUP3 PUSH2 0x2771 JUMP JUMPDEST SWAP5 PUSH2 0x2771 JUMP JUMPDEST SWAP3 PUSH2 0x2CF6 DUP7 PUSH2 0x25C5 JUMP JUMPDEST SWAP1 SLOAD PUSH1 0x40 MLOAD PUSH4 0x18160DDD PUSH1 0xE0 SHL DUP2 MSTORE SWAP7 PUSH1 0x1 PUSH1 0x1 PUSH1 0xA0 SHL SUB SWAP6 SWAP3 DUP9 SWAP3 DUP4 SWAP2 PUSH1 0x3 SHL SHR DUP8 AND GAS STATICCALL SWAP5 DUP6 ISZERO PUSH2 0x2F12 JUMPI PUSH1 0x0 SWAP6 PUSH2 0x2EDE JUMPI JUMPDEST POP PUSH2 0x2D35 DUP7 PUSH2 0x2541 JUMP JUMPDEST SWAP1 SLOAD SWAP1 PUSH1 0x3 SHL SHR SWAP3 DUP8 PUSH2 0x2E52 JUMPI JUMPDEST POP POP DUP4 ISZERO SWAP1 POP PUSH2 0x2DE0 JUMPI DUP2 PUSH2 0x2D57 SWAP2 PUSH2 0x2937 JUMP JUMPDEST SWAP5 PUSH8 0xDE0B6B3A7640000 SWAP6 DUP7 DUP2 MUL SWAP7 DUP2 DUP9 DIV EQ SWAP1 ISZERO OR ISZERO PUSH2 0x277E JUMPI PUSH2 0x2DA0 PUSH2 0x2DDB SWAP4 PUSH32 0x1156C82479E3534DDD36CA57CD84557FD8B25737545B9B3572C4F2878613AF54 SWAP8 PUSH2 0x27B8 JUMP JUMPDEST PUSH1 0xA SSTORE JUMPDEST DUP4 PUSH1 0x9 SSTORE PUSH1 0xB SSTORE TIMESTAMP PUSH1 0xC SSTORE PUSH2 0x200 PUSH2 0xFF00 NOT PUSH1 0x6 SLOAD AND OR PUSH1 0x6 SSTORE PUSH1 0x40 MLOAD SWAP4 DUP5 SWAP4 DUP5 PUSH1 0x40 SWAP2 SWAP5 SWAP4 SWAP3 PUSH1 0x60 DUP3 ADD SWAP6 DUP3 MSTORE PUSH1 0x20 DUP3 ADD MSTORE ADD MSTORE JUMP JUMPDEST SUB SWAP1 LOG1 JUMP JUMPDEST PUSH2 0x2DDB SWAP3 POP SWAP5 PUSH2 0x2E16 DUP3 PUSH32 0x1156C82479E3534DDD36CA57CD84557FD8B25737545B9B3572C4F2878613AF54 SWAP8 PUSH1 0x0 PUSH1 0xA SSTORE PUSH2 0x2937 JUMP JUMPDEST DUP1 PUSH2 0x2E22 JUMPI JUMPDEST POP PUSH2 0x2DA4 JUMP JUMPDEST PUSH2 0x2E4C SWAP1 PUSH32 0x0 PUSH2 0x30BD JUMP JUMPDEST CODESIZE PUSH2 0x2E1C JUMP JUMPDEST DUP1 PUSH1 0xD SLOAD AND ISZERO ISZERO DUP1 PUSH2 0x2ED5 JUMPI JUMPDEST ISZERO PUSH2 0x2EA3 JUMPI PUSH2 0x2E9B SWAP3 PUSH2 0x2E75 SWAP2 PUSH1 0xD SLOAD AND PUSH2 0x30BD JUMP JUMPDEST PUSH32 0x0 PUSH2 0x30BD JUMP JUMPDEST CODESIZE DUP1 DUP1 PUSH2 0x2D43 JUMP JUMPDEST POP POP POP PUSH2 0x2ED0 DUP6 PUSH32 0x0 PUSH2 0x30BD JUMP JUMPDEST PUSH2 0x2E9B JUMP JUMPDEST POP DUP3 ISZERO ISZERO PUSH2 0x2E5F JUMP JUMPDEST SWAP1 SWAP5 POP PUSH1 0x20 DUP2 RETURNDATASIZE PUSH1 0x20 GT PUSH2 0x2F0A JUMPI JUMPDEST DUP2 PUSH2 0x2EFA PUSH1 0x20 SWAP4 DUP4 PUSH2 0x26F8 JUMP JUMPDEST DUP2 ADD SUB SLT PUSH2 0x316 JUMPI MLOAD SWAP4 CODESIZE PUSH2 0x2D2B JUMP JUMPDEST RETURNDATASIZE SWAP2 POP PUSH2 0x2EED JUMP JUMPDEST PUSH1 0x40 MLOAD RETURNDATASIZE PUSH1 0x0 DUP3 RETURNDATACOPY RETURNDATASIZE SWAP1 REVERT JUMPDEST DUP3 DUP2 SUB PUSH2 0x2F2E JUMPI JUMPDEST PUSH1 0x1 ADD PUSH2 0x2C9A JUMP JUMPDEST SWAP3 PUSH2 0x2F3E PUSH1 0x1 SWAP2 PUSH2 0x29C2 DUP7 PUSH2 0x2541 JUMP JUMPDEST SWAP4 SWAP1 POP PUSH2 0x2F26 JUMP JUMPDEST PUSH1 0xFF PUSH32 0x0 AND SWAP1 PUSH1 0x2 DUP3 EQ PUSH2 0x3002 JUMPI PUSH1 0x0 DUP2 SLT PUSH2 0x2FD0 JUMPI PUSH8 0xDE0B6B3A7640000 SWAP1 DUP2 DUP2 LT PUSH2 0x2FC8 JUMPI DIV SWAP1 JUMPDEST DUP2 LT ISZERO PUSH2 0x2F99 JUMPI SWAP1 JUMP JUMPDEST PUSH1 0x40 MLOAD PUSH3 0x461BCD PUSH1 0xE5 SHL DUP2 MSTORE PUSH1 0x20 PUSH1 0x4 DUP3 ADD MSTORE PUSH1 0x7 PUSH1 0x24 DUP3 ADD MSTORE PUSH7 0xAA9A8240D2C8F PUSH1 0xCB SHL PUSH1 0x44 DUP3 ADD MSTORE PUSH1 0x64 SWAP1 REVERT JUMPDEST SWAP1 POP SWAP1 PUSH2 0x2F8F JUMP JUMPDEST PUSH1 0x40 MLOAD PUSH3 0x461BCD PUSH1 0xE5 SHL DUP2 MSTORE PUSH1 0x20 PUSH1 0x4 DUP3 ADD MSTORE PUSH1 0xA PUSH1 0x24 DUP3 ADD MSTORE PUSH10 0x283934B1B29039B4B3B7 PUSH1 0xB1 SHL PUSH1 0x44 DUP3 ADD MSTORE PUSH1 0x64 SWAP1 REVERT JUMPDEST PUSH8 0xDE0B6B3A7640000 SWAP2 POP EQ PUSH2 0x3017 JUMPI PUSH1 0x1 SWAP1 JUMP JUMPDEST PUSH1 0x0 SWAP1 JUMP JUMPDEST PUSH1 0x40 MLOAD PUSH4 0x23B872DD PUSH1 0xE0 SHL PUSH1 0x0 SWAP1 DUP2 MSTORE PUSH1 0x1 PUSH1 0x1 PUSH1 0xA0 SHL SUB SWAP4 DUP5 AND PUSH1 0x4 MSTORE SWAP4 DUP4 AND PUSH1 0x24 MSTORE PUSH1 0x44 SWAP5 SWAP1 SWAP5 MSTORE SWAP1 SWAP2 PUSH1 0x20 SWAP1 PUSH1 0x64 DUP2 DUP1 DUP6 GAS CALL PUSH1 0x1 PUSH1 0x0 MLOAD EQ DUP2 AND ISZERO PUSH2 0x3089 JUMPI JUMPDEST DUP4 PUSH1 0x40 MSTORE PUSH1 0x0 PUSH1 0x60 MSTORE ISZERO PUSH2 0x3073 JUMPI POP POP POP JUMP JUMPDEST PUSH4 0x5274AFE7 PUSH1 0xE0 SHL DUP4 MSTORE AND PUSH1 0x4 DUP3 ADD MSTORE PUSH1 0x24 SWAP2 POP REVERT JUMPDEST PUSH1 0x1 DUP2 ISZERO AND PUSH2 0x309F JUMPI DUP2 EXTCODESIZE ISZERO ISZERO RETURNDATASIZE ISZERO AND AND PUSH2 0x3060 JUMP JUMPDEST DUP4 RETURNDATASIZE PUSH1 0x0 DUP3 RETURNDATACOPY RETURNDATASIZE SWAP1 REVERT JUMPDEST PUSH1 0x0 SLOAD PUSH1 0x1 PUSH1 0x1 PUSH1 0xA0 SHL SUB AND CALLER SUB PUSH2 0x1340 JUMPI JUMP JUMPDEST SWAP1 PUSH1 0x1 PUSH1 0x1 PUSH1 0xA0 SHL SUB PUSH32 0x0 DUP2 AND DUP1 PUSH2 0x30F9 JUMPI POP PUSH2 0x2859 SWAP3 AND PUSH2 0x314E JUMP JUMPDEST SWAP2 SWAP1 PUSH1 0x20 SWAP2 PUSH1 0x0 SWAP2 PUSH1 0x40 MLOAD SWAP6 PUSH4 0xA9059CBB PUSH1 0xE0 SHL DUP5 MSTORE AND PUSH1 0x4 MSTORE PUSH1 0x24 MSTORE PUSH1 0x44 DUP2 DUP1 DUP6 GAS CALL PUSH1 0x1 PUSH1 0x0 MLOAD EQ DUP2 AND ISZERO PUSH2 0x3138 JUMPI JUMPDEST DUP3 PUSH1 0x40 MSTORE ISZERO PUSH2 0xAF0 JUMPI POP POP JUMP JUMPDEST PUSH1 0x1 DUP2 ISZERO AND PUSH2 0xB1A JUMPI DUP2 EXTCODESIZE ISZERO ISZERO RETURNDATASIZE ISZERO AND AND PUSH2 0x312B JUMP JUMPDEST DUP2 SELFBALANCE LT PUSH2 0x31B3 JUMPI PUSH1 0x40 MLOAD PUSH1 0x20 DUP2 ADD DUP2 DUP2 LT PUSH8 0xFFFFFFFFFFFFFFFF DUP3 GT OR PUSH2 0x26E2 JUMPI PUSH1 0x40 MSTORE PUSH1 0x0 DUP1 DUP1 SWAP5 DUP2 SWAP5 DUP3 DUP1 SWAP6 MSTORE PUSH1 0x1 DUP1 PUSH1 0xA0 SHL SUB AND GAS CALL ISZERO PUSH2 0x318F JUMPI POP JUMP JUMPDEST RETURNDATASIZE ISZERO PUSH2 0x31A1 JUMPI PUSH1 0x40 MLOAD SWAP1 RETURNDATASIZE SWAP1 DUP3 RETURNDATACOPY RETURNDATASIZE SWAP1 REVERT JUMPDEST PUSH1 0x40 MLOAD PUSH4 0xD6BDA275 PUSH1 0xE0 SHL DUP2 MSTORE PUSH1 0x4 SWAP1 REVERT JUMPDEST PUSH1 0x40 MLOAD PUSH4 0xCF479181 PUSH1 0xE0 SHL DUP2 MSTORE SELFBALANCE PUSH1 0x4 DUP3 ADD MSTORE PUSH1 0x24 DUP2 ADD DUP4 SWAP1 MSTORE PUSH1 0x44 SWAP1 REVERT INVALID 0xA6 PUSH13 0xC928B5EDB82AF9BD4992295415 GAS 0xB7 0xB0 SWAP5 0x26 SWAP5 0xBE LOG4 0xCE PREVRANDAO PUSH7 0x1D9A8736C6889B PUSH24 0x9B17422D0DF92223018B32B4D1FA46E071723D6817E2486D STOP EXTCODESIZE 0xEC 0xC5 PUSH0 STOP LOG2 PUSH5 0x6970667358 0x22 SLT KECCAK256 0xE0 0x4F 0xC6 0xEF OR 0x27 0xD5 REVERT 0x22 PUSH29 0x6D2FA37D4CA7403DCE0B877F17A9FCCE01F05B9393F864736F6C634300 ADDMOD XOR STOP CALLER PUSH1 0xA0 PUSH1 0x40 MSTORE CALLVALUE PUSH3 0x3B2 JUMPI PUSH3 0xE61 DUP1 CODESIZE SUB DUP1 PUSH3 0x1D DUP2 PUSH3 0x3B7 JUMP JUMPDEST SWAP3 DUP4 CODECOPY DUP2 ADD SWAP1 PUSH1 0x80 DUP2 DUP4 SUB SLT PUSH3 0x3B2 JUMPI DUP1 MLOAD PUSH1 0x1 PUSH1 0x1 PUSH1 0x40 SHL SUB SWAP1 DUP2 DUP2 GT PUSH3 0x3B2 JUMPI DUP4 PUSH3 0x4F SWAP2 DUP5 ADD PUSH3 0x3DD JUMP JUMPDEST SWAP3 PUSH1 0x20 SWAP1 DUP2 DUP5 ADD MLOAD SWAP1 DUP4 DUP3 GT PUSH3 0x3B2 JUMPI PUSH3 0x6D SWAP2 DUP6 ADD PUSH3 0x3DD JUMP JUMPDEST SWAP4 PUSH1 0x40 DUP5 ADD MLOAD SWAP4 PUSH1 0xFF DUP6 AND DUP6 SUB PUSH3 0x3B2 JUMPI PUSH1 0x60 ADD MLOAD PUSH1 0x1 PUSH1 0x1 PUSH1 0xA0 SHL SUB SWAP6 DUP7 DUP3 AND SWAP5 SWAP2 DUP6 SWAP1 SUB PUSH3 0x3B2 JUMPI DUP3 MLOAD DUP3 DUP2 GT PUSH3 0x2B2 JUMPI PUSH1 0x3 SWAP2 DUP3 SLOAD SWAP2 PUSH1 0x1 SWAP6 DUP7 DUP5 DUP2 SHR SWAP5 AND DUP1 ISZERO PUSH3 0x3A7 JUMPI JUMPDEST DUP9 DUP6 LT EQ PUSH3 0x391 JUMPI DUP2 SWAP1 PUSH1 0x1F SWAP5 DUP6 DUP2 GT PUSH3 0x33B JUMPI JUMPDEST POP DUP9 SWAP1 DUP6 DUP4 GT PUSH1 0x1 EQ PUSH3 0x2D4 JUMPI PUSH1 0x0 SWAP3 PUSH3 0x2C8 JUMPI JUMPDEST POP POP PUSH1 0x0 NOT DUP3 DUP7 SHL SHR NOT AND SWAP1 DUP7 SHL OR DUP4 SSTORE JUMPDEST DUP1 MLOAD SWAP4 DUP5 GT PUSH3 0x2B2 JUMPI PUSH1 0x4 SWAP6 DUP7 SLOAD DUP7 DUP2 DUP2 SHR SWAP2 AND DUP1 ISZERO PUSH3 0x2A7 JUMPI JUMPDEST DUP3 DUP3 LT EQ PUSH3 0x292 JUMPI DUP4 DUP2 GT PUSH3 0x247 JUMPI JUMPDEST POP DUP1 SWAP3 DUP6 GT PUSH1 0x1 EQ PUSH3 0x1D9 JUMPI POP SWAP4 DUP4 SWAP5 SWAP2 DUP5 SWAP3 PUSH1 0x0 SWAP6 PUSH3 0x1CD JUMPI JUMPDEST POP POP SHL SWAP3 PUSH1 0x0 NOT SWAP2 SHL SHR NOT AND OR DUP2 SSTORE JUMPDEST DUP2 ISZERO PUSH3 0x1B5 JUMPI POP PUSH1 0x5 DUP1 SLOAD PUSH1 0x1 PUSH1 0x1 PUSH1 0xA0 SHL SUB NOT DUP2 AND DUP4 OR SWAP1 SWAP2 SSTORE PUSH1 0x40 MLOAD SWAP4 AND PUSH32 0x8BE0079C531659141344CD1FD0A4F28419497F9722A3DAAFE3B4186F6B6457E0 PUSH1 0x0 DUP1 LOG3 PUSH1 0x80 MSTORE PUSH2 0xA11 SWAP1 DUP2 PUSH3 0x450 DUP3 CODECOPY PUSH1 0x80 MLOAD DUP2 PUSH2 0x564 ADD MSTORE RETURN JUMPDEST PUSH1 0x24 SWAP1 PUSH1 0x0 PUSH1 0x40 MLOAD SWAP2 PUSH4 0x1E4FBDF7 PUSH1 0xE0 SHL DUP4 MSTORE DUP3 ADD MSTORE REVERT JUMPDEST ADD MLOAD SWAP4 POP CODESIZE DUP1 PUSH3 0x146 JUMP JUMPDEST SWAP3 SWAP2 SWAP1 DUP5 PUSH1 0x1F NOT DUP2 AND DUP9 PUSH1 0x0 MSTORE DUP6 PUSH1 0x0 KECCAK256 SWAP6 PUSH1 0x0 SWAP1 JUMPDEST DUP10 DUP4 DUP4 LT PUSH3 0x22C JUMPI POP POP POP LT PUSH3 0x211 JUMPI JUMPDEST POP POP POP POP DUP2 SHL ADD DUP2 SSTORE PUSH3 0x156 JUMP JUMPDEST ADD MLOAD SWAP1 PUSH1 0xF8 DUP5 PUSH1 0x0 NOT SWAP3 SHL AND SHR NOT AND SWAP1 SSTORE CODESIZE DUP1 DUP1 DUP1 PUSH3 0x202 JUMP JUMPDEST DUP6 DUP8 ADD MLOAD DUP10 SSTORE SWAP1 SWAP8 ADD SWAP7 SWAP5 DUP6 ADD SWAP5 DUP9 SWAP4 POP SWAP1 DUP2 ADD SWAP1 PUSH3 0x1EF JUMP JUMPDEST DUP8 PUSH1 0x0 MSTORE DUP2 PUSH1 0x0 KECCAK256 DUP5 DUP1 DUP9 ADD PUSH1 0x5 SHR DUP3 ADD SWAP3 DUP5 DUP10 LT PUSH3 0x288 JUMPI JUMPDEST ADD PUSH1 0x5 SHR ADD SWAP1 DUP8 SWAP1 JUMPDEST DUP3 DUP2 LT PUSH3 0x27B JUMPI POP POP PUSH3 0x129 JUMP JUMPDEST PUSH1 0x0 DUP2 SSTORE ADD DUP8 SWAP1 PUSH3 0x26B JUMP JUMPDEST SWAP3 POP DUP2 SWAP3 PUSH3 0x262 JUMP JUMPDEST PUSH1 0x22 DUP9 PUSH4 0x4E487B71 PUSH1 0xE0 SHL PUSH1 0x0 MSTORE MSTORE PUSH1 0x24 PUSH1 0x0 REVERT JUMPDEST SWAP1 PUSH1 0x7F AND SWAP1 PUSH3 0x117 JUMP JUMPDEST PUSH4 0x4E487B71 PUSH1 0xE0 SHL PUSH1 0x0 MSTORE PUSH1 0x41 PUSH1 0x4 MSTORE PUSH1 0x24 PUSH1 0x0 REVERT JUMPDEST ADD MLOAD SWAP1 POP CODESIZE DUP1 PUSH3 0xE8 JUMP JUMPDEST SWAP1 DUP9 SWAP4 POP PUSH1 0x1F NOT DUP4 AND SWAP2 DUP8 PUSH1 0x0 MSTORE DUP11 PUSH1 0x0 KECCAK256 SWAP3 PUSH1 0x0 JUMPDEST DUP13 DUP3 DUP3 LT PUSH3 0x324 JUMPI POP POP DUP5 GT PUSH3 0x30B JUMPI JUMPDEST POP POP POP DUP2 SHL ADD DUP4 SSTORE PUSH3 0xFA JUMP JUMPDEST ADD MLOAD PUSH1 0x0 NOT DUP4 DUP9 SHL PUSH1 0xF8 AND SHR NOT AND SWAP1 SSTORE CODESIZE DUP1 DUP1 PUSH3 0x2FD JUMP JUMPDEST DUP4 DUP6 ADD MLOAD DUP7 SSTORE DUP13 SWAP8 SWAP1 SWAP6 ADD SWAP5 SWAP4 DUP5 ADD SWAP4 ADD PUSH3 0x2EA JUMP JUMPDEST SWAP1 SWAP2 POP DUP6 PUSH1 0x0 MSTORE DUP9 PUSH1 0x0 KECCAK256 DUP6 DUP1 DUP6 ADD PUSH1 0x5 SHR DUP3 ADD SWAP3 DUP12 DUP7 LT PUSH3 0x387 JUMPI JUMPDEST SWAP2 DUP11 SWAP2 DUP7 SWAP6 SWAP5 SWAP4 ADD PUSH1 0x5 SHR ADD SWAP2 JUMPDEST DUP3 DUP2 LT PUSH3 0x377 JUMPI POP POP PUSH3 0xD1 JUMP JUMPDEST PUSH1 0x0 DUP2 SSTORE DUP6 SWAP5 POP DUP11 SWAP2 ADD PUSH3 0x367 JUMP JUMPDEST SWAP3 POP DUP2 SWAP3 PUSH3 0x359 JUMP JUMPDEST PUSH4 0x4E487B71 PUSH1 0xE0 SHL PUSH1 0x0 MSTORE PUSH1 0x22 PUSH1 0x4 MSTORE PUSH1 0x24 PUSH1 0x0 REVERT JUMPDEST SWAP4 PUSH1 0x7F AND SWAP4 PUSH3 0xBA JUMP JUMPDEST PUSH1 0x0 DUP1 REVERT JUMPDEST PUSH1 0x40 MLOAD SWAP2 SWAP1 PUSH1 0x1F ADD PUSH1 0x1F NOT AND DUP3 ADD PUSH1 0x1 PUSH1 0x1 PUSH1 0x40 SHL SUB DUP2 GT DUP4 DUP3 LT OR PUSH3 0x2B2 JUMPI PUSH1 0x40 MSTORE JUMP JUMPDEST SWAP2 SWAP1 DUP1 PUSH1 0x1F DUP5 ADD SLT ISZERO PUSH3 0x3B2 JUMPI DUP3 MLOAD PUSH1 0x1 PUSH1 0x1 PUSH1 0x40 SHL SUB DUP2 GT PUSH3 0x2B2 JUMPI PUSH1 0x20 SWAP1 PUSH3 0x413 PUSH1 0x1F DUP3 ADD PUSH1 0x1F NOT AND DUP4 ADD PUSH3 0x3B7 JUMP JUMPDEST SWAP3 DUP2 DUP5 MSTORE DUP3 DUP3 DUP8 ADD ADD GT PUSH3 0x3B2 JUMPI PUSH1 0x0 JUMPDEST DUP2 DUP2 LT PUSH3 0x43B JUMPI POP DUP3 PUSH1 0x0 SWAP4 SWAP5 SWAP6 POP ADD ADD MSTORE SWAP1 JUMP JUMPDEST DUP6 DUP2 ADD DUP4 ADD MLOAD DUP5 DUP3 ADD DUP5 ADD MSTORE DUP3 ADD PUSH3 0x425 JUMP INVALID PUSH1 0x80 PUSH1 0x40 DUP2 DUP2 MSTORE PUSH1 0x4 DUP1 CALLDATASIZE LT ISZERO PUSH2 0x15 JUMPI PUSH1 0x0 DUP1 REVERT JUMPDEST PUSH1 0x0 SWAP3 DUP4 CALLDATALOAD PUSH1 0xE0 SHR SWAP1 DUP2 PUSH4 0x6FDDE03 EQ PUSH2 0x68D JUMPI POP DUP1 PUSH4 0x95EA7B3 EQ PUSH2 0x5E4 JUMPI DUP1 PUSH4 0x18160DDD EQ PUSH2 0x5C5 JUMPI DUP1 PUSH4 0x23B872DD EQ PUSH2 0x588 JUMPI DUP1 PUSH4 0x313CE567 EQ PUSH2 0x54A JUMPI DUP1 PUSH4 0x40C10F19 EQ PUSH2 0x49B JUMPI DUP1 PUSH4 0x70A08231 EQ PUSH2 0x464 JUMPI DUP1 PUSH4 0x715018A6 EQ PUSH2 0x404 JUMPI DUP1 PUSH4 0x79CC6790 EQ PUSH2 0x318 JUMPI DUP1 PUSH4 0x8DA5CB5B EQ PUSH2 0x2EF JUMPI DUP1 PUSH4 0x95D89B41 EQ PUSH2 0x1CD JUMPI DUP1 PUSH4 0xA9059CBB EQ PUSH2 0x19C JUMPI DUP1 PUSH4 0xDD62ED3E EQ PUSH2 0x14F JUMPI PUSH4 0xF2FDE38B EQ PUSH2 0xBD JUMPI PUSH1 0x0 DUP1 REVERT JUMPDEST CALLVALUE PUSH2 0x14B JUMPI PUSH1 0x20 CALLDATASIZE PUSH1 0x3 NOT ADD SLT PUSH2 0x14B JUMPI PUSH2 0xD6 PUSH2 0x7CD JUMP JUMPDEST SWAP1 PUSH2 0xDF PUSH2 0x9AF JUMP JUMPDEST PUSH1 0x1 PUSH1 0x1 PUSH1 0xA0 SHL SUB SWAP2 DUP3 AND SWAP3 DUP4 ISZERO PUSH2 0x135 JUMPI POP POP PUSH1 0x5 SLOAD DUP3 PUSH12 0xFFFFFFFFFFFFFFFFFFFFFFFF PUSH1 0xA0 SHL DUP3 AND OR PUSH1 0x5 SSTORE AND PUSH32 0x8BE0079C531659141344CD1FD0A4F28419497F9722A3DAAFE3B4186F6B6457E0 DUP4 DUP1 LOG3 DUP1 RETURN JUMPDEST MLOAD PUSH4 0x1E4FBDF7 PUSH1 0xE0 SHL DUP2 MSTORE SWAP1 DUP2 ADD DUP5 SWAP1 MSTORE PUSH1 0x24 SWAP1 REVERT JUMPDEST DUP3 DUP1 REVERT JUMPDEST POP POP CALLVALUE PUSH2 0x198 JUMPI DUP1 PUSH1 0x3 NOT CALLDATASIZE ADD SLT PUSH2 0x198 JUMPI DUP1 PUSH1 0x20 SWAP3 PUSH2 0x16D PUSH2 0x7CD JUMP JUMPDEST PUSH2 0x175 PUSH2 0x7E8 JUMP JUMPDEST PUSH1 0x1 PUSH1 0x1 PUSH1 0xA0 SHL SUB SWAP2 DUP3 AND DUP4 MSTORE PUSH1 0x1 DUP7 MSTORE DUP4 DUP4 KECCAK256 SWAP2 AND DUP3 MSTORE DUP5 MSTORE KECCAK256 SLOAD SWAP1 MLOAD SWAP1 DUP2 MSTORE RETURN JUMPDEST POP DUP1 REVERT JUMPDEST POP POP CALLVALUE PUSH2 0x198 JUMPI DUP1 PUSH1 0x3 NOT CALLDATASIZE ADD SLT PUSH2 0x198 JUMPI PUSH1 0x20 SWAP1 PUSH2 0x1C6 PUSH2 0x1BC PUSH2 0x7CD JUMP JUMPDEST PUSH1 0x24 CALLDATALOAD SWAP1 CALLER PUSH2 0x8D1 JUMP JUMPDEST MLOAD PUSH1 0x1 DUP2 MSTORE RETURN JUMPDEST POP SWAP2 SWAP1 CALLVALUE PUSH2 0x198 JUMPI DUP2 PUSH1 0x3 NOT CALLDATASIZE ADD SLT PUSH2 0x198 JUMPI DUP1 MLOAD SWAP1 DUP3 DUP5 SLOAD PUSH1 0x1 DUP2 PUSH1 0x1 SHR SWAP1 PUSH1 0x1 DUP4 AND SWAP3 DUP4 ISZERO PUSH2 0x2E5 JUMPI JUMPDEST PUSH1 0x20 SWAP4 DUP5 DUP5 LT DUP2 EQ PUSH2 0x2D2 JUMPI DUP4 DUP9 MSTORE SWAP1 DUP2 ISZERO PUSH2 0x2B6 JUMPI POP PUSH1 0x1 EQ PUSH2 0x261 JUMPI JUMPDEST POP POP POP DUP3 SWAP1 SUB PUSH1 0x1F ADD PUSH1 0x1F NOT AND DUP3 ADD SWAP3 PUSH8 0xFFFFFFFFFFFFFFFF DUP5 GT DUP4 DUP6 LT OR PUSH2 0x24E JUMPI POP DUP3 SWAP2 DUP3 PUSH2 0x24A SWAP3 MSTORE DUP3 PUSH2 0x784 JUMP JUMPDEST SUB SWAP1 RETURN JUMPDEST PUSH4 0x4E487B71 PUSH1 0xE0 SHL DUP2 MSTORE PUSH1 0x41 DUP6 MSTORE PUSH1 0x24 SWAP1 REVERT JUMPDEST DUP8 DUP8 MSTORE SWAP2 SWAP3 POP DUP6 SWAP2 DUP4 PUSH32 0x8A35ACFBC15FF81A39AE7D344FD709F28E8600B4AA8C65C6B64BFE7FE36BD19B JUMPDEST DUP4 DUP6 LT PUSH2 0x2A2 JUMPI POP POP POP POP DUP4 ADD ADD CODESIZE DUP1 DUP1 PUSH2 0x218 JUMP JUMPDEST DUP1 SLOAD DUP9 DUP7 ADD DUP4 ADD MSTORE SWAP4 ADD SWAP3 DUP5 SWAP1 DUP3 ADD PUSH2 0x28C JUMP JUMPDEST PUSH1 0xFF NOT AND DUP8 DUP6 ADD MSTORE POP POP ISZERO ISZERO PUSH1 0x5 SHL DUP5 ADD ADD SWAP1 POP CODESIZE DUP1 DUP1 PUSH2 0x218 JUMP JUMPDEST PUSH4 0x4E487B71 PUSH1 0xE0 SHL DUP10 MSTORE PUSH1 0x22 DUP11 MSTORE PUSH1 0x24 DUP10 REVERT JUMPDEST SWAP2 PUSH1 0x7F AND SWAP2 PUSH2 0x1F9 JUMP JUMPDEST POP POP CALLVALUE PUSH2 0x198 JUMPI DUP2 PUSH1 0x3 NOT CALLDATASIZE ADD SLT PUSH2 0x198 JUMPI PUSH1 0x5 SLOAD SWAP1 MLOAD PUSH1 0x1 PUSH1 0x1 PUSH1 0xA0 SHL SUB SWAP1 SWAP2 AND DUP2 MSTORE PUSH1 0x20 SWAP1 RETURN JUMPDEST POP DUP3 SWAP1 CALLVALUE PUSH2 0x198 JUMPI DUP3 PUSH1 0x3 NOT CALLDATASIZE ADD SLT PUSH2 0x198 JUMPI PUSH2 0x333 PUSH2 0x7CD JUMP JUMPDEST PUSH1 0x1 PUSH1 0x1 PUSH1 0xA0 SHL SUB DUP2 AND SWAP2 PUSH1 0x24 CALLDATALOAD SWAP2 CALLER DUP5 SWAP1 SUB PUSH2 0x3F4 JUMPI JUMPDEST DUP4 ISZERO PUSH2 0x3DD JUMPI DUP4 DUP6 MSTORE DUP5 PUSH1 0x20 MSTORE DUP6 DUP6 KECCAK256 SLOAD SWAP2 DUP4 DUP4 LT PUSH2 0x3A9 JUMPI POP POP DUP2 DUP5 SWAP6 PUSH32 0xDDF252AD1BE2C89B69C2B068FC378DAA952BA7F163C4A11628F55A4DF523B3EF SWAP4 PUSH1 0x20 SWAP4 DUP7 DUP9 MSTORE DUP8 DUP6 MSTORE SUB DUP2 DUP8 KECCAK256 SSTORE DUP2 PUSH1 0x2 SLOAD SUB PUSH1 0x2 SSTORE MLOAD SWAP1 DUP2 MSTORE LOG3 DUP1 RETURN JUMPDEST DUP7 MLOAD PUSH4 0x391434E3 PUSH1 0xE2 SHL DUP2 MSTORE PUSH1 0x1 PUSH1 0x1 PUSH1 0xA0 SHL SUB SWAP1 SWAP3 AND SWAP1 DUP3 ADD SWAP1 DUP2 MSTORE PUSH1 0x20 DUP2 ADD DUP4 SWAP1 MSTORE PUSH1 0x40 DUP2 ADD DUP5 SWAP1 MSTORE DUP2 SWAP1 PUSH1 0x60 ADD SUB SWAP1 REVERT JUMPDEST DUP6 MLOAD PUSH4 0x4B637E8F PUSH1 0xE1 SHL DUP2 MSTORE DUP1 DUP4 ADD DUP7 SWAP1 MSTORE PUSH1 0x24 SWAP1 REVERT JUMPDEST PUSH2 0x3FF DUP4 CALLER DUP4 PUSH2 0x7FE JUMP JUMPDEST PUSH2 0x34B JUMP JUMPDEST DUP4 CALLVALUE PUSH2 0x461 JUMPI DUP1 PUSH1 0x3 NOT CALLDATASIZE ADD SLT PUSH2 0x461 JUMPI PUSH2 0x41D PUSH2 0x9AF JUMP JUMPDEST PUSH1 0x5 DUP1 SLOAD PUSH1 0x1 PUSH1 0x1 PUSH1 0xA0 SHL SUB NOT DUP2 AND SWAP1 SWAP2 SSTORE DUP2 SWAP1 PUSH1 0x1 PUSH1 0x1 PUSH1 0xA0 SHL SUB AND PUSH32 0x8BE0079C531659141344CD1FD0A4F28419497F9722A3DAAFE3B4186F6B6457E0 DUP3 DUP1 LOG3 DUP1 RETURN JUMPDEST DUP1 REVERT JUMPDEST POP POP CALLVALUE PUSH2 0x198 JUMPI PUSH1 0x20 CALLDATASIZE PUSH1 0x3 NOT ADD SLT PUSH2 0x198 JUMPI PUSH1 0x20 SWAP2 DUP2 SWAP1 PUSH1 0x1 PUSH1 0x1 PUSH1 0xA0 SHL SUB PUSH2 0x48C PUSH2 0x7CD JUMP JUMPDEST AND DUP2 MSTORE DUP1 DUP5 MSTORE KECCAK256 SLOAD SWAP1 MLOAD SWAP1 DUP2 MSTORE RETURN JUMPDEST POP SWAP1 CALLVALUE PUSH2 0x14B JUMPI DUP1 PUSH1 0x3 NOT CALLDATASIZE ADD SLT PUSH2 0x14B JUMPI PUSH2 0x4B5 PUSH2 0x7CD JUMP JUMPDEST SWAP1 PUSH1 0x24 CALLDATALOAD SWAP2 PUSH2 0x4C2 PUSH2 0x9AF JUMP JUMPDEST PUSH1 0x1 PUSH1 0x1 PUSH1 0xA0 SHL SUB AND SWAP3 DUP4 ISZERO PUSH2 0x535 JUMPI PUSH1 0x2 SLOAD SWAP1 DUP4 DUP3 ADD DUP1 SWAP3 GT PUSH2 0x522 JUMPI POP DUP5 SWAP3 PUSH32 0xDDF252AD1BE2C89B69C2B068FC378DAA952BA7F163C4A11628F55A4DF523B3EF SWAP3 PUSH1 0x20 SWAP3 PUSH1 0x2 SSTORE DUP6 DUP6 MSTORE DUP5 DUP4 MSTORE DUP1 DUP6 KECCAK256 DUP3 DUP2 SLOAD ADD SWAP1 SSTORE MLOAD SWAP1 DUP2 MSTORE LOG3 DUP1 RETURN JUMPDEST PUSH4 0x4E487B71 PUSH1 0xE0 SHL DUP7 MSTORE PUSH1 0x11 SWAP1 MSTORE PUSH1 0x24 DUP6 REVERT JUMPDEST DUP5 PUSH1 0x24 SWAP3 MLOAD SWAP2 PUSH4 0xEC442F05 PUSH1 0xE0 SHL DUP4 MSTORE DUP3 ADD MSTORE REVERT JUMPDEST POP POP CALLVALUE PUSH2 0x198 JUMPI DUP2 PUSH1 0x3 NOT CALLDATASIZE ADD SLT PUSH2 0x198 JUMPI PUSH1 0x20 SWAP1 MLOAD PUSH1 0xFF PUSH32 0x0 AND DUP2 MSTORE RETURN JUMPDEST POP POP CALLVALUE PUSH2 0x198 JUMPI PUSH1 0x60 CALLDATASIZE PUSH1 0x3 NOT ADD SLT PUSH2 0x198 JUMPI PUSH1 0x20 SWAP1 PUSH2 0x1C6 PUSH2 0x5A9 PUSH2 0x7CD JUMP JUMPDEST PUSH2 0x5B1 PUSH2 0x7E8 JUMP JUMPDEST PUSH1 0x44 CALLDATALOAD SWAP2 PUSH2 0x5C0 DUP4 CALLER DUP4 PUSH2 0x7FE JUMP JUMPDEST PUSH2 0x8D1 JUMP JUMPDEST POP POP CALLVALUE PUSH2 0x198 JUMPI DUP2 PUSH1 0x3 NOT CALLDATASIZE ADD SLT PUSH2 0x198 JUMPI PUSH1 0x20 SWAP1 PUSH1 0x2 SLOAD SWAP1 MLOAD SWAP1 DUP2 MSTORE RETURN JUMPDEST POP CALLVALUE PUSH2 0x14B JUMPI DUP2 PUSH1 0x3 NOT CALLDATASIZE ADD SLT PUSH2 0x14B JUMPI PUSH2 0x5FD PUSH2 0x7CD JUMP JUMPDEST PUSH1 0x24 CALLDATALOAD SWAP1 CALLER ISZERO PUSH2 0x676 JUMPI PUSH1 0x1 PUSH1 0x1 PUSH1 0xA0 SHL SUB AND SWAP2 DUP3 ISZERO PUSH2 0x65F JUMPI POP DUP1 DUP4 PUSH1 0x20 SWAP6 CALLER DUP2 MSTORE PUSH1 0x1 DUP8 MSTORE DUP2 DUP2 KECCAK256 DUP6 DUP3 MSTORE DUP8 MSTORE KECCAK256 SSTORE DUP3 MLOAD SWAP1 DUP2 MSTORE PUSH32 0x8C5BE1E5EBEC7D5BD14F71427D1E84F3DD0314C0F7B2291E5B200AC8C7C3B925 DUP5 CALLER SWAP3 LOG3 MLOAD PUSH1 0x1 DUP2 MSTORE RETURN JUMPDEST DUP4 MLOAD PUSH4 0x4A1406B1 PUSH1 0xE1 SHL DUP2 MSTORE SWAP1 DUP2 ADD DUP6 SWAP1 MSTORE PUSH1 0x24 SWAP1 REVERT JUMPDEST DUP4 MLOAD PUSH4 0xE602DF05 PUSH1 0xE0 SHL DUP2 MSTORE DUP1 DUP5 ADD DUP7 SWAP1 MSTORE PUSH1 0x24 SWAP1 REVERT JUMPDEST DUP5 SWAP2 POP DUP4 CALLVALUE PUSH2 0x14B JUMPI DUP3 PUSH1 0x3 NOT CALLDATASIZE ADD SLT PUSH2 0x14B JUMPI DUP3 PUSH1 0x3 SLOAD PUSH1 0x1 DUP2 PUSH1 0x1 SHR SWAP1 PUSH1 0x1 DUP4 AND SWAP3 DUP4 ISZERO PUSH2 0x77A JUMPI JUMPDEST PUSH1 0x20 SWAP4 DUP5 DUP5 LT DUP2 EQ PUSH2 0x2D2 JUMPI DUP4 DUP9 MSTORE SWAP1 DUP2 ISZERO PUSH2 0x75E JUMPI POP PUSH1 0x1 EQ PUSH2 0x708 JUMPI POP POP POP DUP3 SWAP1 SUB PUSH1 0x1F ADD PUSH1 0x1F NOT AND DUP3 ADD SWAP3 PUSH8 0xFFFFFFFFFFFFFFFF DUP5 GT DUP4 DUP6 LT OR PUSH2 0x24E JUMPI POP DUP3 SWAP2 DUP3 PUSH2 0x24A SWAP3 MSTORE DUP3 PUSH2 0x784 JUMP JUMPDEST PUSH1 0x3 DUP8 MSTORE SWAP2 SWAP3 POP DUP6 SWAP2 DUP4 PUSH32 0xC2575A0E9E593C00F959F8C92F12DB2869C3395A3B0502D05E2516446F71F85B JUMPDEST DUP4 DUP6 LT PUSH2 0x74A JUMPI POP POP POP POP DUP4 ADD ADD DUP6 DUP1 DUP1 PUSH2 0x218 JUMP JUMPDEST DUP1 SLOAD DUP9 DUP7 ADD DUP4 ADD MSTORE SWAP4 ADD SWAP3 DUP5 SWAP1 DUP3 ADD PUSH2 0x734 JUMP JUMPDEST PUSH1 0xFF NOT AND DUP8 DUP6 ADD MSTORE POP POP ISZERO ISZERO PUSH1 0x5 SHL DUP5 ADD ADD SWAP1 POP DUP6 DUP1 DUP1 PUSH2 0x218 JUMP JUMPDEST SWAP2 PUSH1 0x7F AND SWAP2 PUSH2 0x6B8 JUMP JUMPDEST PUSH1 0x20 DUP1 DUP3 MSTORE DUP3 MLOAD DUP2 DUP4 ADD DUP2 SWAP1 MSTORE SWAP1 SWAP4 SWAP3 PUSH1 0x0 JUMPDEST DUP3 DUP2 LT PUSH2 0x7B9 JUMPI POP POP PUSH1 0x40 SWAP3 SWAP4 POP PUSH1 0x0 DUP4 DUP3 DUP5 ADD ADD MSTORE PUSH1 0x1F DUP1 NOT SWAP2 ADD AND ADD ADD SWAP1 JUMP JUMPDEST DUP2 DUP2 ADD DUP7 ADD MLOAD DUP5 DUP3 ADD PUSH1 0x40 ADD MSTORE DUP6 ADD PUSH2 0x797 JUMP JUMPDEST PUSH1 0x4 CALLDATALOAD SWAP1 PUSH1 0x1 PUSH1 0x1 PUSH1 0xA0 SHL SUB DUP3 AND DUP3 SUB PUSH2 0x7E3 JUMPI JUMP JUMPDEST PUSH1 0x0 DUP1 REVERT JUMPDEST PUSH1 0x24 CALLDATALOAD SWAP1 PUSH1 0x1 PUSH1 0x1 PUSH1 0xA0 SHL SUB DUP3 AND DUP3 SUB PUSH2 0x7E3 JUMPI JUMP JUMPDEST SWAP2 PUSH1 0x1 DUP1 PUSH1 0xA0 SHL SUB DUP1 SWAP4 AND SWAP2 PUSH1 0x0 SWAP4 DUP4 DUP6 MSTORE PUSH1 0x1 PUSH1 0x20 MSTORE PUSH1 0x40 SWAP4 DUP5 DUP7 KECCAK256 SWAP2 DUP4 AND SWAP2 DUP3 DUP8 MSTORE PUSH1 0x20 MSTORE DUP5 DUP7 KECCAK256 SLOAD SWAP3 PUSH1 0x0 NOT DUP5 LT PUSH2 0x83D JUMPI JUMPDEST POP POP POP POP POP POP POP JUMP JUMPDEST DUP5 DUP5 LT PUSH2 0x8A1 JUMPI POP DUP1 ISZERO PUSH2 0x889 JUMPI DUP2 ISZERO PUSH2 0x871 JUMPI DUP6 MSTORE PUSH1 0x1 PUSH1 0x20 MSTORE DUP4 DUP6 KECCAK256 SWAP1 DUP6 MSTORE PUSH1 0x20 MSTORE SUB SWAP2 KECCAK256 SSTORE CODESIZE DUP1 DUP1 DUP1 DUP1 DUP1 DUP1 PUSH2 0x834 JUMP JUMPDEST DUP5 MLOAD PUSH4 0x4A1406B1 PUSH1 0xE1 SHL DUP2 MSTORE PUSH1 0x4 DUP2 ADD DUP8 SWAP1 MSTORE PUSH1 0x24 SWAP1 REVERT JUMPDEST DUP5 MLOAD PUSH4 0xE602DF05 PUSH1 0xE0 SHL DUP2 MSTORE PUSH1 0x4 DUP2 ADD DUP8 SWAP1 MSTORE PUSH1 0x24 SWAP1 REVERT JUMPDEST DUP6 MLOAD PUSH4 0x7DC7A0D9 PUSH1 0xE1 SHL DUP2 MSTORE PUSH1 0x1 PUSH1 0x1 PUSH1 0xA0 SHL SUB SWAP2 SWAP1 SWAP2 AND PUSH1 0x4 DUP3 ADD MSTORE PUSH1 0x24 DUP2 ADD DUP5 SWAP1 MSTORE PUSH1 0x44 DUP2 ADD DUP6 SWAP1 MSTORE PUSH1 0x64 SWAP1 REVERT JUMPDEST SWAP2 PUSH1 0x1 PUSH1 0x1 PUSH1 0xA0 SHL SUB DUP1 DUP5 AND SWAP3 DUP4 ISZERO PUSH2 0x996 JUMPI AND SWAP3 DUP4 ISZERO PUSH2 0x97D JUMPI PUSH1 0x0 SWAP1 DUP4 DUP3 MSTORE DUP2 PUSH1 0x20 MSTORE PUSH1 0x40 DUP3 KECCAK256 SLOAD SWAP1 DUP4 DUP3 LT PUSH2 0x94B JUMPI POP SWAP2 PUSH1 0x40 DUP3 DUP3 PUSH32 0xDDF252AD1BE2C89B69C2B068FC378DAA952BA7F163C4A11628F55A4DF523B3EF SWAP6 DUP8 PUSH1 0x20 SWAP7 MSTORE DUP3 DUP7 MSTORE SUB DUP3 DUP3 KECCAK256 SSTORE DUP7 DUP2 MSTORE KECCAK256 DUP2 DUP2 SLOAD ADD SWAP1 SSTORE PUSH1 0x40 MLOAD SWAP1 DUP2 MSTORE LOG3 JUMP JUMPDEST PUSH1 0x40 MLOAD PUSH4 0x391434E3 PUSH1 0xE2 SHL DUP2 MSTORE PUSH1 0x1 PUSH1 0x1 PUSH1 0xA0 SHL SUB SWAP2 SWAP1 SWAP2 AND PUSH1 0x4 DUP3 ADD MSTORE PUSH1 0x24 DUP2 ADD SWAP2 SWAP1 SWAP2 MSTORE PUSH1 0x44 DUP2 ADD DUP4 SWAP1 MSTORE PUSH1 0x64 SWAP1 REVERT JUMPDEST PUSH1 0x40 MLOAD PUSH4 0xEC442F05 PUSH1 0xE0 SHL DUP2 MSTORE PUSH1 0x0 PUSH1 0x4 DUP3 ADD MSTORE PUSH1 0x24 SWAP1 REVERT JUMPDEST PUSH1 0x40 MLOAD PUSH4 0x4B637E8F PUSH1 0xE1 SHL DUP2 MSTORE PUSH1 0x0 PUSH1 0x4 DUP3 ADD MSTORE PUSH1 0x24 SWAP1 REVERT JUMPDEST PUSH1 0x5 SLOAD PUSH1 0x1 PUSH1 0x1 PUSH1 0xA0 SHL SUB AND CALLER SUB PUSH2 0x9C3 JUMPI JUMP JUMPDEST PUSH1 0x40 MLOAD PUSH4 0x118CDAA7 PUSH1 0xE0 SHL DUP2 MSTORE CALLER PUSH1 0x4 DUP3 ADD MSTORE PUSH1 0x24 SWAP1 REVERT INVALID LOG2 PUSH5 0x6970667358 0x22 SLT KECCAK256 DELEGATECALL PUSH7 0xAD3611F91C0035 0xAF 0xC9 DUP13 0xD2 SLT 0xA5 CHAINID 0xE1 0xBF DUP5 DUP3 PUSH31 0x5F6D1F969630EF715B53FC64736F6C63430008180033A26469706673582212 KECCAK256 CODESIZE DUP9 JUMPDEST PUSH6 0xD7BBC526B6B0 MUL BLOBHASH PUSH0 0xA9 PUSH3 0x2C5565 0xBE PUSH10 0x86F160C4DD29CF7A503A 0xD4 GASLIMIT PUSH5 0x736F6C6343 STOP ADDMOD XOR STOP CALLER "},"methodIdentifiers":{"deployEventMarket(address,address,address,uint8,uint8,uint256,uint256,uint256,bytes32,address,bytes32,uint64,uint256,address,uint256,string[])":"8318c9fa","deployPriceMarket(address,address,address,uint8,uint8,uint256,uint256,uint256,bytes32,address,uint256,uint8,uint256,uint256,uint256,string[])":"c494b3a6","factory()":"c45a0155"}}}}}