{"contracts/factory/AFTRParimutuelBatchFactory.sol":{"AFTRParimutuelBatchFactory":{"abi":[{"inputs":[{"internalType":"address","name":"owner_","type":"address"},{"internalType":"address","name":"coreFactory_","type":"address"}],"stateMutability":"nonpayable","type":"constructor"},{"inputs":[{"internalType":"address","name":"owner","type":"address"}],"name":"OwnableInvalidOwner","type":"error"},{"inputs":[{"internalType":"address","name":"account","type":"address"}],"name":"OwnableUnauthorizedAccount","type":"error"},{"anonymous":false,"inputs":[{"indexed":true,"internalType":"address","name":"previousOwner","type":"address"},{"indexed":true,"internalType":"address","name":"newOwner","type":"address"}],"name":"OwnershipTransferStarted","type":"event"},{"anonymous":false,"inputs":[{"indexed":true,"internalType":"address","name":"previousOwner","type":"address"},{"indexed":true,"internalType":"address","name":"newOwner","type":"address"}],"name":"OwnershipTransferred","type":"event"},{"inputs":[],"name":"acceptOwnership","outputs":[],"stateMutability":"nonpayable","type":"function"},{"inputs":[],"name":"coreFactory","outputs":[{"internalType":"contract AFTRParimutuelMarketFactory","name":"","type":"address"}],"stateMutability":"view","type":"function"},{"inputs":[{"components":[{"internalType":"address","name":"collateralToken","type":"address"},{"internalType":"uint8","name":"collateralDecimals","type":"uint8"},{"internalType":"uint256","name":"virtualReserve","type":"uint256"},{"internalType":"uint256","name":"stakeEndTimestamp","type":"uint256"},{"internalType":"uint256","name":"resolveAfterTimestamp","type":"uint256"},{"internalType":"bytes32","name":"metadataHash","type":"bytes32"},{"internalType":"string[]","name":"outcomeLabels","type":"string[]"},{"internalType":"string","name":"umaQuestion","type":"string"},{"internalType":"bytes32","name":"umaIdentifier","type":"bytes32"},{"internalType":"uint64","name":"umaLiveness","type":"uint64"},{"internalType":"uint256","name":"umaReward","type":"uint256"},{"internalType":"address","name":"umaRewardCurrency","type":"address"},{"internalType":"uint256","name":"minBootstrapTotal","type":"uint256"}],"internalType":"struct AFTRParimutuelMarketFactory.EventMarketParams","name":"templateParams","type":"tuple"},{"internalType":"address[]","name":"collateralTokens","type":"address[]"}],"name":"createEventMarketsBatch","outputs":[{"internalType":"address[]","name":"deployed","type":"address[]"}],"stateMutability":"nonpayable","type":"function"},{"inputs":[{"components":[{"internalType":"address","name":"collateralToken","type":"address"},{"internalType":"uint8","name":"collateralDecimals","type":"uint8"},{"internalType":"uint256","name":"virtualReserve","type":"uint256"},{"internalType":"uint256","name":"stakeEndTimestamp","type":"uint256"},{"internalType":"uint256","name":"resolveAfterTimestamp","type":"uint256"},{"internalType":"bytes32","name":"metadataHash","type":"bytes32"},{"internalType":"string[]","name":"outcomeLabels","type":"string[]"},{"internalType":"address","name":"chainlinkFeed","type":"address"},{"internalType":"uint256","name":"priceThreshold","type":"uint256"},{"internalType":"enum AFTRVParimutuelMarket.PriceThresholdKind","name":"priceKind","type":"uint8"},{"internalType":"uint256","name":"priceUpperBound","type":"uint256"},{"internalType":"uint256","name":"maxPriceStaleness","type":"uint256"},{"internalType":"uint256[]","name":"priceBinLower","type":"uint256[]"},{"internalType":"uint256[]","name":"priceBinUpper","type":"uint256[]"},{"internalType":"uint256","name":"minBootstrapTotal","type":"uint256"}],"internalType":"struct AFTRParimutuelMarketFactory.PriceMarketParams","name":"templateParams","type":"tuple"},{"internalType":"address[]","name":"collateralTokens","type":"address[]"}],"name":"createPriceMarketsBatch","outputs":[{"internalType":"address[]","name":"deployed","type":"address[]"}],"stateMutability":"nonpayable","type":"function"},{"inputs":[],"name":"owner","outputs":[{"internalType":"address","name":"","type":"address"}],"stateMutability":"view","type":"function"},{"inputs":[],"name":"pendingOwner","outputs":[{"internalType":"address","name":"","type":"address"}],"stateMutability":"view","type":"function"},{"inputs":[],"name":"renounceOwnership","outputs":[],"stateMutability":"nonpayable","type":"function"},{"inputs":[{"internalType":"address","name":"newOwner","type":"address"}],"name":"transferOwnership","outputs":[],"stateMutability":"nonpayable","type":"function"}],"evm":{"bytecode":{"linkReferences":{},"object":"60a03461012357601f610fcd38819003918201601f19168301916001600160401b0383118484101761012857808492604094855283398101031261012357610052602061004b8361013e565b920161013e565b6001600160a01b039182169190821561010a5760018060a01b031992836001541660015580600054948516176000558260405194167f8be0079c531659141344cd1fd0a4f28419497f9722a3daafe3b4186f6b6457e0600080a3169081156100de5750608052604051610e7a90816101538239608051818181610483015281816106640152610a1c0152f35b62461bcd60e51b8152602060048201526007602482015266466163746f727960c81b6044820152606490fd5b604051631e4fbdf760e01b815260006004820152602490fd5b600080fd5b634e487b7160e01b600052604160045260246000fd5b51906001600160a01b03821682036101235756fe6080604052600436101561001257600080fd5b60003560e01c8063273c1780146106935780633d8df6671461064e578063715018a6146105e957806379ba5097146105605780638da5cb5b146105375780638dd0ea6514610115578063e30c3978146100ec5763f2fde38b1461007457600080fd5b346100e75760203660031901126100e7576004356001600160a01b03818116918290036100e7576100a3610ce8565b816bffffffffffffffffffffffff60a01b6001541617600155600054167f38d16b8cac22d99fc7c124b9cd0de2d3fa1faef420bfe791d8c362d765e22700600080a3005b600080fd5b346100e75760003660031901126100e7576001546040516001600160a01b039091168152602090f35b346100e7576003196040368201126100e7576001600160401b03600435116100e7576101a090600435360301126100e7576024356001600160401b0381116100e757610165903690600401610abd565b61016d610ce8565b61017681610b6a565b60043560e4810135939192848201929161012401359060005b8181106101a857604051806101a48882610aed565b0390f35b60405190816101a08101106001600160401b036101a084011117610521576101a082016040526000825260006020830152600060408301526000606083015260006080830152600060a0830152606060c0830152606060e08301526000610100830152600061012083015260006101408301526000610160830152600061018083015260018060a01b03610240600435600401610bc2565b16825260ff610253602460043501610bd6565b1660208301526004803560448101356040850152606481013560608501526084810135608085015260a481013560a085015261029f916102989160c481019101610cfc565b3691610d77565b60c08301526004353603602219018812156100e7576001600160401b036004870135116100e7576004860135360360248701136100e7576102e836600488013560248901610d31565b60e083015261010460043501356101008301526001600160401b03841684036100e7576001600160401b0384166101208301526004356101448101356101408401526001600160a01b03906103409061016401610bc2565b1661016083015260043561018401356101808301526001600160a01b0361037061036b838689610b9c565b610bc2565b1682526001600160a01b0361038961036b838689610b9c565b1661050c5760ff60125b1660208301526020604051808094635b2eac4f60e01b825283600483015260018060a01b03815116602483015260ff848201511660448301526040810151606483015260608101516084830152608081015160a483015260a081015160c483015261018061042c61041560c08401516101a060e48701526101c4860190610c43565b60e084015185820360231901610104870152610c03565b916101008101516101248501526001600160401b036101208201511661014485015261014081015161016485015260018060a01b036101608201511661018485015201516101a48301520381600060018060a01b037f0000000000000000000000000000000000000000000000000000000000000000165af18015610500576001926000916104d1575b506104c18289610cd4565b90838060a01b031690520161018f565b6104f3915060203d6020116104f9575b6104eb8183610b32565b810190610be4565b896104b6565b503d6104e1565b6040513d6000823e3d90fd5b60ff61051c602460043501610bd6565b610393565b634e487b7160e01b600052604160045260246000fd5b346100e75760003660031901126100e7576000546040516001600160a01b039091168152602090f35b346100e75760003660031901126100e7576001546001600160a01b0333818316036105d1576bffffffffffffffffffffffff60a01b8092166001556000549133908316176000553391167f8be0079c531659141344cd1fd0a4f28419497f9722a3daafe3b4186f6b6457e0600080a3005b60405163118cdaa760e01b8152336004820152602490fd5b346100e75760003660031901126100e757610602610ce8565b600180546001600160a01b0319908116909155600080549182168155906001600160a01b03167f8be0079c531659141344cd1fd0a4f28419497f9722a3daafe3b4186f6b6457e08280a3005b346100e75760003660031901126100e7576040517f00000000000000000000000000000000000000000000000000000000000000006001600160a01b03168152602090f35b346100e7576003196040368201126100e7576001600160401b03600435116100e7576101e090600435360301126100e7576024356001600160401b0381116100e7576106e3903690600401610abd565b6106eb610ce8565b6106f481610b6a565b906000926003610124600435013510155b82851061071a57604051806101a48682610aed565b60405190816101e08101106001600160401b036101e084011117610521576101e082016040526000825260006020830152600060408301526000606083015260006080830152600060a0830152606060c0830152600060e08301526000610100830152600061012083015260006101408301526000610160830152606061018083015260606101a083015260006101c083015260018060a01b036107c2600435600401610bc2565b16825260ff6107d5602460043501610bd6565b1660208301526004803560448101356040850152606481013560608501526084810135608085015260a481013560a085015261081a916102989160c481019101610cfc565b60c08301526001600160a01b0361083560043560e401610bc2565b1660e083015261010460043501356101008301526100e75760009461012460043501356101208301526101446004350135610140830152610164600435013561016083015261089961089261018460043501600435600401610cfc565b3691610df6565b6101808301526108b76108926101a460043501600435600401610cfc565b6101a08301526004356101c401356101c08301526001600160a01b036108e161036b838787610b9c565b1682526001600160a01b036108fa61036b838787610b9c565b16610aa85760ff60125b16602083015260405191631cba0d2960e01b83526020600484015260018060a01b03815116602484015260ff60208201511660448401526040810151606484015260608101516084840152608081015160a484015260a081015160c484015261097e60c08201516101e060e4860152610204850190610c43565b60e08201516001600160a01b03166101048501526101008201516101248501526101208201516003811015610a92576020926101c0610a0d879485946101448601526101408401516101648601526101608401516101848601526109f6610180850151916023199283888303016101a4890152610ca0565b906101a085015190868303016101c4870152610ca0565b9101516101e4830152038160007f00000000000000000000000000000000000000000000000000000000000000006001600160a01b03165af1801561050057600192600091610a73575b50610a628287610cd4565b90838060a01b031690520193610705565b610a8c915060203d6020116104f9576104eb8183610b32565b87610a57565b634e487b7160e01b600052602160045260246000fd5b60ff610ab8602460043501610bd6565b610904565b9181601f840112156100e7578235916001600160401b0383116100e7576020808501948460051b0101116100e757565b602090602060408183019282815285518094520193019160005b828110610b15575050505090565b83516001600160a01b031685529381019392810192600101610b07565b90601f801991011681019081106001600160401b0382111761052157604052565b6001600160401b0381116105215760051b60200190565b90610b7482610b53565b610b816040519182610b32565b8281528092610b92601f1991610b53565b0190602036910137565b9190811015610bac5760051b0190565b634e487b7160e01b600052603260045260246000fd5b356001600160a01b03811681036100e75790565b3560ff811681036100e75790565b908160209103126100e757516001600160a01b03811681036100e75790565b919082519283825260005b848110610c2f575050826000602080949584010152601f8019910116010190565b602081830181015184830182015201610c0e565b90808251908181526020809101926020808460051b8301019501936000915b848310610c725750505050505090565b9091929394958480610c90600193601f198682030187528a51610c03565b9801930193019194939290610c62565b90815180825260208080930193019160005b828110610cc0575050505090565b835185529381019392810192600101610cb2565b8051821015610bac5760209160051b010190565b6000546001600160a01b031633036105d157565b903590601e19813603018212156100e757018035906001600160401b0382116100e757602001918160051b360383136100e757565b9291926001600160401b0382116105215760405191610d5a601f8201601f191660200184610b32565b8294818452818301116100e7578281602093846000960137010152565b92919092610d8484610b53565b91610d926040519384610b32565b829480845260208094019060051b8301928284116100e75780915b848310610dbc57505050505050565b82356001600160401b0381116100e757820184601f820112156100e7578691610deb8683858095359101610d31565b815201920191610dad565b9291610e0182610b53565b91610e0f6040519384610b32565b829481845260208094019160051b81019283116100e757905b828210610e355750505050565b81358152908301908301610e2856fea264697066735822122016380f04a33eeb5cec0e5b1a4e1ca9e8ce2bb13727976b04374465f82d77d27064736f6c63430008180033","opcodes":"PUSH1 0xA0 CALLVALUE PUSH2 0x123 JUMPI PUSH1 0x1F PUSH2 0xFCD CODESIZE DUP2 SWAP1 SUB SWAP2 DUP3 ADD PUSH1 0x1F NOT AND DUP4 ADD SWAP2 PUSH1 0x1 PUSH1 0x1 PUSH1 0x40 SHL SUB DUP4 GT DUP5 DUP5 LT OR PUSH2 0x128 JUMPI DUP1 DUP5 SWAP3 PUSH1 0x40 SWAP5 DUP6 MSTORE DUP4 CODECOPY DUP2 ADD SUB SLT PUSH2 0x123 JUMPI PUSH2 0x52 PUSH1 0x20 PUSH2 0x4B DUP4 PUSH2 0x13E JUMP JUMPDEST SWAP3 ADD PUSH2 0x13E JUMP JUMPDEST PUSH1 0x1 PUSH1 0x1 PUSH1 0xA0 SHL SUB SWAP2 DUP3 AND SWAP2 SWAP1 DUP3 ISZERO PUSH2 0x10A JUMPI PUSH1 0x1 DUP1 PUSH1 0xA0 SHL SUB NOT SWAP3 DUP4 PUSH1 0x1 SLOAD AND PUSH1 0x1 SSTORE DUP1 PUSH1 0x0 SLOAD SWAP5 DUP6 AND OR PUSH1 0x0 SSTORE DUP3 PUSH1 0x40 MLOAD SWAP5 AND PUSH32 0x8BE0079C531659141344CD1FD0A4F28419497F9722A3DAAFE3B4186F6B6457E0 PUSH1 0x0 DUP1 LOG3 AND SWAP1 DUP2 ISZERO PUSH2 0xDE JUMPI POP PUSH1 0x80 MSTORE PUSH1 0x40 MLOAD PUSH2 0xE7A SWAP1 DUP2 PUSH2 0x153 DUP3 CODECOPY PUSH1 0x80 MLOAD DUP2 DUP2 DUP2 PUSH2 0x483 ADD MSTORE DUP2 DUP2 PUSH2 0x664 ADD MSTORE PUSH2 0xA1C ADD MSTORE RETURN JUMPDEST PUSH3 0x461BCD PUSH1 0xE5 SHL DUP2 MSTORE PUSH1 0x20 PUSH1 0x4 DUP3 ADD MSTORE PUSH1 0x7 PUSH1 0x24 DUP3 ADD MSTORE PUSH7 0x466163746F7279 PUSH1 0xC8 SHL PUSH1 0x44 DUP3 ADD MSTORE PUSH1 0x64 SWAP1 REVERT JUMPDEST PUSH1 0x40 MLOAD PUSH4 0x1E4FBDF7 PUSH1 0xE0 SHL DUP2 MSTORE PUSH1 0x0 PUSH1 0x4 DUP3 ADD MSTORE PUSH1 0x24 SWAP1 REVERT JUMPDEST PUSH1 0x0 DUP1 REVERT JUMPDEST PUSH4 0x4E487B71 PUSH1 0xE0 SHL PUSH1 0x0 MSTORE PUSH1 0x41 PUSH1 0x4 MSTORE PUSH1 0x24 PUSH1 0x0 REVERT JUMPDEST MLOAD SWAP1 PUSH1 0x1 PUSH1 0x1 PUSH1 0xA0 SHL SUB DUP3 AND DUP3 SUB PUSH2 0x123 JUMPI JUMP INVALID PUSH1 0x80 PUSH1 0x40 MSTORE PUSH1 0x4 CALLDATASIZE LT ISZERO PUSH2 0x12 JUMPI PUSH1 0x0 DUP1 REVERT JUMPDEST PUSH1 0x0 CALLDATALOAD PUSH1 0xE0 SHR DUP1 PUSH4 0x273C1780 EQ PUSH2 0x693 JUMPI DUP1 PUSH4 0x3D8DF667 EQ PUSH2 0x64E JUMPI DUP1 PUSH4 0x715018A6 EQ PUSH2 0x5E9 JUMPI DUP1 PUSH4 0x79BA5097 EQ PUSH2 0x560 JUMPI DUP1 PUSH4 0x8DA5CB5B EQ PUSH2 0x537 JUMPI DUP1 PUSH4 0x8DD0EA65 EQ PUSH2 0x115 JUMPI DUP1 PUSH4 0xE30C3978 EQ PUSH2 0xEC JUMPI PUSH4 0xF2FDE38B EQ PUSH2 0x74 JUMPI PUSH1 0x0 DUP1 REVERT JUMPDEST CALLVALUE PUSH2 0xE7 JUMPI PUSH1 0x20 CALLDATASIZE PUSH1 0x3 NOT ADD SLT PUSH2 0xE7 JUMPI PUSH1 0x4 CALLDATALOAD PUSH1 0x1 PUSH1 0x1 PUSH1 0xA0 SHL SUB DUP2 DUP2 AND SWAP2 DUP3 SWAP1 SUB PUSH2 0xE7 JUMPI PUSH2 0xA3 PUSH2 0xCE8 JUMP JUMPDEST DUP2 PUSH12 0xFFFFFFFFFFFFFFFFFFFFFFFF PUSH1 0xA0 SHL PUSH1 0x1 SLOAD AND OR PUSH1 0x1 SSTORE PUSH1 0x0 SLOAD AND PUSH32 0x38D16B8CAC22D99FC7C124B9CD0DE2D3FA1FAEF420BFE791D8C362D765E22700 PUSH1 0x0 DUP1 LOG3 STOP JUMPDEST PUSH1 0x0 DUP1 REVERT JUMPDEST CALLVALUE PUSH2 0xE7 JUMPI PUSH1 0x0 CALLDATASIZE PUSH1 0x3 NOT ADD SLT PUSH2 0xE7 JUMPI PUSH1 0x1 SLOAD PUSH1 0x40 MLOAD PUSH1 0x1 PUSH1 0x1 PUSH1 0xA0 SHL SUB SWAP1 SWAP2 AND DUP2 MSTORE PUSH1 0x20 SWAP1 RETURN JUMPDEST CALLVALUE PUSH2 0xE7 JUMPI PUSH1 0x3 NOT PUSH1 0x40 CALLDATASIZE DUP3 ADD SLT PUSH2 0xE7 JUMPI PUSH1 0x1 PUSH1 0x1 PUSH1 0x40 SHL SUB PUSH1 0x4 CALLDATALOAD GT PUSH2 0xE7 JUMPI PUSH2 0x1A0 SWAP1 PUSH1 0x4 CALLDATALOAD CALLDATASIZE SUB ADD SLT PUSH2 0xE7 JUMPI PUSH1 0x24 CALLDATALOAD PUSH1 0x1 PUSH1 0x1 PUSH1 0x40 SHL SUB DUP2 GT PUSH2 0xE7 JUMPI PUSH2 0x165 SWAP1 CALLDATASIZE SWAP1 PUSH1 0x4 ADD PUSH2 0xABD JUMP JUMPDEST PUSH2 0x16D PUSH2 0xCE8 JUMP JUMPDEST PUSH2 0x176 DUP2 PUSH2 0xB6A JUMP JUMPDEST PUSH1 0x4 CALLDATALOAD PUSH1 0xE4 DUP2 ADD CALLDATALOAD SWAP4 SWAP2 SWAP3 DUP5 DUP3 ADD SWAP3 SWAP2 PUSH2 0x124 ADD CALLDATALOAD SWAP1 PUSH1 0x0 JUMPDEST DUP2 DUP2 LT PUSH2 0x1A8 JUMPI PUSH1 0x40 MLOAD DUP1 PUSH2 0x1A4 DUP9 DUP3 PUSH2 0xAED JUMP JUMPDEST SUB SWAP1 RETURN JUMPDEST PUSH1 0x40 MLOAD SWAP1 DUP2 PUSH2 0x1A0 DUP2 ADD LT PUSH1 0x1 PUSH1 0x1 PUSH1 0x40 SHL SUB PUSH2 0x1A0 DUP5 ADD GT OR PUSH2 0x521 JUMPI PUSH2 0x1A0 DUP3 ADD PUSH1 0x40 MSTORE PUSH1 0x0 DUP3 MSTORE PUSH1 0x0 PUSH1 0x20 DUP4 ADD MSTORE PUSH1 0x0 PUSH1 0x40 DUP4 ADD MSTORE PUSH1 0x0 PUSH1 0x60 DUP4 ADD MSTORE PUSH1 0x0 PUSH1 0x80 DUP4 ADD MSTORE PUSH1 0x0 PUSH1 0xA0 DUP4 ADD MSTORE PUSH1 0x60 PUSH1 0xC0 DUP4 ADD MSTORE PUSH1 0x60 PUSH1 0xE0 DUP4 ADD MSTORE PUSH1 0x0 PUSH2 0x100 DUP4 ADD MSTORE PUSH1 0x0 PUSH2 0x120 DUP4 ADD MSTORE PUSH1 0x0 PUSH2 0x140 DUP4 ADD MSTORE PUSH1 0x0 PUSH2 0x160 DUP4 ADD MSTORE PUSH1 0x0 PUSH2 0x180 DUP4 ADD MSTORE PUSH1 0x1 DUP1 PUSH1 0xA0 SHL SUB PUSH2 0x240 PUSH1 0x4 CALLDATALOAD PUSH1 0x4 ADD PUSH2 0xBC2 JUMP JUMPDEST AND DUP3 MSTORE PUSH1 0xFF PUSH2 0x253 PUSH1 0x24 PUSH1 0x4 CALLDATALOAD ADD PUSH2 0xBD6 JUMP JUMPDEST AND PUSH1 0x20 DUP4 ADD MSTORE PUSH1 0x4 DUP1 CALLDATALOAD PUSH1 0x44 DUP2 ADD CALLDATALOAD PUSH1 0x40 DUP6 ADD MSTORE PUSH1 0x64 DUP2 ADD CALLDATALOAD PUSH1 0x60 DUP6 ADD MSTORE PUSH1 0x84 DUP2 ADD CALLDATALOAD PUSH1 0x80 DUP6 ADD MSTORE PUSH1 0xA4 DUP2 ADD CALLDATALOAD PUSH1 0xA0 DUP6 ADD MSTORE PUSH2 0x29F SWAP2 PUSH2 0x298 SWAP2 PUSH1 0xC4 DUP2 ADD SWAP2 ADD PUSH2 0xCFC JUMP JUMPDEST CALLDATASIZE SWAP2 PUSH2 0xD77 JUMP JUMPDEST PUSH1 0xC0 DUP4 ADD MSTORE PUSH1 0x4 CALLDATALOAD CALLDATASIZE SUB PUSH1 0x22 NOT ADD DUP9 SLT ISZERO PUSH2 0xE7 JUMPI PUSH1 0x1 PUSH1 0x1 PUSH1 0x40 SHL SUB PUSH1 0x4 DUP8 ADD CALLDATALOAD GT PUSH2 0xE7 JUMPI PUSH1 0x4 DUP7 ADD CALLDATALOAD CALLDATASIZE SUB PUSH1 0x24 DUP8 ADD SGT PUSH2 0xE7 JUMPI PUSH2 0x2E8 CALLDATASIZE PUSH1 0x4 DUP9 ADD CALLDATALOAD PUSH1 0x24 DUP10 ADD PUSH2 0xD31 JUMP JUMPDEST PUSH1 0xE0 DUP4 ADD MSTORE PUSH2 0x104 PUSH1 0x4 CALLDATALOAD ADD CALLDATALOAD PUSH2 0x100 DUP4 ADD MSTORE PUSH1 0x1 PUSH1 0x1 PUSH1 0x40 SHL SUB DUP5 AND DUP5 SUB PUSH2 0xE7 JUMPI PUSH1 0x1 PUSH1 0x1 PUSH1 0x40 SHL SUB DUP5 AND PUSH2 0x120 DUP4 ADD MSTORE PUSH1 0x4 CALLDATALOAD PUSH2 0x144 DUP2 ADD CALLDATALOAD PUSH2 0x140 DUP5 ADD MSTORE PUSH1 0x1 PUSH1 0x1 PUSH1 0xA0 SHL SUB SWAP1 PUSH2 0x340 SWAP1 PUSH2 0x164 ADD PUSH2 0xBC2 JUMP JUMPDEST AND PUSH2 0x160 DUP4 ADD MSTORE PUSH1 0x4 CALLDATALOAD PUSH2 0x184 ADD CALLDATALOAD PUSH2 0x180 DUP4 ADD MSTORE PUSH1 0x1 PUSH1 0x1 PUSH1 0xA0 SHL SUB PUSH2 0x370 PUSH2 0x36B DUP4 DUP7 DUP10 PUSH2 0xB9C JUMP JUMPDEST PUSH2 0xBC2 JUMP JUMPDEST AND DUP3 MSTORE PUSH1 0x1 PUSH1 0x1 PUSH1 0xA0 SHL SUB PUSH2 0x389 PUSH2 0x36B DUP4 DUP7 DUP10 PUSH2 0xB9C JUMP JUMPDEST AND PUSH2 0x50C JUMPI PUSH1 0xFF PUSH1 0x12 JUMPDEST AND PUSH1 0x20 DUP4 ADD MSTORE PUSH1 0x20 PUSH1 0x40 MLOAD DUP1 DUP1 SWAP5 PUSH4 0x5B2EAC4F PUSH1 0xE0 SHL DUP3 MSTORE DUP4 PUSH1 0x4 DUP4 ADD MSTORE PUSH1 0x1 DUP1 PUSH1 0xA0 SHL SUB DUP2 MLOAD AND PUSH1 0x24 DUP4 ADD MSTORE PUSH1 0xFF DUP5 DUP3 ADD MLOAD AND PUSH1 0x44 DUP4 ADD MSTORE PUSH1 0x40 DUP2 ADD MLOAD PUSH1 0x64 DUP4 ADD MSTORE PUSH1 0x60 DUP2 ADD MLOAD PUSH1 0x84 DUP4 ADD MSTORE PUSH1 0x80 DUP2 ADD MLOAD PUSH1 0xA4 DUP4 ADD MSTORE PUSH1 0xA0 DUP2 ADD MLOAD PUSH1 0xC4 DUP4 ADD MSTORE PUSH2 0x180 PUSH2 0x42C PUSH2 0x415 PUSH1 0xC0 DUP5 ADD MLOAD PUSH2 0x1A0 PUSH1 0xE4 DUP8 ADD MSTORE PUSH2 0x1C4 DUP7 ADD SWAP1 PUSH2 0xC43 JUMP JUMPDEST PUSH1 0xE0 DUP5 ADD MLOAD DUP6 DUP3 SUB PUSH1 0x23 NOT ADD PUSH2 0x104 DUP8 ADD MSTORE PUSH2 0xC03 JUMP JUMPDEST SWAP2 PUSH2 0x100 DUP2 ADD MLOAD PUSH2 0x124 DUP6 ADD MSTORE PUSH1 0x1 PUSH1 0x1 PUSH1 0x40 SHL SUB PUSH2 0x120 DUP3 ADD MLOAD AND PUSH2 0x144 DUP6 ADD MSTORE PUSH2 0x140 DUP2 ADD MLOAD PUSH2 0x164 DUP6 ADD MSTORE PUSH1 0x1 DUP1 PUSH1 0xA0 SHL SUB PUSH2 0x160 DUP3 ADD MLOAD AND PUSH2 0x184 DUP6 ADD MSTORE ADD MLOAD PUSH2 0x1A4 DUP4 ADD MSTORE SUB DUP2 PUSH1 0x0 PUSH1 0x1 DUP1 PUSH1 0xA0 SHL SUB PUSH32 0x0 AND GAS CALL DUP1 ISZERO PUSH2 0x500 JUMPI PUSH1 0x1 SWAP3 PUSH1 0x0 SWAP2 PUSH2 0x4D1 JUMPI JUMPDEST POP PUSH2 0x4C1 DUP3 DUP10 PUSH2 0xCD4 JUMP JUMPDEST SWAP1 DUP4 DUP1 PUSH1 0xA0 SHL SUB AND SWAP1 MSTORE ADD PUSH2 0x18F JUMP JUMPDEST PUSH2 0x4F3 SWAP2 POP PUSH1 0x20 RETURNDATASIZE PUSH1 0x20 GT PUSH2 0x4F9 JUMPI JUMPDEST PUSH2 0x4EB DUP2 DUP4 PUSH2 0xB32 JUMP JUMPDEST DUP2 ADD SWAP1 PUSH2 0xBE4 JUMP JUMPDEST DUP10 PUSH2 0x4B6 JUMP JUMPDEST POP RETURNDATASIZE PUSH2 0x4E1 JUMP JUMPDEST PUSH1 0x40 MLOAD RETURNDATASIZE PUSH1 0x0 DUP3 RETURNDATACOPY RETURNDATASIZE SWAP1 REVERT JUMPDEST PUSH1 0xFF PUSH2 0x51C PUSH1 0x24 PUSH1 0x4 CALLDATALOAD ADD PUSH2 0xBD6 JUMP JUMPDEST PUSH2 0x393 JUMP JUMPDEST PUSH4 0x4E487B71 PUSH1 0xE0 SHL PUSH1 0x0 MSTORE PUSH1 0x41 PUSH1 0x4 MSTORE PUSH1 0x24 PUSH1 0x0 REVERT JUMPDEST CALLVALUE PUSH2 0xE7 JUMPI PUSH1 0x0 CALLDATASIZE PUSH1 0x3 NOT ADD SLT PUSH2 0xE7 JUMPI PUSH1 0x0 SLOAD PUSH1 0x40 MLOAD PUSH1 0x1 PUSH1 0x1 PUSH1 0xA0 SHL SUB SWAP1 SWAP2 AND DUP2 MSTORE PUSH1 0x20 SWAP1 RETURN JUMPDEST CALLVALUE PUSH2 0xE7 JUMPI PUSH1 0x0 CALLDATASIZE PUSH1 0x3 NOT ADD SLT PUSH2 0xE7 JUMPI PUSH1 0x1 SLOAD PUSH1 0x1 PUSH1 0x1 PUSH1 0xA0 SHL SUB CALLER DUP2 DUP4 AND SUB PUSH2 0x5D1 JUMPI PUSH12 0xFFFFFFFFFFFFFFFFFFFFFFFF PUSH1 0xA0 SHL DUP1 SWAP3 AND PUSH1 0x1 SSTORE PUSH1 0x0 SLOAD SWAP2 CALLER SWAP1 DUP4 AND OR PUSH1 0x0 SSTORE CALLER SWAP2 AND PUSH32 0x8BE0079C531659141344CD1FD0A4F28419497F9722A3DAAFE3B4186F6B6457E0 PUSH1 0x0 DUP1 LOG3 STOP JUMPDEST PUSH1 0x40 MLOAD PUSH4 0x118CDAA7 PUSH1 0xE0 SHL DUP2 MSTORE CALLER PUSH1 0x4 DUP3 ADD MSTORE PUSH1 0x24 SWAP1 REVERT JUMPDEST CALLVALUE PUSH2 0xE7 JUMPI PUSH1 0x0 CALLDATASIZE PUSH1 0x3 NOT ADD SLT PUSH2 0xE7 JUMPI PUSH2 0x602 PUSH2 0xCE8 JUMP JUMPDEST PUSH1 0x1 DUP1 SLOAD PUSH1 0x1 PUSH1 0x1 PUSH1 0xA0 SHL SUB NOT SWAP1 DUP2 AND SWAP1 SWAP2 SSTORE PUSH1 0x0 DUP1 SLOAD SWAP2 DUP3 AND DUP2 SSTORE SWAP1 PUSH1 0x1 PUSH1 0x1 PUSH1 0xA0 SHL SUB AND PUSH32 0x8BE0079C531659141344CD1FD0A4F28419497F9722A3DAAFE3B4186F6B6457E0 DUP3 DUP1 LOG3 STOP JUMPDEST CALLVALUE PUSH2 0xE7 JUMPI PUSH1 0x0 CALLDATASIZE PUSH1 0x3 NOT ADD SLT PUSH2 0xE7 JUMPI PUSH1 0x40 MLOAD PUSH32 0x0 PUSH1 0x1 PUSH1 0x1 PUSH1 0xA0 SHL SUB AND DUP2 MSTORE PUSH1 0x20 SWAP1 RETURN JUMPDEST CALLVALUE PUSH2 0xE7 JUMPI PUSH1 0x3 NOT PUSH1 0x40 CALLDATASIZE DUP3 ADD SLT PUSH2 0xE7 JUMPI PUSH1 0x1 PUSH1 0x1 PUSH1 0x40 SHL SUB PUSH1 0x4 CALLDATALOAD GT PUSH2 0xE7 JUMPI PUSH2 0x1E0 SWAP1 PUSH1 0x4 CALLDATALOAD CALLDATASIZE SUB ADD SLT PUSH2 0xE7 JUMPI PUSH1 0x24 CALLDATALOAD PUSH1 0x1 PUSH1 0x1 PUSH1 0x40 SHL SUB DUP2 GT PUSH2 0xE7 JUMPI PUSH2 0x6E3 SWAP1 CALLDATASIZE SWAP1 PUSH1 0x4 ADD PUSH2 0xABD JUMP JUMPDEST PUSH2 0x6EB PUSH2 0xCE8 JUMP JUMPDEST PUSH2 0x6F4 DUP2 PUSH2 0xB6A JUMP JUMPDEST SWAP1 PUSH1 0x0 SWAP3 PUSH1 0x3 PUSH2 0x124 PUSH1 0x4 CALLDATALOAD ADD CALLDATALOAD LT ISZERO JUMPDEST DUP3 DUP6 LT PUSH2 0x71A JUMPI PUSH1 0x40 MLOAD DUP1 PUSH2 0x1A4 DUP7 DUP3 PUSH2 0xAED JUMP JUMPDEST PUSH1 0x40 MLOAD SWAP1 DUP2 PUSH2 0x1E0 DUP2 ADD LT PUSH1 0x1 PUSH1 0x1 PUSH1 0x40 SHL SUB PUSH2 0x1E0 DUP5 ADD GT OR PUSH2 0x521 JUMPI PUSH2 0x1E0 DUP3 ADD PUSH1 0x40 MSTORE PUSH1 0x0 DUP3 MSTORE PUSH1 0x0 PUSH1 0x20 DUP4 ADD MSTORE PUSH1 0x0 PUSH1 0x40 DUP4 ADD MSTORE PUSH1 0x0 PUSH1 0x60 DUP4 ADD MSTORE PUSH1 0x0 PUSH1 0x80 DUP4 ADD MSTORE PUSH1 0x0 PUSH1 0xA0 DUP4 ADD MSTORE PUSH1 0x60 PUSH1 0xC0 DUP4 ADD MSTORE PUSH1 0x0 PUSH1 0xE0 DUP4 ADD MSTORE PUSH1 0x0 PUSH2 0x100 DUP4 ADD MSTORE PUSH1 0x0 PUSH2 0x120 DUP4 ADD MSTORE PUSH1 0x0 PUSH2 0x140 DUP4 ADD MSTORE PUSH1 0x0 PUSH2 0x160 DUP4 ADD MSTORE PUSH1 0x60 PUSH2 0x180 DUP4 ADD MSTORE PUSH1 0x60 PUSH2 0x1A0 DUP4 ADD MSTORE PUSH1 0x0 PUSH2 0x1C0 DUP4 ADD MSTORE PUSH1 0x1 DUP1 PUSH1 0xA0 SHL SUB PUSH2 0x7C2 PUSH1 0x4 CALLDATALOAD PUSH1 0x4 ADD PUSH2 0xBC2 JUMP JUMPDEST AND DUP3 MSTORE PUSH1 0xFF PUSH2 0x7D5 PUSH1 0x24 PUSH1 0x4 CALLDATALOAD ADD PUSH2 0xBD6 JUMP JUMPDEST AND PUSH1 0x20 DUP4 ADD MSTORE PUSH1 0x4 DUP1 CALLDATALOAD PUSH1 0x44 DUP2 ADD CALLDATALOAD PUSH1 0x40 DUP6 ADD MSTORE PUSH1 0x64 DUP2 ADD CALLDATALOAD PUSH1 0x60 DUP6 ADD MSTORE PUSH1 0x84 DUP2 ADD CALLDATALOAD PUSH1 0x80 DUP6 ADD MSTORE PUSH1 0xA4 DUP2 ADD CALLDATALOAD PUSH1 0xA0 DUP6 ADD MSTORE PUSH2 0x81A SWAP2 PUSH2 0x298 SWAP2 PUSH1 0xC4 DUP2 ADD SWAP2 ADD PUSH2 0xCFC JUMP JUMPDEST PUSH1 0xC0 DUP4 ADD MSTORE PUSH1 0x1 PUSH1 0x1 PUSH1 0xA0 SHL SUB PUSH2 0x835 PUSH1 0x4 CALLDATALOAD PUSH1 0xE4 ADD PUSH2 0xBC2 JUMP JUMPDEST AND PUSH1 0xE0 DUP4 ADD MSTORE PUSH2 0x104 PUSH1 0x4 CALLDATALOAD ADD CALLDATALOAD PUSH2 0x100 DUP4 ADD MSTORE PUSH2 0xE7 JUMPI PUSH1 0x0 SWAP5 PUSH2 0x124 PUSH1 0x4 CALLDATALOAD ADD CALLDATALOAD PUSH2 0x120 DUP4 ADD MSTORE PUSH2 0x144 PUSH1 0x4 CALLDATALOAD ADD CALLDATALOAD PUSH2 0x140 DUP4 ADD MSTORE PUSH2 0x164 PUSH1 0x4 CALLDATALOAD ADD CALLDATALOAD PUSH2 0x160 DUP4 ADD MSTORE PUSH2 0x899 PUSH2 0x892 PUSH2 0x184 PUSH1 0x4 CALLDATALOAD ADD PUSH1 0x4 CALLDATALOAD PUSH1 0x4 ADD PUSH2 0xCFC JUMP JUMPDEST CALLDATASIZE SWAP2 PUSH2 0xDF6 JUMP JUMPDEST PUSH2 0x180 DUP4 ADD MSTORE PUSH2 0x8B7 PUSH2 0x892 PUSH2 0x1A4 PUSH1 0x4 CALLDATALOAD ADD PUSH1 0x4 CALLDATALOAD PUSH1 0x4 ADD PUSH2 0xCFC JUMP JUMPDEST PUSH2 0x1A0 DUP4 ADD MSTORE PUSH1 0x4 CALLDATALOAD PUSH2 0x1C4 ADD CALLDATALOAD PUSH2 0x1C0 DUP4 ADD MSTORE PUSH1 0x1 PUSH1 0x1 PUSH1 0xA0 SHL SUB PUSH2 0x8E1 PUSH2 0x36B DUP4 DUP8 DUP8 PUSH2 0xB9C JUMP JUMPDEST AND DUP3 MSTORE PUSH1 0x1 PUSH1 0x1 PUSH1 0xA0 SHL SUB PUSH2 0x8FA PUSH2 0x36B DUP4 DUP8 DUP8 PUSH2 0xB9C JUMP JUMPDEST AND PUSH2 0xAA8 JUMPI PUSH1 0xFF PUSH1 0x12 JUMPDEST AND PUSH1 0x20 DUP4 ADD MSTORE PUSH1 0x40 MLOAD SWAP2 PUSH4 0x1CBA0D29 PUSH1 0xE0 SHL DUP4 MSTORE PUSH1 0x20 PUSH1 0x4 DUP5 ADD MSTORE PUSH1 0x1 DUP1 PUSH1 0xA0 SHL SUB DUP2 MLOAD AND PUSH1 0x24 DUP5 ADD MSTORE PUSH1 0xFF PUSH1 0x20 DUP3 ADD MLOAD AND PUSH1 0x44 DUP5 ADD MSTORE PUSH1 0x40 DUP2 ADD MLOAD PUSH1 0x64 DUP5 ADD MSTORE PUSH1 0x60 DUP2 ADD MLOAD PUSH1 0x84 DUP5 ADD MSTORE PUSH1 0x80 DUP2 ADD MLOAD PUSH1 0xA4 DUP5 ADD MSTORE PUSH1 0xA0 DUP2 ADD MLOAD PUSH1 0xC4 DUP5 ADD MSTORE PUSH2 0x97E PUSH1 0xC0 DUP3 ADD MLOAD PUSH2 0x1E0 PUSH1 0xE4 DUP7 ADD MSTORE PUSH2 0x204 DUP6 ADD SWAP1 PUSH2 0xC43 JUMP JUMPDEST PUSH1 0xE0 DUP3 ADD MLOAD PUSH1 0x1 PUSH1 0x1 PUSH1 0xA0 SHL SUB AND PUSH2 0x104 DUP6 ADD MSTORE PUSH2 0x100 DUP3 ADD MLOAD PUSH2 0x124 DUP6 ADD MSTORE PUSH2 0x120 DUP3 ADD MLOAD PUSH1 0x3 DUP2 LT ISZERO PUSH2 0xA92 JUMPI PUSH1 0x20 SWAP3 PUSH2 0x1C0 PUSH2 0xA0D DUP8 SWAP5 DUP6 SWAP5 PUSH2 0x144 DUP7 ADD MSTORE PUSH2 0x140 DUP5 ADD MLOAD PUSH2 0x164 DUP7 ADD MSTORE PUSH2 0x160 DUP5 ADD MLOAD PUSH2 0x184 DUP7 ADD MSTORE PUSH2 0x9F6 PUSH2 0x180 DUP6 ADD MLOAD SWAP2 PUSH1 0x23 NOT SWAP3 DUP4 DUP9 DUP4 SUB ADD PUSH2 0x1A4 DUP10 ADD MSTORE PUSH2 0xCA0 JUMP JUMPDEST SWAP1 PUSH2 0x1A0 DUP6 ADD MLOAD SWAP1 DUP7 DUP4 SUB ADD PUSH2 0x1C4 DUP8 ADD MSTORE PUSH2 0xCA0 JUMP JUMPDEST SWAP2 ADD MLOAD PUSH2 0x1E4 DUP4 ADD MSTORE SUB DUP2 PUSH1 0x0 PUSH32 0x0 PUSH1 0x1 PUSH1 0x1 PUSH1 0xA0 SHL SUB AND GAS CALL DUP1 ISZERO PUSH2 0x500 JUMPI PUSH1 0x1 SWAP3 PUSH1 0x0 SWAP2 PUSH2 0xA73 JUMPI JUMPDEST POP PUSH2 0xA62 DUP3 DUP8 PUSH2 0xCD4 JUMP JUMPDEST SWAP1 DUP4 DUP1 PUSH1 0xA0 SHL SUB AND SWAP1 MSTORE ADD SWAP4 PUSH2 0x705 JUMP JUMPDEST PUSH2 0xA8C SWAP2 POP PUSH1 0x20 RETURNDATASIZE PUSH1 0x20 GT PUSH2 0x4F9 JUMPI PUSH2 0x4EB DUP2 DUP4 PUSH2 0xB32 JUMP JUMPDEST DUP8 PUSH2 0xA57 JUMP JUMPDEST PUSH4 0x4E487B71 PUSH1 0xE0 SHL PUSH1 0x0 MSTORE PUSH1 0x21 PUSH1 0x4 MSTORE PUSH1 0x24 PUSH1 0x0 REVERT JUMPDEST PUSH1 0xFF PUSH2 0xAB8 PUSH1 0x24 PUSH1 0x4 CALLDATALOAD ADD PUSH2 0xBD6 JUMP JUMPDEST PUSH2 0x904 JUMP JUMPDEST SWAP2 DUP2 PUSH1 0x1F DUP5 ADD SLT ISZERO PUSH2 0xE7 JUMPI DUP3 CALLDATALOAD SWAP2 PUSH1 0x1 PUSH1 0x1 PUSH1 0x40 SHL SUB DUP4 GT PUSH2 0xE7 JUMPI PUSH1 0x20 DUP1 DUP6 ADD SWAP5 DUP5 PUSH1 0x5 SHL ADD ADD GT PUSH2 0xE7 JUMPI JUMP JUMPDEST PUSH1 0x20 SWAP1 PUSH1 0x20 PUSH1 0x40 DUP2 DUP4 ADD SWAP3 DUP3 DUP2 MSTORE DUP6 MLOAD DUP1 SWAP5 MSTORE ADD SWAP4 ADD SWAP2 PUSH1 0x0 JUMPDEST DUP3 DUP2 LT PUSH2 0xB15 JUMPI POP POP POP POP SWAP1 JUMP JUMPDEST DUP4 MLOAD PUSH1 0x1 PUSH1 0x1 PUSH1 0xA0 SHL SUB AND DUP6 MSTORE SWAP4 DUP2 ADD SWAP4 SWAP3 DUP2 ADD SWAP3 PUSH1 0x1 ADD PUSH2 0xB07 JUMP JUMPDEST SWAP1 PUSH1 0x1F DUP1 NOT SWAP2 ADD AND DUP2 ADD SWAP1 DUP2 LT PUSH1 0x1 PUSH1 0x1 PUSH1 0x40 SHL SUB DUP3 GT OR PUSH2 0x521 JUMPI PUSH1 0x40 MSTORE JUMP JUMPDEST PUSH1 0x1 PUSH1 0x1 PUSH1 0x40 SHL SUB DUP2 GT PUSH2 0x521 JUMPI PUSH1 0x5 SHL PUSH1 0x20 ADD SWAP1 JUMP JUMPDEST SWAP1 PUSH2 0xB74 DUP3 PUSH2 0xB53 JUMP JUMPDEST PUSH2 0xB81 PUSH1 0x40 MLOAD SWAP2 DUP3 PUSH2 0xB32 JUMP JUMPDEST DUP3 DUP2 MSTORE DUP1 SWAP3 PUSH2 0xB92 PUSH1 0x1F NOT SWAP2 PUSH2 0xB53 JUMP JUMPDEST ADD SWAP1 PUSH1 0x20 CALLDATASIZE SWAP2 ADD CALLDATACOPY JUMP JUMPDEST SWAP2 SWAP1 DUP2 LT ISZERO PUSH2 0xBAC JUMPI PUSH1 0x5 SHL ADD SWAP1 JUMP JUMPDEST PUSH4 0x4E487B71 PUSH1 0xE0 SHL PUSH1 0x0 MSTORE PUSH1 0x32 PUSH1 0x4 MSTORE PUSH1 0x24 PUSH1 0x0 REVERT JUMPDEST CALLDATALOAD PUSH1 0x1 PUSH1 0x1 PUSH1 0xA0 SHL SUB DUP2 AND DUP2 SUB PUSH2 0xE7 JUMPI SWAP1 JUMP JUMPDEST CALLDATALOAD PUSH1 0xFF DUP2 AND DUP2 SUB PUSH2 0xE7 JUMPI SWAP1 JUMP JUMPDEST SWAP1 DUP2 PUSH1 0x20 SWAP2 SUB SLT PUSH2 0xE7 JUMPI MLOAD PUSH1 0x1 PUSH1 0x1 PUSH1 0xA0 SHL SUB DUP2 AND DUP2 SUB PUSH2 0xE7 JUMPI SWAP1 JUMP JUMPDEST SWAP2 SWAP1 DUP3 MLOAD SWAP3 DUP4 DUP3 MSTORE PUSH1 0x0 JUMPDEST DUP5 DUP2 LT PUSH2 0xC2F JUMPI POP POP DUP3 PUSH1 0x0 PUSH1 0x20 DUP1 SWAP5 SWAP6 DUP5 ADD ADD MSTORE PUSH1 0x1F DUP1 NOT SWAP2 ADD AND ADD ADD SWAP1 JUMP JUMPDEST PUSH1 0x20 DUP2 DUP4 ADD DUP2 ADD MLOAD DUP5 DUP4 ADD DUP3 ADD MSTORE ADD PUSH2 0xC0E JUMP JUMPDEST SWAP1 DUP1 DUP3 MLOAD SWAP1 DUP2 DUP2 MSTORE PUSH1 0x20 DUP1 SWAP2 ADD SWAP3 PUSH1 0x20 DUP1 DUP5 PUSH1 0x5 SHL DUP4 ADD ADD SWAP6 ADD SWAP4 PUSH1 0x0 SWAP2 JUMPDEST DUP5 DUP4 LT PUSH2 0xC72 JUMPI POP POP POP POP POP POP SWAP1 JUMP JUMPDEST SWAP1 SWAP2 SWAP3 SWAP4 SWAP5 SWAP6 DUP5 DUP1 PUSH2 0xC90 PUSH1 0x1 SWAP4 PUSH1 0x1F NOT DUP7 DUP3 SUB ADD DUP8 MSTORE DUP11 MLOAD PUSH2 0xC03 JUMP JUMPDEST SWAP9 ADD SWAP4 ADD SWAP4 ADD SWAP2 SWAP5 SWAP4 SWAP3 SWAP1 PUSH2 0xC62 JUMP JUMPDEST SWAP1 DUP2 MLOAD DUP1 DUP3 MSTORE PUSH1 0x20 DUP1 DUP1 SWAP4 ADD SWAP4 ADD SWAP2 PUSH1 0x0 JUMPDEST DUP3 DUP2 LT PUSH2 0xCC0 JUMPI POP POP POP POP SWAP1 JUMP JUMPDEST DUP4 MLOAD DUP6 MSTORE SWAP4 DUP2 ADD SWAP4 SWAP3 DUP2 ADD SWAP3 PUSH1 0x1 ADD PUSH2 0xCB2 JUMP JUMPDEST DUP1 MLOAD DUP3 LT ISZERO PUSH2 0xBAC JUMPI PUSH1 0x20 SWAP2 PUSH1 0x5 SHL ADD ADD SWAP1 JUMP JUMPDEST PUSH1 0x0 SLOAD PUSH1 0x1 PUSH1 0x1 PUSH1 0xA0 SHL SUB AND CALLER SUB PUSH2 0x5D1 JUMPI JUMP JUMPDEST SWAP1 CALLDATALOAD SWAP1 PUSH1 0x1E NOT DUP2 CALLDATASIZE SUB ADD DUP3 SLT ISZERO PUSH2 0xE7 JUMPI ADD DUP1 CALLDATALOAD SWAP1 PUSH1 0x1 PUSH1 0x1 PUSH1 0x40 SHL SUB DUP3 GT PUSH2 0xE7 JUMPI PUSH1 0x20 ADD SWAP2 DUP2 PUSH1 0x5 SHL CALLDATASIZE SUB DUP4 SGT PUSH2 0xE7 JUMPI JUMP JUMPDEST SWAP3 SWAP2 SWAP3 PUSH1 0x1 PUSH1 0x1 PUSH1 0x40 SHL SUB DUP3 GT PUSH2 0x521 JUMPI PUSH1 0x40 MLOAD SWAP2 PUSH2 0xD5A PUSH1 0x1F DUP3 ADD PUSH1 0x1F NOT AND PUSH1 0x20 ADD DUP5 PUSH2 0xB32 JUMP JUMPDEST DUP3 SWAP5 DUP2 DUP5 MSTORE DUP2 DUP4 ADD GT PUSH2 0xE7 JUMPI DUP3 DUP2 PUSH1 0x20 SWAP4 DUP5 PUSH1 0x0 SWAP7 ADD CALLDATACOPY ADD ADD MSTORE JUMP JUMPDEST SWAP3 SWAP2 SWAP1 SWAP3 PUSH2 0xD84 DUP5 PUSH2 0xB53 JUMP JUMPDEST SWAP2 PUSH2 0xD92 PUSH1 0x40 MLOAD SWAP4 DUP5 PUSH2 0xB32 JUMP JUMPDEST DUP3 SWAP5 DUP1 DUP5 MSTORE PUSH1 0x20 DUP1 SWAP5 ADD SWAP1 PUSH1 0x5 SHL DUP4 ADD SWAP3 DUP3 DUP5 GT PUSH2 0xE7 JUMPI DUP1 SWAP2 JUMPDEST DUP5 DUP4 LT PUSH2 0xDBC JUMPI POP POP POP POP POP POP JUMP JUMPDEST DUP3 CALLDATALOAD PUSH1 0x1 PUSH1 0x1 PUSH1 0x40 SHL SUB DUP2 GT PUSH2 0xE7 JUMPI DUP3 ADD DUP5 PUSH1 0x1F DUP3 ADD SLT ISZERO PUSH2 0xE7 JUMPI DUP7 SWAP2 PUSH2 0xDEB DUP7 DUP4 DUP6 DUP1 SWAP6 CALLDATALOAD SWAP2 ADD PUSH2 0xD31 JUMP JUMPDEST DUP2 MSTORE ADD SWAP3 ADD SWAP2 PUSH2 0xDAD JUMP JUMPDEST SWAP3 SWAP2 PUSH2 0xE01 DUP3 PUSH2 0xB53 JUMP JUMPDEST SWAP2 PUSH2 0xE0F PUSH1 0x40 MLOAD SWAP4 DUP5 PUSH2 0xB32 JUMP JUMPDEST DUP3 SWAP5 DUP2 DUP5 MSTORE PUSH1 0x20 DUP1 SWAP5 ADD SWAP2 PUSH1 0x5 SHL DUP2 ADD SWAP3 DUP4 GT PUSH2 0xE7 JUMPI SWAP1 JUMPDEST DUP3 DUP3 LT PUSH2 0xE35 JUMPI POP POP POP POP JUMP JUMPDEST DUP2 CALLDATALOAD DUP2 MSTORE SWAP1 DUP4 ADD SWAP1 DUP4 ADD PUSH2 0xE28 JUMP INVALID LOG2 PUSH5 0x6970667358 0x22 SLT KECCAK256 AND CODESIZE 0xF DIV LOG3 RETURNDATACOPY 0xEB TLOAD 0xEC 0xE JUMPDEST BYTE 0x4E SHR 0xA9 0xE8 0xCE 0x2B 0xB1 CALLDATACOPY 0x27 SWAP8 PUSH12 0x4374465F82D77D27064736F PUSH13 0x63430008180033000000000000 "},"methodIdentifiers":{"acceptOwnership()":"79ba5097","coreFactory()":"3d8df667","createEventMarketsBatch((address,uint8,uint256,uint256,uint256,bytes32,string[],string,bytes32,uint64,uint256,address,uint256),address[])":"8dd0ea65","createPriceMarketsBatch((address,uint8,uint256,uint256,uint256,bytes32,string[],address,uint256,uint8,uint256,uint256,uint256[],uint256[],uint256),address[])":"273c1780","owner()":"8da5cb5b","pendingOwner()":"e30c3978","renounceOwnership()":"715018a6","transferOwnership(address)":"f2fde38b"}}}}}