{"contracts/factory/AFTRParimutuelMarketFactory.sol":{"AFTRParimutuelMarketFactory":{"abi":[{"inputs":[{"internalType":"address","name":"owner_","type":"address"},{"internalType":"address","name":"feeRecipient_","type":"address"},{"internalType":"address","name":"optimisticOracleV2_","type":"address"},{"internalType":"address","name":"umaBondCurrency_","type":"address"}],"stateMutability":"nonpayable","type":"constructor"},{"inputs":[],"name":"InvalidAddress","type":"error"},{"inputs":[],"name":"InvalidBins","type":"error"},{"inputs":[],"name":"InvalidCollateral","type":"error"},{"inputs":[],"name":"InvalidConfig","type":"error"},{"inputs":[],"name":"InvalidDeployer","type":"error"},{"inputs":[],"name":"InvalidFeed","type":"error"},{"inputs":[],"name":"InvalidMeta","type":"error"},{"inputs":[],"name":"InvalidOutcomes","type":"error"},{"inputs":[],"name":"InvalidTime","type":"error"},{"inputs":[],"name":"NotCreator","type":"error"},{"inputs":[{"internalType":"address","name":"owner","type":"address"}],"name":"OwnableInvalidOwner","type":"error"},{"inputs":[{"internalType":"address","name":"account","type":"address"}],"name":"OwnableUnauthorizedAccount","type":"error"},{"anonymous":false,"inputs":[{"indexed":true,"internalType":"address","name":"recipient","type":"address"}],"name":"FeeRecipientUpdated","type":"event"},{"anonymous":false,"inputs":[{"indexed":true,"internalType":"address","name":"market","type":"address"},{"indexed":true,"internalType":"enum AFTRVParimutuelMarket.MarketKind","name":"kind","type":"uint8"},{"indexed":true,"internalType":"address","name":"collateralToken","type":"address"},{"indexed":false,"internalType":"address[]","name":"outcomeTokens","type":"address[]"},{"indexed":false,"internalType":"string[]","name":"outcomeLabels","type":"string[]"},{"indexed":false,"internalType":"uint256","name":"stakeEndTimestamp","type":"uint256"},{"indexed":false,"internalType":"uint256","name":"resolveAfterTimestamp","type":"uint256"},{"indexed":false,"internalType":"bytes32","name":"metadataHash","type":"bytes32"}],"name":"MarketCreated","type":"event"},{"anonymous":false,"inputs":[{"indexed":true,"internalType":"address","name":"deployer","type":"address"}],"name":"MarketDeployerUpdated","type":"event"},{"anonymous":false,"inputs":[{"indexed":true,"internalType":"address","name":"oracle","type":"address"}],"name":"OptimisticOracleV2Updated","type":"event"},{"anonymous":false,"inputs":[{"indexed":true,"internalType":"address","name":"previousOwner","type":"address"},{"indexed":true,"internalType":"address","name":"newOwner","type":"address"}],"name":"OwnershipTransferStarted","type":"event"},{"anonymous":false,"inputs":[{"indexed":true,"internalType":"address","name":"previousOwner","type":"address"},{"indexed":true,"internalType":"address","name":"newOwner","type":"address"}],"name":"OwnershipTransferred","type":"event"},{"anonymous":false,"inputs":[{"indexed":true,"internalType":"address","name":"token","type":"address"}],"name":"SupportedCollateralAdded","type":"event"},{"anonymous":false,"inputs":[{"indexed":true,"internalType":"address","name":"token","type":"address"}],"name":"SupportedCollateralRemoved","type":"event"},{"anonymous":false,"inputs":[{"indexed":true,"internalType":"address","name":"currency","type":"address"}],"name":"UmaBondCurrencyUpdated","type":"event"},{"inputs":[],"name":"acceptOwnership","outputs":[],"stateMutability":"nonpayable","type":"function"},{"inputs":[{"internalType":"address","name":"token","type":"address"}],"name":"addSupportedCollateral","outputs":[],"stateMutability":"nonpayable","type":"function"},{"inputs":[],"name":"batchExecutor","outputs":[{"internalType":"address","name":"","type":"address"}],"stateMutability":"view","type":"function"},{"inputs":[{"components":[{"internalType":"address","name":"collateralToken","type":"address"},{"internalType":"uint8","name":"collateralDecimals","type":"uint8"},{"internalType":"uint256","name":"virtualReserve","type":"uint256"},{"internalType":"uint256","name":"stakeEndTimestamp","type":"uint256"},{"internalType":"uint256","name":"resolveAfterTimestamp","type":"uint256"},{"internalType":"bytes32","name":"metadataHash","type":"bytes32"},{"internalType":"string[]","name":"outcomeLabels","type":"string[]"},{"internalType":"string","name":"umaQuestion","type":"string"},{"internalType":"bytes32","name":"umaIdentifier","type":"bytes32"},{"internalType":"uint64","name":"umaLiveness","type":"uint64"},{"internalType":"uint256","name":"umaReward","type":"uint256"},{"internalType":"address","name":"umaRewardCurrency","type":"address"},{"internalType":"uint256","name":"minBootstrapTotal","type":"uint256"}],"internalType":"struct AFTRParimutuelMarketFactory.EventMarketParams","name":"p","type":"tuple"}],"name":"createEventMarket","outputs":[{"internalType":"address","name":"market","type":"address"}],"stateMutability":"nonpayable","type":"function"},{"inputs":[{"components":[{"internalType":"address","name":"collateralToken","type":"address"},{"internalType":"uint8","name":"collateralDecimals","type":"uint8"},{"internalType":"uint256","name":"virtualReserve","type":"uint256"},{"internalType":"uint256","name":"stakeEndTimestamp","type":"uint256"},{"internalType":"uint256","name":"resolveAfterTimestamp","type":"uint256"},{"internalType":"bytes32","name":"metadataHash","type":"bytes32"},{"internalType":"string[]","name":"outcomeLabels","type":"string[]"},{"internalType":"address","name":"chainlinkFeed","type":"address"},{"internalType":"uint256","name":"priceThreshold","type":"uint256"},{"internalType":"enum AFTRVParimutuelMarket.PriceThresholdKind","name":"priceKind","type":"uint8"},{"internalType":"uint256","name":"priceUpperBound","type":"uint256"},{"internalType":"uint256","name":"maxPriceStaleness","type":"uint256"},{"internalType":"uint256[]","name":"priceBinLower","type":"uint256[]"},{"internalType":"uint256[]","name":"priceBinUpper","type":"uint256[]"},{"internalType":"uint256","name":"minBootstrapTotal","type":"uint256"}],"internalType":"struct AFTRParimutuelMarketFactory.PriceMarketParams","name":"p","type":"tuple"}],"name":"createPriceMarket","outputs":[{"internalType":"address","name":"market","type":"address"}],"stateMutability":"nonpayable","type":"function"},{"inputs":[],"name":"feeRecipient","outputs":[{"internalType":"address","name":"","type":"address"}],"stateMutability":"view","type":"function"},{"inputs":[{"internalType":"address","name":"market","type":"address"}],"name":"getMarketOutcomeTokens","outputs":[{"internalType":"address[]","name":"","type":"address[]"}],"stateMutability":"view","type":"function"},{"inputs":[{"internalType":"address","name":"","type":"address"}],"name":"isMarket","outputs":[{"internalType":"bool","name":"","type":"bool"}],"stateMutability":"view","type":"function"},{"inputs":[{"internalType":"address","name":"market","type":"address"},{"internalType":"address","name":"token","type":"address"}],"name":"isOutcomeTokenForMarket","outputs":[{"internalType":"bool","name":"","type":"bool"}],"stateMutability":"view","type":"function"},{"inputs":[{"internalType":"address","name":"","type":"address"}],"name":"isSupportedCollateral","outputs":[{"internalType":"bool","name":"","type":"bool"}],"stateMutability":"view","type":"function"},{"inputs":[],"name":"marketDeployer","outputs":[{"internalType":"address","name":"","type":"address"}],"stateMutability":"view","type":"function"},{"inputs":[{"internalType":"uint256","name":"","type":"uint256"}],"name":"markets","outputs":[{"internalType":"address","name":"","type":"address"}],"stateMutability":"view","type":"function"},{"inputs":[],"name":"optimisticOracleV2","outputs":[{"internalType":"address","name":"","type":"address"}],"stateMutability":"view","type":"function"},{"inputs":[],"name":"owner","outputs":[{"internalType":"address","name":"","type":"address"}],"stateMutability":"view","type":"function"},{"inputs":[],"name":"pendingOwner","outputs":[{"internalType":"address","name":"","type":"address"}],"stateMutability":"view","type":"function"},{"inputs":[{"internalType":"address","name":"token","type":"address"}],"name":"removeSupportedCollateral","outputs":[],"stateMutability":"nonpayable","type":"function"},{"inputs":[],"name":"renounceOwnership","outputs":[],"stateMutability":"nonpayable","type":"function"},{"inputs":[{"internalType":"address","name":"executor","type":"address"}],"name":"setBatchExecutor","outputs":[],"stateMutability":"nonpayable","type":"function"},{"inputs":[{"internalType":"address","name":"r","type":"address"}],"name":"setFeeRecipient","outputs":[],"stateMutability":"nonpayable","type":"function"},{"inputs":[{"internalType":"address","name":"d","type":"address"}],"name":"setMarketDeployer","outputs":[],"stateMutability":"nonpayable","type":"function"},{"inputs":[{"internalType":"address","name":"oo","type":"address"}],"name":"setOptimisticOracleV2","outputs":[],"stateMutability":"nonpayable","type":"function"},{"inputs":[{"internalType":"address","name":"c","type":"address"}],"name":"setUmaBondCurrency","outputs":[],"stateMutability":"nonpayable","type":"function"},{"inputs":[{"internalType":"address","name":"newOwner","type":"address"}],"name":"transferOwnership","outputs":[],"stateMutability":"nonpayable","type":"function"},{"inputs":[],"name":"umaBondCurrency","outputs":[{"internalType":"address","name":"","type":"address"}],"stateMutability":"view","type":"function"}],"evm":{"bytecode":{"linkReferences":{},"object":"6080346200014b57601f62001c7f38819003918201601f19168301916001600160401b0383118484101762000150578084926080946040528339810103126200014b576200004d8162000166565b6200005b6020830162000166565b91620000786060620000706040840162000166565b920162000166565b6001600160a01b03929091908316801562000132578360018060a01b03199586600154166001556000549280888516176000558260405194167f8be0079c531659141344cd1fd0a4f28419497f9722a3daafe3b4186f6b6457e0600080a316908115801562000127575b6200011857509083918560035416176003551683600454161760045516906005541617600555604051611b0390816200017c8239f35b63e6c4247b60e01b8152600490fd5b5084841615620000e2565b604051631e4fbdf760e01b815260006004820152602490fd5b600080fd5b634e487b7160e01b600052604160045260246000fd5b51906001600160a01b03821682036200014b5756fe608080604052600436101561001357600080fd5b60003560e01c9081630d2af8d3146113ed5750806317dbc538146113aa5780631800d79f1461132c5780631cba0d2914610d495780631d55530614610d065780631f470b2d14610c6e57806339f4c4da14610c2f5780634682be6114610bc65780634690484014610b9d578063536db2e614610b1d5780635b2eac4f1461053c5780635e6607ff146105135780636ec934da146104d4578063715018a61461046f57806379ba5097146103e65780638da5cb5b146103bd5780639b307dc214610354578063b1283e77146102f9578063b2d35b7a14610292578063bb1e453114610269578063e30c397814610240578063e74b981b146101c5578063ed460e561461019c5763f2fde38b1461012757600080fd5b3461019757602036600319011261019757610140611411565b610148611555565b60018060a01b0380911690816bffffffffffffffffffffffff60a01b6001541617600155600054167f38d16b8cac22d99fc7c124b9cd0de2d3fa1faef420bfe791d8c362d765e22700600080a3005b600080fd5b34610197576000366003190112610197576005546040516001600160a01b039091168152602090f35b34610197576020366003190112610197576101de611411565b6101e6611555565b6001600160a01b0316801561022e57600380546001600160a01b031916821790557f7a7b5a0a132f9e0581eb8527f66eae9ee89c2a3e79d4ac7e41a1f1f4d48a7fc2600080a2005b60405163e6c4247b60e01b8152600490fd5b34610197576000366003190112610197576001546040516001600160a01b039091168152602090f35b34610197576000366003190112610197576007546040516001600160a01b039091168152602090f35b34610197576020366003190112610197576102ab611411565b6102b3611555565b600480546001600160a01b0319166001600160a01b039290921691821790557f6be240c3ce51532bc6f7066bd1c5c51947cc8e3e01fa03397d6ab44cfa7d198a600080a2005b34610197576020366003190112610197576004356008548110156101975760086000527ff3f7a9fe364faab93b216da50a3214154f22a0a2b415b23a84c8169e8b636ee301546040516001600160a01b039091168152602090f35b346101975760203660031901126101975761036d611411565b610375611555565b6001600160a01b0316801561022e57600780546001600160a01b031916821790557f605f04a31cf07d957f1c52208519e1cd6da20eb11dc98e67fc3eff63fe3933fc600080a2005b34610197576000366003190112610197576000546040516001600160a01b039091168152602090f35b34610197576000366003190112610197576001546001600160a01b033381831603610457576bffffffffffffffffffffffff60a01b8092166001556000549133908316176000553391167f8be0079c531659141344cd1fd0a4f28419497f9722a3daafe3b4186f6b6457e0600080a3005b60405163118cdaa760e01b8152336004820152602490fd5b3461019757600036600319011261019757610488611555565b600180546001600160a01b0319908116909155600080549182168155906001600160a01b03167f8be0079c531659141344cd1fd0a4f28419497f9722a3daafe3b4186f6b6457e08280a3005b34610197576020366003190112610197576001600160a01b036104f5611411565b166000526009602052602060ff604060002054166040519015158152f35b34610197576000366003190112610197576006546040516001600160a01b039091168152602090f35b346101975760206003198181360112610197576001600160401b0360043511610197576101a09060043536030112610197576000546001600160a01b03163381141580610b08575b610af6576105ad610599600435600401611569565b6105a760246004350161157d565b9061186d565b6001600160a01b036105c26004803501611569565b166000526002835260ff6040600020541615610ae4576001600160a01b036105ed6004803501611569565b161580610ad6575b610a6257600261060f60c46004350160043560040161158b565b9050108015610ab8575b610aa65761063160e460043501600435600401611827565b905015610a62576101046004350135158015610a87575b610a62576004546001600160a01b03168015610a6257600435610164016001600160a01b0361067682611569565b1615610a745761068590611569565b925b6001600160a01b03841615610a6257426064600435013511801590610a4c575b610a3a5760a4600435013515610a28576007546001600160a01b0316928315610a16576003546001600160a01b0316926106e46004803501611569565b956106f76004803560c48101910161158b565b92905061070961012460043501611859565b9061071c6004803560c48101910161158b565b9490956040519a8b998a9963418c64fd60e11b8b5260048b015260248a0152600160a01b6001900316604489015260ff16606488015260ff1660848701526004356044013560a48701526004356064013560c48701526004356084013560e487015260043560a4013561010487015261012486015260043561010401356101448601526001600160401b03166101648501526004356101440135610184850152600160a01b60019003166101a484015260043561018401356101c48401526101e4830161020090526102048301906107f39261167b565b03815a6000948591f1908115610a0a576000906000926109e4575b5061085a61082660e460043501600435600401611827565b906108536040519161083783611519565b600083526040519361084885611519565b600085523691611762565b858561190c565b610868600435600401611569565b61088661087f60c46004350160043560040161158b565b36916117a8565b9161089081611a2e565b60018060a01b031692839182600052600986526040600020600190600160ff19825416179055806000905b610994575b506108d66040519360a0855260a0850190611427565b908382038885015285518083528883019289808360051b8301019801936000915b8b84841061095f57898b6001827fb679f8bb353ccc2331bbeb116d31f96fe2836f68dd9cb37d0749ea0b26be22d68d808e60646004350135604083015260846004350135606083015260a460043501356080830152858060a01b0316950390a4604051908152f35b859798995061097f819294969395979b601f198682030187528c51611898565b9a0193019301909289979695939492946108f7565b838293949550518110156109da576000878152600a8952604090208291906109d0906001600160a01b036109c8848a611884565b511690611a92565b01869493926108bb565b86949392506108c0565b9050610a0391503d806000833e6109fb8183611534565b8101906115eb565b908361080e565b6040513d6000823e3d90fd5b60405163043c669f60e01b8152600490fd5b6040516308bb27af60e41b8152600490fd5b6040516337bf561360e11b8152600490fd5b50606460043501356084600435013511156106a7565b6040516306b7c75960e31b8152600490fd5b506005546001600160a01b031692610687565b506001600160401b03610a9f61012460043501611859565b1615610648565b6040516367d635e160e01b8152600490fd5b5082610ace60c46004350160043560040161158b565b905011610619565b50601260ff821614156105f5565b6040516368f7a67560e11b8152600490fd5b6040516393687c0b60e01b8152600490fd5b506006546001600160a01b0316331415610584565b3461019757602036600319011261019757610b36611411565b610b3e611555565b6001600160a01b031660008181526002602052604090205460ff16610a62578060005260026020526040600020600160ff198254161790557fbd8a8e5a223a7347dab9de83a90a67c6bb291a7ac7487fba3886f5ed162d1da5600080a2005b34610197576000366003190112610197576003546040516001600160a01b039091168152602090f35b3461019757602036600319011261019757610bdf611411565b610be7611555565b6001600160a01b0316801561022e57600580546001600160a01b031916821790557f523e520d3e5099d5b5ef94a4279b3b62d1f69afa84ab6d0ae03287a7a67c68f2600080a2005b34610197576020366003190112610197576001600160a01b03610c50611411565b166000526002602052602060ff604060002054166040519015158152f35b3461019757602080600319360112610197576001600160a01b039081610c92611411565b16600052600a81526040600020916040518093849184825491828152019160005284600020936000905b86838310610cea578590610cd282870383611534565b610ce6604051928284938452830190611427565b0390f35b8654821685526001968701968996509401939190910190610cbc565b3461019757602036600319011261019757610d1f611411565b610d27611555565b600680546001600160a01b0319166001600160a01b0392909216919091179055005b3461019757600319602036820112610197576001600160401b0360043511610197576101e09060043536030112610197576000546001600160a01b03163381141580611317575b610af657610da5610599600435600401611569565b906001600160a01b03610dbb6004803501611569565b16600052600260205260ff6040600020541615610ae4576001600160a01b03610de76004803501611569565b161580611309575b610a62576002610e0960c46004350160043560040161158b565b90501080156112ea575b610aa65760043560e4016001600160a01b03610e2e82611569565b16156112d857610164600435013515610a62574260646004350135118015906112c2575b610a3a5760a4600435013515610a2857610e776101846004350160043560040161158b565b15905061126657610e936101846004350160043560040161158b565b9050610ea960c46004350160043560040161158b565b91905014801590611230575b61121e575b6007546001600160a01b03168015610a16576003546001600160a01b031690610ee66004803501611569565b91610f06610efe60c46004350160043560040161158b565b959050611569565b936003610124600435013510156101975760ff9561100d600096928793610f3760c46004350160043560040161158b565b9a9092816040519d8e9b8c9a8b9963624a59d360e11b8b5260048b015260248a015260018060a01b031660448901521660648701521660848501526044600435013560a48501526064600435013560c48501526084600435013560e485015260a4600435013561010485015260018060a01b03166101248401526101046004350135610144840152610124600435013561016484015261014460043501356101848401526101a49861016460043501358a8501526101c460043501356101c48501526102006101e485015261020484019161167b565b03925af1908115610a0a576000926000926111ec575b5061105861107361107b611083936110466101846004350160043560040161158b565b9490916004350160043560040161158b565b9390916040519561106887611519565b600087523691611714565b923691611714565b91848661190c565b611091600435600401611569565b906110a961087f60c46004350160043560040161158b565b6110b284611a2e565b6001600160a01b0384166000908152600960205260408120805460ff191660011790555b8251811015611111576001600160a01b038581166000908152600a602052604090206001929161110b91906109c88488611884565b016110d6565b5092916111296040519260a0845260a0840190611427565b8281036020840152845180825260208201916020808360051b8301019701926000915b8383106111bf57600435606481013560408901526084810135606089015260a4013560808801526020886001600160a01b038089169060009083167fb679f8bb353ccc2331bbeb116d31f96fe2836f68dd9cb37d0749ea0b26be22d68c8f038da46040516001600160a01b039091168152f35b90919293976020806111dd600193601f198682030187528c51611898565b9a01930193019193929061114c565b61107b9350611083919250611073611211611058923d806000833e6109fb8183611534565b9590959493505050611023565b60405163b2d4eceb60e01b8152600490fd5b506112466101a46004350160043560040161158b565b905061125c60c46004350160043560040161158b565b9190501415610eb5565b600261127c60c46004350160043560040161158b565b90500361121e576101246004350135600381101561019757600203610eba576101446004350135610104600435013510610eba576040516306b7c75960e31b8152600490fd5b5060646004350135608460043501351115610e52565b6040516301f86e1760e41b8152600490fd5b50602061130160c46004350160043560040161158b565b905011610e13565b50601260ff83161415610def565b506006546001600160a01b0316331415610d90565b3461019757602036600319011261019757611345611411565b61134d611555565b6001600160a01b031660008181526002602052604090205460ff1615610a6257806000526002602052604060002060ff1981541690557f0ffbe34cfa1831023fd1e8602fc452dfa0e07b531dd9197a3fac11258aa17e75600080a2005b34610197576040366003190112610197576113c3611411565b602435906001600160a01b0382168203610197576020916113e391611492565b6040519015158152f35b34610197576000366003190112610197576004546001600160a01b03168152602090f35b600435906001600160a01b038216820361019757565b90815180825260208080930193019160005b828110611447575050505090565b83516001600160a01b031685529381019392810192600101611439565b805482101561147c5760005260206000200190600090565b634e487b7160e01b600052603260045260246000fd5b6001600160a01b039081166000908152600a6020526040812080549390915b8481106114c2575050505050600090565b836114cd8285611464565b9190548185169260031b1c16146114e6576001016114b1565b5050505050600190565b6001600160401b03811161150357604052565b634e487b7160e01b600052604160045260246000fd5b602081019081106001600160401b0382111761150357604052565b90601f801991011681019081106001600160401b0382111761150357604052565b6000546001600160a01b0316330361045757565b356001600160a01b03811681036101975790565b3560ff811681036101975790565b903590601e198136030182121561019757018035906001600160401b03821161019757602001918160051b3603831361019757565b51906001600160a01b038216820361019757565b6001600160401b0381116115035760051b60200190565b919060408382031261019757611600836115c0565b9260209081810151906001600160401b03821161019757019180601f8401121561019757825161162f816115d4565b9361163d6040519586611534565b818552838086019260051b820101928311610197578301905b828210611664575050505090565b838091611670846115c0565b815201910190611656565b8183526020600583901b84018101939192906000818401855b8483106116a5575050505050505090565b90919293949596601f19808883030184528835601e198436030181121561019757830186810190356001600160401b03811161019757803603821361019757838893601f83808796879660019a5286860137600085828601015201160101990193019301919594939290611694565b929161171f826115d4565b9161172d6040519384611534565b829481845260208094019160051b810192831161019757905b8282106117535750505050565b81358152908301908301611746565b9291926001600160401b038211611503576040519161178b601f8201601f191660200184611534565b829481845281830111610197578281602093846000960137010152565b929190926117b5846115d4565b916117c36040519384611534565b829480845260208094019060051b8301928284116101975780915b8483106117ed57505050505050565b82356001600160401b03811161019757820184601f8201121561019757869161181c8683858095359101611762565b8152019201916117de565b903590601e198136030182121561019757018035906001600160401b0382116101975760200191813603831361019757565b356001600160401b03811681036101975790565b6001600160a01b03161561187e5790565b50601290565b805182101561147c5760209160051b010190565b919082519283825260005b8481106118c4575050826000602080949584010152601f8019910116010190565b6020818301810151848301820152016118a3565b90815180825260208080930193019160005b8281106118f8575050505090565b8351855293810193928101926001016118ea565b949192909260005b845181101561198e576001600160a01b03806119308388611884565b511690813b1561019757600060409160248b838551968794859363f2fde38b60e01b85521660048401525af190811561198457509060019291611975575b5001611914565b61197e906114f0565b3861196e565b513d6000823e3d90fd5b50919490939192916001600160a01b0390911690813b156101975760006119f393611a1282966119e094611a036040519a8b998a988997633bfdbbc960e01b8952608060048a01526084890190611427565b60031995868983030160248a0152611898565b90848783030160448801526118d8565b918483030160648501526118d8565b03925af18015610a0a57611a235750565b611a2c906114f0565b565b600854600160401b81101561150357600181018060085581101561147c5760086000527ff3f7a9fe364faab93b216da50a3214154f22a0a2b415b23a84c8169e8b636ee30180546001600160a01b0319166001600160a01b03909216919091179055565b8054600160401b81101561150357611aaf91600182018155611464565b60018060a09493941b038084549260031b9316831b921b191617905556fea26469706673582212202067c2dfcae8e30ebc2bd87974a3260def3a04767c1e97731544f0e25c19b76464736f6c63430008180033","opcodes":"PUSH1 0x80 CALLVALUE PUSH3 0x14B JUMPI PUSH1 0x1F PUSH3 0x1C7F CODESIZE DUP2 SWAP1 SUB SWAP2 DUP3 ADD PUSH1 0x1F NOT AND DUP4 ADD SWAP2 PUSH1 0x1 PUSH1 0x1 PUSH1 0x40 SHL SUB DUP4 GT DUP5 DUP5 LT OR PUSH3 0x150 JUMPI DUP1 DUP5 SWAP3 PUSH1 0x80 SWAP5 PUSH1 0x40 MSTORE DUP4 CODECOPY DUP2 ADD SUB SLT PUSH3 0x14B JUMPI PUSH3 0x4D DUP2 PUSH3 0x166 JUMP JUMPDEST PUSH3 0x5B PUSH1 0x20 DUP4 ADD PUSH3 0x166 JUMP JUMPDEST SWAP2 PUSH3 0x78 PUSH1 0x60 PUSH3 0x70 PUSH1 0x40 DUP5 ADD PUSH3 0x166 JUMP JUMPDEST SWAP3 ADD PUSH3 0x166 JUMP JUMPDEST PUSH1 0x1 PUSH1 0x1 PUSH1 0xA0 SHL SUB SWAP3 SWAP1 SWAP2 SWAP1 DUP4 AND DUP1 ISZERO PUSH3 0x132 JUMPI DUP4 PUSH1 0x1 DUP1 PUSH1 0xA0 SHL SUB NOT SWAP6 DUP7 PUSH1 0x1 SLOAD AND PUSH1 0x1 SSTORE PUSH1 0x0 SLOAD SWAP3 DUP1 DUP9 DUP6 AND OR PUSH1 0x0 SSTORE DUP3 PUSH1 0x40 MLOAD SWAP5 AND PUSH32 0x8BE0079C531659141344CD1FD0A4F28419497F9722A3DAAFE3B4186F6B6457E0 PUSH1 0x0 DUP1 LOG3 AND SWAP1 DUP2 ISZERO DUP1 ISZERO PUSH3 0x127 JUMPI JUMPDEST PUSH3 0x118 JUMPI POP SWAP1 DUP4 SWAP2 DUP6 PUSH1 0x3 SLOAD AND OR PUSH1 0x3 SSTORE AND DUP4 PUSH1 0x4 SLOAD AND OR PUSH1 0x4 SSTORE AND SWAP1 PUSH1 0x5 SLOAD AND OR PUSH1 0x5 SSTORE PUSH1 0x40 MLOAD PUSH2 0x1B03 SWAP1 DUP2 PUSH3 0x17C DUP3 CODECOPY RETURN JUMPDEST PUSH4 0xE6C4247B PUSH1 0xE0 SHL DUP2 MSTORE PUSH1 0x4 SWAP1 REVERT JUMPDEST POP DUP5 DUP5 AND ISZERO PUSH3 0xE2 JUMP JUMPDEST PUSH1 0x40 MLOAD PUSH4 0x1E4FBDF7 PUSH1 0xE0 SHL DUP2 MSTORE PUSH1 0x0 PUSH1 0x4 DUP3 ADD MSTORE PUSH1 0x24 SWAP1 REVERT JUMPDEST PUSH1 0x0 DUP1 REVERT JUMPDEST PUSH4 0x4E487B71 PUSH1 0xE0 SHL PUSH1 0x0 MSTORE PUSH1 0x41 PUSH1 0x4 MSTORE PUSH1 0x24 PUSH1 0x0 REVERT JUMPDEST MLOAD SWAP1 PUSH1 0x1 PUSH1 0x1 PUSH1 0xA0 SHL SUB DUP3 AND DUP3 SUB PUSH3 0x14B JUMPI JUMP INVALID PUSH1 0x80 DUP1 PUSH1 0x40 MSTORE PUSH1 0x4 CALLDATASIZE LT ISZERO PUSH2 0x13 JUMPI PUSH1 0x0 DUP1 REVERT JUMPDEST PUSH1 0x0 CALLDATALOAD PUSH1 0xE0 SHR SWAP1 DUP2 PUSH4 0xD2AF8D3 EQ PUSH2 0x13ED JUMPI POP DUP1 PUSH4 0x17DBC538 EQ PUSH2 0x13AA JUMPI DUP1 PUSH4 0x1800D79F EQ PUSH2 0x132C JUMPI DUP1 PUSH4 0x1CBA0D29 EQ PUSH2 0xD49 JUMPI DUP1 PUSH4 0x1D555306 EQ PUSH2 0xD06 JUMPI DUP1 PUSH4 0x1F470B2D EQ PUSH2 0xC6E JUMPI DUP1 PUSH4 0x39F4C4DA EQ PUSH2 0xC2F JUMPI DUP1 PUSH4 0x4682BE61 EQ PUSH2 0xBC6 JUMPI DUP1 PUSH4 0x46904840 EQ PUSH2 0xB9D JUMPI DUP1 PUSH4 0x536DB2E6 EQ PUSH2 0xB1D JUMPI DUP1 PUSH4 0x5B2EAC4F EQ PUSH2 0x53C JUMPI DUP1 PUSH4 0x5E6607FF EQ PUSH2 0x513 JUMPI DUP1 PUSH4 0x6EC934DA EQ PUSH2 0x4D4 JUMPI DUP1 PUSH4 0x715018A6 EQ PUSH2 0x46F JUMPI DUP1 PUSH4 0x79BA5097 EQ PUSH2 0x3E6 JUMPI DUP1 PUSH4 0x8DA5CB5B EQ PUSH2 0x3BD JUMPI DUP1 PUSH4 0x9B307DC2 EQ PUSH2 0x354 JUMPI DUP1 PUSH4 0xB1283E77 EQ PUSH2 0x2F9 JUMPI DUP1 PUSH4 0xB2D35B7A EQ PUSH2 0x292 JUMPI DUP1 PUSH4 0xBB1E4531 EQ PUSH2 0x269 JUMPI DUP1 PUSH4 0xE30C3978 EQ PUSH2 0x240 JUMPI DUP1 PUSH4 0xE74B981B EQ PUSH2 0x1C5 JUMPI DUP1 PUSH4 0xED460E56 EQ PUSH2 0x19C JUMPI PUSH4 0xF2FDE38B EQ PUSH2 0x127 JUMPI PUSH1 0x0 DUP1 REVERT JUMPDEST CALLVALUE PUSH2 0x197 JUMPI PUSH1 0x20 CALLDATASIZE PUSH1 0x3 NOT ADD SLT PUSH2 0x197 JUMPI PUSH2 0x140 PUSH2 0x1411 JUMP JUMPDEST PUSH2 0x148 PUSH2 0x1555 JUMP JUMPDEST PUSH1 0x1 DUP1 PUSH1 0xA0 SHL SUB DUP1 SWAP2 AND SWAP1 DUP2 PUSH12 0xFFFFFFFFFFFFFFFFFFFFFFFF PUSH1 0xA0 SHL PUSH1 0x1 SLOAD AND OR PUSH1 0x1 SSTORE PUSH1 0x0 SLOAD AND PUSH32 0x38D16B8CAC22D99FC7C124B9CD0DE2D3FA1FAEF420BFE791D8C362D765E22700 PUSH1 0x0 DUP1 LOG3 STOP JUMPDEST PUSH1 0x0 DUP1 REVERT JUMPDEST CALLVALUE PUSH2 0x197 JUMPI PUSH1 0x0 CALLDATASIZE PUSH1 0x3 NOT ADD SLT PUSH2 0x197 JUMPI PUSH1 0x5 SLOAD PUSH1 0x40 MLOAD PUSH1 0x1 PUSH1 0x1 PUSH1 0xA0 SHL SUB SWAP1 SWAP2 AND DUP2 MSTORE PUSH1 0x20 SWAP1 RETURN JUMPDEST CALLVALUE PUSH2 0x197 JUMPI PUSH1 0x20 CALLDATASIZE PUSH1 0x3 NOT ADD SLT PUSH2 0x197 JUMPI PUSH2 0x1DE PUSH2 0x1411 JUMP JUMPDEST PUSH2 0x1E6 PUSH2 0x1555 JUMP JUMPDEST PUSH1 0x1 PUSH1 0x1 PUSH1 0xA0 SHL SUB AND DUP1 ISZERO PUSH2 0x22E JUMPI PUSH1 0x3 DUP1 SLOAD PUSH1 0x1 PUSH1 0x1 PUSH1 0xA0 SHL SUB NOT AND DUP3 OR SWAP1 SSTORE PUSH32 0x7A7B5A0A132F9E0581EB8527F66EAE9EE89C2A3E79D4AC7E41A1F1F4D48A7FC2 PUSH1 0x0 DUP1 LOG2 STOP JUMPDEST PUSH1 0x40 MLOAD PUSH4 0xE6C4247B PUSH1 0xE0 SHL DUP2 MSTORE PUSH1 0x4 SWAP1 REVERT JUMPDEST CALLVALUE PUSH2 0x197 JUMPI PUSH1 0x0 CALLDATASIZE PUSH1 0x3 NOT ADD SLT PUSH2 0x197 JUMPI PUSH1 0x1 SLOAD PUSH1 0x40 MLOAD PUSH1 0x1 PUSH1 0x1 PUSH1 0xA0 SHL SUB SWAP1 SWAP2 AND DUP2 MSTORE PUSH1 0x20 SWAP1 RETURN JUMPDEST CALLVALUE PUSH2 0x197 JUMPI PUSH1 0x0 CALLDATASIZE PUSH1 0x3 NOT ADD SLT PUSH2 0x197 JUMPI PUSH1 0x7 SLOAD PUSH1 0x40 MLOAD PUSH1 0x1 PUSH1 0x1 PUSH1 0xA0 SHL SUB SWAP1 SWAP2 AND DUP2 MSTORE PUSH1 0x20 SWAP1 RETURN JUMPDEST CALLVALUE PUSH2 0x197 JUMPI PUSH1 0x20 CALLDATASIZE PUSH1 0x3 NOT ADD SLT PUSH2 0x197 JUMPI PUSH2 0x2AB PUSH2 0x1411 JUMP JUMPDEST PUSH2 0x2B3 PUSH2 0x1555 JUMP JUMPDEST PUSH1 0x4 DUP1 SLOAD PUSH1 0x1 PUSH1 0x1 PUSH1 0xA0 SHL SUB NOT AND PUSH1 0x1 PUSH1 0x1 PUSH1 0xA0 SHL SUB SWAP3 SWAP1 SWAP3 AND SWAP2 DUP3 OR SWAP1 SSTORE PUSH32 0x6BE240C3CE51532BC6F7066BD1C5C51947CC8E3E01FA03397D6AB44CFA7D198A PUSH1 0x0 DUP1 LOG2 STOP JUMPDEST CALLVALUE PUSH2 0x197 JUMPI PUSH1 0x20 CALLDATASIZE PUSH1 0x3 NOT ADD SLT PUSH2 0x197 JUMPI PUSH1 0x4 CALLDATALOAD PUSH1 0x8 SLOAD DUP2 LT ISZERO PUSH2 0x197 JUMPI PUSH1 0x8 PUSH1 0x0 MSTORE PUSH32 0xF3F7A9FE364FAAB93B216DA50A3214154F22A0A2B415B23A84C8169E8B636EE3 ADD SLOAD PUSH1 0x40 MLOAD PUSH1 0x1 PUSH1 0x1 PUSH1 0xA0 SHL SUB SWAP1 SWAP2 AND DUP2 MSTORE PUSH1 0x20 SWAP1 RETURN JUMPDEST CALLVALUE PUSH2 0x197 JUMPI PUSH1 0x20 CALLDATASIZE PUSH1 0x3 NOT ADD SLT PUSH2 0x197 JUMPI PUSH2 0x36D PUSH2 0x1411 JUMP JUMPDEST PUSH2 0x375 PUSH2 0x1555 JUMP JUMPDEST PUSH1 0x1 PUSH1 0x1 PUSH1 0xA0 SHL SUB AND DUP1 ISZERO PUSH2 0x22E JUMPI PUSH1 0x7 DUP1 SLOAD PUSH1 0x1 PUSH1 0x1 PUSH1 0xA0 SHL SUB NOT AND DUP3 OR SWAP1 SSTORE PUSH32 0x605F04A31CF07D957F1C52208519E1CD6DA20EB11DC98E67FC3EFF63FE3933FC PUSH1 0x0 DUP1 LOG2 STOP JUMPDEST CALLVALUE PUSH2 0x197 JUMPI PUSH1 0x0 CALLDATASIZE PUSH1 0x3 NOT ADD SLT PUSH2 0x197 JUMPI PUSH1 0x0 SLOAD PUSH1 0x40 MLOAD PUSH1 0x1 PUSH1 0x1 PUSH1 0xA0 SHL SUB SWAP1 SWAP2 AND DUP2 MSTORE PUSH1 0x20 SWAP1 RETURN JUMPDEST CALLVALUE PUSH2 0x197 JUMPI PUSH1 0x0 CALLDATASIZE PUSH1 0x3 NOT ADD SLT PUSH2 0x197 JUMPI PUSH1 0x1 SLOAD PUSH1 0x1 PUSH1 0x1 PUSH1 0xA0 SHL SUB CALLER DUP2 DUP4 AND SUB PUSH2 0x457 JUMPI PUSH12 0xFFFFFFFFFFFFFFFFFFFFFFFF PUSH1 0xA0 SHL DUP1 SWAP3 AND PUSH1 0x1 SSTORE PUSH1 0x0 SLOAD SWAP2 CALLER SWAP1 DUP4 AND OR PUSH1 0x0 SSTORE CALLER SWAP2 AND PUSH32 0x8BE0079C531659141344CD1FD0A4F28419497F9722A3DAAFE3B4186F6B6457E0 PUSH1 0x0 DUP1 LOG3 STOP JUMPDEST PUSH1 0x40 MLOAD PUSH4 0x118CDAA7 PUSH1 0xE0 SHL DUP2 MSTORE CALLER PUSH1 0x4 DUP3 ADD MSTORE PUSH1 0x24 SWAP1 REVERT JUMPDEST CALLVALUE PUSH2 0x197 JUMPI PUSH1 0x0 CALLDATASIZE PUSH1 0x3 NOT ADD SLT PUSH2 0x197 JUMPI PUSH2 0x488 PUSH2 0x1555 JUMP JUMPDEST PUSH1 0x1 DUP1 SLOAD PUSH1 0x1 PUSH1 0x1 PUSH1 0xA0 SHL SUB NOT SWAP1 DUP2 AND SWAP1 SWAP2 SSTORE PUSH1 0x0 DUP1 SLOAD SWAP2 DUP3 AND DUP2 SSTORE SWAP1 PUSH1 0x1 PUSH1 0x1 PUSH1 0xA0 SHL SUB AND PUSH32 0x8BE0079C531659141344CD1FD0A4F28419497F9722A3DAAFE3B4186F6B6457E0 DUP3 DUP1 LOG3 STOP JUMPDEST CALLVALUE PUSH2 0x197 JUMPI PUSH1 0x20 CALLDATASIZE PUSH1 0x3 NOT ADD SLT PUSH2 0x197 JUMPI PUSH1 0x1 PUSH1 0x1 PUSH1 0xA0 SHL SUB PUSH2 0x4F5 PUSH2 0x1411 JUMP JUMPDEST AND PUSH1 0x0 MSTORE PUSH1 0x9 PUSH1 0x20 MSTORE PUSH1 0x20 PUSH1 0xFF PUSH1 0x40 PUSH1 0x0 KECCAK256 SLOAD AND PUSH1 0x40 MLOAD SWAP1 ISZERO ISZERO DUP2 MSTORE RETURN JUMPDEST CALLVALUE PUSH2 0x197 JUMPI PUSH1 0x0 CALLDATASIZE PUSH1 0x3 NOT ADD SLT PUSH2 0x197 JUMPI PUSH1 0x6 SLOAD PUSH1 0x40 MLOAD PUSH1 0x1 PUSH1 0x1 PUSH1 0xA0 SHL SUB SWAP1 SWAP2 AND DUP2 MSTORE PUSH1 0x20 SWAP1 RETURN JUMPDEST CALLVALUE PUSH2 0x197 JUMPI PUSH1 0x20 PUSH1 0x3 NOT DUP2 DUP2 CALLDATASIZE ADD SLT PUSH2 0x197 JUMPI PUSH1 0x1 PUSH1 0x1 PUSH1 0x40 SHL SUB PUSH1 0x4 CALLDATALOAD GT PUSH2 0x197 JUMPI PUSH2 0x1A0 SWAP1 PUSH1 0x4 CALLDATALOAD CALLDATASIZE SUB ADD SLT PUSH2 0x197 JUMPI PUSH1 0x0 SLOAD PUSH1 0x1 PUSH1 0x1 PUSH1 0xA0 SHL SUB AND CALLER DUP2 EQ ISZERO DUP1 PUSH2 0xB08 JUMPI JUMPDEST PUSH2 0xAF6 JUMPI PUSH2 0x5AD PUSH2 0x599 PUSH1 0x4 CALLDATALOAD PUSH1 0x4 ADD PUSH2 0x1569 JUMP JUMPDEST PUSH2 0x5A7 PUSH1 0x24 PUSH1 0x4 CALLDATALOAD ADD PUSH2 0x157D JUMP JUMPDEST SWAP1 PUSH2 0x186D JUMP JUMPDEST PUSH1 0x1 PUSH1 0x1 PUSH1 0xA0 SHL SUB PUSH2 0x5C2 PUSH1 0x4 DUP1 CALLDATALOAD ADD PUSH2 0x1569 JUMP JUMPDEST AND PUSH1 0x0 MSTORE PUSH1 0x2 DUP4 MSTORE PUSH1 0xFF PUSH1 0x40 PUSH1 0x0 KECCAK256 SLOAD AND ISZERO PUSH2 0xAE4 JUMPI PUSH1 0x1 PUSH1 0x1 PUSH1 0xA0 SHL SUB PUSH2 0x5ED PUSH1 0x4 DUP1 CALLDATALOAD ADD PUSH2 0x1569 JUMP JUMPDEST AND ISZERO DUP1 PUSH2 0xAD6 JUMPI JUMPDEST PUSH2 0xA62 JUMPI PUSH1 0x2 PUSH2 0x60F PUSH1 0xC4 PUSH1 0x4 CALLDATALOAD ADD PUSH1 0x4 CALLDATALOAD PUSH1 0x4 ADD PUSH2 0x158B JUMP JUMPDEST SWAP1 POP LT DUP1 ISZERO PUSH2 0xAB8 JUMPI JUMPDEST PUSH2 0xAA6 JUMPI PUSH2 0x631 PUSH1 0xE4 PUSH1 0x4 CALLDATALOAD ADD PUSH1 0x4 CALLDATALOAD PUSH1 0x4 ADD PUSH2 0x1827 JUMP JUMPDEST SWAP1 POP ISZERO PUSH2 0xA62 JUMPI PUSH2 0x104 PUSH1 0x4 CALLDATALOAD ADD CALLDATALOAD ISZERO DUP1 ISZERO PUSH2 0xA87 JUMPI JUMPDEST PUSH2 0xA62 JUMPI PUSH1 0x4 SLOAD PUSH1 0x1 PUSH1 0x1 PUSH1 0xA0 SHL SUB AND DUP1 ISZERO PUSH2 0xA62 JUMPI PUSH1 0x4 CALLDATALOAD PUSH2 0x164 ADD PUSH1 0x1 PUSH1 0x1 PUSH1 0xA0 SHL SUB PUSH2 0x676 DUP3 PUSH2 0x1569 JUMP JUMPDEST AND ISZERO PUSH2 0xA74 JUMPI PUSH2 0x685 SWAP1 PUSH2 0x1569 JUMP JUMPDEST SWAP3 JUMPDEST PUSH1 0x1 PUSH1 0x1 PUSH1 0xA0 SHL SUB DUP5 AND ISZERO PUSH2 0xA62 JUMPI TIMESTAMP PUSH1 0x64 PUSH1 0x4 CALLDATALOAD ADD CALLDATALOAD GT DUP1 ISZERO SWAP1 PUSH2 0xA4C JUMPI JUMPDEST PUSH2 0xA3A JUMPI PUSH1 0xA4 PUSH1 0x4 CALLDATALOAD ADD CALLDATALOAD ISZERO PUSH2 0xA28 JUMPI PUSH1 0x7 SLOAD PUSH1 0x1 PUSH1 0x1 PUSH1 0xA0 SHL SUB AND SWAP3 DUP4 ISZERO PUSH2 0xA16 JUMPI PUSH1 0x3 SLOAD PUSH1 0x1 PUSH1 0x1 PUSH1 0xA0 SHL SUB AND SWAP3 PUSH2 0x6E4 PUSH1 0x4 DUP1 CALLDATALOAD ADD PUSH2 0x1569 JUMP JUMPDEST SWAP6 PUSH2 0x6F7 PUSH1 0x4 DUP1 CALLDATALOAD PUSH1 0xC4 DUP2 ADD SWAP2 ADD PUSH2 0x158B JUMP JUMPDEST SWAP3 SWAP1 POP PUSH2 0x709 PUSH2 0x124 PUSH1 0x4 CALLDATALOAD ADD PUSH2 0x1859 JUMP JUMPDEST SWAP1 PUSH2 0x71C PUSH1 0x4 DUP1 CALLDATALOAD PUSH1 0xC4 DUP2 ADD SWAP2 ADD PUSH2 0x158B JUMP JUMPDEST SWAP5 SWAP1 SWAP6 PUSH1 0x40 MLOAD SWAP11 DUP12 SWAP10 DUP11 SWAP10 PUSH4 0x418C64FD PUSH1 0xE1 SHL DUP12 MSTORE PUSH1 0x4 DUP12 ADD MSTORE PUSH1 0x24 DUP11 ADD MSTORE PUSH1 0x1 PUSH1 0xA0 SHL PUSH1 0x1 SWAP1 SUB AND PUSH1 0x44 DUP10 ADD MSTORE PUSH1 0xFF AND PUSH1 0x64 DUP9 ADD MSTORE PUSH1 0xFF AND PUSH1 0x84 DUP8 ADD MSTORE PUSH1 0x4 CALLDATALOAD PUSH1 0x44 ADD CALLDATALOAD PUSH1 0xA4 DUP8 ADD MSTORE PUSH1 0x4 CALLDATALOAD PUSH1 0x64 ADD CALLDATALOAD PUSH1 0xC4 DUP8 ADD MSTORE PUSH1 0x4 CALLDATALOAD PUSH1 0x84 ADD CALLDATALOAD PUSH1 0xE4 DUP8 ADD MSTORE PUSH1 0x4 CALLDATALOAD PUSH1 0xA4 ADD CALLDATALOAD PUSH2 0x104 DUP8 ADD MSTORE PUSH2 0x124 DUP7 ADD MSTORE PUSH1 0x4 CALLDATALOAD PUSH2 0x104 ADD CALLDATALOAD PUSH2 0x144 DUP7 ADD MSTORE PUSH1 0x1 PUSH1 0x1 PUSH1 0x40 SHL SUB AND PUSH2 0x164 DUP6 ADD MSTORE PUSH1 0x4 CALLDATALOAD PUSH2 0x144 ADD CALLDATALOAD PUSH2 0x184 DUP6 ADD MSTORE PUSH1 0x1 PUSH1 0xA0 SHL PUSH1 0x1 SWAP1 SUB AND PUSH2 0x1A4 DUP5 ADD MSTORE PUSH1 0x4 CALLDATALOAD PUSH2 0x184 ADD CALLDATALOAD PUSH2 0x1C4 DUP5 ADD MSTORE PUSH2 0x1E4 DUP4 ADD PUSH2 0x200 SWAP1 MSTORE PUSH2 0x204 DUP4 ADD SWAP1 PUSH2 0x7F3 SWAP3 PUSH2 0x167B JUMP JUMPDEST SUB DUP2 GAS PUSH1 0x0 SWAP5 DUP6 SWAP2 CALL SWAP1 DUP2 ISZERO PUSH2 0xA0A JUMPI PUSH1 0x0 SWAP1 PUSH1 0x0 SWAP3 PUSH2 0x9E4 JUMPI JUMPDEST POP PUSH2 0x85A PUSH2 0x826 PUSH1 0xE4 PUSH1 0x4 CALLDATALOAD ADD PUSH1 0x4 CALLDATALOAD PUSH1 0x4 ADD PUSH2 0x1827 JUMP JUMPDEST SWAP1 PUSH2 0x853 PUSH1 0x40 MLOAD SWAP2 PUSH2 0x837 DUP4 PUSH2 0x1519 JUMP JUMPDEST PUSH1 0x0 DUP4 MSTORE PUSH1 0x40 MLOAD SWAP4 PUSH2 0x848 DUP6 PUSH2 0x1519 JUMP JUMPDEST PUSH1 0x0 DUP6 MSTORE CALLDATASIZE SWAP2 PUSH2 0x1762 JUMP JUMPDEST DUP6 DUP6 PUSH2 0x190C JUMP JUMPDEST PUSH2 0x868 PUSH1 0x4 CALLDATALOAD PUSH1 0x4 ADD PUSH2 0x1569 JUMP JUMPDEST PUSH2 0x886 PUSH2 0x87F PUSH1 0xC4 PUSH1 0x4 CALLDATALOAD ADD PUSH1 0x4 CALLDATALOAD PUSH1 0x4 ADD PUSH2 0x158B JUMP JUMPDEST CALLDATASIZE SWAP2 PUSH2 0x17A8 JUMP JUMPDEST SWAP2 PUSH2 0x890 DUP2 PUSH2 0x1A2E JUMP JUMPDEST PUSH1 0x1 DUP1 PUSH1 0xA0 SHL SUB AND SWAP3 DUP4 SWAP2 DUP3 PUSH1 0x0 MSTORE PUSH1 0x9 DUP7 MSTORE PUSH1 0x40 PUSH1 0x0 KECCAK256 PUSH1 0x1 SWAP1 PUSH1 0x1 PUSH1 0xFF NOT DUP3 SLOAD AND OR SWAP1 SSTORE DUP1 PUSH1 0x0 SWAP1 JUMPDEST PUSH2 0x994 JUMPI JUMPDEST POP PUSH2 0x8D6 PUSH1 0x40 MLOAD SWAP4 PUSH1 0xA0 DUP6 MSTORE PUSH1 0xA0 DUP6 ADD SWAP1 PUSH2 0x1427 JUMP JUMPDEST SWAP1 DUP4 DUP3 SUB DUP9 DUP6 ADD MSTORE DUP6 MLOAD DUP1 DUP4 MSTORE DUP9 DUP4 ADD SWAP3 DUP10 DUP1 DUP4 PUSH1 0x5 SHL DUP4 ADD ADD SWAP9 ADD SWAP4 PUSH1 0x0 SWAP2 JUMPDEST DUP12 DUP5 DUP5 LT PUSH2 0x95F JUMPI DUP10 DUP12 PUSH1 0x1 DUP3 PUSH32 0xB679F8BB353CCC2331BBEB116D31F96FE2836F68DD9CB37D0749EA0B26BE22D6 DUP14 DUP1 DUP15 PUSH1 0x64 PUSH1 0x4 CALLDATALOAD ADD CALLDATALOAD PUSH1 0x40 DUP4 ADD MSTORE PUSH1 0x84 PUSH1 0x4 CALLDATALOAD ADD CALLDATALOAD PUSH1 0x60 DUP4 ADD MSTORE PUSH1 0xA4 PUSH1 0x4 CALLDATALOAD ADD CALLDATALOAD PUSH1 0x80 DUP4 ADD MSTORE DUP6 DUP1 PUSH1 0xA0 SHL SUB AND SWAP6 SUB SWAP1 LOG4 PUSH1 0x40 MLOAD SWAP1 DUP2 MSTORE RETURN JUMPDEST DUP6 SWAP8 SWAP9 SWAP10 POP PUSH2 0x97F DUP2 SWAP3 SWAP5 SWAP7 SWAP4 SWAP6 SWAP8 SWAP12 PUSH1 0x1F NOT DUP7 DUP3 SUB ADD DUP8 MSTORE DUP13 MLOAD PUSH2 0x1898 JUMP JUMPDEST SWAP11 ADD SWAP4 ADD SWAP4 ADD SWAP1 SWAP3 DUP10 SWAP8 SWAP7 SWAP6 SWAP4 SWAP5 SWAP3 SWAP5 PUSH2 0x8F7 JUMP JUMPDEST DUP4 DUP3 SWAP4 SWAP5 SWAP6 POP MLOAD DUP2 LT ISZERO PUSH2 0x9DA JUMPI PUSH1 0x0 DUP8 DUP2 MSTORE PUSH1 0xA DUP10 MSTORE PUSH1 0x40 SWAP1 KECCAK256 DUP3 SWAP2 SWAP1 PUSH2 0x9D0 SWAP1 PUSH1 0x1 PUSH1 0x1 PUSH1 0xA0 SHL SUB PUSH2 0x9C8 DUP5 DUP11 PUSH2 0x1884 JUMP JUMPDEST MLOAD AND SWAP1 PUSH2 0x1A92 JUMP JUMPDEST ADD DUP7 SWAP5 SWAP4 SWAP3 PUSH2 0x8BB JUMP JUMPDEST DUP7 SWAP5 SWAP4 SWAP3 POP PUSH2 0x8C0 JUMP JUMPDEST SWAP1 POP PUSH2 0xA03 SWAP2 POP RETURNDATASIZE DUP1 PUSH1 0x0 DUP4 RETURNDATACOPY PUSH2 0x9FB DUP2 DUP4 PUSH2 0x1534 JUMP JUMPDEST DUP2 ADD SWAP1 PUSH2 0x15EB JUMP JUMPDEST SWAP1 DUP4 PUSH2 0x80E JUMP JUMPDEST PUSH1 0x40 MLOAD RETURNDATASIZE PUSH1 0x0 DUP3 RETURNDATACOPY RETURNDATASIZE SWAP1 REVERT JUMPDEST PUSH1 0x40 MLOAD PUSH4 0x43C669F PUSH1 0xE0 SHL DUP2 MSTORE PUSH1 0x4 SWAP1 REVERT JUMPDEST PUSH1 0x40 MLOAD PUSH4 0x8BB27AF PUSH1 0xE4 SHL DUP2 MSTORE PUSH1 0x4 SWAP1 REVERT JUMPDEST PUSH1 0x40 MLOAD PUSH4 0x37BF5613 PUSH1 0xE1 SHL DUP2 MSTORE PUSH1 0x4 SWAP1 REVERT JUMPDEST POP PUSH1 0x64 PUSH1 0x4 CALLDATALOAD ADD CALLDATALOAD PUSH1 0x84 PUSH1 0x4 CALLDATALOAD ADD CALLDATALOAD GT ISZERO PUSH2 0x6A7 JUMP JUMPDEST PUSH1 0x40 MLOAD PUSH4 0x6B7C759 PUSH1 0xE3 SHL DUP2 MSTORE PUSH1 0x4 SWAP1 REVERT JUMPDEST POP PUSH1 0x5 SLOAD PUSH1 0x1 PUSH1 0x1 PUSH1 0xA0 SHL SUB AND SWAP3 PUSH2 0x687 JUMP JUMPDEST POP PUSH1 0x1 PUSH1 0x1 PUSH1 0x40 SHL SUB PUSH2 0xA9F PUSH2 0x124 PUSH1 0x4 CALLDATALOAD ADD PUSH2 0x1859 JUMP JUMPDEST AND ISZERO PUSH2 0x648 JUMP JUMPDEST PUSH1 0x40 MLOAD PUSH4 0x67D635E1 PUSH1 0xE0 SHL DUP2 MSTORE PUSH1 0x4 SWAP1 REVERT JUMPDEST POP DUP3 PUSH2 0xACE PUSH1 0xC4 PUSH1 0x4 CALLDATALOAD ADD PUSH1 0x4 CALLDATALOAD PUSH1 0x4 ADD PUSH2 0x158B JUMP JUMPDEST SWAP1 POP GT PUSH2 0x619 JUMP JUMPDEST POP PUSH1 0x12 PUSH1 0xFF DUP3 AND EQ ISZERO PUSH2 0x5F5 JUMP JUMPDEST PUSH1 0x40 MLOAD PUSH4 0x68F7A675 PUSH1 0xE1 SHL DUP2 MSTORE PUSH1 0x4 SWAP1 REVERT JUMPDEST PUSH1 0x40 MLOAD PUSH4 0x93687C0B PUSH1 0xE0 SHL DUP2 MSTORE PUSH1 0x4 SWAP1 REVERT JUMPDEST POP PUSH1 0x6 SLOAD PUSH1 0x1 PUSH1 0x1 PUSH1 0xA0 SHL SUB AND CALLER EQ ISZERO PUSH2 0x584 JUMP JUMPDEST CALLVALUE PUSH2 0x197 JUMPI PUSH1 0x20 CALLDATASIZE PUSH1 0x3 NOT ADD SLT PUSH2 0x197 JUMPI PUSH2 0xB36 PUSH2 0x1411 JUMP JUMPDEST PUSH2 0xB3E PUSH2 0x1555 JUMP JUMPDEST PUSH1 0x1 PUSH1 0x1 PUSH1 0xA0 SHL SUB AND PUSH1 0x0 DUP2 DUP2 MSTORE PUSH1 0x2 PUSH1 0x20 MSTORE PUSH1 0x40 SWAP1 KECCAK256 SLOAD PUSH1 0xFF AND PUSH2 0xA62 JUMPI DUP1 PUSH1 0x0 MSTORE PUSH1 0x2 PUSH1 0x20 MSTORE PUSH1 0x40 PUSH1 0x0 KECCAK256 PUSH1 0x1 PUSH1 0xFF NOT DUP3 SLOAD AND OR SWAP1 SSTORE PUSH32 0xBD8A8E5A223A7347DAB9DE83A90A67C6BB291A7AC7487FBA3886F5ED162D1DA5 PUSH1 0x0 DUP1 LOG2 STOP JUMPDEST CALLVALUE PUSH2 0x197 JUMPI PUSH1 0x0 CALLDATASIZE PUSH1 0x3 NOT ADD SLT PUSH2 0x197 JUMPI PUSH1 0x3 SLOAD PUSH1 0x40 MLOAD PUSH1 0x1 PUSH1 0x1 PUSH1 0xA0 SHL SUB SWAP1 SWAP2 AND DUP2 MSTORE PUSH1 0x20 SWAP1 RETURN JUMPDEST CALLVALUE PUSH2 0x197 JUMPI PUSH1 0x20 CALLDATASIZE PUSH1 0x3 NOT ADD SLT PUSH2 0x197 JUMPI PUSH2 0xBDF PUSH2 0x1411 JUMP JUMPDEST PUSH2 0xBE7 PUSH2 0x1555 JUMP JUMPDEST PUSH1 0x1 PUSH1 0x1 PUSH1 0xA0 SHL SUB AND DUP1 ISZERO PUSH2 0x22E JUMPI PUSH1 0x5 DUP1 SLOAD PUSH1 0x1 PUSH1 0x1 PUSH1 0xA0 SHL SUB NOT AND DUP3 OR SWAP1 SSTORE PUSH32 0x523E520D3E5099D5B5EF94A4279B3B62D1F69AFA84AB6D0AE03287A7A67C68F2 PUSH1 0x0 DUP1 LOG2 STOP JUMPDEST CALLVALUE PUSH2 0x197 JUMPI PUSH1 0x20 CALLDATASIZE PUSH1 0x3 NOT ADD SLT PUSH2 0x197 JUMPI PUSH1 0x1 PUSH1 0x1 PUSH1 0xA0 SHL SUB PUSH2 0xC50 PUSH2 0x1411 JUMP JUMPDEST AND PUSH1 0x0 MSTORE PUSH1 0x2 PUSH1 0x20 MSTORE PUSH1 0x20 PUSH1 0xFF PUSH1 0x40 PUSH1 0x0 KECCAK256 SLOAD AND PUSH1 0x40 MLOAD SWAP1 ISZERO ISZERO DUP2 MSTORE RETURN JUMPDEST CALLVALUE PUSH2 0x197 JUMPI PUSH1 0x20 DUP1 PUSH1 0x3 NOT CALLDATASIZE ADD SLT PUSH2 0x197 JUMPI PUSH1 0x1 PUSH1 0x1 PUSH1 0xA0 SHL SUB SWAP1 DUP2 PUSH2 0xC92 PUSH2 0x1411 JUMP JUMPDEST AND PUSH1 0x0 MSTORE PUSH1 0xA DUP2 MSTORE PUSH1 0x40 PUSH1 0x0 KECCAK256 SWAP2 PUSH1 0x40 MLOAD DUP1 SWAP4 DUP5 SWAP2 DUP5 DUP3 SLOAD SWAP2 DUP3 DUP2 MSTORE ADD SWAP2 PUSH1 0x0 MSTORE DUP5 PUSH1 0x0 KECCAK256 SWAP4 PUSH1 0x0 SWAP1 JUMPDEST DUP7 DUP4 DUP4 LT PUSH2 0xCEA JUMPI DUP6 SWAP1 PUSH2 0xCD2 DUP3 DUP8 SUB DUP4 PUSH2 0x1534 JUMP JUMPDEST PUSH2 0xCE6 PUSH1 0x40 MLOAD SWAP3 DUP3 DUP5 SWAP4 DUP5 MSTORE DUP4 ADD SWAP1 PUSH2 0x1427 JUMP JUMPDEST SUB SWAP1 RETURN JUMPDEST DUP7 SLOAD DUP3 AND DUP6 MSTORE PUSH1 0x1 SWAP7 DUP8 ADD SWAP7 DUP10 SWAP7 POP SWAP5 ADD SWAP4 SWAP2 SWAP1 SWAP2 ADD SWAP1 PUSH2 0xCBC JUMP JUMPDEST CALLVALUE PUSH2 0x197 JUMPI PUSH1 0x20 CALLDATASIZE PUSH1 0x3 NOT ADD SLT PUSH2 0x197 JUMPI PUSH2 0xD1F PUSH2 0x1411 JUMP JUMPDEST PUSH2 0xD27 PUSH2 0x1555 JUMP JUMPDEST PUSH1 0x6 DUP1 SLOAD PUSH1 0x1 PUSH1 0x1 PUSH1 0xA0 SHL SUB NOT AND PUSH1 0x1 PUSH1 0x1 PUSH1 0xA0 SHL SUB SWAP3 SWAP1 SWAP3 AND SWAP2 SWAP1 SWAP2 OR SWAP1 SSTORE STOP JUMPDEST CALLVALUE PUSH2 0x197 JUMPI PUSH1 0x3 NOT PUSH1 0x20 CALLDATASIZE DUP3 ADD SLT PUSH2 0x197 JUMPI PUSH1 0x1 PUSH1 0x1 PUSH1 0x40 SHL SUB PUSH1 0x4 CALLDATALOAD GT PUSH2 0x197 JUMPI PUSH2 0x1E0 SWAP1 PUSH1 0x4 CALLDATALOAD CALLDATASIZE SUB ADD SLT PUSH2 0x197 JUMPI PUSH1 0x0 SLOAD PUSH1 0x1 PUSH1 0x1 PUSH1 0xA0 SHL SUB AND CALLER DUP2 EQ ISZERO DUP1 PUSH2 0x1317 JUMPI JUMPDEST PUSH2 0xAF6 JUMPI PUSH2 0xDA5 PUSH2 0x599 PUSH1 0x4 CALLDATALOAD PUSH1 0x4 ADD PUSH2 0x1569 JUMP JUMPDEST SWAP1 PUSH1 0x1 PUSH1 0x1 PUSH1 0xA0 SHL SUB PUSH2 0xDBB PUSH1 0x4 DUP1 CALLDATALOAD ADD PUSH2 0x1569 JUMP JUMPDEST AND PUSH1 0x0 MSTORE PUSH1 0x2 PUSH1 0x20 MSTORE PUSH1 0xFF PUSH1 0x40 PUSH1 0x0 KECCAK256 SLOAD AND ISZERO PUSH2 0xAE4 JUMPI PUSH1 0x1 PUSH1 0x1 PUSH1 0xA0 SHL SUB PUSH2 0xDE7 PUSH1 0x4 DUP1 CALLDATALOAD ADD PUSH2 0x1569 JUMP JUMPDEST AND ISZERO DUP1 PUSH2 0x1309 JUMPI JUMPDEST PUSH2 0xA62 JUMPI PUSH1 0x2 PUSH2 0xE09 PUSH1 0xC4 PUSH1 0x4 CALLDATALOAD ADD PUSH1 0x4 CALLDATALOAD PUSH1 0x4 ADD PUSH2 0x158B JUMP JUMPDEST SWAP1 POP LT DUP1 ISZERO PUSH2 0x12EA JUMPI JUMPDEST PUSH2 0xAA6 JUMPI PUSH1 0x4 CALLDATALOAD PUSH1 0xE4 ADD PUSH1 0x1 PUSH1 0x1 PUSH1 0xA0 SHL SUB PUSH2 0xE2E DUP3 PUSH2 0x1569 JUMP JUMPDEST AND ISZERO PUSH2 0x12D8 JUMPI PUSH2 0x164 PUSH1 0x4 CALLDATALOAD ADD CALLDATALOAD ISZERO PUSH2 0xA62 JUMPI TIMESTAMP PUSH1 0x64 PUSH1 0x4 CALLDATALOAD ADD CALLDATALOAD GT DUP1 ISZERO SWAP1 PUSH2 0x12C2 JUMPI JUMPDEST PUSH2 0xA3A JUMPI PUSH1 0xA4 PUSH1 0x4 CALLDATALOAD ADD CALLDATALOAD ISZERO PUSH2 0xA28 JUMPI PUSH2 0xE77 PUSH2 0x184 PUSH1 0x4 CALLDATALOAD ADD PUSH1 0x4 CALLDATALOAD PUSH1 0x4 ADD PUSH2 0x158B JUMP JUMPDEST ISZERO SWAP1 POP PUSH2 0x1266 JUMPI PUSH2 0xE93 PUSH2 0x184 PUSH1 0x4 CALLDATALOAD ADD PUSH1 0x4 CALLDATALOAD PUSH1 0x4 ADD PUSH2 0x158B JUMP JUMPDEST SWAP1 POP PUSH2 0xEA9 PUSH1 0xC4 PUSH1 0x4 CALLDATALOAD ADD PUSH1 0x4 CALLDATALOAD PUSH1 0x4 ADD PUSH2 0x158B JUMP JUMPDEST SWAP2 SWAP1 POP EQ DUP1 ISZERO SWAP1 PUSH2 0x1230 JUMPI JUMPDEST PUSH2 0x121E JUMPI JUMPDEST PUSH1 0x7 SLOAD PUSH1 0x1 PUSH1 0x1 PUSH1 0xA0 SHL SUB AND DUP1 ISZERO PUSH2 0xA16 JUMPI PUSH1 0x3 SLOAD PUSH1 0x1 PUSH1 0x1 PUSH1 0xA0 SHL SUB AND SWAP1 PUSH2 0xEE6 PUSH1 0x4 DUP1 CALLDATALOAD ADD PUSH2 0x1569 JUMP JUMPDEST SWAP2 PUSH2 0xF06 PUSH2 0xEFE PUSH1 0xC4 PUSH1 0x4 CALLDATALOAD ADD PUSH1 0x4 CALLDATALOAD PUSH1 0x4 ADD PUSH2 0x158B JUMP JUMPDEST SWAP6 SWAP1 POP PUSH2 0x1569 JUMP JUMPDEST SWAP4 PUSH1 0x3 PUSH2 0x124 PUSH1 0x4 CALLDATALOAD ADD CALLDATALOAD LT ISZERO PUSH2 0x197 JUMPI PUSH1 0xFF SWAP6 PUSH2 0x100D PUSH1 0x0 SWAP7 SWAP3 DUP8 SWAP4 PUSH2 0xF37 PUSH1 0xC4 PUSH1 0x4 CALLDATALOAD ADD PUSH1 0x4 CALLDATALOAD PUSH1 0x4 ADD PUSH2 0x158B JUMP JUMPDEST SWAP11 SWAP1 SWAP3 DUP2 PUSH1 0x40 MLOAD SWAP14 DUP15 SWAP12 DUP13 SWAP11 DUP12 SWAP10 PUSH4 0x624A59D3 PUSH1 0xE1 SHL DUP12 MSTORE PUSH1 0x4 DUP12 ADD MSTORE PUSH1 0x24 DUP11 ADD MSTORE PUSH1 0x1 DUP1 PUSH1 0xA0 SHL SUB AND PUSH1 0x44 DUP10 ADD MSTORE AND PUSH1 0x64 DUP8 ADD MSTORE AND PUSH1 0x84 DUP6 ADD MSTORE PUSH1 0x44 PUSH1 0x4 CALLDATALOAD ADD CALLDATALOAD PUSH1 0xA4 DUP6 ADD MSTORE PUSH1 0x64 PUSH1 0x4 CALLDATALOAD ADD CALLDATALOAD PUSH1 0xC4 DUP6 ADD MSTORE PUSH1 0x84 PUSH1 0x4 CALLDATALOAD ADD CALLDATALOAD PUSH1 0xE4 DUP6 ADD MSTORE PUSH1 0xA4 PUSH1 0x4 CALLDATALOAD ADD CALLDATALOAD PUSH2 0x104 DUP6 ADD MSTORE PUSH1 0x1 DUP1 PUSH1 0xA0 SHL SUB AND PUSH2 0x124 DUP5 ADD MSTORE PUSH2 0x104 PUSH1 0x4 CALLDATALOAD ADD CALLDATALOAD PUSH2 0x144 DUP5 ADD MSTORE PUSH2 0x124 PUSH1 0x4 CALLDATALOAD ADD CALLDATALOAD PUSH2 0x164 DUP5 ADD MSTORE PUSH2 0x144 PUSH1 0x4 CALLDATALOAD ADD CALLDATALOAD PUSH2 0x184 DUP5 ADD MSTORE PUSH2 0x1A4 SWAP9 PUSH2 0x164 PUSH1 0x4 CALLDATALOAD ADD CALLDATALOAD DUP11 DUP6 ADD MSTORE PUSH2 0x1C4 PUSH1 0x4 CALLDATALOAD ADD CALLDATALOAD PUSH2 0x1C4 DUP6 ADD MSTORE PUSH2 0x200 PUSH2 0x1E4 DUP6 ADD MSTORE PUSH2 0x204 DUP5 ADD SWAP2 PUSH2 0x167B JUMP JUMPDEST SUB SWAP3 GAS CALL SWAP1 DUP2 ISZERO PUSH2 0xA0A JUMPI PUSH1 0x0 SWAP3 PUSH1 0x0 SWAP3 PUSH2 0x11EC JUMPI JUMPDEST POP PUSH2 0x1058 PUSH2 0x1073 PUSH2 0x107B PUSH2 0x1083 SWAP4 PUSH2 0x1046 PUSH2 0x184 PUSH1 0x4 CALLDATALOAD ADD PUSH1 0x4 CALLDATALOAD PUSH1 0x4 ADD PUSH2 0x158B JUMP JUMPDEST SWAP5 SWAP1 SWAP2 PUSH1 0x4 CALLDATALOAD ADD PUSH1 0x4 CALLDATALOAD PUSH1 0x4 ADD PUSH2 0x158B JUMP JUMPDEST SWAP4 SWAP1 SWAP2 PUSH1 0x40 MLOAD SWAP6 PUSH2 0x1068 DUP8 PUSH2 0x1519 JUMP JUMPDEST PUSH1 0x0 DUP8 MSTORE CALLDATASIZE SWAP2 PUSH2 0x1714 JUMP JUMPDEST SWAP3 CALLDATASIZE SWAP2 PUSH2 0x1714 JUMP JUMPDEST SWAP2 DUP5 DUP7 PUSH2 0x190C JUMP JUMPDEST PUSH2 0x1091 PUSH1 0x4 CALLDATALOAD PUSH1 0x4 ADD PUSH2 0x1569 JUMP JUMPDEST SWAP1 PUSH2 0x10A9 PUSH2 0x87F PUSH1 0xC4 PUSH1 0x4 CALLDATALOAD ADD PUSH1 0x4 CALLDATALOAD PUSH1 0x4 ADD PUSH2 0x158B JUMP JUMPDEST PUSH2 0x10B2 DUP5 PUSH2 0x1A2E JUMP JUMPDEST PUSH1 0x1 PUSH1 0x1 PUSH1 0xA0 SHL SUB DUP5 AND PUSH1 0x0 SWAP1 DUP2 MSTORE PUSH1 0x9 PUSH1 0x20 MSTORE PUSH1 0x40 DUP2 KECCAK256 DUP1 SLOAD PUSH1 0xFF NOT AND PUSH1 0x1 OR SWAP1 SSTORE JUMPDEST DUP3 MLOAD DUP2 LT ISZERO PUSH2 0x1111 JUMPI PUSH1 0x1 PUSH1 0x1 PUSH1 0xA0 SHL SUB DUP6 DUP2 AND PUSH1 0x0 SWAP1 DUP2 MSTORE PUSH1 0xA PUSH1 0x20 MSTORE PUSH1 0x40 SWAP1 KECCAK256 PUSH1 0x1 SWAP3 SWAP2 PUSH2 0x110B SWAP2 SWAP1 PUSH2 0x9C8 DUP5 DUP9 PUSH2 0x1884 JUMP JUMPDEST ADD PUSH2 0x10D6 JUMP JUMPDEST POP SWAP3 SWAP2 PUSH2 0x1129 PUSH1 0x40 MLOAD SWAP3 PUSH1 0xA0 DUP5 MSTORE PUSH1 0xA0 DUP5 ADD SWAP1 PUSH2 0x1427 JUMP JUMPDEST DUP3 DUP2 SUB PUSH1 0x20 DUP5 ADD MSTORE DUP5 MLOAD DUP1 DUP3 MSTORE PUSH1 0x20 DUP3 ADD SWAP2 PUSH1 0x20 DUP1 DUP4 PUSH1 0x5 SHL DUP4 ADD ADD SWAP8 ADD SWAP3 PUSH1 0x0 SWAP2 JUMPDEST DUP4 DUP4 LT PUSH2 0x11BF JUMPI PUSH1 0x4 CALLDATALOAD PUSH1 0x64 DUP2 ADD CALLDATALOAD PUSH1 0x40 DUP10 ADD MSTORE PUSH1 0x84 DUP2 ADD CALLDATALOAD PUSH1 0x60 DUP10 ADD MSTORE PUSH1 0xA4 ADD CALLDATALOAD PUSH1 0x80 DUP9 ADD MSTORE PUSH1 0x20 DUP9 PUSH1 0x1 PUSH1 0x1 PUSH1 0xA0 SHL SUB DUP1 DUP10 AND SWAP1 PUSH1 0x0 SWAP1 DUP4 AND PUSH32 0xB679F8BB353CCC2331BBEB116D31F96FE2836F68DD9CB37D0749EA0B26BE22D6 DUP13 DUP16 SUB DUP14 LOG4 PUSH1 0x40 MLOAD PUSH1 0x1 PUSH1 0x1 PUSH1 0xA0 SHL SUB SWAP1 SWAP2 AND DUP2 MSTORE RETURN JUMPDEST SWAP1 SWAP2 SWAP3 SWAP4 SWAP8 PUSH1 0x20 DUP1 PUSH2 0x11DD PUSH1 0x1 SWAP4 PUSH1 0x1F NOT DUP7 DUP3 SUB ADD DUP8 MSTORE DUP13 MLOAD PUSH2 0x1898 JUMP JUMPDEST SWAP11 ADD SWAP4 ADD SWAP4 ADD SWAP2 SWAP4 SWAP3 SWAP1 PUSH2 0x114C JUMP JUMPDEST PUSH2 0x107B SWAP4 POP PUSH2 0x1083 SWAP2 SWAP3 POP PUSH2 0x1073 PUSH2 0x1211 PUSH2 0x1058 SWAP3 RETURNDATASIZE DUP1 PUSH1 0x0 DUP4 RETURNDATACOPY PUSH2 0x9FB DUP2 DUP4 PUSH2 0x1534 JUMP JUMPDEST SWAP6 SWAP1 SWAP6 SWAP5 SWAP4 POP POP POP PUSH2 0x1023 JUMP JUMPDEST PUSH1 0x40 MLOAD PUSH4 0xB2D4ECEB PUSH1 0xE0 SHL DUP2 MSTORE PUSH1 0x4 SWAP1 REVERT JUMPDEST POP PUSH2 0x1246 PUSH2 0x1A4 PUSH1 0x4 CALLDATALOAD ADD PUSH1 0x4 CALLDATALOAD PUSH1 0x4 ADD PUSH2 0x158B JUMP JUMPDEST SWAP1 POP PUSH2 0x125C PUSH1 0xC4 PUSH1 0x4 CALLDATALOAD ADD PUSH1 0x4 CALLDATALOAD PUSH1 0x4 ADD PUSH2 0x158B JUMP JUMPDEST SWAP2 SWAP1 POP EQ ISZERO PUSH2 0xEB5 JUMP JUMPDEST PUSH1 0x2 PUSH2 0x127C PUSH1 0xC4 PUSH1 0x4 CALLDATALOAD ADD PUSH1 0x4 CALLDATALOAD PUSH1 0x4 ADD PUSH2 0x158B JUMP JUMPDEST SWAP1 POP SUB PUSH2 0x121E JUMPI PUSH2 0x124 PUSH1 0x4 CALLDATALOAD ADD CALLDATALOAD PUSH1 0x3 DUP2 LT ISZERO PUSH2 0x197 JUMPI PUSH1 0x2 SUB PUSH2 0xEBA JUMPI PUSH2 0x144 PUSH1 0x4 CALLDATALOAD ADD CALLDATALOAD PUSH2 0x104 PUSH1 0x4 CALLDATALOAD ADD CALLDATALOAD LT PUSH2 0xEBA JUMPI PUSH1 0x40 MLOAD PUSH4 0x6B7C759 PUSH1 0xE3 SHL DUP2 MSTORE PUSH1 0x4 SWAP1 REVERT JUMPDEST POP PUSH1 0x64 PUSH1 0x4 CALLDATALOAD ADD CALLDATALOAD PUSH1 0x84 PUSH1 0x4 CALLDATALOAD ADD CALLDATALOAD GT ISZERO PUSH2 0xE52 JUMP JUMPDEST PUSH1 0x40 MLOAD PUSH4 0x1F86E17 PUSH1 0xE4 SHL DUP2 MSTORE PUSH1 0x4 SWAP1 REVERT JUMPDEST POP PUSH1 0x20 PUSH2 0x1301 PUSH1 0xC4 PUSH1 0x4 CALLDATALOAD ADD PUSH1 0x4 CALLDATALOAD PUSH1 0x4 ADD PUSH2 0x158B JUMP JUMPDEST SWAP1 POP GT PUSH2 0xE13 JUMP JUMPDEST POP PUSH1 0x12 PUSH1 0xFF DUP4 AND EQ ISZERO PUSH2 0xDEF JUMP JUMPDEST POP PUSH1 0x6 SLOAD PUSH1 0x1 PUSH1 0x1 PUSH1 0xA0 SHL SUB AND CALLER EQ ISZERO PUSH2 0xD90 JUMP JUMPDEST CALLVALUE PUSH2 0x197 JUMPI PUSH1 0x20 CALLDATASIZE PUSH1 0x3 NOT ADD SLT PUSH2 0x197 JUMPI PUSH2 0x1345 PUSH2 0x1411 JUMP JUMPDEST PUSH2 0x134D PUSH2 0x1555 JUMP JUMPDEST PUSH1 0x1 PUSH1 0x1 PUSH1 0xA0 SHL SUB AND PUSH1 0x0 DUP2 DUP2 MSTORE PUSH1 0x2 PUSH1 0x20 MSTORE PUSH1 0x40 SWAP1 KECCAK256 SLOAD PUSH1 0xFF AND ISZERO PUSH2 0xA62 JUMPI DUP1 PUSH1 0x0 MSTORE PUSH1 0x2 PUSH1 0x20 MSTORE PUSH1 0x40 PUSH1 0x0 KECCAK256 PUSH1 0xFF NOT DUP2 SLOAD AND SWAP1 SSTORE PUSH32 0xFFBE34CFA1831023FD1E8602FC452DFA0E07B531DD9197A3FAC11258AA17E75 PUSH1 0x0 DUP1 LOG2 STOP JUMPDEST CALLVALUE PUSH2 0x197 JUMPI PUSH1 0x40 CALLDATASIZE PUSH1 0x3 NOT ADD SLT PUSH2 0x197 JUMPI PUSH2 0x13C3 PUSH2 0x1411 JUMP JUMPDEST PUSH1 0x24 CALLDATALOAD SWAP1 PUSH1 0x1 PUSH1 0x1 PUSH1 0xA0 SHL SUB DUP3 AND DUP3 SUB PUSH2 0x197 JUMPI PUSH1 0x20 SWAP2 PUSH2 0x13E3 SWAP2 PUSH2 0x1492 JUMP JUMPDEST PUSH1 0x40 MLOAD SWAP1 ISZERO ISZERO DUP2 MSTORE RETURN JUMPDEST CALLVALUE PUSH2 0x197 JUMPI PUSH1 0x0 CALLDATASIZE PUSH1 0x3 NOT ADD SLT PUSH2 0x197 JUMPI PUSH1 0x4 SLOAD PUSH1 0x1 PUSH1 0x1 PUSH1 0xA0 SHL SUB AND DUP2 MSTORE PUSH1 0x20 SWAP1 RETURN JUMPDEST PUSH1 0x4 CALLDATALOAD SWAP1 PUSH1 0x1 PUSH1 0x1 PUSH1 0xA0 SHL SUB DUP3 AND DUP3 SUB PUSH2 0x197 JUMPI JUMP JUMPDEST SWAP1 DUP2 MLOAD DUP1 DUP3 MSTORE PUSH1 0x20 DUP1 DUP1 SWAP4 ADD SWAP4 ADD SWAP2 PUSH1 0x0 JUMPDEST DUP3 DUP2 LT PUSH2 0x1447 JUMPI POP POP POP POP SWAP1 JUMP JUMPDEST DUP4 MLOAD PUSH1 0x1 PUSH1 0x1 PUSH1 0xA0 SHL SUB AND DUP6 MSTORE SWAP4 DUP2 ADD SWAP4 SWAP3 DUP2 ADD SWAP3 PUSH1 0x1 ADD PUSH2 0x1439 JUMP JUMPDEST DUP1 SLOAD DUP3 LT ISZERO PUSH2 0x147C JUMPI PUSH1 0x0 MSTORE PUSH1 0x20 PUSH1 0x0 KECCAK256 ADD SWAP1 PUSH1 0x0 SWAP1 JUMP JUMPDEST PUSH4 0x4E487B71 PUSH1 0xE0 SHL PUSH1 0x0 MSTORE PUSH1 0x32 PUSH1 0x4 MSTORE PUSH1 0x24 PUSH1 0x0 REVERT JUMPDEST PUSH1 0x1 PUSH1 0x1 PUSH1 0xA0 SHL SUB SWAP1 DUP2 AND PUSH1 0x0 SWAP1 DUP2 MSTORE PUSH1 0xA PUSH1 0x20 MSTORE PUSH1 0x40 DUP2 KECCAK256 DUP1 SLOAD SWAP4 SWAP1 SWAP2 JUMPDEST DUP5 DUP2 LT PUSH2 0x14C2 JUMPI POP POP POP POP POP PUSH1 0x0 SWAP1 JUMP JUMPDEST DUP4 PUSH2 0x14CD DUP3 DUP6 PUSH2 0x1464 JUMP JUMPDEST SWAP2 SWAP1 SLOAD DUP2 DUP6 AND SWAP3 PUSH1 0x3 SHL SHR AND EQ PUSH2 0x14E6 JUMPI PUSH1 0x1 ADD PUSH2 0x14B1 JUMP JUMPDEST POP POP POP POP POP PUSH1 0x1 SWAP1 JUMP JUMPDEST PUSH1 0x1 PUSH1 0x1 PUSH1 0x40 SHL SUB DUP2 GT PUSH2 0x1503 JUMPI PUSH1 0x40 MSTORE JUMP JUMPDEST PUSH4 0x4E487B71 PUSH1 0xE0 SHL PUSH1 0x0 MSTORE PUSH1 0x41 PUSH1 0x4 MSTORE PUSH1 0x24 PUSH1 0x0 REVERT JUMPDEST PUSH1 0x20 DUP2 ADD SWAP1 DUP2 LT PUSH1 0x1 PUSH1 0x1 PUSH1 0x40 SHL SUB DUP3 GT OR PUSH2 0x1503 JUMPI PUSH1 0x40 MSTORE JUMP JUMPDEST SWAP1 PUSH1 0x1F DUP1 NOT SWAP2 ADD AND DUP2 ADD SWAP1 DUP2 LT PUSH1 0x1 PUSH1 0x1 PUSH1 0x40 SHL SUB DUP3 GT OR PUSH2 0x1503 JUMPI PUSH1 0x40 MSTORE JUMP JUMPDEST PUSH1 0x0 SLOAD PUSH1 0x1 PUSH1 0x1 PUSH1 0xA0 SHL SUB AND CALLER SUB PUSH2 0x457 JUMPI JUMP JUMPDEST CALLDATALOAD PUSH1 0x1 PUSH1 0x1 PUSH1 0xA0 SHL SUB DUP2 AND DUP2 SUB PUSH2 0x197 JUMPI SWAP1 JUMP JUMPDEST CALLDATALOAD PUSH1 0xFF DUP2 AND DUP2 SUB PUSH2 0x197 JUMPI SWAP1 JUMP JUMPDEST SWAP1 CALLDATALOAD SWAP1 PUSH1 0x1E NOT DUP2 CALLDATASIZE SUB ADD DUP3 SLT ISZERO PUSH2 0x197 JUMPI ADD DUP1 CALLDATALOAD SWAP1 PUSH1 0x1 PUSH1 0x1 PUSH1 0x40 SHL SUB DUP3 GT PUSH2 0x197 JUMPI PUSH1 0x20 ADD SWAP2 DUP2 PUSH1 0x5 SHL CALLDATASIZE SUB DUP4 SGT PUSH2 0x197 JUMPI JUMP JUMPDEST MLOAD SWAP1 PUSH1 0x1 PUSH1 0x1 PUSH1 0xA0 SHL SUB DUP3 AND DUP3 SUB PUSH2 0x197 JUMPI JUMP JUMPDEST PUSH1 0x1 PUSH1 0x1 PUSH1 0x40 SHL SUB DUP2 GT PUSH2 0x1503 JUMPI PUSH1 0x5 SHL PUSH1 0x20 ADD SWAP1 JUMP JUMPDEST SWAP2 SWAP1 PUSH1 0x40 DUP4 DUP3 SUB SLT PUSH2 0x197 JUMPI PUSH2 0x1600 DUP4 PUSH2 0x15C0 JUMP JUMPDEST SWAP3 PUSH1 0x20 SWAP1 DUP2 DUP2 ADD MLOAD SWAP1 PUSH1 0x1 PUSH1 0x1 PUSH1 0x40 SHL SUB DUP3 GT PUSH2 0x197 JUMPI ADD SWAP2 DUP1 PUSH1 0x1F DUP5 ADD SLT ISZERO PUSH2 0x197 JUMPI DUP3 MLOAD PUSH2 0x162F DUP2 PUSH2 0x15D4 JUMP JUMPDEST SWAP4 PUSH2 0x163D PUSH1 0x40 MLOAD SWAP6 DUP7 PUSH2 0x1534 JUMP JUMPDEST DUP2 DUP6 MSTORE DUP4 DUP1 DUP7 ADD SWAP3 PUSH1 0x5 SHL DUP3 ADD ADD SWAP3 DUP4 GT PUSH2 0x197 JUMPI DUP4 ADD SWAP1 JUMPDEST DUP3 DUP3 LT PUSH2 0x1664 JUMPI POP POP POP POP SWAP1 JUMP JUMPDEST DUP4 DUP1 SWAP2 PUSH2 0x1670 DUP5 PUSH2 0x15C0 JUMP JUMPDEST DUP2 MSTORE ADD SWAP2 ADD SWAP1 PUSH2 0x1656 JUMP JUMPDEST DUP2 DUP4 MSTORE PUSH1 0x20 PUSH1 0x5 DUP4 SWAP1 SHL DUP5 ADD DUP2 ADD SWAP4 SWAP2 SWAP3 SWAP1 PUSH1 0x0 DUP2 DUP5 ADD DUP6 JUMPDEST DUP5 DUP4 LT PUSH2 0x16A5 JUMPI POP POP POP POP POP POP POP SWAP1 JUMP JUMPDEST SWAP1 SWAP2 SWAP3 SWAP4 SWAP5 SWAP6 SWAP7 PUSH1 0x1F NOT DUP1 DUP9 DUP4 SUB ADD DUP5 MSTORE DUP9 CALLDATALOAD PUSH1 0x1E NOT DUP5 CALLDATASIZE SUB ADD DUP2 SLT ISZERO PUSH2 0x197 JUMPI DUP4 ADD DUP7 DUP2 ADD SWAP1 CALLDATALOAD PUSH1 0x1 PUSH1 0x1 PUSH1 0x40 SHL SUB DUP2 GT PUSH2 0x197 JUMPI DUP1 CALLDATASIZE SUB DUP3 SGT PUSH2 0x197 JUMPI DUP4 DUP9 SWAP4 PUSH1 0x1F DUP4 DUP1 DUP8 SWAP7 DUP8 SWAP7 PUSH1 0x1 SWAP11 MSTORE DUP7 DUP7 ADD CALLDATACOPY PUSH1 0x0 DUP6 DUP3 DUP7 ADD ADD MSTORE ADD AND ADD ADD SWAP10 ADD SWAP4 ADD SWAP4 ADD SWAP2 SWAP6 SWAP5 SWAP4 SWAP3 SWAP1 PUSH2 0x1694 JUMP JUMPDEST SWAP3 SWAP2 PUSH2 0x171F DUP3 PUSH2 0x15D4 JUMP JUMPDEST SWAP2 PUSH2 0x172D PUSH1 0x40 MLOAD SWAP4 DUP5 PUSH2 0x1534 JUMP JUMPDEST DUP3 SWAP5 DUP2 DUP5 MSTORE PUSH1 0x20 DUP1 SWAP5 ADD SWAP2 PUSH1 0x5 SHL DUP2 ADD SWAP3 DUP4 GT PUSH2 0x197 JUMPI SWAP1 JUMPDEST DUP3 DUP3 LT PUSH2 0x1753 JUMPI POP POP POP POP JUMP JUMPDEST DUP2 CALLDATALOAD DUP2 MSTORE SWAP1 DUP4 ADD SWAP1 DUP4 ADD PUSH2 0x1746 JUMP JUMPDEST SWAP3 SWAP2 SWAP3 PUSH1 0x1 PUSH1 0x1 PUSH1 0x40 SHL SUB DUP3 GT PUSH2 0x1503 JUMPI PUSH1 0x40 MLOAD SWAP2 PUSH2 0x178B PUSH1 0x1F DUP3 ADD PUSH1 0x1F NOT AND PUSH1 0x20 ADD DUP5 PUSH2 0x1534 JUMP JUMPDEST DUP3 SWAP5 DUP2 DUP5 MSTORE DUP2 DUP4 ADD GT PUSH2 0x197 JUMPI DUP3 DUP2 PUSH1 0x20 SWAP4 DUP5 PUSH1 0x0 SWAP7 ADD CALLDATACOPY ADD ADD MSTORE JUMP JUMPDEST SWAP3 SWAP2 SWAP1 SWAP3 PUSH2 0x17B5 DUP5 PUSH2 0x15D4 JUMP JUMPDEST SWAP2 PUSH2 0x17C3 PUSH1 0x40 MLOAD SWAP4 DUP5 PUSH2 0x1534 JUMP JUMPDEST DUP3 SWAP5 DUP1 DUP5 MSTORE PUSH1 0x20 DUP1 SWAP5 ADD SWAP1 PUSH1 0x5 SHL DUP4 ADD SWAP3 DUP3 DUP5 GT PUSH2 0x197 JUMPI DUP1 SWAP2 JUMPDEST DUP5 DUP4 LT PUSH2 0x17ED JUMPI POP POP POP POP POP POP JUMP JUMPDEST DUP3 CALLDATALOAD PUSH1 0x1 PUSH1 0x1 PUSH1 0x40 SHL SUB DUP2 GT PUSH2 0x197 JUMPI DUP3 ADD DUP5 PUSH1 0x1F DUP3 ADD SLT ISZERO PUSH2 0x197 JUMPI DUP7 SWAP2 PUSH2 0x181C DUP7 DUP4 DUP6 DUP1 SWAP6 CALLDATALOAD SWAP2 ADD PUSH2 0x1762 JUMP JUMPDEST DUP2 MSTORE ADD SWAP3 ADD SWAP2 PUSH2 0x17DE JUMP JUMPDEST SWAP1 CALLDATALOAD SWAP1 PUSH1 0x1E NOT DUP2 CALLDATASIZE SUB ADD DUP3 SLT ISZERO PUSH2 0x197 JUMPI ADD DUP1 CALLDATALOAD SWAP1 PUSH1 0x1 PUSH1 0x1 PUSH1 0x40 SHL SUB DUP3 GT PUSH2 0x197 JUMPI PUSH1 0x20 ADD SWAP2 DUP2 CALLDATASIZE SUB DUP4 SGT PUSH2 0x197 JUMPI JUMP JUMPDEST CALLDATALOAD PUSH1 0x1 PUSH1 0x1 PUSH1 0x40 SHL SUB DUP2 AND DUP2 SUB PUSH2 0x197 JUMPI SWAP1 JUMP JUMPDEST PUSH1 0x1 PUSH1 0x1 PUSH1 0xA0 SHL SUB AND ISZERO PUSH2 0x187E JUMPI SWAP1 JUMP JUMPDEST POP PUSH1 0x12 SWAP1 JUMP JUMPDEST DUP1 MLOAD DUP3 LT ISZERO PUSH2 0x147C JUMPI PUSH1 0x20 SWAP2 PUSH1 0x5 SHL ADD ADD SWAP1 JUMP JUMPDEST SWAP2 SWAP1 DUP3 MLOAD SWAP3 DUP4 DUP3 MSTORE PUSH1 0x0 JUMPDEST DUP5 DUP2 LT PUSH2 0x18C4 JUMPI POP POP DUP3 PUSH1 0x0 PUSH1 0x20 DUP1 SWAP5 SWAP6 DUP5 ADD ADD MSTORE PUSH1 0x1F DUP1 NOT SWAP2 ADD AND ADD ADD SWAP1 JUMP JUMPDEST PUSH1 0x20 DUP2 DUP4 ADD DUP2 ADD MLOAD DUP5 DUP4 ADD DUP3 ADD MSTORE ADD PUSH2 0x18A3 JUMP JUMPDEST SWAP1 DUP2 MLOAD DUP1 DUP3 MSTORE PUSH1 0x20 DUP1 DUP1 SWAP4 ADD SWAP4 ADD SWAP2 PUSH1 0x0 JUMPDEST DUP3 DUP2 LT PUSH2 0x18F8 JUMPI POP POP POP POP SWAP1 JUMP JUMPDEST DUP4 MLOAD DUP6 MSTORE SWAP4 DUP2 ADD SWAP4 SWAP3 DUP2 ADD SWAP3 PUSH1 0x1 ADD PUSH2 0x18EA JUMP JUMPDEST SWAP5 SWAP2 SWAP3 SWAP1 SWAP3 PUSH1 0x0 JUMPDEST DUP5 MLOAD DUP2 LT ISZERO PUSH2 0x198E JUMPI PUSH1 0x1 PUSH1 0x1 PUSH1 0xA0 SHL SUB DUP1 PUSH2 0x1930 DUP4 DUP9 PUSH2 0x1884 JUMP JUMPDEST MLOAD AND SWAP1 DUP2 EXTCODESIZE ISZERO PUSH2 0x197 JUMPI PUSH1 0x0 PUSH1 0x40 SWAP2 PUSH1 0x24 DUP12 DUP4 DUP6 MLOAD SWAP7 DUP8 SWAP5 DUP6 SWAP4 PUSH4 0xF2FDE38B PUSH1 0xE0 SHL DUP6 MSTORE AND PUSH1 0x4 DUP5 ADD MSTORE GAS CALL SWAP1 DUP2 ISZERO PUSH2 0x1984 JUMPI POP SWAP1 PUSH1 0x1 SWAP3 SWAP2 PUSH2 0x1975 JUMPI JUMPDEST POP ADD PUSH2 0x1914 JUMP JUMPDEST PUSH2 0x197E SWAP1 PUSH2 0x14F0 JUMP JUMPDEST CODESIZE PUSH2 0x196E JUMP JUMPDEST MLOAD RETURNDATASIZE PUSH1 0x0 DUP3 RETURNDATACOPY RETURNDATASIZE SWAP1 REVERT JUMPDEST POP SWAP2 SWAP5 SWAP1 SWAP4 SWAP2 SWAP3 SWAP2 PUSH1 0x1 PUSH1 0x1 PUSH1 0xA0 SHL SUB SWAP1 SWAP2 AND SWAP1 DUP2 EXTCODESIZE ISZERO PUSH2 0x197 JUMPI PUSH1 0x0 PUSH2 0x19F3 SWAP4 PUSH2 0x1A12 DUP3 SWAP7 PUSH2 0x19E0 SWAP5 PUSH2 0x1A03 PUSH1 0x40 MLOAD SWAP11 DUP12 SWAP10 DUP11 SWAP9 DUP10 SWAP8 PUSH4 0x3BFDBBC9 PUSH1 0xE0 SHL DUP10 MSTORE PUSH1 0x80 PUSH1 0x4 DUP11 ADD MSTORE PUSH1 0x84 DUP10 ADD SWAP1 PUSH2 0x1427 JUMP JUMPDEST PUSH1 0x3 NOT SWAP6 DUP7 DUP10 DUP4 SUB ADD PUSH1 0x24 DUP11 ADD MSTORE PUSH2 0x1898 JUMP JUMPDEST SWAP1 DUP5 DUP8 DUP4 SUB ADD PUSH1 0x44 DUP9 ADD MSTORE PUSH2 0x18D8 JUMP JUMPDEST SWAP2 DUP5 DUP4 SUB ADD PUSH1 0x64 DUP6 ADD MSTORE PUSH2 0x18D8 JUMP JUMPDEST SUB SWAP3 GAS CALL DUP1 ISZERO PUSH2 0xA0A JUMPI PUSH2 0x1A23 JUMPI POP JUMP JUMPDEST PUSH2 0x1A2C SWAP1 PUSH2 0x14F0 JUMP JUMPDEST JUMP JUMPDEST PUSH1 0x8 SLOAD PUSH1 0x1 PUSH1 0x40 SHL DUP2 LT ISZERO PUSH2 0x1503 JUMPI PUSH1 0x1 DUP2 ADD DUP1 PUSH1 0x8 SSTORE DUP2 LT ISZERO PUSH2 0x147C JUMPI PUSH1 0x8 PUSH1 0x0 MSTORE PUSH32 0xF3F7A9FE364FAAB93B216DA50A3214154F22A0A2B415B23A84C8169E8B636EE3 ADD DUP1 SLOAD PUSH1 0x1 PUSH1 0x1 PUSH1 0xA0 SHL SUB NOT AND PUSH1 0x1 PUSH1 0x1 PUSH1 0xA0 SHL SUB SWAP1 SWAP3 AND SWAP2 SWAP1 SWAP2 OR SWAP1 SSTORE JUMP JUMPDEST DUP1 SLOAD PUSH1 0x1 PUSH1 0x40 SHL DUP2 LT ISZERO PUSH2 0x1503 JUMPI PUSH2 0x1AAF SWAP2 PUSH1 0x1 DUP3 ADD DUP2 SSTORE PUSH2 0x1464 JUMP JUMPDEST PUSH1 0x1 DUP1 PUSH1 0xA0 SWAP5 SWAP4 SWAP5 SHL SUB DUP1 DUP5 SLOAD SWAP3 PUSH1 0x3 SHL SWAP4 AND DUP4 SHL SWAP3 SHL NOT AND OR SWAP1 SSTORE JUMP INVALID LOG2 PUSH5 0x6970667358 0x22 SLT KECCAK256 KECCAK256 PUSH8 0xC2DFCAE8E30EBC2B 0xD8 PUSH26 0x74A3260DEF3A04767C1E97731544F0E25C19B76464736F6C6343 STOP ADDMOD XOR STOP CALLER "},"methodIdentifiers":{"acceptOwnership()":"79ba5097","addSupportedCollateral(address)":"536db2e6","batchExecutor()":"5e6607ff","createEventMarket((address,uint8,uint256,uint256,uint256,bytes32,string[],string,bytes32,uint64,uint256,address,uint256))":"5b2eac4f","createPriceMarket((address,uint8,uint256,uint256,uint256,bytes32,string[],address,uint256,uint8,uint256,uint256,uint256[],uint256[],uint256))":"1cba0d29","feeRecipient()":"46904840","getMarketOutcomeTokens(address)":"1f470b2d","isMarket(address)":"6ec934da","isOutcomeTokenForMarket(address,address)":"17dbc538","isSupportedCollateral(address)":"39f4c4da","marketDeployer()":"bb1e4531","markets(uint256)":"b1283e77","optimisticOracleV2()":"0d2af8d3","owner()":"8da5cb5b","pendingOwner()":"e30c3978","removeSupportedCollateral(address)":"1800d79f","renounceOwnership()":"715018a6","setBatchExecutor(address)":"1d555306","setFeeRecipient(address)":"e74b981b","setMarketDeployer(address)":"9b307dc2","setOptimisticOracleV2(address)":"b2d35b7a","setUmaBondCurrency(address)":"4682be61","transferOwnership(address)":"f2fde38b","umaBondCurrency()":"ed460e56"}}}}}