{"contracts/factory/AFTRParimutuelMarketFactory.sol":{"AFTRParimutuelMarketFactory":{"abi":[{"inputs":[{"internalType":"address","name":"owner_","type":"address"},{"internalType":"address","name":"feeRecipient_","type":"address"},{"internalType":"address","name":"optimisticOracleV2_","type":"address"},{"internalType":"address","name":"umaBondCurrency_","type":"address"}],"stateMutability":"nonpayable","type":"constructor"},{"inputs":[],"name":"InvalidAddress","type":"error"},{"inputs":[],"name":"InvalidBins","type":"error"},{"inputs":[],"name":"InvalidCollateral","type":"error"},{"inputs":[],"name":"InvalidConfig","type":"error"},{"inputs":[],"name":"InvalidDeployer","type":"error"},{"inputs":[],"name":"InvalidFeed","type":"error"},{"inputs":[],"name":"InvalidMeta","type":"error"},{"inputs":[],"name":"InvalidOutcomes","type":"error"},{"inputs":[],"name":"InvalidTime","type":"error"},{"inputs":[],"name":"NotCreator","type":"error"},{"inputs":[{"internalType":"address","name":"owner","type":"address"}],"name":"OwnableInvalidOwner","type":"error"},{"inputs":[{"internalType":"address","name":"account","type":"address"}],"name":"OwnableUnauthorizedAccount","type":"error"},{"anonymous":false,"inputs":[{"indexed":true,"internalType":"address","name":"recipient","type":"address"}],"name":"FeeRecipientUpdated","type":"event"},{"anonymous":false,"inputs":[{"indexed":true,"internalType":"address","name":"market","type":"address"},{"indexed":true,"internalType":"enum AFTRVParimutuelMarket.MarketKind","name":"kind","type":"uint8"},{"indexed":true,"internalType":"address","name":"collateralToken","type":"address"},{"indexed":false,"internalType":"address[]","name":"outcomeTokens","type":"address[]"},{"indexed":false,"internalType":"string[]","name":"outcomeLabels","type":"string[]"},{"indexed":false,"internalType":"uint256","name":"stakeEndTimestamp","type":"uint256"},{"indexed":false,"internalType":"uint256","name":"resolveAfterTimestamp","type":"uint256"},{"indexed":false,"internalType":"bytes32","name":"metadataHash","type":"bytes32"}],"name":"MarketCreated","type":"event"},{"anonymous":false,"inputs":[{"indexed":true,"internalType":"address","name":"deployer","type":"address"}],"name":"MarketDeployerUpdated","type":"event"},{"anonymous":false,"inputs":[{"indexed":true,"internalType":"address","name":"oracle","type":"address"}],"name":"OptimisticOracleV2Updated","type":"event"},{"anonymous":false,"inputs":[{"indexed":true,"internalType":"address","name":"previousOwner","type":"address"},{"indexed":true,"internalType":"address","name":"newOwner","type":"address"}],"name":"OwnershipTransferStarted","type":"event"},{"anonymous":false,"inputs":[{"indexed":true,"internalType":"address","name":"previousOwner","type":"address"},{"indexed":true,"internalType":"address","name":"newOwner","type":"address"}],"name":"OwnershipTransferred","type":"event"},{"anonymous":false,"inputs":[{"indexed":true,"internalType":"address","name":"token","type":"address"}],"name":"SupportedCollateralAdded","type":"event"},{"anonymous":false,"inputs":[{"indexed":true,"internalType":"address","name":"token","type":"address"}],"name":"SupportedCollateralRemoved","type":"event"},{"anonymous":false,"inputs":[{"indexed":true,"internalType":"address","name":"currency","type":"address"}],"name":"UmaBondCurrencyUpdated","type":"event"},{"inputs":[],"name":"acceptOwnership","outputs":[],"stateMutability":"nonpayable","type":"function"},{"inputs":[{"internalType":"address","name":"token","type":"address"}],"name":"addSupportedCollateral","outputs":[],"stateMutability":"nonpayable","type":"function"},{"inputs":[],"name":"batchExecutor","outputs":[{"internalType":"address","name":"","type":"address"}],"stateMutability":"view","type":"function"},{"inputs":[{"components":[{"internalType":"address","name":"collateralToken","type":"address"},{"internalType":"uint8","name":"collateralDecimals","type":"uint8"},{"internalType":"uint256","name":"virtualReserve","type":"uint256"},{"internalType":"uint256","name":"stakeEndTimestamp","type":"uint256"},{"internalType":"uint256","name":"resolveAfterTimestamp","type":"uint256"},{"internalType":"bytes32","name":"metadataHash","type":"bytes32"},{"internalType":"string[]","name":"outcomeLabels","type":"string[]"},{"internalType":"string","name":"metadataURI","type":"string"},{"internalType":"string","name":"umaAncillary","type":"string"},{"internalType":"bytes32","name":"umaIdentifier","type":"bytes32"},{"internalType":"uint64","name":"umaLiveness","type":"uint64"},{"internalType":"uint256","name":"umaProposerBond","type":"uint256"},{"internalType":"uint256","name":"umaReward","type":"uint256"},{"internalType":"address","name":"umaRewardCurrency","type":"address"},{"internalType":"uint256","name":"minBootstrapTotal","type":"uint256"}],"internalType":"struct AFTRParimutuelMarketFactory.EventMarketParams","name":"p","type":"tuple"}],"name":"createEventMarket","outputs":[{"internalType":"address","name":"market","type":"address"}],"stateMutability":"nonpayable","type":"function"},{"inputs":[{"components":[{"internalType":"address","name":"collateralToken","type":"address"},{"internalType":"uint8","name":"collateralDecimals","type":"uint8"},{"internalType":"uint256","name":"virtualReserve","type":"uint256"},{"internalType":"uint256","name":"stakeEndTimestamp","type":"uint256"},{"internalType":"uint256","name":"resolveAfterTimestamp","type":"uint256"},{"internalType":"bytes32","name":"metadataHash","type":"bytes32"},{"internalType":"string[]","name":"outcomeLabels","type":"string[]"},{"internalType":"string","name":"metadataURI","type":"string"},{"internalType":"address","name":"chainlinkFeed","type":"address"},{"internalType":"uint256","name":"priceThreshold","type":"uint256"},{"internalType":"enum AFTRVParimutuelMarket.PriceThresholdKind","name":"priceKind","type":"uint8"},{"internalType":"uint256","name":"priceUpperBound","type":"uint256"},{"internalType":"uint256","name":"maxPriceStaleness","type":"uint256"},{"internalType":"uint256[]","name":"priceBinLower","type":"uint256[]"},{"internalType":"uint256[]","name":"priceBinUpper","type":"uint256[]"},{"internalType":"uint256","name":"minBootstrapTotal","type":"uint256"}],"internalType":"struct AFTRParimutuelMarketFactory.PriceMarketParams","name":"p","type":"tuple"}],"name":"createPriceMarket","outputs":[{"internalType":"address","name":"market","type":"address"}],"stateMutability":"nonpayable","type":"function"},{"inputs":[],"name":"feeRecipient","outputs":[{"internalType":"address","name":"","type":"address"}],"stateMutability":"view","type":"function"},{"inputs":[{"internalType":"address","name":"market","type":"address"}],"name":"getMarketOutcomeTokens","outputs":[{"internalType":"address[]","name":"","type":"address[]"}],"stateMutability":"view","type":"function"},{"inputs":[{"internalType":"address","name":"","type":"address"}],"name":"isMarket","outputs":[{"internalType":"bool","name":"","type":"bool"}],"stateMutability":"view","type":"function"},{"inputs":[{"internalType":"address","name":"market","type":"address"},{"internalType":"address","name":"token","type":"address"}],"name":"isOutcomeTokenForMarket","outputs":[{"internalType":"bool","name":"","type":"bool"}],"stateMutability":"view","type":"function"},{"inputs":[{"internalType":"address","name":"","type":"address"}],"name":"isSupportedCollateral","outputs":[{"internalType":"bool","name":"","type":"bool"}],"stateMutability":"view","type":"function"},{"inputs":[],"name":"marketDeployer","outputs":[{"internalType":"address","name":"","type":"address"}],"stateMutability":"view","type":"function"},{"inputs":[{"internalType":"uint256","name":"","type":"uint256"}],"name":"markets","outputs":[{"internalType":"address","name":"","type":"address"}],"stateMutability":"view","type":"function"},{"inputs":[],"name":"marketsLength","outputs":[{"internalType":"uint256","name":"","type":"uint256"}],"stateMutability":"view","type":"function"},{"inputs":[],"name":"optimisticOracleV2","outputs":[{"internalType":"address","name":"","type":"address"}],"stateMutability":"view","type":"function"},{"inputs":[],"name":"owner","outputs":[{"internalType":"address","name":"","type":"address"}],"stateMutability":"view","type":"function"},{"inputs":[],"name":"pendingOwner","outputs":[{"internalType":"address","name":"","type":"address"}],"stateMutability":"view","type":"function"},{"inputs":[{"internalType":"address","name":"token","type":"address"}],"name":"removeSupportedCollateral","outputs":[],"stateMutability":"nonpayable","type":"function"},{"inputs":[],"name":"renounceOwnership","outputs":[],"stateMutability":"nonpayable","type":"function"},{"inputs":[{"internalType":"address","name":"executor","type":"address"}],"name":"setBatchExecutor","outputs":[],"stateMutability":"nonpayable","type":"function"},{"inputs":[{"internalType":"address","name":"r","type":"address"}],"name":"setFeeRecipient","outputs":[],"stateMutability":"nonpayable","type":"function"},{"inputs":[{"internalType":"address","name":"d","type":"address"}],"name":"setMarketDeployer","outputs":[],"stateMutability":"nonpayable","type":"function"},{"inputs":[{"internalType":"address","name":"oo","type":"address"}],"name":"setOptimisticOracleV2","outputs":[],"stateMutability":"nonpayable","type":"function"},{"inputs":[{"internalType":"address","name":"c","type":"address"}],"name":"setUmaBondCurrency","outputs":[],"stateMutability":"nonpayable","type":"function"},{"inputs":[{"internalType":"address","name":"newOwner","type":"address"}],"name":"transferOwnership","outputs":[],"stateMutability":"nonpayable","type":"function"},{"inputs":[],"name":"umaBondCurrency","outputs":[{"internalType":"address","name":"","type":"address"}],"stateMutability":"view","type":"function"}],"evm":{"bytecode":{"linkReferences":{},"object":"6080346200014b57601f62001d9a38819003918201601f19168301916001600160401b0383118484101762000150578084926080946040528339810103126200014b576200004d8162000166565b6200005b6020830162000166565b91620000786060620000706040840162000166565b920162000166565b6001600160a01b03929091908316801562000132578360018060a01b03199586600154166001556000549280888516176000558260405194167f8be0079c531659141344cd1fd0a4f28419497f9722a3daafe3b4186f6b6457e0600080a316908115801562000127575b6200011857509083918560035416176003551683600454161760045516906005541617600555604051611c1e90816200017c8239f35b63e6c4247b60e01b8152600490fd5b5084841615620000e2565b604051631e4fbdf760e01b815260006004820152602490fd5b600080fd5b634e487b7160e01b600052604160045260246000fd5b51906001600160a01b03821682036200014b5756fe608080604052600436101561001357600080fd5b60003560e01c9081630d2af8d3146114f35750806317dbc538146114b05780631800d79f146114325780631d555306146113ef5780631f470b2d1461135757806339f4c4da146113185780634682be61146112af578063469048401461128657806351e84b8414610c97578063536db2e614610c175780635e6607ff14610bee5780636ec934da14610baf578063715018a614610b4a57806379ba509714610ac15780638da5cb5b14610a985780639b307dc214610a2f578063a540254414610a11578063b1283e77146109b6578063b2d35b7a1461094f578063b6fdfc121461029d578063bb1e453114610274578063e30c39781461024b578063e74b981b146101d0578063ed460e56146101a75763f2fde38b1461013257600080fd5b346101a25760203660031901126101a25761014b611517565b61015361165b565b60018060a01b0380911690816bffffffffffffffffffffffff60a01b6001541617600155600054167f38d16b8cac22d99fc7c124b9cd0de2d3fa1faef420bfe791d8c362d765e22700600080a3005b600080fd5b346101a25760003660031901126101a2576005546040516001600160a01b039091168152602090f35b346101a25760203660031901126101a2576101e9611517565b6101f161165b565b6001600160a01b0316801561023957600380546001600160a01b031916821790557f7a7b5a0a132f9e0581eb8527f66eae9ee89c2a3e79d4ac7e41a1f1f4d48a7fc2600080a2005b60405163e6c4247b60e01b8152600490fd5b346101a25760003660031901126101a2576001546040516001600160a01b039091168152602090f35b346101a25760003660031901126101a2576007546040516001600160a01b039091168152602090f35b346101a2576003196020368201126101a2576001600160401b03600435116101a25761020090600435360301126101a2576000546001600160a01b0316338114158061093a575b6109285761030d6102f960043560040161166f565b610307602460043501611683565b90611973565b906001600160a01b03610323600480350161166f565b16600052600260205260ff6040600020541615610916576001600160a01b0361034f600480350161166f565b161580610908575b61087957600261037160c460043501600435600401611691565b90501080156108e9575b6108d7576001600160a01b036103966004356101040161166f565b16156108c557610184600435013515610879574260646004350135118015906108af575b61089d5760a460043501351561088b576103df6101a460043501600435600401611691565b159050610827576103fb6101a460043501600435600401611691565b905061041160c460043501600435600401611691565b919050148015906107f1575b6107df575b6007546001600160a01b031680156107cd576003546001600160a01b03169061044e600480350161166f565b9061046360c460043501600435600401611691565b9390506104756101046004350161166f565b936003610144600435013510156101a25760ff9561057c6000969287936104a660c460043501600435600401611691565b9a9092816040519d8e9b8c9a8b9963624a59d360e11b8b5260048b015260248a015260018060a01b031660448901521660648701521660848501526044600435013560a48501526064600435013560c48501526084600435013560e485015260a4600435013561010485015260018060a01b031661012484015261012460043501356101448401526101446004350135610164840152610164600435013561018484015261018460043501356101a48401526101c4986101e460043501358a8501526102006101e485015261020484019161180d565b03925af19081156107c15760009260009261078c575b506105f261060c610614926105b160e4600435016004356004016116c6565b610604604094929451936105c48561161f565b600085526105fc6105e06101a460043501600435600401611691565b98909260043501600435600401611691565b97909436916116f8565b963691611925565b933691611925565b928587611a12565b61062260043560040161166f565b9061064161063a60c460043501600435600401611691565b36916118a6565b61064a84611b49565b6001600160a01b0384166000908152600960205260408120805460ff191660011790555b82518110156106b1576001600160a01b038581166000908152600a60205260409020600192916106ab91906106a3848861198a565b511690611bad565b0161066e565b5092916106c96040519260a0845260a084019061152d565b8281036020840152845180825260208201916020808360051b8301019701926000915b83831061075f57600435606481013560408901526084810135606089015260a4013560808801526020886001600160a01b038089169060009083167fb679f8bb353ccc2331bbeb116d31f96fe2836f68dd9cb37d0749ea0b26be22d68c8f038da46040516001600160a01b039091168152f35b909192939760208061077d600193601f198682030187528c516119d2565b9a0193019301919392906106ec565b61060c93506106149192506107b66105f2913d806000833e6107ae818361163a565b81019061177d565b909450929150610592565b6040513d6000823e3d90fd5b60405163043c669f60e01b8152600490fd5b60405163b2d4eceb60e01b8152600490fd5b506108076101c460043501600435600401611691565b905061081d60c460043501600435600401611691565b919050141561041d565b600261083d60c460043501600435600401611691565b9050036107df576003610144600435013510156101a2576002610144600435013503610422576101646004350135610124600435013510610422575b6040516306b7c75960e31b8152600490fd5b6040516308bb27af60e41b8152600490fd5b6040516337bf561360e11b8152600490fd5b50606460043501356084600435013511156103ba565b6040516301f86e1760e41b8152600490fd5b6040516367d635e160e01b8152600490fd5b50602061090060c460043501600435600401611691565b90501161037b565b50601260ff83161415610357565b6040516368f7a67560e11b8152600490fd5b6040516393687c0b60e01b8152600490fd5b506006546001600160a01b03163314156102e4565b346101a25760203660031901126101a257610968611517565b61097061165b565b600480546001600160a01b0319166001600160a01b039290921691821790557f6be240c3ce51532bc6f7066bd1c5c51947cc8e3e01fa03397d6ab44cfa7d198a600080a2005b346101a25760203660031901126101a2576004356008548110156101a25760086000527ff3f7a9fe364faab93b216da50a3214154f22a0a2b415b23a84c8169e8b636ee301546040516001600160a01b039091168152602090f35b346101a25760003660031901126101a2576020600854604051908152f35b346101a25760203660031901126101a257610a48611517565b610a5061165b565b6001600160a01b0316801561023957600780546001600160a01b031916821790557f605f04a31cf07d957f1c52208519e1cd6da20eb11dc98e67fc3eff63fe3933fc600080a2005b346101a25760003660031901126101a2576000546040516001600160a01b039091168152602090f35b346101a25760003660031901126101a2576001546001600160a01b033381831603610b32576bffffffffffffffffffffffff60a01b8092166001556000549133908316176000553391167f8be0079c531659141344cd1fd0a4f28419497f9722a3daafe3b4186f6b6457e0600080a3005b60405163118cdaa760e01b8152336004820152602490fd5b346101a25760003660031901126101a257610b6361165b565b600180546001600160a01b0319908116909155600080549182168155906001600160a01b03167f8be0079c531659141344cd1fd0a4f28419497f9722a3daafe3b4186f6b6457e08280a3005b346101a25760203660031901126101a2576001600160a01b03610bd0611517565b166000526009602052602060ff604060002054166040519015158152f35b346101a25760003660031901126101a2576006546040516001600160a01b039091168152602090f35b346101a25760203660031901126101a257610c30611517565b610c3861165b565b6001600160a01b031660008181526002602052604090205460ff16610879578060005260026020526040600020600160ff198254161790557fbd8a8e5a223a7347dab9de83a90a67c6bb291a7ac7487fba3886f5ed162d1da5600080a2005b346101a257602060031981813601126101a2576001600160401b03600435116101a2576101e090600435360301126101a2576000546001600160a01b03163381141580611271575b61092857610cf46102f960043560040161166f565b906001600160a01b03610d0a600480350161166f565b166000526002835260ff6040600020541615610916576001600160a01b03610d35600480350161166f565b161580611263575b610879576002610d5760c460043501600435600401611691565b9050108015611245575b6108d757610d84610d7d610104600435016004356004016116c6565b36916116f8565b9182518015908115611239575b50610879576001600160401b03610dad6101446004350161173e565b16156108795761012460043501359081156111df575b6e5945535f4f525f4e4f5f515545525960881b8214806111bf575b610879576004546001600160a01b0316928315610879576004356101a4016001600160a01b03610e0d8261166f565b16156111ac57610e1c9061166f565b915b6001600160a01b0383161561087957426064600435013511801590611196575b61089d5760a460043501351561088b576007546001600160a01b03169384156107cd576003546001600160a01b031693610e7b600480350161166f565b96610e8e6004803560c481019101611691565b939050610ea06101446004350161173e565b91610eb36004803560c481019101611691565b9590966040519b8c9a8b9a6353a4e6d760e01b8c5260048c015260248b0152600160a01b600190031660448a015260ff16606489015260ff1660848801526004356044013560a48801526004356064013560c48801526004356084013560e488015260043560a401356101048801526101248701526101448601526001600160401b0316610164850152600435610164013561018485015260043561018401356101a4850152600160a01b60019003166101c48401526004356101c401356101e484015261020483016102209052610224830190610f909261180d565b03815a6000948591f19182156107c157600091600093611173575b50610ff890610fc460e4600435016004356004016116c6565b91610ff160405192610fd58461161f565b6000845260405194610fe68661161f565b6000865236916116f8565b8686611a12565b61100660043560040161166f565b61101d61063a60c460043501600435600401611691565b9161102781611b49565b60018060a01b031692839182600052600986526040600020600190600160ff19825416179055806000905b61112b575b5061106d6040519360a0855260a085019061152d565b908382038885015285518083528883019289808360051b8301019801936000915b8b8484106110f657898b6001827fb679f8bb353ccc2331bbeb116d31f96fe2836f68dd9cb37d0749ea0b26be22d68d808e60646004350135604083015260846004350135606083015260a460043501356080830152858060a01b0316950390a4604051908152f35b8597989950611116819294969395979b601f198682030187528c516119d2565b9a01930193019092899796959394929461108e565b83829394955051811015611169576000878152600a89526040902082919061115f906001600160a01b036106a3848a61198a565b0186949392611052565b8694939250611057565b61118e919350610ff892503d806000833e6107ae818361163a565b929091610fab565b5060646004350135608460043501351115610e3e565b506005546001600160a01b031691610e1e565b5060026111d660c460043501600435600401611691565b90501415610dde565b905060026111f760c460043501600435600401611691565b90501460001461121b576e5945535f4f525f4e4f5f515545525960881b5b90610dc3565b744d554c5449504c455f43484f4943455f515545525960581b611215565b61200091501185610d91565b508261125b60c460043501600435600401611691565b905011610d61565b50601260ff83161415610d3d565b506006546001600160a01b0316331415610cdf565b346101a25760003660031901126101a2576003546040516001600160a01b039091168152602090f35b346101a25760203660031901126101a2576112c8611517565b6112d061165b565b6001600160a01b0316801561023957600580546001600160a01b031916821790557f523e520d3e5099d5b5ef94a4279b3b62d1f69afa84ab6d0ae03287a7a67c68f2600080a2005b346101a25760203660031901126101a2576001600160a01b03611339611517565b166000526002602052602060ff604060002054166040519015158152f35b346101a2576020806003193601126101a2576001600160a01b03908161137b611517565b16600052600a81526040600020916040518093849184825491828152019160005284600020936000905b868383106113d35785906113bb8287038361163a565b6113cf60405192828493845283019061152d565b0390f35b86548216855260019687019689965094019391909101906113a5565b346101a25760203660031901126101a257611408611517565b61141061165b565b600680546001600160a01b0319166001600160a01b0392909216919091179055005b346101a25760203660031901126101a25761144b611517565b61145361165b565b6001600160a01b031660008181526002602052604090205460ff161561087957806000526002602052604060002060ff1981541690557f0ffbe34cfa1831023fd1e8602fc452dfa0e07b531dd9197a3fac11258aa17e75600080a2005b346101a25760403660031901126101a2576114c9611517565b602435906001600160a01b03821682036101a2576020916114e991611598565b6040519015158152f35b346101a25760003660031901126101a2576004546001600160a01b03168152602090f35b600435906001600160a01b03821682036101a257565b90815180825260208080930193019160005b82811061154d575050505090565b83516001600160a01b03168552938101939281019260010161153f565b80548210156115825760005260206000200190600090565b634e487b7160e01b600052603260045260246000fd5b6001600160a01b039081166000908152600a6020526040812080549390915b8481106115c8575050505050600090565b836115d3828561156a565b9190548185169260031b1c16146115ec576001016115b7565b5050505050600190565b6001600160401b03811161160957604052565b634e487b7160e01b600052604160045260246000fd5b602081019081106001600160401b0382111761160957604052565b90601f801991011681019081106001600160401b0382111761160957604052565b6000546001600160a01b03163303610b3257565b356001600160a01b03811681036101a25790565b3560ff811681036101a25790565b903590601e19813603018212156101a257018035906001600160401b0382116101a257602001918160051b360383136101a257565b903590601e19813603018212156101a257018035906001600160401b0382116101a2576020019181360383136101a257565b9291926001600160401b0382116116095760405191611721601f8201601f19166020018461163a565b8294818452818301116101a2578281602093846000960137010152565b356001600160401b03811681036101a25790565b51906001600160a01b03821682036101a257565b6001600160401b0381116116095760051b60200190565b91906040838203126101a25761179283611752565b9260209081810151906001600160401b0382116101a257019180601f840112156101a25782516117c181611766565b936117cf604051958661163a565b818552838086019260051b8201019283116101a2578301905b8282106117f6575050505090565b83809161180284611752565b8152019101906117e8565b8183526020600583901b84018101939192906000818401855b848310611837575050505050505090565b90919293949596601f19808883030184528835601e19843603018112156101a257830186810190356001600160401b0381116101a25780360382136101a257838893601f83808796879660019a5286860137600085828601015201160101990193019301919594939290611826565b929190926118b384611766565b916118c1604051938461163a565b829480845260208094019060051b8301928284116101a25780915b8483106118eb57505050505050565b82356001600160401b0381116101a257820184601f820112156101a257869161191a86838580953591016116f8565b8152019201916118dc565b929161193082611766565b9161193e604051938461163a565b829481845260208094019160051b81019283116101a257905b8282106119645750505050565b81358152908301908301611957565b6001600160a01b0316156119845790565b50601290565b80518210156115825760209160051b010190565b90815180825260208080930193019160005b8281106119be575050505090565b8351855293810193928101926001016119b0565b919082519283825260005b8481106119fe575050826000602080949584010152601f8019910116010190565b6020818301810151848301820152016119dd565b9592949190939460005b8551811015611a96576001600160a01b0380611a38838961198a565b511690813b156101a257600060409160248c838551968794859363f2fde38b60e01b85521660048401525af1908115611a8c57509060019291611a7d575b5001611a1c565b611a86906115f6565b38611a76565b513d6000823e3d90fd5b509295919490926001600160a01b0390921691823b156101a257600094611b2d611aeb938793611b1e611afe98611b0e6040519c8d9b8c9a8b9963cc3e02ff60e01b8b5260a060048c015260a48b019061152d565b60031997888b83030160248c015261199e565b90868983030160448a015261199e565b90848783030160648801526119d2565b918483030160848501526119d2565b03925af180156107c157611b3e5750565b611b47906115f6565b565b600854600160401b8110156116095760018101806008558110156115825760086000527ff3f7a9fe364faab93b216da50a3214154f22a0a2b415b23a84c8169e8b636ee30180546001600160a01b0319166001600160a01b03909216919091179055565b8054600160401b81101561160957611bca9160018201815561156a565b60018060a09493941b038084549260031b9316831b921b191617905556fea2646970667358221220aa94ae89e586f6e1fd29c4294c3883aef6dbf6a3d6cf08d3d410cb8705d55f2464736f6c63430008180033","opcodes":"PUSH1 0x80 CALLVALUE PUSH3 0x14B JUMPI PUSH1 0x1F PUSH3 0x1D9A CODESIZE DUP2 SWAP1 SUB SWAP2 DUP3 ADD PUSH1 0x1F NOT AND DUP4 ADD SWAP2 PUSH1 0x1 PUSH1 0x1 PUSH1 0x40 SHL SUB DUP4 GT DUP5 DUP5 LT OR PUSH3 0x150 JUMPI DUP1 DUP5 SWAP3 PUSH1 0x80 SWAP5 PUSH1 0x40 MSTORE DUP4 CODECOPY DUP2 ADD SUB SLT PUSH3 0x14B JUMPI PUSH3 0x4D DUP2 PUSH3 0x166 JUMP JUMPDEST PUSH3 0x5B PUSH1 0x20 DUP4 ADD PUSH3 0x166 JUMP JUMPDEST SWAP2 PUSH3 0x78 PUSH1 0x60 PUSH3 0x70 PUSH1 0x40 DUP5 ADD PUSH3 0x166 JUMP JUMPDEST SWAP3 ADD PUSH3 0x166 JUMP JUMPDEST PUSH1 0x1 PUSH1 0x1 PUSH1 0xA0 SHL SUB SWAP3 SWAP1 SWAP2 SWAP1 DUP4 AND DUP1 ISZERO PUSH3 0x132 JUMPI DUP4 PUSH1 0x1 DUP1 PUSH1 0xA0 SHL SUB NOT SWAP6 DUP7 PUSH1 0x1 SLOAD AND PUSH1 0x1 SSTORE PUSH1 0x0 SLOAD SWAP3 DUP1 DUP9 DUP6 AND OR PUSH1 0x0 SSTORE DUP3 PUSH1 0x40 MLOAD SWAP5 AND PUSH32 0x8BE0079C531659141344CD1FD0A4F28419497F9722A3DAAFE3B4186F6B6457E0 PUSH1 0x0 DUP1 LOG3 AND SWAP1 DUP2 ISZERO DUP1 ISZERO PUSH3 0x127 JUMPI JUMPDEST PUSH3 0x118 JUMPI POP SWAP1 DUP4 SWAP2 DUP6 PUSH1 0x3 SLOAD AND OR PUSH1 0x3 SSTORE AND DUP4 PUSH1 0x4 SLOAD AND OR PUSH1 0x4 SSTORE AND SWAP1 PUSH1 0x5 SLOAD AND OR PUSH1 0x5 SSTORE PUSH1 0x40 MLOAD PUSH2 0x1C1E SWAP1 DUP2 PUSH3 0x17C DUP3 CODECOPY RETURN JUMPDEST PUSH4 0xE6C4247B PUSH1 0xE0 SHL DUP2 MSTORE PUSH1 0x4 SWAP1 REVERT JUMPDEST POP DUP5 DUP5 AND ISZERO PUSH3 0xE2 JUMP JUMPDEST PUSH1 0x40 MLOAD PUSH4 0x1E4FBDF7 PUSH1 0xE0 SHL DUP2 MSTORE PUSH1 0x0 PUSH1 0x4 DUP3 ADD MSTORE PUSH1 0x24 SWAP1 REVERT JUMPDEST PUSH1 0x0 DUP1 REVERT JUMPDEST PUSH4 0x4E487B71 PUSH1 0xE0 SHL PUSH1 0x0 MSTORE PUSH1 0x41 PUSH1 0x4 MSTORE PUSH1 0x24 PUSH1 0x0 REVERT JUMPDEST MLOAD SWAP1 PUSH1 0x1 PUSH1 0x1 PUSH1 0xA0 SHL SUB DUP3 AND DUP3 SUB PUSH3 0x14B JUMPI JUMP INVALID PUSH1 0x80 DUP1 PUSH1 0x40 MSTORE PUSH1 0x4 CALLDATASIZE LT ISZERO PUSH2 0x13 JUMPI PUSH1 0x0 DUP1 REVERT JUMPDEST PUSH1 0x0 CALLDATALOAD PUSH1 0xE0 SHR SWAP1 DUP2 PUSH4 0xD2AF8D3 EQ PUSH2 0x14F3 JUMPI POP DUP1 PUSH4 0x17DBC538 EQ PUSH2 0x14B0 JUMPI DUP1 PUSH4 0x1800D79F EQ PUSH2 0x1432 JUMPI DUP1 PUSH4 0x1D555306 EQ PUSH2 0x13EF JUMPI DUP1 PUSH4 0x1F470B2D EQ PUSH2 0x1357 JUMPI DUP1 PUSH4 0x39F4C4DA EQ PUSH2 0x1318 JUMPI DUP1 PUSH4 0x4682BE61 EQ PUSH2 0x12AF JUMPI DUP1 PUSH4 0x46904840 EQ PUSH2 0x1286 JUMPI DUP1 PUSH4 0x51E84B84 EQ PUSH2 0xC97 JUMPI DUP1 PUSH4 0x536DB2E6 EQ PUSH2 0xC17 JUMPI DUP1 PUSH4 0x5E6607FF EQ PUSH2 0xBEE JUMPI DUP1 PUSH4 0x6EC934DA EQ PUSH2 0xBAF JUMPI DUP1 PUSH4 0x715018A6 EQ PUSH2 0xB4A JUMPI DUP1 PUSH4 0x79BA5097 EQ PUSH2 0xAC1 JUMPI DUP1 PUSH4 0x8DA5CB5B EQ PUSH2 0xA98 JUMPI DUP1 PUSH4 0x9B307DC2 EQ PUSH2 0xA2F JUMPI DUP1 PUSH4 0xA5402544 EQ PUSH2 0xA11 JUMPI DUP1 PUSH4 0xB1283E77 EQ PUSH2 0x9B6 JUMPI DUP1 PUSH4 0xB2D35B7A EQ PUSH2 0x94F JUMPI DUP1 PUSH4 0xB6FDFC12 EQ PUSH2 0x29D JUMPI DUP1 PUSH4 0xBB1E4531 EQ PUSH2 0x274 JUMPI DUP1 PUSH4 0xE30C3978 EQ PUSH2 0x24B JUMPI DUP1 PUSH4 0xE74B981B EQ PUSH2 0x1D0 JUMPI DUP1 PUSH4 0xED460E56 EQ PUSH2 0x1A7 JUMPI PUSH4 0xF2FDE38B EQ PUSH2 0x132 JUMPI PUSH1 0x0 DUP1 REVERT JUMPDEST CALLVALUE PUSH2 0x1A2 JUMPI PUSH1 0x20 CALLDATASIZE PUSH1 0x3 NOT ADD SLT PUSH2 0x1A2 JUMPI PUSH2 0x14B PUSH2 0x1517 JUMP JUMPDEST PUSH2 0x153 PUSH2 0x165B JUMP JUMPDEST PUSH1 0x1 DUP1 PUSH1 0xA0 SHL SUB DUP1 SWAP2 AND SWAP1 DUP2 PUSH12 0xFFFFFFFFFFFFFFFFFFFFFFFF PUSH1 0xA0 SHL PUSH1 0x1 SLOAD AND OR PUSH1 0x1 SSTORE PUSH1 0x0 SLOAD AND PUSH32 0x38D16B8CAC22D99FC7C124B9CD0DE2D3FA1FAEF420BFE791D8C362D765E22700 PUSH1 0x0 DUP1 LOG3 STOP JUMPDEST PUSH1 0x0 DUP1 REVERT JUMPDEST CALLVALUE PUSH2 0x1A2 JUMPI PUSH1 0x0 CALLDATASIZE PUSH1 0x3 NOT ADD SLT PUSH2 0x1A2 JUMPI PUSH1 0x5 SLOAD PUSH1 0x40 MLOAD PUSH1 0x1 PUSH1 0x1 PUSH1 0xA0 SHL SUB SWAP1 SWAP2 AND DUP2 MSTORE PUSH1 0x20 SWAP1 RETURN JUMPDEST CALLVALUE PUSH2 0x1A2 JUMPI PUSH1 0x20 CALLDATASIZE PUSH1 0x3 NOT ADD SLT PUSH2 0x1A2 JUMPI PUSH2 0x1E9 PUSH2 0x1517 JUMP JUMPDEST PUSH2 0x1F1 PUSH2 0x165B JUMP JUMPDEST PUSH1 0x1 PUSH1 0x1 PUSH1 0xA0 SHL SUB AND DUP1 ISZERO PUSH2 0x239 JUMPI PUSH1 0x3 DUP1 SLOAD PUSH1 0x1 PUSH1 0x1 PUSH1 0xA0 SHL SUB NOT AND DUP3 OR SWAP1 SSTORE PUSH32 0x7A7B5A0A132F9E0581EB8527F66EAE9EE89C2A3E79D4AC7E41A1F1F4D48A7FC2 PUSH1 0x0 DUP1 LOG2 STOP JUMPDEST PUSH1 0x40 MLOAD PUSH4 0xE6C4247B PUSH1 0xE0 SHL DUP2 MSTORE PUSH1 0x4 SWAP1 REVERT JUMPDEST CALLVALUE PUSH2 0x1A2 JUMPI PUSH1 0x0 CALLDATASIZE PUSH1 0x3 NOT ADD SLT PUSH2 0x1A2 JUMPI PUSH1 0x1 SLOAD PUSH1 0x40 MLOAD PUSH1 0x1 PUSH1 0x1 PUSH1 0xA0 SHL SUB SWAP1 SWAP2 AND DUP2 MSTORE PUSH1 0x20 SWAP1 RETURN JUMPDEST CALLVALUE PUSH2 0x1A2 JUMPI PUSH1 0x0 CALLDATASIZE PUSH1 0x3 NOT ADD SLT PUSH2 0x1A2 JUMPI PUSH1 0x7 SLOAD PUSH1 0x40 MLOAD PUSH1 0x1 PUSH1 0x1 PUSH1 0xA0 SHL SUB SWAP1 SWAP2 AND DUP2 MSTORE PUSH1 0x20 SWAP1 RETURN JUMPDEST CALLVALUE PUSH2 0x1A2 JUMPI PUSH1 0x3 NOT PUSH1 0x20 CALLDATASIZE DUP3 ADD SLT PUSH2 0x1A2 JUMPI PUSH1 0x1 PUSH1 0x1 PUSH1 0x40 SHL SUB PUSH1 0x4 CALLDATALOAD GT PUSH2 0x1A2 JUMPI PUSH2 0x200 SWAP1 PUSH1 0x4 CALLDATALOAD CALLDATASIZE SUB ADD SLT PUSH2 0x1A2 JUMPI PUSH1 0x0 SLOAD PUSH1 0x1 PUSH1 0x1 PUSH1 0xA0 SHL SUB AND CALLER DUP2 EQ ISZERO DUP1 PUSH2 0x93A JUMPI JUMPDEST PUSH2 0x928 JUMPI PUSH2 0x30D PUSH2 0x2F9 PUSH1 0x4 CALLDATALOAD PUSH1 0x4 ADD PUSH2 0x166F JUMP JUMPDEST PUSH2 0x307 PUSH1 0x24 PUSH1 0x4 CALLDATALOAD ADD PUSH2 0x1683 JUMP JUMPDEST SWAP1 PUSH2 0x1973 JUMP JUMPDEST SWAP1 PUSH1 0x1 PUSH1 0x1 PUSH1 0xA0 SHL SUB PUSH2 0x323 PUSH1 0x4 DUP1 CALLDATALOAD ADD PUSH2 0x166F JUMP JUMPDEST AND PUSH1 0x0 MSTORE PUSH1 0x2 PUSH1 0x20 MSTORE PUSH1 0xFF PUSH1 0x40 PUSH1 0x0 KECCAK256 SLOAD AND ISZERO PUSH2 0x916 JUMPI PUSH1 0x1 PUSH1 0x1 PUSH1 0xA0 SHL SUB PUSH2 0x34F PUSH1 0x4 DUP1 CALLDATALOAD ADD PUSH2 0x166F JUMP JUMPDEST AND ISZERO DUP1 PUSH2 0x908 JUMPI JUMPDEST PUSH2 0x879 JUMPI PUSH1 0x2 PUSH2 0x371 PUSH1 0xC4 PUSH1 0x4 CALLDATALOAD ADD PUSH1 0x4 CALLDATALOAD PUSH1 0x4 ADD PUSH2 0x1691 JUMP JUMPDEST SWAP1 POP LT DUP1 ISZERO PUSH2 0x8E9 JUMPI JUMPDEST PUSH2 0x8D7 JUMPI PUSH1 0x1 PUSH1 0x1 PUSH1 0xA0 SHL SUB PUSH2 0x396 PUSH1 0x4 CALLDATALOAD PUSH2 0x104 ADD PUSH2 0x166F JUMP JUMPDEST AND ISZERO PUSH2 0x8C5 JUMPI PUSH2 0x184 PUSH1 0x4 CALLDATALOAD ADD CALLDATALOAD ISZERO PUSH2 0x879 JUMPI TIMESTAMP PUSH1 0x64 PUSH1 0x4 CALLDATALOAD ADD CALLDATALOAD GT DUP1 ISZERO SWAP1 PUSH2 0x8AF JUMPI JUMPDEST PUSH2 0x89D JUMPI PUSH1 0xA4 PUSH1 0x4 CALLDATALOAD ADD CALLDATALOAD ISZERO PUSH2 0x88B JUMPI PUSH2 0x3DF PUSH2 0x1A4 PUSH1 0x4 CALLDATALOAD ADD PUSH1 0x4 CALLDATALOAD PUSH1 0x4 ADD PUSH2 0x1691 JUMP JUMPDEST ISZERO SWAP1 POP PUSH2 0x827 JUMPI PUSH2 0x3FB PUSH2 0x1A4 PUSH1 0x4 CALLDATALOAD ADD PUSH1 0x4 CALLDATALOAD PUSH1 0x4 ADD PUSH2 0x1691 JUMP JUMPDEST SWAP1 POP PUSH2 0x411 PUSH1 0xC4 PUSH1 0x4 CALLDATALOAD ADD PUSH1 0x4 CALLDATALOAD PUSH1 0x4 ADD PUSH2 0x1691 JUMP JUMPDEST SWAP2 SWAP1 POP EQ DUP1 ISZERO SWAP1 PUSH2 0x7F1 JUMPI JUMPDEST PUSH2 0x7DF JUMPI JUMPDEST PUSH1 0x7 SLOAD PUSH1 0x1 PUSH1 0x1 PUSH1 0xA0 SHL SUB AND DUP1 ISZERO PUSH2 0x7CD JUMPI PUSH1 0x3 SLOAD PUSH1 0x1 PUSH1 0x1 PUSH1 0xA0 SHL SUB AND SWAP1 PUSH2 0x44E PUSH1 0x4 DUP1 CALLDATALOAD ADD PUSH2 0x166F JUMP JUMPDEST SWAP1 PUSH2 0x463 PUSH1 0xC4 PUSH1 0x4 CALLDATALOAD ADD PUSH1 0x4 CALLDATALOAD PUSH1 0x4 ADD PUSH2 0x1691 JUMP JUMPDEST SWAP4 SWAP1 POP PUSH2 0x475 PUSH2 0x104 PUSH1 0x4 CALLDATALOAD ADD PUSH2 0x166F JUMP JUMPDEST SWAP4 PUSH1 0x3 PUSH2 0x144 PUSH1 0x4 CALLDATALOAD ADD CALLDATALOAD LT ISZERO PUSH2 0x1A2 JUMPI PUSH1 0xFF SWAP6 PUSH2 0x57C PUSH1 0x0 SWAP7 SWAP3 DUP8 SWAP4 PUSH2 0x4A6 PUSH1 0xC4 PUSH1 0x4 CALLDATALOAD ADD PUSH1 0x4 CALLDATALOAD PUSH1 0x4 ADD PUSH2 0x1691 JUMP JUMPDEST SWAP11 SWAP1 SWAP3 DUP2 PUSH1 0x40 MLOAD SWAP14 DUP15 SWAP12 DUP13 SWAP11 DUP12 SWAP10 PUSH4 0x624A59D3 PUSH1 0xE1 SHL DUP12 MSTORE PUSH1 0x4 DUP12 ADD MSTORE PUSH1 0x24 DUP11 ADD MSTORE PUSH1 0x1 DUP1 PUSH1 0xA0 SHL SUB AND PUSH1 0x44 DUP10 ADD MSTORE AND PUSH1 0x64 DUP8 ADD MSTORE AND PUSH1 0x84 DUP6 ADD MSTORE PUSH1 0x44 PUSH1 0x4 CALLDATALOAD ADD CALLDATALOAD PUSH1 0xA4 DUP6 ADD MSTORE PUSH1 0x64 PUSH1 0x4 CALLDATALOAD ADD CALLDATALOAD PUSH1 0xC4 DUP6 ADD MSTORE PUSH1 0x84 PUSH1 0x4 CALLDATALOAD ADD CALLDATALOAD PUSH1 0xE4 DUP6 ADD MSTORE PUSH1 0xA4 PUSH1 0x4 CALLDATALOAD ADD CALLDATALOAD PUSH2 0x104 DUP6 ADD MSTORE PUSH1 0x1 DUP1 PUSH1 0xA0 SHL SUB AND PUSH2 0x124 DUP5 ADD MSTORE PUSH2 0x124 PUSH1 0x4 CALLDATALOAD ADD CALLDATALOAD PUSH2 0x144 DUP5 ADD MSTORE PUSH2 0x144 PUSH1 0x4 CALLDATALOAD ADD CALLDATALOAD PUSH2 0x164 DUP5 ADD MSTORE PUSH2 0x164 PUSH1 0x4 CALLDATALOAD ADD CALLDATALOAD PUSH2 0x184 DUP5 ADD MSTORE PUSH2 0x184 PUSH1 0x4 CALLDATALOAD ADD CALLDATALOAD PUSH2 0x1A4 DUP5 ADD MSTORE PUSH2 0x1C4 SWAP9 PUSH2 0x1E4 PUSH1 0x4 CALLDATALOAD ADD CALLDATALOAD DUP11 DUP6 ADD MSTORE PUSH2 0x200 PUSH2 0x1E4 DUP6 ADD MSTORE PUSH2 0x204 DUP5 ADD SWAP2 PUSH2 0x180D JUMP JUMPDEST SUB SWAP3 GAS CALL SWAP1 DUP2 ISZERO PUSH2 0x7C1 JUMPI PUSH1 0x0 SWAP3 PUSH1 0x0 SWAP3 PUSH2 0x78C JUMPI JUMPDEST POP PUSH2 0x5F2 PUSH2 0x60C PUSH2 0x614 SWAP3 PUSH2 0x5B1 PUSH1 0xE4 PUSH1 0x4 CALLDATALOAD ADD PUSH1 0x4 CALLDATALOAD PUSH1 0x4 ADD PUSH2 0x16C6 JUMP JUMPDEST PUSH2 0x604 PUSH1 0x40 SWAP5 SWAP3 SWAP5 MLOAD SWAP4 PUSH2 0x5C4 DUP6 PUSH2 0x161F JUMP JUMPDEST PUSH1 0x0 DUP6 MSTORE PUSH2 0x5FC PUSH2 0x5E0 PUSH2 0x1A4 PUSH1 0x4 CALLDATALOAD ADD PUSH1 0x4 CALLDATALOAD PUSH1 0x4 ADD PUSH2 0x1691 JUMP JUMPDEST SWAP9 SWAP1 SWAP3 PUSH1 0x4 CALLDATALOAD ADD PUSH1 0x4 CALLDATALOAD PUSH1 0x4 ADD PUSH2 0x1691 JUMP JUMPDEST SWAP8 SWAP1 SWAP5 CALLDATASIZE SWAP2 PUSH2 0x16F8 JUMP JUMPDEST SWAP7 CALLDATASIZE SWAP2 PUSH2 0x1925 JUMP JUMPDEST SWAP4 CALLDATASIZE SWAP2 PUSH2 0x1925 JUMP JUMPDEST SWAP3 DUP6 DUP8 PUSH2 0x1A12 JUMP JUMPDEST PUSH2 0x622 PUSH1 0x4 CALLDATALOAD PUSH1 0x4 ADD PUSH2 0x166F JUMP JUMPDEST SWAP1 PUSH2 0x641 PUSH2 0x63A PUSH1 0xC4 PUSH1 0x4 CALLDATALOAD ADD PUSH1 0x4 CALLDATALOAD PUSH1 0x4 ADD PUSH2 0x1691 JUMP JUMPDEST CALLDATASIZE SWAP2 PUSH2 0x18A6 JUMP JUMPDEST PUSH2 0x64A DUP5 PUSH2 0x1B49 JUMP JUMPDEST PUSH1 0x1 PUSH1 0x1 PUSH1 0xA0 SHL SUB DUP5 AND PUSH1 0x0 SWAP1 DUP2 MSTORE PUSH1 0x9 PUSH1 0x20 MSTORE PUSH1 0x40 DUP2 KECCAK256 DUP1 SLOAD PUSH1 0xFF NOT AND PUSH1 0x1 OR SWAP1 SSTORE JUMPDEST DUP3 MLOAD DUP2 LT ISZERO PUSH2 0x6B1 JUMPI PUSH1 0x1 PUSH1 0x1 PUSH1 0xA0 SHL SUB DUP6 DUP2 AND PUSH1 0x0 SWAP1 DUP2 MSTORE PUSH1 0xA PUSH1 0x20 MSTORE PUSH1 0x40 SWAP1 KECCAK256 PUSH1 0x1 SWAP3 SWAP2 PUSH2 0x6AB SWAP2 SWAP1 PUSH2 0x6A3 DUP5 DUP9 PUSH2 0x198A JUMP JUMPDEST MLOAD AND SWAP1 PUSH2 0x1BAD JUMP JUMPDEST ADD PUSH2 0x66E JUMP JUMPDEST POP SWAP3 SWAP2 PUSH2 0x6C9 PUSH1 0x40 MLOAD SWAP3 PUSH1 0xA0 DUP5 MSTORE PUSH1 0xA0 DUP5 ADD SWAP1 PUSH2 0x152D JUMP JUMPDEST DUP3 DUP2 SUB PUSH1 0x20 DUP5 ADD MSTORE DUP5 MLOAD DUP1 DUP3 MSTORE PUSH1 0x20 DUP3 ADD SWAP2 PUSH1 0x20 DUP1 DUP4 PUSH1 0x5 SHL DUP4 ADD ADD SWAP8 ADD SWAP3 PUSH1 0x0 SWAP2 JUMPDEST DUP4 DUP4 LT PUSH2 0x75F JUMPI PUSH1 0x4 CALLDATALOAD PUSH1 0x64 DUP2 ADD CALLDATALOAD PUSH1 0x40 DUP10 ADD MSTORE PUSH1 0x84 DUP2 ADD CALLDATALOAD PUSH1 0x60 DUP10 ADD MSTORE PUSH1 0xA4 ADD CALLDATALOAD PUSH1 0x80 DUP9 ADD MSTORE PUSH1 0x20 DUP9 PUSH1 0x1 PUSH1 0x1 PUSH1 0xA0 SHL SUB DUP1 DUP10 AND SWAP1 PUSH1 0x0 SWAP1 DUP4 AND PUSH32 0xB679F8BB353CCC2331BBEB116D31F96FE2836F68DD9CB37D0749EA0B26BE22D6 DUP13 DUP16 SUB DUP14 LOG4 PUSH1 0x40 MLOAD PUSH1 0x1 PUSH1 0x1 PUSH1 0xA0 SHL SUB SWAP1 SWAP2 AND DUP2 MSTORE RETURN JUMPDEST SWAP1 SWAP2 SWAP3 SWAP4 SWAP8 PUSH1 0x20 DUP1 PUSH2 0x77D PUSH1 0x1 SWAP4 PUSH1 0x1F NOT DUP7 DUP3 SUB ADD DUP8 MSTORE DUP13 MLOAD PUSH2 0x19D2 JUMP JUMPDEST SWAP11 ADD SWAP4 ADD SWAP4 ADD SWAP2 SWAP4 SWAP3 SWAP1 PUSH2 0x6EC JUMP JUMPDEST PUSH2 0x60C SWAP4 POP PUSH2 0x614 SWAP2 SWAP3 POP PUSH2 0x7B6 PUSH2 0x5F2 SWAP2 RETURNDATASIZE DUP1 PUSH1 0x0 DUP4 RETURNDATACOPY PUSH2 0x7AE DUP2 DUP4 PUSH2 0x163A JUMP JUMPDEST DUP2 ADD SWAP1 PUSH2 0x177D JUMP JUMPDEST SWAP1 SWAP5 POP SWAP3 SWAP2 POP PUSH2 0x592 JUMP JUMPDEST PUSH1 0x40 MLOAD RETURNDATASIZE PUSH1 0x0 DUP3 RETURNDATACOPY RETURNDATASIZE SWAP1 REVERT JUMPDEST PUSH1 0x40 MLOAD PUSH4 0x43C669F PUSH1 0xE0 SHL DUP2 MSTORE PUSH1 0x4 SWAP1 REVERT JUMPDEST PUSH1 0x40 MLOAD PUSH4 0xB2D4ECEB PUSH1 0xE0 SHL DUP2 MSTORE PUSH1 0x4 SWAP1 REVERT JUMPDEST POP PUSH2 0x807 PUSH2 0x1C4 PUSH1 0x4 CALLDATALOAD ADD PUSH1 0x4 CALLDATALOAD PUSH1 0x4 ADD PUSH2 0x1691 JUMP JUMPDEST SWAP1 POP PUSH2 0x81D PUSH1 0xC4 PUSH1 0x4 CALLDATALOAD ADD PUSH1 0x4 CALLDATALOAD PUSH1 0x4 ADD PUSH2 0x1691 JUMP JUMPDEST SWAP2 SWAP1 POP EQ ISZERO PUSH2 0x41D JUMP JUMPDEST PUSH1 0x2 PUSH2 0x83D PUSH1 0xC4 PUSH1 0x4 CALLDATALOAD ADD PUSH1 0x4 CALLDATALOAD PUSH1 0x4 ADD PUSH2 0x1691 JUMP JUMPDEST SWAP1 POP SUB PUSH2 0x7DF JUMPI PUSH1 0x3 PUSH2 0x144 PUSH1 0x4 CALLDATALOAD ADD CALLDATALOAD LT ISZERO PUSH2 0x1A2 JUMPI PUSH1 0x2 PUSH2 0x144 PUSH1 0x4 CALLDATALOAD ADD CALLDATALOAD SUB PUSH2 0x422 JUMPI PUSH2 0x164 PUSH1 0x4 CALLDATALOAD ADD CALLDATALOAD PUSH2 0x124 PUSH1 0x4 CALLDATALOAD ADD CALLDATALOAD LT PUSH2 0x422 JUMPI JUMPDEST PUSH1 0x40 MLOAD PUSH4 0x6B7C759 PUSH1 0xE3 SHL DUP2 MSTORE PUSH1 0x4 SWAP1 REVERT JUMPDEST PUSH1 0x40 MLOAD PUSH4 0x8BB27AF PUSH1 0xE4 SHL DUP2 MSTORE PUSH1 0x4 SWAP1 REVERT JUMPDEST PUSH1 0x40 MLOAD PUSH4 0x37BF5613 PUSH1 0xE1 SHL DUP2 MSTORE PUSH1 0x4 SWAP1 REVERT JUMPDEST POP PUSH1 0x64 PUSH1 0x4 CALLDATALOAD ADD CALLDATALOAD PUSH1 0x84 PUSH1 0x4 CALLDATALOAD ADD CALLDATALOAD GT ISZERO PUSH2 0x3BA JUMP JUMPDEST PUSH1 0x40 MLOAD PUSH4 0x1F86E17 PUSH1 0xE4 SHL DUP2 MSTORE PUSH1 0x4 SWAP1 REVERT JUMPDEST PUSH1 0x40 MLOAD PUSH4 0x67D635E1 PUSH1 0xE0 SHL DUP2 MSTORE PUSH1 0x4 SWAP1 REVERT JUMPDEST POP PUSH1 0x20 PUSH2 0x900 PUSH1 0xC4 PUSH1 0x4 CALLDATALOAD ADD PUSH1 0x4 CALLDATALOAD PUSH1 0x4 ADD PUSH2 0x1691 JUMP JUMPDEST SWAP1 POP GT PUSH2 0x37B JUMP JUMPDEST POP PUSH1 0x12 PUSH1 0xFF DUP4 AND EQ ISZERO PUSH2 0x357 JUMP JUMPDEST PUSH1 0x40 MLOAD PUSH4 0x68F7A675 PUSH1 0xE1 SHL DUP2 MSTORE PUSH1 0x4 SWAP1 REVERT JUMPDEST PUSH1 0x40 MLOAD PUSH4 0x93687C0B PUSH1 0xE0 SHL DUP2 MSTORE PUSH1 0x4 SWAP1 REVERT JUMPDEST POP PUSH1 0x6 SLOAD PUSH1 0x1 PUSH1 0x1 PUSH1 0xA0 SHL SUB AND CALLER EQ ISZERO PUSH2 0x2E4 JUMP JUMPDEST CALLVALUE PUSH2 0x1A2 JUMPI PUSH1 0x20 CALLDATASIZE PUSH1 0x3 NOT ADD SLT PUSH2 0x1A2 JUMPI PUSH2 0x968 PUSH2 0x1517 JUMP JUMPDEST PUSH2 0x970 PUSH2 0x165B JUMP JUMPDEST PUSH1 0x4 DUP1 SLOAD PUSH1 0x1 PUSH1 0x1 PUSH1 0xA0 SHL SUB NOT AND PUSH1 0x1 PUSH1 0x1 PUSH1 0xA0 SHL SUB SWAP3 SWAP1 SWAP3 AND SWAP2 DUP3 OR SWAP1 SSTORE PUSH32 0x6BE240C3CE51532BC6F7066BD1C5C51947CC8E3E01FA03397D6AB44CFA7D198A PUSH1 0x0 DUP1 LOG2 STOP JUMPDEST CALLVALUE PUSH2 0x1A2 JUMPI PUSH1 0x20 CALLDATASIZE PUSH1 0x3 NOT ADD SLT PUSH2 0x1A2 JUMPI PUSH1 0x4 CALLDATALOAD PUSH1 0x8 SLOAD DUP2 LT ISZERO PUSH2 0x1A2 JUMPI PUSH1 0x8 PUSH1 0x0 MSTORE PUSH32 0xF3F7A9FE364FAAB93B216DA50A3214154F22A0A2B415B23A84C8169E8B636EE3 ADD SLOAD PUSH1 0x40 MLOAD PUSH1 0x1 PUSH1 0x1 PUSH1 0xA0 SHL SUB SWAP1 SWAP2 AND DUP2 MSTORE PUSH1 0x20 SWAP1 RETURN JUMPDEST CALLVALUE PUSH2 0x1A2 JUMPI PUSH1 0x0 CALLDATASIZE PUSH1 0x3 NOT ADD SLT PUSH2 0x1A2 JUMPI PUSH1 0x20 PUSH1 0x8 SLOAD PUSH1 0x40 MLOAD SWAP1 DUP2 MSTORE RETURN JUMPDEST CALLVALUE PUSH2 0x1A2 JUMPI PUSH1 0x20 CALLDATASIZE PUSH1 0x3 NOT ADD SLT PUSH2 0x1A2 JUMPI PUSH2 0xA48 PUSH2 0x1517 JUMP JUMPDEST PUSH2 0xA50 PUSH2 0x165B JUMP JUMPDEST PUSH1 0x1 PUSH1 0x1 PUSH1 0xA0 SHL SUB AND DUP1 ISZERO PUSH2 0x239 JUMPI PUSH1 0x7 DUP1 SLOAD PUSH1 0x1 PUSH1 0x1 PUSH1 0xA0 SHL SUB NOT AND DUP3 OR SWAP1 SSTORE PUSH32 0x605F04A31CF07D957F1C52208519E1CD6DA20EB11DC98E67FC3EFF63FE3933FC PUSH1 0x0 DUP1 LOG2 STOP JUMPDEST CALLVALUE PUSH2 0x1A2 JUMPI PUSH1 0x0 CALLDATASIZE PUSH1 0x3 NOT ADD SLT PUSH2 0x1A2 JUMPI PUSH1 0x0 SLOAD PUSH1 0x40 MLOAD PUSH1 0x1 PUSH1 0x1 PUSH1 0xA0 SHL SUB SWAP1 SWAP2 AND DUP2 MSTORE PUSH1 0x20 SWAP1 RETURN JUMPDEST CALLVALUE PUSH2 0x1A2 JUMPI PUSH1 0x0 CALLDATASIZE PUSH1 0x3 NOT ADD SLT PUSH2 0x1A2 JUMPI PUSH1 0x1 SLOAD PUSH1 0x1 PUSH1 0x1 PUSH1 0xA0 SHL SUB CALLER DUP2 DUP4 AND SUB PUSH2 0xB32 JUMPI PUSH12 0xFFFFFFFFFFFFFFFFFFFFFFFF PUSH1 0xA0 SHL DUP1 SWAP3 AND PUSH1 0x1 SSTORE PUSH1 0x0 SLOAD SWAP2 CALLER SWAP1 DUP4 AND OR PUSH1 0x0 SSTORE CALLER SWAP2 AND PUSH32 0x8BE0079C531659141344CD1FD0A4F28419497F9722A3DAAFE3B4186F6B6457E0 PUSH1 0x0 DUP1 LOG3 STOP JUMPDEST PUSH1 0x40 MLOAD PUSH4 0x118CDAA7 PUSH1 0xE0 SHL DUP2 MSTORE CALLER PUSH1 0x4 DUP3 ADD MSTORE PUSH1 0x24 SWAP1 REVERT JUMPDEST CALLVALUE PUSH2 0x1A2 JUMPI PUSH1 0x0 CALLDATASIZE PUSH1 0x3 NOT ADD SLT PUSH2 0x1A2 JUMPI PUSH2 0xB63 PUSH2 0x165B JUMP JUMPDEST PUSH1 0x1 DUP1 SLOAD PUSH1 0x1 PUSH1 0x1 PUSH1 0xA0 SHL SUB NOT SWAP1 DUP2 AND SWAP1 SWAP2 SSTORE PUSH1 0x0 DUP1 SLOAD SWAP2 DUP3 AND DUP2 SSTORE SWAP1 PUSH1 0x1 PUSH1 0x1 PUSH1 0xA0 SHL SUB AND PUSH32 0x8BE0079C531659141344CD1FD0A4F28419497F9722A3DAAFE3B4186F6B6457E0 DUP3 DUP1 LOG3 STOP JUMPDEST CALLVALUE PUSH2 0x1A2 JUMPI PUSH1 0x20 CALLDATASIZE PUSH1 0x3 NOT ADD SLT PUSH2 0x1A2 JUMPI PUSH1 0x1 PUSH1 0x1 PUSH1 0xA0 SHL SUB PUSH2 0xBD0 PUSH2 0x1517 JUMP JUMPDEST AND PUSH1 0x0 MSTORE PUSH1 0x9 PUSH1 0x20 MSTORE PUSH1 0x20 PUSH1 0xFF PUSH1 0x40 PUSH1 0x0 KECCAK256 SLOAD AND PUSH1 0x40 MLOAD SWAP1 ISZERO ISZERO DUP2 MSTORE RETURN JUMPDEST CALLVALUE PUSH2 0x1A2 JUMPI PUSH1 0x0 CALLDATASIZE PUSH1 0x3 NOT ADD SLT PUSH2 0x1A2 JUMPI PUSH1 0x6 SLOAD PUSH1 0x40 MLOAD PUSH1 0x1 PUSH1 0x1 PUSH1 0xA0 SHL SUB SWAP1 SWAP2 AND DUP2 MSTORE PUSH1 0x20 SWAP1 RETURN JUMPDEST CALLVALUE PUSH2 0x1A2 JUMPI PUSH1 0x20 CALLDATASIZE PUSH1 0x3 NOT ADD SLT PUSH2 0x1A2 JUMPI PUSH2 0xC30 PUSH2 0x1517 JUMP JUMPDEST PUSH2 0xC38 PUSH2 0x165B JUMP JUMPDEST PUSH1 0x1 PUSH1 0x1 PUSH1 0xA0 SHL SUB AND PUSH1 0x0 DUP2 DUP2 MSTORE PUSH1 0x2 PUSH1 0x20 MSTORE PUSH1 0x40 SWAP1 KECCAK256 SLOAD PUSH1 0xFF AND PUSH2 0x879 JUMPI DUP1 PUSH1 0x0 MSTORE PUSH1 0x2 PUSH1 0x20 MSTORE PUSH1 0x40 PUSH1 0x0 KECCAK256 PUSH1 0x1 PUSH1 0xFF NOT DUP3 SLOAD AND OR SWAP1 SSTORE PUSH32 0xBD8A8E5A223A7347DAB9DE83A90A67C6BB291A7AC7487FBA3886F5ED162D1DA5 PUSH1 0x0 DUP1 LOG2 STOP JUMPDEST CALLVALUE PUSH2 0x1A2 JUMPI PUSH1 0x20 PUSH1 0x3 NOT DUP2 DUP2 CALLDATASIZE ADD SLT PUSH2 0x1A2 JUMPI PUSH1 0x1 PUSH1 0x1 PUSH1 0x40 SHL SUB PUSH1 0x4 CALLDATALOAD GT PUSH2 0x1A2 JUMPI PUSH2 0x1E0 SWAP1 PUSH1 0x4 CALLDATALOAD CALLDATASIZE SUB ADD SLT PUSH2 0x1A2 JUMPI PUSH1 0x0 SLOAD PUSH1 0x1 PUSH1 0x1 PUSH1 0xA0 SHL SUB AND CALLER DUP2 EQ ISZERO DUP1 PUSH2 0x1271 JUMPI JUMPDEST PUSH2 0x928 JUMPI PUSH2 0xCF4 PUSH2 0x2F9 PUSH1 0x4 CALLDATALOAD PUSH1 0x4 ADD PUSH2 0x166F JUMP JUMPDEST SWAP1 PUSH1 0x1 PUSH1 0x1 PUSH1 0xA0 SHL SUB PUSH2 0xD0A PUSH1 0x4 DUP1 CALLDATALOAD ADD PUSH2 0x166F JUMP JUMPDEST AND PUSH1 0x0 MSTORE PUSH1 0x2 DUP4 MSTORE PUSH1 0xFF PUSH1 0x40 PUSH1 0x0 KECCAK256 SLOAD AND ISZERO PUSH2 0x916 JUMPI PUSH1 0x1 PUSH1 0x1 PUSH1 0xA0 SHL SUB PUSH2 0xD35 PUSH1 0x4 DUP1 CALLDATALOAD ADD PUSH2 0x166F JUMP JUMPDEST AND ISZERO DUP1 PUSH2 0x1263 JUMPI JUMPDEST PUSH2 0x879 JUMPI PUSH1 0x2 PUSH2 0xD57 PUSH1 0xC4 PUSH1 0x4 CALLDATALOAD ADD PUSH1 0x4 CALLDATALOAD PUSH1 0x4 ADD PUSH2 0x1691 JUMP JUMPDEST SWAP1 POP LT DUP1 ISZERO PUSH2 0x1245 JUMPI JUMPDEST PUSH2 0x8D7 JUMPI PUSH2 0xD84 PUSH2 0xD7D PUSH2 0x104 PUSH1 0x4 CALLDATALOAD ADD PUSH1 0x4 CALLDATALOAD PUSH1 0x4 ADD PUSH2 0x16C6 JUMP JUMPDEST CALLDATASIZE SWAP2 PUSH2 0x16F8 JUMP JUMPDEST SWAP2 DUP3 MLOAD DUP1 ISZERO SWAP1 DUP2 ISZERO PUSH2 0x1239 JUMPI JUMPDEST POP PUSH2 0x879 JUMPI PUSH1 0x1 PUSH1 0x1 PUSH1 0x40 SHL SUB PUSH2 0xDAD PUSH2 0x144 PUSH1 0x4 CALLDATALOAD ADD PUSH2 0x173E JUMP JUMPDEST AND ISZERO PUSH2 0x879 JUMPI PUSH2 0x124 PUSH1 0x4 CALLDATALOAD ADD CALLDATALOAD SWAP1 DUP2 ISZERO PUSH2 0x11DF JUMPI JUMPDEST PUSH15 0x5945535F4F525F4E4F5F5155455259 PUSH1 0x88 SHL DUP3 EQ DUP1 PUSH2 0x11BF JUMPI JUMPDEST PUSH2 0x879 JUMPI PUSH1 0x4 SLOAD PUSH1 0x1 PUSH1 0x1 PUSH1 0xA0 SHL SUB AND SWAP3 DUP4 ISZERO PUSH2 0x879 JUMPI PUSH1 0x4 CALLDATALOAD PUSH2 0x1A4 ADD PUSH1 0x1 PUSH1 0x1 PUSH1 0xA0 SHL SUB PUSH2 0xE0D DUP3 PUSH2 0x166F JUMP JUMPDEST AND ISZERO PUSH2 0x11AC JUMPI PUSH2 0xE1C SWAP1 PUSH2 0x166F JUMP JUMPDEST SWAP2 JUMPDEST PUSH1 0x1 PUSH1 0x1 PUSH1 0xA0 SHL SUB DUP4 AND ISZERO PUSH2 0x879 JUMPI TIMESTAMP PUSH1 0x64 PUSH1 0x4 CALLDATALOAD ADD CALLDATALOAD GT DUP1 ISZERO SWAP1 PUSH2 0x1196 JUMPI JUMPDEST PUSH2 0x89D JUMPI PUSH1 0xA4 PUSH1 0x4 CALLDATALOAD ADD CALLDATALOAD ISZERO PUSH2 0x88B JUMPI PUSH1 0x7 SLOAD PUSH1 0x1 PUSH1 0x1 PUSH1 0xA0 SHL SUB AND SWAP4 DUP5 ISZERO PUSH2 0x7CD JUMPI PUSH1 0x3 SLOAD PUSH1 0x1 PUSH1 0x1 PUSH1 0xA0 SHL SUB AND SWAP4 PUSH2 0xE7B PUSH1 0x4 DUP1 CALLDATALOAD ADD PUSH2 0x166F JUMP JUMPDEST SWAP7 PUSH2 0xE8E PUSH1 0x4 DUP1 CALLDATALOAD PUSH1 0xC4 DUP2 ADD SWAP2 ADD PUSH2 0x1691 JUMP JUMPDEST SWAP4 SWAP1 POP PUSH2 0xEA0 PUSH2 0x144 PUSH1 0x4 CALLDATALOAD ADD PUSH2 0x173E JUMP JUMPDEST SWAP2 PUSH2 0xEB3 PUSH1 0x4 DUP1 CALLDATALOAD PUSH1 0xC4 DUP2 ADD SWAP2 ADD PUSH2 0x1691 JUMP JUMPDEST SWAP6 SWAP1 SWAP7 PUSH1 0x40 MLOAD SWAP12 DUP13 SWAP11 DUP12 SWAP11 PUSH4 0x53A4E6D7 PUSH1 0xE0 SHL DUP13 MSTORE PUSH1 0x4 DUP13 ADD MSTORE PUSH1 0x24 DUP12 ADD MSTORE PUSH1 0x1 PUSH1 0xA0 SHL PUSH1 0x1 SWAP1 SUB AND PUSH1 0x44 DUP11 ADD MSTORE PUSH1 0xFF AND PUSH1 0x64 DUP10 ADD MSTORE PUSH1 0xFF AND PUSH1 0x84 DUP9 ADD MSTORE PUSH1 0x4 CALLDATALOAD PUSH1 0x44 ADD CALLDATALOAD PUSH1 0xA4 DUP9 ADD MSTORE PUSH1 0x4 CALLDATALOAD PUSH1 0x64 ADD CALLDATALOAD PUSH1 0xC4 DUP9 ADD MSTORE PUSH1 0x4 CALLDATALOAD PUSH1 0x84 ADD CALLDATALOAD PUSH1 0xE4 DUP9 ADD MSTORE PUSH1 0x4 CALLDATALOAD PUSH1 0xA4 ADD CALLDATALOAD PUSH2 0x104 DUP9 ADD MSTORE PUSH2 0x124 DUP8 ADD MSTORE PUSH2 0x144 DUP7 ADD MSTORE PUSH1 0x1 PUSH1 0x1 PUSH1 0x40 SHL SUB AND PUSH2 0x164 DUP6 ADD MSTORE PUSH1 0x4 CALLDATALOAD PUSH2 0x164 ADD CALLDATALOAD PUSH2 0x184 DUP6 ADD MSTORE PUSH1 0x4 CALLDATALOAD PUSH2 0x184 ADD CALLDATALOAD PUSH2 0x1A4 DUP6 ADD MSTORE PUSH1 0x1 PUSH1 0xA0 SHL PUSH1 0x1 SWAP1 SUB AND PUSH2 0x1C4 DUP5 ADD MSTORE PUSH1 0x4 CALLDATALOAD PUSH2 0x1C4 ADD CALLDATALOAD PUSH2 0x1E4 DUP5 ADD MSTORE PUSH2 0x204 DUP4 ADD PUSH2 0x220 SWAP1 MSTORE PUSH2 0x224 DUP4 ADD SWAP1 PUSH2 0xF90 SWAP3 PUSH2 0x180D JUMP JUMPDEST SUB DUP2 GAS PUSH1 0x0 SWAP5 DUP6 SWAP2 CALL SWAP2 DUP3 ISZERO PUSH2 0x7C1 JUMPI PUSH1 0x0 SWAP2 PUSH1 0x0 SWAP4 PUSH2 0x1173 JUMPI JUMPDEST POP PUSH2 0xFF8 SWAP1 PUSH2 0xFC4 PUSH1 0xE4 PUSH1 0x4 CALLDATALOAD ADD PUSH1 0x4 CALLDATALOAD PUSH1 0x4 ADD PUSH2 0x16C6 JUMP JUMPDEST SWAP2 PUSH2 0xFF1 PUSH1 0x40 MLOAD SWAP3 PUSH2 0xFD5 DUP5 PUSH2 0x161F JUMP JUMPDEST PUSH1 0x0 DUP5 MSTORE PUSH1 0x40 MLOAD SWAP5 PUSH2 0xFE6 DUP7 PUSH2 0x161F JUMP JUMPDEST PUSH1 0x0 DUP7 MSTORE CALLDATASIZE SWAP2 PUSH2 0x16F8 JUMP JUMPDEST DUP7 DUP7 PUSH2 0x1A12 JUMP JUMPDEST PUSH2 0x1006 PUSH1 0x4 CALLDATALOAD PUSH1 0x4 ADD PUSH2 0x166F JUMP JUMPDEST PUSH2 0x101D PUSH2 0x63A PUSH1 0xC4 PUSH1 0x4 CALLDATALOAD ADD PUSH1 0x4 CALLDATALOAD PUSH1 0x4 ADD PUSH2 0x1691 JUMP JUMPDEST SWAP2 PUSH2 0x1027 DUP2 PUSH2 0x1B49 JUMP JUMPDEST PUSH1 0x1 DUP1 PUSH1 0xA0 SHL SUB AND SWAP3 DUP4 SWAP2 DUP3 PUSH1 0x0 MSTORE PUSH1 0x9 DUP7 MSTORE PUSH1 0x40 PUSH1 0x0 KECCAK256 PUSH1 0x1 SWAP1 PUSH1 0x1 PUSH1 0xFF NOT DUP3 SLOAD AND OR SWAP1 SSTORE DUP1 PUSH1 0x0 SWAP1 JUMPDEST PUSH2 0x112B JUMPI JUMPDEST POP PUSH2 0x106D PUSH1 0x40 MLOAD SWAP4 PUSH1 0xA0 DUP6 MSTORE PUSH1 0xA0 DUP6 ADD SWAP1 PUSH2 0x152D JUMP JUMPDEST SWAP1 DUP4 DUP3 SUB DUP9 DUP6 ADD MSTORE DUP6 MLOAD DUP1 DUP4 MSTORE DUP9 DUP4 ADD SWAP3 DUP10 DUP1 DUP4 PUSH1 0x5 SHL DUP4 ADD ADD SWAP9 ADD SWAP4 PUSH1 0x0 SWAP2 JUMPDEST DUP12 DUP5 DUP5 LT PUSH2 0x10F6 JUMPI DUP10 DUP12 PUSH1 0x1 DUP3 PUSH32 0xB679F8BB353CCC2331BBEB116D31F96FE2836F68DD9CB37D0749EA0B26BE22D6 DUP14 DUP1 DUP15 PUSH1 0x64 PUSH1 0x4 CALLDATALOAD ADD CALLDATALOAD PUSH1 0x40 DUP4 ADD MSTORE PUSH1 0x84 PUSH1 0x4 CALLDATALOAD ADD CALLDATALOAD PUSH1 0x60 DUP4 ADD MSTORE PUSH1 0xA4 PUSH1 0x4 CALLDATALOAD ADD CALLDATALOAD PUSH1 0x80 DUP4 ADD MSTORE DUP6 DUP1 PUSH1 0xA0 SHL SUB AND SWAP6 SUB SWAP1 LOG4 PUSH1 0x40 MLOAD SWAP1 DUP2 MSTORE RETURN JUMPDEST DUP6 SWAP8 SWAP9 SWAP10 POP PUSH2 0x1116 DUP2 SWAP3 SWAP5 SWAP7 SWAP4 SWAP6 SWAP8 SWAP12 PUSH1 0x1F NOT DUP7 DUP3 SUB ADD DUP8 MSTORE DUP13 MLOAD PUSH2 0x19D2 JUMP JUMPDEST SWAP11 ADD SWAP4 ADD SWAP4 ADD SWAP1 SWAP3 DUP10 SWAP8 SWAP7 SWAP6 SWAP4 SWAP5 SWAP3 SWAP5 PUSH2 0x108E JUMP JUMPDEST DUP4 DUP3 SWAP4 SWAP5 SWAP6 POP MLOAD DUP2 LT ISZERO PUSH2 0x1169 JUMPI PUSH1 0x0 DUP8 DUP2 MSTORE PUSH1 0xA DUP10 MSTORE PUSH1 0x40 SWAP1 KECCAK256 DUP3 SWAP2 SWAP1 PUSH2 0x115F SWAP1 PUSH1 0x1 PUSH1 0x1 PUSH1 0xA0 SHL SUB PUSH2 0x6A3 DUP5 DUP11 PUSH2 0x198A JUMP JUMPDEST ADD DUP7 SWAP5 SWAP4 SWAP3 PUSH2 0x1052 JUMP JUMPDEST DUP7 SWAP5 SWAP4 SWAP3 POP PUSH2 0x1057 JUMP JUMPDEST PUSH2 0x118E SWAP2 SWAP4 POP PUSH2 0xFF8 SWAP3 POP RETURNDATASIZE DUP1 PUSH1 0x0 DUP4 RETURNDATACOPY PUSH2 0x7AE DUP2 DUP4 PUSH2 0x163A JUMP JUMPDEST SWAP3 SWAP1 SWAP2 PUSH2 0xFAB JUMP JUMPDEST POP PUSH1 0x64 PUSH1 0x4 CALLDATALOAD ADD CALLDATALOAD PUSH1 0x84 PUSH1 0x4 CALLDATALOAD ADD CALLDATALOAD GT ISZERO PUSH2 0xE3E JUMP JUMPDEST POP PUSH1 0x5 SLOAD PUSH1 0x1 PUSH1 0x1 PUSH1 0xA0 SHL SUB AND SWAP2 PUSH2 0xE1E JUMP JUMPDEST POP PUSH1 0x2 PUSH2 0x11D6 PUSH1 0xC4 PUSH1 0x4 CALLDATALOAD ADD PUSH1 0x4 CALLDATALOAD PUSH1 0x4 ADD PUSH2 0x1691 JUMP JUMPDEST SWAP1 POP EQ ISZERO PUSH2 0xDDE JUMP JUMPDEST SWAP1 POP PUSH1 0x2 PUSH2 0x11F7 PUSH1 0xC4 PUSH1 0x4 CALLDATALOAD ADD PUSH1 0x4 CALLDATALOAD PUSH1 0x4 ADD PUSH2 0x1691 JUMP JUMPDEST SWAP1 POP EQ PUSH1 0x0 EQ PUSH2 0x121B JUMPI PUSH15 0x5945535F4F525F4E4F5F5155455259 PUSH1 0x88 SHL JUMPDEST SWAP1 PUSH2 0xDC3 JUMP JUMPDEST PUSH21 0x4D554C5449504C455F43484F4943455F5155455259 PUSH1 0x58 SHL PUSH2 0x1215 JUMP JUMPDEST PUSH2 0x2000 SWAP2 POP GT DUP6 PUSH2 0xD91 JUMP JUMPDEST POP DUP3 PUSH2 0x125B PUSH1 0xC4 PUSH1 0x4 CALLDATALOAD ADD PUSH1 0x4 CALLDATALOAD PUSH1 0x4 ADD PUSH2 0x1691 JUMP JUMPDEST SWAP1 POP GT PUSH2 0xD61 JUMP JUMPDEST POP PUSH1 0x12 PUSH1 0xFF DUP4 AND EQ ISZERO PUSH2 0xD3D JUMP JUMPDEST POP PUSH1 0x6 SLOAD PUSH1 0x1 PUSH1 0x1 PUSH1 0xA0 SHL SUB AND CALLER EQ ISZERO PUSH2 0xCDF JUMP JUMPDEST CALLVALUE PUSH2 0x1A2 JUMPI PUSH1 0x0 CALLDATASIZE PUSH1 0x3 NOT ADD SLT PUSH2 0x1A2 JUMPI PUSH1 0x3 SLOAD PUSH1 0x40 MLOAD PUSH1 0x1 PUSH1 0x1 PUSH1 0xA0 SHL SUB SWAP1 SWAP2 AND DUP2 MSTORE PUSH1 0x20 SWAP1 RETURN JUMPDEST CALLVALUE PUSH2 0x1A2 JUMPI PUSH1 0x20 CALLDATASIZE PUSH1 0x3 NOT ADD SLT PUSH2 0x1A2 JUMPI PUSH2 0x12C8 PUSH2 0x1517 JUMP JUMPDEST PUSH2 0x12D0 PUSH2 0x165B JUMP JUMPDEST PUSH1 0x1 PUSH1 0x1 PUSH1 0xA0 SHL SUB AND DUP1 ISZERO PUSH2 0x239 JUMPI PUSH1 0x5 DUP1 SLOAD PUSH1 0x1 PUSH1 0x1 PUSH1 0xA0 SHL SUB NOT AND DUP3 OR SWAP1 SSTORE PUSH32 0x523E520D3E5099D5B5EF94A4279B3B62D1F69AFA84AB6D0AE03287A7A67C68F2 PUSH1 0x0 DUP1 LOG2 STOP JUMPDEST CALLVALUE PUSH2 0x1A2 JUMPI PUSH1 0x20 CALLDATASIZE PUSH1 0x3 NOT ADD SLT PUSH2 0x1A2 JUMPI PUSH1 0x1 PUSH1 0x1 PUSH1 0xA0 SHL SUB PUSH2 0x1339 PUSH2 0x1517 JUMP JUMPDEST AND PUSH1 0x0 MSTORE PUSH1 0x2 PUSH1 0x20 MSTORE PUSH1 0x20 PUSH1 0xFF PUSH1 0x40 PUSH1 0x0 KECCAK256 SLOAD AND PUSH1 0x40 MLOAD SWAP1 ISZERO ISZERO DUP2 MSTORE RETURN JUMPDEST CALLVALUE PUSH2 0x1A2 JUMPI PUSH1 0x20 DUP1 PUSH1 0x3 NOT CALLDATASIZE ADD SLT PUSH2 0x1A2 JUMPI PUSH1 0x1 PUSH1 0x1 PUSH1 0xA0 SHL SUB SWAP1 DUP2 PUSH2 0x137B PUSH2 0x1517 JUMP JUMPDEST AND PUSH1 0x0 MSTORE PUSH1 0xA DUP2 MSTORE PUSH1 0x40 PUSH1 0x0 KECCAK256 SWAP2 PUSH1 0x40 MLOAD DUP1 SWAP4 DUP5 SWAP2 DUP5 DUP3 SLOAD SWAP2 DUP3 DUP2 MSTORE ADD SWAP2 PUSH1 0x0 MSTORE DUP5 PUSH1 0x0 KECCAK256 SWAP4 PUSH1 0x0 SWAP1 JUMPDEST DUP7 DUP4 DUP4 LT PUSH2 0x13D3 JUMPI DUP6 SWAP1 PUSH2 0x13BB DUP3 DUP8 SUB DUP4 PUSH2 0x163A JUMP JUMPDEST PUSH2 0x13CF PUSH1 0x40 MLOAD SWAP3 DUP3 DUP5 SWAP4 DUP5 MSTORE DUP4 ADD SWAP1 PUSH2 0x152D JUMP JUMPDEST SUB SWAP1 RETURN JUMPDEST DUP7 SLOAD DUP3 AND DUP6 MSTORE PUSH1 0x1 SWAP7 DUP8 ADD SWAP7 DUP10 SWAP7 POP SWAP5 ADD SWAP4 SWAP2 SWAP1 SWAP2 ADD SWAP1 PUSH2 0x13A5 JUMP JUMPDEST CALLVALUE PUSH2 0x1A2 JUMPI PUSH1 0x20 CALLDATASIZE PUSH1 0x3 NOT ADD SLT PUSH2 0x1A2 JUMPI PUSH2 0x1408 PUSH2 0x1517 JUMP JUMPDEST PUSH2 0x1410 PUSH2 0x165B JUMP JUMPDEST PUSH1 0x6 DUP1 SLOAD PUSH1 0x1 PUSH1 0x1 PUSH1 0xA0 SHL SUB NOT AND PUSH1 0x1 PUSH1 0x1 PUSH1 0xA0 SHL SUB SWAP3 SWAP1 SWAP3 AND SWAP2 SWAP1 SWAP2 OR SWAP1 SSTORE STOP JUMPDEST CALLVALUE PUSH2 0x1A2 JUMPI PUSH1 0x20 CALLDATASIZE PUSH1 0x3 NOT ADD SLT PUSH2 0x1A2 JUMPI PUSH2 0x144B PUSH2 0x1517 JUMP JUMPDEST PUSH2 0x1453 PUSH2 0x165B JUMP JUMPDEST PUSH1 0x1 PUSH1 0x1 PUSH1 0xA0 SHL SUB AND PUSH1 0x0 DUP2 DUP2 MSTORE PUSH1 0x2 PUSH1 0x20 MSTORE PUSH1 0x40 SWAP1 KECCAK256 SLOAD PUSH1 0xFF AND ISZERO PUSH2 0x879 JUMPI DUP1 PUSH1 0x0 MSTORE PUSH1 0x2 PUSH1 0x20 MSTORE PUSH1 0x40 PUSH1 0x0 KECCAK256 PUSH1 0xFF NOT DUP2 SLOAD AND SWAP1 SSTORE PUSH32 0xFFBE34CFA1831023FD1E8602FC452DFA0E07B531DD9197A3FAC11258AA17E75 PUSH1 0x0 DUP1 LOG2 STOP JUMPDEST CALLVALUE PUSH2 0x1A2 JUMPI PUSH1 0x40 CALLDATASIZE PUSH1 0x3 NOT ADD SLT PUSH2 0x1A2 JUMPI PUSH2 0x14C9 PUSH2 0x1517 JUMP JUMPDEST PUSH1 0x24 CALLDATALOAD SWAP1 PUSH1 0x1 PUSH1 0x1 PUSH1 0xA0 SHL SUB DUP3 AND DUP3 SUB PUSH2 0x1A2 JUMPI PUSH1 0x20 SWAP2 PUSH2 0x14E9 SWAP2 PUSH2 0x1598 JUMP JUMPDEST PUSH1 0x40 MLOAD SWAP1 ISZERO ISZERO DUP2 MSTORE RETURN JUMPDEST CALLVALUE PUSH2 0x1A2 JUMPI PUSH1 0x0 CALLDATASIZE PUSH1 0x3 NOT ADD SLT PUSH2 0x1A2 JUMPI PUSH1 0x4 SLOAD PUSH1 0x1 PUSH1 0x1 PUSH1 0xA0 SHL SUB AND DUP2 MSTORE PUSH1 0x20 SWAP1 RETURN JUMPDEST PUSH1 0x4 CALLDATALOAD SWAP1 PUSH1 0x1 PUSH1 0x1 PUSH1 0xA0 SHL SUB DUP3 AND DUP3 SUB PUSH2 0x1A2 JUMPI JUMP JUMPDEST SWAP1 DUP2 MLOAD DUP1 DUP3 MSTORE PUSH1 0x20 DUP1 DUP1 SWAP4 ADD SWAP4 ADD SWAP2 PUSH1 0x0 JUMPDEST DUP3 DUP2 LT PUSH2 0x154D JUMPI POP POP POP POP SWAP1 JUMP JUMPDEST DUP4 MLOAD PUSH1 0x1 PUSH1 0x1 PUSH1 0xA0 SHL SUB AND DUP6 MSTORE SWAP4 DUP2 ADD SWAP4 SWAP3 DUP2 ADD SWAP3 PUSH1 0x1 ADD PUSH2 0x153F JUMP JUMPDEST DUP1 SLOAD DUP3 LT ISZERO PUSH2 0x1582 JUMPI PUSH1 0x0 MSTORE PUSH1 0x20 PUSH1 0x0 KECCAK256 ADD SWAP1 PUSH1 0x0 SWAP1 JUMP JUMPDEST PUSH4 0x4E487B71 PUSH1 0xE0 SHL PUSH1 0x0 MSTORE PUSH1 0x32 PUSH1 0x4 MSTORE PUSH1 0x24 PUSH1 0x0 REVERT JUMPDEST PUSH1 0x1 PUSH1 0x1 PUSH1 0xA0 SHL SUB SWAP1 DUP2 AND PUSH1 0x0 SWAP1 DUP2 MSTORE PUSH1 0xA PUSH1 0x20 MSTORE PUSH1 0x40 DUP2 KECCAK256 DUP1 SLOAD SWAP4 SWAP1 SWAP2 JUMPDEST DUP5 DUP2 LT PUSH2 0x15C8 JUMPI POP POP POP POP POP PUSH1 0x0 SWAP1 JUMP JUMPDEST DUP4 PUSH2 0x15D3 DUP3 DUP6 PUSH2 0x156A JUMP JUMPDEST SWAP2 SWAP1 SLOAD DUP2 DUP6 AND SWAP3 PUSH1 0x3 SHL SHR AND EQ PUSH2 0x15EC JUMPI PUSH1 0x1 ADD PUSH2 0x15B7 JUMP JUMPDEST POP POP POP POP POP PUSH1 0x1 SWAP1 JUMP JUMPDEST PUSH1 0x1 PUSH1 0x1 PUSH1 0x40 SHL SUB DUP2 GT PUSH2 0x1609 JUMPI PUSH1 0x40 MSTORE JUMP JUMPDEST PUSH4 0x4E487B71 PUSH1 0xE0 SHL PUSH1 0x0 MSTORE PUSH1 0x41 PUSH1 0x4 MSTORE PUSH1 0x24 PUSH1 0x0 REVERT JUMPDEST PUSH1 0x20 DUP2 ADD SWAP1 DUP2 LT PUSH1 0x1 PUSH1 0x1 PUSH1 0x40 SHL SUB DUP3 GT OR PUSH2 0x1609 JUMPI PUSH1 0x40 MSTORE JUMP JUMPDEST SWAP1 PUSH1 0x1F DUP1 NOT SWAP2 ADD AND DUP2 ADD SWAP1 DUP2 LT PUSH1 0x1 PUSH1 0x1 PUSH1 0x40 SHL SUB DUP3 GT OR PUSH2 0x1609 JUMPI PUSH1 0x40 MSTORE JUMP JUMPDEST PUSH1 0x0 SLOAD PUSH1 0x1 PUSH1 0x1 PUSH1 0xA0 SHL SUB AND CALLER SUB PUSH2 0xB32 JUMPI JUMP JUMPDEST CALLDATALOAD PUSH1 0x1 PUSH1 0x1 PUSH1 0xA0 SHL SUB DUP2 AND DUP2 SUB PUSH2 0x1A2 JUMPI SWAP1 JUMP JUMPDEST CALLDATALOAD PUSH1 0xFF DUP2 AND DUP2 SUB PUSH2 0x1A2 JUMPI SWAP1 JUMP JUMPDEST SWAP1 CALLDATALOAD SWAP1 PUSH1 0x1E NOT DUP2 CALLDATASIZE SUB ADD DUP3 SLT ISZERO PUSH2 0x1A2 JUMPI ADD DUP1 CALLDATALOAD SWAP1 PUSH1 0x1 PUSH1 0x1 PUSH1 0x40 SHL SUB DUP3 GT PUSH2 0x1A2 JUMPI PUSH1 0x20 ADD SWAP2 DUP2 PUSH1 0x5 SHL CALLDATASIZE SUB DUP4 SGT PUSH2 0x1A2 JUMPI JUMP JUMPDEST SWAP1 CALLDATALOAD SWAP1 PUSH1 0x1E NOT DUP2 CALLDATASIZE SUB ADD DUP3 SLT ISZERO PUSH2 0x1A2 JUMPI ADD DUP1 CALLDATALOAD SWAP1 PUSH1 0x1 PUSH1 0x1 PUSH1 0x40 SHL SUB DUP3 GT PUSH2 0x1A2 JUMPI PUSH1 0x20 ADD SWAP2 DUP2 CALLDATASIZE SUB DUP4 SGT PUSH2 0x1A2 JUMPI JUMP JUMPDEST SWAP3 SWAP2 SWAP3 PUSH1 0x1 PUSH1 0x1 PUSH1 0x40 SHL SUB DUP3 GT PUSH2 0x1609 JUMPI PUSH1 0x40 MLOAD SWAP2 PUSH2 0x1721 PUSH1 0x1F DUP3 ADD PUSH1 0x1F NOT AND PUSH1 0x20 ADD DUP5 PUSH2 0x163A JUMP JUMPDEST DUP3 SWAP5 DUP2 DUP5 MSTORE DUP2 DUP4 ADD GT PUSH2 0x1A2 JUMPI DUP3 DUP2 PUSH1 0x20 SWAP4 DUP5 PUSH1 0x0 SWAP7 ADD CALLDATACOPY ADD ADD MSTORE JUMP JUMPDEST CALLDATALOAD PUSH1 0x1 PUSH1 0x1 PUSH1 0x40 SHL SUB DUP2 AND DUP2 SUB PUSH2 0x1A2 JUMPI SWAP1 JUMP JUMPDEST MLOAD SWAP1 PUSH1 0x1 PUSH1 0x1 PUSH1 0xA0 SHL SUB DUP3 AND DUP3 SUB PUSH2 0x1A2 JUMPI JUMP JUMPDEST PUSH1 0x1 PUSH1 0x1 PUSH1 0x40 SHL SUB DUP2 GT PUSH2 0x1609 JUMPI PUSH1 0x5 SHL PUSH1 0x20 ADD SWAP1 JUMP JUMPDEST SWAP2 SWAP1 PUSH1 0x40 DUP4 DUP3 SUB SLT PUSH2 0x1A2 JUMPI PUSH2 0x1792 DUP4 PUSH2 0x1752 JUMP JUMPDEST SWAP3 PUSH1 0x20 SWAP1 DUP2 DUP2 ADD MLOAD SWAP1 PUSH1 0x1 PUSH1 0x1 PUSH1 0x40 SHL SUB DUP3 GT PUSH2 0x1A2 JUMPI ADD SWAP2 DUP1 PUSH1 0x1F DUP5 ADD SLT ISZERO PUSH2 0x1A2 JUMPI DUP3 MLOAD PUSH2 0x17C1 DUP2 PUSH2 0x1766 JUMP JUMPDEST SWAP4 PUSH2 0x17CF PUSH1 0x40 MLOAD SWAP6 DUP7 PUSH2 0x163A JUMP JUMPDEST DUP2 DUP6 MSTORE DUP4 DUP1 DUP7 ADD SWAP3 PUSH1 0x5 SHL DUP3 ADD ADD SWAP3 DUP4 GT PUSH2 0x1A2 JUMPI DUP4 ADD SWAP1 JUMPDEST DUP3 DUP3 LT PUSH2 0x17F6 JUMPI POP POP POP POP SWAP1 JUMP JUMPDEST DUP4 DUP1 SWAP2 PUSH2 0x1802 DUP5 PUSH2 0x1752 JUMP JUMPDEST DUP2 MSTORE ADD SWAP2 ADD SWAP1 PUSH2 0x17E8 JUMP JUMPDEST DUP2 DUP4 MSTORE PUSH1 0x20 PUSH1 0x5 DUP4 SWAP1 SHL DUP5 ADD DUP2 ADD SWAP4 SWAP2 SWAP3 SWAP1 PUSH1 0x0 DUP2 DUP5 ADD DUP6 JUMPDEST DUP5 DUP4 LT PUSH2 0x1837 JUMPI POP POP POP POP POP POP POP SWAP1 JUMP JUMPDEST SWAP1 SWAP2 SWAP3 SWAP4 SWAP5 SWAP6 SWAP7 PUSH1 0x1F NOT DUP1 DUP9 DUP4 SUB ADD DUP5 MSTORE DUP9 CALLDATALOAD PUSH1 0x1E NOT DUP5 CALLDATASIZE SUB ADD DUP2 SLT ISZERO PUSH2 0x1A2 JUMPI DUP4 ADD DUP7 DUP2 ADD SWAP1 CALLDATALOAD PUSH1 0x1 PUSH1 0x1 PUSH1 0x40 SHL SUB DUP2 GT PUSH2 0x1A2 JUMPI DUP1 CALLDATASIZE SUB DUP3 SGT PUSH2 0x1A2 JUMPI DUP4 DUP9 SWAP4 PUSH1 0x1F DUP4 DUP1 DUP8 SWAP7 DUP8 SWAP7 PUSH1 0x1 SWAP11 MSTORE DUP7 DUP7 ADD CALLDATACOPY PUSH1 0x0 DUP6 DUP3 DUP7 ADD ADD MSTORE ADD AND ADD ADD SWAP10 ADD SWAP4 ADD SWAP4 ADD SWAP2 SWAP6 SWAP5 SWAP4 SWAP3 SWAP1 PUSH2 0x1826 JUMP JUMPDEST SWAP3 SWAP2 SWAP1 SWAP3 PUSH2 0x18B3 DUP5 PUSH2 0x1766 JUMP JUMPDEST SWAP2 PUSH2 0x18C1 PUSH1 0x40 MLOAD SWAP4 DUP5 PUSH2 0x163A JUMP JUMPDEST DUP3 SWAP5 DUP1 DUP5 MSTORE PUSH1 0x20 DUP1 SWAP5 ADD SWAP1 PUSH1 0x5 SHL DUP4 ADD SWAP3 DUP3 DUP5 GT PUSH2 0x1A2 JUMPI DUP1 SWAP2 JUMPDEST DUP5 DUP4 LT PUSH2 0x18EB JUMPI POP POP POP POP POP POP JUMP JUMPDEST DUP3 CALLDATALOAD PUSH1 0x1 PUSH1 0x1 PUSH1 0x40 SHL SUB DUP2 GT PUSH2 0x1A2 JUMPI DUP3 ADD DUP5 PUSH1 0x1F DUP3 ADD SLT ISZERO PUSH2 0x1A2 JUMPI DUP7 SWAP2 PUSH2 0x191A DUP7 DUP4 DUP6 DUP1 SWAP6 CALLDATALOAD SWAP2 ADD PUSH2 0x16F8 JUMP JUMPDEST DUP2 MSTORE ADD SWAP3 ADD SWAP2 PUSH2 0x18DC JUMP JUMPDEST SWAP3 SWAP2 PUSH2 0x1930 DUP3 PUSH2 0x1766 JUMP JUMPDEST SWAP2 PUSH2 0x193E PUSH1 0x40 MLOAD SWAP4 DUP5 PUSH2 0x163A JUMP JUMPDEST DUP3 SWAP5 DUP2 DUP5 MSTORE PUSH1 0x20 DUP1 SWAP5 ADD SWAP2 PUSH1 0x5 SHL DUP2 ADD SWAP3 DUP4 GT PUSH2 0x1A2 JUMPI SWAP1 JUMPDEST DUP3 DUP3 LT PUSH2 0x1964 JUMPI POP POP POP POP JUMP JUMPDEST DUP2 CALLDATALOAD DUP2 MSTORE SWAP1 DUP4 ADD SWAP1 DUP4 ADD PUSH2 0x1957 JUMP JUMPDEST PUSH1 0x1 PUSH1 0x1 PUSH1 0xA0 SHL SUB AND ISZERO PUSH2 0x1984 JUMPI SWAP1 JUMP JUMPDEST POP PUSH1 0x12 SWAP1 JUMP JUMPDEST DUP1 MLOAD DUP3 LT ISZERO PUSH2 0x1582 JUMPI PUSH1 0x20 SWAP2 PUSH1 0x5 SHL ADD ADD SWAP1 JUMP JUMPDEST SWAP1 DUP2 MLOAD DUP1 DUP3 MSTORE PUSH1 0x20 DUP1 DUP1 SWAP4 ADD SWAP4 ADD SWAP2 PUSH1 0x0 JUMPDEST DUP3 DUP2 LT PUSH2 0x19BE JUMPI POP POP POP POP SWAP1 JUMP JUMPDEST DUP4 MLOAD DUP6 MSTORE SWAP4 DUP2 ADD SWAP4 SWAP3 DUP2 ADD SWAP3 PUSH1 0x1 ADD PUSH2 0x19B0 JUMP JUMPDEST SWAP2 SWAP1 DUP3 MLOAD SWAP3 DUP4 DUP3 MSTORE PUSH1 0x0 JUMPDEST DUP5 DUP2 LT PUSH2 0x19FE JUMPI POP POP DUP3 PUSH1 0x0 PUSH1 0x20 DUP1 SWAP5 SWAP6 DUP5 ADD ADD MSTORE PUSH1 0x1F DUP1 NOT SWAP2 ADD AND ADD ADD SWAP1 JUMP JUMPDEST PUSH1 0x20 DUP2 DUP4 ADD DUP2 ADD MLOAD DUP5 DUP4 ADD DUP3 ADD MSTORE ADD PUSH2 0x19DD JUMP JUMPDEST SWAP6 SWAP3 SWAP5 SWAP2 SWAP1 SWAP4 SWAP5 PUSH1 0x0 JUMPDEST DUP6 MLOAD DUP2 LT ISZERO PUSH2 0x1A96 JUMPI PUSH1 0x1 PUSH1 0x1 PUSH1 0xA0 SHL SUB DUP1 PUSH2 0x1A38 DUP4 DUP10 PUSH2 0x198A JUMP JUMPDEST MLOAD AND SWAP1 DUP2 EXTCODESIZE ISZERO PUSH2 0x1A2 JUMPI PUSH1 0x0 PUSH1 0x40 SWAP2 PUSH1 0x24 DUP13 DUP4 DUP6 MLOAD SWAP7 DUP8 SWAP5 DUP6 SWAP4 PUSH4 0xF2FDE38B PUSH1 0xE0 SHL DUP6 MSTORE AND PUSH1 0x4 DUP5 ADD MSTORE GAS CALL SWAP1 DUP2 ISZERO PUSH2 0x1A8C JUMPI POP SWAP1 PUSH1 0x1 SWAP3 SWAP2 PUSH2 0x1A7D JUMPI JUMPDEST POP ADD PUSH2 0x1A1C JUMP JUMPDEST PUSH2 0x1A86 SWAP1 PUSH2 0x15F6 JUMP JUMPDEST CODESIZE PUSH2 0x1A76 JUMP JUMPDEST MLOAD RETURNDATASIZE PUSH1 0x0 DUP3 RETURNDATACOPY RETURNDATASIZE SWAP1 REVERT JUMPDEST POP SWAP3 SWAP6 SWAP2 SWAP5 SWAP1 SWAP3 PUSH1 0x1 PUSH1 0x1 PUSH1 0xA0 SHL SUB SWAP1 SWAP3 AND SWAP2 DUP3 EXTCODESIZE ISZERO PUSH2 0x1A2 JUMPI PUSH1 0x0 SWAP5 PUSH2 0x1B2D PUSH2 0x1AEB SWAP4 DUP8 SWAP4 PUSH2 0x1B1E PUSH2 0x1AFE SWAP9 PUSH2 0x1B0E PUSH1 0x40 MLOAD SWAP13 DUP14 SWAP12 DUP13 SWAP11 DUP12 SWAP10 PUSH4 0xCC3E02FF PUSH1 0xE0 SHL DUP12 MSTORE PUSH1 0xA0 PUSH1 0x4 DUP13 ADD MSTORE PUSH1 0xA4 DUP12 ADD SWAP1 PUSH2 0x152D JUMP JUMPDEST PUSH1 0x3 NOT SWAP8 DUP9 DUP12 DUP4 SUB ADD PUSH1 0x24 DUP13 ADD MSTORE PUSH2 0x199E JUMP JUMPDEST SWAP1 DUP7 DUP10 DUP4 SUB ADD PUSH1 0x44 DUP11 ADD MSTORE PUSH2 0x199E JUMP JUMPDEST SWAP1 DUP5 DUP8 DUP4 SUB ADD PUSH1 0x64 DUP9 ADD MSTORE PUSH2 0x19D2 JUMP JUMPDEST SWAP2 DUP5 DUP4 SUB ADD PUSH1 0x84 DUP6 ADD MSTORE PUSH2 0x19D2 JUMP JUMPDEST SUB SWAP3 GAS CALL DUP1 ISZERO PUSH2 0x7C1 JUMPI PUSH2 0x1B3E JUMPI POP JUMP JUMPDEST PUSH2 0x1B47 SWAP1 PUSH2 0x15F6 JUMP JUMPDEST JUMP JUMPDEST PUSH1 0x8 SLOAD PUSH1 0x1 PUSH1 0x40 SHL DUP2 LT ISZERO PUSH2 0x1609 JUMPI PUSH1 0x1 DUP2 ADD DUP1 PUSH1 0x8 SSTORE DUP2 LT ISZERO PUSH2 0x1582 JUMPI PUSH1 0x8 PUSH1 0x0 MSTORE PUSH32 0xF3F7A9FE364FAAB93B216DA50A3214154F22A0A2B415B23A84C8169E8B636EE3 ADD DUP1 SLOAD PUSH1 0x1 PUSH1 0x1 PUSH1 0xA0 SHL SUB NOT AND PUSH1 0x1 PUSH1 0x1 PUSH1 0xA0 SHL SUB SWAP1 SWAP3 AND SWAP2 SWAP1 SWAP2 OR SWAP1 SSTORE JUMP JUMPDEST DUP1 SLOAD PUSH1 0x1 PUSH1 0x40 SHL DUP2 LT ISZERO PUSH2 0x1609 JUMPI PUSH2 0x1BCA SWAP2 PUSH1 0x1 DUP3 ADD DUP2 SSTORE PUSH2 0x156A JUMP JUMPDEST PUSH1 0x1 DUP1 PUSH1 0xA0 SWAP5 SWAP4 SWAP5 SHL SUB DUP1 DUP5 SLOAD SWAP3 PUSH1 0x3 SHL SWAP4 AND DUP4 SHL SWAP3 SHL NOT AND OR SWAP1 SSTORE JUMP INVALID LOG2 PUSH5 0x6970667358 0x22 SLT KECCAK256 0xAA SWAP5 0xAE DUP10 0xE5 DUP7 0xF6 0xE1 REVERT 0x29 0xC4 0x29 0x4C CODESIZE DUP4 0xAE 0xF6 0xDB 0xF6 LOG3 0xD6 0xCF ADDMOD 0xD3 0xD4 LT 0xCB DUP8 SDIV 0xD5 PUSH0 0x24 PUSH5 0x736F6C6343 STOP ADDMOD XOR STOP CALLER "},"methodIdentifiers":{"acceptOwnership()":"79ba5097","addSupportedCollateral(address)":"536db2e6","batchExecutor()":"5e6607ff","createEventMarket((address,uint8,uint256,uint256,uint256,bytes32,string[],string,string,bytes32,uint64,uint256,uint256,address,uint256))":"51e84b84","createPriceMarket((address,uint8,uint256,uint256,uint256,bytes32,string[],string,address,uint256,uint8,uint256,uint256,uint256[],uint256[],uint256))":"b6fdfc12","feeRecipient()":"46904840","getMarketOutcomeTokens(address)":"1f470b2d","isMarket(address)":"6ec934da","isOutcomeTokenForMarket(address,address)":"17dbc538","isSupportedCollateral(address)":"39f4c4da","marketDeployer()":"bb1e4531","markets(uint256)":"b1283e77","marketsLength()":"a5402544","optimisticOracleV2()":"0d2af8d3","owner()":"8da5cb5b","pendingOwner()":"e30c3978","removeSupportedCollateral(address)":"1800d79f","renounceOwnership()":"715018a6","setBatchExecutor(address)":"1d555306","setFeeRecipient(address)":"e74b981b","setMarketDeployer(address)":"9b307dc2","setOptimisticOracleV2(address)":"b2d35b7a","setUmaBondCurrency(address)":"4682be61","transferOwnership(address)":"f2fde38b","umaBondCurrency()":"ed460e56"}}}}}