{"contracts/core/AFTRVParimutuelMarket.sol":{"AFTRVParimutuelMarket":{"abi":[{"inputs":[{"internalType":"address","name":"factory_","type":"address"},{"internalType":"address","name":"owner_","type":"address"},{"internalType":"address","name":"feeRecipient_","type":"address"},{"internalType":"address","name":"collateralAddress_","type":"address"},{"internalType":"uint8","name":"collateralDecimals_","type":"uint8"},{"internalType":"uint8","name":"numOutcomes_","type":"uint8"},{"internalType":"uint256","name":"virtualReserve_","type":"uint256"},{"internalType":"uint256","name":"stakeEndTimestamp_","type":"uint256"},{"internalType":"uint256","name":"resolveAfterTimestamp_","type":"uint256"},{"internalType":"enum AFTRVParimutuelMarket.MarketKind","name":"kind_","type":"uint8"},{"internalType":"bytes32","name":"metadataHash_","type":"bytes32"},{"internalType":"address","name":"chainlinkFeed_","type":"address"},{"internalType":"uint256","name":"priceThreshold_","type":"uint256"},{"internalType":"enum AFTRVParimutuelMarket.PriceThresholdKind","name":"priceKind_","type":"uint8"},{"internalType":"uint256","name":"priceUpperBound_","type":"uint256"},{"internalType":"uint256","name":"maxPriceStaleness_","type":"uint256"},{"internalType":"address","name":"optimisticOracleV2_","type":"address"},{"internalType":"bytes32","name":"umaIdentifier_","type":"bytes32"},{"internalType":"uint64","name":"umaLiveness_","type":"uint64"},{"internalType":"uint256","name":"umaProposerBond_","type":"uint256"},{"internalType":"uint256","name":"umaReward_","type":"uint256"},{"internalType":"address","name":"umaRewardCurrency_","type":"address"},{"internalType":"uint256","name":"minBootstrapTotal_","type":"uint256"}],"stateMutability":"nonpayable","type":"constructor"},{"inputs":[],"name":"AlreadyBootstrapped","type":"error"},{"inputs":[],"name":"AlreadyInitialized","type":"error"},{"inputs":[],"name":"BelowMinBootstrap","type":"error"},{"inputs":[],"name":"EthAmount","type":"error"},{"inputs":[],"name":"FailedCall","type":"error"},{"inputs":[{"internalType":"uint256","name":"balance","type":"uint256"},{"internalType":"uint256","name":"needed","type":"uint256"}],"name":"InsufficientBalance","type":"error"},{"inputs":[],"name":"InvalidOutcome","type":"error"},{"inputs":[],"name":"InvalidShareRecipient","type":"error"},{"inputs":[],"name":"InvalidState","type":"error"},{"inputs":[],"name":"MarketNotOpen","type":"error"},{"inputs":[],"name":"NoRedemption","type":"error"},{"inputs":[],"name":"NotDivisibleBootstrap","type":"error"},{"inputs":[],"name":"NotEventMarket","type":"error"},{"inputs":[],"name":"NotInitialized","type":"error"},{"inputs":[],"name":"OnlyFactory","type":"error"},{"inputs":[{"internalType":"address","name":"owner","type":"address"}],"name":"OwnableInvalidOwner","type":"error"},{"inputs":[{"internalType":"address","name":"account","type":"address"}],"name":"OwnableUnauthorizedAccount","type":"error"},{"inputs":[],"name":"ReentrancyGuardReentrantCall","type":"error"},{"inputs":[{"internalType":"address","name":"token","type":"address"}],"name":"SafeERC20FailedOperation","type":"error"},{"inputs":[],"name":"Slippage","type":"error"},{"inputs":[],"name":"StakePeriodEnded","type":"error"},{"inputs":[],"name":"TooEarlyToResolve","type":"error"},{"inputs":[],"name":"UmaInvalidResolution","type":"error"},{"inputs":[],"name":"UnexpectedEth","type":"error"},{"inputs":[],"name":"ZeroShares","type":"error"},{"anonymous":false,"inputs":[{"indexed":true,"internalType":"address","name":"buyer","type":"address"},{"indexed":true,"internalType":"address","name":"recipient","type":"address"},{"indexed":true,"internalType":"uint8","name":"outcomeIndex","type":"uint8"},{"indexed":false,"internalType":"uint256","name":"collateralAmount","type":"uint256"},{"indexed":false,"internalType":"uint256","name":"sharesMinted","type":"uint256"},{"indexed":false,"internalType":"uint256","name":"price1e18","type":"uint256"}],"name":"Deposited","type":"event"},{"anonymous":false,"inputs":[{"indexed":true,"internalType":"address","name":"funder","type":"address"},{"indexed":true,"internalType":"address","name":"shareRecipient","type":"address"},{"indexed":false,"internalType":"uint256","name":"totalAmount","type":"uint256"},{"indexed":false,"internalType":"uint256","name":"perOutcome","type":"uint256"}],"name":"LiquidityBootstrapped","type":"event"},{"anonymous":false,"inputs":[{"indexed":false,"internalType":"address[]","name":"outcomeTokens","type":"address[]"},{"indexed":false,"internalType":"string","name":"metadataURI","type":"string"},{"indexed":false,"internalType":"bytes","name":"umaAncillaryData","type":"bytes"}],"name":"MarketInitialized","type":"event"},{"anonymous":false,"inputs":[{"indexed":false,"internalType":"uint256","name":"winningOutcomeIndex","type":"uint256"},{"indexed":false,"internalType":"uint256","name":"feeFromLosers","type":"uint256"},{"indexed":false,"internalType":"uint256","name":"distributableToWinners","type":"uint256"}],"name":"MarketSettled","type":"event"},{"anonymous":false,"inputs":[{"indexed":true,"internalType":"address","name":"previousOwner","type":"address"},{"indexed":true,"internalType":"address","name":"newOwner","type":"address"}],"name":"OwnershipTransferStarted","type":"event"},{"anonymous":false,"inputs":[{"indexed":true,"internalType":"address","name":"previousOwner","type":"address"},{"indexed":true,"internalType":"address","name":"newOwner","type":"address"}],"name":"OwnershipTransferred","type":"event"},{"anonymous":false,"inputs":[{"indexed":true,"internalType":"address","name":"user","type":"address"},{"indexed":true,"internalType":"uint8","name":"outcomeIndex","type":"uint8"},{"indexed":false,"internalType":"uint256","name":"shares","type":"uint256"},{"indexed":false,"internalType":"uint256","name":"payout","type":"uint256"}],"name":"TokensRedeemed","type":"event"},{"anonymous":false,"inputs":[{"indexed":true,"internalType":"address","name":"from","type":"address"},{"indexed":true,"internalType":"address","name":"currency","type":"address"},{"indexed":false,"internalType":"uint256","name":"amount","type":"uint256"}],"name":"UmaBondFunded","type":"event"},{"anonymous":false,"inputs":[{"indexed":false,"internalType":"uint256","name":"timestamp","type":"uint256"},{"indexed":false,"internalType":"bytes","name":"ancillaryData","type":"bytes"},{"indexed":false,"internalType":"uint256","name":"reward","type":"uint256"}],"name":"UmaResolutionRequested","type":"event"},{"inputs":[],"name":"BOOTSTRAP_FEE_BPS","outputs":[{"internalType":"uint256","name":"","type":"uint256"}],"stateMutability":"view","type":"function"},{"inputs":[],"name":"BPS_DENOMINATOR","outputs":[{"internalType":"uint256","name":"","type":"uint256"}],"stateMutability":"view","type":"function"},{"inputs":[],"name":"LOSER_FEE_TOTAL_BPS","outputs":[{"internalType":"uint256","name":"","type":"uint256"}],"stateMutability":"view","type":"function"},{"inputs":[],"name":"UMA_BINARY_WIN_OUTCOME0","outputs":[{"internalType":"uint256","name":"","type":"uint256"}],"stateMutability":"view","type":"function"},{"inputs":[],"name":"acceptOwnership","outputs":[],"stateMutability":"nonpayable","type":"function"},{"inputs":[],"name":"bootstrapFunder","outputs":[{"internalType":"address","name":"","type":"address"}],"stateMutability":"view","type":"function"},{"inputs":[{"internalType":"uint256","name":"totalAmount","type":"uint256"},{"internalType":"address","name":"shareRecipient","type":"address"}],"name":"bootstrapLiquidity","outputs":[],"stateMutability":"payable","type":"function"},{"inputs":[],"name":"bootstrapped","outputs":[{"internalType":"bool","name":"","type":"bool"}],"stateMutability":"view","type":"function"},{"inputs":[],"name":"chainlinkFeed","outputs":[{"internalType":"address","name":"","type":"address"}],"stateMutability":"view","type":"function"},{"inputs":[],"name":"collateralAddress","outputs":[{"internalType":"address","name":"","type":"address"}],"stateMutability":"view","type":"function"},{"inputs":[],"name":"collateralDecimals","outputs":[{"internalType":"uint8","name":"","type":"uint8"}],"stateMutability":"view","type":"function"},{"inputs":[{"internalType":"uint8","name":"outcomeIndex","type":"uint8"},{"internalType":"uint256","name":"amount","type":"uint256"},{"internalType":"address","name":"recipient","type":"address"},{"internalType":"uint256","name":"minSharesOut","type":"uint256"}],"name":"deposit","outputs":[],"stateMutability":"payable","type":"function"},{"inputs":[],"name":"factory","outputs":[{"internalType":"address","name":"","type":"address"}],"stateMutability":"view","type":"function"},{"inputs":[],"name":"feeRecipient","outputs":[{"internalType":"address","name":"","type":"address"}],"stateMutability":"view","type":"function"},{"inputs":[{"internalType":"uint256","name":"amount","type":"uint256"}],"name":"fundUmaBond","outputs":[],"stateMutability":"nonpayable","type":"function"},{"inputs":[{"internalType":"address[]","name":"outcomeTokenAddresses","type":"address[]"},{"internalType":"uint256[]","name":"binLower","type":"uint256[]"},{"internalType":"uint256[]","name":"binUpper","type":"uint256[]"},{"internalType":"string","name":"metadataURI_","type":"string"},{"internalType":"bytes","name":"umaAncillaryData_","type":"bytes"}],"name":"initialize","outputs":[],"stateMutability":"nonpayable","type":"function"},{"inputs":[],"name":"initialized","outputs":[{"internalType":"bool","name":"","type":"bool"}],"stateMutability":"view","type":"function"},{"inputs":[],"name":"marketKind","outputs":[{"internalType":"enum AFTRVParimutuelMarket.MarketKind","name":"","type":"uint8"}],"stateMutability":"view","type":"function"},{"inputs":[],"name":"maxPriceStaleness","outputs":[{"internalType":"uint256","name":"","type":"uint256"}],"stateMutability":"view","type":"function"},{"inputs":[],"name":"metadataHash","outputs":[{"internalType":"bytes32","name":"","type":"bytes32"}],"stateMutability":"view","type":"function"},{"inputs":[],"name":"metadataURI","outputs":[{"internalType":"string","name":"","type":"string"}],"stateMutability":"view","type":"function"},{"inputs":[],"name":"minBootstrapTotal","outputs":[{"internalType":"uint256","name":"","type":"uint256"}],"stateMutability":"view","type":"function"},{"inputs":[],"name":"numOutcomes","outputs":[{"internalType":"uint8","name":"","type":"uint8"}],"stateMutability":"view","type":"function"},{"inputs":[],"name":"optimisticOracleV2","outputs":[{"internalType":"contract IAFTROptimisticOracleV2","name":"","type":"address"}],"stateMutability":"view","type":"function"},{"inputs":[{"internalType":"uint256","name":"index","type":"uint256"}],"name":"outcomeToken","outputs":[{"internalType":"address","name":"","type":"address"}],"stateMutability":"view","type":"function"},{"inputs":[],"name":"owner","outputs":[{"internalType":"address","name":"","type":"address"}],"stateMutability":"view","type":"function"},{"inputs":[],"name":"pendingOwner","outputs":[{"internalType":"address","name":"","type":"address"}],"stateMutability":"view","type":"function"},{"inputs":[{"internalType":"uint256","name":"","type":"uint256"}],"name":"priceBinLower","outputs":[{"internalType":"uint256","name":"","type":"uint256"}],"stateMutability":"view","type":"function"},{"inputs":[{"internalType":"uint256","name":"","type":"uint256"}],"name":"priceBinUpper","outputs":[{"internalType":"uint256","name":"","type":"uint256"}],"stateMutability":"view","type":"function"},{"inputs":[{"internalType":"uint8","name":"outcomeIndex","type":"uint8"}],"name":"priceOf","outputs":[{"internalType":"uint256","name":"","type":"uint256"}],"stateMutability":"view","type":"function"},{"inputs":[],"name":"priceThreshold","outputs":[{"internalType":"uint256","name":"","type":"uint256"}],"stateMutability":"view","type":"function"},{"inputs":[],"name":"priceThresholdKind","outputs":[{"internalType":"enum AFTRVParimutuelMarket.PriceThresholdKind","name":"","type":"uint8"}],"stateMutability":"view","type":"function"},{"inputs":[],"name":"priceUpperBound","outputs":[{"internalType":"uint256","name":"","type":"uint256"}],"stateMutability":"view","type":"function"},{"inputs":[{"internalType":"uint256","name":"","type":"uint256"}],"name":"realPool","outputs":[{"internalType":"uint256","name":"","type":"uint256"}],"stateMutability":"view","type":"function"},{"inputs":[{"internalType":"uint8","name":"outcomeIndex","type":"uint8"},{"internalType":"uint256","name":"shareAmount","type":"uint256"}],"name":"redeem","outputs":[],"stateMutability":"nonpayable","type":"function"},{"inputs":[],"name":"redemptionRate","outputs":[{"internalType":"uint256","name":"","type":"uint256"}],"stateMutability":"view","type":"function"},{"inputs":[],"name":"renounceOwnership","outputs":[],"stateMutability":"nonpayable","type":"function"},{"inputs":[],"name":"requestEventResolution","outputs":[],"stateMutability":"nonpayable","type":"function"},{"inputs":[],"name":"resolveAfterTimestamp","outputs":[{"internalType":"uint256","name":"","type":"uint256"}],"stateMutability":"view","type":"function"},{"inputs":[],"name":"settlePrice","outputs":[],"stateMutability":"nonpayable","type":"function"},{"inputs":[],"name":"settleWithUmaResult","outputs":[],"stateMutability":"nonpayable","type":"function"},{"inputs":[],"name":"settledOraclePrice","outputs":[{"internalType":"int256","name":"","type":"int256"}],"stateMutability":"view","type":"function"},{"inputs":[],"name":"settlementTimestamp","outputs":[{"internalType":"uint256","name":"","type":"uint256"}],"stateMutability":"view","type":"function"},{"inputs":[],"name":"stakeEndTimestamp","outputs":[{"internalType":"uint256","name":"","type":"uint256"}],"stateMutability":"view","type":"function"},{"inputs":[],"name":"state","outputs":[{"internalType":"enum AFTRVParimutuelMarket.MarketState","name":"","type":"uint8"}],"stateMutability":"view","type":"function"},{"inputs":[{"internalType":"address","name":"newOwner","type":"address"}],"name":"transferOwnership","outputs":[],"stateMutability":"nonpayable","type":"function"},{"inputs":[],"name":"umaAncillaryData","outputs":[{"internalType":"bytes","name":"","type":"bytes"}],"stateMutability":"view","type":"function"},{"inputs":[],"name":"umaIdentifier","outputs":[{"internalType":"bytes32","name":"","type":"bytes32"}],"stateMutability":"view","type":"function"},{"inputs":[],"name":"umaLiveness","outputs":[{"internalType":"uint64","name":"","type":"uint64"}],"stateMutability":"view","type":"function"},{"inputs":[],"name":"umaProposerBond","outputs":[{"internalType":"uint256","name":"","type":"uint256"}],"stateMutability":"view","type":"function"},{"inputs":[],"name":"umaRequestTimestamp","outputs":[{"internalType":"uint256","name":"","type":"uint256"}],"stateMutability":"view","type":"function"},{"inputs":[],"name":"umaReward","outputs":[{"internalType":"uint256","name":"","type":"uint256"}],"stateMutability":"view","type":"function"},{"inputs":[],"name":"umaRewardCurrency","outputs":[{"internalType":"address","name":"","type":"address"}],"stateMutability":"view","type":"function"},{"inputs":[],"name":"virtualReserve","outputs":[{"internalType":"uint256","name":"","type":"uint256"}],"stateMutability":"view","type":"function"},{"inputs":[],"name":"winningOutcomeIndex","outputs":[{"internalType":"uint256","name":"","type":"uint256"}],"stateMutability":"view","type":"function"},{"stateMutability":"payable","type":"receive"}],"evm":{"bytecode":{"linkReferences":{},"object":"34620008e35762003ff938819003610400601f8201601f19168101906001600160401b03821190821017620008e8576102e09282916040526104003912620008e3576200004e610400620008fe565b6200005b610420620008fe565b6103e0526200006c610440620008fe565b62000079610460620008fe565b6200008661048062000913565b620000936104a062000913565b6104c0516104e0516105005161052051906002821015620008e3576105405190620000c0610560620008fe565b6103405261058051610360526105a05161038081905260031115620008e3576105c0516103a0526105e0516103c052620000fc610600620008fe565b6106205161064051979096919591906001600160401b0389168903620008e35761066051610680519b909a90620001356106a0620008fe565b9d6102c061040001519f60018060a01b036103e0511615620008ca57600180546001600160a01b0319908116909155600080546103e0516001600160a01b039081169382168417835560405193929116907f8be0079c531659141344cd1fd0a4f28419497f9722a3daafe3b4186f6b6457e09080a360017f9b779b17422d0df92223018b32b4d1fa46e071723d6817e2486d003becc55f00556001600160a01b038216151580620008c1575b80620008ae575b156200087d575060ff85166002811015908162000870575b50156200083a578515620008035742871115620007cd57868811156200079857881562000768576001600160a01b0383161562000729575b60805260a05260c05260e0526101005261012052610140526101605281610180526101a05215600014620005f1575050610340516001600160a01b0316159350620005c692505050576103c0511562000595576002610380511462000553575b610340516101c052610360516101e05261038051610200526103a051610220526103c0516102405260006102605260006102805260006102a05260006102c05260006102e0526000610300525b61032052600019600a556040516136d6620009238239608051818181610edf0152611774015260a05181818161237701528181613262015281816132b101526132e6015260c05181818161048c01528181611e11015281816123320152613577015260e05181610d5801526101005181818161040a0152818161043301528181610462015281816104e101528181610f1c0152818161137b015281816114e1015281816115140152818161182301528181611b0e01528181611dd501528181612cef01528181612ec6015281816130b0015281816133ee0152613491015261012051818181611b680152612d220152610140518181816103b301528181611da601526121bd01526101605181818161085d0152818161247a01526127d801526101805181818161081601528181610f5a01528181610f810152818161100401528181611a59015281816120e101528181612207015261243a01526101a0518161173b01526101c051818181611ba101526124af01526101e0518181816116a701528181612f2c01528181612f700152612f98015261020051818181610df50152612efc01526102205181818161196d0152612fcb015261024051818181611700015261250401526102605181818161090701528181610bc80152818161229e015261273a0152610280518181816108c5015281816119a801528181612271015261339401526102a05181818161099e0152611ad001526102c0518181816109ea0152611c9001526102e051818181610890015261203e01526103005181818161093b01528181610ba50152818161211d01526123e201526103205181818161029a015261076d01526136d690f35b6103a0516103605110620002985760405162461bcd60e51b815260206004820152600c60248201526b52616e676520626f756e647360a01b6044820152606490fd5b60405162461bcd60e51b81526020600482015260096024820152685374616c656e65737360b81b6044820152606490fd5b606460405162461bcd60e51b81526020600482015260046024820152631199595960e21b6044820152fd5b6001600160a01b03811615620006fe578115620006d0576001600160401b03831615620006a0576001600160a01b038616156200066c5760006101c05260006101e05260006102005260006102205260006102405260018060a01b031661026052610280526102a0526102c0526102e05261030052620002e5565b60405162461bcd60e51b815260206004820152600c60248201526b554d412063757272656e637960a01b6044820152606490fd5b60405162461bcd60e51b81526020600482015260086024820152674c6976656e65737360c01b6044820152606490fd5b60405162461bcd60e51b8152602060048201526006602482015265155350481a5960d21b6044820152606490fd5b606460405162461bcd60e51b815260206004820152600460248201526327a7bb1960e11b6044820152fd5b601260ff85160315620002385760405162461bcd60e51b815260206004820152600a6024820152694554482031382064656360b01b6044820152606490fd5b60405162461bcd60e51b81526020600482015260086024820152674d6574616461746160c01b6044820152606490fd5b60405162461bcd60e51b815260206004820152600d60248201526c2932b9b7b63b329037b93232b960991b6044820152606490fd5b60405162461bcd60e51b815260206004820152600e60248201526d14dd185ad948195b99081c185cdd60921b6044820152606490fd5b60405162461bcd60e51b815260206004820152600f60248201526e5669727475616c207265736572766560881b6044820152606490fd5b60405162461bcd60e51b815260206004820152600e60248201526d4f7574636f6d65732072616e676560901b6044820152606490fd5b6020915011153862000200565b62461bcd60e51b815260206004820152600c60248201526b5a65726f206164647265737360a01b6044820152606490fd5b506001600160a01b0383161515620001e8565b506001620001e1565b604051631e4fbdf760e01b815260006004820152602490fd5b600080fd5b634e487b7160e01b600052604160045260246000fd5b51906001600160a01b0382168203620008e357565b519060ff82168203620008e35756fe608080604052600436101561001d575b50361561001b57600080fd5b005b600090813560e01c90816303ee438c146127fb5750806306fdccc7146127c057806308460328146127a35780630c7bd33b146127695780630d2af8d314612724578063116a343a146126f95780631448d312146126dd578063158ef93e146126ba5780632567d7d6146124115780632c4c5e50146123cc57806335142c8c146123a6578063469048401461236157806348d399e71461231c578063493dcae1146121e05780634b841d24146121a55780634f12a39f146120b7578063540385a31461209957806355c1abe91461206157806367bd151e14612026578063698b067614611d4d578063715018a614611ce75780637375b16814611cb3578063769dbd6e14611c7857806379ba509714611bee5780637d4035c514611bd05780637dbdf1f514611b8b57806380c08a5d14611b505780638192a43714611b325780638767d64e14611af45780638d56aa3e14611ab05780638da5cb5b14611a895780638e8daa7c14611a43578063912397c314611a175780639228c39b146119ee578063a2ffbe8e146119cb578063a5dc90f214611990578063b972821914611955578063bb482f96146117cc578063c19d93fb146117a3578063c45a01551461175e578063c5a1d7f014611723578063c80d36b8146116e8578063ca455047146116ca578063cc2f60931461168f578063cc3e02ff14610e25578063d7f59f5b14610de0578063e1a4521814610dc3578063e30c397814610d9a578063e3eecc6f14610d7c578063ec9c6c3014610d3e578063ee879258146107ef578063f0d677d71461036a578063f11d7bdf14610331578063f2fde38b146102c05763ff3bb37e0361000f57346102bd57806003193601126102bd5760206040517f00000000000000000000000000000000000000000000000000000000000000008152f35b80fd5b50346102bd5760203660031901126102bd576004356001600160a01b038181169182900361032c576102f0613558565b600180546001600160a01b031916831790558254167f38d16b8cac22d99fc7c124b9cd0de2d3fa1faef420bfe791d8c362d765e227008380a380f35b600080fd5b50346102bd5760203660031901126102bd57600435906005548210156102bd57602061035c83612a43565b90546040519160031b1c8152f35b5060403660031901126102bd576024356001600160a01b038116900361032c57610392612e8d565b60065460ff8116156107dd5760081c60ff166103ad81612b50565b6107cb577f00000000000000000000000000000000000000000000000000000000000000004210156107b95760ff600e5460a01c166107a7576024356001600160a01b0316156107955760043515801561076a575b6107585760ff7f000000000000000000000000000000000000000000000000000000000000000016156107445760ff7f000000000000000000000000000000000000000000000000000000000000000016600435066107325761048a60ff7f000000000000000000000000000000000000000000000000000000000000000016600435612c2b565b7f00000000000000000000000000000000000000000000000000000000000000006001600160a01b031680610704575060043534036106f257905b80670de0b6b3a7640000928084810204841481151715925b60ff7f00000000000000000000000000000000000000000000000000000000000000001660ff821610156106765761051481612ce0565b84610520821515612c9f565b6106625761053081878502612c2b565b9081156106505761056f61054384612988565b91908054926105588860039583871b1c612cd3565b825460001960039390931b92831b1916911b179055565b61057884612a0c565b9054911b1c6001600160a01b0316803b1561064c576040516340c10f1960e01b8152602480356001600160a01b03166004830152810184905290869082908183816044810103925af1801561064157908691610629575b505060408051858152602081019390935282015260ff91600191818416906001600160a01b03602435169033907f8241d0defadd8507317470d315422749a6c8f8b8c9c0872aab09c665eaf3b66b90606090a401166104dd565b61063290612914565b61063d5784386105cf565b8480fd5b6040513d88823e3d90fd5b8580fd5b604051639811e0c760e01b8152600490fd5b634e487b7160e01b84526011600452602484fd5b50600e80546001600160a81b0319163360ff60a01b19811691909117600160a01b1790915560408051600435815260208101939093526024356001600160a01b0316927f95194d0fd3e6e16008575e16c429d993d868b1a25d9993d071d1039853d22a749190a360016000805160206136818339815191525580f35b6040516332afe6d360e21b8152600490fd5b346107205761071a9060043590309033906134cb565b906104c5565b60405163cc43410f60e01b8152600490fd5b604051632e7d0d2d60e21b8152600490fd5b634e487b7160e01b81526012600452602490fd5b604051638568e8bd60e01b8152600490fd5b507f000000000000000000000000000000000000000000000000000000000000000060043510610402565b604051637a2a206960e11b8152600490fd5b604051635c03d07560e11b8152600490fd5b604051639622d9cf60e01b8152600490fd5b60405163300b4e3360e21b8152600490fd5b6040516321c4e35760e21b8152600490fd5b50346102bd57806003193601126102bd57610808612e8d565b60065460ff8116156107dd577f0000000000000000000000000000000000000000000000000000000000000000906002821015610d2a576001809203610d185760081c60ff1661085781612b50565b610d18577f00000000000000000000000000000000000000000000000000000000000000004210610d065761088a612a8a565b426009557f00000000000000000000000000000000000000000000000000000000000000009081610b9b575b6040516311df92f160e01b81527f00000000000000000000000000000000000000000000000000000000000000006004820181905242602483015260a0604483015290919085906001600160a01b037f0000000000000000000000000000000000000000000000000000000000000000811690859061093860a4830187612948565b907f0000000000000000000000000000000000000000000000000000000000000000166064830152876084830152816020978892038187865af1908115610b4d578691610b6c575b5050803b15610add5760405163239e22ff60e11b81528381806109d27f00000000000000000000000000000000000000000000000000000000000000006001600160401b031689428960048601612e66565b038183865af1908115610b4d578491610b58575b50507f00000000000000000000000000000000000000000000000000000000000000008581610ae1575b5050803b15610add57838391610a3f938360405180968195829463120698af60e01b8452429060048501612c4b565b03925af18015610ad257610aba575b5050907fe4d3d3c620d2a4b140fa3731b55b8f71306ed6ab936d7b660b613ecdbbf69db692610a9e60609361010061ff001960065416176006556040519485944286528501526060840190612948565b9060408301520390a16000805160206136818339815191525580f35b610ac690939293612914565b61063d57908438610a4e565b6040513d84823e3d90fd5b8280fd5b6040516356ad3aad60e11b81529182908190610b039089428960048601612e66565b038187865af1908115610b4d578691610b1e575b5080610a10565b90809294503d8311610b46575b610b358183612927565b8101031261032c5786918438610b17565b503d610b2b565b6040513d86823e3d90fd5b610b6190612914565b610add5782386109e6565b90809294503d8311610b94575b610b838183612927565b8101031261032c5786918438610980565b503d610b79565b60018060a01b03807f000000000000000000000000000000000000000000000000000000000000000016907f00000000000000000000000000000000000000000000000000000000000000001690600091604051602063095ea7b360e01b94858152836004528760245260448180875af18760005114811615610cf9575b8160405215610c2c575b505050506108b6565b60206000858152836004528060245260448180875af18760005114811615610cda575b8160405215610cc457506020906000906040519482526004528560245260448180855af18560005114811615610ca5575b8260405215610c90578080610c23565b635274afe760e01b8252600482015260249150fd5b85811516610cba57813b15153d151616610c80565b823d6000823e3d90fd5b635274afe760e01b815260048101839052602490fd5b87811516610cef57833b15153d151616610c4f565b503d6000823e3d90fd5b833b15153d151616610c19565b604051630fce133d60e01b8152600490fd5b60405163baf3f0f760e01b8152600490fd5b634e487b7160e01b83526021600452602483fd5b50346102bd57806003193601126102bd57602060405160ff7f0000000000000000000000000000000000000000000000000000000000000000168152f35b50346102bd57806003193601126102bd576020600c54604051908152f35b50346102bd57806003193601126102bd576001546040516001600160a01b039091168152602090f35b50346102bd57806003193601126102bd5760206040516127108152f35b50346102bd57806003193601126102bd5760207f000000000000000000000000000000000000000000000000000000000000000060405190610e2181612b50565b8152f35b50346102bd5760a03660031901126102bd576004356001600160401b03811161168b57610e56903690600401612b70565b906024356001600160401b03811161168757610e76903690600401612b70565b916044356001600160401b03811161064c57610e96903690600401612b70565b926064356001600160401b03811161168357610eb6903690600401612ba0565b9290916084356001600160401b03811161167f57610ed8903690600401612ba0565b90979096907f00000000000000000000000000000000000000000000000000000000000000006001600160a01b0316330361166d5760065460ff811661165c5760ff7f0000000000000000000000000000000000000000000000000000000000000000168b036116295760ff19166001176006558a5b8a8110611581575060027f0000000000000000000000000000000000000000000000000000000000000000101561156d577f000000000000000000000000000000000000000000000000000000000000000015611371575b505050506001600160401b03821161135d576007610fc481546128da565b90601f91828111611311575b5088848381116001146112915780610ffd928c91611286575b508160011b916000199060031b1c19161790565b81555b60017f0000000000000000000000000000000000000000000000000000000000000000146110c3575b5050604051958060608801606089525260808701939088905b80821061109957897fd4440a27c9cbc5d7a01c508e84787333a316746cdf5ce32c8c5a4568304e0fb98a806110938c8c6110858d8d8d8783036020890152612e45565b918483036040860152612e45565b0390a180f35b90919485359060018060a01b03821680920361032c57600191815260208091019601920190611042565b851561125857506120008511611223576001600160401b03851161120f576110ec6008546128da565b8181116111b8575b5084889181116001146111365780611120928a9161112b57508160011b916000199060031b1c19161790565b6008555b3880611029565b905087013538610fe9565b50600888527ff3f7a9fe364faab93b216da50a3214154f22a0a2b415b23a84c8169e8b636ee39085601f1981168a5b81811061119d575010611183575b5050600184811b01600855611124565b860135600019600387901b60f8161c191690553880611173565b89840135855560019094019360209384019389935001611165565b6112009060086000527ff3f7a9fe364faab93b216da50a3214154f22a0a2b415b23a84c8169e8b636ee38380890160051c82019260208a10611206575b0160051c0190612e2e565b386110f4565b925081926111f5565b634e487b7160e01b88526041600452602488fd5b60405162461bcd60e51b815260206004820152600d60248201526c20b731b4b63630b93c903632b760991b6044820152606490fd5b6064906040519062461bcd60e51b825260206004830152602482015266554d4120616e6360c81b6044820152fd5b905085013538610fe9565b50818a527fa66cc928b5edb82af9bd49922954155ab7b0942694bea4ce44661d9a8736c6889085601f1981168c5b8181106112f65750106112dc575b5050600184811b018155611000565b840135600019600387901b60f8161c1916905538806112cd565b878401358555600190940193602093840193899350016112bf565b61135790826000527fa66cc928b5edb82af9bd49922954155ab7b0942694bea4ce44661d9a8736c6888480880160051c82019260208910611206570160051c0190612e2e565b38610fd0565b634e487b7160e01b87526041600452602487fd5b801561150a5760ff7f0000000000000000000000000000000000000000000000000000000000000000168114806114de575b6113ac90612dfc565b8a5b8181106113fb5750505050505b836113c95738808080610fa6565b60405162461bcd60e51b815260206004820152600a6024820152694e6f20554d4120616e6360b01b6044820152606490fd5b611406818386612dec565b35611412828588612dec565b35106114ac57611423818386612dec565b3590600454600160401b92838210156114965761144982600161146294016004556129d5565b90919082549060031b91821b91600019901b1916179055565b61146d818588612dec565b359160059283549182101561149657611449826001958661149095019055612a43565b016113ae565b634e487b7160e01b600052604160045260246000fd5b60405162461bcd60e51b815260206004820152600a60248201526942696e20626f756e647360b01b6044820152606490fd5b507f000000000000000000000000000000000000000000000000000000000000000060ff1682146113a3565b50505050600260ff7f00000000000000000000000000000000000000000000000000000000000000001603156113bb5760405162461bcd60e51b815260206004820152600b60248201526a2134b7399037b910271e9960a91b6044820152606490fd5b634e487b7160e01b8b52602160045260248bfd5b61158c818c8a612dec565b35906001600160a01b038216820361162557600254600160401b811015611611578060016115bd9201600255612a0c565b81546001600160a01b03600392831b81811b199092169516901b939093179055815491600160401b831015611496576115fc8360018095018355612988565b9091825491600019911b1b1916905501610f4e565b634e487b7160e01b8e52604160045260248efd5b8c80fd5b60405162461bcd60e51b815260206004820152600b60248201526a151bdad95b8818dbdd5b9d60aa1b6044820152606490fd5b60405162dc149f60e41b8152600490fd5b604051630636a15760e11b8152600490fd5b8980fd5b8780fd5b8380fd5b5080fd5b50346102bd57806003193601126102bd5760206040517f00000000000000000000000000000000000000000000000000000000000000008152f35b50346102bd57806003193601126102bd576020600954604051908152f35b50346102bd57806003193601126102bd5760206040517f00000000000000000000000000000000000000000000000000000000000000008152f35b50346102bd57806003193601126102bd5760206040517f00000000000000000000000000000000000000000000000000000000000000008152f35b50346102bd57806003193601126102bd576040517f00000000000000000000000000000000000000000000000000000000000000006001600160a01b03168152602090f35b50346102bd57806003193601126102bd57602060ff60065460081c1660405190610e2181612b50565b50346102bd5760403660031901126102bd576117e6612a7a565b602435906117f2612e8d565b60065460ff8116156107dd5760ff60029160081c1661181081612b50565b03610d185781156106505760ff811660ff7f0000000000000000000000000000000000000000000000000000000000000000168110156119435760ff600a54160361194357600b54801561193157611871670de0b6b3a76400009184612c18565b04918215611903576118838492612a0c565b905460039190911b1c6001600160a01b0316803b15610add5760405163079cc67960e41b8152336004820152602481019290925282908290604490829084905af18015610ad2576118ef575b506118da823361356c565b60016000805160206136818339815191525580f35b6118f890612914565b61168b5781386118cf565b60405162461bcd60e51b815260206004820152600660248201526514185e5bdd5d60d21b6044820152606490fd5b60405163b3b7d75f60e01b8152600490fd5b60405163c74a206d60e01b8152600490fd5b50346102bd57806003193601126102bd5760206040517f00000000000000000000000000000000000000000000000000000000000000008152f35b50346102bd57806003193601126102bd5760206040517f00000000000000000000000000000000000000000000000000000000000000008152f35b50346102bd57806003193601126102bd576020604051670de0b6b3a76400008152f35b50346102bd57806003193601126102bd57600e546040516001600160a01b039091168152602090f35b50346102bd5760203660031901126102bd576020611a3b611a36612a7a565b612ce0565b604051908152f35b50346102bd57806003193601126102bd576040517f00000000000000000000000000000000000000000000000000000000000000006002811015610d2a57602092508152f35b50346102bd57806003193601126102bd57546040516001600160a01b039091168152602090f35b50346102bd57806003193601126102bd5760206040516001600160401b037f0000000000000000000000000000000000000000000000000000000000000000168152f35b50346102bd57806003193601126102bd57602060405160ff7f0000000000000000000000000000000000000000000000000000000000000000168152f35b50346102bd57806003193601126102bd576020600d54604051908152f35b50346102bd57806003193601126102bd5760206040517f00000000000000000000000000000000000000000000000000000000000000008152f35b50346102bd57806003193601126102bd576040517f00000000000000000000000000000000000000000000000000000000000000006001600160a01b03168152602090f35b50346102bd57806003193601126102bd576020600a54604051908152f35b50346102bd57806003193601126102bd576001546001600160a01b033381831603611c60576bffffffffffffffffffffffff60a01b8092166001556000549133908316176000553391167f8be0079c531659141344cd1fd0a4f28419497f9722a3daafe3b4186f6b6457e0600080a380f35b60405163118cdaa760e01b8152336004820152602490fd5b50346102bd57806003193601126102bd5760206040517f00000000000000000000000000000000000000000000000000000000000000008152f35b50346102bd57806003193601126102bd57611ce3611ccf612a8a565b604051918291602083526020830190612948565b0390f35b50346102bd57806003193601126102bd57611d00613558565b600180546001600160a01b0319908116909155600080549182168155906001600160a01b03167f8be0079c531659141344cd1fd0a4f28419497f9722a3daafe3b4186f6b6457e08280a380f35b5060803660031901126102bd57611d62612a7a565b604435906001600160a01b03808316916024359183850361064c57611d85612e8d565b60065460ff8116156107dd5760081c60ff16611da081612b50565b6107cb577f00000000000000000000000000000000000000000000000000000000000000004210156107b95760ff82169460ff7f00000000000000000000000000000000000000000000000000000000000000001686101561194357831592611e098415612c6a565b8515611ff5577f0000000000000000000000000000000000000000000000000000000000000000831680611faf57508434036106f2575b611e4981612ce0565b93611e55851515612c9f565b670de0b6b3a76400009081870291878304141715611f9b5784611e7791612c2b565b928315610650576064358410611f8957611ead82611ea8611e988c95612988565b6105588b83548360031b1c612cd3565b612a0c565b90549060031b1c1691823b1561168b576040516340c10f1960e01b81526001600160a01b0391909116600482015260248101849052918290604490829084905af18015611f7e57611f49575b5060408051938452602084019190915282015233907f8241d0defadd8507317470d315422749a6c8f8b8c9c0872aab09c665eaf3b66b90606090a460016000805160206136818339815191525580f35b95611f767f8241d0defadd8507317470d315422749a6c8f8b8c9c0872aab09c665eaf3b66b939297612914565b959091611ef9565b6040513d89823e3d90fd5b6040516307dd37f760e41b8152600490fd5b634e487b7160e01b89526011600452602489fd5b34611fc75785611fc291309033906134cb565b611e40565b60405162461bcd60e51b815260206004820152600660248201526509cde408aa8960d31b6044820152606490fd5b60405162461bcd60e51b8152602060048201526009602482015268149958da5c1a595b9d60ba1b6044820152606490fd5b50346102bd57806003193601126102bd5760206040517f00000000000000000000000000000000000000000000000000000000000000008152f35b50346102bd5760203660031901126102bd576020612080600435612a0c565b905460405160039290921b1c6001600160a01b03168152f35b50346102bd57806003193601126102bd576020600b54604051908152f35b50346102bd5760203660031901126102bd576004356120d4612e8d565b60ff60065416156107dd577f00000000000000000000000000000000000000000000000000000000000000006002811015610d2a576001036121935761211b811515612c6a565b7f00000000000000000000000000000000000000000000000000000000000000006001600160a01b031690612152813033856134cb565b6040519081527fb70ccb2b3a65ba201e6b7107278d5064431bc3acf6e932d8f869a913a679738760203392a360016000805160206136818339815191525580f35b60405163588dccfd60e01b8152600490fd5b50346102bd57806003193601126102bd5760206040517f00000000000000000000000000000000000000000000000000000000000000008152f35b50346102bd57806003193601126102bd576121f9612e8d565b60065460ff8116156107dd577f00000000000000000000000000000000000000000000000000000000000000006002811015610d2a57600103610d185760ff60019160081c1661224881612b50565b03610d1857612299602061225a612a8a565b6009546040516353b5923960e01b815293849283927f000000000000000000000000000000000000000000000000000000000000000060048501612c4b565b0381857f00000000000000000000000000000000000000000000000000000000000000006001600160a01b03165af18015610ad25782906122e8575b6118da91506122e381613380565b6130ab565b506020813d602011612314575b8161230260209383612927565b8101031261168b576118da90516122d5565b3d91506122f5565b50346102bd57806003193601126102bd576040517f00000000000000000000000000000000000000000000000000000000000000006001600160a01b03168152602090f35b50346102bd57806003193601126102bd576040517f00000000000000000000000000000000000000000000000000000000000000006001600160a01b03168152602090f35b50346102bd57806003193601126102bd57602060ff600e5460a01c166040519015158152f35b50346102bd57806003193601126102bd576040517f00000000000000000000000000000000000000000000000000000000000000006001600160a01b03168152602090f35b50346102bd57806003193601126102bd5761242a612e8d565b60065460ff90818116156107dd577f000000000000000000000000000000000000000000000000000000000000000060028110156126a657610d185760081c811661247481612b50565b610d18577f00000000000000000000000000000000000000000000000000000000000000004210610d0657604051633fabe5a360e21b8152907f00000000000000000000000000000000000000000000000000000000000000006001600160a01b031660a083600481845afa8015610b4d5784938591612652575b5084841315612624576125029042612be4565b7f0000000000000000000000000000000000000000000000000000000000000000106125f75760206004916040519283809263313ce56760e01b82525afa8015610b4d57829185916125b9575b501660068110612596576005190190811161258257906122e361257d6125776118da94612c07565b83612c2b565b612ebd565b634e487b7160e01b83526011600452602483fd5b60060390811161258257906122e361257d6125b36118da94612c07565b83612c18565b9150506020813d6020116125ef575b816125d560209383612927565b81010312611687575181811681036116875781903861254f565b3d91506125c8565b60405162461bcd60e51b81526020600482015260056024820152645374616c6560d81b6044820152606490fd5b60405162461bcd60e51b815260206004820152600660248201526520b739bbb2b960d11b6044820152606490fd5b93505060a0833d60a01161269e575b8161266e60a09383612927565b810103126116875761267f83612bcd565b506020830151612696608060608601519501612bcd565b5092386124ef565b3d9150612661565b634e487b7160e01b84526021600452602484fd5b50346102bd57806003193601126102bd57602060ff600654166040519015158152f35b50346102bd57806003193601126102bd57602060405160328152f35b50346102bd5760203660031901126102bd57600435906004548210156102bd57602061035c836129d5565b50346102bd57806003193601126102bd576040517f00000000000000000000000000000000000000000000000000000000000000006001600160a01b03168152602090f35b50346102bd5760203660031901126102bd57600435906003548210156102bd57602061279483612988565b90549060031b1c604051908152f35b50346102bd57806003193601126102bd57602060405161012c8152f35b50346102bd57806003193601126102bd5760206040517f00000000000000000000000000000000000000000000000000000000000000008152f35b82346102bd57806003193601126102bd57600754828261281a836128da565b92838352602094600191866001821691826000146128b857505060011461285e575b505061284a92500383612927565b611ce3604051928284938452830190612948565b90859250600782527fa66cc928b5edb82af9bd49922954155ab7b0942694bea4ce44661d9a8736c6885b8583106128a057505061284a9350820101858061283c565b80548389018501528794508693909201918101612888565b925093505061284a94915060ff191682840152151560051b820101858061283c565b90600182811c9216801561290a575b60208310146128f457565b634e487b7160e01b600052602260045260246000fd5b91607f16916128e9565b6001600160401b03811161149657604052565b90601f801991011681019081106001600160401b0382111761149657604052565b919082519283825260005b848110612974575050826000602080949584010152601f8019910116010190565b602081830181015184830182015201612953565b6003548110156129bf5760036000527fc2575a0e9e593c00f959f8c92f12db2869c3395a3b0502d05e2516446f71f85b0190600090565b634e487b7160e01b600052603260045260246000fd5b6004548110156129bf5760046000527f8a35acfbc15ff81a39ae7d344fd709f28e8600b4aa8c65c6b64bfe7fe36bd19b0190600090565b6002548110156129bf5760026000527f405787fa12a823e0f2b7631cc41b3ba8828b3321ca811111fa75cd3aa3bb5ace0190600090565b6005548110156129bf5760056000527f036b6384b5eca791c62761152d0c79bb0604c104a5fb6f4eb0703f3154bb3db00190600090565b6004359060ff8216820361032c57565b6040519060008260085491612a9e836128da565b80835292602090600190818116908115612b2c5750600114612acb575b5050612ac992500383612927565b565b91509260086000527ff3f7a9fe364faab93b216da50a3214154f22a0a2b415b23a84c8169e8b636ee3936000925b828410612b145750612ac99450505081016020013880612abb565b85548885018301529485019487945092810192612af9565b91505060209250612ac994915060ff191682840152151560051b8201013880612abb565b60031115612b5a57565b634e487b7160e01b600052602160045260246000fd5b9181601f8401121561032c578235916001600160401b03831161032c576020808501948460051b01011161032c57565b9181601f8401121561032c578235916001600160401b03831161032c576020838186019501011161032c57565b519069ffffffffffffffffffff8216820361032c57565b91908203918211612bf157565b634e487b7160e01b600052601160045260246000fd5b60ff16604d8111612bf157600a0a90565b81810292918115918404141715612bf157565b8115612c35570490565b634e487b7160e01b600052601260045260246000fd5b612c679392606092825260208201528160408201520190612948565b90565b15612c7157565b60405162461bcd60e51b8152602060048201526006602482015265105b5bdd5b9d60d21b6044820152606490fd5b15612ca657565b60405162461bcd60e51b8152602060048201526005602482015264507269636560d81b6044820152606490fd5b91908201809211612bf157565b60ff60065416156107dd5760ff7f000000000000000000000000000000000000000000000000000000000000000016908160ff821610156119435760009160007f0000000000000000000000000000000000000000000000000000000000000000915b808210612dbd5750508215612d8f57612d5e612d6b92612988565b90549060031b1c90612cd3565b90670de0b6b3a764000091828102928184041490151715612bf157612c6791612c2b565b60405162461bcd60e51b815260206004820152600660248201526515d95a59da1d60d21b6044820152606490fd5b9093612de4600191612dde612dd188612988565b90549060031b1c86612cd3565b90612cd3565b940190612d43565b91908110156129bf5760051b0190565b15612e0357565b606460405162461bcd60e51b815260206004820152600460248201526342696e7360e01b6044820152fd5b818110612e39575050565b60008155600101612e2e565b908060209392818452848401376000828201840152601f01601f1916010190565b949392606092612e889287526020870152608060408701526080860190612948565b930152565b6000805160206136818339815191526002815414612eab5760029055565b604051633ee5aeb560e01b8152600490fd5b600480549060ff7f000000000000000000000000000000000000000000000000000000000000000016809214612ff257506002612efa9114612dfc565b7f0000000000000000000000000000000000000000000000000000000000000000612f2481612b50565b80612f5d57507f000000000000000000000000000000000000000000000000000000000000000011155b15612f5857600090565b600190565b80612f69600192612b50565b03612f96577f00000000000000000000000000000000000000000000000000000000000000001015612f4e565b7f00000000000000000000000000000000000000000000000000000000000000008110159081612fc7575b50612f4e565b90507f0000000000000000000000000000000000000000000000000000000000000000101538612fc1565b906000918293835b83811061303e575050505060010361300f5790565b60405162461bcd60e51b815260206004820152600760248201526627b732903134b760c91b6044820152606490fd5b613047816129d5565b9054600391821b1c8310159081613092575b50613067575b600101612ffa565b945092600019811461307d57600101928461305f565b601182634e487b7160e01b6000525260246000fd5b905061309d82612a43565b9054911b1c82111538613059565b6000907f000000000000000000000000000000000000000000000000000000000000000060ff16825b81811061335857505061012c918281029080159381830414841715612bf1576127108092049360328202908282046032141715612bf15760049260209104613126866131208382612be4565b94612be4565b9261313086612a0c565b90546040516318160ddd60e01b8152966001600160a01b0395928892839160031b1c87165afa94851561334c57600095613318575b5061316f86612988565b90549060031b1c928761328c575b50508315905061321a578161319191612cd3565b94670de0b6b3a764000095868102968188041490151715612bf1576131da613215937f1156c82479e3534ddd36ca57cd84557fd8b25737545b9b3572c4f2878613af5497612c2b565b600b555b83600a55600c5542600d5561020061ff00196006541617600655604051938493846040919493926060820195825260208201520152565b0390a1565b613215925094613250827f1156c82479e3534ddd36ca57cd84557fd8b25737545b9b3572c4f2878613af54976000600b55612cd3565b8061325c575b506131de565b613286907f000000000000000000000000000000000000000000000000000000000000000061356c565b38613256565b80600e541615158061330f575b156132dd576132d5926132af91600e541661356c565b7f000000000000000000000000000000000000000000000000000000000000000061356c565b38808061317d565b50505061330a857f000000000000000000000000000000000000000000000000000000000000000061356c565b6132d5565b50821515613299565b9094506020813d602011613344575b8161333460209383612927565b8101031261032c57519338613165565b3d9150613327565b6040513d6000823e3d90fd5b828103613368575b6001016130d4565b92613378600191612d5e86612988565b939050613360565b600160ff1b811480156134bb575b61343d577f0000000000000000000000000000000000000000000000000000000000000000744d554c5449504c455f43484f4943455f515545525960581b8114613484576e5945535f4f525f4e4f5f515545525960881b146134715760ff7f0000000000000000000000000000000000000000000000000000000000000000169060028214613457576000811261343d57670de0b6b3a76400009081811061344f5704905b81101561343d5790565b60405163437d7ad760e11b8152600490fd5b905090613433565b670de0b6b3a764000091501461346c57600190565b600090565b670de0b6b3a76400001461346c57600190565b506000811261343d5760ff7f00000000000000000000000000000000000000000000000000000000000000001681101561343d5790565b506001600160ff1b03811461338e565b6040516323b872dd60e01b60009081526001600160a01b03938416600452938316602452604494909452909160209060648180855af1600160005114811615613538575b8360405260006060521561352257505050565b635274afe760e01b835216600482015260249150fd5b600181151661354e57813b15153d15161661350f565b833d6000823e3d90fd5b6000546001600160a01b03163303611c6057565b906001600160a01b037f00000000000000000000000000000000000000000000000000000000000000008116806135a85750612ac992166135fd565b91906020916000916040519563a9059cbb60e01b84521660045260245260448180855af16001600051148116156135e7575b8260405215610c90575050565b6001811516610cba57813b15153d1516166135da565b81471061366157604051602081018181106001600160401b0382111761149657604052600080809481948280955260018060a01b03165af11561363d5750565b3d1561364f57604051903d90823e3d90fd5b60405163d6bda27560e01b8152600490fd5b60405163cf47918160e01b815247600482015260248101839052604490fdfe9b779b17422d0df92223018b32b4d1fa46e071723d6817e2486d003becc55f00a2646970667358221220223039fe7b6c479ab645221800aa0439df7dc9b5a1c5cec732bc0e737954af8564736f6c63430008180033","opcodes":"CALLVALUE PUSH3 0x8E3 JUMPI PUSH3 0x3FF9 CODESIZE DUP2 SWAP1 SUB PUSH2 0x400 PUSH1 0x1F DUP3 ADD PUSH1 0x1F NOT AND DUP2 ADD SWAP1 PUSH1 0x1 PUSH1 0x1 PUSH1 0x40 SHL SUB DUP3 GT SWAP1 DUP3 LT OR PUSH3 0x8E8 JUMPI PUSH2 0x2E0 SWAP3 DUP3 SWAP2 PUSH1 0x40 MSTORE PUSH2 0x400 CODECOPY SLT PUSH3 0x8E3 JUMPI PUSH3 0x4E PUSH2 0x400 PUSH3 0x8FE JUMP JUMPDEST PUSH3 0x5B PUSH2 0x420 PUSH3 0x8FE JUMP JUMPDEST PUSH2 0x3E0 MSTORE PUSH3 0x6C PUSH2 0x440 PUSH3 0x8FE JUMP JUMPDEST PUSH3 0x79 PUSH2 0x460 PUSH3 0x8FE JUMP JUMPDEST PUSH3 0x86 PUSH2 0x480 PUSH3 0x913 JUMP JUMPDEST PUSH3 0x93 PUSH2 0x4A0 PUSH3 0x913 JUMP JUMPDEST PUSH2 0x4C0 MLOAD PUSH2 0x4E0 MLOAD PUSH2 0x500 MLOAD PUSH2 0x520 MLOAD SWAP1 PUSH1 0x2 DUP3 LT ISZERO PUSH3 0x8E3 JUMPI PUSH2 0x540 MLOAD SWAP1 PUSH3 0xC0 PUSH2 0x560 PUSH3 0x8FE JUMP JUMPDEST PUSH2 0x340 MSTORE PUSH2 0x580 MLOAD PUSH2 0x360 MSTORE PUSH2 0x5A0 MLOAD PUSH2 0x380 DUP2 SWAP1 MSTORE PUSH1 0x3 GT ISZERO PUSH3 0x8E3 JUMPI PUSH2 0x5C0 MLOAD PUSH2 0x3A0 MSTORE PUSH2 0x5E0 MLOAD PUSH2 0x3C0 MSTORE PUSH3 0xFC PUSH2 0x600 PUSH3 0x8FE JUMP JUMPDEST PUSH2 0x620 MLOAD PUSH2 0x640 MLOAD SWAP8 SWAP1 SWAP7 SWAP2 SWAP6 SWAP2 SWAP1 PUSH1 0x1 PUSH1 0x1 PUSH1 0x40 SHL SUB DUP10 AND DUP10 SUB PUSH3 0x8E3 JUMPI PUSH2 0x660 MLOAD PUSH2 0x680 MLOAD SWAP12 SWAP1 SWAP11 SWAP1 PUSH3 0x135 PUSH2 0x6A0 PUSH3 0x8FE JUMP JUMPDEST SWAP14 PUSH2 0x2C0 PUSH2 0x400 ADD MLOAD SWAP16 PUSH1 0x1 DUP1 PUSH1 0xA0 SHL SUB PUSH2 0x3E0 MLOAD AND ISZERO PUSH3 0x8CA JUMPI PUSH1 0x1 DUP1 SLOAD PUSH1 0x1 PUSH1 0x1 PUSH1 0xA0 SHL SUB NOT SWAP1 DUP2 AND SWAP1 SWAP2 SSTORE PUSH1 0x0 DUP1 SLOAD PUSH2 0x3E0 MLOAD PUSH1 0x1 PUSH1 0x1 PUSH1 0xA0 SHL SUB SWAP1 DUP2 AND SWAP4 DUP3 AND DUP5 OR DUP4 SSTORE PUSH1 0x40 MLOAD SWAP4 SWAP3 SWAP2 AND SWAP1 PUSH32 0x8BE0079C531659141344CD1FD0A4F28419497F9722A3DAAFE3B4186F6B6457E0 SWAP1 DUP1 LOG3 PUSH1 0x1 PUSH32 0x9B779B17422D0DF92223018B32B4D1FA46E071723D6817E2486D003BECC55F00 SSTORE PUSH1 0x1 PUSH1 0x1 PUSH1 0xA0 SHL SUB DUP3 AND ISZERO ISZERO DUP1 PUSH3 0x8C1 JUMPI JUMPDEST DUP1 PUSH3 0x8AE JUMPI JUMPDEST ISZERO PUSH3 0x87D JUMPI POP PUSH1 0xFF DUP6 AND PUSH1 0x2 DUP2 LT ISZERO SWAP1 DUP2 PUSH3 0x870 JUMPI JUMPDEST POP ISZERO PUSH3 0x83A JUMPI DUP6 ISZERO PUSH3 0x803 JUMPI TIMESTAMP DUP8 GT ISZERO PUSH3 0x7CD JUMPI DUP7 DUP9 GT ISZERO PUSH3 0x798 JUMPI DUP9 ISZERO PUSH3 0x768 JUMPI PUSH1 0x1 PUSH1 0x1 PUSH1 0xA0 SHL SUB DUP4 AND ISZERO PUSH3 0x729 JUMPI JUMPDEST PUSH1 0x80 MSTORE PUSH1 0xA0 MSTORE PUSH1 0xC0 MSTORE PUSH1 0xE0 MSTORE PUSH2 0x100 MSTORE PUSH2 0x120 MSTORE PUSH2 0x140 MSTORE PUSH2 0x160 MSTORE DUP2 PUSH2 0x180 MSTORE PUSH2 0x1A0 MSTORE ISZERO PUSH1 0x0 EQ PUSH3 0x5F1 JUMPI POP POP PUSH2 0x340 MLOAD PUSH1 0x1 PUSH1 0x1 PUSH1 0xA0 SHL SUB AND ISZERO SWAP4 POP PUSH3 0x5C6 SWAP3 POP POP POP JUMPI PUSH2 0x3C0 MLOAD ISZERO PUSH3 0x595 JUMPI PUSH1 0x2 PUSH2 0x380 MLOAD EQ PUSH3 0x553 JUMPI JUMPDEST PUSH2 0x340 MLOAD PUSH2 0x1C0 MSTORE PUSH2 0x360 MLOAD PUSH2 0x1E0 MSTORE PUSH2 0x380 MLOAD PUSH2 0x200 MSTORE PUSH2 0x3A0 MLOAD PUSH2 0x220 MSTORE PUSH2 0x3C0 MLOAD PUSH2 0x240 MSTORE PUSH1 0x0 PUSH2 0x260 MSTORE PUSH1 0x0 PUSH2 0x280 MSTORE PUSH1 0x0 PUSH2 0x2A0 MSTORE PUSH1 0x0 PUSH2 0x2C0 MSTORE PUSH1 0x0 PUSH2 0x2E0 MSTORE PUSH1 0x0 PUSH2 0x300 MSTORE JUMPDEST PUSH2 0x320 MSTORE PUSH1 0x0 NOT PUSH1 0xA SSTORE PUSH1 0x40 MLOAD PUSH2 0x36D6 PUSH3 0x923 DUP3 CODECOPY PUSH1 0x80 MLOAD DUP2 DUP2 DUP2 PUSH2 0xEDF ADD MSTORE PUSH2 0x1774 ADD MSTORE PUSH1 0xA0 MLOAD DUP2 DUP2 DUP2 PUSH2 0x2377 ADD MSTORE DUP2 DUP2 PUSH2 0x3262 ADD MSTORE DUP2 DUP2 PUSH2 0x32B1 ADD MSTORE PUSH2 0x32E6 ADD MSTORE PUSH1 0xC0 MLOAD DUP2 DUP2 DUP2 PUSH2 0x48C ADD MSTORE DUP2 DUP2 PUSH2 0x1E11 ADD MSTORE DUP2 DUP2 PUSH2 0x2332 ADD MSTORE PUSH2 0x3577 ADD MSTORE PUSH1 0xE0 MLOAD DUP2 PUSH2 0xD58 ADD MSTORE PUSH2 0x100 MLOAD DUP2 DUP2 DUP2 PUSH2 0x40A ADD MSTORE DUP2 DUP2 PUSH2 0x433 ADD MSTORE DUP2 DUP2 PUSH2 0x462 ADD MSTORE DUP2 DUP2 PUSH2 0x4E1 ADD MSTORE DUP2 DUP2 PUSH2 0xF1C ADD MSTORE DUP2 DUP2 PUSH2 0x137B ADD MSTORE DUP2 DUP2 PUSH2 0x14E1 ADD MSTORE DUP2 DUP2 PUSH2 0x1514 ADD MSTORE DUP2 DUP2 PUSH2 0x1823 ADD MSTORE DUP2 DUP2 PUSH2 0x1B0E ADD MSTORE DUP2 DUP2 PUSH2 0x1DD5 ADD MSTORE DUP2 DUP2 PUSH2 0x2CEF ADD MSTORE DUP2 DUP2 PUSH2 0x2EC6 ADD MSTORE DUP2 DUP2 PUSH2 0x30B0 ADD MSTORE DUP2 DUP2 PUSH2 0x33EE ADD MSTORE PUSH2 0x3491 ADD MSTORE PUSH2 0x120 MLOAD DUP2 DUP2 DUP2 PUSH2 0x1B68 ADD MSTORE PUSH2 0x2D22 ADD MSTORE PUSH2 0x140 MLOAD DUP2 DUP2 DUP2 PUSH2 0x3B3 ADD MSTORE DUP2 DUP2 PUSH2 0x1DA6 ADD MSTORE PUSH2 0x21BD ADD MSTORE PUSH2 0x160 MLOAD DUP2 DUP2 DUP2 PUSH2 0x85D ADD MSTORE DUP2 DUP2 PUSH2 0x247A ADD MSTORE PUSH2 0x27D8 ADD MSTORE PUSH2 0x180 MLOAD DUP2 DUP2 DUP2 PUSH2 0x816 ADD MSTORE DUP2 DUP2 PUSH2 0xF5A ADD MSTORE DUP2 DUP2 PUSH2 0xF81 ADD MSTORE DUP2 DUP2 PUSH2 0x1004 ADD MSTORE DUP2 DUP2 PUSH2 0x1A59 ADD MSTORE DUP2 DUP2 PUSH2 0x20E1 ADD MSTORE DUP2 DUP2 PUSH2 0x2207 ADD MSTORE PUSH2 0x243A ADD MSTORE PUSH2 0x1A0 MLOAD DUP2 PUSH2 0x173B ADD MSTORE PUSH2 0x1C0 MLOAD DUP2 DUP2 DUP2 PUSH2 0x1BA1 ADD MSTORE PUSH2 0x24AF ADD MSTORE PUSH2 0x1E0 MLOAD DUP2 DUP2 DUP2 PUSH2 0x16A7 ADD MSTORE DUP2 DUP2 PUSH2 0x2F2C ADD MSTORE DUP2 DUP2 PUSH2 0x2F70 ADD MSTORE PUSH2 0x2F98 ADD MSTORE PUSH2 0x200 MLOAD DUP2 DUP2 DUP2 PUSH2 0xDF5 ADD MSTORE PUSH2 0x2EFC ADD MSTORE PUSH2 0x220 MLOAD DUP2 DUP2 DUP2 PUSH2 0x196D ADD MSTORE PUSH2 0x2FCB ADD MSTORE PUSH2 0x240 MLOAD DUP2 DUP2 DUP2 PUSH2 0x1700 ADD MSTORE PUSH2 0x2504 ADD MSTORE PUSH2 0x260 MLOAD DUP2 DUP2 DUP2 PUSH2 0x907 ADD MSTORE DUP2 DUP2 PUSH2 0xBC8 ADD MSTORE DUP2 DUP2 PUSH2 0x229E ADD MSTORE PUSH2 0x273A ADD MSTORE PUSH2 0x280 MLOAD DUP2 DUP2 DUP2 PUSH2 0x8C5 ADD MSTORE DUP2 DUP2 PUSH2 0x19A8 ADD MSTORE DUP2 DUP2 PUSH2 0x2271 ADD MSTORE PUSH2 0x3394 ADD MSTORE PUSH2 0x2A0 MLOAD DUP2 DUP2 DUP2 PUSH2 0x99E ADD MSTORE PUSH2 0x1AD0 ADD MSTORE PUSH2 0x2C0 MLOAD DUP2 DUP2 DUP2 PUSH2 0x9EA ADD MSTORE PUSH2 0x1C90 ADD MSTORE PUSH2 0x2E0 MLOAD DUP2 DUP2 DUP2 PUSH2 0x890 ADD MSTORE PUSH2 0x203E ADD MSTORE PUSH2 0x300 MLOAD DUP2 DUP2 DUP2 PUSH2 0x93B ADD MSTORE DUP2 DUP2 PUSH2 0xBA5 ADD MSTORE DUP2 DUP2 PUSH2 0x211D ADD MSTORE PUSH2 0x23E2 ADD MSTORE PUSH2 0x320 MLOAD DUP2 DUP2 DUP2 PUSH2 0x29A ADD MSTORE PUSH2 0x76D ADD MSTORE PUSH2 0x36D6 SWAP1 RETURN JUMPDEST PUSH2 0x3A0 MLOAD PUSH2 0x360 MLOAD LT PUSH3 0x298 JUMPI PUSH1 0x40 MLOAD PUSH3 0x461BCD PUSH1 0xE5 SHL DUP2 MSTORE PUSH1 0x20 PUSH1 0x4 DUP3 ADD MSTORE PUSH1 0xC PUSH1 0x24 DUP3 ADD MSTORE PUSH12 0x52616E676520626F756E6473 PUSH1 0xA0 SHL PUSH1 0x44 DUP3 ADD MSTORE PUSH1 0x64 SWAP1 REVERT JUMPDEST PUSH1 0x40 MLOAD PUSH3 0x461BCD PUSH1 0xE5 SHL DUP2 MSTORE PUSH1 0x20 PUSH1 0x4 DUP3 ADD MSTORE PUSH1 0x9 PUSH1 0x24 DUP3 ADD MSTORE PUSH9 0x5374616C656E657373 PUSH1 0xB8 SHL PUSH1 0x44 DUP3 ADD MSTORE PUSH1 0x64 SWAP1 REVERT JUMPDEST PUSH1 0x64 PUSH1 0x40 MLOAD PUSH3 0x461BCD PUSH1 0xE5 SHL DUP2 MSTORE PUSH1 0x20 PUSH1 0x4 DUP3 ADD MSTORE PUSH1 0x4 PUSH1 0x24 DUP3 ADD MSTORE PUSH4 0x11995959 PUSH1 0xE2 SHL PUSH1 0x44 DUP3 ADD MSTORE REVERT JUMPDEST PUSH1 0x1 PUSH1 0x1 PUSH1 0xA0 SHL SUB DUP2 AND ISZERO PUSH3 0x6FE JUMPI DUP2 ISZERO PUSH3 0x6D0 JUMPI PUSH1 0x1 PUSH1 0x1 PUSH1 0x40 SHL SUB DUP4 AND ISZERO PUSH3 0x6A0 JUMPI PUSH1 0x1 PUSH1 0x1 PUSH1 0xA0 SHL SUB DUP7 AND ISZERO PUSH3 0x66C JUMPI PUSH1 0x0 PUSH2 0x1C0 MSTORE PUSH1 0x0 PUSH2 0x1E0 MSTORE PUSH1 0x0 PUSH2 0x200 MSTORE PUSH1 0x0 PUSH2 0x220 MSTORE PUSH1 0x0 PUSH2 0x240 MSTORE PUSH1 0x1 DUP1 PUSH1 0xA0 SHL SUB AND PUSH2 0x260 MSTORE PUSH2 0x280 MSTORE PUSH2 0x2A0 MSTORE PUSH2 0x2C0 MSTORE PUSH2 0x2E0 MSTORE PUSH2 0x300 MSTORE PUSH3 0x2E5 JUMP JUMPDEST PUSH1 0x40 MLOAD PUSH3 0x461BCD PUSH1 0xE5 SHL DUP2 MSTORE PUSH1 0x20 PUSH1 0x4 DUP3 ADD MSTORE PUSH1 0xC PUSH1 0x24 DUP3 ADD MSTORE PUSH12 0x554D412063757272656E6379 PUSH1 0xA0 SHL PUSH1 0x44 DUP3 ADD MSTORE PUSH1 0x64 SWAP1 REVERT JUMPDEST PUSH1 0x40 MLOAD PUSH3 0x461BCD PUSH1 0xE5 SHL DUP2 MSTORE PUSH1 0x20 PUSH1 0x4 DUP3 ADD MSTORE PUSH1 0x8 PUSH1 0x24 DUP3 ADD MSTORE PUSH8 0x4C6976656E657373 PUSH1 0xC0 SHL PUSH1 0x44 DUP3 ADD MSTORE PUSH1 0x64 SWAP1 REVERT JUMPDEST PUSH1 0x40 MLOAD PUSH3 0x461BCD PUSH1 0xE5 SHL DUP2 MSTORE PUSH1 0x20 PUSH1 0x4 DUP3 ADD MSTORE PUSH1 0x6 PUSH1 0x24 DUP3 ADD MSTORE PUSH6 0x155350481A59 PUSH1 0xD2 SHL PUSH1 0x44 DUP3 ADD MSTORE PUSH1 0x64 SWAP1 REVERT JUMPDEST PUSH1 0x64 PUSH1 0x40 MLOAD PUSH3 0x461BCD PUSH1 0xE5 SHL DUP2 MSTORE PUSH1 0x20 PUSH1 0x4 DUP3 ADD MSTORE PUSH1 0x4 PUSH1 0x24 DUP3 ADD MSTORE PUSH4 0x27A7BB19 PUSH1 0xE1 SHL PUSH1 0x44 DUP3 ADD MSTORE REVERT JUMPDEST PUSH1 0x12 PUSH1 0xFF DUP6 AND SUB ISZERO PUSH3 0x238 JUMPI PUSH1 0x40 MLOAD PUSH3 0x461BCD PUSH1 0xE5 SHL DUP2 MSTORE PUSH1 0x20 PUSH1 0x4 DUP3 ADD MSTORE PUSH1 0xA PUSH1 0x24 DUP3 ADD MSTORE PUSH10 0x45544820313820646563 PUSH1 0xB0 SHL PUSH1 0x44 DUP3 ADD MSTORE PUSH1 0x64 SWAP1 REVERT JUMPDEST PUSH1 0x40 MLOAD PUSH3 0x461BCD PUSH1 0xE5 SHL DUP2 MSTORE PUSH1 0x20 PUSH1 0x4 DUP3 ADD MSTORE PUSH1 0x8 PUSH1 0x24 DUP3 ADD MSTORE PUSH8 0x4D65746164617461 PUSH1 0xC0 SHL PUSH1 0x44 DUP3 ADD MSTORE PUSH1 0x64 SWAP1 REVERT JUMPDEST PUSH1 0x40 MLOAD PUSH3 0x461BCD PUSH1 0xE5 SHL DUP2 MSTORE PUSH1 0x20 PUSH1 0x4 DUP3 ADD MSTORE PUSH1 0xD PUSH1 0x24 DUP3 ADD MSTORE PUSH13 0x2932B9B7B63B329037B93232B9 PUSH1 0x99 SHL PUSH1 0x44 DUP3 ADD MSTORE PUSH1 0x64 SWAP1 REVERT JUMPDEST PUSH1 0x40 MLOAD PUSH3 0x461BCD PUSH1 0xE5 SHL DUP2 MSTORE PUSH1 0x20 PUSH1 0x4 DUP3 ADD MSTORE PUSH1 0xE PUSH1 0x24 DUP3 ADD MSTORE PUSH14 0x14DD185AD948195B99081C185CDD PUSH1 0x92 SHL PUSH1 0x44 DUP3 ADD MSTORE PUSH1 0x64 SWAP1 REVERT JUMPDEST PUSH1 0x40 MLOAD PUSH3 0x461BCD PUSH1 0xE5 SHL DUP2 MSTORE PUSH1 0x20 PUSH1 0x4 DUP3 ADD MSTORE PUSH1 0xF PUSH1 0x24 DUP3 ADD MSTORE PUSH15 0x5669727475616C2072657365727665 PUSH1 0x88 SHL PUSH1 0x44 DUP3 ADD MSTORE PUSH1 0x64 SWAP1 REVERT JUMPDEST PUSH1 0x40 MLOAD PUSH3 0x461BCD PUSH1 0xE5 SHL DUP2 MSTORE PUSH1 0x20 PUSH1 0x4 DUP3 ADD MSTORE PUSH1 0xE PUSH1 0x24 DUP3 ADD MSTORE PUSH14 0x4F7574636F6D65732072616E6765 PUSH1 0x90 SHL PUSH1 0x44 DUP3 ADD MSTORE PUSH1 0x64 SWAP1 REVERT JUMPDEST PUSH1 0x20 SWAP2 POP GT ISZERO CODESIZE PUSH3 0x200 JUMP JUMPDEST PUSH3 0x461BCD PUSH1 0xE5 SHL DUP2 MSTORE PUSH1 0x20 PUSH1 0x4 DUP3 ADD MSTORE PUSH1 0xC PUSH1 0x24 DUP3 ADD MSTORE PUSH12 0x5A65726F2061646472657373 PUSH1 0xA0 SHL PUSH1 0x44 DUP3 ADD MSTORE PUSH1 0x64 SWAP1 REVERT JUMPDEST POP PUSH1 0x1 PUSH1 0x1 PUSH1 0xA0 SHL SUB DUP4 AND ISZERO ISZERO PUSH3 0x1E8 JUMP JUMPDEST POP PUSH1 0x1 PUSH3 0x1E1 JUMP JUMPDEST PUSH1 0x40 MLOAD PUSH4 0x1E4FBDF7 PUSH1 0xE0 SHL DUP2 MSTORE PUSH1 0x0 PUSH1 0x4 DUP3 ADD MSTORE PUSH1 0x24 SWAP1 REVERT JUMPDEST PUSH1 0x0 DUP1 REVERT JUMPDEST PUSH4 0x4E487B71 PUSH1 0xE0 SHL PUSH1 0x0 MSTORE PUSH1 0x41 PUSH1 0x4 MSTORE PUSH1 0x24 PUSH1 0x0 REVERT JUMPDEST MLOAD SWAP1 PUSH1 0x1 PUSH1 0x1 PUSH1 0xA0 SHL SUB DUP3 AND DUP3 SUB PUSH3 0x8E3 JUMPI JUMP JUMPDEST MLOAD SWAP1 PUSH1 0xFF DUP3 AND DUP3 SUB PUSH3 0x8E3 JUMPI JUMP INVALID PUSH1 0x80 DUP1 PUSH1 0x40 MSTORE PUSH1 0x4 CALLDATASIZE LT ISZERO PUSH2 0x1D JUMPI JUMPDEST POP CALLDATASIZE ISZERO PUSH2 0x1B JUMPI PUSH1 0x0 DUP1 REVERT JUMPDEST STOP JUMPDEST PUSH1 0x0 SWAP1 DUP2 CALLDATALOAD PUSH1 0xE0 SHR SWAP1 DUP2 PUSH4 0x3EE438C EQ PUSH2 0x27FB JUMPI POP DUP1 PUSH4 0x6FDCCC7 EQ PUSH2 0x27C0 JUMPI DUP1 PUSH4 0x8460328 EQ PUSH2 0x27A3 JUMPI DUP1 PUSH4 0xC7BD33B EQ PUSH2 0x2769 JUMPI DUP1 PUSH4 0xD2AF8D3 EQ PUSH2 0x2724 JUMPI DUP1 PUSH4 0x116A343A EQ PUSH2 0x26F9 JUMPI DUP1 PUSH4 0x1448D312 EQ PUSH2 0x26DD JUMPI DUP1 PUSH4 0x158EF93E EQ PUSH2 0x26BA JUMPI DUP1 PUSH4 0x2567D7D6 EQ PUSH2 0x2411 JUMPI DUP1 PUSH4 0x2C4C5E50 EQ PUSH2 0x23CC JUMPI DUP1 PUSH4 0x35142C8C EQ PUSH2 0x23A6 JUMPI DUP1 PUSH4 0x46904840 EQ PUSH2 0x2361 JUMPI DUP1 PUSH4 0x48D399E7 EQ PUSH2 0x231C JUMPI DUP1 PUSH4 0x493DCAE1 EQ PUSH2 0x21E0 JUMPI DUP1 PUSH4 0x4B841D24 EQ PUSH2 0x21A5 JUMPI DUP1 PUSH4 0x4F12A39F EQ PUSH2 0x20B7 JUMPI DUP1 PUSH4 0x540385A3 EQ PUSH2 0x2099 JUMPI DUP1 PUSH4 0x55C1ABE9 EQ PUSH2 0x2061 JUMPI DUP1 PUSH4 0x67BD151E EQ PUSH2 0x2026 JUMPI DUP1 PUSH4 0x698B0676 EQ PUSH2 0x1D4D JUMPI DUP1 PUSH4 0x715018A6 EQ PUSH2 0x1CE7 JUMPI DUP1 PUSH4 0x7375B168 EQ PUSH2 0x1CB3 JUMPI DUP1 PUSH4 0x769DBD6E EQ PUSH2 0x1C78 JUMPI DUP1 PUSH4 0x79BA5097 EQ PUSH2 0x1BEE JUMPI DUP1 PUSH4 0x7D4035C5 EQ PUSH2 0x1BD0 JUMPI DUP1 PUSH4 0x7DBDF1F5 EQ PUSH2 0x1B8B JUMPI DUP1 PUSH4 0x80C08A5D EQ PUSH2 0x1B50 JUMPI DUP1 PUSH4 0x8192A437 EQ PUSH2 0x1B32 JUMPI DUP1 PUSH4 0x8767D64E EQ PUSH2 0x1AF4 JUMPI DUP1 PUSH4 0x8D56AA3E EQ PUSH2 0x1AB0 JUMPI DUP1 PUSH4 0x8DA5CB5B EQ PUSH2 0x1A89 JUMPI DUP1 PUSH4 0x8E8DAA7C EQ PUSH2 0x1A43 JUMPI DUP1 PUSH4 0x912397C3 EQ PUSH2 0x1A17 JUMPI DUP1 PUSH4 0x9228C39B EQ PUSH2 0x19EE JUMPI DUP1 PUSH4 0xA2FFBE8E EQ PUSH2 0x19CB JUMPI DUP1 PUSH4 0xA5DC90F2 EQ PUSH2 0x1990 JUMPI DUP1 PUSH4 0xB9728219 EQ PUSH2 0x1955 JUMPI DUP1 PUSH4 0xBB482F96 EQ PUSH2 0x17CC JUMPI DUP1 PUSH4 0xC19D93FB EQ PUSH2 0x17A3 JUMPI DUP1 PUSH4 0xC45A0155 EQ PUSH2 0x175E JUMPI DUP1 PUSH4 0xC5A1D7F0 EQ PUSH2 0x1723 JUMPI DUP1 PUSH4 0xC80D36B8 EQ PUSH2 0x16E8 JUMPI DUP1 PUSH4 0xCA455047 EQ PUSH2 0x16CA JUMPI DUP1 PUSH4 0xCC2F6093 EQ PUSH2 0x168F JUMPI DUP1 PUSH4 0xCC3E02FF EQ PUSH2 0xE25 JUMPI DUP1 PUSH4 0xD7F59F5B EQ PUSH2 0xDE0 JUMPI DUP1 PUSH4 0xE1A45218 EQ PUSH2 0xDC3 JUMPI DUP1 PUSH4 0xE30C3978 EQ PUSH2 0xD9A JUMPI DUP1 PUSH4 0xE3EECC6F EQ PUSH2 0xD7C JUMPI DUP1 PUSH4 0xEC9C6C30 EQ PUSH2 0xD3E JUMPI DUP1 PUSH4 0xEE879258 EQ PUSH2 0x7EF JUMPI DUP1 PUSH4 0xF0D677D7 EQ PUSH2 0x36A JUMPI DUP1 PUSH4 0xF11D7BDF EQ PUSH2 0x331 JUMPI DUP1 PUSH4 0xF2FDE38B EQ PUSH2 0x2C0 JUMPI PUSH4 0xFF3BB37E SUB PUSH2 0xF JUMPI CALLVALUE PUSH2 0x2BD JUMPI DUP1 PUSH1 0x3 NOT CALLDATASIZE ADD SLT PUSH2 0x2BD JUMPI PUSH1 0x20 PUSH1 0x40 MLOAD PUSH32 0x0 DUP2 MSTORE RETURN JUMPDEST DUP1 REVERT JUMPDEST POP CALLVALUE PUSH2 0x2BD JUMPI PUSH1 0x20 CALLDATASIZE PUSH1 0x3 NOT ADD SLT PUSH2 0x2BD JUMPI PUSH1 0x4 CALLDATALOAD PUSH1 0x1 PUSH1 0x1 PUSH1 0xA0 SHL SUB DUP2 DUP2 AND SWAP2 DUP3 SWAP1 SUB PUSH2 0x32C JUMPI PUSH2 0x2F0 PUSH2 0x3558 JUMP JUMPDEST PUSH1 0x1 DUP1 SLOAD PUSH1 0x1 PUSH1 0x1 PUSH1 0xA0 SHL SUB NOT AND DUP4 OR SWAP1 SSTORE DUP3 SLOAD AND PUSH32 0x38D16B8CAC22D99FC7C124B9CD0DE2D3FA1FAEF420BFE791D8C362D765E22700 DUP4 DUP1 LOG3 DUP1 RETURN JUMPDEST PUSH1 0x0 DUP1 REVERT JUMPDEST POP CALLVALUE PUSH2 0x2BD JUMPI PUSH1 0x20 CALLDATASIZE PUSH1 0x3 NOT ADD SLT PUSH2 0x2BD JUMPI PUSH1 0x4 CALLDATALOAD SWAP1 PUSH1 0x5 SLOAD DUP3 LT ISZERO PUSH2 0x2BD JUMPI PUSH1 0x20 PUSH2 0x35C DUP4 PUSH2 0x2A43 JUMP JUMPDEST SWAP1 SLOAD PUSH1 0x40 MLOAD SWAP2 PUSH1 0x3 SHL SHR DUP2 MSTORE RETURN JUMPDEST POP PUSH1 0x40 CALLDATASIZE PUSH1 0x3 NOT ADD SLT PUSH2 0x2BD JUMPI PUSH1 0x24 CALLDATALOAD PUSH1 0x1 PUSH1 0x1 PUSH1 0xA0 SHL SUB DUP2 AND SWAP1 SUB PUSH2 0x32C JUMPI PUSH2 0x392 PUSH2 0x2E8D JUMP JUMPDEST PUSH1 0x6 SLOAD PUSH1 0xFF DUP2 AND ISZERO PUSH2 0x7DD JUMPI PUSH1 0x8 SHR PUSH1 0xFF AND PUSH2 0x3AD DUP2 PUSH2 0x2B50 JUMP JUMPDEST PUSH2 0x7CB JUMPI PUSH32 0x0 TIMESTAMP LT ISZERO PUSH2 0x7B9 JUMPI PUSH1 0xFF PUSH1 0xE SLOAD PUSH1 0xA0 SHR AND PUSH2 0x7A7 JUMPI PUSH1 0x24 CALLDATALOAD PUSH1 0x1 PUSH1 0x1 PUSH1 0xA0 SHL SUB AND ISZERO PUSH2 0x795 JUMPI PUSH1 0x4 CALLDATALOAD ISZERO DUP1 ISZERO PUSH2 0x76A JUMPI JUMPDEST PUSH2 0x758 JUMPI PUSH1 0xFF PUSH32 0x0 AND ISZERO PUSH2 0x744 JUMPI PUSH1 0xFF PUSH32 0x0 AND PUSH1 0x4 CALLDATALOAD MOD PUSH2 0x732 JUMPI PUSH2 0x48A PUSH1 0xFF PUSH32 0x0 AND PUSH1 0x4 CALLDATALOAD PUSH2 0x2C2B JUMP JUMPDEST PUSH32 0x0 PUSH1 0x1 PUSH1 0x1 PUSH1 0xA0 SHL SUB AND DUP1 PUSH2 0x704 JUMPI POP PUSH1 0x4 CALLDATALOAD CALLVALUE SUB PUSH2 0x6F2 JUMPI SWAP1 JUMPDEST DUP1 PUSH8 0xDE0B6B3A7640000 SWAP3 DUP1 DUP5 DUP2 MUL DIV DUP5 EQ DUP2 ISZERO OR ISZERO SWAP3 JUMPDEST PUSH1 0xFF PUSH32 0x0 AND PUSH1 0xFF DUP3 AND LT ISZERO PUSH2 0x676 JUMPI PUSH2 0x514 DUP2 PUSH2 0x2CE0 JUMP JUMPDEST DUP5 PUSH2 0x520 DUP3 ISZERO ISZERO PUSH2 0x2C9F JUMP JUMPDEST PUSH2 0x662 JUMPI PUSH2 0x530 DUP2 DUP8 DUP6 MUL PUSH2 0x2C2B JUMP JUMPDEST SWAP1 DUP2 ISZERO PUSH2 0x650 JUMPI PUSH2 0x56F PUSH2 0x543 DUP5 PUSH2 0x2988 JUMP JUMPDEST SWAP2 SWAP1 DUP1 SLOAD SWAP3 PUSH2 0x558 DUP9 PUSH1 0x3 SWAP6 DUP4 DUP8 SHL SHR PUSH2 0x2CD3 JUMP JUMPDEST DUP3 SLOAD PUSH1 0x0 NOT PUSH1 0x3 SWAP4 SWAP1 SWAP4 SHL SWAP3 DUP4 SHL NOT AND SWAP2 SHL OR SWAP1 SSTORE JUMP JUMPDEST PUSH2 0x578 DUP5 PUSH2 0x2A0C JUMP JUMPDEST SWAP1 SLOAD SWAP2 SHL SHR PUSH1 0x1 PUSH1 0x1 PUSH1 0xA0 SHL SUB AND DUP1 EXTCODESIZE ISZERO PUSH2 0x64C JUMPI PUSH1 0x40 MLOAD PUSH4 0x40C10F19 PUSH1 0xE0 SHL DUP2 MSTORE PUSH1 0x24 DUP1 CALLDATALOAD PUSH1 0x1 PUSH1 0x1 PUSH1 0xA0 SHL SUB AND PUSH1 0x4 DUP4 ADD MSTORE DUP2 ADD DUP5 SWAP1 MSTORE SWAP1 DUP7 SWAP1 DUP3 SWAP1 DUP2 DUP4 DUP2 PUSH1 0x44 DUP2 ADD SUB SWAP3 GAS CALL DUP1 ISZERO PUSH2 0x641 JUMPI SWAP1 DUP7 SWAP2 PUSH2 0x629 JUMPI JUMPDEST POP POP PUSH1 0x40 DUP1 MLOAD DUP6 DUP2 MSTORE PUSH1 0x20 DUP2 ADD SWAP4 SWAP1 SWAP4 MSTORE DUP3 ADD MSTORE PUSH1 0xFF SWAP2 PUSH1 0x1 SWAP2 DUP2 DUP5 AND SWAP1 PUSH1 0x1 PUSH1 0x1 PUSH1 0xA0 SHL SUB PUSH1 0x24 CALLDATALOAD AND SWAP1 CALLER SWAP1 PUSH32 0x8241D0DEFADD8507317470D315422749A6C8F8B8C9C0872AAB09C665EAF3B66B SWAP1 PUSH1 0x60 SWAP1 LOG4 ADD AND PUSH2 0x4DD JUMP JUMPDEST PUSH2 0x632 SWAP1 PUSH2 0x2914 JUMP JUMPDEST PUSH2 0x63D JUMPI DUP5 CODESIZE PUSH2 0x5CF JUMP JUMPDEST DUP5 DUP1 REVERT JUMPDEST PUSH1 0x40 MLOAD RETURNDATASIZE DUP9 DUP3 RETURNDATACOPY RETURNDATASIZE SWAP1 REVERT JUMPDEST DUP6 DUP1 REVERT JUMPDEST PUSH1 0x40 MLOAD PUSH4 0x9811E0C7 PUSH1 0xE0 SHL DUP2 MSTORE PUSH1 0x4 SWAP1 REVERT JUMPDEST PUSH4 0x4E487B71 PUSH1 0xE0 SHL DUP5 MSTORE PUSH1 0x11 PUSH1 0x4 MSTORE PUSH1 0x24 DUP5 REVERT JUMPDEST POP PUSH1 0xE DUP1 SLOAD PUSH1 0x1 PUSH1 0x1 PUSH1 0xA8 SHL SUB NOT AND CALLER PUSH1 0xFF PUSH1 0xA0 SHL NOT DUP2 AND SWAP2 SWAP1 SWAP2 OR PUSH1 0x1 PUSH1 0xA0 SHL OR SWAP1 SWAP2 SSTORE PUSH1 0x40 DUP1 MLOAD PUSH1 0x4 CALLDATALOAD DUP2 MSTORE PUSH1 0x20 DUP2 ADD SWAP4 SWAP1 SWAP4 MSTORE PUSH1 0x24 CALLDATALOAD PUSH1 0x1 PUSH1 0x1 PUSH1 0xA0 SHL SUB AND SWAP3 PUSH32 0x95194D0FD3E6E16008575E16C429D993D868B1A25D9993D071D1039853D22A74 SWAP2 SWAP1 LOG3 PUSH1 0x1 PUSH1 0x0 DUP1 MLOAD PUSH1 0x20 PUSH2 0x3681 DUP4 CODECOPY DUP2 MLOAD SWAP2 MSTORE SSTORE DUP1 RETURN JUMPDEST PUSH1 0x40 MLOAD PUSH4 0x32AFE6D3 PUSH1 0xE2 SHL DUP2 MSTORE PUSH1 0x4 SWAP1 REVERT JUMPDEST CALLVALUE PUSH2 0x720 JUMPI PUSH2 0x71A SWAP1 PUSH1 0x4 CALLDATALOAD SWAP1 ADDRESS SWAP1 CALLER SWAP1 PUSH2 0x34CB JUMP JUMPDEST SWAP1 PUSH2 0x4C5 JUMP JUMPDEST PUSH1 0x40 MLOAD PUSH4 0xCC43410F PUSH1 0xE0 SHL DUP2 MSTORE PUSH1 0x4 SWAP1 REVERT JUMPDEST PUSH1 0x40 MLOAD PUSH4 0x2E7D0D2D PUSH1 0xE2 SHL DUP2 MSTORE PUSH1 0x4 SWAP1 REVERT JUMPDEST PUSH4 0x4E487B71 PUSH1 0xE0 SHL DUP2 MSTORE PUSH1 0x12 PUSH1 0x4 MSTORE PUSH1 0x24 SWAP1 REVERT JUMPDEST PUSH1 0x40 MLOAD PUSH4 0x8568E8BD PUSH1 0xE0 SHL DUP2 MSTORE PUSH1 0x4 SWAP1 REVERT JUMPDEST POP PUSH32 0x0 PUSH1 0x4 CALLDATALOAD LT PUSH2 0x402 JUMP JUMPDEST PUSH1 0x40 MLOAD PUSH4 0x7A2A2069 PUSH1 0xE1 SHL DUP2 MSTORE PUSH1 0x4 SWAP1 REVERT JUMPDEST PUSH1 0x40 MLOAD PUSH4 0x5C03D075 PUSH1 0xE1 SHL DUP2 MSTORE PUSH1 0x4 SWAP1 REVERT JUMPDEST PUSH1 0x40 MLOAD PUSH4 0x9622D9CF PUSH1 0xE0 SHL DUP2 MSTORE PUSH1 0x4 SWAP1 REVERT JUMPDEST PUSH1 0x40 MLOAD PUSH4 0x300B4E33 PUSH1 0xE2 SHL DUP2 MSTORE PUSH1 0x4 SWAP1 REVERT JUMPDEST PUSH1 0x40 MLOAD PUSH4 0x21C4E357 PUSH1 0xE2 SHL DUP2 MSTORE PUSH1 0x4 SWAP1 REVERT JUMPDEST POP CALLVALUE PUSH2 0x2BD JUMPI DUP1 PUSH1 0x3 NOT CALLDATASIZE ADD SLT PUSH2 0x2BD JUMPI PUSH2 0x808 PUSH2 0x2E8D JUMP JUMPDEST PUSH1 0x6 SLOAD PUSH1 0xFF DUP2 AND ISZERO PUSH2 0x7DD JUMPI PUSH32 0x0 SWAP1 PUSH1 0x2 DUP3 LT ISZERO PUSH2 0xD2A JUMPI PUSH1 0x1 DUP1 SWAP3 SUB PUSH2 0xD18 JUMPI PUSH1 0x8 SHR PUSH1 0xFF AND PUSH2 0x857 DUP2 PUSH2 0x2B50 JUMP JUMPDEST PUSH2 0xD18 JUMPI PUSH32 0x0 TIMESTAMP LT PUSH2 0xD06 JUMPI PUSH2 0x88A PUSH2 0x2A8A JUMP JUMPDEST TIMESTAMP PUSH1 0x9 SSTORE PUSH32 0x0 SWAP1 DUP2 PUSH2 0xB9B JUMPI JUMPDEST PUSH1 0x40 MLOAD PUSH4 0x11DF92F1 PUSH1 0xE0 SHL DUP2 MSTORE PUSH32 0x0 PUSH1 0x4 DUP3 ADD DUP2 SWAP1 MSTORE TIMESTAMP PUSH1 0x24 DUP4 ADD MSTORE PUSH1 0xA0 PUSH1 0x44 DUP4 ADD MSTORE SWAP1 SWAP2 SWAP1 DUP6 SWAP1 PUSH1 0x1 PUSH1 0x1 PUSH1 0xA0 SHL SUB PUSH32 0x0 DUP2 AND SWAP1 DUP6 SWAP1 PUSH2 0x938 PUSH1 0xA4 DUP4 ADD DUP8 PUSH2 0x2948 JUMP JUMPDEST SWAP1 PUSH32 0x0 AND PUSH1 0x64 DUP4 ADD MSTORE DUP8 PUSH1 0x84 DUP4 ADD MSTORE DUP2 PUSH1 0x20 SWAP8 DUP9 SWAP3 SUB DUP2 DUP8 DUP7 GAS CALL SWAP1 DUP2 ISZERO PUSH2 0xB4D JUMPI DUP7 SWAP2 PUSH2 0xB6C JUMPI JUMPDEST POP POP DUP1 EXTCODESIZE ISZERO PUSH2 0xADD JUMPI PUSH1 0x40 MLOAD PUSH4 0x239E22FF PUSH1 0xE1 SHL DUP2 MSTORE DUP4 DUP2 DUP1 PUSH2 0x9D2 PUSH32 0x0 PUSH1 0x1 PUSH1 0x1 PUSH1 0x40 SHL SUB AND DUP10 TIMESTAMP DUP10 PUSH1 0x4 DUP7 ADD PUSH2 0x2E66 JUMP JUMPDEST SUB DUP2 DUP4 DUP7 GAS CALL SWAP1 DUP2 ISZERO PUSH2 0xB4D JUMPI DUP5 SWAP2 PUSH2 0xB58 JUMPI JUMPDEST POP POP PUSH32 0x0 DUP6 DUP2 PUSH2 0xAE1 JUMPI JUMPDEST POP POP DUP1 EXTCODESIZE ISZERO PUSH2 0xADD JUMPI DUP4 DUP4 SWAP2 PUSH2 0xA3F SWAP4 DUP4 PUSH1 0x40 MLOAD DUP1 SWAP7 DUP2 SWAP6 DUP3 SWAP5 PUSH4 0x120698AF PUSH1 0xE0 SHL DUP5 MSTORE TIMESTAMP SWAP1 PUSH1 0x4 DUP6 ADD PUSH2 0x2C4B JUMP JUMPDEST SUB SWAP3 GAS CALL DUP1 ISZERO PUSH2 0xAD2 JUMPI PUSH2 0xABA JUMPI JUMPDEST POP POP SWAP1 PUSH32 0xE4D3D3C620D2A4B140FA3731B55B8F71306ED6AB936D7B660B613ECDBBF69DB6 SWAP3 PUSH2 0xA9E PUSH1 0x60 SWAP4 PUSH2 0x100 PUSH2 0xFF00 NOT PUSH1 0x6 SLOAD AND OR PUSH1 0x6 SSTORE PUSH1 0x40 MLOAD SWAP5 DUP6 SWAP5 TIMESTAMP DUP7 MSTORE DUP6 ADD MSTORE PUSH1 0x60 DUP5 ADD SWAP1 PUSH2 0x2948 JUMP JUMPDEST SWAP1 PUSH1 0x40 DUP4 ADD MSTORE SUB SWAP1 LOG1 PUSH1 0x0 DUP1 MLOAD PUSH1 0x20 PUSH2 0x3681 DUP4 CODECOPY DUP2 MLOAD SWAP2 MSTORE SSTORE DUP1 RETURN JUMPDEST PUSH2 0xAC6 SWAP1 SWAP4 SWAP3 SWAP4 PUSH2 0x2914 JUMP JUMPDEST PUSH2 0x63D JUMPI SWAP1 DUP5 CODESIZE PUSH2 0xA4E JUMP JUMPDEST PUSH1 0x40 MLOAD RETURNDATASIZE DUP5 DUP3 RETURNDATACOPY RETURNDATASIZE SWAP1 REVERT JUMPDEST DUP3 DUP1 REVERT JUMPDEST PUSH1 0x40 MLOAD PUSH4 0x56AD3AAD PUSH1 0xE1 SHL DUP2 MSTORE SWAP2 DUP3 SWAP1 DUP2 SWAP1 PUSH2 0xB03 SWAP1 DUP10 TIMESTAMP DUP10 PUSH1 0x4 DUP7 ADD PUSH2 0x2E66 JUMP JUMPDEST SUB DUP2 DUP8 DUP7 GAS CALL SWAP1 DUP2 ISZERO PUSH2 0xB4D JUMPI DUP7 SWAP2 PUSH2 0xB1E JUMPI JUMPDEST POP DUP1 PUSH2 0xA10 JUMP JUMPDEST SWAP1 DUP1 SWAP3 SWAP5 POP RETURNDATASIZE DUP4 GT PUSH2 0xB46 JUMPI JUMPDEST PUSH2 0xB35 DUP2 DUP4 PUSH2 0x2927 JUMP JUMPDEST DUP2 ADD SUB SLT PUSH2 0x32C JUMPI DUP7 SWAP2 DUP5 CODESIZE PUSH2 0xB17 JUMP JUMPDEST POP RETURNDATASIZE PUSH2 0xB2B JUMP JUMPDEST PUSH1 0x40 MLOAD RETURNDATASIZE DUP7 DUP3 RETURNDATACOPY RETURNDATASIZE SWAP1 REVERT JUMPDEST PUSH2 0xB61 SWAP1 PUSH2 0x2914 JUMP JUMPDEST PUSH2 0xADD JUMPI DUP3 CODESIZE PUSH2 0x9E6 JUMP JUMPDEST SWAP1 DUP1 SWAP3 SWAP5 POP RETURNDATASIZE DUP4 GT PUSH2 0xB94 JUMPI JUMPDEST PUSH2 0xB83 DUP2 DUP4 PUSH2 0x2927 JUMP JUMPDEST DUP2 ADD SUB SLT PUSH2 0x32C JUMPI DUP7 SWAP2 DUP5 CODESIZE PUSH2 0x980 JUMP JUMPDEST POP RETURNDATASIZE PUSH2 0xB79 JUMP JUMPDEST PUSH1 0x1 DUP1 PUSH1 0xA0 SHL SUB DUP1 PUSH32 0x0 AND SWAP1 PUSH32 0x0 AND SWAP1 PUSH1 0x0 SWAP2 PUSH1 0x40 MLOAD PUSH1 0x20 PUSH4 0x95EA7B3 PUSH1 0xE0 SHL SWAP5 DUP6 DUP2 MSTORE DUP4 PUSH1 0x4 MSTORE DUP8 PUSH1 0x24 MSTORE PUSH1 0x44 DUP2 DUP1 DUP8 GAS CALL DUP8 PUSH1 0x0 MLOAD EQ DUP2 AND ISZERO PUSH2 0xCF9 JUMPI JUMPDEST DUP2 PUSH1 0x40 MSTORE ISZERO PUSH2 0xC2C JUMPI JUMPDEST POP POP POP POP PUSH2 0x8B6 JUMP JUMPDEST PUSH1 0x20 PUSH1 0x0 DUP6 DUP2 MSTORE DUP4 PUSH1 0x4 MSTORE DUP1 PUSH1 0x24 MSTORE PUSH1 0x44 DUP2 DUP1 DUP8 GAS CALL DUP8 PUSH1 0x0 MLOAD EQ DUP2 AND ISZERO PUSH2 0xCDA JUMPI JUMPDEST DUP2 PUSH1 0x40 MSTORE ISZERO PUSH2 0xCC4 JUMPI POP PUSH1 0x20 SWAP1 PUSH1 0x0 SWAP1 PUSH1 0x40 MLOAD SWAP5 DUP3 MSTORE PUSH1 0x4 MSTORE DUP6 PUSH1 0x24 MSTORE PUSH1 0x44 DUP2 DUP1 DUP6 GAS CALL DUP6 PUSH1 0x0 MLOAD EQ DUP2 AND ISZERO PUSH2 0xCA5 JUMPI JUMPDEST DUP3 PUSH1 0x40 MSTORE ISZERO PUSH2 0xC90 JUMPI DUP1 DUP1 PUSH2 0xC23 JUMP JUMPDEST PUSH4 0x5274AFE7 PUSH1 0xE0 SHL DUP3 MSTORE PUSH1 0x4 DUP3 ADD MSTORE PUSH1 0x24 SWAP2 POP REVERT JUMPDEST DUP6 DUP2 ISZERO AND PUSH2 0xCBA JUMPI DUP2 EXTCODESIZE ISZERO ISZERO RETURNDATASIZE ISZERO AND AND PUSH2 0xC80 JUMP JUMPDEST DUP3 RETURNDATASIZE PUSH1 0x0 DUP3 RETURNDATACOPY RETURNDATASIZE SWAP1 REVERT JUMPDEST PUSH4 0x5274AFE7 PUSH1 0xE0 SHL DUP2 MSTORE PUSH1 0x4 DUP2 ADD DUP4 SWAP1 MSTORE PUSH1 0x24 SWAP1 REVERT JUMPDEST DUP8 DUP2 ISZERO AND PUSH2 0xCEF JUMPI DUP4 EXTCODESIZE ISZERO ISZERO RETURNDATASIZE ISZERO AND AND PUSH2 0xC4F JUMP JUMPDEST POP RETURNDATASIZE PUSH1 0x0 DUP3 RETURNDATACOPY RETURNDATASIZE SWAP1 REVERT JUMPDEST DUP4 EXTCODESIZE ISZERO ISZERO RETURNDATASIZE ISZERO AND AND PUSH2 0xC19 JUMP JUMPDEST PUSH1 0x40 MLOAD PUSH4 0xFCE133D PUSH1 0xE0 SHL DUP2 MSTORE PUSH1 0x4 SWAP1 REVERT JUMPDEST PUSH1 0x40 MLOAD PUSH4 0xBAF3F0F7 PUSH1 0xE0 SHL DUP2 MSTORE PUSH1 0x4 SWAP1 REVERT JUMPDEST PUSH4 0x4E487B71 PUSH1 0xE0 SHL DUP4 MSTORE PUSH1 0x21 PUSH1 0x4 MSTORE PUSH1 0x24 DUP4 REVERT JUMPDEST POP CALLVALUE PUSH2 0x2BD JUMPI DUP1 PUSH1 0x3 NOT CALLDATASIZE ADD SLT PUSH2 0x2BD JUMPI PUSH1 0x20 PUSH1 0x40 MLOAD PUSH1 0xFF PUSH32 0x0 AND DUP2 MSTORE RETURN JUMPDEST POP CALLVALUE PUSH2 0x2BD JUMPI DUP1 PUSH1 0x3 NOT CALLDATASIZE ADD SLT PUSH2 0x2BD JUMPI PUSH1 0x20 PUSH1 0xC SLOAD PUSH1 0x40 MLOAD SWAP1 DUP2 MSTORE RETURN JUMPDEST POP CALLVALUE PUSH2 0x2BD JUMPI DUP1 PUSH1 0x3 NOT CALLDATASIZE ADD SLT PUSH2 0x2BD JUMPI PUSH1 0x1 SLOAD PUSH1 0x40 MLOAD PUSH1 0x1 PUSH1 0x1 PUSH1 0xA0 SHL SUB SWAP1 SWAP2 AND DUP2 MSTORE PUSH1 0x20 SWAP1 RETURN JUMPDEST POP CALLVALUE PUSH2 0x2BD JUMPI DUP1 PUSH1 0x3 NOT CALLDATASIZE ADD SLT PUSH2 0x2BD JUMPI PUSH1 0x20 PUSH1 0x40 MLOAD PUSH2 0x2710 DUP2 MSTORE RETURN JUMPDEST POP CALLVALUE PUSH2 0x2BD JUMPI DUP1 PUSH1 0x3 NOT CALLDATASIZE ADD SLT PUSH2 0x2BD JUMPI PUSH1 0x20 PUSH32 0x0 PUSH1 0x40 MLOAD SWAP1 PUSH2 0xE21 DUP2 PUSH2 0x2B50 JUMP JUMPDEST DUP2 MSTORE RETURN JUMPDEST POP CALLVALUE PUSH2 0x2BD JUMPI PUSH1 0xA0 CALLDATASIZE PUSH1 0x3 NOT ADD SLT PUSH2 0x2BD JUMPI PUSH1 0x4 CALLDATALOAD PUSH1 0x1 PUSH1 0x1 PUSH1 0x40 SHL SUB DUP2 GT PUSH2 0x168B JUMPI PUSH2 0xE56 SWAP1 CALLDATASIZE SWAP1 PUSH1 0x4 ADD PUSH2 0x2B70 JUMP JUMPDEST SWAP1 PUSH1 0x24 CALLDATALOAD PUSH1 0x1 PUSH1 0x1 PUSH1 0x40 SHL SUB DUP2 GT PUSH2 0x1687 JUMPI PUSH2 0xE76 SWAP1 CALLDATASIZE SWAP1 PUSH1 0x4 ADD PUSH2 0x2B70 JUMP JUMPDEST SWAP2 PUSH1 0x44 CALLDATALOAD PUSH1 0x1 PUSH1 0x1 PUSH1 0x40 SHL SUB DUP2 GT PUSH2 0x64C JUMPI PUSH2 0xE96 SWAP1 CALLDATASIZE SWAP1 PUSH1 0x4 ADD PUSH2 0x2B70 JUMP JUMPDEST SWAP3 PUSH1 0x64 CALLDATALOAD PUSH1 0x1 PUSH1 0x1 PUSH1 0x40 SHL SUB DUP2 GT PUSH2 0x1683 JUMPI PUSH2 0xEB6 SWAP1 CALLDATASIZE SWAP1 PUSH1 0x4 ADD PUSH2 0x2BA0 JUMP JUMPDEST SWAP3 SWAP1 SWAP2 PUSH1 0x84 CALLDATALOAD PUSH1 0x1 PUSH1 0x1 PUSH1 0x40 SHL SUB DUP2 GT PUSH2 0x167F JUMPI PUSH2 0xED8 SWAP1 CALLDATASIZE SWAP1 PUSH1 0x4 ADD PUSH2 0x2BA0 JUMP JUMPDEST SWAP1 SWAP8 SWAP1 SWAP7 SWAP1 PUSH32 0x0 PUSH1 0x1 PUSH1 0x1 PUSH1 0xA0 SHL SUB AND CALLER SUB PUSH2 0x166D JUMPI PUSH1 0x6 SLOAD PUSH1 0xFF DUP2 AND PUSH2 0x165C JUMPI PUSH1 0xFF PUSH32 0x0 AND DUP12 SUB PUSH2 0x1629 JUMPI PUSH1 0xFF NOT AND PUSH1 0x1 OR PUSH1 0x6 SSTORE DUP11 JUMPDEST DUP11 DUP2 LT PUSH2 0x1581 JUMPI POP PUSH1 0x2 PUSH32 0x0 LT ISZERO PUSH2 0x156D JUMPI PUSH32 0x0 ISZERO PUSH2 0x1371 JUMPI JUMPDEST POP POP POP POP PUSH1 0x1 PUSH1 0x1 PUSH1 0x40 SHL SUB DUP3 GT PUSH2 0x135D JUMPI PUSH1 0x7 PUSH2 0xFC4 DUP2 SLOAD PUSH2 0x28DA JUMP JUMPDEST SWAP1 PUSH1 0x1F SWAP2 DUP3 DUP2 GT PUSH2 0x1311 JUMPI JUMPDEST POP DUP9 DUP5 DUP4 DUP2 GT PUSH1 0x1 EQ PUSH2 0x1291 JUMPI DUP1 PUSH2 0xFFD SWAP3 DUP13 SWAP2 PUSH2 0x1286 JUMPI JUMPDEST POP DUP2 PUSH1 0x1 SHL SWAP2 PUSH1 0x0 NOT SWAP1 PUSH1 0x3 SHL SHR NOT AND OR SWAP1 JUMP JUMPDEST DUP2 SSTORE JUMPDEST PUSH1 0x1 PUSH32 0x0 EQ PUSH2 0x10C3 JUMPI JUMPDEST POP POP PUSH1 0x40 MLOAD SWAP6 DUP1 PUSH1 0x60 DUP9 ADD PUSH1 0x60 DUP10 MSTORE MSTORE PUSH1 0x80 DUP8 ADD SWAP4 SWAP1 DUP9 SWAP1 JUMPDEST DUP1 DUP3 LT PUSH2 0x1099 JUMPI DUP10 PUSH32 0xD4440A27C9CBC5D7A01C508E84787333A316746CDF5CE32C8C5A4568304E0FB9 DUP11 DUP1 PUSH2 0x1093 DUP13 DUP13 PUSH2 0x1085 DUP14 DUP14 DUP14 DUP8 DUP4 SUB PUSH1 0x20 DUP10 ADD MSTORE PUSH2 0x2E45 JUMP JUMPDEST SWAP2 DUP5 DUP4 SUB PUSH1 0x40 DUP7 ADD MSTORE PUSH2 0x2E45 JUMP JUMPDEST SUB SWAP1 LOG1 DUP1 RETURN JUMPDEST SWAP1 SWAP2 SWAP5 DUP6 CALLDATALOAD SWAP1 PUSH1 0x1 DUP1 PUSH1 0xA0 SHL SUB DUP3 AND DUP1 SWAP3 SUB PUSH2 0x32C JUMPI PUSH1 0x1 SWAP2 DUP2 MSTORE PUSH1 0x20 DUP1 SWAP2 ADD SWAP7 ADD SWAP3 ADD SWAP1 PUSH2 0x1042 JUMP JUMPDEST DUP6 ISZERO PUSH2 0x1258 JUMPI POP PUSH2 0x2000 DUP6 GT PUSH2 0x1223 JUMPI PUSH1 0x1 PUSH1 0x1 PUSH1 0x40 SHL SUB DUP6 GT PUSH2 0x120F JUMPI PUSH2 0x10EC PUSH1 0x8 SLOAD PUSH2 0x28DA JUMP JUMPDEST DUP2 DUP2 GT PUSH2 0x11B8 JUMPI JUMPDEST POP DUP5 DUP9 SWAP2 DUP2 GT PUSH1 0x1 EQ PUSH2 0x1136 JUMPI DUP1 PUSH2 0x1120 SWAP3 DUP11 SWAP2 PUSH2 0x112B JUMPI POP DUP2 PUSH1 0x1 SHL SWAP2 PUSH1 0x0 NOT SWAP1 PUSH1 0x3 SHL SHR NOT AND OR SWAP1 JUMP JUMPDEST PUSH1 0x8 SSTORE JUMPDEST CODESIZE DUP1 PUSH2 0x1029 JUMP JUMPDEST SWAP1 POP DUP8 ADD CALLDATALOAD CODESIZE PUSH2 0xFE9 JUMP JUMPDEST POP PUSH1 0x8 DUP9 MSTORE PUSH32 0xF3F7A9FE364FAAB93B216DA50A3214154F22A0A2B415B23A84C8169E8B636EE3 SWAP1 DUP6 PUSH1 0x1F NOT DUP2 AND DUP11 JUMPDEST DUP2 DUP2 LT PUSH2 0x119D JUMPI POP LT PUSH2 0x1183 JUMPI JUMPDEST POP POP PUSH1 0x1 DUP5 DUP2 SHL ADD PUSH1 0x8 SSTORE PUSH2 0x1124 JUMP JUMPDEST DUP7 ADD CALLDATALOAD PUSH1 0x0 NOT PUSH1 0x3 DUP8 SWAP1 SHL PUSH1 0xF8 AND SHR NOT AND SWAP1 SSTORE CODESIZE DUP1 PUSH2 0x1173 JUMP JUMPDEST DUP10 DUP5 ADD CALLDATALOAD DUP6 SSTORE PUSH1 0x1 SWAP1 SWAP5 ADD SWAP4 PUSH1 0x20 SWAP4 DUP5 ADD SWAP4 DUP10 SWAP4 POP ADD PUSH2 0x1165 JUMP JUMPDEST PUSH2 0x1200 SWAP1 PUSH1 0x8 PUSH1 0x0 MSTORE PUSH32 0xF3F7A9FE364FAAB93B216DA50A3214154F22A0A2B415B23A84C8169E8B636EE3 DUP4 DUP1 DUP10 ADD PUSH1 0x5 SHR DUP3 ADD SWAP3 PUSH1 0x20 DUP11 LT PUSH2 0x1206 JUMPI JUMPDEST ADD PUSH1 0x5 SHR ADD SWAP1 PUSH2 0x2E2E JUMP JUMPDEST CODESIZE PUSH2 0x10F4 JUMP JUMPDEST SWAP3 POP DUP2 SWAP3 PUSH2 0x11F5 JUMP JUMPDEST PUSH4 0x4E487B71 PUSH1 0xE0 SHL DUP9 MSTORE PUSH1 0x41 PUSH1 0x4 MSTORE PUSH1 0x24 DUP9 REVERT JUMPDEST PUSH1 0x40 MLOAD PUSH3 0x461BCD PUSH1 0xE5 SHL DUP2 MSTORE PUSH1 0x20 PUSH1 0x4 DUP3 ADD MSTORE PUSH1 0xD PUSH1 0x24 DUP3 ADD MSTORE PUSH13 0x20B731B4B63630B93C903632B7 PUSH1 0x99 SHL PUSH1 0x44 DUP3 ADD MSTORE PUSH1 0x64 SWAP1 REVERT JUMPDEST PUSH1 0x64 SWAP1 PUSH1 0x40 MLOAD SWAP1 PUSH3 0x461BCD PUSH1 0xE5 SHL DUP3 MSTORE PUSH1 0x20 PUSH1 0x4 DUP4 ADD MSTORE PUSH1 0x24 DUP3 ADD MSTORE PUSH7 0x554D4120616E63 PUSH1 0xC8 SHL PUSH1 0x44 DUP3 ADD MSTORE REVERT JUMPDEST SWAP1 POP DUP6 ADD CALLDATALOAD CODESIZE PUSH2 0xFE9 JUMP JUMPDEST POP DUP2 DUP11 MSTORE PUSH32 0xA66CC928B5EDB82AF9BD49922954155AB7B0942694BEA4CE44661D9A8736C688 SWAP1 DUP6 PUSH1 0x1F NOT DUP2 AND DUP13 JUMPDEST DUP2 DUP2 LT PUSH2 0x12F6 JUMPI POP LT PUSH2 0x12DC JUMPI JUMPDEST POP POP PUSH1 0x1 DUP5 DUP2 SHL ADD DUP2 SSTORE PUSH2 0x1000 JUMP JUMPDEST DUP5 ADD CALLDATALOAD PUSH1 0x0 NOT PUSH1 0x3 DUP8 SWAP1 SHL PUSH1 0xF8 AND SHR NOT AND SWAP1 SSTORE CODESIZE DUP1 PUSH2 0x12CD JUMP JUMPDEST DUP8 DUP5 ADD CALLDATALOAD DUP6 SSTORE PUSH1 0x1 SWAP1 SWAP5 ADD SWAP4 PUSH1 0x20 SWAP4 DUP5 ADD SWAP4 DUP10 SWAP4 POP ADD PUSH2 0x12BF JUMP JUMPDEST PUSH2 0x1357 SWAP1 DUP3 PUSH1 0x0 MSTORE PUSH32 0xA66CC928B5EDB82AF9BD49922954155AB7B0942694BEA4CE44661D9A8736C688 DUP5 DUP1 DUP9 ADD PUSH1 0x5 SHR DUP3 ADD SWAP3 PUSH1 0x20 DUP10 LT PUSH2 0x1206 JUMPI ADD PUSH1 0x5 SHR ADD SWAP1 PUSH2 0x2E2E JUMP JUMPDEST CODESIZE PUSH2 0xFD0 JUMP JUMPDEST PUSH4 0x4E487B71 PUSH1 0xE0 SHL DUP8 MSTORE PUSH1 0x41 PUSH1 0x4 MSTORE PUSH1 0x24 DUP8 REVERT JUMPDEST DUP1 ISZERO PUSH2 0x150A JUMPI PUSH1 0xFF PUSH32 0x0 AND DUP2 EQ DUP1 PUSH2 0x14DE JUMPI JUMPDEST PUSH2 0x13AC SWAP1 PUSH2 0x2DFC JUMP JUMPDEST DUP11 JUMPDEST DUP2 DUP2 LT PUSH2 0x13FB JUMPI POP POP POP POP POP JUMPDEST DUP4 PUSH2 0x13C9 JUMPI CODESIZE DUP1 DUP1 DUP1 PUSH2 0xFA6 JUMP JUMPDEST PUSH1 0x40 MLOAD PUSH3 0x461BCD PUSH1 0xE5 SHL DUP2 MSTORE PUSH1 0x20 PUSH1 0x4 DUP3 ADD MSTORE PUSH1 0xA PUSH1 0x24 DUP3 ADD MSTORE PUSH10 0x4E6F20554D4120616E63 PUSH1 0xB0 SHL PUSH1 0x44 DUP3 ADD MSTORE PUSH1 0x64 SWAP1 REVERT JUMPDEST PUSH2 0x1406 DUP2 DUP4 DUP7 PUSH2 0x2DEC JUMP JUMPDEST CALLDATALOAD PUSH2 0x1412 DUP3 DUP6 DUP9 PUSH2 0x2DEC JUMP JUMPDEST CALLDATALOAD LT PUSH2 0x14AC JUMPI PUSH2 0x1423 DUP2 DUP4 DUP7 PUSH2 0x2DEC JUMP JUMPDEST CALLDATALOAD SWAP1 PUSH1 0x4 SLOAD PUSH1 0x1 PUSH1 0x40 SHL SWAP3 DUP4 DUP3 LT ISZERO PUSH2 0x1496 JUMPI PUSH2 0x1449 DUP3 PUSH1 0x1 PUSH2 0x1462 SWAP5 ADD PUSH1 0x4 SSTORE PUSH2 0x29D5 JUMP JUMPDEST SWAP1 SWAP2 SWAP1 DUP3 SLOAD SWAP1 PUSH1 0x3 SHL SWAP2 DUP3 SHL SWAP2 PUSH1 0x0 NOT SWAP1 SHL NOT AND OR SWAP1 SSTORE JUMP JUMPDEST PUSH2 0x146D DUP2 DUP6 DUP9 PUSH2 0x2DEC JUMP JUMPDEST CALLDATALOAD SWAP2 PUSH1 0x5 SWAP3 DUP4 SLOAD SWAP2 DUP3 LT ISZERO PUSH2 0x1496 JUMPI PUSH2 0x1449 DUP3 PUSH1 0x1 SWAP6 DUP7 PUSH2 0x1490 SWAP6 ADD SWAP1 SSTORE PUSH2 0x2A43 JUMP JUMPDEST ADD PUSH2 0x13AE JUMP JUMPDEST PUSH4 0x4E487B71 PUSH1 0xE0 SHL PUSH1 0x0 MSTORE PUSH1 0x41 PUSH1 0x4 MSTORE PUSH1 0x24 PUSH1 0x0 REVERT JUMPDEST PUSH1 0x40 MLOAD PUSH3 0x461BCD PUSH1 0xE5 SHL DUP2 MSTORE PUSH1 0x20 PUSH1 0x4 DUP3 ADD MSTORE PUSH1 0xA PUSH1 0x24 DUP3 ADD MSTORE PUSH10 0x42696E20626F756E6473 PUSH1 0xB0 SHL PUSH1 0x44 DUP3 ADD MSTORE PUSH1 0x64 SWAP1 REVERT JUMPDEST POP PUSH32 0x0 PUSH1 0xFF AND DUP3 EQ PUSH2 0x13A3 JUMP JUMPDEST POP POP POP POP PUSH1 0x2 PUSH1 0xFF PUSH32 0x0 AND SUB ISZERO PUSH2 0x13BB JUMPI PUSH1 0x40 MLOAD PUSH3 0x461BCD PUSH1 0xE5 SHL DUP2 MSTORE PUSH1 0x20 PUSH1 0x4 DUP3 ADD MSTORE PUSH1 0xB PUSH1 0x24 DUP3 ADD MSTORE PUSH11 0x2134B7399037B910271E99 PUSH1 0xA9 SHL PUSH1 0x44 DUP3 ADD MSTORE PUSH1 0x64 SWAP1 REVERT JUMPDEST PUSH4 0x4E487B71 PUSH1 0xE0 SHL DUP12 MSTORE PUSH1 0x21 PUSH1 0x4 MSTORE PUSH1 0x24 DUP12 REVERT JUMPDEST PUSH2 0x158C DUP2 DUP13 DUP11 PUSH2 0x2DEC JUMP JUMPDEST CALLDATALOAD SWAP1 PUSH1 0x1 PUSH1 0x1 PUSH1 0xA0 SHL SUB DUP3 AND DUP3 SUB PUSH2 0x1625 JUMPI PUSH1 0x2 SLOAD PUSH1 0x1 PUSH1 0x40 SHL DUP2 LT ISZERO PUSH2 0x1611 JUMPI DUP1 PUSH1 0x1 PUSH2 0x15BD SWAP3 ADD PUSH1 0x2 SSTORE PUSH2 0x2A0C JUMP JUMPDEST DUP2 SLOAD PUSH1 0x1 PUSH1 0x1 PUSH1 0xA0 SHL SUB PUSH1 0x3 SWAP3 DUP4 SHL DUP2 DUP2 SHL NOT SWAP1 SWAP3 AND SWAP6 AND SWAP1 SHL SWAP4 SWAP1 SWAP4 OR SWAP1 SSTORE DUP2 SLOAD SWAP2 PUSH1 0x1 PUSH1 0x40 SHL DUP4 LT ISZERO PUSH2 0x1496 JUMPI PUSH2 0x15FC DUP4 PUSH1 0x1 DUP1 SWAP6 ADD DUP4 SSTORE PUSH2 0x2988 JUMP JUMPDEST SWAP1 SWAP2 DUP3 SLOAD SWAP2 PUSH1 0x0 NOT SWAP2 SHL SHL NOT AND SWAP1 SSTORE ADD PUSH2 0xF4E JUMP JUMPDEST PUSH4 0x4E487B71 PUSH1 0xE0 SHL DUP15 MSTORE PUSH1 0x41 PUSH1 0x4 MSTORE PUSH1 0x24 DUP15 REVERT JUMPDEST DUP13 DUP1 REVERT JUMPDEST PUSH1 0x40 MLOAD PUSH3 0x461BCD PUSH1 0xE5 SHL DUP2 MSTORE PUSH1 0x20 PUSH1 0x4 DUP3 ADD MSTORE PUSH1 0xB PUSH1 0x24 DUP3 ADD MSTORE PUSH11 0x151BDAD95B8818DBDD5B9D PUSH1 0xAA SHL PUSH1 0x44 DUP3 ADD MSTORE PUSH1 0x64 SWAP1 REVERT JUMPDEST PUSH1 0x40 MLOAD PUSH3 0xDC149F PUSH1 0xE4 SHL DUP2 MSTORE PUSH1 0x4 SWAP1 REVERT JUMPDEST PUSH1 0x40 MLOAD PUSH4 0x636A157 PUSH1 0xE1 SHL DUP2 MSTORE PUSH1 0x4 SWAP1 REVERT JUMPDEST DUP10 DUP1 REVERT JUMPDEST DUP8 DUP1 REVERT JUMPDEST DUP4 DUP1 REVERT JUMPDEST POP DUP1 REVERT JUMPDEST POP CALLVALUE PUSH2 0x2BD JUMPI DUP1 PUSH1 0x3 NOT CALLDATASIZE ADD SLT PUSH2 0x2BD JUMPI PUSH1 0x20 PUSH1 0x40 MLOAD PUSH32 0x0 DUP2 MSTORE RETURN JUMPDEST POP CALLVALUE PUSH2 0x2BD JUMPI DUP1 PUSH1 0x3 NOT CALLDATASIZE ADD SLT PUSH2 0x2BD JUMPI PUSH1 0x20 PUSH1 0x9 SLOAD PUSH1 0x40 MLOAD SWAP1 DUP2 MSTORE RETURN JUMPDEST POP CALLVALUE PUSH2 0x2BD JUMPI DUP1 PUSH1 0x3 NOT CALLDATASIZE ADD SLT PUSH2 0x2BD JUMPI PUSH1 0x20 PUSH1 0x40 MLOAD PUSH32 0x0 DUP2 MSTORE RETURN JUMPDEST POP CALLVALUE PUSH2 0x2BD JUMPI DUP1 PUSH1 0x3 NOT CALLDATASIZE ADD SLT PUSH2 0x2BD JUMPI PUSH1 0x20 PUSH1 0x40 MLOAD PUSH32 0x0 DUP2 MSTORE RETURN JUMPDEST POP CALLVALUE PUSH2 0x2BD JUMPI DUP1 PUSH1 0x3 NOT CALLDATASIZE ADD SLT PUSH2 0x2BD JUMPI PUSH1 0x40 MLOAD PUSH32 0x0 PUSH1 0x1 PUSH1 0x1 PUSH1 0xA0 SHL SUB AND DUP2 MSTORE PUSH1 0x20 SWAP1 RETURN JUMPDEST POP CALLVALUE PUSH2 0x2BD JUMPI DUP1 PUSH1 0x3 NOT CALLDATASIZE ADD SLT PUSH2 0x2BD JUMPI PUSH1 0x20 PUSH1 0xFF PUSH1 0x6 SLOAD PUSH1 0x8 SHR AND PUSH1 0x40 MLOAD SWAP1 PUSH2 0xE21 DUP2 PUSH2 0x2B50 JUMP JUMPDEST POP CALLVALUE PUSH2 0x2BD JUMPI PUSH1 0x40 CALLDATASIZE PUSH1 0x3 NOT ADD SLT PUSH2 0x2BD JUMPI PUSH2 0x17E6 PUSH2 0x2A7A JUMP JUMPDEST PUSH1 0x24 CALLDATALOAD SWAP1 PUSH2 0x17F2 PUSH2 0x2E8D JUMP JUMPDEST PUSH1 0x6 SLOAD PUSH1 0xFF DUP2 AND ISZERO PUSH2 0x7DD JUMPI PUSH1 0xFF PUSH1 0x2 SWAP2 PUSH1 0x8 SHR AND PUSH2 0x1810 DUP2 PUSH2 0x2B50 JUMP JUMPDEST SUB PUSH2 0xD18 JUMPI DUP2 ISZERO PUSH2 0x650 JUMPI PUSH1 0xFF DUP2 AND PUSH1 0xFF PUSH32 0x0 AND DUP2 LT ISZERO PUSH2 0x1943 JUMPI PUSH1 0xFF PUSH1 0xA SLOAD AND SUB PUSH2 0x1943 JUMPI PUSH1 0xB SLOAD DUP1 ISZERO PUSH2 0x1931 JUMPI PUSH2 0x1871 PUSH8 0xDE0B6B3A7640000 SWAP2 DUP5 PUSH2 0x2C18 JUMP JUMPDEST DIV SWAP2 DUP3 ISZERO PUSH2 0x1903 JUMPI PUSH2 0x1883 DUP5 SWAP3 PUSH2 0x2A0C JUMP JUMPDEST SWAP1 SLOAD PUSH1 0x3 SWAP2 SWAP1 SWAP2 SHL SHR PUSH1 0x1 PUSH1 0x1 PUSH1 0xA0 SHL SUB AND DUP1 EXTCODESIZE ISZERO PUSH2 0xADD JUMPI PUSH1 0x40 MLOAD PUSH4 0x79CC679 PUSH1 0xE4 SHL DUP2 MSTORE CALLER PUSH1 0x4 DUP3 ADD MSTORE PUSH1 0x24 DUP2 ADD SWAP3 SWAP1 SWAP3 MSTORE DUP3 SWAP1 DUP3 SWAP1 PUSH1 0x44 SWAP1 DUP3 SWAP1 DUP5 SWAP1 GAS CALL DUP1 ISZERO PUSH2 0xAD2 JUMPI PUSH2 0x18EF JUMPI JUMPDEST POP PUSH2 0x18DA DUP3 CALLER PUSH2 0x356C JUMP JUMPDEST PUSH1 0x1 PUSH1 0x0 DUP1 MLOAD PUSH1 0x20 PUSH2 0x3681 DUP4 CODECOPY DUP2 MLOAD SWAP2 MSTORE SSTORE DUP1 RETURN JUMPDEST PUSH2 0x18F8 SWAP1 PUSH2 0x2914 JUMP JUMPDEST PUSH2 0x168B JUMPI DUP2 CODESIZE PUSH2 0x18CF JUMP JUMPDEST PUSH1 0x40 MLOAD PUSH3 0x461BCD PUSH1 0xE5 SHL DUP2 MSTORE PUSH1 0x20 PUSH1 0x4 DUP3 ADD MSTORE PUSH1 0x6 PUSH1 0x24 DUP3 ADD MSTORE PUSH6 0x14185E5BDD5D PUSH1 0xD2 SHL PUSH1 0x44 DUP3 ADD MSTORE PUSH1 0x64 SWAP1 REVERT JUMPDEST PUSH1 0x40 MLOAD PUSH4 0xB3B7D75F PUSH1 0xE0 SHL DUP2 MSTORE PUSH1 0x4 SWAP1 REVERT JUMPDEST PUSH1 0x40 MLOAD PUSH4 0xC74A206D PUSH1 0xE0 SHL DUP2 MSTORE PUSH1 0x4 SWAP1 REVERT JUMPDEST POP CALLVALUE PUSH2 0x2BD JUMPI DUP1 PUSH1 0x3 NOT CALLDATASIZE ADD SLT PUSH2 0x2BD JUMPI PUSH1 0x20 PUSH1 0x40 MLOAD PUSH32 0x0 DUP2 MSTORE RETURN JUMPDEST POP CALLVALUE PUSH2 0x2BD JUMPI DUP1 PUSH1 0x3 NOT CALLDATASIZE ADD SLT PUSH2 0x2BD JUMPI PUSH1 0x20 PUSH1 0x40 MLOAD PUSH32 0x0 DUP2 MSTORE RETURN JUMPDEST POP CALLVALUE PUSH2 0x2BD JUMPI DUP1 PUSH1 0x3 NOT CALLDATASIZE ADD SLT PUSH2 0x2BD JUMPI PUSH1 0x20 PUSH1 0x40 MLOAD PUSH8 0xDE0B6B3A7640000 DUP2 MSTORE RETURN JUMPDEST POP CALLVALUE PUSH2 0x2BD JUMPI DUP1 PUSH1 0x3 NOT CALLDATASIZE ADD SLT PUSH2 0x2BD JUMPI PUSH1 0xE SLOAD PUSH1 0x40 MLOAD PUSH1 0x1 PUSH1 0x1 PUSH1 0xA0 SHL SUB SWAP1 SWAP2 AND DUP2 MSTORE PUSH1 0x20 SWAP1 RETURN JUMPDEST POP CALLVALUE PUSH2 0x2BD JUMPI PUSH1 0x20 CALLDATASIZE PUSH1 0x3 NOT ADD SLT PUSH2 0x2BD JUMPI PUSH1 0x20 PUSH2 0x1A3B PUSH2 0x1A36 PUSH2 0x2A7A JUMP JUMPDEST PUSH2 0x2CE0 JUMP JUMPDEST PUSH1 0x40 MLOAD SWAP1 DUP2 MSTORE RETURN JUMPDEST POP CALLVALUE PUSH2 0x2BD JUMPI DUP1 PUSH1 0x3 NOT CALLDATASIZE ADD SLT PUSH2 0x2BD JUMPI PUSH1 0x40 MLOAD PUSH32 0x0 PUSH1 0x2 DUP2 LT ISZERO PUSH2 0xD2A JUMPI PUSH1 0x20 SWAP3 POP DUP2 MSTORE RETURN JUMPDEST POP CALLVALUE PUSH2 0x2BD JUMPI DUP1 PUSH1 0x3 NOT CALLDATASIZE ADD SLT PUSH2 0x2BD JUMPI SLOAD PUSH1 0x40 MLOAD PUSH1 0x1 PUSH1 0x1 PUSH1 0xA0 SHL SUB SWAP1 SWAP2 AND DUP2 MSTORE PUSH1 0x20 SWAP1 RETURN JUMPDEST POP CALLVALUE PUSH2 0x2BD JUMPI DUP1 PUSH1 0x3 NOT CALLDATASIZE ADD SLT PUSH2 0x2BD JUMPI PUSH1 0x20 PUSH1 0x40 MLOAD PUSH1 0x1 PUSH1 0x1 PUSH1 0x40 SHL SUB PUSH32 0x0 AND DUP2 MSTORE RETURN JUMPDEST POP CALLVALUE PUSH2 0x2BD JUMPI DUP1 PUSH1 0x3 NOT CALLDATASIZE ADD SLT PUSH2 0x2BD JUMPI PUSH1 0x20 PUSH1 0x40 MLOAD PUSH1 0xFF PUSH32 0x0 AND DUP2 MSTORE RETURN JUMPDEST POP CALLVALUE PUSH2 0x2BD JUMPI DUP1 PUSH1 0x3 NOT CALLDATASIZE ADD SLT PUSH2 0x2BD JUMPI PUSH1 0x20 PUSH1 0xD SLOAD PUSH1 0x40 MLOAD SWAP1 DUP2 MSTORE RETURN JUMPDEST POP CALLVALUE PUSH2 0x2BD JUMPI DUP1 PUSH1 0x3 NOT CALLDATASIZE ADD SLT PUSH2 0x2BD JUMPI PUSH1 0x20 PUSH1 0x40 MLOAD PUSH32 0x0 DUP2 MSTORE RETURN JUMPDEST POP CALLVALUE PUSH2 0x2BD JUMPI DUP1 PUSH1 0x3 NOT CALLDATASIZE ADD SLT PUSH2 0x2BD JUMPI PUSH1 0x40 MLOAD PUSH32 0x0 PUSH1 0x1 PUSH1 0x1 PUSH1 0xA0 SHL SUB AND DUP2 MSTORE PUSH1 0x20 SWAP1 RETURN JUMPDEST POP CALLVALUE PUSH2 0x2BD JUMPI DUP1 PUSH1 0x3 NOT CALLDATASIZE ADD SLT PUSH2 0x2BD JUMPI PUSH1 0x20 PUSH1 0xA SLOAD PUSH1 0x40 MLOAD SWAP1 DUP2 MSTORE RETURN JUMPDEST POP CALLVALUE PUSH2 0x2BD JUMPI DUP1 PUSH1 0x3 NOT CALLDATASIZE ADD SLT PUSH2 0x2BD JUMPI PUSH1 0x1 SLOAD PUSH1 0x1 PUSH1 0x1 PUSH1 0xA0 SHL SUB CALLER DUP2 DUP4 AND SUB PUSH2 0x1C60 JUMPI PUSH12 0xFFFFFFFFFFFFFFFFFFFFFFFF PUSH1 0xA0 SHL DUP1 SWAP3 AND PUSH1 0x1 SSTORE PUSH1 0x0 SLOAD SWAP2 CALLER SWAP1 DUP4 AND OR PUSH1 0x0 SSTORE CALLER SWAP2 AND PUSH32 0x8BE0079C531659141344CD1FD0A4F28419497F9722A3DAAFE3B4186F6B6457E0 PUSH1 0x0 DUP1 LOG3 DUP1 RETURN JUMPDEST PUSH1 0x40 MLOAD PUSH4 0x118CDAA7 PUSH1 0xE0 SHL DUP2 MSTORE CALLER PUSH1 0x4 DUP3 ADD MSTORE PUSH1 0x24 SWAP1 REVERT JUMPDEST POP CALLVALUE PUSH2 0x2BD JUMPI DUP1 PUSH1 0x3 NOT CALLDATASIZE ADD SLT PUSH2 0x2BD JUMPI PUSH1 0x20 PUSH1 0x40 MLOAD PUSH32 0x0 DUP2 MSTORE RETURN JUMPDEST POP CALLVALUE PUSH2 0x2BD JUMPI DUP1 PUSH1 0x3 NOT CALLDATASIZE ADD SLT PUSH2 0x2BD JUMPI PUSH2 0x1CE3 PUSH2 0x1CCF PUSH2 0x2A8A JUMP JUMPDEST PUSH1 0x40 MLOAD SWAP2 DUP3 SWAP2 PUSH1 0x20 DUP4 MSTORE PUSH1 0x20 DUP4 ADD SWAP1 PUSH2 0x2948 JUMP JUMPDEST SUB SWAP1 RETURN JUMPDEST POP CALLVALUE PUSH2 0x2BD JUMPI DUP1 PUSH1 0x3 NOT CALLDATASIZE ADD SLT PUSH2 0x2BD JUMPI PUSH2 0x1D00 PUSH2 0x3558 JUMP JUMPDEST PUSH1 0x1 DUP1 SLOAD PUSH1 0x1 PUSH1 0x1 PUSH1 0xA0 SHL SUB NOT SWAP1 DUP2 AND SWAP1 SWAP2 SSTORE PUSH1 0x0 DUP1 SLOAD SWAP2 DUP3 AND DUP2 SSTORE SWAP1 PUSH1 0x1 PUSH1 0x1 PUSH1 0xA0 SHL SUB AND PUSH32 0x8BE0079C531659141344CD1FD0A4F28419497F9722A3DAAFE3B4186F6B6457E0 DUP3 DUP1 LOG3 DUP1 RETURN JUMPDEST POP PUSH1 0x80 CALLDATASIZE PUSH1 0x3 NOT ADD SLT PUSH2 0x2BD JUMPI PUSH2 0x1D62 PUSH2 0x2A7A JUMP JUMPDEST PUSH1 0x44 CALLDATALOAD SWAP1 PUSH1 0x1 PUSH1 0x1 PUSH1 0xA0 SHL SUB DUP1 DUP4 AND SWAP2 PUSH1 0x24 CALLDATALOAD SWAP2 DUP4 DUP6 SUB PUSH2 0x64C JUMPI PUSH2 0x1D85 PUSH2 0x2E8D JUMP JUMPDEST PUSH1 0x6 SLOAD PUSH1 0xFF DUP2 AND ISZERO PUSH2 0x7DD JUMPI PUSH1 0x8 SHR PUSH1 0xFF AND PUSH2 0x1DA0 DUP2 PUSH2 0x2B50 JUMP JUMPDEST PUSH2 0x7CB JUMPI PUSH32 0x0 TIMESTAMP LT ISZERO PUSH2 0x7B9 JUMPI PUSH1 0xFF DUP3 AND SWAP5 PUSH1 0xFF PUSH32 0x0 AND DUP7 LT ISZERO PUSH2 0x1943 JUMPI DUP4 ISZERO SWAP3 PUSH2 0x1E09 DUP5 ISZERO PUSH2 0x2C6A JUMP JUMPDEST DUP6 ISZERO PUSH2 0x1FF5 JUMPI PUSH32 0x0 DUP4 AND DUP1 PUSH2 0x1FAF JUMPI POP DUP5 CALLVALUE SUB PUSH2 0x6F2 JUMPI JUMPDEST PUSH2 0x1E49 DUP2 PUSH2 0x2CE0 JUMP JUMPDEST SWAP4 PUSH2 0x1E55 DUP6 ISZERO ISZERO PUSH2 0x2C9F JUMP JUMPDEST PUSH8 0xDE0B6B3A7640000 SWAP1 DUP2 DUP8 MUL SWAP2 DUP8 DUP4 DIV EQ OR ISZERO PUSH2 0x1F9B JUMPI DUP5 PUSH2 0x1E77 SWAP2 PUSH2 0x2C2B JUMP JUMPDEST SWAP3 DUP4 ISZERO PUSH2 0x650 JUMPI PUSH1 0x64 CALLDATALOAD DUP5 LT PUSH2 0x1F89 JUMPI PUSH2 0x1EAD DUP3 PUSH2 0x1EA8 PUSH2 0x1E98 DUP13 SWAP6 PUSH2 0x2988 JUMP JUMPDEST PUSH2 0x558 DUP12 DUP4 SLOAD DUP4 PUSH1 0x3 SHL SHR PUSH2 0x2CD3 JUMP JUMPDEST PUSH2 0x2A0C JUMP JUMPDEST SWAP1 SLOAD SWAP1 PUSH1 0x3 SHL SHR AND SWAP2 DUP3 EXTCODESIZE ISZERO PUSH2 0x168B JUMPI PUSH1 0x40 MLOAD PUSH4 0x40C10F19 PUSH1 0xE0 SHL DUP2 MSTORE PUSH1 0x1 PUSH1 0x1 PUSH1 0xA0 SHL SUB SWAP2 SWAP1 SWAP2 AND PUSH1 0x4 DUP3 ADD MSTORE PUSH1 0x24 DUP2 ADD DUP5 SWAP1 MSTORE SWAP2 DUP3 SWAP1 PUSH1 0x44 SWAP1 DUP3 SWAP1 DUP5 SWAP1 GAS CALL DUP1 ISZERO PUSH2 0x1F7E JUMPI PUSH2 0x1F49 JUMPI JUMPDEST POP PUSH1 0x40 DUP1 MLOAD SWAP4 DUP5 MSTORE PUSH1 0x20 DUP5 ADD SWAP2 SWAP1 SWAP2 MSTORE DUP3 ADD MSTORE CALLER SWAP1 PUSH32 0x8241D0DEFADD8507317470D315422749A6C8F8B8C9C0872AAB09C665EAF3B66B SWAP1 PUSH1 0x60 SWAP1 LOG4 PUSH1 0x1 PUSH1 0x0 DUP1 MLOAD PUSH1 0x20 PUSH2 0x3681 DUP4 CODECOPY DUP2 MLOAD SWAP2 MSTORE SSTORE DUP1 RETURN JUMPDEST SWAP6 PUSH2 0x1F76 PUSH32 0x8241D0DEFADD8507317470D315422749A6C8F8B8C9C0872AAB09C665EAF3B66B SWAP4 SWAP3 SWAP8 PUSH2 0x2914 JUMP JUMPDEST SWAP6 SWAP1 SWAP2 PUSH2 0x1EF9 JUMP JUMPDEST PUSH1 0x40 MLOAD RETURNDATASIZE DUP10 DUP3 RETURNDATACOPY RETURNDATASIZE SWAP1 REVERT JUMPDEST PUSH1 0x40 MLOAD PUSH4 0x7DD37F7 PUSH1 0xE4 SHL DUP2 MSTORE PUSH1 0x4 SWAP1 REVERT JUMPDEST PUSH4 0x4E487B71 PUSH1 0xE0 SHL DUP10 MSTORE PUSH1 0x11 PUSH1 0x4 MSTORE PUSH1 0x24 DUP10 REVERT JUMPDEST CALLVALUE PUSH2 0x1FC7 JUMPI DUP6 PUSH2 0x1FC2 SWAP2 ADDRESS SWAP1 CALLER SWAP1 PUSH2 0x34CB JUMP JUMPDEST PUSH2 0x1E40 JUMP JUMPDEST PUSH1 0x40 MLOAD PUSH3 0x461BCD PUSH1 0xE5 SHL DUP2 MSTORE PUSH1 0x20 PUSH1 0x4 DUP3 ADD MSTORE PUSH1 0x6 PUSH1 0x24 DUP3 ADD MSTORE PUSH6 0x9CDE408AA89 PUSH1 0xD3 SHL PUSH1 0x44 DUP3 ADD MSTORE PUSH1 0x64 SWAP1 REVERT JUMPDEST PUSH1 0x40 MLOAD PUSH3 0x461BCD PUSH1 0xE5 SHL DUP2 MSTORE PUSH1 0x20 PUSH1 0x4 DUP3 ADD MSTORE PUSH1 0x9 PUSH1 0x24 DUP3 ADD MSTORE PUSH9 0x149958DA5C1A595B9D PUSH1 0xBA SHL PUSH1 0x44 DUP3 ADD MSTORE PUSH1 0x64 SWAP1 REVERT JUMPDEST POP CALLVALUE PUSH2 0x2BD JUMPI DUP1 PUSH1 0x3 NOT CALLDATASIZE ADD SLT PUSH2 0x2BD JUMPI PUSH1 0x20 PUSH1 0x40 MLOAD PUSH32 0x0 DUP2 MSTORE RETURN JUMPDEST POP CALLVALUE PUSH2 0x2BD JUMPI PUSH1 0x20 CALLDATASIZE PUSH1 0x3 NOT ADD SLT PUSH2 0x2BD JUMPI PUSH1 0x20 PUSH2 0x2080 PUSH1 0x4 CALLDATALOAD PUSH2 0x2A0C JUMP JUMPDEST SWAP1 SLOAD PUSH1 0x40 MLOAD PUSH1 0x3 SWAP3 SWAP1 SWAP3 SHL SHR PUSH1 0x1 PUSH1 0x1 PUSH1 0xA0 SHL SUB AND DUP2 MSTORE RETURN JUMPDEST POP CALLVALUE PUSH2 0x2BD JUMPI DUP1 PUSH1 0x3 NOT CALLDATASIZE ADD SLT PUSH2 0x2BD JUMPI PUSH1 0x20 PUSH1 0xB SLOAD PUSH1 0x40 MLOAD SWAP1 DUP2 MSTORE RETURN JUMPDEST POP CALLVALUE PUSH2 0x2BD JUMPI PUSH1 0x20 CALLDATASIZE PUSH1 0x3 NOT ADD SLT PUSH2 0x2BD JUMPI PUSH1 0x4 CALLDATALOAD PUSH2 0x20D4 PUSH2 0x2E8D JUMP JUMPDEST PUSH1 0xFF PUSH1 0x6 SLOAD AND ISZERO PUSH2 0x7DD JUMPI PUSH32 0x0 PUSH1 0x2 DUP2 LT ISZERO PUSH2 0xD2A JUMPI PUSH1 0x1 SUB PUSH2 0x2193 JUMPI PUSH2 0x211B DUP2 ISZERO ISZERO PUSH2 0x2C6A JUMP JUMPDEST PUSH32 0x0 PUSH1 0x1 PUSH1 0x1 PUSH1 0xA0 SHL SUB AND SWAP1 PUSH2 0x2152 DUP2 ADDRESS CALLER DUP6 PUSH2 0x34CB JUMP JUMPDEST PUSH1 0x40 MLOAD SWAP1 DUP2 MSTORE PUSH32 0xB70CCB2B3A65BA201E6B7107278D5064431BC3ACF6E932D8F869A913A6797387 PUSH1 0x20 CALLER SWAP3 LOG3 PUSH1 0x1 PUSH1 0x0 DUP1 MLOAD PUSH1 0x20 PUSH2 0x3681 DUP4 CODECOPY DUP2 MLOAD SWAP2 MSTORE SSTORE DUP1 RETURN JUMPDEST PUSH1 0x40 MLOAD PUSH4 0x588DCCFD PUSH1 0xE0 SHL DUP2 MSTORE PUSH1 0x4 SWAP1 REVERT JUMPDEST POP CALLVALUE PUSH2 0x2BD JUMPI DUP1 PUSH1 0x3 NOT CALLDATASIZE ADD SLT PUSH2 0x2BD JUMPI PUSH1 0x20 PUSH1 0x40 MLOAD PUSH32 0x0 DUP2 MSTORE RETURN JUMPDEST POP CALLVALUE PUSH2 0x2BD JUMPI DUP1 PUSH1 0x3 NOT CALLDATASIZE ADD SLT PUSH2 0x2BD JUMPI PUSH2 0x21F9 PUSH2 0x2E8D JUMP JUMPDEST PUSH1 0x6 SLOAD PUSH1 0xFF DUP2 AND ISZERO PUSH2 0x7DD JUMPI PUSH32 0x0 PUSH1 0x2 DUP2 LT ISZERO PUSH2 0xD2A JUMPI PUSH1 0x1 SUB PUSH2 0xD18 JUMPI PUSH1 0xFF PUSH1 0x1 SWAP2 PUSH1 0x8 SHR AND PUSH2 0x2248 DUP2 PUSH2 0x2B50 JUMP JUMPDEST SUB PUSH2 0xD18 JUMPI PUSH2 0x2299 PUSH1 0x20 PUSH2 0x225A PUSH2 0x2A8A JUMP JUMPDEST PUSH1 0x9 SLOAD PUSH1 0x40 MLOAD PUSH4 0x53B59239 PUSH1 0xE0 SHL DUP2 MSTORE SWAP4 DUP5 SWAP3 DUP4 SWAP3 PUSH32 0x0 PUSH1 0x4 DUP6 ADD PUSH2 0x2C4B JUMP JUMPDEST SUB DUP2 DUP6 PUSH32 0x0 PUSH1 0x1 PUSH1 0x1 PUSH1 0xA0 SHL SUB AND GAS CALL DUP1 ISZERO PUSH2 0xAD2 JUMPI DUP3 SWAP1 PUSH2 0x22E8 JUMPI JUMPDEST PUSH2 0x18DA SWAP2 POP PUSH2 0x22E3 DUP2 PUSH2 0x3380 JUMP JUMPDEST PUSH2 0x30AB JUMP JUMPDEST POP PUSH1 0x20 DUP2 RETURNDATASIZE PUSH1 0x20 GT PUSH2 0x2314 JUMPI JUMPDEST DUP2 PUSH2 0x2302 PUSH1 0x20 SWAP4 DUP4 PUSH2 0x2927 JUMP JUMPDEST DUP2 ADD SUB SLT PUSH2 0x168B JUMPI PUSH2 0x18DA SWAP1 MLOAD PUSH2 0x22D5 JUMP JUMPDEST RETURNDATASIZE SWAP2 POP PUSH2 0x22F5 JUMP JUMPDEST POP CALLVALUE PUSH2 0x2BD JUMPI DUP1 PUSH1 0x3 NOT CALLDATASIZE ADD SLT PUSH2 0x2BD JUMPI PUSH1 0x40 MLOAD PUSH32 0x0 PUSH1 0x1 PUSH1 0x1 PUSH1 0xA0 SHL SUB AND DUP2 MSTORE PUSH1 0x20 SWAP1 RETURN JUMPDEST POP CALLVALUE PUSH2 0x2BD JUMPI DUP1 PUSH1 0x3 NOT CALLDATASIZE ADD SLT PUSH2 0x2BD JUMPI PUSH1 0x40 MLOAD PUSH32 0x0 PUSH1 0x1 PUSH1 0x1 PUSH1 0xA0 SHL SUB AND DUP2 MSTORE PUSH1 0x20 SWAP1 RETURN JUMPDEST POP CALLVALUE PUSH2 0x2BD JUMPI DUP1 PUSH1 0x3 NOT CALLDATASIZE ADD SLT PUSH2 0x2BD JUMPI PUSH1 0x20 PUSH1 0xFF PUSH1 0xE SLOAD PUSH1 0xA0 SHR AND PUSH1 0x40 MLOAD SWAP1 ISZERO ISZERO DUP2 MSTORE RETURN JUMPDEST POP CALLVALUE PUSH2 0x2BD JUMPI DUP1 PUSH1 0x3 NOT CALLDATASIZE ADD SLT PUSH2 0x2BD JUMPI PUSH1 0x40 MLOAD PUSH32 0x0 PUSH1 0x1 PUSH1 0x1 PUSH1 0xA0 SHL SUB AND DUP2 MSTORE PUSH1 0x20 SWAP1 RETURN JUMPDEST POP CALLVALUE PUSH2 0x2BD JUMPI DUP1 PUSH1 0x3 NOT CALLDATASIZE ADD SLT PUSH2 0x2BD JUMPI PUSH2 0x242A PUSH2 0x2E8D JUMP JUMPDEST PUSH1 0x6 SLOAD PUSH1 0xFF SWAP1 DUP2 DUP2 AND ISZERO PUSH2 0x7DD JUMPI PUSH32 0x0 PUSH1 0x2 DUP2 LT ISZERO PUSH2 0x26A6 JUMPI PUSH2 0xD18 JUMPI PUSH1 0x8 SHR DUP2 AND PUSH2 0x2474 DUP2 PUSH2 0x2B50 JUMP JUMPDEST PUSH2 0xD18 JUMPI PUSH32 0x0 TIMESTAMP LT PUSH2 0xD06 JUMPI PUSH1 0x40 MLOAD PUSH4 0x3FABE5A3 PUSH1 0xE2 SHL DUP2 MSTORE SWAP1 PUSH32 0x0 PUSH1 0x1 PUSH1 0x1 PUSH1 0xA0 SHL SUB AND PUSH1 0xA0 DUP4 PUSH1 0x4 DUP2 DUP5 GAS STATICCALL DUP1 ISZERO PUSH2 0xB4D JUMPI DUP5 SWAP4 DUP6 SWAP2 PUSH2 0x2652 JUMPI JUMPDEST POP DUP5 DUP5 SGT ISZERO PUSH2 0x2624 JUMPI PUSH2 0x2502 SWAP1 TIMESTAMP PUSH2 0x2BE4 JUMP JUMPDEST PUSH32 0x0 LT PUSH2 0x25F7 JUMPI PUSH1 0x20 PUSH1 0x4 SWAP2 PUSH1 0x40 MLOAD SWAP3 DUP4 DUP1 SWAP3 PUSH4 0x313CE567 PUSH1 0xE0 SHL DUP3 MSTORE GAS STATICCALL DUP1 ISZERO PUSH2 0xB4D JUMPI DUP3 SWAP2 DUP6 SWAP2 PUSH2 0x25B9 JUMPI JUMPDEST POP AND PUSH1 0x6 DUP2 LT PUSH2 0x2596 JUMPI PUSH1 0x5 NOT ADD SWAP1 DUP2 GT PUSH2 0x2582 JUMPI SWAP1 PUSH2 0x22E3 PUSH2 0x257D PUSH2 0x2577 PUSH2 0x18DA SWAP5 PUSH2 0x2C07 JUMP JUMPDEST DUP4 PUSH2 0x2C2B JUMP JUMPDEST PUSH2 0x2EBD JUMP JUMPDEST PUSH4 0x4E487B71 PUSH1 0xE0 SHL DUP4 MSTORE PUSH1 0x11 PUSH1 0x4 MSTORE PUSH1 0x24 DUP4 REVERT JUMPDEST PUSH1 0x6 SUB SWAP1 DUP2 GT PUSH2 0x2582 JUMPI SWAP1 PUSH2 0x22E3 PUSH2 0x257D PUSH2 0x25B3 PUSH2 0x18DA SWAP5 PUSH2 0x2C07 JUMP JUMPDEST DUP4 PUSH2 0x2C18 JUMP JUMPDEST SWAP2 POP POP PUSH1 0x20 DUP2 RETURNDATASIZE PUSH1 0x20 GT PUSH2 0x25EF JUMPI JUMPDEST DUP2 PUSH2 0x25D5 PUSH1 0x20 SWAP4 DUP4 PUSH2 0x2927 JUMP JUMPDEST DUP2 ADD SUB SLT PUSH2 0x1687 JUMPI MLOAD DUP2 DUP2 AND DUP2 SUB PUSH2 0x1687 JUMPI DUP2 SWAP1 CODESIZE PUSH2 0x254F JUMP JUMPDEST RETURNDATASIZE SWAP2 POP PUSH2 0x25C8 JUMP JUMPDEST PUSH1 0x40 MLOAD PUSH3 0x461BCD PUSH1 0xE5 SHL DUP2 MSTORE PUSH1 0x20 PUSH1 0x4 DUP3 ADD MSTORE PUSH1 0x5 PUSH1 0x24 DUP3 ADD MSTORE PUSH5 0x5374616C65 PUSH1 0xD8 SHL PUSH1 0x44 DUP3 ADD MSTORE PUSH1 0x64 SWAP1 REVERT JUMPDEST PUSH1 0x40 MLOAD PUSH3 0x461BCD PUSH1 0xE5 SHL DUP2 MSTORE PUSH1 0x20 PUSH1 0x4 DUP3 ADD MSTORE PUSH1 0x6 PUSH1 0x24 DUP3 ADD MSTORE PUSH6 0x20B739BBB2B9 PUSH1 0xD1 SHL PUSH1 0x44 DUP3 ADD MSTORE PUSH1 0x64 SWAP1 REVERT JUMPDEST SWAP4 POP POP PUSH1 0xA0 DUP4 RETURNDATASIZE PUSH1 0xA0 GT PUSH2 0x269E JUMPI JUMPDEST DUP2 PUSH2 0x266E PUSH1 0xA0 SWAP4 DUP4 PUSH2 0x2927 JUMP JUMPDEST DUP2 ADD SUB SLT PUSH2 0x1687 JUMPI PUSH2 0x267F DUP4 PUSH2 0x2BCD JUMP JUMPDEST POP PUSH1 0x20 DUP4 ADD MLOAD PUSH2 0x2696 PUSH1 0x80 PUSH1 0x60 DUP7 ADD MLOAD SWAP6 ADD PUSH2 0x2BCD JUMP JUMPDEST POP SWAP3 CODESIZE PUSH2 0x24EF JUMP JUMPDEST RETURNDATASIZE SWAP2 POP PUSH2 0x2661 JUMP JUMPDEST PUSH4 0x4E487B71 PUSH1 0xE0 SHL DUP5 MSTORE PUSH1 0x21 PUSH1 0x4 MSTORE PUSH1 0x24 DUP5 REVERT JUMPDEST POP CALLVALUE PUSH2 0x2BD JUMPI DUP1 PUSH1 0x3 NOT CALLDATASIZE ADD SLT PUSH2 0x2BD JUMPI PUSH1 0x20 PUSH1 0xFF PUSH1 0x6 SLOAD AND PUSH1 0x40 MLOAD SWAP1 ISZERO ISZERO DUP2 MSTORE RETURN JUMPDEST POP CALLVALUE PUSH2 0x2BD JUMPI DUP1 PUSH1 0x3 NOT CALLDATASIZE ADD SLT PUSH2 0x2BD JUMPI PUSH1 0x20 PUSH1 0x40 MLOAD PUSH1 0x32 DUP2 MSTORE RETURN JUMPDEST POP CALLVALUE PUSH2 0x2BD JUMPI PUSH1 0x20 CALLDATASIZE PUSH1 0x3 NOT ADD SLT PUSH2 0x2BD JUMPI PUSH1 0x4 CALLDATALOAD SWAP1 PUSH1 0x4 SLOAD DUP3 LT ISZERO PUSH2 0x2BD JUMPI PUSH1 0x20 PUSH2 0x35C DUP4 PUSH2 0x29D5 JUMP JUMPDEST POP CALLVALUE PUSH2 0x2BD JUMPI DUP1 PUSH1 0x3 NOT CALLDATASIZE ADD SLT PUSH2 0x2BD JUMPI PUSH1 0x40 MLOAD PUSH32 0x0 PUSH1 0x1 PUSH1 0x1 PUSH1 0xA0 SHL SUB AND DUP2 MSTORE PUSH1 0x20 SWAP1 RETURN JUMPDEST POP CALLVALUE PUSH2 0x2BD JUMPI PUSH1 0x20 CALLDATASIZE PUSH1 0x3 NOT ADD SLT PUSH2 0x2BD JUMPI PUSH1 0x4 CALLDATALOAD SWAP1 PUSH1 0x3 SLOAD DUP3 LT ISZERO PUSH2 0x2BD JUMPI PUSH1 0x20 PUSH2 0x2794 DUP4 PUSH2 0x2988 JUMP JUMPDEST SWAP1 SLOAD SWAP1 PUSH1 0x3 SHL SHR PUSH1 0x40 MLOAD SWAP1 DUP2 MSTORE RETURN JUMPDEST POP CALLVALUE PUSH2 0x2BD JUMPI DUP1 PUSH1 0x3 NOT CALLDATASIZE ADD SLT PUSH2 0x2BD JUMPI PUSH1 0x20 PUSH1 0x40 MLOAD PUSH2 0x12C DUP2 MSTORE RETURN JUMPDEST POP CALLVALUE PUSH2 0x2BD JUMPI DUP1 PUSH1 0x3 NOT CALLDATASIZE ADD SLT PUSH2 0x2BD JUMPI PUSH1 0x20 PUSH1 0x40 MLOAD PUSH32 0x0 DUP2 MSTORE RETURN JUMPDEST DUP3 CALLVALUE PUSH2 0x2BD JUMPI DUP1 PUSH1 0x3 NOT CALLDATASIZE ADD SLT PUSH2 0x2BD JUMPI PUSH1 0x7 SLOAD DUP3 DUP3 PUSH2 0x281A DUP4 PUSH2 0x28DA JUMP JUMPDEST SWAP3 DUP4 DUP4 MSTORE PUSH1 0x20 SWAP5 PUSH1 0x1 SWAP2 DUP7 PUSH1 0x1 DUP3 AND SWAP2 DUP3 PUSH1 0x0 EQ PUSH2 0x28B8 JUMPI POP POP PUSH1 0x1 EQ PUSH2 0x285E JUMPI JUMPDEST POP POP PUSH2 0x284A SWAP3 POP SUB DUP4 PUSH2 0x2927 JUMP JUMPDEST PUSH2 0x1CE3 PUSH1 0x40 MLOAD SWAP3 DUP3 DUP5 SWAP4 DUP5 MSTORE DUP4 ADD SWAP1 PUSH2 0x2948 JUMP JUMPDEST SWAP1 DUP6 SWAP3 POP PUSH1 0x7 DUP3 MSTORE PUSH32 0xA66CC928B5EDB82AF9BD49922954155AB7B0942694BEA4CE44661D9A8736C688 JUMPDEST DUP6 DUP4 LT PUSH2 0x28A0 JUMPI POP POP PUSH2 0x284A SWAP4 POP DUP3 ADD ADD DUP6 DUP1 PUSH2 0x283C JUMP JUMPDEST DUP1 SLOAD DUP4 DUP10 ADD DUP6 ADD MSTORE DUP8 SWAP5 POP DUP7 SWAP4 SWAP1 SWAP3 ADD SWAP2 DUP2 ADD PUSH2 0x2888 JUMP JUMPDEST SWAP3 POP SWAP4 POP POP PUSH2 0x284A SWAP5 SWAP2 POP PUSH1 0xFF NOT AND DUP3 DUP5 ADD MSTORE ISZERO ISZERO PUSH1 0x5 SHL DUP3 ADD ADD DUP6 DUP1 PUSH2 0x283C JUMP JUMPDEST SWAP1 PUSH1 0x1 DUP3 DUP2 SHR SWAP3 AND DUP1 ISZERO PUSH2 0x290A JUMPI JUMPDEST PUSH1 0x20 DUP4 LT EQ PUSH2 0x28F4 JUMPI JUMP JUMPDEST PUSH4 0x4E487B71 PUSH1 0xE0 SHL PUSH1 0x0 MSTORE PUSH1 0x22 PUSH1 0x4 MSTORE PUSH1 0x24 PUSH1 0x0 REVERT JUMPDEST SWAP2 PUSH1 0x7F AND SWAP2 PUSH2 0x28E9 JUMP JUMPDEST PUSH1 0x1 PUSH1 0x1 PUSH1 0x40 SHL SUB DUP2 GT PUSH2 0x1496 JUMPI PUSH1 0x40 MSTORE JUMP JUMPDEST SWAP1 PUSH1 0x1F DUP1 NOT SWAP2 ADD AND DUP2 ADD SWAP1 DUP2 LT PUSH1 0x1 PUSH1 0x1 PUSH1 0x40 SHL SUB DUP3 GT OR PUSH2 0x1496 JUMPI PUSH1 0x40 MSTORE JUMP JUMPDEST SWAP2 SWAP1 DUP3 MLOAD SWAP3 DUP4 DUP3 MSTORE PUSH1 0x0 JUMPDEST DUP5 DUP2 LT PUSH2 0x2974 JUMPI POP POP DUP3 PUSH1 0x0 PUSH1 0x20 DUP1 SWAP5 SWAP6 DUP5 ADD ADD MSTORE PUSH1 0x1F DUP1 NOT SWAP2 ADD AND ADD ADD SWAP1 JUMP JUMPDEST PUSH1 0x20 DUP2 DUP4 ADD DUP2 ADD MLOAD DUP5 DUP4 ADD DUP3 ADD MSTORE ADD PUSH2 0x2953 JUMP JUMPDEST PUSH1 0x3 SLOAD DUP2 LT ISZERO PUSH2 0x29BF JUMPI PUSH1 0x3 PUSH1 0x0 MSTORE PUSH32 0xC2575A0E9E593C00F959F8C92F12DB2869C3395A3B0502D05E2516446F71F85B ADD SWAP1 PUSH1 0x0 SWAP1 JUMP JUMPDEST PUSH4 0x4E487B71 PUSH1 0xE0 SHL PUSH1 0x0 MSTORE PUSH1 0x32 PUSH1 0x4 MSTORE PUSH1 0x24 PUSH1 0x0 REVERT JUMPDEST PUSH1 0x4 SLOAD DUP2 LT ISZERO PUSH2 0x29BF JUMPI PUSH1 0x4 PUSH1 0x0 MSTORE PUSH32 0x8A35ACFBC15FF81A39AE7D344FD709F28E8600B4AA8C65C6B64BFE7FE36BD19B ADD SWAP1 PUSH1 0x0 SWAP1 JUMP JUMPDEST PUSH1 0x2 SLOAD DUP2 LT ISZERO PUSH2 0x29BF JUMPI PUSH1 0x2 PUSH1 0x0 MSTORE PUSH32 0x405787FA12A823E0F2B7631CC41B3BA8828B3321CA811111FA75CD3AA3BB5ACE ADD SWAP1 PUSH1 0x0 SWAP1 JUMP JUMPDEST PUSH1 0x5 SLOAD DUP2 LT ISZERO PUSH2 0x29BF JUMPI PUSH1 0x5 PUSH1 0x0 MSTORE PUSH32 0x36B6384B5ECA791C62761152D0C79BB0604C104A5FB6F4EB0703F3154BB3DB0 ADD SWAP1 PUSH1 0x0 SWAP1 JUMP JUMPDEST PUSH1 0x4 CALLDATALOAD SWAP1 PUSH1 0xFF DUP3 AND DUP3 SUB PUSH2 0x32C JUMPI JUMP JUMPDEST PUSH1 0x40 MLOAD SWAP1 PUSH1 0x0 DUP3 PUSH1 0x8 SLOAD SWAP2 PUSH2 0x2A9E DUP4 PUSH2 0x28DA JUMP JUMPDEST DUP1 DUP4 MSTORE SWAP3 PUSH1 0x20 SWAP1 PUSH1 0x1 SWAP1 DUP2 DUP2 AND SWAP1 DUP2 ISZERO PUSH2 0x2B2C JUMPI POP PUSH1 0x1 EQ PUSH2 0x2ACB JUMPI JUMPDEST POP POP PUSH2 0x2AC9 SWAP3 POP SUB DUP4 PUSH2 0x2927 JUMP JUMPDEST JUMP JUMPDEST SWAP2 POP SWAP3 PUSH1 0x8 PUSH1 0x0 MSTORE PUSH32 0xF3F7A9FE364FAAB93B216DA50A3214154F22A0A2B415B23A84C8169E8B636EE3 SWAP4 PUSH1 0x0 SWAP3 JUMPDEST DUP3 DUP5 LT PUSH2 0x2B14 JUMPI POP PUSH2 0x2AC9 SWAP5 POP POP POP DUP2 ADD PUSH1 0x20 ADD CODESIZE DUP1 PUSH2 0x2ABB JUMP JUMPDEST DUP6 SLOAD DUP9 DUP6 ADD DUP4 ADD MSTORE SWAP5 DUP6 ADD SWAP5 DUP8 SWAP5 POP SWAP3 DUP2 ADD SWAP3 PUSH2 0x2AF9 JUMP JUMPDEST SWAP2 POP POP PUSH1 0x20 SWAP3 POP PUSH2 0x2AC9 SWAP5 SWAP2 POP PUSH1 0xFF NOT AND DUP3 DUP5 ADD MSTORE ISZERO ISZERO PUSH1 0x5 SHL DUP3 ADD ADD CODESIZE DUP1 PUSH2 0x2ABB JUMP JUMPDEST PUSH1 0x3 GT ISZERO PUSH2 0x2B5A JUMPI JUMP JUMPDEST PUSH4 0x4E487B71 PUSH1 0xE0 SHL PUSH1 0x0 MSTORE PUSH1 0x21 PUSH1 0x4 MSTORE PUSH1 0x24 PUSH1 0x0 REVERT JUMPDEST SWAP2 DUP2 PUSH1 0x1F DUP5 ADD SLT ISZERO PUSH2 0x32C JUMPI DUP3 CALLDATALOAD SWAP2 PUSH1 0x1 PUSH1 0x1 PUSH1 0x40 SHL SUB DUP4 GT PUSH2 0x32C JUMPI PUSH1 0x20 DUP1 DUP6 ADD SWAP5 DUP5 PUSH1 0x5 SHL ADD ADD GT PUSH2 0x32C JUMPI JUMP JUMPDEST SWAP2 DUP2 PUSH1 0x1F DUP5 ADD SLT ISZERO PUSH2 0x32C JUMPI DUP3 CALLDATALOAD SWAP2 PUSH1 0x1 PUSH1 0x1 PUSH1 0x40 SHL SUB DUP4 GT PUSH2 0x32C JUMPI PUSH1 0x20 DUP4 DUP2 DUP7 ADD SWAP6 ADD ADD GT PUSH2 0x32C JUMPI JUMP JUMPDEST MLOAD SWAP1 PUSH10 0xFFFFFFFFFFFFFFFFFFFF DUP3 AND DUP3 SUB PUSH2 0x32C JUMPI JUMP JUMPDEST SWAP2 SWAP1 DUP3 SUB SWAP2 DUP3 GT PUSH2 0x2BF1 JUMPI JUMP JUMPDEST PUSH4 0x4E487B71 PUSH1 0xE0 SHL PUSH1 0x0 MSTORE PUSH1 0x11 PUSH1 0x4 MSTORE PUSH1 0x24 PUSH1 0x0 REVERT JUMPDEST PUSH1 0xFF AND PUSH1 0x4D DUP2 GT PUSH2 0x2BF1 JUMPI PUSH1 0xA EXP SWAP1 JUMP JUMPDEST DUP2 DUP2 MUL SWAP3 SWAP2 DUP2 ISZERO SWAP2 DUP5 DIV EQ OR ISZERO PUSH2 0x2BF1 JUMPI JUMP JUMPDEST DUP2 ISZERO PUSH2 0x2C35 JUMPI DIV SWAP1 JUMP JUMPDEST PUSH4 0x4E487B71 PUSH1 0xE0 SHL PUSH1 0x0 MSTORE PUSH1 0x12 PUSH1 0x4 MSTORE PUSH1 0x24 PUSH1 0x0 REVERT JUMPDEST PUSH2 0x2C67 SWAP4 SWAP3 PUSH1 0x60 SWAP3 DUP3 MSTORE PUSH1 0x20 DUP3 ADD MSTORE DUP2 PUSH1 0x40 DUP3 ADD MSTORE ADD SWAP1 PUSH2 0x2948 JUMP JUMPDEST SWAP1 JUMP JUMPDEST ISZERO PUSH2 0x2C71 JUMPI JUMP JUMPDEST PUSH1 0x40 MLOAD PUSH3 0x461BCD PUSH1 0xE5 SHL DUP2 MSTORE PUSH1 0x20 PUSH1 0x4 DUP3 ADD MSTORE PUSH1 0x6 PUSH1 0x24 DUP3 ADD MSTORE PUSH6 0x105B5BDD5B9D PUSH1 0xD2 SHL PUSH1 0x44 DUP3 ADD MSTORE PUSH1 0x64 SWAP1 REVERT JUMPDEST ISZERO PUSH2 0x2CA6 JUMPI JUMP JUMPDEST PUSH1 0x40 MLOAD PUSH3 0x461BCD PUSH1 0xE5 SHL DUP2 MSTORE PUSH1 0x20 PUSH1 0x4 DUP3 ADD MSTORE PUSH1 0x5 PUSH1 0x24 DUP3 ADD MSTORE PUSH5 0x5072696365 PUSH1 0xD8 SHL PUSH1 0x44 DUP3 ADD MSTORE PUSH1 0x64 SWAP1 REVERT JUMPDEST SWAP2 SWAP1 DUP3 ADD DUP1 SWAP3 GT PUSH2 0x2BF1 JUMPI JUMP JUMPDEST PUSH1 0xFF PUSH1 0x6 SLOAD AND ISZERO PUSH2 0x7DD JUMPI PUSH1 0xFF PUSH32 0x0 AND SWAP1 DUP2 PUSH1 0xFF DUP3 AND LT ISZERO PUSH2 0x1943 JUMPI PUSH1 0x0 SWAP2 PUSH1 0x0 PUSH32 0x0 SWAP2 JUMPDEST DUP1 DUP3 LT PUSH2 0x2DBD JUMPI POP POP DUP3 ISZERO PUSH2 0x2D8F JUMPI PUSH2 0x2D5E PUSH2 0x2D6B SWAP3 PUSH2 0x2988 JUMP JUMPDEST SWAP1 SLOAD SWAP1 PUSH1 0x3 SHL SHR SWAP1 PUSH2 0x2CD3 JUMP JUMPDEST SWAP1 PUSH8 0xDE0B6B3A7640000 SWAP2 DUP3 DUP2 MUL SWAP3 DUP2 DUP5 DIV EQ SWAP1 ISZERO OR ISZERO PUSH2 0x2BF1 JUMPI PUSH2 0x2C67 SWAP2 PUSH2 0x2C2B JUMP JUMPDEST PUSH1 0x40 MLOAD PUSH3 0x461BCD PUSH1 0xE5 SHL DUP2 MSTORE PUSH1 0x20 PUSH1 0x4 DUP3 ADD MSTORE PUSH1 0x6 PUSH1 0x24 DUP3 ADD MSTORE PUSH6 0x15D95A59DA1D PUSH1 0xD2 SHL PUSH1 0x44 DUP3 ADD MSTORE PUSH1 0x64 SWAP1 REVERT JUMPDEST SWAP1 SWAP4 PUSH2 0x2DE4 PUSH1 0x1 SWAP2 PUSH2 0x2DDE PUSH2 0x2DD1 DUP9 PUSH2 0x2988 JUMP JUMPDEST SWAP1 SLOAD SWAP1 PUSH1 0x3 SHL SHR DUP7 PUSH2 0x2CD3 JUMP JUMPDEST SWAP1 PUSH2 0x2CD3 JUMP JUMPDEST SWAP5 ADD SWAP1 PUSH2 0x2D43 JUMP JUMPDEST SWAP2 SWAP1 DUP2 LT ISZERO PUSH2 0x29BF JUMPI PUSH1 0x5 SHL ADD SWAP1 JUMP JUMPDEST ISZERO PUSH2 0x2E03 JUMPI JUMP JUMPDEST PUSH1 0x64 PUSH1 0x40 MLOAD PUSH3 0x461BCD PUSH1 0xE5 SHL DUP2 MSTORE PUSH1 0x20 PUSH1 0x4 DUP3 ADD MSTORE PUSH1 0x4 PUSH1 0x24 DUP3 ADD MSTORE PUSH4 0x42696E73 PUSH1 0xE0 SHL PUSH1 0x44 DUP3 ADD MSTORE REVERT JUMPDEST DUP2 DUP2 LT PUSH2 0x2E39 JUMPI POP POP JUMP JUMPDEST PUSH1 0x0 DUP2 SSTORE PUSH1 0x1 ADD PUSH2 0x2E2E JUMP JUMPDEST SWAP1 DUP1 PUSH1 0x20 SWAP4 SWAP3 DUP2 DUP5 MSTORE DUP5 DUP5 ADD CALLDATACOPY PUSH1 0x0 DUP3 DUP3 ADD DUP5 ADD MSTORE PUSH1 0x1F ADD PUSH1 0x1F NOT AND ADD ADD SWAP1 JUMP JUMPDEST SWAP5 SWAP4 SWAP3 PUSH1 0x60 SWAP3 PUSH2 0x2E88 SWAP3 DUP8 MSTORE PUSH1 0x20 DUP8 ADD MSTORE PUSH1 0x80 PUSH1 0x40 DUP8 ADD MSTORE PUSH1 0x80 DUP7 ADD SWAP1 PUSH2 0x2948 JUMP JUMPDEST SWAP4 ADD MSTORE JUMP JUMPDEST PUSH1 0x0 DUP1 MLOAD PUSH1 0x20 PUSH2 0x3681 DUP4 CODECOPY DUP2 MLOAD SWAP2 MSTORE PUSH1 0x2 DUP2 SLOAD EQ PUSH2 0x2EAB JUMPI PUSH1 0x2 SWAP1 SSTORE JUMP JUMPDEST PUSH1 0x40 MLOAD PUSH4 0x3EE5AEB5 PUSH1 0xE0 SHL DUP2 MSTORE PUSH1 0x4 SWAP1 REVERT JUMPDEST PUSH1 0x4 DUP1 SLOAD SWAP1 PUSH1 0xFF PUSH32 0x0 AND DUP1 SWAP3 EQ PUSH2 0x2FF2 JUMPI POP PUSH1 0x2 PUSH2 0x2EFA SWAP2 EQ PUSH2 0x2DFC JUMP JUMPDEST PUSH32 0x0 PUSH2 0x2F24 DUP2 PUSH2 0x2B50 JUMP JUMPDEST DUP1 PUSH2 0x2F5D JUMPI POP PUSH32 0x0 GT ISZERO JUMPDEST ISZERO PUSH2 0x2F58 JUMPI PUSH1 0x0 SWAP1 JUMP JUMPDEST PUSH1 0x1 SWAP1 JUMP JUMPDEST DUP1 PUSH2 0x2F69 PUSH1 0x1 SWAP3 PUSH2 0x2B50 JUMP JUMPDEST SUB PUSH2 0x2F96 JUMPI PUSH32 0x0 LT ISZERO PUSH2 0x2F4E JUMP JUMPDEST PUSH32 0x0 DUP2 LT ISZERO SWAP1 DUP2 PUSH2 0x2FC7 JUMPI JUMPDEST POP PUSH2 0x2F4E JUMP JUMPDEST SWAP1 POP PUSH32 0x0 LT ISZERO CODESIZE PUSH2 0x2FC1 JUMP JUMPDEST SWAP1 PUSH1 0x0 SWAP2 DUP3 SWAP4 DUP4 JUMPDEST DUP4 DUP2 LT PUSH2 0x303E JUMPI POP POP POP POP PUSH1 0x1 SUB PUSH2 0x300F JUMPI SWAP1 JUMP JUMPDEST PUSH1 0x40 MLOAD PUSH3 0x461BCD PUSH1 0xE5 SHL DUP2 MSTORE PUSH1 0x20 PUSH1 0x4 DUP3 ADD MSTORE PUSH1 0x7 PUSH1 0x24 DUP3 ADD MSTORE PUSH7 0x27B732903134B7 PUSH1 0xC9 SHL PUSH1 0x44 DUP3 ADD MSTORE PUSH1 0x64 SWAP1 REVERT JUMPDEST PUSH2 0x3047 DUP2 PUSH2 0x29D5 JUMP JUMPDEST SWAP1 SLOAD PUSH1 0x3 SWAP2 DUP3 SHL SHR DUP4 LT ISZERO SWAP1 DUP2 PUSH2 0x3092 JUMPI JUMPDEST POP PUSH2 0x3067 JUMPI JUMPDEST PUSH1 0x1 ADD PUSH2 0x2FFA JUMP JUMPDEST SWAP5 POP SWAP3 PUSH1 0x0 NOT DUP2 EQ PUSH2 0x307D JUMPI PUSH1 0x1 ADD SWAP3 DUP5 PUSH2 0x305F JUMP JUMPDEST PUSH1 0x11 DUP3 PUSH4 0x4E487B71 PUSH1 0xE0 SHL PUSH1 0x0 MSTORE MSTORE PUSH1 0x24 PUSH1 0x0 REVERT JUMPDEST SWAP1 POP PUSH2 0x309D DUP3 PUSH2 0x2A43 JUMP JUMPDEST SWAP1 SLOAD SWAP2 SHL SHR DUP3 GT ISZERO CODESIZE PUSH2 0x3059 JUMP JUMPDEST PUSH1 0x0 SWAP1 PUSH32 0x0 PUSH1 0xFF AND DUP3 JUMPDEST DUP2 DUP2 LT PUSH2 0x3358 JUMPI POP POP PUSH2 0x12C SWAP2 DUP3 DUP2 MUL SWAP1 DUP1 ISZERO SWAP4 DUP2 DUP4 DIV EQ DUP5 OR ISZERO PUSH2 0x2BF1 JUMPI PUSH2 0x2710 DUP1 SWAP3 DIV SWAP4 PUSH1 0x32 DUP3 MUL SWAP1 DUP3 DUP3 DIV PUSH1 0x32 EQ OR ISZERO PUSH2 0x2BF1 JUMPI PUSH1 0x4 SWAP3 PUSH1 0x20 SWAP2 DIV PUSH2 0x3126 DUP7 PUSH2 0x3120 DUP4 DUP3 PUSH2 0x2BE4 JUMP JUMPDEST SWAP5 PUSH2 0x2BE4 JUMP JUMPDEST SWAP3 PUSH2 0x3130 DUP7 PUSH2 0x2A0C JUMP JUMPDEST SWAP1 SLOAD PUSH1 0x40 MLOAD PUSH4 0x18160DDD PUSH1 0xE0 SHL DUP2 MSTORE SWAP7 PUSH1 0x1 PUSH1 0x1 PUSH1 0xA0 SHL SUB SWAP6 SWAP3 DUP9 SWAP3 DUP4 SWAP2 PUSH1 0x3 SHL SHR DUP8 AND GAS STATICCALL SWAP5 DUP6 ISZERO PUSH2 0x334C JUMPI PUSH1 0x0 SWAP6 PUSH2 0x3318 JUMPI JUMPDEST POP PUSH2 0x316F DUP7 PUSH2 0x2988 JUMP JUMPDEST SWAP1 SLOAD SWAP1 PUSH1 0x3 SHL SHR SWAP3 DUP8 PUSH2 0x328C JUMPI JUMPDEST POP POP DUP4 ISZERO SWAP1 POP PUSH2 0x321A JUMPI DUP2 PUSH2 0x3191 SWAP2 PUSH2 0x2CD3 JUMP JUMPDEST SWAP5 PUSH8 0xDE0B6B3A7640000 SWAP6 DUP7 DUP2 MUL SWAP7 DUP2 DUP9 DIV EQ SWAP1 ISZERO OR ISZERO PUSH2 0x2BF1 JUMPI PUSH2 0x31DA PUSH2 0x3215 SWAP4 PUSH32 0x1156C82479E3534DDD36CA57CD84557FD8B25737545B9B3572C4F2878613AF54 SWAP8 PUSH2 0x2C2B JUMP JUMPDEST PUSH1 0xB SSTORE JUMPDEST DUP4 PUSH1 0xA SSTORE PUSH1 0xC SSTORE TIMESTAMP PUSH1 0xD SSTORE PUSH2 0x200 PUSH2 0xFF00 NOT PUSH1 0x6 SLOAD AND OR PUSH1 0x6 SSTORE PUSH1 0x40 MLOAD SWAP4 DUP5 SWAP4 DUP5 PUSH1 0x40 SWAP2 SWAP5 SWAP4 SWAP3 PUSH1 0x60 DUP3 ADD SWAP6 DUP3 MSTORE PUSH1 0x20 DUP3 ADD MSTORE ADD MSTORE JUMP JUMPDEST SUB SWAP1 LOG1 JUMP JUMPDEST PUSH2 0x3215 SWAP3 POP SWAP5 PUSH2 0x3250 DUP3 PUSH32 0x1156C82479E3534DDD36CA57CD84557FD8B25737545B9B3572C4F2878613AF54 SWAP8 PUSH1 0x0 PUSH1 0xB SSTORE PUSH2 0x2CD3 JUMP JUMPDEST DUP1 PUSH2 0x325C JUMPI JUMPDEST POP PUSH2 0x31DE JUMP JUMPDEST PUSH2 0x3286 SWAP1 PUSH32 0x0 PUSH2 0x356C JUMP JUMPDEST CODESIZE PUSH2 0x3256 JUMP JUMPDEST DUP1 PUSH1 0xE SLOAD AND ISZERO ISZERO DUP1 PUSH2 0x330F JUMPI JUMPDEST ISZERO PUSH2 0x32DD JUMPI PUSH2 0x32D5 SWAP3 PUSH2 0x32AF SWAP2 PUSH1 0xE SLOAD AND PUSH2 0x356C JUMP JUMPDEST PUSH32 0x0 PUSH2 0x356C JUMP JUMPDEST CODESIZE DUP1 DUP1 PUSH2 0x317D JUMP JUMPDEST POP POP POP PUSH2 0x330A DUP6 PUSH32 0x0 PUSH2 0x356C JUMP JUMPDEST PUSH2 0x32D5 JUMP JUMPDEST POP DUP3 ISZERO ISZERO PUSH2 0x3299 JUMP JUMPDEST SWAP1 SWAP5 POP PUSH1 0x20 DUP2 RETURNDATASIZE PUSH1 0x20 GT PUSH2 0x3344 JUMPI JUMPDEST DUP2 PUSH2 0x3334 PUSH1 0x20 SWAP4 DUP4 PUSH2 0x2927 JUMP JUMPDEST DUP2 ADD SUB SLT PUSH2 0x32C JUMPI MLOAD SWAP4 CODESIZE PUSH2 0x3165 JUMP JUMPDEST RETURNDATASIZE SWAP2 POP PUSH2 0x3327 JUMP JUMPDEST PUSH1 0x40 MLOAD RETURNDATASIZE PUSH1 0x0 DUP3 RETURNDATACOPY RETURNDATASIZE SWAP1 REVERT JUMPDEST DUP3 DUP2 SUB PUSH2 0x3368 JUMPI JUMPDEST PUSH1 0x1 ADD PUSH2 0x30D4 JUMP JUMPDEST SWAP3 PUSH2 0x3378 PUSH1 0x1 SWAP2 PUSH2 0x2D5E DUP7 PUSH2 0x2988 JUMP JUMPDEST SWAP4 SWAP1 POP PUSH2 0x3360 JUMP JUMPDEST PUSH1 0x1 PUSH1 0xFF SHL DUP2 EQ DUP1 ISZERO PUSH2 0x34BB JUMPI JUMPDEST PUSH2 0x343D JUMPI PUSH32 0x0 PUSH21 0x4D554C5449504C455F43484F4943455F5155455259 PUSH1 0x58 SHL DUP2 EQ PUSH2 0x3484 JUMPI PUSH15 0x5945535F4F525F4E4F5F5155455259 PUSH1 0x88 SHL EQ PUSH2 0x3471 JUMPI PUSH1 0xFF PUSH32 0x0 AND SWAP1 PUSH1 0x2 DUP3 EQ PUSH2 0x3457 JUMPI PUSH1 0x0 DUP2 SLT PUSH2 0x343D JUMPI PUSH8 0xDE0B6B3A7640000 SWAP1 DUP2 DUP2 LT PUSH2 0x344F JUMPI DIV SWAP1 JUMPDEST DUP2 LT ISZERO PUSH2 0x343D JUMPI SWAP1 JUMP JUMPDEST PUSH1 0x40 MLOAD PUSH4 0x437D7AD7 PUSH1 0xE1 SHL DUP2 MSTORE PUSH1 0x4 SWAP1 REVERT JUMPDEST SWAP1 POP SWAP1 PUSH2 0x3433 JUMP JUMPDEST PUSH8 0xDE0B6B3A7640000 SWAP2 POP EQ PUSH2 0x346C JUMPI PUSH1 0x1 SWAP1 JUMP JUMPDEST PUSH1 0x0 SWAP1 JUMP JUMPDEST PUSH8 0xDE0B6B3A7640000 EQ PUSH2 0x346C JUMPI PUSH1 0x1 SWAP1 JUMP JUMPDEST POP PUSH1 0x0 DUP2 SLT PUSH2 0x343D JUMPI PUSH1 0xFF PUSH32 0x0 AND DUP2 LT ISZERO PUSH2 0x343D JUMPI SWAP1 JUMP JUMPDEST POP PUSH1 0x1 PUSH1 0x1 PUSH1 0xFF SHL SUB DUP2 EQ PUSH2 0x338E JUMP JUMPDEST PUSH1 0x40 MLOAD PUSH4 0x23B872DD PUSH1 0xE0 SHL PUSH1 0x0 SWAP1 DUP2 MSTORE PUSH1 0x1 PUSH1 0x1 PUSH1 0xA0 SHL SUB SWAP4 DUP5 AND PUSH1 0x4 MSTORE SWAP4 DUP4 AND PUSH1 0x24 MSTORE PUSH1 0x44 SWAP5 SWAP1 SWAP5 MSTORE SWAP1 SWAP2 PUSH1 0x20 SWAP1 PUSH1 0x64 DUP2 DUP1 DUP6 GAS CALL PUSH1 0x1 PUSH1 0x0 MLOAD EQ DUP2 AND ISZERO PUSH2 0x3538 JUMPI JUMPDEST DUP4 PUSH1 0x40 MSTORE PUSH1 0x0 PUSH1 0x60 MSTORE ISZERO PUSH2 0x3522 JUMPI POP POP POP JUMP JUMPDEST PUSH4 0x5274AFE7 PUSH1 0xE0 SHL DUP4 MSTORE AND PUSH1 0x4 DUP3 ADD MSTORE PUSH1 0x24 SWAP2 POP REVERT JUMPDEST PUSH1 0x1 DUP2 ISZERO AND PUSH2 0x354E JUMPI DUP2 EXTCODESIZE ISZERO ISZERO RETURNDATASIZE ISZERO AND AND PUSH2 0x350F JUMP JUMPDEST DUP4 RETURNDATASIZE PUSH1 0x0 DUP3 RETURNDATACOPY RETURNDATASIZE SWAP1 REVERT JUMPDEST PUSH1 0x0 SLOAD PUSH1 0x1 PUSH1 0x1 PUSH1 0xA0 SHL SUB AND CALLER SUB PUSH2 0x1C60 JUMPI JUMP JUMPDEST SWAP1 PUSH1 0x1 PUSH1 0x1 PUSH1 0xA0 SHL SUB PUSH32 0x0 DUP2 AND DUP1 PUSH2 0x35A8 JUMPI POP PUSH2 0x2AC9 SWAP3 AND PUSH2 0x35FD JUMP JUMPDEST SWAP2 SWAP1 PUSH1 0x20 SWAP2 PUSH1 0x0 SWAP2 PUSH1 0x40 MLOAD SWAP6 PUSH4 0xA9059CBB PUSH1 0xE0 SHL DUP5 MSTORE AND PUSH1 0x4 MSTORE PUSH1 0x24 MSTORE PUSH1 0x44 DUP2 DUP1 DUP6 GAS CALL PUSH1 0x1 PUSH1 0x0 MLOAD EQ DUP2 AND ISZERO PUSH2 0x35E7 JUMPI JUMPDEST DUP3 PUSH1 0x40 MSTORE ISZERO PUSH2 0xC90 JUMPI POP POP JUMP JUMPDEST PUSH1 0x1 DUP2 ISZERO AND PUSH2 0xCBA JUMPI DUP2 EXTCODESIZE ISZERO ISZERO RETURNDATASIZE ISZERO AND AND PUSH2 0x35DA JUMP JUMPDEST DUP2 SELFBALANCE LT PUSH2 0x3661 JUMPI PUSH1 0x40 MLOAD PUSH1 0x20 DUP2 ADD DUP2 DUP2 LT PUSH1 0x1 PUSH1 0x1 PUSH1 0x40 SHL SUB DUP3 GT OR PUSH2 0x1496 JUMPI PUSH1 0x40 MSTORE PUSH1 0x0 DUP1 DUP1 SWAP5 DUP2 SWAP5 DUP3 DUP1 SWAP6 MSTORE PUSH1 0x1 DUP1 PUSH1 0xA0 SHL SUB AND GAS CALL ISZERO PUSH2 0x363D JUMPI POP JUMP JUMPDEST RETURNDATASIZE ISZERO PUSH2 0x364F JUMPI PUSH1 0x40 MLOAD SWAP1 RETURNDATASIZE SWAP1 DUP3 RETURNDATACOPY RETURNDATASIZE SWAP1 REVERT JUMPDEST PUSH1 0x40 MLOAD PUSH4 0xD6BDA275 PUSH1 0xE0 SHL DUP2 MSTORE PUSH1 0x4 SWAP1 REVERT JUMPDEST PUSH1 0x40 MLOAD PUSH4 0xCF479181 PUSH1 0xE0 SHL DUP2 MSTORE SELFBALANCE PUSH1 0x4 DUP3 ADD MSTORE PUSH1 0x24 DUP2 ADD DUP4 SWAP1 MSTORE PUSH1 0x44 SWAP1 REVERT INVALID SWAP12 PUSH24 0x9B17422D0DF92223018B32B4D1FA46E071723D6817E2486D STOP EXTCODESIZE 0xEC 0xC5 PUSH0 STOP LOG2 PUSH5 0x6970667358 0x22 SLT KECCAK256 0x22 ADDRESS CODECOPY INVALID PUSH28 0x6C479AB645221800AA0439DF7DC9B5A1C5CEC732BC0E737954AF8564 PUSH20 0x6F6C634300081800330000000000000000000000 "},"deployedBytecode":{"immutableReferences":{"2443":[{"length":32,"start":3807},{"length":32,"start":6004}],"2445":[{"length":32,"start":9079},{"length":32,"start":12898},{"length":32,"start":12977},{"length":32,"start":13030}],"2448":[{"length":32,"start":1164},{"length":32,"start":7697},{"length":32,"start":9010},{"length":32,"start":13687}],"2450":[{"length":32,"start":3416}],"2452":[{"length":32,"start":1034},{"length":32,"start":1075},{"length":32,"start":1122},{"length":32,"start":1249},{"length":32,"start":3868},{"length":32,"start":4987},{"length":32,"start":5345},{"length":32,"start":5396},{"length":32,"start":6179},{"length":32,"start":6926},{"length":32,"start":7637},{"length":32,"start":11503},{"length":32,"start":11974},{"length":32,"start":12464},{"length":32,"start":13294},{"length":32,"start":13457}],"2454":[{"length":32,"start":7016},{"length":32,"start":11554}],"2456":[{"length":32,"start":947},{"length":32,"start":7590},{"length":32,"start":8637}],"2458":[{"length":32,"start":2141},{"length":32,"start":9338},{"length":32,"start":10200}],"2461":[{"length":32,"start":2070},{"length":32,"start":3930},{"length":32,"start":3969},{"length":32,"start":4100},{"length":32,"start":6745},{"length":32,"start":8417},{"length":32,"start":8711},{"length":32,"start":9274}],"2463":[{"length":32,"start":5947}],"2465":[{"length":32,"start":7073},{"length":32,"start":9391}],"2467":[{"length":32,"start":5799},{"length":32,"start":12076},{"length":32,"start":12144},{"length":32,"start":12184}],"2470":[{"length":32,"start":3573},{"length":32,"start":12028}],"2472":[{"length":32,"start":6509},{"length":32,"start":12235}],"2474":[{"length":32,"start":5888},{"length":32,"start":9476}],"2477":[{"length":32,"start":2311},{"length":32,"start":3016},{"length":32,"start":8862},{"length":32,"start":10042}],"2479":[{"length":32,"start":2245},{"length":32,"start":6568},{"length":32,"start":8817},{"length":32,"start":13204}],"2481":[{"length":32,"start":2462},{"length":32,"start":6864}],"2484":[{"length":32,"start":2538},{"length":32,"start":7312}],"2486":[{"length":32,"start":2192},{"length":32,"start":8254}],"2489":[{"length":32,"start":2363},{"length":32,"start":2981},{"length":32,"start":8477},{"length":32,"start":9186}],"2492":[{"length":32,"start":666},{"length":32,"start":1901}]},"linkReferences":{},"object":"608080604052600436101561001d575b50361561001b57600080fd5b005b600090813560e01c90816303ee438c146127fb5750806306fdccc7146127c057806308460328146127a35780630c7bd33b146127695780630d2af8d314612724578063116a343a146126f95780631448d312146126dd578063158ef93e146126ba5780632567d7d6146124115780632c4c5e50146123cc57806335142c8c146123a6578063469048401461236157806348d399e71461231c578063493dcae1146121e05780634b841d24146121a55780634f12a39f146120b7578063540385a31461209957806355c1abe91461206157806367bd151e14612026578063698b067614611d4d578063715018a614611ce75780637375b16814611cb3578063769dbd6e14611c7857806379ba509714611bee5780637d4035c514611bd05780637dbdf1f514611b8b57806380c08a5d14611b505780638192a43714611b325780638767d64e14611af45780638d56aa3e14611ab05780638da5cb5b14611a895780638e8daa7c14611a43578063912397c314611a175780639228c39b146119ee578063a2ffbe8e146119cb578063a5dc90f214611990578063b972821914611955578063bb482f96146117cc578063c19d93fb146117a3578063c45a01551461175e578063c5a1d7f014611723578063c80d36b8146116e8578063ca455047146116ca578063cc2f60931461168f578063cc3e02ff14610e25578063d7f59f5b14610de0578063e1a4521814610dc3578063e30c397814610d9a578063e3eecc6f14610d7c578063ec9c6c3014610d3e578063ee879258146107ef578063f0d677d71461036a578063f11d7bdf14610331578063f2fde38b146102c05763ff3bb37e0361000f57346102bd57806003193601126102bd5760206040517f00000000000000000000000000000000000000000000000000000000000000008152f35b80fd5b50346102bd5760203660031901126102bd576004356001600160a01b038181169182900361032c576102f0613558565b600180546001600160a01b031916831790558254167f38d16b8cac22d99fc7c124b9cd0de2d3fa1faef420bfe791d8c362d765e227008380a380f35b600080fd5b50346102bd5760203660031901126102bd57600435906005548210156102bd57602061035c83612a43565b90546040519160031b1c8152f35b5060403660031901126102bd576024356001600160a01b038116900361032c57610392612e8d565b60065460ff8116156107dd5760081c60ff166103ad81612b50565b6107cb577f00000000000000000000000000000000000000000000000000000000000000004210156107b95760ff600e5460a01c166107a7576024356001600160a01b0316156107955760043515801561076a575b6107585760ff7f000000000000000000000000000000000000000000000000000000000000000016156107445760ff7f000000000000000000000000000000000000000000000000000000000000000016600435066107325761048a60ff7f000000000000000000000000000000000000000000000000000000000000000016600435612c2b565b7f00000000000000000000000000000000000000000000000000000000000000006001600160a01b031680610704575060043534036106f257905b80670de0b6b3a7640000928084810204841481151715925b60ff7f00000000000000000000000000000000000000000000000000000000000000001660ff821610156106765761051481612ce0565b84610520821515612c9f565b6106625761053081878502612c2b565b9081156106505761056f61054384612988565b91908054926105588860039583871b1c612cd3565b825460001960039390931b92831b1916911b179055565b61057884612a0c565b9054911b1c6001600160a01b0316803b1561064c576040516340c10f1960e01b8152602480356001600160a01b03166004830152810184905290869082908183816044810103925af1801561064157908691610629575b505060408051858152602081019390935282015260ff91600191818416906001600160a01b03602435169033907f8241d0defadd8507317470d315422749a6c8f8b8c9c0872aab09c665eaf3b66b90606090a401166104dd565b61063290612914565b61063d5784386105cf565b8480fd5b6040513d88823e3d90fd5b8580fd5b604051639811e0c760e01b8152600490fd5b634e487b7160e01b84526011600452602484fd5b50600e80546001600160a81b0319163360ff60a01b19811691909117600160a01b1790915560408051600435815260208101939093526024356001600160a01b0316927f95194d0fd3e6e16008575e16c429d993d868b1a25d9993d071d1039853d22a749190a360016000805160206136818339815191525580f35b6040516332afe6d360e21b8152600490fd5b346107205761071a9060043590309033906134cb565b906104c5565b60405163cc43410f60e01b8152600490fd5b604051632e7d0d2d60e21b8152600490fd5b634e487b7160e01b81526012600452602490fd5b604051638568e8bd60e01b8152600490fd5b507f000000000000000000000000000000000000000000000000000000000000000060043510610402565b604051637a2a206960e11b8152600490fd5b604051635c03d07560e11b8152600490fd5b604051639622d9cf60e01b8152600490fd5b60405163300b4e3360e21b8152600490fd5b6040516321c4e35760e21b8152600490fd5b50346102bd57806003193601126102bd57610808612e8d565b60065460ff8116156107dd577f0000000000000000000000000000000000000000000000000000000000000000906002821015610d2a576001809203610d185760081c60ff1661085781612b50565b610d18577f00000000000000000000000000000000000000000000000000000000000000004210610d065761088a612a8a565b426009557f00000000000000000000000000000000000000000000000000000000000000009081610b9b575b6040516311df92f160e01b81527f00000000000000000000000000000000000000000000000000000000000000006004820181905242602483015260a0604483015290919085906001600160a01b037f0000000000000000000000000000000000000000000000000000000000000000811690859061093860a4830187612948565b907f0000000000000000000000000000000000000000000000000000000000000000166064830152876084830152816020978892038187865af1908115610b4d578691610b6c575b5050803b15610add5760405163239e22ff60e11b81528381806109d27f00000000000000000000000000000000000000000000000000000000000000006001600160401b031689428960048601612e66565b038183865af1908115610b4d578491610b58575b50507f00000000000000000000000000000000000000000000000000000000000000008581610ae1575b5050803b15610add57838391610a3f938360405180968195829463120698af60e01b8452429060048501612c4b565b03925af18015610ad257610aba575b5050907fe4d3d3c620d2a4b140fa3731b55b8f71306ed6ab936d7b660b613ecdbbf69db692610a9e60609361010061ff001960065416176006556040519485944286528501526060840190612948565b9060408301520390a16000805160206136818339815191525580f35b610ac690939293612914565b61063d57908438610a4e565b6040513d84823e3d90fd5b8280fd5b6040516356ad3aad60e11b81529182908190610b039089428960048601612e66565b038187865af1908115610b4d578691610b1e575b5080610a10565b90809294503d8311610b46575b610b358183612927565b8101031261032c5786918438610b17565b503d610b2b565b6040513d86823e3d90fd5b610b6190612914565b610add5782386109e6565b90809294503d8311610b94575b610b838183612927565b8101031261032c5786918438610980565b503d610b79565b60018060a01b03807f000000000000000000000000000000000000000000000000000000000000000016907f00000000000000000000000000000000000000000000000000000000000000001690600091604051602063095ea7b360e01b94858152836004528760245260448180875af18760005114811615610cf9575b8160405215610c2c575b505050506108b6565b60206000858152836004528060245260448180875af18760005114811615610cda575b8160405215610cc457506020906000906040519482526004528560245260448180855af18560005114811615610ca5575b8260405215610c90578080610c23565b635274afe760e01b8252600482015260249150fd5b85811516610cba57813b15153d151616610c80565b823d6000823e3d90fd5b635274afe760e01b815260048101839052602490fd5b87811516610cef57833b15153d151616610c4f565b503d6000823e3d90fd5b833b15153d151616610c19565b604051630fce133d60e01b8152600490fd5b60405163baf3f0f760e01b8152600490fd5b634e487b7160e01b83526021600452602483fd5b50346102bd57806003193601126102bd57602060405160ff7f0000000000000000000000000000000000000000000000000000000000000000168152f35b50346102bd57806003193601126102bd576020600c54604051908152f35b50346102bd57806003193601126102bd576001546040516001600160a01b039091168152602090f35b50346102bd57806003193601126102bd5760206040516127108152f35b50346102bd57806003193601126102bd5760207f000000000000000000000000000000000000000000000000000000000000000060405190610e2181612b50565b8152f35b50346102bd5760a03660031901126102bd576004356001600160401b03811161168b57610e56903690600401612b70565b906024356001600160401b03811161168757610e76903690600401612b70565b916044356001600160401b03811161064c57610e96903690600401612b70565b926064356001600160401b03811161168357610eb6903690600401612ba0565b9290916084356001600160401b03811161167f57610ed8903690600401612ba0565b90979096907f00000000000000000000000000000000000000000000000000000000000000006001600160a01b0316330361166d5760065460ff811661165c5760ff7f0000000000000000000000000000000000000000000000000000000000000000168b036116295760ff19166001176006558a5b8a8110611581575060027f0000000000000000000000000000000000000000000000000000000000000000101561156d577f000000000000000000000000000000000000000000000000000000000000000015611371575b505050506001600160401b03821161135d576007610fc481546128da565b90601f91828111611311575b5088848381116001146112915780610ffd928c91611286575b508160011b916000199060031b1c19161790565b81555b60017f0000000000000000000000000000000000000000000000000000000000000000146110c3575b5050604051958060608801606089525260808701939088905b80821061109957897fd4440a27c9cbc5d7a01c508e84787333a316746cdf5ce32c8c5a4568304e0fb98a806110938c8c6110858d8d8d8783036020890152612e45565b918483036040860152612e45565b0390a180f35b90919485359060018060a01b03821680920361032c57600191815260208091019601920190611042565b851561125857506120008511611223576001600160401b03851161120f576110ec6008546128da565b8181116111b8575b5084889181116001146111365780611120928a9161112b57508160011b916000199060031b1c19161790565b6008555b3880611029565b905087013538610fe9565b50600888527ff3f7a9fe364faab93b216da50a3214154f22a0a2b415b23a84c8169e8b636ee39085601f1981168a5b81811061119d575010611183575b5050600184811b01600855611124565b860135600019600387901b60f8161c191690553880611173565b89840135855560019094019360209384019389935001611165565b6112009060086000527ff3f7a9fe364faab93b216da50a3214154f22a0a2b415b23a84c8169e8b636ee38380890160051c82019260208a10611206575b0160051c0190612e2e565b386110f4565b925081926111f5565b634e487b7160e01b88526041600452602488fd5b60405162461bcd60e51b815260206004820152600d60248201526c20b731b4b63630b93c903632b760991b6044820152606490fd5b6064906040519062461bcd60e51b825260206004830152602482015266554d4120616e6360c81b6044820152fd5b905085013538610fe9565b50818a527fa66cc928b5edb82af9bd49922954155ab7b0942694bea4ce44661d9a8736c6889085601f1981168c5b8181106112f65750106112dc575b5050600184811b018155611000565b840135600019600387901b60f8161c1916905538806112cd565b878401358555600190940193602093840193899350016112bf565b61135790826000527fa66cc928b5edb82af9bd49922954155ab7b0942694bea4ce44661d9a8736c6888480880160051c82019260208910611206570160051c0190612e2e565b38610fd0565b634e487b7160e01b87526041600452602487fd5b801561150a5760ff7f0000000000000000000000000000000000000000000000000000000000000000168114806114de575b6113ac90612dfc565b8a5b8181106113fb5750505050505b836113c95738808080610fa6565b60405162461bcd60e51b815260206004820152600a6024820152694e6f20554d4120616e6360b01b6044820152606490fd5b611406818386612dec565b35611412828588612dec565b35106114ac57611423818386612dec565b3590600454600160401b92838210156114965761144982600161146294016004556129d5565b90919082549060031b91821b91600019901b1916179055565b61146d818588612dec565b359160059283549182101561149657611449826001958661149095019055612a43565b016113ae565b634e487b7160e01b600052604160045260246000fd5b60405162461bcd60e51b815260206004820152600a60248201526942696e20626f756e647360b01b6044820152606490fd5b507f000000000000000000000000000000000000000000000000000000000000000060ff1682146113a3565b50505050600260ff7f00000000000000000000000000000000000000000000000000000000000000001603156113bb5760405162461bcd60e51b815260206004820152600b60248201526a2134b7399037b910271e9960a91b6044820152606490fd5b634e487b7160e01b8b52602160045260248bfd5b61158c818c8a612dec565b35906001600160a01b038216820361162557600254600160401b811015611611578060016115bd9201600255612a0c565b81546001600160a01b03600392831b81811b199092169516901b939093179055815491600160401b831015611496576115fc8360018095018355612988565b9091825491600019911b1b1916905501610f4e565b634e487b7160e01b8e52604160045260248efd5b8c80fd5b60405162461bcd60e51b815260206004820152600b60248201526a151bdad95b8818dbdd5b9d60aa1b6044820152606490fd5b60405162dc149f60e41b8152600490fd5b604051630636a15760e11b8152600490fd5b8980fd5b8780fd5b8380fd5b5080fd5b50346102bd57806003193601126102bd5760206040517f00000000000000000000000000000000000000000000000000000000000000008152f35b50346102bd57806003193601126102bd576020600954604051908152f35b50346102bd57806003193601126102bd5760206040517f00000000000000000000000000000000000000000000000000000000000000008152f35b50346102bd57806003193601126102bd5760206040517f00000000000000000000000000000000000000000000000000000000000000008152f35b50346102bd57806003193601126102bd576040517f00000000000000000000000000000000000000000000000000000000000000006001600160a01b03168152602090f35b50346102bd57806003193601126102bd57602060ff60065460081c1660405190610e2181612b50565b50346102bd5760403660031901126102bd576117e6612a7a565b602435906117f2612e8d565b60065460ff8116156107dd5760ff60029160081c1661181081612b50565b03610d185781156106505760ff811660ff7f0000000000000000000000000000000000000000000000000000000000000000168110156119435760ff600a54160361194357600b54801561193157611871670de0b6b3a76400009184612c18565b04918215611903576118838492612a0c565b905460039190911b1c6001600160a01b0316803b15610add5760405163079cc67960e41b8152336004820152602481019290925282908290604490829084905af18015610ad2576118ef575b506118da823361356c565b60016000805160206136818339815191525580f35b6118f890612914565b61168b5781386118cf565b60405162461bcd60e51b815260206004820152600660248201526514185e5bdd5d60d21b6044820152606490fd5b60405163b3b7d75f60e01b8152600490fd5b60405163c74a206d60e01b8152600490fd5b50346102bd57806003193601126102bd5760206040517f00000000000000000000000000000000000000000000000000000000000000008152f35b50346102bd57806003193601126102bd5760206040517f00000000000000000000000000000000000000000000000000000000000000008152f35b50346102bd57806003193601126102bd576020604051670de0b6b3a76400008152f35b50346102bd57806003193601126102bd57600e546040516001600160a01b039091168152602090f35b50346102bd5760203660031901126102bd576020611a3b611a36612a7a565b612ce0565b604051908152f35b50346102bd57806003193601126102bd576040517f00000000000000000000000000000000000000000000000000000000000000006002811015610d2a57602092508152f35b50346102bd57806003193601126102bd57546040516001600160a01b039091168152602090f35b50346102bd57806003193601126102bd5760206040516001600160401b037f0000000000000000000000000000000000000000000000000000000000000000168152f35b50346102bd57806003193601126102bd57602060405160ff7f0000000000000000000000000000000000000000000000000000000000000000168152f35b50346102bd57806003193601126102bd576020600d54604051908152f35b50346102bd57806003193601126102bd5760206040517f00000000000000000000000000000000000000000000000000000000000000008152f35b50346102bd57806003193601126102bd576040517f00000000000000000000000000000000000000000000000000000000000000006001600160a01b03168152602090f35b50346102bd57806003193601126102bd576020600a54604051908152f35b50346102bd57806003193601126102bd576001546001600160a01b033381831603611c60576bffffffffffffffffffffffff60a01b8092166001556000549133908316176000553391167f8be0079c531659141344cd1fd0a4f28419497f9722a3daafe3b4186f6b6457e0600080a380f35b60405163118cdaa760e01b8152336004820152602490fd5b50346102bd57806003193601126102bd5760206040517f00000000000000000000000000000000000000000000000000000000000000008152f35b50346102bd57806003193601126102bd57611ce3611ccf612a8a565b604051918291602083526020830190612948565b0390f35b50346102bd57806003193601126102bd57611d00613558565b600180546001600160a01b0319908116909155600080549182168155906001600160a01b03167f8be0079c531659141344cd1fd0a4f28419497f9722a3daafe3b4186f6b6457e08280a380f35b5060803660031901126102bd57611d62612a7a565b604435906001600160a01b03808316916024359183850361064c57611d85612e8d565b60065460ff8116156107dd5760081c60ff16611da081612b50565b6107cb577f00000000000000000000000000000000000000000000000000000000000000004210156107b95760ff82169460ff7f00000000000000000000000000000000000000000000000000000000000000001686101561194357831592611e098415612c6a565b8515611ff5577f0000000000000000000000000000000000000000000000000000000000000000831680611faf57508434036106f2575b611e4981612ce0565b93611e55851515612c9f565b670de0b6b3a76400009081870291878304141715611f9b5784611e7791612c2b565b928315610650576064358410611f8957611ead82611ea8611e988c95612988565b6105588b83548360031b1c612cd3565b612a0c565b90549060031b1c1691823b1561168b576040516340c10f1960e01b81526001600160a01b0391909116600482015260248101849052918290604490829084905af18015611f7e57611f49575b5060408051938452602084019190915282015233907f8241d0defadd8507317470d315422749a6c8f8b8c9c0872aab09c665eaf3b66b90606090a460016000805160206136818339815191525580f35b95611f767f8241d0defadd8507317470d315422749a6c8f8b8c9c0872aab09c665eaf3b66b939297612914565b959091611ef9565b6040513d89823e3d90fd5b6040516307dd37f760e41b8152600490fd5b634e487b7160e01b89526011600452602489fd5b34611fc75785611fc291309033906134cb565b611e40565b60405162461bcd60e51b815260206004820152600660248201526509cde408aa8960d31b6044820152606490fd5b60405162461bcd60e51b8152602060048201526009602482015268149958da5c1a595b9d60ba1b6044820152606490fd5b50346102bd57806003193601126102bd5760206040517f00000000000000000000000000000000000000000000000000000000000000008152f35b50346102bd5760203660031901126102bd576020612080600435612a0c565b905460405160039290921b1c6001600160a01b03168152f35b50346102bd57806003193601126102bd576020600b54604051908152f35b50346102bd5760203660031901126102bd576004356120d4612e8d565b60ff60065416156107dd577f00000000000000000000000000000000000000000000000000000000000000006002811015610d2a576001036121935761211b811515612c6a565b7f00000000000000000000000000000000000000000000000000000000000000006001600160a01b031690612152813033856134cb565b6040519081527fb70ccb2b3a65ba201e6b7107278d5064431bc3acf6e932d8f869a913a679738760203392a360016000805160206136818339815191525580f35b60405163588dccfd60e01b8152600490fd5b50346102bd57806003193601126102bd5760206040517f00000000000000000000000000000000000000000000000000000000000000008152f35b50346102bd57806003193601126102bd576121f9612e8d565b60065460ff8116156107dd577f00000000000000000000000000000000000000000000000000000000000000006002811015610d2a57600103610d185760ff60019160081c1661224881612b50565b03610d1857612299602061225a612a8a565b6009546040516353b5923960e01b815293849283927f000000000000000000000000000000000000000000000000000000000000000060048501612c4b565b0381857f00000000000000000000000000000000000000000000000000000000000000006001600160a01b03165af18015610ad25782906122e8575b6118da91506122e381613380565b6130ab565b506020813d602011612314575b8161230260209383612927565b8101031261168b576118da90516122d5565b3d91506122f5565b50346102bd57806003193601126102bd576040517f00000000000000000000000000000000000000000000000000000000000000006001600160a01b03168152602090f35b50346102bd57806003193601126102bd576040517f00000000000000000000000000000000000000000000000000000000000000006001600160a01b03168152602090f35b50346102bd57806003193601126102bd57602060ff600e5460a01c166040519015158152f35b50346102bd57806003193601126102bd576040517f00000000000000000000000000000000000000000000000000000000000000006001600160a01b03168152602090f35b50346102bd57806003193601126102bd5761242a612e8d565b60065460ff90818116156107dd577f000000000000000000000000000000000000000000000000000000000000000060028110156126a657610d185760081c811661247481612b50565b610d18577f00000000000000000000000000000000000000000000000000000000000000004210610d0657604051633fabe5a360e21b8152907f00000000000000000000000000000000000000000000000000000000000000006001600160a01b031660a083600481845afa8015610b4d5784938591612652575b5084841315612624576125029042612be4565b7f0000000000000000000000000000000000000000000000000000000000000000106125f75760206004916040519283809263313ce56760e01b82525afa8015610b4d57829185916125b9575b501660068110612596576005190190811161258257906122e361257d6125776118da94612c07565b83612c2b565b612ebd565b634e487b7160e01b83526011600452602483fd5b60060390811161258257906122e361257d6125b36118da94612c07565b83612c18565b9150506020813d6020116125ef575b816125d560209383612927565b81010312611687575181811681036116875781903861254f565b3d91506125c8565b60405162461bcd60e51b81526020600482015260056024820152645374616c6560d81b6044820152606490fd5b60405162461bcd60e51b815260206004820152600660248201526520b739bbb2b960d11b6044820152606490fd5b93505060a0833d60a01161269e575b8161266e60a09383612927565b810103126116875761267f83612bcd565b506020830151612696608060608601519501612bcd565b5092386124ef565b3d9150612661565b634e487b7160e01b84526021600452602484fd5b50346102bd57806003193601126102bd57602060ff600654166040519015158152f35b50346102bd57806003193601126102bd57602060405160328152f35b50346102bd5760203660031901126102bd57600435906004548210156102bd57602061035c836129d5565b50346102bd57806003193601126102bd576040517f00000000000000000000000000000000000000000000000000000000000000006001600160a01b03168152602090f35b50346102bd5760203660031901126102bd57600435906003548210156102bd57602061279483612988565b90549060031b1c604051908152f35b50346102bd57806003193601126102bd57602060405161012c8152f35b50346102bd57806003193601126102bd5760206040517f00000000000000000000000000000000000000000000000000000000000000008152f35b82346102bd57806003193601126102bd57600754828261281a836128da565b92838352602094600191866001821691826000146128b857505060011461285e575b505061284a92500383612927565b611ce3604051928284938452830190612948565b90859250600782527fa66cc928b5edb82af9bd49922954155ab7b0942694bea4ce44661d9a8736c6885b8583106128a057505061284a9350820101858061283c565b80548389018501528794508693909201918101612888565b925093505061284a94915060ff191682840152151560051b820101858061283c565b90600182811c9216801561290a575b60208310146128f457565b634e487b7160e01b600052602260045260246000fd5b91607f16916128e9565b6001600160401b03811161149657604052565b90601f801991011681019081106001600160401b0382111761149657604052565b919082519283825260005b848110612974575050826000602080949584010152601f8019910116010190565b602081830181015184830182015201612953565b6003548110156129bf5760036000527fc2575a0e9e593c00f959f8c92f12db2869c3395a3b0502d05e2516446f71f85b0190600090565b634e487b7160e01b600052603260045260246000fd5b6004548110156129bf5760046000527f8a35acfbc15ff81a39ae7d344fd709f28e8600b4aa8c65c6b64bfe7fe36bd19b0190600090565b6002548110156129bf5760026000527f405787fa12a823e0f2b7631cc41b3ba8828b3321ca811111fa75cd3aa3bb5ace0190600090565b6005548110156129bf5760056000527f036b6384b5eca791c62761152d0c79bb0604c104a5fb6f4eb0703f3154bb3db00190600090565b6004359060ff8216820361032c57565b6040519060008260085491612a9e836128da565b80835292602090600190818116908115612b2c5750600114612acb575b5050612ac992500383612927565b565b91509260086000527ff3f7a9fe364faab93b216da50a3214154f22a0a2b415b23a84c8169e8b636ee3936000925b828410612b145750612ac99450505081016020013880612abb565b85548885018301529485019487945092810192612af9565b91505060209250612ac994915060ff191682840152151560051b8201013880612abb565b60031115612b5a57565b634e487b7160e01b600052602160045260246000fd5b9181601f8401121561032c578235916001600160401b03831161032c576020808501948460051b01011161032c57565b9181601f8401121561032c578235916001600160401b03831161032c576020838186019501011161032c57565b519069ffffffffffffffffffff8216820361032c57565b91908203918211612bf157565b634e487b7160e01b600052601160045260246000fd5b60ff16604d8111612bf157600a0a90565b81810292918115918404141715612bf157565b8115612c35570490565b634e487b7160e01b600052601260045260246000fd5b612c679392606092825260208201528160408201520190612948565b90565b15612c7157565b60405162461bcd60e51b8152602060048201526006602482015265105b5bdd5b9d60d21b6044820152606490fd5b15612ca657565b60405162461bcd60e51b8152602060048201526005602482015264507269636560d81b6044820152606490fd5b91908201809211612bf157565b60ff60065416156107dd5760ff7f000000000000000000000000000000000000000000000000000000000000000016908160ff821610156119435760009160007f0000000000000000000000000000000000000000000000000000000000000000915b808210612dbd5750508215612d8f57612d5e612d6b92612988565b90549060031b1c90612cd3565b90670de0b6b3a764000091828102928184041490151715612bf157612c6791612c2b565b60405162461bcd60e51b815260206004820152600660248201526515d95a59da1d60d21b6044820152606490fd5b9093612de4600191612dde612dd188612988565b90549060031b1c86612cd3565b90612cd3565b940190612d43565b91908110156129bf5760051b0190565b15612e0357565b606460405162461bcd60e51b815260206004820152600460248201526342696e7360e01b6044820152fd5b818110612e39575050565b60008155600101612e2e565b908060209392818452848401376000828201840152601f01601f1916010190565b949392606092612e889287526020870152608060408701526080860190612948565b930152565b6000805160206136818339815191526002815414612eab5760029055565b604051633ee5aeb560e01b8152600490fd5b600480549060ff7f000000000000000000000000000000000000000000000000000000000000000016809214612ff257506002612efa9114612dfc565b7f0000000000000000000000000000000000000000000000000000000000000000612f2481612b50565b80612f5d57507f000000000000000000000000000000000000000000000000000000000000000011155b15612f5857600090565b600190565b80612f69600192612b50565b03612f96577f00000000000000000000000000000000000000000000000000000000000000001015612f4e565b7f00000000000000000000000000000000000000000000000000000000000000008110159081612fc7575b50612f4e565b90507f0000000000000000000000000000000000000000000000000000000000000000101538612fc1565b906000918293835b83811061303e575050505060010361300f5790565b60405162461bcd60e51b815260206004820152600760248201526627b732903134b760c91b6044820152606490fd5b613047816129d5565b9054600391821b1c8310159081613092575b50613067575b600101612ffa565b945092600019811461307d57600101928461305f565b601182634e487b7160e01b6000525260246000fd5b905061309d82612a43565b9054911b1c82111538613059565b6000907f000000000000000000000000000000000000000000000000000000000000000060ff16825b81811061335857505061012c918281029080159381830414841715612bf1576127108092049360328202908282046032141715612bf15760049260209104613126866131208382612be4565b94612be4565b9261313086612a0c565b90546040516318160ddd60e01b8152966001600160a01b0395928892839160031b1c87165afa94851561334c57600095613318575b5061316f86612988565b90549060031b1c928761328c575b50508315905061321a578161319191612cd3565b94670de0b6b3a764000095868102968188041490151715612bf1576131da613215937f1156c82479e3534ddd36ca57cd84557fd8b25737545b9b3572c4f2878613af5497612c2b565b600b555b83600a55600c5542600d5561020061ff00196006541617600655604051938493846040919493926060820195825260208201520152565b0390a1565b613215925094613250827f1156c82479e3534ddd36ca57cd84557fd8b25737545b9b3572c4f2878613af54976000600b55612cd3565b8061325c575b506131de565b613286907f000000000000000000000000000000000000000000000000000000000000000061356c565b38613256565b80600e541615158061330f575b156132dd576132d5926132af91600e541661356c565b7f000000000000000000000000000000000000000000000000000000000000000061356c565b38808061317d565b50505061330a857f000000000000000000000000000000000000000000000000000000000000000061356c565b6132d5565b50821515613299565b9094506020813d602011613344575b8161333460209383612927565b8101031261032c57519338613165565b3d9150613327565b6040513d6000823e3d90fd5b828103613368575b6001016130d4565b92613378600191612d5e86612988565b939050613360565b600160ff1b811480156134bb575b61343d577f0000000000000000000000000000000000000000000000000000000000000000744d554c5449504c455f43484f4943455f515545525960581b8114613484576e5945535f4f525f4e4f5f515545525960881b146134715760ff7f0000000000000000000000000000000000000000000000000000000000000000169060028214613457576000811261343d57670de0b6b3a76400009081811061344f5704905b81101561343d5790565b60405163437d7ad760e11b8152600490fd5b905090613433565b670de0b6b3a764000091501461346c57600190565b600090565b670de0b6b3a76400001461346c57600190565b506000811261343d5760ff7f00000000000000000000000000000000000000000000000000000000000000001681101561343d5790565b506001600160ff1b03811461338e565b6040516323b872dd60e01b60009081526001600160a01b03938416600452938316602452604494909452909160209060648180855af1600160005114811615613538575b8360405260006060521561352257505050565b635274afe760e01b835216600482015260249150fd5b600181151661354e57813b15153d15161661350f565b833d6000823e3d90fd5b6000546001600160a01b03163303611c6057565b906001600160a01b037f00000000000000000000000000000000000000000000000000000000000000008116806135a85750612ac992166135fd565b91906020916000916040519563a9059cbb60e01b84521660045260245260448180855af16001600051148116156135e7575b8260405215610c90575050565b6001811516610cba57813b15153d1516166135da565b81471061366157604051602081018181106001600160401b0382111761149657604052600080809481948280955260018060a01b03165af11561363d5750565b3d1561364f57604051903d90823e3d90fd5b60405163d6bda27560e01b8152600490fd5b60405163cf47918160e01b815247600482015260248101839052604490fdfe9b779b17422d0df92223018b32b4d1fa46e071723d6817e2486d003becc55f00a2646970667358221220223039fe7b6c479ab645221800aa0439df7dc9b5a1c5cec732bc0e737954af8564736f6c63430008180033","opcodes":"PUSH1 0x80 DUP1 PUSH1 0x40 MSTORE PUSH1 0x4 CALLDATASIZE LT ISZERO PUSH2 0x1D JUMPI JUMPDEST POP CALLDATASIZE ISZERO PUSH2 0x1B JUMPI PUSH1 0x0 DUP1 REVERT JUMPDEST STOP JUMPDEST PUSH1 0x0 SWAP1 DUP2 CALLDATALOAD PUSH1 0xE0 SHR SWAP1 DUP2 PUSH4 0x3EE438C EQ PUSH2 0x27FB JUMPI POP DUP1 PUSH4 0x6FDCCC7 EQ PUSH2 0x27C0 JUMPI DUP1 PUSH4 0x8460328 EQ PUSH2 0x27A3 JUMPI DUP1 PUSH4 0xC7BD33B EQ PUSH2 0x2769 JUMPI DUP1 PUSH4 0xD2AF8D3 EQ PUSH2 0x2724 JUMPI DUP1 PUSH4 0x116A343A EQ PUSH2 0x26F9 JUMPI DUP1 PUSH4 0x1448D312 EQ PUSH2 0x26DD JUMPI DUP1 PUSH4 0x158EF93E EQ PUSH2 0x26BA JUMPI DUP1 PUSH4 0x2567D7D6 EQ PUSH2 0x2411 JUMPI DUP1 PUSH4 0x2C4C5E50 EQ PUSH2 0x23CC JUMPI DUP1 PUSH4 0x35142C8C EQ PUSH2 0x23A6 JUMPI DUP1 PUSH4 0x46904840 EQ PUSH2 0x2361 JUMPI DUP1 PUSH4 0x48D399E7 EQ PUSH2 0x231C JUMPI DUP1 PUSH4 0x493DCAE1 EQ PUSH2 0x21E0 JUMPI DUP1 PUSH4 0x4B841D24 EQ PUSH2 0x21A5 JUMPI DUP1 PUSH4 0x4F12A39F EQ PUSH2 0x20B7 JUMPI DUP1 PUSH4 0x540385A3 EQ PUSH2 0x2099 JUMPI DUP1 PUSH4 0x55C1ABE9 EQ PUSH2 0x2061 JUMPI DUP1 PUSH4 0x67BD151E EQ PUSH2 0x2026 JUMPI DUP1 PUSH4 0x698B0676 EQ PUSH2 0x1D4D JUMPI DUP1 PUSH4 0x715018A6 EQ PUSH2 0x1CE7 JUMPI DUP1 PUSH4 0x7375B168 EQ PUSH2 0x1CB3 JUMPI DUP1 PUSH4 0x769DBD6E EQ PUSH2 0x1C78 JUMPI DUP1 PUSH4 0x79BA5097 EQ PUSH2 0x1BEE JUMPI DUP1 PUSH4 0x7D4035C5 EQ PUSH2 0x1BD0 JUMPI DUP1 PUSH4 0x7DBDF1F5 EQ PUSH2 0x1B8B JUMPI DUP1 PUSH4 0x80C08A5D EQ PUSH2 0x1B50 JUMPI DUP1 PUSH4 0x8192A437 EQ PUSH2 0x1B32 JUMPI DUP1 PUSH4 0x8767D64E EQ PUSH2 0x1AF4 JUMPI DUP1 PUSH4 0x8D56AA3E EQ PUSH2 0x1AB0 JUMPI DUP1 PUSH4 0x8DA5CB5B EQ PUSH2 0x1A89 JUMPI DUP1 PUSH4 0x8E8DAA7C EQ PUSH2 0x1A43 JUMPI DUP1 PUSH4 0x912397C3 EQ PUSH2 0x1A17 JUMPI DUP1 PUSH4 0x9228C39B EQ PUSH2 0x19EE JUMPI DUP1 PUSH4 0xA2FFBE8E EQ PUSH2 0x19CB JUMPI DUP1 PUSH4 0xA5DC90F2 EQ PUSH2 0x1990 JUMPI DUP1 PUSH4 0xB9728219 EQ PUSH2 0x1955 JUMPI DUP1 PUSH4 0xBB482F96 EQ PUSH2 0x17CC JUMPI DUP1 PUSH4 0xC19D93FB EQ PUSH2 0x17A3 JUMPI DUP1 PUSH4 0xC45A0155 EQ PUSH2 0x175E JUMPI DUP1 PUSH4 0xC5A1D7F0 EQ PUSH2 0x1723 JUMPI DUP1 PUSH4 0xC80D36B8 EQ PUSH2 0x16E8 JUMPI DUP1 PUSH4 0xCA455047 EQ PUSH2 0x16CA JUMPI DUP1 PUSH4 0xCC2F6093 EQ PUSH2 0x168F JUMPI DUP1 PUSH4 0xCC3E02FF EQ PUSH2 0xE25 JUMPI DUP1 PUSH4 0xD7F59F5B EQ PUSH2 0xDE0 JUMPI DUP1 PUSH4 0xE1A45218 EQ PUSH2 0xDC3 JUMPI DUP1 PUSH4 0xE30C3978 EQ PUSH2 0xD9A JUMPI DUP1 PUSH4 0xE3EECC6F EQ PUSH2 0xD7C JUMPI DUP1 PUSH4 0xEC9C6C30 EQ PUSH2 0xD3E JUMPI DUP1 PUSH4 0xEE879258 EQ PUSH2 0x7EF JUMPI DUP1 PUSH4 0xF0D677D7 EQ PUSH2 0x36A JUMPI DUP1 PUSH4 0xF11D7BDF EQ PUSH2 0x331 JUMPI DUP1 PUSH4 0xF2FDE38B EQ PUSH2 0x2C0 JUMPI PUSH4 0xFF3BB37E SUB PUSH2 0xF JUMPI CALLVALUE PUSH2 0x2BD JUMPI DUP1 PUSH1 0x3 NOT CALLDATASIZE ADD SLT PUSH2 0x2BD JUMPI PUSH1 0x20 PUSH1 0x40 MLOAD PUSH32 0x0 DUP2 MSTORE RETURN JUMPDEST DUP1 REVERT JUMPDEST POP CALLVALUE PUSH2 0x2BD JUMPI PUSH1 0x20 CALLDATASIZE PUSH1 0x3 NOT ADD SLT PUSH2 0x2BD JUMPI PUSH1 0x4 CALLDATALOAD PUSH1 0x1 PUSH1 0x1 PUSH1 0xA0 SHL SUB DUP2 DUP2 AND SWAP2 DUP3 SWAP1 SUB PUSH2 0x32C JUMPI PUSH2 0x2F0 PUSH2 0x3558 JUMP JUMPDEST PUSH1 0x1 DUP1 SLOAD PUSH1 0x1 PUSH1 0x1 PUSH1 0xA0 SHL SUB NOT AND DUP4 OR SWAP1 SSTORE DUP3 SLOAD AND PUSH32 0x38D16B8CAC22D99FC7C124B9CD0DE2D3FA1FAEF420BFE791D8C362D765E22700 DUP4 DUP1 LOG3 DUP1 RETURN JUMPDEST PUSH1 0x0 DUP1 REVERT JUMPDEST POP CALLVALUE PUSH2 0x2BD JUMPI PUSH1 0x20 CALLDATASIZE PUSH1 0x3 NOT ADD SLT PUSH2 0x2BD JUMPI PUSH1 0x4 CALLDATALOAD SWAP1 PUSH1 0x5 SLOAD DUP3 LT ISZERO PUSH2 0x2BD JUMPI PUSH1 0x20 PUSH2 0x35C DUP4 PUSH2 0x2A43 JUMP JUMPDEST SWAP1 SLOAD PUSH1 0x40 MLOAD SWAP2 PUSH1 0x3 SHL SHR DUP2 MSTORE RETURN JUMPDEST POP PUSH1 0x40 CALLDATASIZE PUSH1 0x3 NOT ADD SLT PUSH2 0x2BD JUMPI PUSH1 0x24 CALLDATALOAD PUSH1 0x1 PUSH1 0x1 PUSH1 0xA0 SHL SUB DUP2 AND SWAP1 SUB PUSH2 0x32C JUMPI PUSH2 0x392 PUSH2 0x2E8D JUMP JUMPDEST PUSH1 0x6 SLOAD PUSH1 0xFF DUP2 AND ISZERO PUSH2 0x7DD JUMPI PUSH1 0x8 SHR PUSH1 0xFF AND PUSH2 0x3AD DUP2 PUSH2 0x2B50 JUMP JUMPDEST PUSH2 0x7CB JUMPI PUSH32 0x0 TIMESTAMP LT ISZERO PUSH2 0x7B9 JUMPI PUSH1 0xFF PUSH1 0xE SLOAD PUSH1 0xA0 SHR AND PUSH2 0x7A7 JUMPI PUSH1 0x24 CALLDATALOAD PUSH1 0x1 PUSH1 0x1 PUSH1 0xA0 SHL SUB AND ISZERO PUSH2 0x795 JUMPI PUSH1 0x4 CALLDATALOAD ISZERO DUP1 ISZERO PUSH2 0x76A JUMPI JUMPDEST PUSH2 0x758 JUMPI PUSH1 0xFF PUSH32 0x0 AND ISZERO PUSH2 0x744 JUMPI PUSH1 0xFF PUSH32 0x0 AND PUSH1 0x4 CALLDATALOAD MOD PUSH2 0x732 JUMPI PUSH2 0x48A PUSH1 0xFF PUSH32 0x0 AND PUSH1 0x4 CALLDATALOAD PUSH2 0x2C2B JUMP JUMPDEST PUSH32 0x0 PUSH1 0x1 PUSH1 0x1 PUSH1 0xA0 SHL SUB AND DUP1 PUSH2 0x704 JUMPI POP PUSH1 0x4 CALLDATALOAD CALLVALUE SUB PUSH2 0x6F2 JUMPI SWAP1 JUMPDEST DUP1 PUSH8 0xDE0B6B3A7640000 SWAP3 DUP1 DUP5 DUP2 MUL DIV DUP5 EQ DUP2 ISZERO OR ISZERO SWAP3 JUMPDEST PUSH1 0xFF PUSH32 0x0 AND PUSH1 0xFF DUP3 AND LT ISZERO PUSH2 0x676 JUMPI PUSH2 0x514 DUP2 PUSH2 0x2CE0 JUMP JUMPDEST DUP5 PUSH2 0x520 DUP3 ISZERO ISZERO PUSH2 0x2C9F JUMP JUMPDEST PUSH2 0x662 JUMPI PUSH2 0x530 DUP2 DUP8 DUP6 MUL PUSH2 0x2C2B JUMP JUMPDEST SWAP1 DUP2 ISZERO PUSH2 0x650 JUMPI PUSH2 0x56F PUSH2 0x543 DUP5 PUSH2 0x2988 JUMP JUMPDEST SWAP2 SWAP1 DUP1 SLOAD SWAP3 PUSH2 0x558 DUP9 PUSH1 0x3 SWAP6 DUP4 DUP8 SHL SHR PUSH2 0x2CD3 JUMP JUMPDEST DUP3 SLOAD PUSH1 0x0 NOT PUSH1 0x3 SWAP4 SWAP1 SWAP4 SHL SWAP3 DUP4 SHL NOT AND SWAP2 SHL OR SWAP1 SSTORE JUMP JUMPDEST PUSH2 0x578 DUP5 PUSH2 0x2A0C JUMP JUMPDEST SWAP1 SLOAD SWAP2 SHL SHR PUSH1 0x1 PUSH1 0x1 PUSH1 0xA0 SHL SUB AND DUP1 EXTCODESIZE ISZERO PUSH2 0x64C JUMPI PUSH1 0x40 MLOAD PUSH4 0x40C10F19 PUSH1 0xE0 SHL DUP2 MSTORE PUSH1 0x24 DUP1 CALLDATALOAD PUSH1 0x1 PUSH1 0x1 PUSH1 0xA0 SHL SUB AND PUSH1 0x4 DUP4 ADD MSTORE DUP2 ADD DUP5 SWAP1 MSTORE SWAP1 DUP7 SWAP1 DUP3 SWAP1 DUP2 DUP4 DUP2 PUSH1 0x44 DUP2 ADD SUB SWAP3 GAS CALL DUP1 ISZERO PUSH2 0x641 JUMPI SWAP1 DUP7 SWAP2 PUSH2 0x629 JUMPI JUMPDEST POP POP PUSH1 0x40 DUP1 MLOAD DUP6 DUP2 MSTORE PUSH1 0x20 DUP2 ADD SWAP4 SWAP1 SWAP4 MSTORE DUP3 ADD MSTORE PUSH1 0xFF SWAP2 PUSH1 0x1 SWAP2 DUP2 DUP5 AND SWAP1 PUSH1 0x1 PUSH1 0x1 PUSH1 0xA0 SHL SUB PUSH1 0x24 CALLDATALOAD AND SWAP1 CALLER SWAP1 PUSH32 0x8241D0DEFADD8507317470D315422749A6C8F8B8C9C0872AAB09C665EAF3B66B SWAP1 PUSH1 0x60 SWAP1 LOG4 ADD AND PUSH2 0x4DD JUMP JUMPDEST PUSH2 0x632 SWAP1 PUSH2 0x2914 JUMP JUMPDEST PUSH2 0x63D JUMPI DUP5 CODESIZE PUSH2 0x5CF JUMP JUMPDEST DUP5 DUP1 REVERT JUMPDEST PUSH1 0x40 MLOAD RETURNDATASIZE DUP9 DUP3 RETURNDATACOPY RETURNDATASIZE SWAP1 REVERT JUMPDEST DUP6 DUP1 REVERT JUMPDEST PUSH1 0x40 MLOAD PUSH4 0x9811E0C7 PUSH1 0xE0 SHL DUP2 MSTORE PUSH1 0x4 SWAP1 REVERT JUMPDEST PUSH4 0x4E487B71 PUSH1 0xE0 SHL DUP5 MSTORE PUSH1 0x11 PUSH1 0x4 MSTORE PUSH1 0x24 DUP5 REVERT JUMPDEST POP PUSH1 0xE DUP1 SLOAD PUSH1 0x1 PUSH1 0x1 PUSH1 0xA8 SHL SUB NOT AND CALLER PUSH1 0xFF PUSH1 0xA0 SHL NOT DUP2 AND SWAP2 SWAP1 SWAP2 OR PUSH1 0x1 PUSH1 0xA0 SHL OR SWAP1 SWAP2 SSTORE PUSH1 0x40 DUP1 MLOAD PUSH1 0x4 CALLDATALOAD DUP2 MSTORE PUSH1 0x20 DUP2 ADD SWAP4 SWAP1 SWAP4 MSTORE PUSH1 0x24 CALLDATALOAD PUSH1 0x1 PUSH1 0x1 PUSH1 0xA0 SHL SUB AND SWAP3 PUSH32 0x95194D0FD3E6E16008575E16C429D993D868B1A25D9993D071D1039853D22A74 SWAP2 SWAP1 LOG3 PUSH1 0x1 PUSH1 0x0 DUP1 MLOAD PUSH1 0x20 PUSH2 0x3681 DUP4 CODECOPY DUP2 MLOAD SWAP2 MSTORE SSTORE DUP1 RETURN JUMPDEST PUSH1 0x40 MLOAD PUSH4 0x32AFE6D3 PUSH1 0xE2 SHL DUP2 MSTORE PUSH1 0x4 SWAP1 REVERT JUMPDEST CALLVALUE PUSH2 0x720 JUMPI PUSH2 0x71A SWAP1 PUSH1 0x4 CALLDATALOAD SWAP1 ADDRESS SWAP1 CALLER SWAP1 PUSH2 0x34CB JUMP JUMPDEST SWAP1 PUSH2 0x4C5 JUMP JUMPDEST PUSH1 0x40 MLOAD PUSH4 0xCC43410F PUSH1 0xE0 SHL DUP2 MSTORE PUSH1 0x4 SWAP1 REVERT JUMPDEST PUSH1 0x40 MLOAD PUSH4 0x2E7D0D2D PUSH1 0xE2 SHL DUP2 MSTORE PUSH1 0x4 SWAP1 REVERT JUMPDEST PUSH4 0x4E487B71 PUSH1 0xE0 SHL DUP2 MSTORE PUSH1 0x12 PUSH1 0x4 MSTORE PUSH1 0x24 SWAP1 REVERT JUMPDEST PUSH1 0x40 MLOAD PUSH4 0x8568E8BD PUSH1 0xE0 SHL DUP2 MSTORE PUSH1 0x4 SWAP1 REVERT JUMPDEST POP PUSH32 0x0 PUSH1 0x4 CALLDATALOAD LT PUSH2 0x402 JUMP JUMPDEST PUSH1 0x40 MLOAD PUSH4 0x7A2A2069 PUSH1 0xE1 SHL DUP2 MSTORE PUSH1 0x4 SWAP1 REVERT JUMPDEST PUSH1 0x40 MLOAD PUSH4 0x5C03D075 PUSH1 0xE1 SHL DUP2 MSTORE PUSH1 0x4 SWAP1 REVERT JUMPDEST PUSH1 0x40 MLOAD PUSH4 0x9622D9CF PUSH1 0xE0 SHL DUP2 MSTORE PUSH1 0x4 SWAP1 REVERT JUMPDEST PUSH1 0x40 MLOAD PUSH4 0x300B4E33 PUSH1 0xE2 SHL DUP2 MSTORE PUSH1 0x4 SWAP1 REVERT JUMPDEST PUSH1 0x40 MLOAD PUSH4 0x21C4E357 PUSH1 0xE2 SHL DUP2 MSTORE PUSH1 0x4 SWAP1 REVERT JUMPDEST POP CALLVALUE PUSH2 0x2BD JUMPI DUP1 PUSH1 0x3 NOT CALLDATASIZE ADD SLT PUSH2 0x2BD JUMPI PUSH2 0x808 PUSH2 0x2E8D JUMP JUMPDEST PUSH1 0x6 SLOAD PUSH1 0xFF DUP2 AND ISZERO PUSH2 0x7DD JUMPI PUSH32 0x0 SWAP1 PUSH1 0x2 DUP3 LT ISZERO PUSH2 0xD2A JUMPI PUSH1 0x1 DUP1 SWAP3 SUB PUSH2 0xD18 JUMPI PUSH1 0x8 SHR PUSH1 0xFF AND PUSH2 0x857 DUP2 PUSH2 0x2B50 JUMP JUMPDEST PUSH2 0xD18 JUMPI PUSH32 0x0 TIMESTAMP LT PUSH2 0xD06 JUMPI PUSH2 0x88A PUSH2 0x2A8A JUMP JUMPDEST TIMESTAMP PUSH1 0x9 SSTORE PUSH32 0x0 SWAP1 DUP2 PUSH2 0xB9B JUMPI JUMPDEST PUSH1 0x40 MLOAD PUSH4 0x11DF92F1 PUSH1 0xE0 SHL DUP2 MSTORE PUSH32 0x0 PUSH1 0x4 DUP3 ADD DUP2 SWAP1 MSTORE TIMESTAMP PUSH1 0x24 DUP4 ADD MSTORE PUSH1 0xA0 PUSH1 0x44 DUP4 ADD MSTORE SWAP1 SWAP2 SWAP1 DUP6 SWAP1 PUSH1 0x1 PUSH1 0x1 PUSH1 0xA0 SHL SUB PUSH32 0x0 DUP2 AND SWAP1 DUP6 SWAP1 PUSH2 0x938 PUSH1 0xA4 DUP4 ADD DUP8 PUSH2 0x2948 JUMP JUMPDEST SWAP1 PUSH32 0x0 AND PUSH1 0x64 DUP4 ADD MSTORE DUP8 PUSH1 0x84 DUP4 ADD MSTORE DUP2 PUSH1 0x20 SWAP8 DUP9 SWAP3 SUB DUP2 DUP8 DUP7 GAS CALL SWAP1 DUP2 ISZERO PUSH2 0xB4D JUMPI DUP7 SWAP2 PUSH2 0xB6C JUMPI JUMPDEST POP POP DUP1 EXTCODESIZE ISZERO PUSH2 0xADD JUMPI PUSH1 0x40 MLOAD PUSH4 0x239E22FF PUSH1 0xE1 SHL DUP2 MSTORE DUP4 DUP2 DUP1 PUSH2 0x9D2 PUSH32 0x0 PUSH1 0x1 PUSH1 0x1 PUSH1 0x40 SHL SUB AND DUP10 TIMESTAMP DUP10 PUSH1 0x4 DUP7 ADD PUSH2 0x2E66 JUMP JUMPDEST SUB DUP2 DUP4 DUP7 GAS CALL SWAP1 DUP2 ISZERO PUSH2 0xB4D JUMPI DUP5 SWAP2 PUSH2 0xB58 JUMPI JUMPDEST POP POP PUSH32 0x0 DUP6 DUP2 PUSH2 0xAE1 JUMPI JUMPDEST POP POP DUP1 EXTCODESIZE ISZERO PUSH2 0xADD JUMPI DUP4 DUP4 SWAP2 PUSH2 0xA3F SWAP4 DUP4 PUSH1 0x40 MLOAD DUP1 SWAP7 DUP2 SWAP6 DUP3 SWAP5 PUSH4 0x120698AF PUSH1 0xE0 SHL DUP5 MSTORE TIMESTAMP SWAP1 PUSH1 0x4 DUP6 ADD PUSH2 0x2C4B JUMP JUMPDEST SUB SWAP3 GAS CALL DUP1 ISZERO PUSH2 0xAD2 JUMPI PUSH2 0xABA JUMPI JUMPDEST POP POP SWAP1 PUSH32 0xE4D3D3C620D2A4B140FA3731B55B8F71306ED6AB936D7B660B613ECDBBF69DB6 SWAP3 PUSH2 0xA9E PUSH1 0x60 SWAP4 PUSH2 0x100 PUSH2 0xFF00 NOT PUSH1 0x6 SLOAD AND OR PUSH1 0x6 SSTORE PUSH1 0x40 MLOAD SWAP5 DUP6 SWAP5 TIMESTAMP DUP7 MSTORE DUP6 ADD MSTORE PUSH1 0x60 DUP5 ADD SWAP1 PUSH2 0x2948 JUMP JUMPDEST SWAP1 PUSH1 0x40 DUP4 ADD MSTORE SUB SWAP1 LOG1 PUSH1 0x0 DUP1 MLOAD PUSH1 0x20 PUSH2 0x3681 DUP4 CODECOPY DUP2 MLOAD SWAP2 MSTORE SSTORE DUP1 RETURN JUMPDEST PUSH2 0xAC6 SWAP1 SWAP4 SWAP3 SWAP4 PUSH2 0x2914 JUMP JUMPDEST PUSH2 0x63D JUMPI SWAP1 DUP5 CODESIZE PUSH2 0xA4E JUMP JUMPDEST PUSH1 0x40 MLOAD RETURNDATASIZE DUP5 DUP3 RETURNDATACOPY RETURNDATASIZE SWAP1 REVERT JUMPDEST DUP3 DUP1 REVERT JUMPDEST PUSH1 0x40 MLOAD PUSH4 0x56AD3AAD PUSH1 0xE1 SHL DUP2 MSTORE SWAP2 DUP3 SWAP1 DUP2 SWAP1 PUSH2 0xB03 SWAP1 DUP10 TIMESTAMP DUP10 PUSH1 0x4 DUP7 ADD PUSH2 0x2E66 JUMP JUMPDEST SUB DUP2 DUP8 DUP7 GAS CALL SWAP1 DUP2 ISZERO PUSH2 0xB4D JUMPI DUP7 SWAP2 PUSH2 0xB1E JUMPI JUMPDEST POP DUP1 PUSH2 0xA10 JUMP JUMPDEST SWAP1 DUP1 SWAP3 SWAP5 POP RETURNDATASIZE DUP4 GT PUSH2 0xB46 JUMPI JUMPDEST PUSH2 0xB35 DUP2 DUP4 PUSH2 0x2927 JUMP JUMPDEST DUP2 ADD SUB SLT PUSH2 0x32C JUMPI DUP7 SWAP2 DUP5 CODESIZE PUSH2 0xB17 JUMP JUMPDEST POP RETURNDATASIZE PUSH2 0xB2B JUMP JUMPDEST PUSH1 0x40 MLOAD RETURNDATASIZE DUP7 DUP3 RETURNDATACOPY RETURNDATASIZE SWAP1 REVERT JUMPDEST PUSH2 0xB61 SWAP1 PUSH2 0x2914 JUMP JUMPDEST PUSH2 0xADD JUMPI DUP3 CODESIZE PUSH2 0x9E6 JUMP JUMPDEST SWAP1 DUP1 SWAP3 SWAP5 POP RETURNDATASIZE DUP4 GT PUSH2 0xB94 JUMPI JUMPDEST PUSH2 0xB83 DUP2 DUP4 PUSH2 0x2927 JUMP JUMPDEST DUP2 ADD SUB SLT PUSH2 0x32C JUMPI DUP7 SWAP2 DUP5 CODESIZE PUSH2 0x980 JUMP JUMPDEST POP RETURNDATASIZE PUSH2 0xB79 JUMP JUMPDEST PUSH1 0x1 DUP1 PUSH1 0xA0 SHL SUB DUP1 PUSH32 0x0 AND SWAP1 PUSH32 0x0 AND SWAP1 PUSH1 0x0 SWAP2 PUSH1 0x40 MLOAD PUSH1 0x20 PUSH4 0x95EA7B3 PUSH1 0xE0 SHL SWAP5 DUP6 DUP2 MSTORE DUP4 PUSH1 0x4 MSTORE DUP8 PUSH1 0x24 MSTORE PUSH1 0x44 DUP2 DUP1 DUP8 GAS CALL DUP8 PUSH1 0x0 MLOAD EQ DUP2 AND ISZERO PUSH2 0xCF9 JUMPI JUMPDEST DUP2 PUSH1 0x40 MSTORE ISZERO PUSH2 0xC2C JUMPI JUMPDEST POP POP POP POP PUSH2 0x8B6 JUMP JUMPDEST PUSH1 0x20 PUSH1 0x0 DUP6 DUP2 MSTORE DUP4 PUSH1 0x4 MSTORE DUP1 PUSH1 0x24 MSTORE PUSH1 0x44 DUP2 DUP1 DUP8 GAS CALL DUP8 PUSH1 0x0 MLOAD EQ DUP2 AND ISZERO PUSH2 0xCDA JUMPI JUMPDEST DUP2 PUSH1 0x40 MSTORE ISZERO PUSH2 0xCC4 JUMPI POP PUSH1 0x20 SWAP1 PUSH1 0x0 SWAP1 PUSH1 0x40 MLOAD SWAP5 DUP3 MSTORE PUSH1 0x4 MSTORE DUP6 PUSH1 0x24 MSTORE PUSH1 0x44 DUP2 DUP1 DUP6 GAS CALL DUP6 PUSH1 0x0 MLOAD EQ DUP2 AND ISZERO PUSH2 0xCA5 JUMPI JUMPDEST DUP3 PUSH1 0x40 MSTORE ISZERO PUSH2 0xC90 JUMPI DUP1 DUP1 PUSH2 0xC23 JUMP JUMPDEST PUSH4 0x5274AFE7 PUSH1 0xE0 SHL DUP3 MSTORE PUSH1 0x4 DUP3 ADD MSTORE PUSH1 0x24 SWAP2 POP REVERT JUMPDEST DUP6 DUP2 ISZERO AND PUSH2 0xCBA JUMPI DUP2 EXTCODESIZE ISZERO ISZERO RETURNDATASIZE ISZERO AND AND PUSH2 0xC80 JUMP JUMPDEST DUP3 RETURNDATASIZE PUSH1 0x0 DUP3 RETURNDATACOPY RETURNDATASIZE SWAP1 REVERT JUMPDEST PUSH4 0x5274AFE7 PUSH1 0xE0 SHL DUP2 MSTORE PUSH1 0x4 DUP2 ADD DUP4 SWAP1 MSTORE PUSH1 0x24 SWAP1 REVERT JUMPDEST DUP8 DUP2 ISZERO AND PUSH2 0xCEF JUMPI DUP4 EXTCODESIZE ISZERO ISZERO RETURNDATASIZE ISZERO AND AND PUSH2 0xC4F JUMP JUMPDEST POP RETURNDATASIZE PUSH1 0x0 DUP3 RETURNDATACOPY RETURNDATASIZE SWAP1 REVERT JUMPDEST DUP4 EXTCODESIZE ISZERO ISZERO RETURNDATASIZE ISZERO AND AND PUSH2 0xC19 JUMP JUMPDEST PUSH1 0x40 MLOAD PUSH4 0xFCE133D PUSH1 0xE0 SHL DUP2 MSTORE PUSH1 0x4 SWAP1 REVERT JUMPDEST PUSH1 0x40 MLOAD PUSH4 0xBAF3F0F7 PUSH1 0xE0 SHL DUP2 MSTORE PUSH1 0x4 SWAP1 REVERT JUMPDEST PUSH4 0x4E487B71 PUSH1 0xE0 SHL DUP4 MSTORE PUSH1 0x21 PUSH1 0x4 MSTORE PUSH1 0x24 DUP4 REVERT JUMPDEST POP CALLVALUE PUSH2 0x2BD JUMPI DUP1 PUSH1 0x3 NOT CALLDATASIZE ADD SLT PUSH2 0x2BD JUMPI PUSH1 0x20 PUSH1 0x40 MLOAD PUSH1 0xFF PUSH32 0x0 AND DUP2 MSTORE RETURN JUMPDEST POP CALLVALUE PUSH2 0x2BD JUMPI DUP1 PUSH1 0x3 NOT CALLDATASIZE ADD SLT PUSH2 0x2BD JUMPI PUSH1 0x20 PUSH1 0xC SLOAD PUSH1 0x40 MLOAD SWAP1 DUP2 MSTORE RETURN JUMPDEST POP CALLVALUE PUSH2 0x2BD JUMPI DUP1 PUSH1 0x3 NOT CALLDATASIZE ADD SLT PUSH2 0x2BD JUMPI PUSH1 0x1 SLOAD PUSH1 0x40 MLOAD PUSH1 0x1 PUSH1 0x1 PUSH1 0xA0 SHL SUB SWAP1 SWAP2 AND DUP2 MSTORE PUSH1 0x20 SWAP1 RETURN JUMPDEST POP CALLVALUE PUSH2 0x2BD JUMPI DUP1 PUSH1 0x3 NOT CALLDATASIZE ADD SLT PUSH2 0x2BD JUMPI PUSH1 0x20 PUSH1 0x40 MLOAD PUSH2 0x2710 DUP2 MSTORE RETURN JUMPDEST POP CALLVALUE PUSH2 0x2BD JUMPI DUP1 PUSH1 0x3 NOT CALLDATASIZE ADD SLT PUSH2 0x2BD JUMPI PUSH1 0x20 PUSH32 0x0 PUSH1 0x40 MLOAD SWAP1 PUSH2 0xE21 DUP2 PUSH2 0x2B50 JUMP JUMPDEST DUP2 MSTORE RETURN JUMPDEST POP CALLVALUE PUSH2 0x2BD JUMPI PUSH1 0xA0 CALLDATASIZE PUSH1 0x3 NOT ADD SLT PUSH2 0x2BD JUMPI PUSH1 0x4 CALLDATALOAD PUSH1 0x1 PUSH1 0x1 PUSH1 0x40 SHL SUB DUP2 GT PUSH2 0x168B JUMPI PUSH2 0xE56 SWAP1 CALLDATASIZE SWAP1 PUSH1 0x4 ADD PUSH2 0x2B70 JUMP JUMPDEST SWAP1 PUSH1 0x24 CALLDATALOAD PUSH1 0x1 PUSH1 0x1 PUSH1 0x40 SHL SUB DUP2 GT PUSH2 0x1687 JUMPI PUSH2 0xE76 SWAP1 CALLDATASIZE SWAP1 PUSH1 0x4 ADD PUSH2 0x2B70 JUMP JUMPDEST SWAP2 PUSH1 0x44 CALLDATALOAD PUSH1 0x1 PUSH1 0x1 PUSH1 0x40 SHL SUB DUP2 GT PUSH2 0x64C JUMPI PUSH2 0xE96 SWAP1 CALLDATASIZE SWAP1 PUSH1 0x4 ADD PUSH2 0x2B70 JUMP JUMPDEST SWAP3 PUSH1 0x64 CALLDATALOAD PUSH1 0x1 PUSH1 0x1 PUSH1 0x40 SHL SUB DUP2 GT PUSH2 0x1683 JUMPI PUSH2 0xEB6 SWAP1 CALLDATASIZE SWAP1 PUSH1 0x4 ADD PUSH2 0x2BA0 JUMP JUMPDEST SWAP3 SWAP1 SWAP2 PUSH1 0x84 CALLDATALOAD PUSH1 0x1 PUSH1 0x1 PUSH1 0x40 SHL SUB DUP2 GT PUSH2 0x167F JUMPI PUSH2 0xED8 SWAP1 CALLDATASIZE SWAP1 PUSH1 0x4 ADD PUSH2 0x2BA0 JUMP JUMPDEST SWAP1 SWAP8 SWAP1 SWAP7 SWAP1 PUSH32 0x0 PUSH1 0x1 PUSH1 0x1 PUSH1 0xA0 SHL SUB AND CALLER SUB PUSH2 0x166D JUMPI PUSH1 0x6 SLOAD PUSH1 0xFF DUP2 AND PUSH2 0x165C JUMPI PUSH1 0xFF PUSH32 0x0 AND DUP12 SUB PUSH2 0x1629 JUMPI PUSH1 0xFF NOT AND PUSH1 0x1 OR PUSH1 0x6 SSTORE DUP11 JUMPDEST DUP11 DUP2 LT PUSH2 0x1581 JUMPI POP PUSH1 0x2 PUSH32 0x0 LT ISZERO PUSH2 0x156D JUMPI PUSH32 0x0 ISZERO PUSH2 0x1371 JUMPI JUMPDEST POP POP POP POP PUSH1 0x1 PUSH1 0x1 PUSH1 0x40 SHL SUB DUP3 GT PUSH2 0x135D JUMPI PUSH1 0x7 PUSH2 0xFC4 DUP2 SLOAD PUSH2 0x28DA JUMP JUMPDEST SWAP1 PUSH1 0x1F SWAP2 DUP3 DUP2 GT PUSH2 0x1311 JUMPI JUMPDEST POP DUP9 DUP5 DUP4 DUP2 GT PUSH1 0x1 EQ PUSH2 0x1291 JUMPI DUP1 PUSH2 0xFFD SWAP3 DUP13 SWAP2 PUSH2 0x1286 JUMPI JUMPDEST POP DUP2 PUSH1 0x1 SHL SWAP2 PUSH1 0x0 NOT SWAP1 PUSH1 0x3 SHL SHR NOT AND OR SWAP1 JUMP JUMPDEST DUP2 SSTORE JUMPDEST PUSH1 0x1 PUSH32 0x0 EQ PUSH2 0x10C3 JUMPI JUMPDEST POP POP PUSH1 0x40 MLOAD SWAP6 DUP1 PUSH1 0x60 DUP9 ADD PUSH1 0x60 DUP10 MSTORE MSTORE PUSH1 0x80 DUP8 ADD SWAP4 SWAP1 DUP9 SWAP1 JUMPDEST DUP1 DUP3 LT PUSH2 0x1099 JUMPI DUP10 PUSH32 0xD4440A27C9CBC5D7A01C508E84787333A316746CDF5CE32C8C5A4568304E0FB9 DUP11 DUP1 PUSH2 0x1093 DUP13 DUP13 PUSH2 0x1085 DUP14 DUP14 DUP14 DUP8 DUP4 SUB PUSH1 0x20 DUP10 ADD MSTORE PUSH2 0x2E45 JUMP JUMPDEST SWAP2 DUP5 DUP4 SUB PUSH1 0x40 DUP7 ADD MSTORE PUSH2 0x2E45 JUMP JUMPDEST SUB SWAP1 LOG1 DUP1 RETURN JUMPDEST SWAP1 SWAP2 SWAP5 DUP6 CALLDATALOAD SWAP1 PUSH1 0x1 DUP1 PUSH1 0xA0 SHL SUB DUP3 AND DUP1 SWAP3 SUB PUSH2 0x32C JUMPI PUSH1 0x1 SWAP2 DUP2 MSTORE PUSH1 0x20 DUP1 SWAP2 ADD SWAP7 ADD SWAP3 ADD SWAP1 PUSH2 0x1042 JUMP JUMPDEST DUP6 ISZERO PUSH2 0x1258 JUMPI POP PUSH2 0x2000 DUP6 GT PUSH2 0x1223 JUMPI PUSH1 0x1 PUSH1 0x1 PUSH1 0x40 SHL SUB DUP6 GT PUSH2 0x120F JUMPI PUSH2 0x10EC PUSH1 0x8 SLOAD PUSH2 0x28DA JUMP JUMPDEST DUP2 DUP2 GT PUSH2 0x11B8 JUMPI JUMPDEST POP DUP5 DUP9 SWAP2 DUP2 GT PUSH1 0x1 EQ PUSH2 0x1136 JUMPI DUP1 PUSH2 0x1120 SWAP3 DUP11 SWAP2 PUSH2 0x112B JUMPI POP DUP2 PUSH1 0x1 SHL SWAP2 PUSH1 0x0 NOT SWAP1 PUSH1 0x3 SHL SHR NOT AND OR SWAP1 JUMP JUMPDEST PUSH1 0x8 SSTORE JUMPDEST CODESIZE DUP1 PUSH2 0x1029 JUMP JUMPDEST SWAP1 POP DUP8 ADD CALLDATALOAD CODESIZE PUSH2 0xFE9 JUMP JUMPDEST POP PUSH1 0x8 DUP9 MSTORE PUSH32 0xF3F7A9FE364FAAB93B216DA50A3214154F22A0A2B415B23A84C8169E8B636EE3 SWAP1 DUP6 PUSH1 0x1F NOT DUP2 AND DUP11 JUMPDEST DUP2 DUP2 LT PUSH2 0x119D JUMPI POP LT PUSH2 0x1183 JUMPI JUMPDEST POP POP PUSH1 0x1 DUP5 DUP2 SHL ADD PUSH1 0x8 SSTORE PUSH2 0x1124 JUMP JUMPDEST DUP7 ADD CALLDATALOAD PUSH1 0x0 NOT PUSH1 0x3 DUP8 SWAP1 SHL PUSH1 0xF8 AND SHR NOT AND SWAP1 SSTORE CODESIZE DUP1 PUSH2 0x1173 JUMP JUMPDEST DUP10 DUP5 ADD CALLDATALOAD DUP6 SSTORE PUSH1 0x1 SWAP1 SWAP5 ADD SWAP4 PUSH1 0x20 SWAP4 DUP5 ADD SWAP4 DUP10 SWAP4 POP ADD PUSH2 0x1165 JUMP JUMPDEST PUSH2 0x1200 SWAP1 PUSH1 0x8 PUSH1 0x0 MSTORE PUSH32 0xF3F7A9FE364FAAB93B216DA50A3214154F22A0A2B415B23A84C8169E8B636EE3 DUP4 DUP1 DUP10 ADD PUSH1 0x5 SHR DUP3 ADD SWAP3 PUSH1 0x20 DUP11 LT PUSH2 0x1206 JUMPI JUMPDEST ADD PUSH1 0x5 SHR ADD SWAP1 PUSH2 0x2E2E JUMP JUMPDEST CODESIZE PUSH2 0x10F4 JUMP JUMPDEST SWAP3 POP DUP2 SWAP3 PUSH2 0x11F5 JUMP JUMPDEST PUSH4 0x4E487B71 PUSH1 0xE0 SHL DUP9 MSTORE PUSH1 0x41 PUSH1 0x4 MSTORE PUSH1 0x24 DUP9 REVERT JUMPDEST PUSH1 0x40 MLOAD PUSH3 0x461BCD PUSH1 0xE5 SHL DUP2 MSTORE PUSH1 0x20 PUSH1 0x4 DUP3 ADD MSTORE PUSH1 0xD PUSH1 0x24 DUP3 ADD MSTORE PUSH13 0x20B731B4B63630B93C903632B7 PUSH1 0x99 SHL PUSH1 0x44 DUP3 ADD MSTORE PUSH1 0x64 SWAP1 REVERT JUMPDEST PUSH1 0x64 SWAP1 PUSH1 0x40 MLOAD SWAP1 PUSH3 0x461BCD PUSH1 0xE5 SHL DUP3 MSTORE PUSH1 0x20 PUSH1 0x4 DUP4 ADD MSTORE PUSH1 0x24 DUP3 ADD MSTORE PUSH7 0x554D4120616E63 PUSH1 0xC8 SHL PUSH1 0x44 DUP3 ADD MSTORE REVERT JUMPDEST SWAP1 POP DUP6 ADD CALLDATALOAD CODESIZE PUSH2 0xFE9 JUMP JUMPDEST POP DUP2 DUP11 MSTORE PUSH32 0xA66CC928B5EDB82AF9BD49922954155AB7B0942694BEA4CE44661D9A8736C688 SWAP1 DUP6 PUSH1 0x1F NOT DUP2 AND DUP13 JUMPDEST DUP2 DUP2 LT PUSH2 0x12F6 JUMPI POP LT PUSH2 0x12DC JUMPI JUMPDEST POP POP PUSH1 0x1 DUP5 DUP2 SHL ADD DUP2 SSTORE PUSH2 0x1000 JUMP JUMPDEST DUP5 ADD CALLDATALOAD PUSH1 0x0 NOT PUSH1 0x3 DUP8 SWAP1 SHL PUSH1 0xF8 AND SHR NOT AND SWAP1 SSTORE CODESIZE DUP1 PUSH2 0x12CD JUMP JUMPDEST DUP8 DUP5 ADD CALLDATALOAD DUP6 SSTORE PUSH1 0x1 SWAP1 SWAP5 ADD SWAP4 PUSH1 0x20 SWAP4 DUP5 ADD SWAP4 DUP10 SWAP4 POP ADD PUSH2 0x12BF JUMP JUMPDEST PUSH2 0x1357 SWAP1 DUP3 PUSH1 0x0 MSTORE PUSH32 0xA66CC928B5EDB82AF9BD49922954155AB7B0942694BEA4CE44661D9A8736C688 DUP5 DUP1 DUP9 ADD PUSH1 0x5 SHR DUP3 ADD SWAP3 PUSH1 0x20 DUP10 LT PUSH2 0x1206 JUMPI ADD PUSH1 0x5 SHR ADD SWAP1 PUSH2 0x2E2E JUMP JUMPDEST CODESIZE PUSH2 0xFD0 JUMP JUMPDEST PUSH4 0x4E487B71 PUSH1 0xE0 SHL DUP8 MSTORE PUSH1 0x41 PUSH1 0x4 MSTORE PUSH1 0x24 DUP8 REVERT JUMPDEST DUP1 ISZERO PUSH2 0x150A JUMPI PUSH1 0xFF PUSH32 0x0 AND DUP2 EQ DUP1 PUSH2 0x14DE JUMPI JUMPDEST PUSH2 0x13AC SWAP1 PUSH2 0x2DFC JUMP JUMPDEST DUP11 JUMPDEST DUP2 DUP2 LT PUSH2 0x13FB JUMPI POP POP POP POP POP JUMPDEST DUP4 PUSH2 0x13C9 JUMPI CODESIZE DUP1 DUP1 DUP1 PUSH2 0xFA6 JUMP JUMPDEST PUSH1 0x40 MLOAD PUSH3 0x461BCD PUSH1 0xE5 SHL DUP2 MSTORE PUSH1 0x20 PUSH1 0x4 DUP3 ADD MSTORE PUSH1 0xA PUSH1 0x24 DUP3 ADD MSTORE PUSH10 0x4E6F20554D4120616E63 PUSH1 0xB0 SHL PUSH1 0x44 DUP3 ADD MSTORE PUSH1 0x64 SWAP1 REVERT JUMPDEST PUSH2 0x1406 DUP2 DUP4 DUP7 PUSH2 0x2DEC JUMP JUMPDEST CALLDATALOAD PUSH2 0x1412 DUP3 DUP6 DUP9 PUSH2 0x2DEC JUMP JUMPDEST CALLDATALOAD LT PUSH2 0x14AC JUMPI PUSH2 0x1423 DUP2 DUP4 DUP7 PUSH2 0x2DEC JUMP JUMPDEST CALLDATALOAD SWAP1 PUSH1 0x4 SLOAD PUSH1 0x1 PUSH1 0x40 SHL SWAP3 DUP4 DUP3 LT ISZERO PUSH2 0x1496 JUMPI PUSH2 0x1449 DUP3 PUSH1 0x1 PUSH2 0x1462 SWAP5 ADD PUSH1 0x4 SSTORE PUSH2 0x29D5 JUMP JUMPDEST SWAP1 SWAP2 SWAP1 DUP3 SLOAD SWAP1 PUSH1 0x3 SHL SWAP2 DUP3 SHL SWAP2 PUSH1 0x0 NOT SWAP1 SHL NOT AND OR SWAP1 SSTORE JUMP JUMPDEST PUSH2 0x146D DUP2 DUP6 DUP9 PUSH2 0x2DEC JUMP JUMPDEST CALLDATALOAD SWAP2 PUSH1 0x5 SWAP3 DUP4 SLOAD SWAP2 DUP3 LT ISZERO PUSH2 0x1496 JUMPI PUSH2 0x1449 DUP3 PUSH1 0x1 SWAP6 DUP7 PUSH2 0x1490 SWAP6 ADD SWAP1 SSTORE PUSH2 0x2A43 JUMP JUMPDEST ADD PUSH2 0x13AE JUMP JUMPDEST PUSH4 0x4E487B71 PUSH1 0xE0 SHL PUSH1 0x0 MSTORE PUSH1 0x41 PUSH1 0x4 MSTORE PUSH1 0x24 PUSH1 0x0 REVERT JUMPDEST PUSH1 0x40 MLOAD PUSH3 0x461BCD PUSH1 0xE5 SHL DUP2 MSTORE PUSH1 0x20 PUSH1 0x4 DUP3 ADD MSTORE PUSH1 0xA PUSH1 0x24 DUP3 ADD MSTORE PUSH10 0x42696E20626F756E6473 PUSH1 0xB0 SHL PUSH1 0x44 DUP3 ADD MSTORE PUSH1 0x64 SWAP1 REVERT JUMPDEST POP PUSH32 0x0 PUSH1 0xFF AND DUP3 EQ PUSH2 0x13A3 JUMP JUMPDEST POP POP POP POP PUSH1 0x2 PUSH1 0xFF PUSH32 0x0 AND SUB ISZERO PUSH2 0x13BB JUMPI PUSH1 0x40 MLOAD PUSH3 0x461BCD PUSH1 0xE5 SHL DUP2 MSTORE PUSH1 0x20 PUSH1 0x4 DUP3 ADD MSTORE PUSH1 0xB PUSH1 0x24 DUP3 ADD MSTORE PUSH11 0x2134B7399037B910271E99 PUSH1 0xA9 SHL PUSH1 0x44 DUP3 ADD MSTORE PUSH1 0x64 SWAP1 REVERT JUMPDEST PUSH4 0x4E487B71 PUSH1 0xE0 SHL DUP12 MSTORE PUSH1 0x21 PUSH1 0x4 MSTORE PUSH1 0x24 DUP12 REVERT JUMPDEST PUSH2 0x158C DUP2 DUP13 DUP11 PUSH2 0x2DEC JUMP JUMPDEST CALLDATALOAD SWAP1 PUSH1 0x1 PUSH1 0x1 PUSH1 0xA0 SHL SUB DUP3 AND DUP3 SUB PUSH2 0x1625 JUMPI PUSH1 0x2 SLOAD PUSH1 0x1 PUSH1 0x40 SHL DUP2 LT ISZERO PUSH2 0x1611 JUMPI DUP1 PUSH1 0x1 PUSH2 0x15BD SWAP3 ADD PUSH1 0x2 SSTORE PUSH2 0x2A0C JUMP JUMPDEST DUP2 SLOAD PUSH1 0x1 PUSH1 0x1 PUSH1 0xA0 SHL SUB PUSH1 0x3 SWAP3 DUP4 SHL DUP2 DUP2 SHL NOT SWAP1 SWAP3 AND SWAP6 AND SWAP1 SHL SWAP4 SWAP1 SWAP4 OR SWAP1 SSTORE DUP2 SLOAD SWAP2 PUSH1 0x1 PUSH1 0x40 SHL DUP4 LT ISZERO PUSH2 0x1496 JUMPI PUSH2 0x15FC DUP4 PUSH1 0x1 DUP1 SWAP6 ADD DUP4 SSTORE PUSH2 0x2988 JUMP JUMPDEST SWAP1 SWAP2 DUP3 SLOAD SWAP2 PUSH1 0x0 NOT SWAP2 SHL SHL NOT AND SWAP1 SSTORE ADD PUSH2 0xF4E JUMP JUMPDEST PUSH4 0x4E487B71 PUSH1 0xE0 SHL DUP15 MSTORE PUSH1 0x41 PUSH1 0x4 MSTORE PUSH1 0x24 DUP15 REVERT JUMPDEST DUP13 DUP1 REVERT JUMPDEST PUSH1 0x40 MLOAD PUSH3 0x461BCD PUSH1 0xE5 SHL DUP2 MSTORE PUSH1 0x20 PUSH1 0x4 DUP3 ADD MSTORE PUSH1 0xB PUSH1 0x24 DUP3 ADD MSTORE PUSH11 0x151BDAD95B8818DBDD5B9D PUSH1 0xAA SHL PUSH1 0x44 DUP3 ADD MSTORE PUSH1 0x64 SWAP1 REVERT JUMPDEST PUSH1 0x40 MLOAD PUSH3 0xDC149F PUSH1 0xE4 SHL DUP2 MSTORE PUSH1 0x4 SWAP1 REVERT JUMPDEST PUSH1 0x40 MLOAD PUSH4 0x636A157 PUSH1 0xE1 SHL DUP2 MSTORE PUSH1 0x4 SWAP1 REVERT JUMPDEST DUP10 DUP1 REVERT JUMPDEST DUP8 DUP1 REVERT JUMPDEST DUP4 DUP1 REVERT JUMPDEST POP DUP1 REVERT JUMPDEST POP CALLVALUE PUSH2 0x2BD JUMPI DUP1 PUSH1 0x3 NOT CALLDATASIZE ADD SLT PUSH2 0x2BD JUMPI PUSH1 0x20 PUSH1 0x40 MLOAD PUSH32 0x0 DUP2 MSTORE RETURN JUMPDEST POP CALLVALUE PUSH2 0x2BD JUMPI DUP1 PUSH1 0x3 NOT CALLDATASIZE ADD SLT PUSH2 0x2BD JUMPI PUSH1 0x20 PUSH1 0x9 SLOAD PUSH1 0x40 MLOAD SWAP1 DUP2 MSTORE RETURN JUMPDEST POP CALLVALUE PUSH2 0x2BD JUMPI DUP1 PUSH1 0x3 NOT CALLDATASIZE ADD SLT PUSH2 0x2BD JUMPI PUSH1 0x20 PUSH1 0x40 MLOAD PUSH32 0x0 DUP2 MSTORE RETURN JUMPDEST POP CALLVALUE PUSH2 0x2BD JUMPI DUP1 PUSH1 0x3 NOT CALLDATASIZE ADD SLT PUSH2 0x2BD JUMPI PUSH1 0x20 PUSH1 0x40 MLOAD PUSH32 0x0 DUP2 MSTORE RETURN JUMPDEST POP CALLVALUE PUSH2 0x2BD JUMPI DUP1 PUSH1 0x3 NOT CALLDATASIZE ADD SLT PUSH2 0x2BD JUMPI PUSH1 0x40 MLOAD PUSH32 0x0 PUSH1 0x1 PUSH1 0x1 PUSH1 0xA0 SHL SUB AND DUP2 MSTORE PUSH1 0x20 SWAP1 RETURN JUMPDEST POP CALLVALUE PUSH2 0x2BD JUMPI DUP1 PUSH1 0x3 NOT CALLDATASIZE ADD SLT PUSH2 0x2BD JUMPI PUSH1 0x20 PUSH1 0xFF PUSH1 0x6 SLOAD PUSH1 0x8 SHR AND PUSH1 0x40 MLOAD SWAP1 PUSH2 0xE21 DUP2 PUSH2 0x2B50 JUMP JUMPDEST POP CALLVALUE PUSH2 0x2BD JUMPI PUSH1 0x40 CALLDATASIZE PUSH1 0x3 NOT ADD SLT PUSH2 0x2BD JUMPI PUSH2 0x17E6 PUSH2 0x2A7A JUMP JUMPDEST PUSH1 0x24 CALLDATALOAD SWAP1 PUSH2 0x17F2 PUSH2 0x2E8D JUMP JUMPDEST PUSH1 0x6 SLOAD PUSH1 0xFF DUP2 AND ISZERO PUSH2 0x7DD JUMPI PUSH1 0xFF PUSH1 0x2 SWAP2 PUSH1 0x8 SHR AND PUSH2 0x1810 DUP2 PUSH2 0x2B50 JUMP JUMPDEST SUB PUSH2 0xD18 JUMPI DUP2 ISZERO PUSH2 0x650 JUMPI PUSH1 0xFF DUP2 AND PUSH1 0xFF PUSH32 0x0 AND DUP2 LT ISZERO PUSH2 0x1943 JUMPI PUSH1 0xFF PUSH1 0xA SLOAD AND SUB PUSH2 0x1943 JUMPI PUSH1 0xB SLOAD DUP1 ISZERO PUSH2 0x1931 JUMPI PUSH2 0x1871 PUSH8 0xDE0B6B3A7640000 SWAP2 DUP5 PUSH2 0x2C18 JUMP JUMPDEST DIV SWAP2 DUP3 ISZERO PUSH2 0x1903 JUMPI PUSH2 0x1883 DUP5 SWAP3 PUSH2 0x2A0C JUMP JUMPDEST SWAP1 SLOAD PUSH1 0x3 SWAP2 SWAP1 SWAP2 SHL SHR PUSH1 0x1 PUSH1 0x1 PUSH1 0xA0 SHL SUB AND DUP1 EXTCODESIZE ISZERO PUSH2 0xADD JUMPI PUSH1 0x40 MLOAD PUSH4 0x79CC679 PUSH1 0xE4 SHL DUP2 MSTORE CALLER PUSH1 0x4 DUP3 ADD MSTORE PUSH1 0x24 DUP2 ADD SWAP3 SWAP1 SWAP3 MSTORE DUP3 SWAP1 DUP3 SWAP1 PUSH1 0x44 SWAP1 DUP3 SWAP1 DUP5 SWAP1 GAS CALL DUP1 ISZERO PUSH2 0xAD2 JUMPI PUSH2 0x18EF JUMPI JUMPDEST POP PUSH2 0x18DA DUP3 CALLER PUSH2 0x356C JUMP JUMPDEST PUSH1 0x1 PUSH1 0x0 DUP1 MLOAD PUSH1 0x20 PUSH2 0x3681 DUP4 CODECOPY DUP2 MLOAD SWAP2 MSTORE SSTORE DUP1 RETURN JUMPDEST PUSH2 0x18F8 SWAP1 PUSH2 0x2914 JUMP JUMPDEST PUSH2 0x168B JUMPI DUP2 CODESIZE PUSH2 0x18CF JUMP JUMPDEST PUSH1 0x40 MLOAD PUSH3 0x461BCD PUSH1 0xE5 SHL DUP2 MSTORE PUSH1 0x20 PUSH1 0x4 DUP3 ADD MSTORE PUSH1 0x6 PUSH1 0x24 DUP3 ADD MSTORE PUSH6 0x14185E5BDD5D PUSH1 0xD2 SHL PUSH1 0x44 DUP3 ADD MSTORE PUSH1 0x64 SWAP1 REVERT JUMPDEST PUSH1 0x40 MLOAD PUSH4 0xB3B7D75F PUSH1 0xE0 SHL DUP2 MSTORE PUSH1 0x4 SWAP1 REVERT JUMPDEST PUSH1 0x40 MLOAD PUSH4 0xC74A206D PUSH1 0xE0 SHL DUP2 MSTORE PUSH1 0x4 SWAP1 REVERT JUMPDEST POP CALLVALUE PUSH2 0x2BD JUMPI DUP1 PUSH1 0x3 NOT CALLDATASIZE ADD SLT PUSH2 0x2BD JUMPI PUSH1 0x20 PUSH1 0x40 MLOAD PUSH32 0x0 DUP2 MSTORE RETURN JUMPDEST POP CALLVALUE PUSH2 0x2BD JUMPI DUP1 PUSH1 0x3 NOT CALLDATASIZE ADD SLT PUSH2 0x2BD JUMPI PUSH1 0x20 PUSH1 0x40 MLOAD PUSH32 0x0 DUP2 MSTORE RETURN JUMPDEST POP CALLVALUE PUSH2 0x2BD JUMPI DUP1 PUSH1 0x3 NOT CALLDATASIZE ADD SLT PUSH2 0x2BD JUMPI PUSH1 0x20 PUSH1 0x40 MLOAD PUSH8 0xDE0B6B3A7640000 DUP2 MSTORE RETURN JUMPDEST POP CALLVALUE PUSH2 0x2BD JUMPI DUP1 PUSH1 0x3 NOT CALLDATASIZE ADD SLT PUSH2 0x2BD JUMPI PUSH1 0xE SLOAD PUSH1 0x40 MLOAD PUSH1 0x1 PUSH1 0x1 PUSH1 0xA0 SHL SUB SWAP1 SWAP2 AND DUP2 MSTORE PUSH1 0x20 SWAP1 RETURN JUMPDEST POP CALLVALUE PUSH2 0x2BD JUMPI PUSH1 0x20 CALLDATASIZE PUSH1 0x3 NOT ADD SLT PUSH2 0x2BD JUMPI PUSH1 0x20 PUSH2 0x1A3B PUSH2 0x1A36 PUSH2 0x2A7A JUMP JUMPDEST PUSH2 0x2CE0 JUMP JUMPDEST PUSH1 0x40 MLOAD SWAP1 DUP2 MSTORE RETURN JUMPDEST POP CALLVALUE PUSH2 0x2BD JUMPI DUP1 PUSH1 0x3 NOT CALLDATASIZE ADD SLT PUSH2 0x2BD JUMPI PUSH1 0x40 MLOAD PUSH32 0x0 PUSH1 0x2 DUP2 LT ISZERO PUSH2 0xD2A JUMPI PUSH1 0x20 SWAP3 POP DUP2 MSTORE RETURN JUMPDEST POP CALLVALUE PUSH2 0x2BD JUMPI DUP1 PUSH1 0x3 NOT CALLDATASIZE ADD SLT PUSH2 0x2BD JUMPI SLOAD PUSH1 0x40 MLOAD PUSH1 0x1 PUSH1 0x1 PUSH1 0xA0 SHL SUB SWAP1 SWAP2 AND DUP2 MSTORE PUSH1 0x20 SWAP1 RETURN JUMPDEST POP CALLVALUE PUSH2 0x2BD JUMPI DUP1 PUSH1 0x3 NOT CALLDATASIZE ADD SLT PUSH2 0x2BD JUMPI PUSH1 0x20 PUSH1 0x40 MLOAD PUSH1 0x1 PUSH1 0x1 PUSH1 0x40 SHL SUB PUSH32 0x0 AND DUP2 MSTORE RETURN JUMPDEST POP CALLVALUE PUSH2 0x2BD JUMPI DUP1 PUSH1 0x3 NOT CALLDATASIZE ADD SLT PUSH2 0x2BD JUMPI PUSH1 0x20 PUSH1 0x40 MLOAD PUSH1 0xFF PUSH32 0x0 AND DUP2 MSTORE RETURN JUMPDEST POP CALLVALUE PUSH2 0x2BD JUMPI DUP1 PUSH1 0x3 NOT CALLDATASIZE ADD SLT PUSH2 0x2BD JUMPI PUSH1 0x20 PUSH1 0xD SLOAD PUSH1 0x40 MLOAD SWAP1 DUP2 MSTORE RETURN JUMPDEST POP CALLVALUE PUSH2 0x2BD JUMPI DUP1 PUSH1 0x3 NOT CALLDATASIZE ADD SLT PUSH2 0x2BD JUMPI PUSH1 0x20 PUSH1 0x40 MLOAD PUSH32 0x0 DUP2 MSTORE RETURN JUMPDEST POP CALLVALUE PUSH2 0x2BD JUMPI DUP1 PUSH1 0x3 NOT CALLDATASIZE ADD SLT PUSH2 0x2BD JUMPI PUSH1 0x40 MLOAD PUSH32 0x0 PUSH1 0x1 PUSH1 0x1 PUSH1 0xA0 SHL SUB AND DUP2 MSTORE PUSH1 0x20 SWAP1 RETURN JUMPDEST POP CALLVALUE PUSH2 0x2BD JUMPI DUP1 PUSH1 0x3 NOT CALLDATASIZE ADD SLT PUSH2 0x2BD JUMPI PUSH1 0x20 PUSH1 0xA SLOAD PUSH1 0x40 MLOAD SWAP1 DUP2 MSTORE RETURN JUMPDEST POP CALLVALUE PUSH2 0x2BD JUMPI DUP1 PUSH1 0x3 NOT CALLDATASIZE ADD SLT PUSH2 0x2BD JUMPI PUSH1 0x1 SLOAD PUSH1 0x1 PUSH1 0x1 PUSH1 0xA0 SHL SUB CALLER DUP2 DUP4 AND SUB PUSH2 0x1C60 JUMPI PUSH12 0xFFFFFFFFFFFFFFFFFFFFFFFF PUSH1 0xA0 SHL DUP1 SWAP3 AND PUSH1 0x1 SSTORE PUSH1 0x0 SLOAD SWAP2 CALLER SWAP1 DUP4 AND OR PUSH1 0x0 SSTORE CALLER SWAP2 AND PUSH32 0x8BE0079C531659141344CD1FD0A4F28419497F9722A3DAAFE3B4186F6B6457E0 PUSH1 0x0 DUP1 LOG3 DUP1 RETURN JUMPDEST PUSH1 0x40 MLOAD PUSH4 0x118CDAA7 PUSH1 0xE0 SHL DUP2 MSTORE CALLER PUSH1 0x4 DUP3 ADD MSTORE PUSH1 0x24 SWAP1 REVERT JUMPDEST POP CALLVALUE PUSH2 0x2BD JUMPI DUP1 PUSH1 0x3 NOT CALLDATASIZE ADD SLT PUSH2 0x2BD JUMPI PUSH1 0x20 PUSH1 0x40 MLOAD PUSH32 0x0 DUP2 MSTORE RETURN JUMPDEST POP CALLVALUE PUSH2 0x2BD JUMPI DUP1 PUSH1 0x3 NOT CALLDATASIZE ADD SLT PUSH2 0x2BD JUMPI PUSH2 0x1CE3 PUSH2 0x1CCF PUSH2 0x2A8A JUMP JUMPDEST PUSH1 0x40 MLOAD SWAP2 DUP3 SWAP2 PUSH1 0x20 DUP4 MSTORE PUSH1 0x20 DUP4 ADD SWAP1 PUSH2 0x2948 JUMP JUMPDEST SUB SWAP1 RETURN JUMPDEST POP CALLVALUE PUSH2 0x2BD JUMPI DUP1 PUSH1 0x3 NOT CALLDATASIZE ADD SLT PUSH2 0x2BD JUMPI PUSH2 0x1D00 PUSH2 0x3558 JUMP JUMPDEST PUSH1 0x1 DUP1 SLOAD PUSH1 0x1 PUSH1 0x1 PUSH1 0xA0 SHL SUB NOT SWAP1 DUP2 AND SWAP1 SWAP2 SSTORE PUSH1 0x0 DUP1 SLOAD SWAP2 DUP3 AND DUP2 SSTORE SWAP1 PUSH1 0x1 PUSH1 0x1 PUSH1 0xA0 SHL SUB AND PUSH32 0x8BE0079C531659141344CD1FD0A4F28419497F9722A3DAAFE3B4186F6B6457E0 DUP3 DUP1 LOG3 DUP1 RETURN JUMPDEST POP PUSH1 0x80 CALLDATASIZE PUSH1 0x3 NOT ADD SLT PUSH2 0x2BD JUMPI PUSH2 0x1D62 PUSH2 0x2A7A JUMP JUMPDEST PUSH1 0x44 CALLDATALOAD SWAP1 PUSH1 0x1 PUSH1 0x1 PUSH1 0xA0 SHL SUB DUP1 DUP4 AND SWAP2 PUSH1 0x24 CALLDATALOAD SWAP2 DUP4 DUP6 SUB PUSH2 0x64C JUMPI PUSH2 0x1D85 PUSH2 0x2E8D JUMP JUMPDEST PUSH1 0x6 SLOAD PUSH1 0xFF DUP2 AND ISZERO PUSH2 0x7DD JUMPI PUSH1 0x8 SHR PUSH1 0xFF AND PUSH2 0x1DA0 DUP2 PUSH2 0x2B50 JUMP JUMPDEST PUSH2 0x7CB JUMPI PUSH32 0x0 TIMESTAMP LT ISZERO PUSH2 0x7B9 JUMPI PUSH1 0xFF DUP3 AND SWAP5 PUSH1 0xFF PUSH32 0x0 AND DUP7 LT ISZERO PUSH2 0x1943 JUMPI DUP4 ISZERO SWAP3 PUSH2 0x1E09 DUP5 ISZERO PUSH2 0x2C6A JUMP JUMPDEST DUP6 ISZERO PUSH2 0x1FF5 JUMPI PUSH32 0x0 DUP4 AND DUP1 PUSH2 0x1FAF JUMPI POP DUP5 CALLVALUE SUB PUSH2 0x6F2 JUMPI JUMPDEST PUSH2 0x1E49 DUP2 PUSH2 0x2CE0 JUMP JUMPDEST SWAP4 PUSH2 0x1E55 DUP6 ISZERO ISZERO PUSH2 0x2C9F JUMP JUMPDEST PUSH8 0xDE0B6B3A7640000 SWAP1 DUP2 DUP8 MUL SWAP2 DUP8 DUP4 DIV EQ OR ISZERO PUSH2 0x1F9B JUMPI DUP5 PUSH2 0x1E77 SWAP2 PUSH2 0x2C2B JUMP JUMPDEST SWAP3 DUP4 ISZERO PUSH2 0x650 JUMPI PUSH1 0x64 CALLDATALOAD DUP5 LT PUSH2 0x1F89 JUMPI PUSH2 0x1EAD DUP3 PUSH2 0x1EA8 PUSH2 0x1E98 DUP13 SWAP6 PUSH2 0x2988 JUMP JUMPDEST PUSH2 0x558 DUP12 DUP4 SLOAD DUP4 PUSH1 0x3 SHL SHR PUSH2 0x2CD3 JUMP JUMPDEST PUSH2 0x2A0C JUMP JUMPDEST SWAP1 SLOAD SWAP1 PUSH1 0x3 SHL SHR AND SWAP2 DUP3 EXTCODESIZE ISZERO PUSH2 0x168B JUMPI PUSH1 0x40 MLOAD PUSH4 0x40C10F19 PUSH1 0xE0 SHL DUP2 MSTORE PUSH1 0x1 PUSH1 0x1 PUSH1 0xA0 SHL SUB SWAP2 SWAP1 SWAP2 AND PUSH1 0x4 DUP3 ADD MSTORE PUSH1 0x24 DUP2 ADD DUP5 SWAP1 MSTORE SWAP2 DUP3 SWAP1 PUSH1 0x44 SWAP1 DUP3 SWAP1 DUP5 SWAP1 GAS CALL DUP1 ISZERO PUSH2 0x1F7E JUMPI PUSH2 0x1F49 JUMPI JUMPDEST POP PUSH1 0x40 DUP1 MLOAD SWAP4 DUP5 MSTORE PUSH1 0x20 DUP5 ADD SWAP2 SWAP1 SWAP2 MSTORE DUP3 ADD MSTORE CALLER SWAP1 PUSH32 0x8241D0DEFADD8507317470D315422749A6C8F8B8C9C0872AAB09C665EAF3B66B SWAP1 PUSH1 0x60 SWAP1 LOG4 PUSH1 0x1 PUSH1 0x0 DUP1 MLOAD PUSH1 0x20 PUSH2 0x3681 DUP4 CODECOPY DUP2 MLOAD SWAP2 MSTORE SSTORE DUP1 RETURN JUMPDEST SWAP6 PUSH2 0x1F76 PUSH32 0x8241D0DEFADD8507317470D315422749A6C8F8B8C9C0872AAB09C665EAF3B66B SWAP4 SWAP3 SWAP8 PUSH2 0x2914 JUMP JUMPDEST SWAP6 SWAP1 SWAP2 PUSH2 0x1EF9 JUMP JUMPDEST PUSH1 0x40 MLOAD RETURNDATASIZE DUP10 DUP3 RETURNDATACOPY RETURNDATASIZE SWAP1 REVERT JUMPDEST PUSH1 0x40 MLOAD PUSH4 0x7DD37F7 PUSH1 0xE4 SHL DUP2 MSTORE PUSH1 0x4 SWAP1 REVERT JUMPDEST PUSH4 0x4E487B71 PUSH1 0xE0 SHL DUP10 MSTORE PUSH1 0x11 PUSH1 0x4 MSTORE PUSH1 0x24 DUP10 REVERT JUMPDEST CALLVALUE PUSH2 0x1FC7 JUMPI DUP6 PUSH2 0x1FC2 SWAP2 ADDRESS SWAP1 CALLER SWAP1 PUSH2 0x34CB JUMP JUMPDEST PUSH2 0x1E40 JUMP JUMPDEST PUSH1 0x40 MLOAD PUSH3 0x461BCD PUSH1 0xE5 SHL DUP2 MSTORE PUSH1 0x20 PUSH1 0x4 DUP3 ADD MSTORE PUSH1 0x6 PUSH1 0x24 DUP3 ADD MSTORE PUSH6 0x9CDE408AA89 PUSH1 0xD3 SHL PUSH1 0x44 DUP3 ADD MSTORE PUSH1 0x64 SWAP1 REVERT JUMPDEST PUSH1 0x40 MLOAD PUSH3 0x461BCD PUSH1 0xE5 SHL DUP2 MSTORE PUSH1 0x20 PUSH1 0x4 DUP3 ADD MSTORE PUSH1 0x9 PUSH1 0x24 DUP3 ADD MSTORE PUSH9 0x149958DA5C1A595B9D PUSH1 0xBA SHL PUSH1 0x44 DUP3 ADD MSTORE PUSH1 0x64 SWAP1 REVERT JUMPDEST POP CALLVALUE PUSH2 0x2BD JUMPI DUP1 PUSH1 0x3 NOT CALLDATASIZE ADD SLT PUSH2 0x2BD JUMPI PUSH1 0x20 PUSH1 0x40 MLOAD PUSH32 0x0 DUP2 MSTORE RETURN JUMPDEST POP CALLVALUE PUSH2 0x2BD JUMPI PUSH1 0x20 CALLDATASIZE PUSH1 0x3 NOT ADD SLT PUSH2 0x2BD JUMPI PUSH1 0x20 PUSH2 0x2080 PUSH1 0x4 CALLDATALOAD PUSH2 0x2A0C JUMP JUMPDEST SWAP1 SLOAD PUSH1 0x40 MLOAD PUSH1 0x3 SWAP3 SWAP1 SWAP3 SHL SHR PUSH1 0x1 PUSH1 0x1 PUSH1 0xA0 SHL SUB AND DUP2 MSTORE RETURN JUMPDEST POP CALLVALUE PUSH2 0x2BD JUMPI DUP1 PUSH1 0x3 NOT CALLDATASIZE ADD SLT PUSH2 0x2BD JUMPI PUSH1 0x20 PUSH1 0xB SLOAD PUSH1 0x40 MLOAD SWAP1 DUP2 MSTORE RETURN JUMPDEST POP CALLVALUE PUSH2 0x2BD JUMPI PUSH1 0x20 CALLDATASIZE PUSH1 0x3 NOT ADD SLT PUSH2 0x2BD JUMPI PUSH1 0x4 CALLDATALOAD PUSH2 0x20D4 PUSH2 0x2E8D JUMP JUMPDEST PUSH1 0xFF PUSH1 0x6 SLOAD AND ISZERO PUSH2 0x7DD JUMPI PUSH32 0x0 PUSH1 0x2 DUP2 LT ISZERO PUSH2 0xD2A JUMPI PUSH1 0x1 SUB PUSH2 0x2193 JUMPI PUSH2 0x211B DUP2 ISZERO ISZERO PUSH2 0x2C6A JUMP JUMPDEST PUSH32 0x0 PUSH1 0x1 PUSH1 0x1 PUSH1 0xA0 SHL SUB AND SWAP1 PUSH2 0x2152 DUP2 ADDRESS CALLER DUP6 PUSH2 0x34CB JUMP JUMPDEST PUSH1 0x40 MLOAD SWAP1 DUP2 MSTORE PUSH32 0xB70CCB2B3A65BA201E6B7107278D5064431BC3ACF6E932D8F869A913A6797387 PUSH1 0x20 CALLER SWAP3 LOG3 PUSH1 0x1 PUSH1 0x0 DUP1 MLOAD PUSH1 0x20 PUSH2 0x3681 DUP4 CODECOPY DUP2 MLOAD SWAP2 MSTORE SSTORE DUP1 RETURN JUMPDEST PUSH1 0x40 MLOAD PUSH4 0x588DCCFD PUSH1 0xE0 SHL DUP2 MSTORE PUSH1 0x4 SWAP1 REVERT JUMPDEST POP CALLVALUE PUSH2 0x2BD JUMPI DUP1 PUSH1 0x3 NOT CALLDATASIZE ADD SLT PUSH2 0x2BD JUMPI PUSH1 0x20 PUSH1 0x40 MLOAD PUSH32 0x0 DUP2 MSTORE RETURN JUMPDEST POP CALLVALUE PUSH2 0x2BD JUMPI DUP1 PUSH1 0x3 NOT CALLDATASIZE ADD SLT PUSH2 0x2BD JUMPI PUSH2 0x21F9 PUSH2 0x2E8D JUMP JUMPDEST PUSH1 0x6 SLOAD PUSH1 0xFF DUP2 AND ISZERO PUSH2 0x7DD JUMPI PUSH32 0x0 PUSH1 0x2 DUP2 LT ISZERO PUSH2 0xD2A JUMPI PUSH1 0x1 SUB PUSH2 0xD18 JUMPI PUSH1 0xFF PUSH1 0x1 SWAP2 PUSH1 0x8 SHR AND PUSH2 0x2248 DUP2 PUSH2 0x2B50 JUMP JUMPDEST SUB PUSH2 0xD18 JUMPI PUSH2 0x2299 PUSH1 0x20 PUSH2 0x225A PUSH2 0x2A8A JUMP JUMPDEST PUSH1 0x9 SLOAD PUSH1 0x40 MLOAD PUSH4 0x53B59239 PUSH1 0xE0 SHL DUP2 MSTORE SWAP4 DUP5 SWAP3 DUP4 SWAP3 PUSH32 0x0 PUSH1 0x4 DUP6 ADD PUSH2 0x2C4B JUMP JUMPDEST SUB DUP2 DUP6 PUSH32 0x0 PUSH1 0x1 PUSH1 0x1 PUSH1 0xA0 SHL SUB AND GAS CALL DUP1 ISZERO PUSH2 0xAD2 JUMPI DUP3 SWAP1 PUSH2 0x22E8 JUMPI JUMPDEST PUSH2 0x18DA SWAP2 POP PUSH2 0x22E3 DUP2 PUSH2 0x3380 JUMP JUMPDEST PUSH2 0x30AB JUMP JUMPDEST POP PUSH1 0x20 DUP2 RETURNDATASIZE PUSH1 0x20 GT PUSH2 0x2314 JUMPI JUMPDEST DUP2 PUSH2 0x2302 PUSH1 0x20 SWAP4 DUP4 PUSH2 0x2927 JUMP JUMPDEST DUP2 ADD SUB SLT PUSH2 0x168B JUMPI PUSH2 0x18DA SWAP1 MLOAD PUSH2 0x22D5 JUMP JUMPDEST RETURNDATASIZE SWAP2 POP PUSH2 0x22F5 JUMP JUMPDEST POP CALLVALUE PUSH2 0x2BD JUMPI DUP1 PUSH1 0x3 NOT CALLDATASIZE ADD SLT PUSH2 0x2BD JUMPI PUSH1 0x40 MLOAD PUSH32 0x0 PUSH1 0x1 PUSH1 0x1 PUSH1 0xA0 SHL SUB AND DUP2 MSTORE PUSH1 0x20 SWAP1 RETURN JUMPDEST POP CALLVALUE PUSH2 0x2BD JUMPI DUP1 PUSH1 0x3 NOT CALLDATASIZE ADD SLT PUSH2 0x2BD JUMPI PUSH1 0x40 MLOAD PUSH32 0x0 PUSH1 0x1 PUSH1 0x1 PUSH1 0xA0 SHL SUB AND DUP2 MSTORE PUSH1 0x20 SWAP1 RETURN JUMPDEST POP CALLVALUE PUSH2 0x2BD JUMPI DUP1 PUSH1 0x3 NOT CALLDATASIZE ADD SLT PUSH2 0x2BD JUMPI PUSH1 0x20 PUSH1 0xFF PUSH1 0xE SLOAD PUSH1 0xA0 SHR AND PUSH1 0x40 MLOAD SWAP1 ISZERO ISZERO DUP2 MSTORE RETURN JUMPDEST POP CALLVALUE PUSH2 0x2BD JUMPI DUP1 PUSH1 0x3 NOT CALLDATASIZE ADD SLT PUSH2 0x2BD JUMPI PUSH1 0x40 MLOAD PUSH32 0x0 PUSH1 0x1 PUSH1 0x1 PUSH1 0xA0 SHL SUB AND DUP2 MSTORE PUSH1 0x20 SWAP1 RETURN JUMPDEST POP CALLVALUE PUSH2 0x2BD JUMPI DUP1 PUSH1 0x3 NOT CALLDATASIZE ADD SLT PUSH2 0x2BD JUMPI PUSH2 0x242A PUSH2 0x2E8D JUMP JUMPDEST PUSH1 0x6 SLOAD PUSH1 0xFF SWAP1 DUP2 DUP2 AND ISZERO PUSH2 0x7DD JUMPI PUSH32 0x0 PUSH1 0x2 DUP2 LT ISZERO PUSH2 0x26A6 JUMPI PUSH2 0xD18 JUMPI PUSH1 0x8 SHR DUP2 AND PUSH2 0x2474 DUP2 PUSH2 0x2B50 JUMP JUMPDEST PUSH2 0xD18 JUMPI PUSH32 0x0 TIMESTAMP LT PUSH2 0xD06 JUMPI PUSH1 0x40 MLOAD PUSH4 0x3FABE5A3 PUSH1 0xE2 SHL DUP2 MSTORE SWAP1 PUSH32 0x0 PUSH1 0x1 PUSH1 0x1 PUSH1 0xA0 SHL SUB AND PUSH1 0xA0 DUP4 PUSH1 0x4 DUP2 DUP5 GAS STATICCALL DUP1 ISZERO PUSH2 0xB4D JUMPI DUP5 SWAP4 DUP6 SWAP2 PUSH2 0x2652 JUMPI JUMPDEST POP DUP5 DUP5 SGT ISZERO PUSH2 0x2624 JUMPI PUSH2 0x2502 SWAP1 TIMESTAMP PUSH2 0x2BE4 JUMP JUMPDEST PUSH32 0x0 LT PUSH2 0x25F7 JUMPI PUSH1 0x20 PUSH1 0x4 SWAP2 PUSH1 0x40 MLOAD SWAP3 DUP4 DUP1 SWAP3 PUSH4 0x313CE567 PUSH1 0xE0 SHL DUP3 MSTORE GAS STATICCALL DUP1 ISZERO PUSH2 0xB4D JUMPI DUP3 SWAP2 DUP6 SWAP2 PUSH2 0x25B9 JUMPI JUMPDEST POP AND PUSH1 0x6 DUP2 LT PUSH2 0x2596 JUMPI PUSH1 0x5 NOT ADD SWAP1 DUP2 GT PUSH2 0x2582 JUMPI SWAP1 PUSH2 0x22E3 PUSH2 0x257D PUSH2 0x2577 PUSH2 0x18DA SWAP5 PUSH2 0x2C07 JUMP JUMPDEST DUP4 PUSH2 0x2C2B JUMP JUMPDEST PUSH2 0x2EBD JUMP JUMPDEST PUSH4 0x4E487B71 PUSH1 0xE0 SHL DUP4 MSTORE PUSH1 0x11 PUSH1 0x4 MSTORE PUSH1 0x24 DUP4 REVERT JUMPDEST PUSH1 0x6 SUB SWAP1 DUP2 GT PUSH2 0x2582 JUMPI SWAP1 PUSH2 0x22E3 PUSH2 0x257D PUSH2 0x25B3 PUSH2 0x18DA SWAP5 PUSH2 0x2C07 JUMP JUMPDEST DUP4 PUSH2 0x2C18 JUMP JUMPDEST SWAP2 POP POP PUSH1 0x20 DUP2 RETURNDATASIZE PUSH1 0x20 GT PUSH2 0x25EF JUMPI JUMPDEST DUP2 PUSH2 0x25D5 PUSH1 0x20 SWAP4 DUP4 PUSH2 0x2927 JUMP JUMPDEST DUP2 ADD SUB SLT PUSH2 0x1687 JUMPI MLOAD DUP2 DUP2 AND DUP2 SUB PUSH2 0x1687 JUMPI DUP2 SWAP1 CODESIZE PUSH2 0x254F JUMP JUMPDEST RETURNDATASIZE SWAP2 POP PUSH2 0x25C8 JUMP JUMPDEST PUSH1 0x40 MLOAD PUSH3 0x461BCD PUSH1 0xE5 SHL DUP2 MSTORE PUSH1 0x20 PUSH1 0x4 DUP3 ADD MSTORE PUSH1 0x5 PUSH1 0x24 DUP3 ADD MSTORE PUSH5 0x5374616C65 PUSH1 0xD8 SHL PUSH1 0x44 DUP3 ADD MSTORE PUSH1 0x64 SWAP1 REVERT JUMPDEST PUSH1 0x40 MLOAD PUSH3 0x461BCD PUSH1 0xE5 SHL DUP2 MSTORE PUSH1 0x20 PUSH1 0x4 DUP3 ADD MSTORE PUSH1 0x6 PUSH1 0x24 DUP3 ADD MSTORE PUSH6 0x20B739BBB2B9 PUSH1 0xD1 SHL PUSH1 0x44 DUP3 ADD MSTORE PUSH1 0x64 SWAP1 REVERT JUMPDEST SWAP4 POP POP PUSH1 0xA0 DUP4 RETURNDATASIZE PUSH1 0xA0 GT PUSH2 0x269E JUMPI JUMPDEST DUP2 PUSH2 0x266E PUSH1 0xA0 SWAP4 DUP4 PUSH2 0x2927 JUMP JUMPDEST DUP2 ADD SUB SLT PUSH2 0x1687 JUMPI PUSH2 0x267F DUP4 PUSH2 0x2BCD JUMP JUMPDEST POP PUSH1 0x20 DUP4 ADD MLOAD PUSH2 0x2696 PUSH1 0x80 PUSH1 0x60 DUP7 ADD MLOAD SWAP6 ADD PUSH2 0x2BCD JUMP JUMPDEST POP SWAP3 CODESIZE PUSH2 0x24EF JUMP JUMPDEST RETURNDATASIZE SWAP2 POP PUSH2 0x2661 JUMP JUMPDEST PUSH4 0x4E487B71 PUSH1 0xE0 SHL DUP5 MSTORE PUSH1 0x21 PUSH1 0x4 MSTORE PUSH1 0x24 DUP5 REVERT JUMPDEST POP CALLVALUE PUSH2 0x2BD JUMPI DUP1 PUSH1 0x3 NOT CALLDATASIZE ADD SLT PUSH2 0x2BD JUMPI PUSH1 0x20 PUSH1 0xFF PUSH1 0x6 SLOAD AND PUSH1 0x40 MLOAD SWAP1 ISZERO ISZERO DUP2 MSTORE RETURN JUMPDEST POP CALLVALUE PUSH2 0x2BD JUMPI DUP1 PUSH1 0x3 NOT CALLDATASIZE ADD SLT PUSH2 0x2BD JUMPI PUSH1 0x20 PUSH1 0x40 MLOAD PUSH1 0x32 DUP2 MSTORE RETURN JUMPDEST POP CALLVALUE PUSH2 0x2BD JUMPI PUSH1 0x20 CALLDATASIZE PUSH1 0x3 NOT ADD SLT PUSH2 0x2BD JUMPI PUSH1 0x4 CALLDATALOAD SWAP1 PUSH1 0x4 SLOAD DUP3 LT ISZERO PUSH2 0x2BD JUMPI PUSH1 0x20 PUSH2 0x35C DUP4 PUSH2 0x29D5 JUMP JUMPDEST POP CALLVALUE PUSH2 0x2BD JUMPI DUP1 PUSH1 0x3 NOT CALLDATASIZE ADD SLT PUSH2 0x2BD JUMPI PUSH1 0x40 MLOAD PUSH32 0x0 PUSH1 0x1 PUSH1 0x1 PUSH1 0xA0 SHL SUB AND DUP2 MSTORE PUSH1 0x20 SWAP1 RETURN JUMPDEST POP CALLVALUE PUSH2 0x2BD JUMPI PUSH1 0x20 CALLDATASIZE PUSH1 0x3 NOT ADD SLT PUSH2 0x2BD JUMPI PUSH1 0x4 CALLDATALOAD SWAP1 PUSH1 0x3 SLOAD DUP3 LT ISZERO PUSH2 0x2BD JUMPI PUSH1 0x20 PUSH2 0x2794 DUP4 PUSH2 0x2988 JUMP JUMPDEST SWAP1 SLOAD SWAP1 PUSH1 0x3 SHL SHR PUSH1 0x40 MLOAD SWAP1 DUP2 MSTORE RETURN JUMPDEST POP CALLVALUE PUSH2 0x2BD JUMPI DUP1 PUSH1 0x3 NOT CALLDATASIZE ADD SLT PUSH2 0x2BD JUMPI PUSH1 0x20 PUSH1 0x40 MLOAD PUSH2 0x12C DUP2 MSTORE RETURN JUMPDEST POP CALLVALUE PUSH2 0x2BD JUMPI DUP1 PUSH1 0x3 NOT CALLDATASIZE ADD SLT PUSH2 0x2BD JUMPI PUSH1 0x20 PUSH1 0x40 MLOAD PUSH32 0x0 DUP2 MSTORE RETURN JUMPDEST DUP3 CALLVALUE PUSH2 0x2BD JUMPI DUP1 PUSH1 0x3 NOT CALLDATASIZE ADD SLT PUSH2 0x2BD JUMPI PUSH1 0x7 SLOAD DUP3 DUP3 PUSH2 0x281A DUP4 PUSH2 0x28DA JUMP JUMPDEST SWAP3 DUP4 DUP4 MSTORE PUSH1 0x20 SWAP5 PUSH1 0x1 SWAP2 DUP7 PUSH1 0x1 DUP3 AND SWAP2 DUP3 PUSH1 0x0 EQ PUSH2 0x28B8 JUMPI POP POP PUSH1 0x1 EQ PUSH2 0x285E JUMPI JUMPDEST POP POP PUSH2 0x284A SWAP3 POP SUB DUP4 PUSH2 0x2927 JUMP JUMPDEST PUSH2 0x1CE3 PUSH1 0x40 MLOAD SWAP3 DUP3 DUP5 SWAP4 DUP5 MSTORE DUP4 ADD SWAP1 PUSH2 0x2948 JUMP JUMPDEST SWAP1 DUP6 SWAP3 POP PUSH1 0x7 DUP3 MSTORE PUSH32 0xA66CC928B5EDB82AF9BD49922954155AB7B0942694BEA4CE44661D9A8736C688 JUMPDEST DUP6 DUP4 LT PUSH2 0x28A0 JUMPI POP POP PUSH2 0x284A SWAP4 POP DUP3 ADD ADD DUP6 DUP1 PUSH2 0x283C JUMP JUMPDEST DUP1 SLOAD DUP4 DUP10 ADD DUP6 ADD MSTORE DUP8 SWAP5 POP DUP7 SWAP4 SWAP1 SWAP3 ADD SWAP2 DUP2 ADD PUSH2 0x2888 JUMP JUMPDEST SWAP3 POP SWAP4 POP POP PUSH2 0x284A SWAP5 SWAP2 POP PUSH1 0xFF NOT AND DUP3 DUP5 ADD MSTORE ISZERO ISZERO PUSH1 0x5 SHL DUP3 ADD ADD DUP6 DUP1 PUSH2 0x283C JUMP JUMPDEST SWAP1 PUSH1 0x1 DUP3 DUP2 SHR SWAP3 AND DUP1 ISZERO PUSH2 0x290A JUMPI JUMPDEST PUSH1 0x20 DUP4 LT EQ PUSH2 0x28F4 JUMPI JUMP JUMPDEST PUSH4 0x4E487B71 PUSH1 0xE0 SHL PUSH1 0x0 MSTORE PUSH1 0x22 PUSH1 0x4 MSTORE PUSH1 0x24 PUSH1 0x0 REVERT JUMPDEST SWAP2 PUSH1 0x7F AND SWAP2 PUSH2 0x28E9 JUMP JUMPDEST PUSH1 0x1 PUSH1 0x1 PUSH1 0x40 SHL SUB DUP2 GT PUSH2 0x1496 JUMPI PUSH1 0x40 MSTORE JUMP JUMPDEST SWAP1 PUSH1 0x1F DUP1 NOT SWAP2 ADD AND DUP2 ADD SWAP1 DUP2 LT PUSH1 0x1 PUSH1 0x1 PUSH1 0x40 SHL SUB DUP3 GT OR PUSH2 0x1496 JUMPI PUSH1 0x40 MSTORE JUMP JUMPDEST SWAP2 SWAP1 DUP3 MLOAD SWAP3 DUP4 DUP3 MSTORE PUSH1 0x0 JUMPDEST DUP5 DUP2 LT PUSH2 0x2974 JUMPI POP POP DUP3 PUSH1 0x0 PUSH1 0x20 DUP1 SWAP5 SWAP6 DUP5 ADD ADD MSTORE PUSH1 0x1F DUP1 NOT SWAP2 ADD AND ADD ADD SWAP1 JUMP JUMPDEST PUSH1 0x20 DUP2 DUP4 ADD DUP2 ADD MLOAD DUP5 DUP4 ADD DUP3 ADD MSTORE ADD PUSH2 0x2953 JUMP JUMPDEST PUSH1 0x3 SLOAD DUP2 LT ISZERO PUSH2 0x29BF JUMPI PUSH1 0x3 PUSH1 0x0 MSTORE PUSH32 0xC2575A0E9E593C00F959F8C92F12DB2869C3395A3B0502D05E2516446F71F85B ADD SWAP1 PUSH1 0x0 SWAP1 JUMP JUMPDEST PUSH4 0x4E487B71 PUSH1 0xE0 SHL PUSH1 0x0 MSTORE PUSH1 0x32 PUSH1 0x4 MSTORE PUSH1 0x24 PUSH1 0x0 REVERT JUMPDEST PUSH1 0x4 SLOAD DUP2 LT ISZERO PUSH2 0x29BF JUMPI PUSH1 0x4 PUSH1 0x0 MSTORE PUSH32 0x8A35ACFBC15FF81A39AE7D344FD709F28E8600B4AA8C65C6B64BFE7FE36BD19B ADD SWAP1 PUSH1 0x0 SWAP1 JUMP JUMPDEST PUSH1 0x2 SLOAD DUP2 LT ISZERO PUSH2 0x29BF JUMPI PUSH1 0x2 PUSH1 0x0 MSTORE PUSH32 0x405787FA12A823E0F2B7631CC41B3BA8828B3321CA811111FA75CD3AA3BB5ACE ADD SWAP1 PUSH1 0x0 SWAP1 JUMP JUMPDEST PUSH1 0x5 SLOAD DUP2 LT ISZERO PUSH2 0x29BF JUMPI PUSH1 0x5 PUSH1 0x0 MSTORE PUSH32 0x36B6384B5ECA791C62761152D0C79BB0604C104A5FB6F4EB0703F3154BB3DB0 ADD SWAP1 PUSH1 0x0 SWAP1 JUMP JUMPDEST PUSH1 0x4 CALLDATALOAD SWAP1 PUSH1 0xFF DUP3 AND DUP3 SUB PUSH2 0x32C JUMPI JUMP JUMPDEST PUSH1 0x40 MLOAD SWAP1 PUSH1 0x0 DUP3 PUSH1 0x8 SLOAD SWAP2 PUSH2 0x2A9E DUP4 PUSH2 0x28DA JUMP JUMPDEST DUP1 DUP4 MSTORE SWAP3 PUSH1 0x20 SWAP1 PUSH1 0x1 SWAP1 DUP2 DUP2 AND SWAP1 DUP2 ISZERO PUSH2 0x2B2C JUMPI POP PUSH1 0x1 EQ PUSH2 0x2ACB JUMPI JUMPDEST POP POP PUSH2 0x2AC9 SWAP3 POP SUB DUP4 PUSH2 0x2927 JUMP JUMPDEST JUMP JUMPDEST SWAP2 POP SWAP3 PUSH1 0x8 PUSH1 0x0 MSTORE PUSH32 0xF3F7A9FE364FAAB93B216DA50A3214154F22A0A2B415B23A84C8169E8B636EE3 SWAP4 PUSH1 0x0 SWAP3 JUMPDEST DUP3 DUP5 LT PUSH2 0x2B14 JUMPI POP PUSH2 0x2AC9 SWAP5 POP POP POP DUP2 ADD PUSH1 0x20 ADD CODESIZE DUP1 PUSH2 0x2ABB JUMP JUMPDEST DUP6 SLOAD DUP9 DUP6 ADD DUP4 ADD MSTORE SWAP5 DUP6 ADD SWAP5 DUP8 SWAP5 POP SWAP3 DUP2 ADD SWAP3 PUSH2 0x2AF9 JUMP JUMPDEST SWAP2 POP POP PUSH1 0x20 SWAP3 POP PUSH2 0x2AC9 SWAP5 SWAP2 POP PUSH1 0xFF NOT AND DUP3 DUP5 ADD MSTORE ISZERO ISZERO PUSH1 0x5 SHL DUP3 ADD ADD CODESIZE DUP1 PUSH2 0x2ABB JUMP JUMPDEST PUSH1 0x3 GT ISZERO PUSH2 0x2B5A JUMPI JUMP JUMPDEST PUSH4 0x4E487B71 PUSH1 0xE0 SHL PUSH1 0x0 MSTORE PUSH1 0x21 PUSH1 0x4 MSTORE PUSH1 0x24 PUSH1 0x0 REVERT JUMPDEST SWAP2 DUP2 PUSH1 0x1F DUP5 ADD SLT ISZERO PUSH2 0x32C JUMPI DUP3 CALLDATALOAD SWAP2 PUSH1 0x1 PUSH1 0x1 PUSH1 0x40 SHL SUB DUP4 GT PUSH2 0x32C JUMPI PUSH1 0x20 DUP1 DUP6 ADD SWAP5 DUP5 PUSH1 0x5 SHL ADD ADD GT PUSH2 0x32C JUMPI JUMP JUMPDEST SWAP2 DUP2 PUSH1 0x1F DUP5 ADD SLT ISZERO PUSH2 0x32C JUMPI DUP3 CALLDATALOAD SWAP2 PUSH1 0x1 PUSH1 0x1 PUSH1 0x40 SHL SUB DUP4 GT PUSH2 0x32C JUMPI PUSH1 0x20 DUP4 DUP2 DUP7 ADD SWAP6 ADD ADD GT PUSH2 0x32C JUMPI JUMP JUMPDEST MLOAD SWAP1 PUSH10 0xFFFFFFFFFFFFFFFFFFFF DUP3 AND DUP3 SUB PUSH2 0x32C JUMPI JUMP JUMPDEST SWAP2 SWAP1 DUP3 SUB SWAP2 DUP3 GT PUSH2 0x2BF1 JUMPI JUMP JUMPDEST PUSH4 0x4E487B71 PUSH1 0xE0 SHL PUSH1 0x0 MSTORE PUSH1 0x11 PUSH1 0x4 MSTORE PUSH1 0x24 PUSH1 0x0 REVERT JUMPDEST PUSH1 0xFF AND PUSH1 0x4D DUP2 GT PUSH2 0x2BF1 JUMPI PUSH1 0xA EXP SWAP1 JUMP JUMPDEST DUP2 DUP2 MUL SWAP3 SWAP2 DUP2 ISZERO SWAP2 DUP5 DIV EQ OR ISZERO PUSH2 0x2BF1 JUMPI JUMP JUMPDEST DUP2 ISZERO PUSH2 0x2C35 JUMPI DIV SWAP1 JUMP JUMPDEST PUSH4 0x4E487B71 PUSH1 0xE0 SHL PUSH1 0x0 MSTORE PUSH1 0x12 PUSH1 0x4 MSTORE PUSH1 0x24 PUSH1 0x0 REVERT JUMPDEST PUSH2 0x2C67 SWAP4 SWAP3 PUSH1 0x60 SWAP3 DUP3 MSTORE PUSH1 0x20 DUP3 ADD MSTORE DUP2 PUSH1 0x40 DUP3 ADD MSTORE ADD SWAP1 PUSH2 0x2948 JUMP JUMPDEST SWAP1 JUMP JUMPDEST ISZERO PUSH2 0x2C71 JUMPI JUMP JUMPDEST PUSH1 0x40 MLOAD PUSH3 0x461BCD PUSH1 0xE5 SHL DUP2 MSTORE PUSH1 0x20 PUSH1 0x4 DUP3 ADD MSTORE PUSH1 0x6 PUSH1 0x24 DUP3 ADD MSTORE PUSH6 0x105B5BDD5B9D PUSH1 0xD2 SHL PUSH1 0x44 DUP3 ADD MSTORE PUSH1 0x64 SWAP1 REVERT JUMPDEST ISZERO PUSH2 0x2CA6 JUMPI JUMP JUMPDEST PUSH1 0x40 MLOAD PUSH3 0x461BCD PUSH1 0xE5 SHL DUP2 MSTORE PUSH1 0x20 PUSH1 0x4 DUP3 ADD MSTORE PUSH1 0x5 PUSH1 0x24 DUP3 ADD MSTORE PUSH5 0x5072696365 PUSH1 0xD8 SHL PUSH1 0x44 DUP3 ADD MSTORE PUSH1 0x64 SWAP1 REVERT JUMPDEST SWAP2 SWAP1 DUP3 ADD DUP1 SWAP3 GT PUSH2 0x2BF1 JUMPI JUMP JUMPDEST PUSH1 0xFF PUSH1 0x6 SLOAD AND ISZERO PUSH2 0x7DD JUMPI PUSH1 0xFF PUSH32 0x0 AND SWAP1 DUP2 PUSH1 0xFF DUP3 AND LT ISZERO PUSH2 0x1943 JUMPI PUSH1 0x0 SWAP2 PUSH1 0x0 PUSH32 0x0 SWAP2 JUMPDEST DUP1 DUP3 LT PUSH2 0x2DBD JUMPI POP POP DUP3 ISZERO PUSH2 0x2D8F JUMPI PUSH2 0x2D5E PUSH2 0x2D6B SWAP3 PUSH2 0x2988 JUMP JUMPDEST SWAP1 SLOAD SWAP1 PUSH1 0x3 SHL SHR SWAP1 PUSH2 0x2CD3 JUMP JUMPDEST SWAP1 PUSH8 0xDE0B6B3A7640000 SWAP2 DUP3 DUP2 MUL SWAP3 DUP2 DUP5 DIV EQ SWAP1 ISZERO OR ISZERO PUSH2 0x2BF1 JUMPI PUSH2 0x2C67 SWAP2 PUSH2 0x2C2B JUMP JUMPDEST PUSH1 0x40 MLOAD PUSH3 0x461BCD PUSH1 0xE5 SHL DUP2 MSTORE PUSH1 0x20 PUSH1 0x4 DUP3 ADD MSTORE PUSH1 0x6 PUSH1 0x24 DUP3 ADD MSTORE PUSH6 0x15D95A59DA1D PUSH1 0xD2 SHL PUSH1 0x44 DUP3 ADD MSTORE PUSH1 0x64 SWAP1 REVERT JUMPDEST SWAP1 SWAP4 PUSH2 0x2DE4 PUSH1 0x1 SWAP2 PUSH2 0x2DDE PUSH2 0x2DD1 DUP9 PUSH2 0x2988 JUMP JUMPDEST SWAP1 SLOAD SWAP1 PUSH1 0x3 SHL SHR DUP7 PUSH2 0x2CD3 JUMP JUMPDEST SWAP1 PUSH2 0x2CD3 JUMP JUMPDEST SWAP5 ADD SWAP1 PUSH2 0x2D43 JUMP JUMPDEST SWAP2 SWAP1 DUP2 LT ISZERO PUSH2 0x29BF JUMPI PUSH1 0x5 SHL ADD SWAP1 JUMP JUMPDEST ISZERO PUSH2 0x2E03 JUMPI JUMP JUMPDEST PUSH1 0x64 PUSH1 0x40 MLOAD PUSH3 0x461BCD PUSH1 0xE5 SHL DUP2 MSTORE PUSH1 0x20 PUSH1 0x4 DUP3 ADD MSTORE PUSH1 0x4 PUSH1 0x24 DUP3 ADD MSTORE PUSH4 0x42696E73 PUSH1 0xE0 SHL PUSH1 0x44 DUP3 ADD MSTORE REVERT JUMPDEST DUP2 DUP2 LT PUSH2 0x2E39 JUMPI POP POP JUMP JUMPDEST PUSH1 0x0 DUP2 SSTORE PUSH1 0x1 ADD PUSH2 0x2E2E JUMP JUMPDEST SWAP1 DUP1 PUSH1 0x20 SWAP4 SWAP3 DUP2 DUP5 MSTORE DUP5 DUP5 ADD CALLDATACOPY PUSH1 0x0 DUP3 DUP3 ADD DUP5 ADD MSTORE PUSH1 0x1F ADD PUSH1 0x1F NOT AND ADD ADD SWAP1 JUMP JUMPDEST SWAP5 SWAP4 SWAP3 PUSH1 0x60 SWAP3 PUSH2 0x2E88 SWAP3 DUP8 MSTORE PUSH1 0x20 DUP8 ADD MSTORE PUSH1 0x80 PUSH1 0x40 DUP8 ADD MSTORE PUSH1 0x80 DUP7 ADD SWAP1 PUSH2 0x2948 JUMP JUMPDEST SWAP4 ADD MSTORE JUMP JUMPDEST PUSH1 0x0 DUP1 MLOAD PUSH1 0x20 PUSH2 0x3681 DUP4 CODECOPY DUP2 MLOAD SWAP2 MSTORE PUSH1 0x2 DUP2 SLOAD EQ PUSH2 0x2EAB JUMPI PUSH1 0x2 SWAP1 SSTORE JUMP JUMPDEST PUSH1 0x40 MLOAD PUSH4 0x3EE5AEB5 PUSH1 0xE0 SHL DUP2 MSTORE PUSH1 0x4 SWAP1 REVERT JUMPDEST PUSH1 0x4 DUP1 SLOAD SWAP1 PUSH1 0xFF PUSH32 0x0 AND DUP1 SWAP3 EQ PUSH2 0x2FF2 JUMPI POP PUSH1 0x2 PUSH2 0x2EFA SWAP2 EQ PUSH2 0x2DFC JUMP JUMPDEST PUSH32 0x0 PUSH2 0x2F24 DUP2 PUSH2 0x2B50 JUMP JUMPDEST DUP1 PUSH2 0x2F5D JUMPI POP PUSH32 0x0 GT ISZERO JUMPDEST ISZERO PUSH2 0x2F58 JUMPI PUSH1 0x0 SWAP1 JUMP JUMPDEST PUSH1 0x1 SWAP1 JUMP JUMPDEST DUP1 PUSH2 0x2F69 PUSH1 0x1 SWAP3 PUSH2 0x2B50 JUMP JUMPDEST SUB PUSH2 0x2F96 JUMPI PUSH32 0x0 LT ISZERO PUSH2 0x2F4E JUMP JUMPDEST PUSH32 0x0 DUP2 LT ISZERO SWAP1 DUP2 PUSH2 0x2FC7 JUMPI JUMPDEST POP PUSH2 0x2F4E JUMP JUMPDEST SWAP1 POP PUSH32 0x0 LT ISZERO CODESIZE PUSH2 0x2FC1 JUMP JUMPDEST SWAP1 PUSH1 0x0 SWAP2 DUP3 SWAP4 DUP4 JUMPDEST DUP4 DUP2 LT PUSH2 0x303E JUMPI POP POP POP POP PUSH1 0x1 SUB PUSH2 0x300F JUMPI SWAP1 JUMP JUMPDEST PUSH1 0x40 MLOAD PUSH3 0x461BCD PUSH1 0xE5 SHL DUP2 MSTORE PUSH1 0x20 PUSH1 0x4 DUP3 ADD MSTORE PUSH1 0x7 PUSH1 0x24 DUP3 ADD MSTORE PUSH7 0x27B732903134B7 PUSH1 0xC9 SHL PUSH1 0x44 DUP3 ADD MSTORE PUSH1 0x64 SWAP1 REVERT JUMPDEST PUSH2 0x3047 DUP2 PUSH2 0x29D5 JUMP JUMPDEST SWAP1 SLOAD PUSH1 0x3 SWAP2 DUP3 SHL SHR DUP4 LT ISZERO SWAP1 DUP2 PUSH2 0x3092 JUMPI JUMPDEST POP PUSH2 0x3067 JUMPI JUMPDEST PUSH1 0x1 ADD PUSH2 0x2FFA JUMP JUMPDEST SWAP5 POP SWAP3 PUSH1 0x0 NOT DUP2 EQ PUSH2 0x307D JUMPI PUSH1 0x1 ADD SWAP3 DUP5 PUSH2 0x305F JUMP JUMPDEST PUSH1 0x11 DUP3 PUSH4 0x4E487B71 PUSH1 0xE0 SHL PUSH1 0x0 MSTORE MSTORE PUSH1 0x24 PUSH1 0x0 REVERT JUMPDEST SWAP1 POP PUSH2 0x309D DUP3 PUSH2 0x2A43 JUMP JUMPDEST SWAP1 SLOAD SWAP2 SHL SHR DUP3 GT ISZERO CODESIZE PUSH2 0x3059 JUMP JUMPDEST PUSH1 0x0 SWAP1 PUSH32 0x0 PUSH1 0xFF AND DUP3 JUMPDEST DUP2 DUP2 LT PUSH2 0x3358 JUMPI POP POP PUSH2 0x12C SWAP2 DUP3 DUP2 MUL SWAP1 DUP1 ISZERO SWAP4 DUP2 DUP4 DIV EQ DUP5 OR ISZERO PUSH2 0x2BF1 JUMPI PUSH2 0x2710 DUP1 SWAP3 DIV SWAP4 PUSH1 0x32 DUP3 MUL SWAP1 DUP3 DUP3 DIV PUSH1 0x32 EQ OR ISZERO PUSH2 0x2BF1 JUMPI PUSH1 0x4 SWAP3 PUSH1 0x20 SWAP2 DIV PUSH2 0x3126 DUP7 PUSH2 0x3120 DUP4 DUP3 PUSH2 0x2BE4 JUMP JUMPDEST SWAP5 PUSH2 0x2BE4 JUMP JUMPDEST SWAP3 PUSH2 0x3130 DUP7 PUSH2 0x2A0C JUMP JUMPDEST SWAP1 SLOAD PUSH1 0x40 MLOAD PUSH4 0x18160DDD PUSH1 0xE0 SHL DUP2 MSTORE SWAP7 PUSH1 0x1 PUSH1 0x1 PUSH1 0xA0 SHL SUB SWAP6 SWAP3 DUP9 SWAP3 DUP4 SWAP2 PUSH1 0x3 SHL SHR DUP8 AND GAS STATICCALL SWAP5 DUP6 ISZERO PUSH2 0x334C JUMPI PUSH1 0x0 SWAP6 PUSH2 0x3318 JUMPI JUMPDEST POP PUSH2 0x316F DUP7 PUSH2 0x2988 JUMP JUMPDEST SWAP1 SLOAD SWAP1 PUSH1 0x3 SHL SHR SWAP3 DUP8 PUSH2 0x328C JUMPI JUMPDEST POP POP DUP4 ISZERO SWAP1 POP PUSH2 0x321A JUMPI DUP2 PUSH2 0x3191 SWAP2 PUSH2 0x2CD3 JUMP JUMPDEST SWAP5 PUSH8 0xDE0B6B3A7640000 SWAP6 DUP7 DUP2 MUL SWAP7 DUP2 DUP9 DIV EQ SWAP1 ISZERO OR ISZERO PUSH2 0x2BF1 JUMPI PUSH2 0x31DA PUSH2 0x3215 SWAP4 PUSH32 0x1156C82479E3534DDD36CA57CD84557FD8B25737545B9B3572C4F2878613AF54 SWAP8 PUSH2 0x2C2B JUMP JUMPDEST PUSH1 0xB SSTORE JUMPDEST DUP4 PUSH1 0xA SSTORE PUSH1 0xC SSTORE TIMESTAMP PUSH1 0xD SSTORE PUSH2 0x200 PUSH2 0xFF00 NOT PUSH1 0x6 SLOAD AND OR PUSH1 0x6 SSTORE PUSH1 0x40 MLOAD SWAP4 DUP5 SWAP4 DUP5 PUSH1 0x40 SWAP2 SWAP5 SWAP4 SWAP3 PUSH1 0x60 DUP3 ADD SWAP6 DUP3 MSTORE PUSH1 0x20 DUP3 ADD MSTORE ADD MSTORE JUMP JUMPDEST SUB SWAP1 LOG1 JUMP JUMPDEST PUSH2 0x3215 SWAP3 POP SWAP5 PUSH2 0x3250 DUP3 PUSH32 0x1156C82479E3534DDD36CA57CD84557FD8B25737545B9B3572C4F2878613AF54 SWAP8 PUSH1 0x0 PUSH1 0xB SSTORE PUSH2 0x2CD3 JUMP JUMPDEST DUP1 PUSH2 0x325C JUMPI JUMPDEST POP PUSH2 0x31DE JUMP JUMPDEST PUSH2 0x3286 SWAP1 PUSH32 0x0 PUSH2 0x356C JUMP JUMPDEST CODESIZE PUSH2 0x3256 JUMP JUMPDEST DUP1 PUSH1 0xE SLOAD AND ISZERO ISZERO DUP1 PUSH2 0x330F JUMPI JUMPDEST ISZERO PUSH2 0x32DD JUMPI PUSH2 0x32D5 SWAP3 PUSH2 0x32AF SWAP2 PUSH1 0xE SLOAD AND PUSH2 0x356C JUMP JUMPDEST PUSH32 0x0 PUSH2 0x356C JUMP JUMPDEST CODESIZE DUP1 DUP1 PUSH2 0x317D JUMP JUMPDEST POP POP POP PUSH2 0x330A DUP6 PUSH32 0x0 PUSH2 0x356C JUMP JUMPDEST PUSH2 0x32D5 JUMP JUMPDEST POP DUP3 ISZERO ISZERO PUSH2 0x3299 JUMP JUMPDEST SWAP1 SWAP5 POP PUSH1 0x20 DUP2 RETURNDATASIZE PUSH1 0x20 GT PUSH2 0x3344 JUMPI JUMPDEST DUP2 PUSH2 0x3334 PUSH1 0x20 SWAP4 DUP4 PUSH2 0x2927 JUMP JUMPDEST DUP2 ADD SUB SLT PUSH2 0x32C JUMPI MLOAD SWAP4 CODESIZE PUSH2 0x3165 JUMP JUMPDEST RETURNDATASIZE SWAP2 POP PUSH2 0x3327 JUMP JUMPDEST PUSH1 0x40 MLOAD RETURNDATASIZE PUSH1 0x0 DUP3 RETURNDATACOPY RETURNDATASIZE SWAP1 REVERT JUMPDEST DUP3 DUP2 SUB PUSH2 0x3368 JUMPI JUMPDEST PUSH1 0x1 ADD PUSH2 0x30D4 JUMP JUMPDEST SWAP3 PUSH2 0x3378 PUSH1 0x1 SWAP2 PUSH2 0x2D5E DUP7 PUSH2 0x2988 JUMP JUMPDEST SWAP4 SWAP1 POP PUSH2 0x3360 JUMP JUMPDEST PUSH1 0x1 PUSH1 0xFF SHL DUP2 EQ DUP1 ISZERO PUSH2 0x34BB JUMPI JUMPDEST PUSH2 0x343D JUMPI PUSH32 0x0 PUSH21 0x4D554C5449504C455F43484F4943455F5155455259 PUSH1 0x58 SHL DUP2 EQ PUSH2 0x3484 JUMPI PUSH15 0x5945535F4F525F4E4F5F5155455259 PUSH1 0x88 SHL EQ PUSH2 0x3471 JUMPI PUSH1 0xFF PUSH32 0x0 AND SWAP1 PUSH1 0x2 DUP3 EQ PUSH2 0x3457 JUMPI PUSH1 0x0 DUP2 SLT PUSH2 0x343D JUMPI PUSH8 0xDE0B6B3A7640000 SWAP1 DUP2 DUP2 LT PUSH2 0x344F JUMPI DIV SWAP1 JUMPDEST DUP2 LT ISZERO PUSH2 0x343D JUMPI SWAP1 JUMP JUMPDEST PUSH1 0x40 MLOAD PUSH4 0x437D7AD7 PUSH1 0xE1 SHL DUP2 MSTORE PUSH1 0x4 SWAP1 REVERT JUMPDEST SWAP1 POP SWAP1 PUSH2 0x3433 JUMP JUMPDEST PUSH8 0xDE0B6B3A7640000 SWAP2 POP EQ PUSH2 0x346C JUMPI PUSH1 0x1 SWAP1 JUMP JUMPDEST PUSH1 0x0 SWAP1 JUMP JUMPDEST PUSH8 0xDE0B6B3A7640000 EQ PUSH2 0x346C JUMPI PUSH1 0x1 SWAP1 JUMP JUMPDEST POP PUSH1 0x0 DUP2 SLT PUSH2 0x343D JUMPI PUSH1 0xFF PUSH32 0x0 AND DUP2 LT ISZERO PUSH2 0x343D JUMPI SWAP1 JUMP JUMPDEST POP PUSH1 0x1 PUSH1 0x1 PUSH1 0xFF SHL SUB DUP2 EQ PUSH2 0x338E JUMP JUMPDEST PUSH1 0x40 MLOAD PUSH4 0x23B872DD PUSH1 0xE0 SHL PUSH1 0x0 SWAP1 DUP2 MSTORE PUSH1 0x1 PUSH1 0x1 PUSH1 0xA0 SHL SUB SWAP4 DUP5 AND PUSH1 0x4 MSTORE SWAP4 DUP4 AND PUSH1 0x24 MSTORE PUSH1 0x44 SWAP5 SWAP1 SWAP5 MSTORE SWAP1 SWAP2 PUSH1 0x20 SWAP1 PUSH1 0x64 DUP2 DUP1 DUP6 GAS CALL PUSH1 0x1 PUSH1 0x0 MLOAD EQ DUP2 AND ISZERO PUSH2 0x3538 JUMPI JUMPDEST DUP4 PUSH1 0x40 MSTORE PUSH1 0x0 PUSH1 0x60 MSTORE ISZERO PUSH2 0x3522 JUMPI POP POP POP JUMP JUMPDEST PUSH4 0x5274AFE7 PUSH1 0xE0 SHL DUP4 MSTORE AND PUSH1 0x4 DUP3 ADD MSTORE PUSH1 0x24 SWAP2 POP REVERT JUMPDEST PUSH1 0x1 DUP2 ISZERO AND PUSH2 0x354E JUMPI DUP2 EXTCODESIZE ISZERO ISZERO RETURNDATASIZE ISZERO AND AND PUSH2 0x350F JUMP JUMPDEST DUP4 RETURNDATASIZE PUSH1 0x0 DUP3 RETURNDATACOPY RETURNDATASIZE SWAP1 REVERT JUMPDEST PUSH1 0x0 SLOAD PUSH1 0x1 PUSH1 0x1 PUSH1 0xA0 SHL SUB AND CALLER SUB PUSH2 0x1C60 JUMPI JUMP JUMPDEST SWAP1 PUSH1 0x1 PUSH1 0x1 PUSH1 0xA0 SHL SUB PUSH32 0x0 DUP2 AND DUP1 PUSH2 0x35A8 JUMPI POP PUSH2 0x2AC9 SWAP3 AND PUSH2 0x35FD JUMP JUMPDEST SWAP2 SWAP1 PUSH1 0x20 SWAP2 PUSH1 0x0 SWAP2 PUSH1 0x40 MLOAD SWAP6 PUSH4 0xA9059CBB PUSH1 0xE0 SHL DUP5 MSTORE AND PUSH1 0x4 MSTORE PUSH1 0x24 MSTORE PUSH1 0x44 DUP2 DUP1 DUP6 GAS CALL PUSH1 0x1 PUSH1 0x0 MLOAD EQ DUP2 AND ISZERO PUSH2 0x35E7 JUMPI JUMPDEST DUP3 PUSH1 0x40 MSTORE ISZERO PUSH2 0xC90 JUMPI POP POP JUMP JUMPDEST PUSH1 0x1 DUP2 ISZERO AND PUSH2 0xCBA JUMPI DUP2 EXTCODESIZE ISZERO ISZERO RETURNDATASIZE ISZERO AND AND PUSH2 0x35DA JUMP JUMPDEST DUP2 SELFBALANCE LT PUSH2 0x3661 JUMPI PUSH1 0x40 MLOAD PUSH1 0x20 DUP2 ADD DUP2 DUP2 LT PUSH1 0x1 PUSH1 0x1 PUSH1 0x40 SHL SUB DUP3 GT OR PUSH2 0x1496 JUMPI PUSH1 0x40 MSTORE PUSH1 0x0 DUP1 DUP1 SWAP5 DUP2 SWAP5 DUP3 DUP1 SWAP6 MSTORE PUSH1 0x1 DUP1 PUSH1 0xA0 SHL SUB AND GAS CALL ISZERO PUSH2 0x363D JUMPI POP JUMP JUMPDEST RETURNDATASIZE ISZERO PUSH2 0x364F JUMPI PUSH1 0x40 MLOAD SWAP1 RETURNDATASIZE SWAP1 DUP3 RETURNDATACOPY RETURNDATASIZE SWAP1 REVERT JUMPDEST PUSH1 0x40 MLOAD PUSH4 0xD6BDA275 PUSH1 0xE0 SHL DUP2 MSTORE PUSH1 0x4 SWAP1 REVERT JUMPDEST PUSH1 0x40 MLOAD PUSH4 0xCF479181 PUSH1 0xE0 SHL DUP2 MSTORE SELFBALANCE PUSH1 0x4 DUP3 ADD MSTORE PUSH1 0x24 DUP2 ADD DUP4 SWAP1 MSTORE PUSH1 0x44 SWAP1 REVERT INVALID SWAP12 PUSH24 0x9B17422D0DF92223018B32B4D1FA46E071723D6817E2486D STOP EXTCODESIZE 0xEC 0xC5 PUSH0 STOP LOG2 PUSH5 0x6970667358 0x22 SLT KECCAK256 0x22 ADDRESS CODECOPY INVALID PUSH28 0x6C479AB645221800AA0439DF7DC9B5A1C5CEC732BC0E737954AF8564 PUSH20 0x6F6C634300081800330000000000000000000000 "},"methodIdentifiers":{"BOOTSTRAP_FEE_BPS()":"1448d312","BPS_DENOMINATOR()":"e1a45218","LOSER_FEE_TOTAL_BPS()":"08460328","UMA_BINARY_WIN_OUTCOME0()":"a2ffbe8e","acceptOwnership()":"79ba5097","bootstrapFunder()":"9228c39b","bootstrapLiquidity(uint256,address)":"f0d677d7","bootstrapped()":"35142c8c","chainlinkFeed()":"7dbdf1f5","collateralAddress()":"48d399e7","collateralDecimals()":"ec9c6c30","deposit(uint8,uint256,address,uint256)":"698b0676","factory()":"c45a0155","feeRecipient()":"46904840","fundUmaBond(uint256)":"4f12a39f","initialize(address[],uint256[],uint256[],string,bytes)":"cc3e02ff","initialized()":"158ef93e","marketKind()":"8e8daa7c","maxPriceStaleness()":"c80d36b8","metadataHash()":"c5a1d7f0","metadataURI()":"03ee438c","minBootstrapTotal()":"ff3bb37e","numOutcomes()":"8767d64e","optimisticOracleV2()":"0d2af8d3","outcomeToken(uint256)":"55c1abe9","owner()":"8da5cb5b","pendingOwner()":"e30c3978","priceBinLower(uint256)":"116a343a","priceBinUpper(uint256)":"f11d7bdf","priceOf(uint8)":"912397c3","priceThreshold()":"cc2f6093","priceThresholdKind()":"d7f59f5b","priceUpperBound()":"b9728219","realPool(uint256)":"0c7bd33b","redeem(uint8,uint256)":"bb482f96","redemptionRate()":"540385a3","renounceOwnership()":"715018a6","requestEventResolution()":"ee879258","resolveAfterTimestamp()":"06fdccc7","settlePrice()":"2567d7d6","settleWithUmaResult()":"493dcae1","settledOraclePrice()":"e3eecc6f","settlementTimestamp()":"8192a437","stakeEndTimestamp()":"4b841d24","state()":"c19d93fb","transferOwnership(address)":"f2fde38b","umaAncillaryData()":"7375b168","umaIdentifier()":"a5dc90f2","umaLiveness()":"8d56aa3e","umaProposerBond()":"769dbd6e","umaRequestTimestamp()":"ca455047","umaReward()":"67bd151e","umaRewardCurrency()":"2c4c5e50","virtualReserve()":"80c08a5d","winningOutcomeIndex()":"7d4035c5"}}}}}