{"contracts/factory/AFTRParimutuelBatchFactory.sol":{"AFTRParimutuelBatchFactory":{"abi":[{"inputs":[{"internalType":"address","name":"owner_","type":"address"},{"internalType":"address","name":"coreFactory_","type":"address"}],"stateMutability":"nonpayable","type":"constructor"},{"inputs":[{"internalType":"address","name":"owner","type":"address"}],"name":"OwnableInvalidOwner","type":"error"},{"inputs":[{"internalType":"address","name":"account","type":"address"}],"name":"OwnableUnauthorizedAccount","type":"error"},{"anonymous":false,"inputs":[{"indexed":true,"internalType":"address","name":"previousOwner","type":"address"},{"indexed":true,"internalType":"address","name":"newOwner","type":"address"}],"name":"OwnershipTransferStarted","type":"event"},{"anonymous":false,"inputs":[{"indexed":true,"internalType":"address","name":"previousOwner","type":"address"},{"indexed":true,"internalType":"address","name":"newOwner","type":"address"}],"name":"OwnershipTransferred","type":"event"},{"inputs":[],"name":"acceptOwnership","outputs":[],"stateMutability":"nonpayable","type":"function"},{"inputs":[],"name":"coreFactory","outputs":[{"internalType":"contract AFTRParimutuelMarketFactory","name":"","type":"address"}],"stateMutability":"view","type":"function"},{"inputs":[{"components":[{"internalType":"address","name":"collateralToken","type":"address"},{"internalType":"uint8","name":"collateralDecimals","type":"uint8"},{"internalType":"uint256","name":"virtualReserve","type":"uint256"},{"internalType":"uint256","name":"stakeEndTimestamp","type":"uint256"},{"internalType":"uint256","name":"resolveAfterTimestamp","type":"uint256"},{"internalType":"bytes32","name":"metadataHash","type":"bytes32"},{"internalType":"string[]","name":"outcomeLabels","type":"string[]"},{"internalType":"string","name":"umaQuestion","type":"string"},{"internalType":"bytes32","name":"umaIdentifier","type":"bytes32"},{"internalType":"uint64","name":"umaLiveness","type":"uint64"},{"internalType":"uint256","name":"umaProposerBond","type":"uint256"},{"internalType":"uint256","name":"umaReward","type":"uint256"},{"internalType":"address","name":"umaRewardCurrency","type":"address"},{"internalType":"uint256","name":"minBootstrapTotal","type":"uint256"}],"internalType":"struct AFTRParimutuelMarketFactory.EventMarketParams","name":"templateParams","type":"tuple"},{"internalType":"address[]","name":"collateralTokens","type":"address[]"}],"name":"createEventMarketsBatch","outputs":[{"internalType":"address[]","name":"deployed","type":"address[]"}],"stateMutability":"nonpayable","type":"function"},{"inputs":[{"components":[{"internalType":"address","name":"collateralToken","type":"address"},{"internalType":"uint8","name":"collateralDecimals","type":"uint8"},{"internalType":"uint256","name":"virtualReserve","type":"uint256"},{"internalType":"uint256","name":"stakeEndTimestamp","type":"uint256"},{"internalType":"uint256","name":"resolveAfterTimestamp","type":"uint256"},{"internalType":"bytes32","name":"metadataHash","type":"bytes32"},{"internalType":"string[]","name":"outcomeLabels","type":"string[]"},{"internalType":"address","name":"chainlinkFeed","type":"address"},{"internalType":"uint256","name":"priceThreshold","type":"uint256"},{"internalType":"enum AFTRVParimutuelMarket.PriceThresholdKind","name":"priceKind","type":"uint8"},{"internalType":"uint256","name":"priceUpperBound","type":"uint256"},{"internalType":"uint256","name":"maxPriceStaleness","type":"uint256"},{"internalType":"uint256[]","name":"priceBinLower","type":"uint256[]"},{"internalType":"uint256[]","name":"priceBinUpper","type":"uint256[]"},{"internalType":"uint256","name":"minBootstrapTotal","type":"uint256"}],"internalType":"struct AFTRParimutuelMarketFactory.PriceMarketParams","name":"templateParams","type":"tuple"},{"internalType":"address[]","name":"collateralTokens","type":"address[]"}],"name":"createPriceMarketsBatch","outputs":[{"internalType":"address[]","name":"deployed","type":"address[]"}],"stateMutability":"nonpayable","type":"function"},{"inputs":[],"name":"owner","outputs":[{"internalType":"address","name":"","type":"address"}],"stateMutability":"view","type":"function"},{"inputs":[],"name":"pendingOwner","outputs":[{"internalType":"address","name":"","type":"address"}],"stateMutability":"view","type":"function"},{"inputs":[],"name":"renounceOwnership","outputs":[],"stateMutability":"nonpayable","type":"function"},{"inputs":[{"internalType":"address","name":"newOwner","type":"address"}],"name":"transferOwnership","outputs":[],"stateMutability":"nonpayable","type":"function"}],"evm":{"bytecode":{"linkReferences":{},"object":"60a03461012357601f610ff138819003918201601f19168301916001600160401b0383118484101761012857808492604094855283398101031261012357610052602061004b8361013e565b920161013e565b6001600160a01b039182169190821561010a5760018060a01b031992836001541660015580600054948516176000558260405194167f8be0079c531659141344cd1fd0a4f28419497f9722a3daafe3b4186f6b6457e0600080a3169081156100de5750608052604051610e9e908161015382396080518181816105be015281816106880152610a400152f35b62461bcd60e51b8152602060048201526007602482015266466163746f727960c81b6044820152606490fd5b604051631e4fbdf760e01b815260006004820152602490fd5b600080fd5b634e487b7160e01b600052604160045260246000fd5b51906001600160a01b03821682036101235756fe6080604052600436101561001257600080fd5b60003560e01c8063273c1780146106b75780633d8df667146106725780634f62e00b1461022c578063715018a6146101c757806379ba50971461013e5780638da5cb5b14610115578063e30c3978146100ec5763f2fde38b1461007457600080fd5b346100e75760203660031901126100e7576004356001600160a01b03818116918290036100e7576100a3610d0c565b816bffffffffffffffffffffffff60a01b6001541617600155600054167f38d16b8cac22d99fc7c124b9cd0de2d3fa1faef420bfe791d8c362d765e22700600080a3005b600080fd5b346100e75760003660031901126100e7576001546040516001600160a01b039091168152602090f35b346100e75760003660031901126100e7576000546040516001600160a01b039091168152602090f35b346100e75760003660031901126100e7576001546001600160a01b0333818316036101af576bffffffffffffffffffffffff60a01b8092166001556000549133908316176000553391167f8be0079c531659141344cd1fd0a4f28419497f9722a3daafe3b4186f6b6457e0600080a3005b60405163118cdaa760e01b8152336004820152602490fd5b346100e75760003660031901126100e7576101e0610d0c565b600180546001600160a01b0319908116909155600080549182168155906001600160a01b03167f8be0079c531659141344cd1fd0a4f28419497f9722a3daafe3b4186f6b6457e08280a3005b346100e7576003196040368201126100e7576001600160401b03600435116100e7576101c090600435360301126100e7576024356001600160401b0381116100e75761027c903690600401610ae1565b610284610d0c565b61028d81610b8e565b60043560e481013581019391929190610124013560005b8381106102bd57604051806102b98782610b11565b0390f35b60405190816101c08101106001600160401b036101c08401111761065c576101c082016040526000825260006020830152600060408301526000606083015260006080830152600060a0830152606060c0830152606060e08301526000610100830152600061012083015260006101408301526000610160830152600061018083015260006101a083015260018060a01b0361035d600435600401610be6565b16825260ff610370602460043501610bfa565b1660208301526004803560448101356040850152606481013560608501526084810135608085015260a481013560a08501526103bc916103b59160c481019101610d20565b3691610d9b565b60c083015260221960043536030160e4600435013512156100e7576001600160401b036004880135116100e7576004870135360360248801136100e75761040b36600489013560248a01610d55565b60e083015261010460043501356101008301526001600160401b03831683036100e7576001600160401b0383166101208301526004356101448101356101408401526101648101356101608401526001600160a01b039061046f9061018401610be6565b166101808301526004356101a401356101a08301526001600160a01b0361049f61049a838888610bc0565b610be6565b1682526001600160a01b036104b861049a838888610bc0565b166106475760ff60125b1660208301526020604051808094631044041960e11b825283600483015260018060a01b03815116602483015260ff848201511660448301526040810151606483015260608101516084830152608081015160a483015260a081015160c48301526101a061055b61054460c08401516101c060e48701526101e4860190610c67565b60e084015185820360231901610104870152610c27565b916101008101516101248501526001600160401b036101208201511661014485015261014081015161016485015261016081015161018485015260018060a01b03610180820151166101a485015201516101c48301520381600060018060a01b037f0000000000000000000000000000000000000000000000000000000000000000165af1801561063b5760019260009161060c575b506105fc8288610cf8565b90838060a01b03169052016102a4565b61062e915060203d602011610634575b6106268183610b56565b810190610c08565b886105f1565b503d61061c565b6040513d6000823e3d90fd5b60ff610657602460043501610bfa565b6104c2565b634e487b7160e01b600052604160045260246000fd5b346100e75760003660031901126100e7576040517f00000000000000000000000000000000000000000000000000000000000000006001600160a01b03168152602090f35b346100e7576003196040368201126100e7576001600160401b03600435116100e7576101e090600435360301126100e7576024356001600160401b0381116100e757610707903690600401610ae1565b61070f610d0c565b61071881610b8e565b906000926003610124600435013510155b82851061073e57604051806102b98682610b11565b60405190816101e08101106001600160401b036101e08401111761065c576101e082016040526000825260006020830152600060408301526000606083015260006080830152600060a0830152606060c0830152600060e08301526000610100830152600061012083015260006101408301526000610160830152606061018083015260606101a083015260006101c083015260018060a01b036107e6600435600401610be6565b16825260ff6107f9602460043501610bfa565b1660208301526004803560448101356040850152606481013560608501526084810135608085015260a481013560a085015261083e916103b59160c481019101610d20565b60c08301526001600160a01b0361085960043560e401610be6565b1660e083015261010460043501356101008301526100e7576000946101246004350135610120830152610144600435013561014083015261016460043501356101608301526108bd6108b661018460043501600435600401610d20565b3691610e1a565b6101808301526108db6108b66101a460043501600435600401610d20565b6101a08301526004356101c401356101c08301526001600160a01b0361090561049a838787610bc0565b1682526001600160a01b0361091e61049a838787610bc0565b16610acc5760ff60125b16602083015260405191631cba0d2960e01b83526020600484015260018060a01b03815116602484015260ff60208201511660448401526040810151606484015260608101516084840152608081015160a484015260a081015160c48401526109a260c08201516101e060e4860152610204850190610c67565b60e08201516001600160a01b03166101048501526101008201516101248501526101208201516003811015610ab6576020926101c0610a3187948594610144860152610140840151610164860152610160840151610184860152610a1a610180850151916023199283888303016101a4890152610cc4565b906101a085015190868303016101c4870152610cc4565b9101516101e4830152038160007f00000000000000000000000000000000000000000000000000000000000000006001600160a01b03165af1801561063b57600192600091610a97575b50610a868287610cf8565b90838060a01b031690520193610729565b610ab0915060203d602011610634576106268183610b56565b87610a7b565b634e487b7160e01b600052602160045260246000fd5b60ff610adc602460043501610bfa565b610928565b9181601f840112156100e7578235916001600160401b0383116100e7576020808501948460051b0101116100e757565b602090602060408183019282815285518094520193019160005b828110610b39575050505090565b83516001600160a01b031685529381019392810192600101610b2b565b90601f801991011681019081106001600160401b0382111761065c57604052565b6001600160401b03811161065c5760051b60200190565b90610b9882610b77565b610ba56040519182610b56565b8281528092610bb6601f1991610b77565b0190602036910137565b9190811015610bd05760051b0190565b634e487b7160e01b600052603260045260246000fd5b356001600160a01b03811681036100e75790565b3560ff811681036100e75790565b908160209103126100e757516001600160a01b03811681036100e75790565b919082519283825260005b848110610c53575050826000602080949584010152601f8019910116010190565b602081830181015184830182015201610c32565b90808251908181526020809101926020808460051b8301019501936000915b848310610c965750505050505090565b9091929394958480610cb4600193601f198682030187528a51610c27565b9801930193019194939290610c86565b90815180825260208080930193019160005b828110610ce4575050505090565b835185529381019392810192600101610cd6565b8051821015610bd05760209160051b010190565b6000546001600160a01b031633036101af57565b903590601e19813603018212156100e757018035906001600160401b0382116100e757602001918160051b360383136100e757565b9291926001600160401b03821161065c5760405191610d7e601f8201601f191660200184610b56565b8294818452818301116100e7578281602093846000960137010152565b92919092610da884610b77565b91610db66040519384610b56565b829480845260208094019060051b8301928284116100e75780915b848310610de057505050505050565b82356001600160401b0381116100e757820184601f820112156100e7578691610e0f8683858095359101610d55565b815201920191610dd1565b9291610e2582610b77565b91610e336040519384610b56565b829481845260208094019160051b81019283116100e757905b828210610e595750505050565b81358152908301908301610e4c56fea2646970667358221220801b46d37d43e708e3b37bc3f01185bdf98b5beea26ae8d77f03439e86b9fadd64736f6c63430008180033","opcodes":"PUSH1 0xA0 CALLVALUE PUSH2 0x123 JUMPI PUSH1 0x1F PUSH2 0xFF1 CODESIZE DUP2 SWAP1 SUB SWAP2 DUP3 ADD PUSH1 0x1F NOT AND DUP4 ADD SWAP2 PUSH1 0x1 PUSH1 0x1 PUSH1 0x40 SHL SUB DUP4 GT DUP5 DUP5 LT OR PUSH2 0x128 JUMPI DUP1 DUP5 SWAP3 PUSH1 0x40 SWAP5 DUP6 MSTORE DUP4 CODECOPY DUP2 ADD SUB SLT PUSH2 0x123 JUMPI PUSH2 0x52 PUSH1 0x20 PUSH2 0x4B DUP4 PUSH2 0x13E JUMP JUMPDEST SWAP3 ADD PUSH2 0x13E JUMP JUMPDEST PUSH1 0x1 PUSH1 0x1 PUSH1 0xA0 SHL SUB SWAP2 DUP3 AND SWAP2 SWAP1 DUP3 ISZERO PUSH2 0x10A JUMPI PUSH1 0x1 DUP1 PUSH1 0xA0 SHL SUB NOT SWAP3 DUP4 PUSH1 0x1 SLOAD AND PUSH1 0x1 SSTORE DUP1 PUSH1 0x0 SLOAD SWAP5 DUP6 AND OR PUSH1 0x0 SSTORE DUP3 PUSH1 0x40 MLOAD SWAP5 AND PUSH32 0x8BE0079C531659141344CD1FD0A4F28419497F9722A3DAAFE3B4186F6B6457E0 PUSH1 0x0 DUP1 LOG3 AND SWAP1 DUP2 ISZERO PUSH2 0xDE JUMPI POP PUSH1 0x80 MSTORE PUSH1 0x40 MLOAD PUSH2 0xE9E SWAP1 DUP2 PUSH2 0x153 DUP3 CODECOPY PUSH1 0x80 MLOAD DUP2 DUP2 DUP2 PUSH2 0x5BE ADD MSTORE DUP2 DUP2 PUSH2 0x688 ADD MSTORE PUSH2 0xA40 ADD MSTORE RETURN JUMPDEST PUSH3 0x461BCD PUSH1 0xE5 SHL DUP2 MSTORE PUSH1 0x20 PUSH1 0x4 DUP3 ADD MSTORE PUSH1 0x7 PUSH1 0x24 DUP3 ADD MSTORE PUSH7 0x466163746F7279 PUSH1 0xC8 SHL PUSH1 0x44 DUP3 ADD MSTORE PUSH1 0x64 SWAP1 REVERT JUMPDEST PUSH1 0x40 MLOAD PUSH4 0x1E4FBDF7 PUSH1 0xE0 SHL DUP2 MSTORE PUSH1 0x0 PUSH1 0x4 DUP3 ADD MSTORE PUSH1 0x24 SWAP1 REVERT JUMPDEST PUSH1 0x0 DUP1 REVERT JUMPDEST PUSH4 0x4E487B71 PUSH1 0xE0 SHL PUSH1 0x0 MSTORE PUSH1 0x41 PUSH1 0x4 MSTORE PUSH1 0x24 PUSH1 0x0 REVERT JUMPDEST MLOAD SWAP1 PUSH1 0x1 PUSH1 0x1 PUSH1 0xA0 SHL SUB DUP3 AND DUP3 SUB PUSH2 0x123 JUMPI JUMP INVALID PUSH1 0x80 PUSH1 0x40 MSTORE PUSH1 0x4 CALLDATASIZE LT ISZERO PUSH2 0x12 JUMPI PUSH1 0x0 DUP1 REVERT JUMPDEST PUSH1 0x0 CALLDATALOAD PUSH1 0xE0 SHR DUP1 PUSH4 0x273C1780 EQ PUSH2 0x6B7 JUMPI DUP1 PUSH4 0x3D8DF667 EQ PUSH2 0x672 JUMPI DUP1 PUSH4 0x4F62E00B EQ PUSH2 0x22C JUMPI DUP1 PUSH4 0x715018A6 EQ PUSH2 0x1C7 JUMPI DUP1 PUSH4 0x79BA5097 EQ PUSH2 0x13E JUMPI DUP1 PUSH4 0x8DA5CB5B EQ PUSH2 0x115 JUMPI DUP1 PUSH4 0xE30C3978 EQ PUSH2 0xEC JUMPI PUSH4 0xF2FDE38B EQ PUSH2 0x74 JUMPI PUSH1 0x0 DUP1 REVERT JUMPDEST CALLVALUE PUSH2 0xE7 JUMPI PUSH1 0x20 CALLDATASIZE PUSH1 0x3 NOT ADD SLT PUSH2 0xE7 JUMPI PUSH1 0x4 CALLDATALOAD PUSH1 0x1 PUSH1 0x1 PUSH1 0xA0 SHL SUB DUP2 DUP2 AND SWAP2 DUP3 SWAP1 SUB PUSH2 0xE7 JUMPI PUSH2 0xA3 PUSH2 0xD0C JUMP JUMPDEST DUP2 PUSH12 0xFFFFFFFFFFFFFFFFFFFFFFFF PUSH1 0xA0 SHL PUSH1 0x1 SLOAD AND OR PUSH1 0x1 SSTORE PUSH1 0x0 SLOAD AND PUSH32 0x38D16B8CAC22D99FC7C124B9CD0DE2D3FA1FAEF420BFE791D8C362D765E22700 PUSH1 0x0 DUP1 LOG3 STOP JUMPDEST PUSH1 0x0 DUP1 REVERT JUMPDEST CALLVALUE PUSH2 0xE7 JUMPI PUSH1 0x0 CALLDATASIZE PUSH1 0x3 NOT ADD SLT PUSH2 0xE7 JUMPI PUSH1 0x1 SLOAD PUSH1 0x40 MLOAD PUSH1 0x1 PUSH1 0x1 PUSH1 0xA0 SHL SUB SWAP1 SWAP2 AND DUP2 MSTORE PUSH1 0x20 SWAP1 RETURN JUMPDEST CALLVALUE PUSH2 0xE7 JUMPI PUSH1 0x0 CALLDATASIZE PUSH1 0x3 NOT ADD SLT PUSH2 0xE7 JUMPI PUSH1 0x0 SLOAD PUSH1 0x40 MLOAD PUSH1 0x1 PUSH1 0x1 PUSH1 0xA0 SHL SUB SWAP1 SWAP2 AND DUP2 MSTORE PUSH1 0x20 SWAP1 RETURN JUMPDEST CALLVALUE PUSH2 0xE7 JUMPI PUSH1 0x0 CALLDATASIZE PUSH1 0x3 NOT ADD SLT PUSH2 0xE7 JUMPI PUSH1 0x1 SLOAD PUSH1 0x1 PUSH1 0x1 PUSH1 0xA0 SHL SUB CALLER DUP2 DUP4 AND SUB PUSH2 0x1AF JUMPI PUSH12 0xFFFFFFFFFFFFFFFFFFFFFFFF PUSH1 0xA0 SHL DUP1 SWAP3 AND PUSH1 0x1 SSTORE PUSH1 0x0 SLOAD SWAP2 CALLER SWAP1 DUP4 AND OR PUSH1 0x0 SSTORE CALLER SWAP2 AND PUSH32 0x8BE0079C531659141344CD1FD0A4F28419497F9722A3DAAFE3B4186F6B6457E0 PUSH1 0x0 DUP1 LOG3 STOP JUMPDEST PUSH1 0x40 MLOAD PUSH4 0x118CDAA7 PUSH1 0xE0 SHL DUP2 MSTORE CALLER PUSH1 0x4 DUP3 ADD MSTORE PUSH1 0x24 SWAP1 REVERT JUMPDEST CALLVALUE PUSH2 0xE7 JUMPI PUSH1 0x0 CALLDATASIZE PUSH1 0x3 NOT ADD SLT PUSH2 0xE7 JUMPI PUSH2 0x1E0 PUSH2 0xD0C JUMP JUMPDEST PUSH1 0x1 DUP1 SLOAD PUSH1 0x1 PUSH1 0x1 PUSH1 0xA0 SHL SUB NOT SWAP1 DUP2 AND SWAP1 SWAP2 SSTORE PUSH1 0x0 DUP1 SLOAD SWAP2 DUP3 AND DUP2 SSTORE SWAP1 PUSH1 0x1 PUSH1 0x1 PUSH1 0xA0 SHL SUB AND PUSH32 0x8BE0079C531659141344CD1FD0A4F28419497F9722A3DAAFE3B4186F6B6457E0 DUP3 DUP1 LOG3 STOP JUMPDEST CALLVALUE PUSH2 0xE7 JUMPI PUSH1 0x3 NOT PUSH1 0x40 CALLDATASIZE DUP3 ADD SLT PUSH2 0xE7 JUMPI PUSH1 0x1 PUSH1 0x1 PUSH1 0x40 SHL SUB PUSH1 0x4 CALLDATALOAD GT PUSH2 0xE7 JUMPI PUSH2 0x1C0 SWAP1 PUSH1 0x4 CALLDATALOAD CALLDATASIZE SUB ADD SLT PUSH2 0xE7 JUMPI PUSH1 0x24 CALLDATALOAD PUSH1 0x1 PUSH1 0x1 PUSH1 0x40 SHL SUB DUP2 GT PUSH2 0xE7 JUMPI PUSH2 0x27C SWAP1 CALLDATASIZE SWAP1 PUSH1 0x4 ADD PUSH2 0xAE1 JUMP JUMPDEST PUSH2 0x284 PUSH2 0xD0C JUMP JUMPDEST PUSH2 0x28D DUP2 PUSH2 0xB8E JUMP JUMPDEST PUSH1 0x4 CALLDATALOAD PUSH1 0xE4 DUP2 ADD CALLDATALOAD DUP2 ADD SWAP4 SWAP2 SWAP3 SWAP2 SWAP1 PUSH2 0x124 ADD CALLDATALOAD PUSH1 0x0 JUMPDEST DUP4 DUP2 LT PUSH2 0x2BD JUMPI PUSH1 0x40 MLOAD DUP1 PUSH2 0x2B9 DUP8 DUP3 PUSH2 0xB11 JUMP JUMPDEST SUB SWAP1 RETURN JUMPDEST PUSH1 0x40 MLOAD SWAP1 DUP2 PUSH2 0x1C0 DUP2 ADD LT PUSH1 0x1 PUSH1 0x1 PUSH1 0x40 SHL SUB PUSH2 0x1C0 DUP5 ADD GT OR PUSH2 0x65C JUMPI PUSH2 0x1C0 DUP3 ADD PUSH1 0x40 MSTORE PUSH1 0x0 DUP3 MSTORE PUSH1 0x0 PUSH1 0x20 DUP4 ADD MSTORE PUSH1 0x0 PUSH1 0x40 DUP4 ADD MSTORE PUSH1 0x0 PUSH1 0x60 DUP4 ADD MSTORE PUSH1 0x0 PUSH1 0x80 DUP4 ADD MSTORE PUSH1 0x0 PUSH1 0xA0 DUP4 ADD MSTORE PUSH1 0x60 PUSH1 0xC0 DUP4 ADD MSTORE PUSH1 0x60 PUSH1 0xE0 DUP4 ADD MSTORE PUSH1 0x0 PUSH2 0x100 DUP4 ADD MSTORE PUSH1 0x0 PUSH2 0x120 DUP4 ADD MSTORE PUSH1 0x0 PUSH2 0x140 DUP4 ADD MSTORE PUSH1 0x0 PUSH2 0x160 DUP4 ADD MSTORE PUSH1 0x0 PUSH2 0x180 DUP4 ADD MSTORE PUSH1 0x0 PUSH2 0x1A0 DUP4 ADD MSTORE PUSH1 0x1 DUP1 PUSH1 0xA0 SHL SUB PUSH2 0x35D PUSH1 0x4 CALLDATALOAD PUSH1 0x4 ADD PUSH2 0xBE6 JUMP JUMPDEST AND DUP3 MSTORE PUSH1 0xFF PUSH2 0x370 PUSH1 0x24 PUSH1 0x4 CALLDATALOAD ADD PUSH2 0xBFA JUMP JUMPDEST AND PUSH1 0x20 DUP4 ADD MSTORE PUSH1 0x4 DUP1 CALLDATALOAD PUSH1 0x44 DUP2 ADD CALLDATALOAD PUSH1 0x40 DUP6 ADD MSTORE PUSH1 0x64 DUP2 ADD CALLDATALOAD PUSH1 0x60 DUP6 ADD MSTORE PUSH1 0x84 DUP2 ADD CALLDATALOAD PUSH1 0x80 DUP6 ADD MSTORE PUSH1 0xA4 DUP2 ADD CALLDATALOAD PUSH1 0xA0 DUP6 ADD MSTORE PUSH2 0x3BC SWAP2 PUSH2 0x3B5 SWAP2 PUSH1 0xC4 DUP2 ADD SWAP2 ADD PUSH2 0xD20 JUMP JUMPDEST CALLDATASIZE SWAP2 PUSH2 0xD9B JUMP JUMPDEST PUSH1 0xC0 DUP4 ADD MSTORE PUSH1 0x22 NOT PUSH1 0x4 CALLDATALOAD CALLDATASIZE SUB ADD PUSH1 0xE4 PUSH1 0x4 CALLDATALOAD ADD CALLDATALOAD SLT ISZERO PUSH2 0xE7 JUMPI PUSH1 0x1 PUSH1 0x1 PUSH1 0x40 SHL SUB PUSH1 0x4 DUP9 ADD CALLDATALOAD GT PUSH2 0xE7 JUMPI PUSH1 0x4 DUP8 ADD CALLDATALOAD CALLDATASIZE SUB PUSH1 0x24 DUP9 ADD SGT PUSH2 0xE7 JUMPI PUSH2 0x40B CALLDATASIZE PUSH1 0x4 DUP10 ADD CALLDATALOAD PUSH1 0x24 DUP11 ADD PUSH2 0xD55 JUMP JUMPDEST PUSH1 0xE0 DUP4 ADD MSTORE PUSH2 0x104 PUSH1 0x4 CALLDATALOAD ADD CALLDATALOAD PUSH2 0x100 DUP4 ADD MSTORE PUSH1 0x1 PUSH1 0x1 PUSH1 0x40 SHL SUB DUP4 AND DUP4 SUB PUSH2 0xE7 JUMPI PUSH1 0x1 PUSH1 0x1 PUSH1 0x40 SHL SUB DUP4 AND PUSH2 0x120 DUP4 ADD MSTORE PUSH1 0x4 CALLDATALOAD PUSH2 0x144 DUP2 ADD CALLDATALOAD PUSH2 0x140 DUP5 ADD MSTORE PUSH2 0x164 DUP2 ADD CALLDATALOAD PUSH2 0x160 DUP5 ADD MSTORE PUSH1 0x1 PUSH1 0x1 PUSH1 0xA0 SHL SUB SWAP1 PUSH2 0x46F SWAP1 PUSH2 0x184 ADD PUSH2 0xBE6 JUMP JUMPDEST AND PUSH2 0x180 DUP4 ADD MSTORE PUSH1 0x4 CALLDATALOAD PUSH2 0x1A4 ADD CALLDATALOAD PUSH2 0x1A0 DUP4 ADD MSTORE PUSH1 0x1 PUSH1 0x1 PUSH1 0xA0 SHL SUB PUSH2 0x49F PUSH2 0x49A DUP4 DUP9 DUP9 PUSH2 0xBC0 JUMP JUMPDEST PUSH2 0xBE6 JUMP JUMPDEST AND DUP3 MSTORE PUSH1 0x1 PUSH1 0x1 PUSH1 0xA0 SHL SUB PUSH2 0x4B8 PUSH2 0x49A DUP4 DUP9 DUP9 PUSH2 0xBC0 JUMP JUMPDEST AND PUSH2 0x647 JUMPI PUSH1 0xFF PUSH1 0x12 JUMPDEST AND PUSH1 0x20 DUP4 ADD MSTORE PUSH1 0x20 PUSH1 0x40 MLOAD DUP1 DUP1 SWAP5 PUSH4 0x10440419 PUSH1 0xE1 SHL DUP3 MSTORE DUP4 PUSH1 0x4 DUP4 ADD MSTORE PUSH1 0x1 DUP1 PUSH1 0xA0 SHL SUB DUP2 MLOAD AND PUSH1 0x24 DUP4 ADD MSTORE PUSH1 0xFF DUP5 DUP3 ADD MLOAD AND PUSH1 0x44 DUP4 ADD MSTORE PUSH1 0x40 DUP2 ADD MLOAD PUSH1 0x64 DUP4 ADD MSTORE PUSH1 0x60 DUP2 ADD MLOAD PUSH1 0x84 DUP4 ADD MSTORE PUSH1 0x80 DUP2 ADD MLOAD PUSH1 0xA4 DUP4 ADD MSTORE PUSH1 0xA0 DUP2 ADD MLOAD PUSH1 0xC4 DUP4 ADD MSTORE PUSH2 0x1A0 PUSH2 0x55B PUSH2 0x544 PUSH1 0xC0 DUP5 ADD MLOAD PUSH2 0x1C0 PUSH1 0xE4 DUP8 ADD MSTORE PUSH2 0x1E4 DUP7 ADD SWAP1 PUSH2 0xC67 JUMP JUMPDEST PUSH1 0xE0 DUP5 ADD MLOAD DUP6 DUP3 SUB PUSH1 0x23 NOT ADD PUSH2 0x104 DUP8 ADD MSTORE PUSH2 0xC27 JUMP JUMPDEST SWAP2 PUSH2 0x100 DUP2 ADD MLOAD PUSH2 0x124 DUP6 ADD MSTORE PUSH1 0x1 PUSH1 0x1 PUSH1 0x40 SHL SUB PUSH2 0x120 DUP3 ADD MLOAD AND PUSH2 0x144 DUP6 ADD MSTORE PUSH2 0x140 DUP2 ADD MLOAD PUSH2 0x164 DUP6 ADD MSTORE PUSH2 0x160 DUP2 ADD MLOAD PUSH2 0x184 DUP6 ADD MSTORE PUSH1 0x1 DUP1 PUSH1 0xA0 SHL SUB PUSH2 0x180 DUP3 ADD MLOAD AND PUSH2 0x1A4 DUP6 ADD MSTORE ADD MLOAD PUSH2 0x1C4 DUP4 ADD MSTORE SUB DUP2 PUSH1 0x0 PUSH1 0x1 DUP1 PUSH1 0xA0 SHL SUB PUSH32 0x0 AND GAS CALL DUP1 ISZERO PUSH2 0x63B JUMPI PUSH1 0x1 SWAP3 PUSH1 0x0 SWAP2 PUSH2 0x60C JUMPI JUMPDEST POP PUSH2 0x5FC DUP3 DUP9 PUSH2 0xCF8 JUMP JUMPDEST SWAP1 DUP4 DUP1 PUSH1 0xA0 SHL SUB AND SWAP1 MSTORE ADD PUSH2 0x2A4 JUMP JUMPDEST PUSH2 0x62E SWAP2 POP PUSH1 0x20 RETURNDATASIZE PUSH1 0x20 GT PUSH2 0x634 JUMPI JUMPDEST PUSH2 0x626 DUP2 DUP4 PUSH2 0xB56 JUMP JUMPDEST DUP2 ADD SWAP1 PUSH2 0xC08 JUMP JUMPDEST DUP9 PUSH2 0x5F1 JUMP JUMPDEST POP RETURNDATASIZE PUSH2 0x61C JUMP JUMPDEST PUSH1 0x40 MLOAD RETURNDATASIZE PUSH1 0x0 DUP3 RETURNDATACOPY RETURNDATASIZE SWAP1 REVERT JUMPDEST PUSH1 0xFF PUSH2 0x657 PUSH1 0x24 PUSH1 0x4 CALLDATALOAD ADD PUSH2 0xBFA JUMP JUMPDEST PUSH2 0x4C2 JUMP JUMPDEST PUSH4 0x4E487B71 PUSH1 0xE0 SHL PUSH1 0x0 MSTORE PUSH1 0x41 PUSH1 0x4 MSTORE PUSH1 0x24 PUSH1 0x0 REVERT JUMPDEST CALLVALUE PUSH2 0xE7 JUMPI PUSH1 0x0 CALLDATASIZE PUSH1 0x3 NOT ADD SLT PUSH2 0xE7 JUMPI PUSH1 0x40 MLOAD PUSH32 0x0 PUSH1 0x1 PUSH1 0x1 PUSH1 0xA0 SHL SUB AND DUP2 MSTORE PUSH1 0x20 SWAP1 RETURN JUMPDEST CALLVALUE PUSH2 0xE7 JUMPI PUSH1 0x3 NOT PUSH1 0x40 CALLDATASIZE DUP3 ADD SLT PUSH2 0xE7 JUMPI PUSH1 0x1 PUSH1 0x1 PUSH1 0x40 SHL SUB PUSH1 0x4 CALLDATALOAD GT PUSH2 0xE7 JUMPI PUSH2 0x1E0 SWAP1 PUSH1 0x4 CALLDATALOAD CALLDATASIZE SUB ADD SLT PUSH2 0xE7 JUMPI PUSH1 0x24 CALLDATALOAD PUSH1 0x1 PUSH1 0x1 PUSH1 0x40 SHL SUB DUP2 GT PUSH2 0xE7 JUMPI PUSH2 0x707 SWAP1 CALLDATASIZE SWAP1 PUSH1 0x4 ADD PUSH2 0xAE1 JUMP JUMPDEST PUSH2 0x70F PUSH2 0xD0C JUMP JUMPDEST PUSH2 0x718 DUP2 PUSH2 0xB8E JUMP JUMPDEST SWAP1 PUSH1 0x0 SWAP3 PUSH1 0x3 PUSH2 0x124 PUSH1 0x4 CALLDATALOAD ADD CALLDATALOAD LT ISZERO JUMPDEST DUP3 DUP6 LT PUSH2 0x73E JUMPI PUSH1 0x40 MLOAD DUP1 PUSH2 0x2B9 DUP7 DUP3 PUSH2 0xB11 JUMP JUMPDEST PUSH1 0x40 MLOAD SWAP1 DUP2 PUSH2 0x1E0 DUP2 ADD LT PUSH1 0x1 PUSH1 0x1 PUSH1 0x40 SHL SUB PUSH2 0x1E0 DUP5 ADD GT OR PUSH2 0x65C JUMPI PUSH2 0x1E0 DUP3 ADD PUSH1 0x40 MSTORE PUSH1 0x0 DUP3 MSTORE PUSH1 0x0 PUSH1 0x20 DUP4 ADD MSTORE PUSH1 0x0 PUSH1 0x40 DUP4 ADD MSTORE PUSH1 0x0 PUSH1 0x60 DUP4 ADD MSTORE PUSH1 0x0 PUSH1 0x80 DUP4 ADD MSTORE PUSH1 0x0 PUSH1 0xA0 DUP4 ADD MSTORE PUSH1 0x60 PUSH1 0xC0 DUP4 ADD MSTORE PUSH1 0x0 PUSH1 0xE0 DUP4 ADD MSTORE PUSH1 0x0 PUSH2 0x100 DUP4 ADD MSTORE PUSH1 0x0 PUSH2 0x120 DUP4 ADD MSTORE PUSH1 0x0 PUSH2 0x140 DUP4 ADD MSTORE PUSH1 0x0 PUSH2 0x160 DUP4 ADD MSTORE PUSH1 0x60 PUSH2 0x180 DUP4 ADD MSTORE PUSH1 0x60 PUSH2 0x1A0 DUP4 ADD MSTORE PUSH1 0x0 PUSH2 0x1C0 DUP4 ADD MSTORE PUSH1 0x1 DUP1 PUSH1 0xA0 SHL SUB PUSH2 0x7E6 PUSH1 0x4 CALLDATALOAD PUSH1 0x4 ADD PUSH2 0xBE6 JUMP JUMPDEST AND DUP3 MSTORE PUSH1 0xFF PUSH2 0x7F9 PUSH1 0x24 PUSH1 0x4 CALLDATALOAD ADD PUSH2 0xBFA JUMP JUMPDEST AND PUSH1 0x20 DUP4 ADD MSTORE PUSH1 0x4 DUP1 CALLDATALOAD PUSH1 0x44 DUP2 ADD CALLDATALOAD PUSH1 0x40 DUP6 ADD MSTORE PUSH1 0x64 DUP2 ADD CALLDATALOAD PUSH1 0x60 DUP6 ADD MSTORE PUSH1 0x84 DUP2 ADD CALLDATALOAD PUSH1 0x80 DUP6 ADD MSTORE PUSH1 0xA4 DUP2 ADD CALLDATALOAD PUSH1 0xA0 DUP6 ADD MSTORE PUSH2 0x83E SWAP2 PUSH2 0x3B5 SWAP2 PUSH1 0xC4 DUP2 ADD SWAP2 ADD PUSH2 0xD20 JUMP JUMPDEST PUSH1 0xC0 DUP4 ADD MSTORE PUSH1 0x1 PUSH1 0x1 PUSH1 0xA0 SHL SUB PUSH2 0x859 PUSH1 0x4 CALLDATALOAD PUSH1 0xE4 ADD PUSH2 0xBE6 JUMP JUMPDEST AND PUSH1 0xE0 DUP4 ADD MSTORE PUSH2 0x104 PUSH1 0x4 CALLDATALOAD ADD CALLDATALOAD PUSH2 0x100 DUP4 ADD MSTORE PUSH2 0xE7 JUMPI PUSH1 0x0 SWAP5 PUSH2 0x124 PUSH1 0x4 CALLDATALOAD ADD CALLDATALOAD PUSH2 0x120 DUP4 ADD MSTORE PUSH2 0x144 PUSH1 0x4 CALLDATALOAD ADD CALLDATALOAD PUSH2 0x140 DUP4 ADD MSTORE PUSH2 0x164 PUSH1 0x4 CALLDATALOAD ADD CALLDATALOAD PUSH2 0x160 DUP4 ADD MSTORE PUSH2 0x8BD PUSH2 0x8B6 PUSH2 0x184 PUSH1 0x4 CALLDATALOAD ADD PUSH1 0x4 CALLDATALOAD PUSH1 0x4 ADD PUSH2 0xD20 JUMP JUMPDEST CALLDATASIZE SWAP2 PUSH2 0xE1A JUMP JUMPDEST PUSH2 0x180 DUP4 ADD MSTORE PUSH2 0x8DB PUSH2 0x8B6 PUSH2 0x1A4 PUSH1 0x4 CALLDATALOAD ADD PUSH1 0x4 CALLDATALOAD PUSH1 0x4 ADD PUSH2 0xD20 JUMP JUMPDEST PUSH2 0x1A0 DUP4 ADD MSTORE PUSH1 0x4 CALLDATALOAD PUSH2 0x1C4 ADD CALLDATALOAD PUSH2 0x1C0 DUP4 ADD MSTORE PUSH1 0x1 PUSH1 0x1 PUSH1 0xA0 SHL SUB PUSH2 0x905 PUSH2 0x49A DUP4 DUP8 DUP8 PUSH2 0xBC0 JUMP JUMPDEST AND DUP3 MSTORE PUSH1 0x1 PUSH1 0x1 PUSH1 0xA0 SHL SUB PUSH2 0x91E PUSH2 0x49A DUP4 DUP8 DUP8 PUSH2 0xBC0 JUMP JUMPDEST AND PUSH2 0xACC JUMPI PUSH1 0xFF PUSH1 0x12 JUMPDEST AND PUSH1 0x20 DUP4 ADD MSTORE PUSH1 0x40 MLOAD SWAP2 PUSH4 0x1CBA0D29 PUSH1 0xE0 SHL DUP4 MSTORE PUSH1 0x20 PUSH1 0x4 DUP5 ADD MSTORE PUSH1 0x1 DUP1 PUSH1 0xA0 SHL SUB DUP2 MLOAD AND PUSH1 0x24 DUP5 ADD MSTORE PUSH1 0xFF PUSH1 0x20 DUP3 ADD MLOAD AND PUSH1 0x44 DUP5 ADD MSTORE PUSH1 0x40 DUP2 ADD MLOAD PUSH1 0x64 DUP5 ADD MSTORE PUSH1 0x60 DUP2 ADD MLOAD PUSH1 0x84 DUP5 ADD MSTORE PUSH1 0x80 DUP2 ADD MLOAD PUSH1 0xA4 DUP5 ADD MSTORE PUSH1 0xA0 DUP2 ADD MLOAD PUSH1 0xC4 DUP5 ADD MSTORE PUSH2 0x9A2 PUSH1 0xC0 DUP3 ADD MLOAD PUSH2 0x1E0 PUSH1 0xE4 DUP7 ADD MSTORE PUSH2 0x204 DUP6 ADD SWAP1 PUSH2 0xC67 JUMP JUMPDEST PUSH1 0xE0 DUP3 ADD MLOAD PUSH1 0x1 PUSH1 0x1 PUSH1 0xA0 SHL SUB AND PUSH2 0x104 DUP6 ADD MSTORE PUSH2 0x100 DUP3 ADD MLOAD PUSH2 0x124 DUP6 ADD MSTORE PUSH2 0x120 DUP3 ADD MLOAD PUSH1 0x3 DUP2 LT ISZERO PUSH2 0xAB6 JUMPI PUSH1 0x20 SWAP3 PUSH2 0x1C0 PUSH2 0xA31 DUP8 SWAP5 DUP6 SWAP5 PUSH2 0x144 DUP7 ADD MSTORE PUSH2 0x140 DUP5 ADD MLOAD PUSH2 0x164 DUP7 ADD MSTORE PUSH2 0x160 DUP5 ADD MLOAD PUSH2 0x184 DUP7 ADD MSTORE PUSH2 0xA1A PUSH2 0x180 DUP6 ADD MLOAD SWAP2 PUSH1 0x23 NOT SWAP3 DUP4 DUP9 DUP4 SUB ADD PUSH2 0x1A4 DUP10 ADD MSTORE PUSH2 0xCC4 JUMP JUMPDEST SWAP1 PUSH2 0x1A0 DUP6 ADD MLOAD SWAP1 DUP7 DUP4 SUB ADD PUSH2 0x1C4 DUP8 ADD MSTORE PUSH2 0xCC4 JUMP JUMPDEST SWAP2 ADD MLOAD PUSH2 0x1E4 DUP4 ADD MSTORE SUB DUP2 PUSH1 0x0 PUSH32 0x0 PUSH1 0x1 PUSH1 0x1 PUSH1 0xA0 SHL SUB AND GAS CALL DUP1 ISZERO PUSH2 0x63B JUMPI PUSH1 0x1 SWAP3 PUSH1 0x0 SWAP2 PUSH2 0xA97 JUMPI JUMPDEST POP PUSH2 0xA86 DUP3 DUP8 PUSH2 0xCF8 JUMP JUMPDEST SWAP1 DUP4 DUP1 PUSH1 0xA0 SHL SUB AND SWAP1 MSTORE ADD SWAP4 PUSH2 0x729 JUMP JUMPDEST PUSH2 0xAB0 SWAP2 POP PUSH1 0x20 RETURNDATASIZE PUSH1 0x20 GT PUSH2 0x634 JUMPI PUSH2 0x626 DUP2 DUP4 PUSH2 0xB56 JUMP JUMPDEST DUP8 PUSH2 0xA7B JUMP JUMPDEST PUSH4 0x4E487B71 PUSH1 0xE0 SHL PUSH1 0x0 MSTORE PUSH1 0x21 PUSH1 0x4 MSTORE PUSH1 0x24 PUSH1 0x0 REVERT JUMPDEST PUSH1 0xFF PUSH2 0xADC PUSH1 0x24 PUSH1 0x4 CALLDATALOAD ADD PUSH2 0xBFA JUMP JUMPDEST PUSH2 0x928 JUMP JUMPDEST SWAP2 DUP2 PUSH1 0x1F DUP5 ADD SLT ISZERO PUSH2 0xE7 JUMPI DUP3 CALLDATALOAD SWAP2 PUSH1 0x1 PUSH1 0x1 PUSH1 0x40 SHL SUB DUP4 GT PUSH2 0xE7 JUMPI PUSH1 0x20 DUP1 DUP6 ADD SWAP5 DUP5 PUSH1 0x5 SHL ADD ADD GT PUSH2 0xE7 JUMPI JUMP JUMPDEST PUSH1 0x20 SWAP1 PUSH1 0x20 PUSH1 0x40 DUP2 DUP4 ADD SWAP3 DUP3 DUP2 MSTORE DUP6 MLOAD DUP1 SWAP5 MSTORE ADD SWAP4 ADD SWAP2 PUSH1 0x0 JUMPDEST DUP3 DUP2 LT PUSH2 0xB39 JUMPI POP POP POP POP SWAP1 JUMP JUMPDEST DUP4 MLOAD PUSH1 0x1 PUSH1 0x1 PUSH1 0xA0 SHL SUB AND DUP6 MSTORE SWAP4 DUP2 ADD SWAP4 SWAP3 DUP2 ADD SWAP3 PUSH1 0x1 ADD PUSH2 0xB2B JUMP JUMPDEST SWAP1 PUSH1 0x1F DUP1 NOT SWAP2 ADD AND DUP2 ADD SWAP1 DUP2 LT PUSH1 0x1 PUSH1 0x1 PUSH1 0x40 SHL SUB DUP3 GT OR PUSH2 0x65C JUMPI PUSH1 0x40 MSTORE JUMP JUMPDEST PUSH1 0x1 PUSH1 0x1 PUSH1 0x40 SHL SUB DUP2 GT PUSH2 0x65C JUMPI PUSH1 0x5 SHL PUSH1 0x20 ADD SWAP1 JUMP JUMPDEST SWAP1 PUSH2 0xB98 DUP3 PUSH2 0xB77 JUMP JUMPDEST PUSH2 0xBA5 PUSH1 0x40 MLOAD SWAP2 DUP3 PUSH2 0xB56 JUMP JUMPDEST DUP3 DUP2 MSTORE DUP1 SWAP3 PUSH2 0xBB6 PUSH1 0x1F NOT SWAP2 PUSH2 0xB77 JUMP JUMPDEST ADD SWAP1 PUSH1 0x20 CALLDATASIZE SWAP2 ADD CALLDATACOPY JUMP JUMPDEST SWAP2 SWAP1 DUP2 LT ISZERO PUSH2 0xBD0 JUMPI PUSH1 0x5 SHL ADD SWAP1 JUMP JUMPDEST PUSH4 0x4E487B71 PUSH1 0xE0 SHL PUSH1 0x0 MSTORE PUSH1 0x32 PUSH1 0x4 MSTORE PUSH1 0x24 PUSH1 0x0 REVERT JUMPDEST CALLDATALOAD PUSH1 0x1 PUSH1 0x1 PUSH1 0xA0 SHL SUB DUP2 AND DUP2 SUB PUSH2 0xE7 JUMPI SWAP1 JUMP JUMPDEST CALLDATALOAD PUSH1 0xFF DUP2 AND DUP2 SUB PUSH2 0xE7 JUMPI SWAP1 JUMP JUMPDEST SWAP1 DUP2 PUSH1 0x20 SWAP2 SUB SLT PUSH2 0xE7 JUMPI MLOAD PUSH1 0x1 PUSH1 0x1 PUSH1 0xA0 SHL SUB DUP2 AND DUP2 SUB PUSH2 0xE7 JUMPI SWAP1 JUMP JUMPDEST SWAP2 SWAP1 DUP3 MLOAD SWAP3 DUP4 DUP3 MSTORE PUSH1 0x0 JUMPDEST DUP5 DUP2 LT PUSH2 0xC53 JUMPI POP POP DUP3 PUSH1 0x0 PUSH1 0x20 DUP1 SWAP5 SWAP6 DUP5 ADD ADD MSTORE PUSH1 0x1F DUP1 NOT SWAP2 ADD AND ADD ADD SWAP1 JUMP JUMPDEST PUSH1 0x20 DUP2 DUP4 ADD DUP2 ADD MLOAD DUP5 DUP4 ADD DUP3 ADD MSTORE ADD PUSH2 0xC32 JUMP JUMPDEST SWAP1 DUP1 DUP3 MLOAD SWAP1 DUP2 DUP2 MSTORE PUSH1 0x20 DUP1 SWAP2 ADD SWAP3 PUSH1 0x20 DUP1 DUP5 PUSH1 0x5 SHL DUP4 ADD ADD SWAP6 ADD SWAP4 PUSH1 0x0 SWAP2 JUMPDEST DUP5 DUP4 LT PUSH2 0xC96 JUMPI POP POP POP POP POP POP SWAP1 JUMP JUMPDEST SWAP1 SWAP2 SWAP3 SWAP4 SWAP5 SWAP6 DUP5 DUP1 PUSH2 0xCB4 PUSH1 0x1 SWAP4 PUSH1 0x1F NOT DUP7 DUP3 SUB ADD DUP8 MSTORE DUP11 MLOAD PUSH2 0xC27 JUMP JUMPDEST SWAP9 ADD SWAP4 ADD SWAP4 ADD SWAP2 SWAP5 SWAP4 SWAP3 SWAP1 PUSH2 0xC86 JUMP JUMPDEST SWAP1 DUP2 MLOAD DUP1 DUP3 MSTORE PUSH1 0x20 DUP1 DUP1 SWAP4 ADD SWAP4 ADD SWAP2 PUSH1 0x0 JUMPDEST DUP3 DUP2 LT PUSH2 0xCE4 JUMPI POP POP POP POP SWAP1 JUMP JUMPDEST DUP4 MLOAD DUP6 MSTORE SWAP4 DUP2 ADD SWAP4 SWAP3 DUP2 ADD SWAP3 PUSH1 0x1 ADD PUSH2 0xCD6 JUMP JUMPDEST DUP1 MLOAD DUP3 LT ISZERO PUSH2 0xBD0 JUMPI PUSH1 0x20 SWAP2 PUSH1 0x5 SHL ADD ADD SWAP1 JUMP JUMPDEST PUSH1 0x0 SLOAD PUSH1 0x1 PUSH1 0x1 PUSH1 0xA0 SHL SUB AND CALLER SUB PUSH2 0x1AF JUMPI JUMP JUMPDEST SWAP1 CALLDATALOAD SWAP1 PUSH1 0x1E NOT DUP2 CALLDATASIZE SUB ADD DUP3 SLT ISZERO PUSH2 0xE7 JUMPI ADD DUP1 CALLDATALOAD SWAP1 PUSH1 0x1 PUSH1 0x1 PUSH1 0x40 SHL SUB DUP3 GT PUSH2 0xE7 JUMPI PUSH1 0x20 ADD SWAP2 DUP2 PUSH1 0x5 SHL CALLDATASIZE SUB DUP4 SGT PUSH2 0xE7 JUMPI JUMP JUMPDEST SWAP3 SWAP2 SWAP3 PUSH1 0x1 PUSH1 0x1 PUSH1 0x40 SHL SUB DUP3 GT PUSH2 0x65C JUMPI PUSH1 0x40 MLOAD SWAP2 PUSH2 0xD7E PUSH1 0x1F DUP3 ADD PUSH1 0x1F NOT AND PUSH1 0x20 ADD DUP5 PUSH2 0xB56 JUMP JUMPDEST DUP3 SWAP5 DUP2 DUP5 MSTORE DUP2 DUP4 ADD GT PUSH2 0xE7 JUMPI DUP3 DUP2 PUSH1 0x20 SWAP4 DUP5 PUSH1 0x0 SWAP7 ADD CALLDATACOPY ADD ADD MSTORE JUMP JUMPDEST SWAP3 SWAP2 SWAP1 SWAP3 PUSH2 0xDA8 DUP5 PUSH2 0xB77 JUMP JUMPDEST SWAP2 PUSH2 0xDB6 PUSH1 0x40 MLOAD SWAP4 DUP5 PUSH2 0xB56 JUMP JUMPDEST DUP3 SWAP5 DUP1 DUP5 MSTORE PUSH1 0x20 DUP1 SWAP5 ADD SWAP1 PUSH1 0x5 SHL DUP4 ADD SWAP3 DUP3 DUP5 GT PUSH2 0xE7 JUMPI DUP1 SWAP2 JUMPDEST DUP5 DUP4 LT PUSH2 0xDE0 JUMPI POP POP POP POP POP POP JUMP JUMPDEST DUP3 CALLDATALOAD PUSH1 0x1 PUSH1 0x1 PUSH1 0x40 SHL SUB DUP2 GT PUSH2 0xE7 JUMPI DUP3 ADD DUP5 PUSH1 0x1F DUP3 ADD SLT ISZERO PUSH2 0xE7 JUMPI DUP7 SWAP2 PUSH2 0xE0F DUP7 DUP4 DUP6 DUP1 SWAP6 CALLDATALOAD SWAP2 ADD PUSH2 0xD55 JUMP JUMPDEST DUP2 MSTORE ADD SWAP3 ADD SWAP2 PUSH2 0xDD1 JUMP JUMPDEST SWAP3 SWAP2 PUSH2 0xE25 DUP3 PUSH2 0xB77 JUMP JUMPDEST SWAP2 PUSH2 0xE33 PUSH1 0x40 MLOAD SWAP4 DUP5 PUSH2 0xB56 JUMP JUMPDEST DUP3 SWAP5 DUP2 DUP5 MSTORE PUSH1 0x20 DUP1 SWAP5 ADD SWAP2 PUSH1 0x5 SHL DUP2 ADD SWAP3 DUP4 GT PUSH2 0xE7 JUMPI SWAP1 JUMPDEST DUP3 DUP3 LT PUSH2 0xE59 JUMPI POP POP POP POP JUMP JUMPDEST DUP2 CALLDATALOAD DUP2 MSTORE SWAP1 DUP4 ADD SWAP1 DUP4 ADD PUSH2 0xE4C JUMP INVALID LOG2 PUSH5 0x6970667358 0x22 SLT KECCAK256 DUP1 SHL CHAINID 0xD3 PUSH30 0x43E708E3B37BC3F01185BDF98B5BEEA26AE8D77F03439E86B9FADD64736F PUSH13 0x63430008180033000000000000 "},"methodIdentifiers":{"acceptOwnership()":"79ba5097","coreFactory()":"3d8df667","createEventMarketsBatch((address,uint8,uint256,uint256,uint256,bytes32,string[],string,bytes32,uint64,uint256,uint256,address,uint256),address[])":"4f62e00b","createPriceMarketsBatch((address,uint8,uint256,uint256,uint256,bytes32,string[],address,uint256,uint8,uint256,uint256,uint256[],uint256[],uint256),address[])":"273c1780","owner()":"8da5cb5b","pendingOwner()":"e30c3978","renounceOwnership()":"715018a6","transferOwnership(address)":"f2fde38b"}}}}}