{"contracts/factory/AFTRParimutuelDeployer.sol":{"AFTRParimutuelDeployer":{"abi":[{"inputs":[{"internalType":"address","name":"factory_","type":"address"}],"stateMutability":"nonpayable","type":"constructor"},{"inputs":[],"name":"EmptyLabel","type":"error"},{"inputs":[],"name":"OnlyFactory","type":"error"},{"inputs":[{"internalType":"address","name":"owner_","type":"address"},{"internalType":"address","name":"feeRecipient_","type":"address"},{"internalType":"address","name":"collateralToken_","type":"address"},{"internalType":"uint8","name":"collateralDecimals_","type":"uint8"},{"internalType":"uint8","name":"numOutcomes_","type":"uint8"},{"internalType":"uint256","name":"virtualReserve_","type":"uint256"},{"internalType":"uint256","name":"stakeEndTimestamp_","type":"uint256"},{"internalType":"uint256","name":"resolveAfterTimestamp_","type":"uint256"},{"internalType":"bytes32","name":"metadataHash_","type":"bytes32"},{"internalType":"address","name":"optimisticOracleV2_","type":"address"},{"internalType":"bytes32","name":"umaIdentifier_","type":"bytes32"},{"internalType":"uint64","name":"umaLiveness_","type":"uint64"},{"internalType":"uint256","name":"umaProposerBond_","type":"uint256"},{"internalType":"uint256","name":"umaReward_","type":"uint256"},{"internalType":"address","name":"bondToken_","type":"address"},{"internalType":"uint256","name":"minBootstrapTotal_","type":"uint256"},{"internalType":"string[]","name":"outcomeLabels","type":"string[]"}],"name":"deployEventMarket","outputs":[{"internalType":"address","name":"market","type":"address"},{"internalType":"address[]","name":"tokens","type":"address[]"}],"stateMutability":"nonpayable","type":"function"},{"inputs":[{"internalType":"address","name":"owner_","type":"address"},{"internalType":"address","name":"feeRecipient_","type":"address"},{"internalType":"address","name":"collateralToken_","type":"address"},{"internalType":"uint8","name":"collateralDecimals_","type":"uint8"},{"internalType":"uint8","name":"numOutcomes_","type":"uint8"},{"internalType":"uint256","name":"virtualReserve_","type":"uint256"},{"internalType":"uint256","name":"stakeEndTimestamp_","type":"uint256"},{"internalType":"uint256","name":"resolveAfterTimestamp_","type":"uint256"},{"internalType":"bytes32","name":"metadataHash_","type":"bytes32"},{"internalType":"address","name":"chainlinkFeed_","type":"address"},{"internalType":"uint256","name":"priceThreshold_","type":"uint256"},{"internalType":"enum AFTRVParimutuelMarket.PriceThresholdKind","name":"priceKind_","type":"uint8"},{"internalType":"uint256","name":"priceUpperBound_","type":"uint256"},{"internalType":"uint256","name":"maxPriceStaleness_","type":"uint256"},{"internalType":"uint256","name":"minBootstrapTotal_","type":"uint256"},{"internalType":"string[]","name":"outcomeLabels","type":"string[]"}],"name":"deployPriceMarket","outputs":[{"internalType":"address","name":"market","type":"address"},{"internalType":"address[]","name":"tokens","type":"address[]"}],"stateMutability":"nonpayable","type":"function"},{"inputs":[],"name":"factory","outputs":[{"internalType":"address","name":"","type":"address"}],"stateMutability":"view","type":"function"}],"evm":{"bytecode":{"linkReferences":{},"object":"60a03461007e57601f61543138819003918201601f19168301916001600160401b038311848410176100835780849260209460405283398101031261007e57516001600160a01b038116810361007e57608052604051615397908161009a823960805181818160de015281816102770152818161035101526106a50152f35b600080fd5b634e487b7160e01b600052604160045260246000fdfe60806040908082526004803610156200001757600080fd5b600091823560e01c90816353a4e6d714620002a657508063c45a015514620002605763c494b3a6146200004957600080fd5b346200025c576102009283600319360112620002585762000069620004a5565b9162000074620004c1565b946200007f620004d8565b906200008a62000507565b6200009462000518565b6200009e620004ef565b9061016435926003841015620002545767ffffffffffffffff956101e4358781116200025057620000d39036908a0162000529565b6001600160a01b039d7f00000000000000000000000000000000000000000000000000000000000000008f169c9092909190338e900362000240576200011b9186916200063a565b9b8b519a613d4590818d019b8d8d10908d11176200022d57508f94958f98948c9a978f8f9d9a956102e09f938f9460208c60ff9b8198958d9b8397620007bc903984521691015216908d01521660608b01521660808901521660a087015260a43560c087015260c43560e087015260e435610100870152846101208701526101043561014087015216610160850152610144356101808501526101a0840152610184356101c08401526101a4356101e084015282015286610220820152866102408201528661026082015286610280820152866102a08201526101c4356102c082015203019084f0928315620002225750906200021e915193849316836200055d565b0390f35b9051903d90823e3d90fd5b8f6041602492634e487b7160e01b835252fd5b8c51630636a15760e11b81528c90fd5b8b80fd5b8980fd5b8280fd5b5080fd5b8284346200025c57816003193601126200025c57517f00000000000000000000000000000000000000000000000000000000000000006001600160a01b03168152602090f35b919390503462000258576102203660031901126200025857620002c8620004a5565b93620002d3620004c1565b620002dd620004d8565b90620002e862000507565b620002f262000518565b620002fc620004ef565b90610164359267ffffffffffffffff95868516809503620004a1576001600160a01b039b6101c4358d81169791908890036200049d576102043589811162000499576200034e8f9136908d0162000529565b917f0000000000000000000000000000000000000000000000000000000000000000169d8e33036200048b5750620003889186916200063a565b9b8b519a613d4590818d019b8d8d10908d11176200022d5750948f8c9a98958e8260ff976102e09f8f819f9d99849d908c9a8692602094620007bc903984521691015216908c01521660608a01521660808801521660a086015260a43560c086015260c43560e086015260e4356101008601526001610120860152610104356101408601528a6101608601528a6101808601528a6101a08601528a6101c08601528a6101e08601521661020084015261014435610220840152610240830152610184356102608301526101a4356102808301526102a08201526101e4356102c082015203019084f0928315620002225750906200021e915193849316836200055d565b630636a15760e11b81528c90fd5b8d80fd5b8c80fd5b8a80fd5b600435906001600160a01b0382168203620004bc57565b600080fd5b602435906001600160a01b0382168203620004bc57565b604435906001600160a01b0382168203620004bc57565b61012435906001600160a01b0382168203620004bc57565b6064359060ff82168203620004bc57565b6084359060ff82168203620004bc57565b9181601f84011215620004bc5782359167ffffffffffffffff8311620004bc576020808501948460051b010111620004bc57565b6001600160a01b03918216815260406020808301829052845191830182905260609092019382019160005b8281106200059857505050505090565b835185168652948101949281019260010162000588565b67ffffffffffffffff8111620005c85760051b60200190565b634e487b7160e01b600052604160045260246000fd5b9190811015620006245760051b81013590601e1981360301821215620004bc57019081359167ffffffffffffffff8311620004bc576020018236038113620004bc579190565b634e487b7160e01b600052603260045260246000fd5b9291926200064882620005af565b91604092835191601f1980601f8094011684019067ffffffffffffffff9185811083821117620005c85787528285526200068283620005af565b93816020950136602088013785996000610e61620045019560018060a01b0397887f000000000000000000000000000000000000000000000000000000000000000016935b818110620006df575050505050505050505050505050565b620006ec81838f620005de565b905015620007aa578d62000703828f8590620005de565b90918051928784019084821088831117620005c8578f916060908f948f8f8f908f968f9360039260e09c60ff968f9d8e39806080808b528a01528060a094858b0137600084828b010152011686019881878b0301908701528801526213d55560ea1b60c0880152169082015201520301906000f09081156200079f578c5181101562000624578c8c8c60019416918360051b01015201620006c7565b8e513d6000823e3d90fd5b8d5163cccf65f560e01b8152600490fdfe34620008d55762003d4538819003610400601f8201601f19168101906001600160401b03821190821017620008da576102e09282916040526104003912620008d5576200004e610400620008f0565b6200005b610420620008f0565b6103e0526200006c610440620008f0565b62000079610460620008f0565b6200008661048062000905565b620000936104a062000905565b6104c0516104e0516105005161052051906002821015620008d5576105405190620000c0610560620008f0565b6103405261058051610360526105a05161038081905260031115620008d5576105c0516103a0526105e0516103c052620000fc610600620008f0565b6106205161064051979096919591906001600160401b0389168903620008d55761066051610680519b909a90620001356106a0620008f0565b9d6102c061040001519f60018060a01b036103e0511615620008bc57600180546001600160a01b0319908116909155600080546103e0516001600160a01b039081169382168417835560405193929116907f8be0079c531659141344cd1fd0a4f28419497f9722a3daafe3b4186f6b6457e09080a360017f9b779b17422d0df92223018b32b4d1fa46e071723d6817e2486d003becc55f00556001600160a01b038216151580620008b3575b80620008a0575b156200086f575060ff85166002811015908162000862575b50156200082c578515620007f55742871115620007bf57868811156200078a5788156200075a576001600160a01b038316156200071b575b60805260a05260c05260e0526101005261012052610140526101605281610180526101a05215600014620005e3575050610340516001600160a01b0316159350620005b892505050576103c0511562000587576002610380511462000545575b610340516101c052610360516101e05261038051610200526103a051610220526103c0516102405260006102605260006102805260006102a05260006102c05260006102e0526000610300525b61032052600019600955604051613430620009158239608051818181610fd60152611c78015260a051818181611baa015281816130100152818161305f0152613094015260c0518181816104810152818161164401528181611b6501526132b0015260e05181610d4e0152610100518181816103ff0152818161042801528181610457015281816104d601528181611085015281816113750152818161160801528181611cb501528181611fb3015281816120e20152818161211501528181612b1701528181612c7401528181612e5e01526131320152610120518181816113cf0152612b4a0152610140518181816103a8015281816115d901526119f00152610160518181816108520152818161236601526126c301526101805181818161080b015281816112bf0152818161191401528181611a3a01528181611cf301528181611d1a01528181611d47015261232601526101a05181610f9d01526101c051818181611408015261239b01526101e051818181610f0901528181612cda01528181612d1e0152612d46015261020051818181610deb0152612caa0152610220518181816111d30152612d79015261024051818181610f6201526123f00152610260518181816108fc01528181610bbe01528181611ad101526126260152610280518181816108ba0152818161120e0152611aa401526102a051818181610993015261133701526102c0518181816109e001526114f701526102e051818181610885015261187101526103005181818161093001528181610b9b0152818161195001526122ce01526103205181818161028f0152610762015261343090f35b6103a0516103605110620002985760405162461bcd60e51b815260206004820152600c60248201526b52616e676520626f756e647360a01b6044820152606490fd5b60405162461bcd60e51b81526020600482015260096024820152685374616c656e65737360b81b6044820152606490fd5b606460405162461bcd60e51b81526020600482015260046024820152631199595960e21b6044820152fd5b6001600160a01b03811615620006f0578115620006c2576001600160401b0383161562000692576001600160a01b038616156200065e5760006101c05260006101e05260006102005260006102205260006102405260018060a01b031661026052610280526102a0526102c0526102e05261030052620002e5565b60405162461bcd60e51b815260206004820152600c60248201526b554d412063757272656e637960a01b6044820152606490fd5b60405162461bcd60e51b81526020600482015260086024820152674c6976656e65737360c01b6044820152606490fd5b60405162461bcd60e51b8152602060048201526006602482015265155350481a5960d21b6044820152606490fd5b606460405162461bcd60e51b815260206004820152600460248201526327a7bb1960e11b6044820152fd5b601260ff85160315620002385760405162461bcd60e51b815260206004820152600a6024820152694554482031382064656360b01b6044820152606490fd5b60405162461bcd60e51b81526020600482015260086024820152674d6574616461746160c01b6044820152606490fd5b60405162461bcd60e51b815260206004820152600d60248201526c2932b9b7b63b329037b93232b960991b6044820152606490fd5b60405162461bcd60e51b815260206004820152600e60248201526d14dd185ad948195b99081c185cdd60921b6044820152606490fd5b60405162461bcd60e51b815260206004820152600f60248201526e5669727475616c207265736572766560881b6044820152606490fd5b60405162461bcd60e51b815260206004820152600e60248201526d4f7574636f6d65732072616e676560901b6044820152606490fd5b6020915011153862000200565b62461bcd60e51b815260206004820152600c60248201526b5a65726f206164647265737360a01b6044820152606490fd5b506001600160a01b0383161515620001e8565b506001620001e1565b604051631e4fbdf760e01b815260006004820152602490fd5b600080fd5b634e487b7160e01b600052604160045260246000fd5b51906001600160a01b0382168203620008d557565b519060ff82168203620008d55756fe608080604052600436101561001d575b50361561001b57600080fd5b005b600090813560e01c90816306fdccc7146126ac57508063084603281461268f5780630c7bd33b146126555780630d2af8d314612610578063116a343a146125e55780631448d312146125c9578063158ef93e146125a65780632567d7d6146122fd5780632c4c5e50146122b857806335142c8c146122925780633bfdbbc914611bd95780634690484014611b9457806348d399e714611b4f578063493dcae114611a135780634b841d24146119d85780634f12a39f146118ea578063540385a3146118cc57806355c1abe91461189457806367bd151e14611859578063698b067614611580578063715018a61461151a578063769dbd6e146114df57806379ba5097146114555780637d4035c5146114375780637dbdf1f5146113f257806380c08a5d146113b75780638192a437146113995780638767d64e1461135b5780638d56aa3e146113165780638da5cb5b146112ef5780638e8daa7c146112a9578063912397c31461127d5780639228c39b14611254578063a2ffbe8e14611231578063a5dc90f2146111f6578063b9728219146111bb578063bb482f961461102e578063c19d93fb14611005578063c45a015514610fc0578063c5a1d7f014610f85578063c80d36b814610f4a578063ca45504714610f2c578063cc2f609314610ef1578063d6adc9ec14610e1b578063d7f59f5b14610dd6578063e1a4521814610db9578063e30c397814610d90578063e3eecc6f14610d72578063ec9c6c3014610d34578063ee879258146107e4578063f0d677d71461035f578063f11d7bdf14610326578063f2fde38b146102b55763ff3bb37e0361000f57346102b257806003193601126102b25760206040517f00000000000000000000000000000000000000000000000000000000000000008152f35b80fd5b50346102b25760203660031901126102b2576004356001600160a01b0381811691829003610321576102e5613291565b600180546001600160a01b031916831790558254167f38d16b8cac22d99fc7c124b9cd0de2d3fa1faef420bfe791d8c362d765e227008380a380f35b600080fd5b50346102b25760203660031901126102b257600435906005548210156102b2576020610351836127a1565b90546040519160031b1c8152f35b5060403660031901126102b2576024356001600160a01b038116900361032157610387612c3b565b60065460ff8116156107d25760081c60ff166103a281612819565b6107c0577f00000000000000000000000000000000000000000000000000000000000000004210156107ae5760ff600d5460a01c1661079c576024356001600160a01b03161561078a5760043515801561075f575b61074d5760ff7f000000000000000000000000000000000000000000000000000000000000000016156107395760ff7f000000000000000000000000000000000000000000000000000000000000000016600435066107275761047f60ff7f00000000000000000000000000000000000000000000000000000000000000001660043561295d565b7f00000000000000000000000000000000000000000000000000000000000000006001600160a01b0316806106f9575060043534036106e757905b80670de0b6b3a7640000928084810204841481151715925b60ff7f00000000000000000000000000000000000000000000000000000000000000001660ff8216101561066b5761050981612b08565b84610515821515612ac7565b610657576105258187850261295d565b90811561064557610564610538846126e6565b919080549261054d8860039583871b1c612afb565b825460001960039390931b92831b1916911b179055565b61056d8461276a565b9054911b1c6001600160a01b0316803b15610641576040516340c10f1960e01b8152602480356001600160a01b03166004830152810184905290869082908183816044810103925af180156106365790869161061e575b505060408051858152602081019390935282015260ff91600191818416906001600160a01b03602435169033907f8241d0defadd8507317470d315422749a6c8f8b8c9c0872aab09c665eaf3b66b90606090a401166104d2565b61062790612873565b6106325784386105c4565b8480fd5b6040513d88823e3d90fd5b8580fd5b604051639811e0c760e01b8152600490fd5b634e487b7160e01b84526011600452602484fd5b50600d80546001600160a81b0319163360ff60a01b19811691909117600160a01b1790915560408051600435815260208101939093526024356001600160a01b0316927f95194d0fd3e6e16008575e16c429d993d868b1a25d9993d071d1039853d22a749190a360016000805160206133db8339815191525580f35b6040516332afe6d360e21b8152600490fd5b346107155761070f906004359030903390613204565b906104ba565b60405163cc43410f60e01b8152600490fd5b604051632e7d0d2d60e21b8152600490fd5b634e487b7160e01b81526012600452602490fd5b604051638568e8bd60e01b8152600490fd5b507f0000000000000000000000000000000000000000000000000000000000000000600435106103f7565b604051637a2a206960e11b8152600490fd5b604051635c03d07560e11b8152600490fd5b604051639622d9cf60e01b8152600490fd5b60405163300b4e3360e21b8152600490fd5b6040516321c4e35760e21b8152600490fd5b50346102b257806003193601126102b2576107fd612c3b565b60065460ff8116156107d2577f0000000000000000000000000000000000000000000000000000000000000000906002821015610d20576001809203610d0e5760081c60ff1661084c81612819565b610d0e577f00000000000000000000000000000000000000000000000000000000000000004210610cfc5761087f6129bf565b426008557f00000000000000000000000000000000000000000000000000000000000000009081610b91575b6040516311df92f160e01b81527f00000000000000000000000000000000000000000000000000000000000000006004820181905242602483015260a0604483015290919085906001600160a01b037f0000000000000000000000000000000000000000000000000000000000000000811690859061092d60a48301876128bf565b907f0000000000000000000000000000000000000000000000000000000000000000166064830152876084830152816020978892038187865af1908115610b43578691610b62575b5050803b15610ad35760405163239e22ff60e11b81528381806109c87f000000000000000000000000000000000000000000000000000000000000000067ffffffffffffffff1689428960048601612c14565b038183865af1908115610b43578491610b4e575b50507f00000000000000000000000000000000000000000000000000000000000000008581610ad7575b5050803b15610ad357838391610a35938360405180968195829463120698af60e01b8452429060048501612a73565b03925af18015610ac857610ab0575b5050907fe4d3d3c620d2a4b140fa3731b55b8f71306ed6ab936d7b660b613ecdbbf69db692610a9460609361010061ff0019600654161760065560405194859442865285015260608401906128bf565b9060408301520390a16000805160206133db8339815191525580f35b610abc90939293612873565b61063257908438610a44565b6040513d84823e3d90fd5b8280fd5b6040516356ad3aad60e11b81529182908190610af99089428960048601612c14565b038187865af1908115610b43578691610b14575b5080610a06565b90809294503d8311610b3c575b610b2b818361289d565b810103126103215786918438610b0d565b503d610b21565b6040513d86823e3d90fd5b610b5790612873565b610ad35782386109dc565b90809294503d8311610b8a575b610b79818361289d565b810103126103215786918438610975565b503d610b6f565b60018060a01b03807f000000000000000000000000000000000000000000000000000000000000000016907f00000000000000000000000000000000000000000000000000000000000000001690600091604051602063095ea7b360e01b94858152836004528760245260448180875af18760005114811615610cef575b8160405215610c22575b505050506108ab565b60206000858152836004528060245260448180875af18760005114811615610cd0575b8160405215610cba57506020906000906040519482526004528560245260448180855af18560005114811615610c9b575b8260405215610c86578080610c19565b635274afe760e01b8252600482015260249150fd5b85811516610cb057813b15153d151616610c76565b823d6000823e3d90fd5b635274afe760e01b815260048101839052602490fd5b87811516610ce557833b15153d151616610c45565b503d6000823e3d90fd5b833b15153d151616610c0f565b604051630fce133d60e01b8152600490fd5b60405163baf3f0f760e01b8152600490fd5b634e487b7160e01b83526021600452602483fd5b50346102b257806003193601126102b257602060405160ff7f0000000000000000000000000000000000000000000000000000000000000000168152f35b50346102b257806003193601126102b2576020600b54604051908152f35b50346102b257806003193601126102b2576001546040516001600160a01b039091168152602090f35b50346102b257806003193601126102b25760206040516127108152f35b50346102b257806003193601126102b25760207f000000000000000000000000000000000000000000000000000000000000000060405190610e1781612819565b8152f35b50346102b257806003193601126102b25760405190808260075491610e3f83612839565b9283835260209460019186600182169182600014610ecf575050600114610e87575b5050610e6f9250038361289d565b610e836040519282849384528301906128bf565b0390f35b90859250600782526000805160206133bb8339815191525b858310610eb7575050610e6f93508201013880610e61565b80548389018501528794508693909201918101610e9f565b9250935050610e6f94915060ff191682840152151560051b8201013880610e61565b50346102b257806003193601126102b25760206040517f00000000000000000000000000000000000000000000000000000000000000008152f35b50346102b257806003193601126102b2576020600854604051908152f35b50346102b257806003193601126102b25760206040517f00000000000000000000000000000000000000000000000000000000000000008152f35b50346102b257806003193601126102b25760206040517f00000000000000000000000000000000000000000000000000000000000000008152f35b50346102b257806003193601126102b2576040517f00000000000000000000000000000000000000000000000000000000000000006001600160a01b03168152602090f35b50346102b257806003193601126102b257602060ff60065460081c1660405190610e1781612819565b50346102b25760403660031901126102b257611048612809565b60243590611054612c3b565b60065460ff8116156107d25760ff60029160081c1661107281612819565b03610d0e5781156106455760ff811660ff7f0000000000000000000000000000000000000000000000000000000000000000168110156111a95760ff60095416036111a957600a548015611197576110d3670de0b6b3a7640000918461294a565b04918215611169576110e5849261276a565b905460039190911b1c6001600160a01b0316803b15610ad35760405163079cc67960e41b8152336004820152602481019290925282908290604490829084905af18015610ac857611151575b5061113c82336132a5565b60016000805160206133db8339815191525580f35b61115a90612873565b611165578138611131565b5080fd5b60405162461bcd60e51b815260206004820152600660248201526514185e5bdd5d60d21b6044820152606490fd5b60405163b3b7d75f60e01b8152600490fd5b60405163c74a206d60e01b8152600490fd5b50346102b257806003193601126102b25760206040517f00000000000000000000000000000000000000000000000000000000000000008152f35b50346102b257806003193601126102b25760206040517f00000000000000000000000000000000000000000000000000000000000000008152f35b50346102b257806003193601126102b2576020604051670de0b6b3a76400008152f35b50346102b257806003193601126102b257600d546040516001600160a01b039091168152602090f35b50346102b25760203660031901126102b25760206112a161129c612809565b612b08565b604051908152f35b50346102b257806003193601126102b2576040517f00000000000000000000000000000000000000000000000000000000000000006002811015610d2057602092508152f35b50346102b257806003193601126102b257546040516001600160a01b039091168152602090f35b50346102b257806003193601126102b257602060405167ffffffffffffffff7f0000000000000000000000000000000000000000000000000000000000000000168152f35b50346102b257806003193601126102b257602060405160ff7f0000000000000000000000000000000000000000000000000000000000000000168152f35b50346102b257806003193601126102b2576020600c54604051908152f35b50346102b257806003193601126102b25760206040517f00000000000000000000000000000000000000000000000000000000000000008152f35b50346102b257806003193601126102b2576040517f00000000000000000000000000000000000000000000000000000000000000006001600160a01b03168152602090f35b50346102b257806003193601126102b2576020600954604051908152f35b50346102b257806003193601126102b2576001546001600160a01b0333818316036114c7576bffffffffffffffffffffffff60a01b8092166001556000549133908316176000553391167f8be0079c531659141344cd1fd0a4f28419497f9722a3daafe3b4186f6b6457e0600080a380f35b60405163118cdaa760e01b8152336004820152602490fd5b50346102b257806003193601126102b25760206040517f00000000000000000000000000000000000000000000000000000000000000008152f35b50346102b257806003193601126102b257611533613291565b600180546001600160a01b0319908116909155600080549182168155906001600160a01b03167f8be0079c531659141344cd1fd0a4f28419497f9722a3daafe3b4186f6b6457e08280a380f35b5060803660031901126102b257611595612809565b604435906001600160a01b038083169160243591838503610641576115b8612c3b565b60065460ff8116156107d25760081c60ff166115d381612819565b6107c0577f00000000000000000000000000000000000000000000000000000000000000004210156107ae5760ff82169460ff7f0000000000000000000000000000000000000000000000000000000000000000168610156111a95783159261163c8415612a92565b8515611828577f00000000000000000000000000000000000000000000000000000000000000008316806117e257508434036106e7575b61167c81612b08565b93611688851515612ac7565b670de0b6b3a764000090818702918783041417156117ce57846116aa9161295d565b9283156106455760643584106117bc576116e0826116db6116cb8c956126e6565b61054d8b83548360031b1c612afb565b61276a565b90549060031b1c1691823b15611165576040516340c10f1960e01b81526001600160a01b0391909116600482015260248101849052918290604490829084905af180156117b15761177c575b5060408051938452602084019190915282015233907f8241d0defadd8507317470d315422749a6c8f8b8c9c0872aab09c665eaf3b66b90606090a460016000805160206133db8339815191525580f35b956117a97f8241d0defadd8507317470d315422749a6c8f8b8c9c0872aab09c665eaf3b66b939297612873565b95909161172c565b6040513d89823e3d90fd5b6040516307dd37f760e41b8152600490fd5b634e487b7160e01b89526011600452602489fd5b346117fa57856117f59130903390613204565b611673565b60405162461bcd60e51b815260206004820152600660248201526509cde408aa8960d31b6044820152606490fd5b60405162461bcd60e51b8152602060048201526009602482015268149958da5c1a595b9d60ba1b6044820152606490fd5b50346102b257806003193601126102b25760206040517f00000000000000000000000000000000000000000000000000000000000000008152f35b50346102b25760203660031901126102b25760206118b360043561276a565b905460405160039290921b1c6001600160a01b03168152f35b50346102b257806003193601126102b2576020600a54604051908152f35b50346102b25760203660031901126102b257600435611907612c3b565b60ff60065416156107d2577f00000000000000000000000000000000000000000000000000000000000000006002811015610d20576001036119c65761194e811515612a92565b7f00000000000000000000000000000000000000000000000000000000000000006001600160a01b03169061198581303385613204565b6040519081527fb70ccb2b3a65ba201e6b7107278d5064431bc3acf6e932d8f869a913a679738760203392a360016000805160206133db8339815191525580f35b60405163588dccfd60e01b8152600490fd5b50346102b257806003193601126102b25760206040517f00000000000000000000000000000000000000000000000000000000000000008152f35b50346102b257806003193601126102b257611a2c612c3b565b60065460ff8116156107d2577f00000000000000000000000000000000000000000000000000000000000000006002811015610d2057600103610d0e5760ff60019160081c16611a7b81612819565b03610d0e57611acc6020611a8d6129bf565b6008546040516353b5923960e01b815293849283927f000000000000000000000000000000000000000000000000000000000000000060048501612a73565b0381857f00000000000000000000000000000000000000000000000000000000000000006001600160a01b03165af18015610ac8578290611b1b575b61113c9150611b168161312e565b612e59565b506020813d602011611b47575b81611b356020938361289d565b810103126111655761113c9051611b08565b3d9150611b28565b50346102b257806003193601126102b2576040517f00000000000000000000000000000000000000000000000000000000000000006001600160a01b03168152602090f35b50346102b257806003193601126102b2576040517f00000000000000000000000000000000000000000000000000000000000000006001600160a01b03168152602090f35b50346102b25760803660031901126102b25767ffffffffffffffff600435818111610ad357611c0c9036906004016127d8565b91806024351161228e5736602360243501121561228e5780602435600401351161228e57366024803560040135813501011161228e5760443581811161063257611c5a9036906004016127d8565b909160643590811161064157611c749036906004016127d8565b90917f00000000000000000000000000000000000000000000000000000000000000006001600160a01b0316330361227c5760065460ff811661226b5760ff7f00000000000000000000000000000000000000000000000000000000000000001687036122385760ff1916600117600655865b868110612182575060027f0000000000000000000000000000000000000000000000000000000000000000101561216e577f000000000000000000000000000000000000000000000000000000000000000015611fa9575b5050505060017f000000000000000000000000000000000000000000000000000000000000000014611e1c575b6040519180604084016040855252606083019190845b818110611dee57857fa8457c2bcbbdb92c70cae1f959de4c2fb0bd95a61c6fdabe79a02bfe7ea3860186602081888181038383015260243560040135815260243560040135602480350184830137600460243501358181018401879052601f01601f191601030190a180f35b90919283359060018060a01b038216809203611e1857908152602090810193019190600101611d82565b8680fd5b6024356004013515611f7957611e33600754612839565b601f8111611f1c575b5082601f6024356004013511600114611e9157839060243560040135611e82575b506024356004013560011b906000196024356004013560031b1c191617600755611d6c565b60248092503501013538611e5d565b600784526000805160206133bb8339815191529060046024350135601f1916855b818110611f0057506024356004013511611edd575b5050600160243560040135811b01600755611d6c565b602460001960f882356004013560031b161c199181350101351690553880611ec7565b9192602060018192602487813501013581550194019201611eb2565b600784526000805160206133bb833981519152601f602435600401350160051c81019160206024356004013510611f6f575b601f0160051c01905b818110611f645750611e3c565b848155600101611f57565b9091508190611f4e565b60405162461bcd60e51b815260206004820152600860248201526728bab2b9ba34b7b760c11b6044820152606490fd5b801561210b5760ff7f0000000000000000000000000000000000000000000000000000000000000000168114806120df575b611fe49061298d565b865b818110611ffc5750505050505b38808080611d3f565b61200781838761297d565b3561201382858761297d565b35106120ad5761202481838761297d565b3560045490600160401b9182811015612099579061204b8260016120649401600455612733565b90919082549060031b91821b91600019901b1916179055565b61206f82858761297d565b35906005805491821015612099579161204b826001959486612093950190556127a1565b01611fe6565b634e487b7160e01b8b52604160045260248bfd5b60405162461bcd60e51b815260206004820152600a60248201526942696e20626f756e647360b01b6044820152606490fd5b507f000000000000000000000000000000000000000000000000000000000000000060ff168214611fdb565b50505050600260ff7f0000000000000000000000000000000000000000000000000000000000000000160315611ff35760405162461bcd60e51b815260206004820152600b60248201526a2134b7399037b910271e9960a91b6044820152606490fd5b634e487b7160e01b87526021600452602487fd5b61218d81888861297d565b356001600160a01b038116908190036122345760028054600160401b9182821015612220576001820190556121c19061276a565b928154600394851b91821b9160018060a01b03901b191617905581549081101561220c57906121f78260018095940183556126e6565b9091825491600019911b1b1916905501611ce7565b634e487b7160e01b8a52604160045260248afd5b634e487b7160e01b8c52604160045260248cfd5b8880fd5b60405162461bcd60e51b815260206004820152600b60248201526a151bdad95b8818dbdd5b9d60aa1b6044820152606490fd5b60405162dc149f60e41b8152600490fd5b604051630636a15760e11b8152600490fd5b8380fd5b50346102b257806003193601126102b257602060ff600d5460a01c166040519015158152f35b50346102b257806003193601126102b2576040517f00000000000000000000000000000000000000000000000000000000000000006001600160a01b03168152602090f35b50346102b257806003193601126102b257612316612c3b565b60065460ff90818116156107d2577f0000000000000000000000000000000000000000000000000000000000000000600281101561259257610d0e5760081c811661236081612819565b610d0e577f00000000000000000000000000000000000000000000000000000000000000004210610cfc57604051633fabe5a360e21b8152907f00000000000000000000000000000000000000000000000000000000000000006001600160a01b031660a083600481845afa8015610b43578493859161253e575b5084841315612510576123ee9042612916565b7f0000000000000000000000000000000000000000000000000000000000000000106124e35760206004916040519283809263313ce56760e01b82525afa8015610b4357829185916124a5575b501660068110612482576005190190811161246e5790611b1661246961246361113c94612939565b8361295d565b612c6b565b634e487b7160e01b83526011600452602483fd5b60060390811161246e5790611b1661246961249f61113c94612939565b8361294a565b9150506020813d6020116124db575b816124c16020938361289d565b8101031261228e5751818116810361228e5781903861243b565b3d91506124b4565b60405162461bcd60e51b81526020600482015260056024820152645374616c6560d81b6044820152606490fd5b60405162461bcd60e51b815260206004820152600660248201526520b739bbb2b960d11b6044820152606490fd5b93505060a0833d60a01161258a575b8161255a60a0938361289d565b8101031261228e5761256b836128ff565b5060208301516125826080606086015195016128ff565b5092386123db565b3d915061254d565b634e487b7160e01b84526021600452602484fd5b50346102b257806003193601126102b257602060ff600654166040519015158152f35b50346102b257806003193601126102b257602060405160328152f35b50346102b25760203660031901126102b257600435906004548210156102b257602061035183612733565b50346102b257806003193601126102b2576040517f00000000000000000000000000000000000000000000000000000000000000006001600160a01b03168152602090f35b50346102b25760203660031901126102b257600435906003548210156102b2576020612680836126e6565b90549060031b1c604051908152f35b50346102b257806003193601126102b257602060405161012c8152f35b9050346111655781600319360112611165576020907f00000000000000000000000000000000000000000000000000000000000000008152f35b60035481101561271d5760036000527fc2575a0e9e593c00f959f8c92f12db2869c3395a3b0502d05e2516446f71f85b0190600090565b634e487b7160e01b600052603260045260246000fd5b60045481101561271d5760046000527f8a35acfbc15ff81a39ae7d344fd709f28e8600b4aa8c65c6b64bfe7fe36bd19b0190600090565b60025481101561271d5760026000527f405787fa12a823e0f2b7631cc41b3ba8828b3321ca811111fa75cd3aa3bb5ace0190600090565b60055481101561271d5760056000527f036b6384b5eca791c62761152d0c79bb0604c104a5fb6f4eb0703f3154bb3db00190600090565b9181601f840112156103215782359167ffffffffffffffff8311610321576020808501948460051b01011161032157565b6004359060ff8216820361032157565b6003111561282357565b634e487b7160e01b600052602160045260246000fd5b90600182811c92168015612869575b602083101461285357565b634e487b7160e01b600052602260045260246000fd5b91607f1691612848565b67ffffffffffffffff811161288757604052565b634e487b7160e01b600052604160045260246000fd5b90601f8019910116810190811067ffffffffffffffff82111761288757604052565b919082519283825260005b8481106128eb575050826000602080949584010152601f8019910116010190565b6020818301810151848301820152016128ca565b519069ffffffffffffffffffff8216820361032157565b9190820391821161292357565b634e487b7160e01b600052601160045260246000fd5b60ff16604d811161292357600a0a90565b8181029291811591840414171561292357565b8115612967570490565b634e487b7160e01b600052601260045260246000fd5b919081101561271d5760051b0190565b1561299457565b606460405162461bcd60e51b815260206004820152600460248201526342696e7360e01b6044820152fd5b60405190600082600754916129d383612839565b80835292602090600190818116908115612a4f5750600114612a00575b50506129fe9250038361289d565b565b91509260076000526000805160206133bb833981519152936000925b828410612a3757506129fe94505050810160200138806129f0565b85548885018301529485019487945092810192612a1c565b915050602092506129fe94915060ff191682840152151560051b82010138806129f0565b612a8f93926060928252602082015281604082015201906128bf565b90565b15612a9957565b60405162461bcd60e51b8152602060048201526006602482015265105b5bdd5b9d60d21b6044820152606490fd5b15612ace57565b60405162461bcd60e51b8152602060048201526005602482015264507269636560d81b6044820152606490fd5b9190820180921161292357565b60ff60065416156107d25760ff7f000000000000000000000000000000000000000000000000000000000000000016908160ff821610156111a95760009160007f0000000000000000000000000000000000000000000000000000000000000000915b808210612be55750508215612bb757612b86612b93926126e6565b90549060031b1c90612afb565b90670de0b6b3a76400009182810292818404149015171561292357612a8f9161295d565b60405162461bcd60e51b815260206004820152600660248201526515d95a59da1d60d21b6044820152606490fd5b9093612c0c600191612c06612bf9886126e6565b90549060031b1c86612afb565b90612afb565b940190612b6b565b949392606092612c3692875260208701526080604087015260808601906128bf565b930152565b6000805160206133db8339815191526002815414612c595760029055565b604051633ee5aeb560e01b8152600490fd5b600480549060ff7f000000000000000000000000000000000000000000000000000000000000000016809214612da057506002612ca8911461298d565b7f0000000000000000000000000000000000000000000000000000000000000000612cd281612819565b80612d0b57507f000000000000000000000000000000000000000000000000000000000000000011155b15612d0657600090565b600190565b80612d17600192612819565b03612d44577f00000000000000000000000000000000000000000000000000000000000000001015612cfc565b7f00000000000000000000000000000000000000000000000000000000000000008110159081612d75575b50612cfc565b90507f0000000000000000000000000000000000000000000000000000000000000000101538612d6f565b906000918293835b838110612dec5750505050600103612dbd5790565b60405162461bcd60e51b815260206004820152600760248201526627b732903134b760c91b6044820152606490fd5b612df581612733565b9054600391821b1c8310159081612e40575b50612e15575b600101612da8565b9450926000198114612e2b576001019284612e0d565b601182634e487b7160e01b6000525260246000fd5b9050612e4b826127a1565b9054911b1c82111538612e07565b6000907f000000000000000000000000000000000000000000000000000000000000000060ff16825b81811061310657505061012c9182810290801593818304148417156129235761271080920493603282029082820460321417156129235760049260209104612ed486612ece8382612916565b94612916565b92612ede8661276a565b90546040516318160ddd60e01b8152966001600160a01b0395928892839160031b1c87165afa9485156130fa576000956130c6575b50612f1d866126e6565b90549060031b1c928761303a575b505083159050612fc85781612f3f91612afb565b94670de0b6b3a76400009586810296818804149015171561292357612f88612fc3937f1156c82479e3534ddd36ca57cd84557fd8b25737545b9b3572c4f2878613af549761295d565b600a555b83600955600b5542600c5561020061ff00196006541617600655604051938493846040919493926060820195825260208201520152565b0390a1565b612fc3925094612ffe827f1156c82479e3534ddd36ca57cd84557fd8b25737545b9b3572c4f2878613af54976000600a55612afb565b8061300a575b50612f8c565b613034907f00000000000000000000000000000000000000000000000000000000000000006132a5565b38613004565b80600d54161515806130bd575b1561308b576130839261305d91600d54166132a5565b7f00000000000000000000000000000000000000000000000000000000000000006132a5565b388080612f2b565b5050506130b8857f00000000000000000000000000000000000000000000000000000000000000006132a5565b613083565b50821515613047565b9094506020813d6020116130f2575b816130e26020938361289d565b8101031261032157519338612f13565b3d91506130d5565b6040513d6000823e3d90fd5b828103613116575b600101612e82565b92613126600191612b86866126e6565b93905061310e565b60ff7f00000000000000000000000000000000000000000000000000000000000000001690600282146131ea57600081126131b857670de0b6b3a7640000908181106131b05704905b8110156131815790565b60405162461bcd60e51b81526020600482015260076024820152660aa9a8240d2c8f60cb1b6044820152606490fd5b905090613177565b60405162461bcd60e51b815260206004820152600a602482015269283934b1b29039b4b3b760b11b6044820152606490fd5b670de0b6b3a76400009150146131ff57600190565b600090565b6040516323b872dd60e01b60009081526001600160a01b03938416600452938316602452604494909452909160209060648180855af1600160005114811615613271575b8360405260006060521561325b57505050565b635274afe760e01b835216600482015260249150fd5b600181151661328757813b15153d151616613248565b833d6000823e3d90fd5b6000546001600160a01b031633036114c757565b906001600160a01b037f00000000000000000000000000000000000000000000000000000000000000008116806132e157506129fe9216613336565b91906020916000916040519563a9059cbb60e01b84521660045260245260448180855af1600160005114811615613320575b8260405215610c86575050565b6001811516610cb057813b15153d151616613313565b81471061339b576040516020810181811067ffffffffffffffff82111761288757604052600080809481948280955260018060a01b03165af1156133775750565b3d1561338957604051903d90823e3d90fd5b60405163d6bda27560e01b8152600490fd5b60405163cf47918160e01b815247600482015260248101839052604490fdfea66cc928b5edb82af9bd49922954155ab7b0942694bea4ce44661d9a8736c6889b779b17422d0df92223018b32b4d1fa46e071723d6817e2486d003becc55f00a264697066735822122005f085aa79ef80a8757db63e84779937039bbec35de8d2494b62c662804de46064736f6c6343000818003360a060405234620003b25762000e61803803806200001d81620003b7565b928339810190608081830312620003b25780516001600160401b0390818111620003b257836200004f918401620003dd565b926020908184015190838211620003b2576200006d918501620003dd565b9360408401519360ff85168503620003b257606001516001600160a01b03958682169491859003620003b2578251828111620002b2576003918254916001958684811c94168015620003a7575b8885101462000391578190601f948581116200033b575b508890858311600114620002d457600092620002c8575b505060001982861b1c191690861b1783555b8051938411620002b25760049586548681811c91168015620002a7575b82821014620002925783811162000247575b5080928511600114620001d95750938394918492600095620001cd575b50501b92600019911b1c19161781555b8115620001b55750600580546001600160a01b03198116831790915560405193167f8be0079c531659141344cd1fd0a4f28419497f9722a3daafe3b4186f6b6457e0600080a3608052610a119081620004508239608051816105640152f35b602490600060405191631e4fbdf760e01b8352820152fd5b01519350388062000146565b92919084601f1981168860005285600020956000905b898383106200022c575050501062000211575b50505050811b01815562000156565b01519060f884600019921b161c191690553880808062000202565b858701518955909701969485019488935090810190620001ef565b87600052816000208480880160051c82019284891062000288575b0160051c019087905b8281106200027b57505062000129565b600081550187906200026b565b9250819262000262565b602288634e487b7160e01b6000525260246000fd5b90607f169062000117565b634e487b7160e01b600052604160045260246000fd5b015190503880620000e8565b90889350601f19831691876000528a6000209260005b8c8282106200032457505084116200030b575b505050811b018355620000fa565b015160001983881b60f8161c19169055388080620002fd565b8385015186558c97909501949384019301620002ea565b90915085600052886000208580850160051c8201928b861062000387575b918a91869594930160051c01915b82811062000377575050620000d1565b600081558594508a910162000367565b9250819262000359565b634e487b7160e01b600052602260045260246000fd5b93607f1693620000ba565b600080fd5b6040519190601f01601f191682016001600160401b03811183821017620002b257604052565b919080601f84011215620003b25782516001600160401b038111620002b25760209062000413601f8201601f19168301620003b7565b92818452828287010111620003b25760005b8181106200043b57508260009394955001015290565b85810183015184820184015282016200042556fe6080604081815260048036101561001557600080fd5b600092833560e01c90816306fdde031461068d57508063095ea7b3146105e457806318160ddd146105c557806323b872dd14610588578063313ce5671461054a57806340c10f191461049b57806370a0823114610464578063715018a61461040457806379cc6790146103185780638da5cb5b146102ef57806395d89b41146101cd578063a9059cbb1461019c578063dd62ed3e1461014f5763f2fde38b146100bd57600080fd5b3461014b57602036600319011261014b576100d66107cd565b906100df6109af565b6001600160a01b03918216928315610135575050600554826bffffffffffffffffffffffff60a01b821617600555167f8be0079c531659141344cd1fd0a4f28419497f9722a3daafe3b4186f6b6457e08380a380f35b51631e4fbdf760e01b8152908101849052602490fd5b8280fd5b5050346101985780600319360112610198578060209261016d6107cd565b6101756107e8565b6001600160a01b0391821683526001865283832091168252845220549051908152f35b5080fd5b5050346101985780600319360112610198576020906101c66101bc6107cd565b60243590336108d1565b5160018152f35b5091903461019857816003193601126101985780519082845460018160011c90600183169283156102e5575b60209384841081146102d2578388529081156102b65750600114610261575b505050829003601f01601f191682019267ffffffffffffffff84118385101761024e575082918261024a925282610784565b0390f35b634e487b7160e01b815260418552602490fd5b8787529192508591837f8a35acfbc15ff81a39ae7d344fd709f28e8600b4aa8c65c6b64bfe7fe36bd19b5b8385106102a25750505050830101388080610218565b80548886018301529301928490820161028c565b60ff1916878501525050151560051b8401019050388080610218565b634e487b7160e01b895260228a52602489fd5b91607f16916101f9565b50503461019857816003193601126101985760055490516001600160a01b039091168152602090f35b508290346101985782600319360112610198576103336107cd565b6001600160a01b0381169160243591338490036103f4575b83156103dd578385528460205285852054918383106103a95750508184957fddf252ad1be2c89b69c2b068fc378daa952ba7f163c4a11628f55a4df523b3ef936020938688528785520381872055816002540360025551908152a380f35b865163391434e360e21b81526001600160a01b03909216908201908152602081018390526040810184905281906060010390fd5b8551634b637e8f60e11b8152808301869052602490fd5b6103ff8333836107fe565b61034b565b833461046157806003193601126104615761041d6109af565b600580546001600160a01b0319811690915581906001600160a01b03167f8be0079c531659141344cd1fd0a4f28419497f9722a3daafe3b4186f6b6457e08280a380f35b80fd5b5050346101985760203660031901126101985760209181906001600160a01b0361048c6107cd565b16815280845220549051908152f35b50903461014b578060031936011261014b576104b56107cd565b90602435916104c26109af565b6001600160a01b03169283156105355760025490838201809211610522575084927fddf252ad1be2c89b69c2b068fc378daa952ba7f163c4a11628f55a4df523b3ef9260209260025585855284835280852082815401905551908152a380f35b634e487b7160e01b865260119052602485fd5b84602492519163ec442f0560e01b8352820152fd5b5050346101985781600319360112610198576020905160ff7f0000000000000000000000000000000000000000000000000000000000000000168152f35b505034610198576060366003190112610198576020906101c66105a96107cd565b6105b16107e8565b604435916105c08333836107fe565b6108d1565b5050346101985781600319360112610198576020906002549051908152f35b503461014b578160031936011261014b576105fd6107cd565b602435903315610676576001600160a01b031691821561065f57508083602095338152600187528181208582528752205582519081527f8c5be1e5ebec7d5bd14f71427d1e84f3dd0314c0f7b2291e5b200ac8c7c3b925843392a35160018152f35b8351634a1406b160e11b8152908101859052602490fd5b835163e602df0560e01b8152808401869052602490fd5b849150833461014b578260031936011261014b578260035460018160011c906001831692831561077a575b60209384841081146102d25783885290811561075e575060011461070857505050829003601f01601f191682019267ffffffffffffffff84118385101761024e575082918261024a925282610784565b600387529192508591837fc2575a0e9e593c00f959f8c92f12db2869c3395a3b0502d05e2516446f71f85b5b83851061074a5750505050830101858080610218565b805488860183015293019284908201610734565b60ff1916878501525050151560051b8401019050858080610218565b91607f16916106b8565b6020808252825181830181905290939260005b8281106107b957505060409293506000838284010152601f8019910116010190565b818101860151848201604001528501610797565b600435906001600160a01b03821682036107e357565b600080fd5b602435906001600160a01b03821682036107e357565b9160018060a01b03809316916000938385526001602052604093848620918316918287526020528486205492600019841061083d575b50505050505050565b8484106108a15750801561088957811561087157855260016020528385209085526020520391205538808080808080610834565b8451634a1406b160e11b815260048101879052602490fd5b845163e602df0560e01b815260048101879052602490fd5b8551637dc7a0d960e11b81526001600160a01b039190911660048201526024810184905260448101859052606490fd5b916001600160a01b03808416928315610996571692831561097d576000908382528160205260408220549083821061094b575091604082827fddf252ad1be2c89b69c2b068fc378daa952ba7f163c4a11628f55a4df523b3ef958760209652828652038282205586815220818154019055604051908152a3565b60405163391434e360e21b81526001600160a01b03919091166004820152602481019190915260448101839052606490fd5b60405163ec442f0560e01b815260006004820152602490fd5b604051634b637e8f60e11b815260006004820152602490fd5b6005546001600160a01b031633036109c357565b60405163118cdaa760e01b8152336004820152602490fdfea2646970667358221220f466ad3611f91c0035afc98cd212a546e1bf84827e5f6d1f969630ef715b53fc64736f6c63430008180033a2646970667358221220b31acb6d9e4688e53e319e0f97e57bcc71f7a140057a16294a726f2683d1251764736f6c63430008180033","opcodes":"PUSH1 0xA0 CALLVALUE PUSH2 0x7E JUMPI PUSH1 0x1F PUSH2 0x5431 CODESIZE DUP2 SWAP1 SUB SWAP2 DUP3 ADD PUSH1 0x1F NOT AND DUP4 ADD SWAP2 PUSH1 0x1 PUSH1 0x1 PUSH1 0x40 SHL SUB DUP4 GT DUP5 DUP5 LT OR PUSH2 0x83 JUMPI DUP1 DUP5 SWAP3 PUSH1 0x20 SWAP5 PUSH1 0x40 MSTORE DUP4 CODECOPY DUP2 ADD SUB SLT PUSH2 0x7E JUMPI MLOAD PUSH1 0x1 PUSH1 0x1 PUSH1 0xA0 SHL SUB DUP2 AND DUP2 SUB PUSH2 0x7E JUMPI PUSH1 0x80 MSTORE PUSH1 0x40 MLOAD PUSH2 0x5397 SWAP1 DUP2 PUSH2 0x9A DUP3 CODECOPY PUSH1 0x80 MLOAD DUP2 DUP2 DUP2 PUSH1 0xDE ADD MSTORE DUP2 DUP2 PUSH2 0x277 ADD MSTORE DUP2 DUP2 PUSH2 0x351 ADD MSTORE PUSH2 0x6A5 ADD MSTORE RETURN JUMPDEST PUSH1 0x0 DUP1 REVERT JUMPDEST PUSH4 0x4E487B71 PUSH1 0xE0 SHL PUSH1 0x0 MSTORE PUSH1 0x41 PUSH1 0x4 MSTORE PUSH1 0x24 PUSH1 0x0 REVERT INVALID PUSH1 0x80 PUSH1 0x40 SWAP1 DUP1 DUP3 MSTORE PUSH1 0x4 DUP1 CALLDATASIZE LT ISZERO PUSH3 0x17 JUMPI PUSH1 0x0 DUP1 REVERT JUMPDEST PUSH1 0x0 SWAP2 DUP3 CALLDATALOAD PUSH1 0xE0 SHR SWAP1 DUP2 PUSH4 0x53A4E6D7 EQ PUSH3 0x2A6 JUMPI POP DUP1 PUSH4 0xC45A0155 EQ PUSH3 0x260 JUMPI PUSH4 0xC494B3A6 EQ PUSH3 0x49 JUMPI PUSH1 0x0 DUP1 REVERT JUMPDEST CALLVALUE PUSH3 0x25C JUMPI PUSH2 0x200 SWAP3 DUP4 PUSH1 0x3 NOT CALLDATASIZE ADD SLT PUSH3 0x258 JUMPI PUSH3 0x69 PUSH3 0x4A5 JUMP JUMPDEST SWAP2 PUSH3 0x74 PUSH3 0x4C1 JUMP JUMPDEST SWAP5 PUSH3 0x7F PUSH3 0x4D8 JUMP JUMPDEST SWAP1 PUSH3 0x8A PUSH3 0x507 JUMP JUMPDEST PUSH3 0x94 PUSH3 0x518 JUMP JUMPDEST PUSH3 0x9E PUSH3 0x4EF JUMP JUMPDEST SWAP1 PUSH2 0x164 CALLDATALOAD SWAP3 PUSH1 0x3 DUP5 LT ISZERO PUSH3 0x254 JUMPI PUSH8 0xFFFFFFFFFFFFFFFF SWAP6 PUSH2 0x1E4 CALLDATALOAD DUP8 DUP2 GT PUSH3 0x250 JUMPI PUSH3 0xD3 SWAP1 CALLDATASIZE SWAP1 DUP11 ADD PUSH3 0x529 JUMP JUMPDEST PUSH1 0x1 PUSH1 0x1 PUSH1 0xA0 SHL SUB SWAP14 PUSH32 0x0 DUP16 AND SWAP13 SWAP1 SWAP3 SWAP1 SWAP2 SWAP1 CALLER DUP15 SWAP1 SUB PUSH3 0x240 JUMPI PUSH3 0x11B SWAP2 DUP7 SWAP2 PUSH3 0x63A JUMP JUMPDEST SWAP12 DUP12 MLOAD SWAP11 PUSH2 0x3D45 SWAP1 DUP2 DUP14 ADD SWAP12 DUP14 DUP14 LT SWAP1 DUP14 GT OR PUSH3 0x22D JUMPI POP DUP16 SWAP5 SWAP6 DUP16 SWAP9 SWAP5 DUP13 SWAP11 SWAP8 DUP16 DUP16 SWAP14 SWAP11 SWAP6 PUSH2 0x2E0 SWAP16 SWAP4 DUP16 SWAP5 PUSH1 0x20 DUP13 PUSH1 0xFF SWAP12 DUP2 SWAP9 SWAP6 DUP14 SWAP12 DUP4 SWAP8 PUSH3 0x7BC SWAP1 CODECOPY DUP5 MSTORE AND SWAP2 ADD MSTORE AND SWAP1 DUP14 ADD MSTORE AND PUSH1 0x60 DUP12 ADD MSTORE AND PUSH1 0x80 DUP10 ADD MSTORE AND PUSH1 0xA0 DUP8 ADD MSTORE PUSH1 0xA4 CALLDATALOAD PUSH1 0xC0 DUP8 ADD MSTORE PUSH1 0xC4 CALLDATALOAD PUSH1 0xE0 DUP8 ADD MSTORE PUSH1 0xE4 CALLDATALOAD PUSH2 0x100 DUP8 ADD MSTORE DUP5 PUSH2 0x120 DUP8 ADD MSTORE PUSH2 0x104 CALLDATALOAD PUSH2 0x140 DUP8 ADD MSTORE AND PUSH2 0x160 DUP6 ADD MSTORE PUSH2 0x144 CALLDATALOAD PUSH2 0x180 DUP6 ADD MSTORE PUSH2 0x1A0 DUP5 ADD MSTORE PUSH2 0x184 CALLDATALOAD PUSH2 0x1C0 DUP5 ADD MSTORE PUSH2 0x1A4 CALLDATALOAD PUSH2 0x1E0 DUP5 ADD MSTORE DUP3 ADD MSTORE DUP7 PUSH2 0x220 DUP3 ADD MSTORE DUP7 PUSH2 0x240 DUP3 ADD MSTORE DUP7 PUSH2 0x260 DUP3 ADD MSTORE DUP7 PUSH2 0x280 DUP3 ADD MSTORE DUP7 PUSH2 0x2A0 DUP3 ADD MSTORE PUSH2 0x1C4 CALLDATALOAD PUSH2 0x2C0 DUP3 ADD MSTORE SUB ADD SWAP1 DUP5 CREATE SWAP3 DUP4 ISZERO PUSH3 0x222 JUMPI POP SWAP1 PUSH3 0x21E SWAP2 MLOAD SWAP4 DUP5 SWAP4 AND DUP4 PUSH3 0x55D JUMP JUMPDEST SUB SWAP1 RETURN JUMPDEST SWAP1 MLOAD SWAP1 RETURNDATASIZE SWAP1 DUP3 RETURNDATACOPY RETURNDATASIZE SWAP1 REVERT JUMPDEST DUP16 PUSH1 0x41 PUSH1 0x24 SWAP3 PUSH4 0x4E487B71 PUSH1 0xE0 SHL DUP4 MSTORE MSTORE REVERT JUMPDEST DUP13 MLOAD PUSH4 0x636A157 PUSH1 0xE1 SHL DUP2 MSTORE DUP13 SWAP1 REVERT JUMPDEST DUP12 DUP1 REVERT JUMPDEST DUP10 DUP1 REVERT JUMPDEST DUP3 DUP1 REVERT JUMPDEST POP DUP1 REVERT JUMPDEST DUP3 DUP5 CALLVALUE PUSH3 0x25C JUMPI DUP2 PUSH1 0x3 NOT CALLDATASIZE ADD SLT PUSH3 0x25C JUMPI MLOAD PUSH32 0x0 PUSH1 0x1 PUSH1 0x1 PUSH1 0xA0 SHL SUB AND DUP2 MSTORE PUSH1 0x20 SWAP1 RETURN JUMPDEST SWAP2 SWAP4 SWAP1 POP CALLVALUE PUSH3 0x258 JUMPI PUSH2 0x220 CALLDATASIZE PUSH1 0x3 NOT ADD SLT PUSH3 0x258 JUMPI PUSH3 0x2C8 PUSH3 0x4A5 JUMP JUMPDEST SWAP4 PUSH3 0x2D3 PUSH3 0x4C1 JUMP JUMPDEST PUSH3 0x2DD PUSH3 0x4D8 JUMP JUMPDEST SWAP1 PUSH3 0x2E8 PUSH3 0x507 JUMP JUMPDEST PUSH3 0x2F2 PUSH3 0x518 JUMP JUMPDEST PUSH3 0x2FC PUSH3 0x4EF JUMP JUMPDEST SWAP1 PUSH2 0x164 CALLDATALOAD SWAP3 PUSH8 0xFFFFFFFFFFFFFFFF SWAP6 DUP7 DUP6 AND DUP1 SWAP6 SUB PUSH3 0x4A1 JUMPI PUSH1 0x1 PUSH1 0x1 PUSH1 0xA0 SHL SUB SWAP12 PUSH2 0x1C4 CALLDATALOAD DUP14 DUP2 AND SWAP8 SWAP2 SWAP1 DUP9 SWAP1 SUB PUSH3 0x49D JUMPI PUSH2 0x204 CALLDATALOAD DUP10 DUP2 GT PUSH3 0x499 JUMPI PUSH3 0x34E DUP16 SWAP2 CALLDATASIZE SWAP1 DUP14 ADD PUSH3 0x529 JUMP JUMPDEST SWAP2 PUSH32 0x0 AND SWAP14 DUP15 CALLER SUB PUSH3 0x48B JUMPI POP PUSH3 0x388 SWAP2 DUP7 SWAP2 PUSH3 0x63A JUMP JUMPDEST SWAP12 DUP12 MLOAD SWAP11 PUSH2 0x3D45 SWAP1 DUP2 DUP14 ADD SWAP12 DUP14 DUP14 LT SWAP1 DUP14 GT OR PUSH3 0x22D JUMPI POP SWAP5 DUP16 DUP13 SWAP11 SWAP9 SWAP6 DUP15 DUP3 PUSH1 0xFF SWAP8 PUSH2 0x2E0 SWAP16 DUP16 DUP2 SWAP16 SWAP14 SWAP10 DUP5 SWAP14 SWAP1 DUP13 SWAP11 DUP7 SWAP3 PUSH1 0x20 SWAP5 PUSH3 0x7BC SWAP1 CODECOPY DUP5 MSTORE AND SWAP2 ADD MSTORE AND SWAP1 DUP13 ADD MSTORE AND PUSH1 0x60 DUP11 ADD MSTORE AND PUSH1 0x80 DUP9 ADD MSTORE AND PUSH1 0xA0 DUP7 ADD MSTORE PUSH1 0xA4 CALLDATALOAD PUSH1 0xC0 DUP7 ADD MSTORE PUSH1 0xC4 CALLDATALOAD PUSH1 0xE0 DUP7 ADD MSTORE PUSH1 0xE4 CALLDATALOAD PUSH2 0x100 DUP7 ADD MSTORE PUSH1 0x1 PUSH2 0x120 DUP7 ADD MSTORE PUSH2 0x104 CALLDATALOAD PUSH2 0x140 DUP7 ADD MSTORE DUP11 PUSH2 0x160 DUP7 ADD MSTORE DUP11 PUSH2 0x180 DUP7 ADD MSTORE DUP11 PUSH2 0x1A0 DUP7 ADD MSTORE DUP11 PUSH2 0x1C0 DUP7 ADD MSTORE DUP11 PUSH2 0x1E0 DUP7 ADD MSTORE AND PUSH2 0x200 DUP5 ADD MSTORE PUSH2 0x144 CALLDATALOAD PUSH2 0x220 DUP5 ADD MSTORE PUSH2 0x240 DUP4 ADD MSTORE PUSH2 0x184 CALLDATALOAD PUSH2 0x260 DUP4 ADD MSTORE PUSH2 0x1A4 CALLDATALOAD PUSH2 0x280 DUP4 ADD MSTORE PUSH2 0x2A0 DUP3 ADD MSTORE PUSH2 0x1E4 CALLDATALOAD PUSH2 0x2C0 DUP3 ADD MSTORE SUB ADD SWAP1 DUP5 CREATE SWAP3 DUP4 ISZERO PUSH3 0x222 JUMPI POP SWAP1 PUSH3 0x21E SWAP2 MLOAD SWAP4 DUP5 SWAP4 AND DUP4 PUSH3 0x55D JUMP JUMPDEST PUSH4 0x636A157 PUSH1 0xE1 SHL DUP2 MSTORE DUP13 SWAP1 REVERT JUMPDEST DUP14 DUP1 REVERT JUMPDEST DUP13 DUP1 REVERT JUMPDEST DUP11 DUP1 REVERT JUMPDEST PUSH1 0x4 CALLDATALOAD SWAP1 PUSH1 0x1 PUSH1 0x1 PUSH1 0xA0 SHL SUB DUP3 AND DUP3 SUB PUSH3 0x4BC JUMPI JUMP JUMPDEST PUSH1 0x0 DUP1 REVERT JUMPDEST PUSH1 0x24 CALLDATALOAD SWAP1 PUSH1 0x1 PUSH1 0x1 PUSH1 0xA0 SHL SUB DUP3 AND DUP3 SUB PUSH3 0x4BC JUMPI JUMP JUMPDEST PUSH1 0x44 CALLDATALOAD SWAP1 PUSH1 0x1 PUSH1 0x1 PUSH1 0xA0 SHL SUB DUP3 AND DUP3 SUB PUSH3 0x4BC JUMPI JUMP JUMPDEST PUSH2 0x124 CALLDATALOAD SWAP1 PUSH1 0x1 PUSH1 0x1 PUSH1 0xA0 SHL SUB DUP3 AND DUP3 SUB PUSH3 0x4BC JUMPI JUMP JUMPDEST PUSH1 0x64 CALLDATALOAD SWAP1 PUSH1 0xFF DUP3 AND DUP3 SUB PUSH3 0x4BC JUMPI JUMP JUMPDEST PUSH1 0x84 CALLDATALOAD SWAP1 PUSH1 0xFF DUP3 AND DUP3 SUB PUSH3 0x4BC JUMPI JUMP JUMPDEST SWAP2 DUP2 PUSH1 0x1F DUP5 ADD SLT ISZERO PUSH3 0x4BC JUMPI DUP3 CALLDATALOAD SWAP2 PUSH8 0xFFFFFFFFFFFFFFFF DUP4 GT PUSH3 0x4BC JUMPI PUSH1 0x20 DUP1 DUP6 ADD SWAP5 DUP5 PUSH1 0x5 SHL ADD ADD GT PUSH3 0x4BC JUMPI JUMP JUMPDEST PUSH1 0x1 PUSH1 0x1 PUSH1 0xA0 SHL SUB SWAP2 DUP3 AND DUP2 MSTORE PUSH1 0x40 PUSH1 0x20 DUP1 DUP4 ADD DUP3 SWAP1 MSTORE DUP5 MLOAD SWAP2 DUP4 ADD DUP3 SWAP1 MSTORE PUSH1 0x60 SWAP1 SWAP3 ADD SWAP4 DUP3 ADD SWAP2 PUSH1 0x0 JUMPDEST DUP3 DUP2 LT PUSH3 0x598 JUMPI POP POP POP POP POP SWAP1 JUMP JUMPDEST DUP4 MLOAD DUP6 AND DUP7 MSTORE SWAP5 DUP2 ADD SWAP5 SWAP3 DUP2 ADD SWAP3 PUSH1 0x1 ADD PUSH3 0x588 JUMP JUMPDEST PUSH8 0xFFFFFFFFFFFFFFFF DUP2 GT PUSH3 0x5C8 JUMPI PUSH1 0x5 SHL PUSH1 0x20 ADD SWAP1 JUMP JUMPDEST PUSH4 0x4E487B71 PUSH1 0xE0 SHL PUSH1 0x0 MSTORE PUSH1 0x41 PUSH1 0x4 MSTORE PUSH1 0x24 PUSH1 0x0 REVERT JUMPDEST SWAP2 SWAP1 DUP2 LT ISZERO PUSH3 0x624 JUMPI PUSH1 0x5 SHL DUP2 ADD CALLDATALOAD SWAP1 PUSH1 0x1E NOT DUP2 CALLDATASIZE SUB ADD DUP3 SLT ISZERO PUSH3 0x4BC JUMPI ADD SWAP1 DUP2 CALLDATALOAD SWAP2 PUSH8 0xFFFFFFFFFFFFFFFF DUP4 GT PUSH3 0x4BC JUMPI PUSH1 0x20 ADD DUP3 CALLDATASIZE SUB DUP2 SGT PUSH3 0x4BC JUMPI SWAP2 SWAP1 JUMP JUMPDEST PUSH4 0x4E487B71 PUSH1 0xE0 SHL PUSH1 0x0 MSTORE PUSH1 0x32 PUSH1 0x4 MSTORE PUSH1 0x24 PUSH1 0x0 REVERT JUMPDEST SWAP3 SWAP2 SWAP3 PUSH3 0x648 DUP3 PUSH3 0x5AF JUMP JUMPDEST SWAP2 PUSH1 0x40 SWAP3 DUP4 MLOAD SWAP2 PUSH1 0x1F NOT DUP1 PUSH1 0x1F DUP1 SWAP5 ADD AND DUP5 ADD SWAP1 PUSH8 0xFFFFFFFFFFFFFFFF SWAP2 DUP6 DUP2 LT DUP4 DUP3 GT OR PUSH3 0x5C8 JUMPI DUP8 MSTORE DUP3 DUP6 MSTORE PUSH3 0x682 DUP4 PUSH3 0x5AF JUMP JUMPDEST SWAP4 DUP2 PUSH1 0x20 SWAP6 ADD CALLDATASIZE PUSH1 0x20 DUP9 ADD CALLDATACOPY DUP6 SWAP10 PUSH1 0x0 PUSH2 0xE61 PUSH3 0x4501 SWAP6 PUSH1 0x1 DUP1 PUSH1 0xA0 SHL SUB SWAP8 DUP9 PUSH32 0x0 AND SWAP4 JUMPDEST DUP2 DUP2 LT PUSH3 0x6DF JUMPI POP POP POP POP POP POP POP POP POP POP POP POP POP POP JUMP JUMPDEST PUSH3 0x6EC DUP2 DUP4 DUP16 PUSH3 0x5DE JUMP JUMPDEST SWAP1 POP ISZERO PUSH3 0x7AA JUMPI DUP14 PUSH3 0x703 DUP3 DUP16 DUP6 SWAP1 PUSH3 0x5DE JUMP JUMPDEST SWAP1 SWAP2 DUP1 MLOAD SWAP3 DUP8 DUP5 ADD SWAP1 DUP5 DUP3 LT DUP9 DUP4 GT OR PUSH3 0x5C8 JUMPI DUP16 SWAP2 PUSH1 0x60 SWAP1 DUP16 SWAP5 DUP16 DUP16 DUP16 SWAP1 DUP16 SWAP7 DUP16 SWAP4 PUSH1 0x3 SWAP3 PUSH1 0xE0 SWAP13 PUSH1 0xFF SWAP7 DUP16 SWAP14 DUP15 CODECOPY DUP1 PUSH1 0x80 DUP1 DUP12 MSTORE DUP11 ADD MSTORE DUP1 PUSH1 0xA0 SWAP5 DUP6 DUP12 ADD CALLDATACOPY PUSH1 0x0 DUP5 DUP3 DUP12 ADD ADD MSTORE ADD AND DUP7 ADD SWAP9 DUP2 DUP8 DUP12 SUB ADD SWAP1 DUP8 ADD MSTORE DUP9 ADD MSTORE PUSH3 0x13D555 PUSH1 0xEA SHL PUSH1 0xC0 DUP9 ADD MSTORE AND SWAP1 DUP3 ADD MSTORE ADD MSTORE SUB ADD SWAP1 PUSH1 0x0 CREATE SWAP1 DUP2 ISZERO PUSH3 0x79F JUMPI DUP13 MLOAD DUP2 LT ISZERO PUSH3 0x624 JUMPI DUP13 DUP13 DUP13 PUSH1 0x1 SWAP5 AND SWAP2 DUP4 PUSH1 0x5 SHL ADD ADD MSTORE ADD PUSH3 0x6C7 JUMP JUMPDEST DUP15 MLOAD RETURNDATASIZE PUSH1 0x0 DUP3 RETURNDATACOPY RETURNDATASIZE SWAP1 REVERT JUMPDEST DUP14 MLOAD PUSH4 0xCCCF65F5 PUSH1 0xE0 SHL DUP2 MSTORE PUSH1 0x4 SWAP1 REVERT INVALID CALLVALUE PUSH3 0x8D5 JUMPI PUSH3 0x3D45 CODESIZE DUP2 SWAP1 SUB PUSH2 0x400 PUSH1 0x1F DUP3 ADD PUSH1 0x1F NOT AND DUP2 ADD SWAP1 PUSH1 0x1 PUSH1 0x1 PUSH1 0x40 SHL SUB DUP3 GT SWAP1 DUP3 LT OR PUSH3 0x8DA JUMPI PUSH2 0x2E0 SWAP3 DUP3 SWAP2 PUSH1 0x40 MSTORE PUSH2 0x400 CODECOPY SLT PUSH3 0x8D5 JUMPI PUSH3 0x4E PUSH2 0x400 PUSH3 0x8F0 JUMP JUMPDEST PUSH3 0x5B PUSH2 0x420 PUSH3 0x8F0 JUMP JUMPDEST PUSH2 0x3E0 MSTORE PUSH3 0x6C PUSH2 0x440 PUSH3 0x8F0 JUMP JUMPDEST PUSH3 0x79 PUSH2 0x460 PUSH3 0x8F0 JUMP JUMPDEST PUSH3 0x86 PUSH2 0x480 PUSH3 0x905 JUMP JUMPDEST PUSH3 0x93 PUSH2 0x4A0 PUSH3 0x905 JUMP JUMPDEST PUSH2 0x4C0 MLOAD PUSH2 0x4E0 MLOAD PUSH2 0x500 MLOAD PUSH2 0x520 MLOAD SWAP1 PUSH1 0x2 DUP3 LT ISZERO PUSH3 0x8D5 JUMPI PUSH2 0x540 MLOAD SWAP1 PUSH3 0xC0 PUSH2 0x560 PUSH3 0x8F0 JUMP JUMPDEST PUSH2 0x340 MSTORE PUSH2 0x580 MLOAD PUSH2 0x360 MSTORE PUSH2 0x5A0 MLOAD PUSH2 0x380 DUP2 SWAP1 MSTORE PUSH1 0x3 GT ISZERO PUSH3 0x8D5 JUMPI PUSH2 0x5C0 MLOAD PUSH2 0x3A0 MSTORE PUSH2 0x5E0 MLOAD PUSH2 0x3C0 MSTORE PUSH3 0xFC PUSH2 0x600 PUSH3 0x8F0 JUMP JUMPDEST PUSH2 0x620 MLOAD PUSH2 0x640 MLOAD SWAP8 SWAP1 SWAP7 SWAP2 SWAP6 SWAP2 SWAP1 PUSH1 0x1 PUSH1 0x1 PUSH1 0x40 SHL SUB DUP10 AND DUP10 SUB PUSH3 0x8D5 JUMPI PUSH2 0x660 MLOAD PUSH2 0x680 MLOAD SWAP12 SWAP1 SWAP11 SWAP1 PUSH3 0x135 PUSH2 0x6A0 PUSH3 0x8F0 JUMP JUMPDEST SWAP14 PUSH2 0x2C0 PUSH2 0x400 ADD MLOAD SWAP16 PUSH1 0x1 DUP1 PUSH1 0xA0 SHL SUB PUSH2 0x3E0 MLOAD AND ISZERO PUSH3 0x8BC JUMPI PUSH1 0x1 DUP1 SLOAD PUSH1 0x1 PUSH1 0x1 PUSH1 0xA0 SHL SUB NOT SWAP1 DUP2 AND SWAP1 SWAP2 SSTORE PUSH1 0x0 DUP1 SLOAD PUSH2 0x3E0 MLOAD PUSH1 0x1 PUSH1 0x1 PUSH1 0xA0 SHL SUB SWAP1 DUP2 AND SWAP4 DUP3 AND DUP5 OR DUP4 SSTORE PUSH1 0x40 MLOAD SWAP4 SWAP3 SWAP2 AND SWAP1 PUSH32 0x8BE0079C531659141344CD1FD0A4F28419497F9722A3DAAFE3B4186F6B6457E0 SWAP1 DUP1 LOG3 PUSH1 0x1 PUSH32 0x9B779B17422D0DF92223018B32B4D1FA46E071723D6817E2486D003BECC55F00 SSTORE PUSH1 0x1 PUSH1 0x1 PUSH1 0xA0 SHL SUB DUP3 AND ISZERO ISZERO DUP1 PUSH3 0x8B3 JUMPI JUMPDEST DUP1 PUSH3 0x8A0 JUMPI JUMPDEST ISZERO PUSH3 0x86F JUMPI POP PUSH1 0xFF DUP6 AND PUSH1 0x2 DUP2 LT ISZERO SWAP1 DUP2 PUSH3 0x862 JUMPI JUMPDEST POP ISZERO PUSH3 0x82C JUMPI DUP6 ISZERO PUSH3 0x7F5 JUMPI TIMESTAMP DUP8 GT ISZERO PUSH3 0x7BF JUMPI DUP7 DUP9 GT ISZERO PUSH3 0x78A JUMPI DUP9 ISZERO PUSH3 0x75A JUMPI PUSH1 0x1 PUSH1 0x1 PUSH1 0xA0 SHL SUB DUP4 AND ISZERO PUSH3 0x71B JUMPI JUMPDEST PUSH1 0x80 MSTORE PUSH1 0xA0 MSTORE PUSH1 0xC0 MSTORE PUSH1 0xE0 MSTORE PUSH2 0x100 MSTORE PUSH2 0x120 MSTORE PUSH2 0x140 MSTORE PUSH2 0x160 MSTORE DUP2 PUSH2 0x180 MSTORE PUSH2 0x1A0 MSTORE ISZERO PUSH1 0x0 EQ PUSH3 0x5E3 JUMPI POP POP PUSH2 0x340 MLOAD PUSH1 0x1 PUSH1 0x1 PUSH1 0xA0 SHL SUB AND ISZERO SWAP4 POP PUSH3 0x5B8 SWAP3 POP POP POP JUMPI PUSH2 0x3C0 MLOAD ISZERO PUSH3 0x587 JUMPI PUSH1 0x2 PUSH2 0x380 MLOAD EQ PUSH3 0x545 JUMPI JUMPDEST PUSH2 0x340 MLOAD PUSH2 0x1C0 MSTORE PUSH2 0x360 MLOAD PUSH2 0x1E0 MSTORE PUSH2 0x380 MLOAD PUSH2 0x200 MSTORE PUSH2 0x3A0 MLOAD PUSH2 0x220 MSTORE PUSH2 0x3C0 MLOAD PUSH2 0x240 MSTORE PUSH1 0x0 PUSH2 0x260 MSTORE PUSH1 0x0 PUSH2 0x280 MSTORE PUSH1 0x0 PUSH2 0x2A0 MSTORE PUSH1 0x0 PUSH2 0x2C0 MSTORE PUSH1 0x0 PUSH2 0x2E0 MSTORE PUSH1 0x0 PUSH2 0x300 MSTORE JUMPDEST PUSH2 0x320 MSTORE PUSH1 0x0 NOT PUSH1 0x9 SSTORE PUSH1 0x40 MLOAD PUSH2 0x3430 PUSH3 0x915 DUP3 CODECOPY PUSH1 0x80 MLOAD DUP2 DUP2 DUP2 PUSH2 0xFD6 ADD MSTORE PUSH2 0x1C78 ADD MSTORE PUSH1 0xA0 MLOAD DUP2 DUP2 DUP2 PUSH2 0x1BAA ADD MSTORE DUP2 DUP2 PUSH2 0x3010 ADD MSTORE DUP2 DUP2 PUSH2 0x305F ADD MSTORE PUSH2 0x3094 ADD MSTORE PUSH1 0xC0 MLOAD DUP2 DUP2 DUP2 PUSH2 0x481 ADD MSTORE DUP2 DUP2 PUSH2 0x1644 ADD MSTORE DUP2 DUP2 PUSH2 0x1B65 ADD MSTORE PUSH2 0x32B0 ADD MSTORE PUSH1 0xE0 MLOAD DUP2 PUSH2 0xD4E ADD MSTORE PUSH2 0x100 MLOAD DUP2 DUP2 DUP2 PUSH2 0x3FF ADD MSTORE DUP2 DUP2 PUSH2 0x428 ADD MSTORE DUP2 DUP2 PUSH2 0x457 ADD MSTORE DUP2 DUP2 PUSH2 0x4D6 ADD MSTORE DUP2 DUP2 PUSH2 0x1085 ADD MSTORE DUP2 DUP2 PUSH2 0x1375 ADD MSTORE DUP2 DUP2 PUSH2 0x1608 ADD MSTORE DUP2 DUP2 PUSH2 0x1CB5 ADD MSTORE DUP2 DUP2 PUSH2 0x1FB3 ADD MSTORE DUP2 DUP2 PUSH2 0x20E2 ADD MSTORE DUP2 DUP2 PUSH2 0x2115 ADD MSTORE DUP2 DUP2 PUSH2 0x2B17 ADD MSTORE DUP2 DUP2 PUSH2 0x2C74 ADD MSTORE DUP2 DUP2 PUSH2 0x2E5E ADD MSTORE PUSH2 0x3132 ADD MSTORE PUSH2 0x120 MLOAD DUP2 DUP2 DUP2 PUSH2 0x13CF ADD MSTORE PUSH2 0x2B4A ADD MSTORE PUSH2 0x140 MLOAD DUP2 DUP2 DUP2 PUSH2 0x3A8 ADD MSTORE DUP2 DUP2 PUSH2 0x15D9 ADD MSTORE PUSH2 0x19F0 ADD MSTORE PUSH2 0x160 MLOAD DUP2 DUP2 DUP2 PUSH2 0x852 ADD MSTORE DUP2 DUP2 PUSH2 0x2366 ADD MSTORE PUSH2 0x26C3 ADD MSTORE PUSH2 0x180 MLOAD DUP2 DUP2 DUP2 PUSH2 0x80B ADD MSTORE DUP2 DUP2 PUSH2 0x12BF ADD MSTORE DUP2 DUP2 PUSH2 0x1914 ADD MSTORE DUP2 DUP2 PUSH2 0x1A3A ADD MSTORE DUP2 DUP2 PUSH2 0x1CF3 ADD MSTORE DUP2 DUP2 PUSH2 0x1D1A ADD MSTORE DUP2 DUP2 PUSH2 0x1D47 ADD MSTORE PUSH2 0x2326 ADD MSTORE PUSH2 0x1A0 MLOAD DUP2 PUSH2 0xF9D ADD MSTORE PUSH2 0x1C0 MLOAD DUP2 DUP2 DUP2 PUSH2 0x1408 ADD MSTORE PUSH2 0x239B ADD MSTORE PUSH2 0x1E0 MLOAD DUP2 DUP2 DUP2 PUSH2 0xF09 ADD MSTORE DUP2 DUP2 PUSH2 0x2CDA ADD MSTORE DUP2 DUP2 PUSH2 0x2D1E ADD MSTORE PUSH2 0x2D46 ADD MSTORE PUSH2 0x200 MLOAD DUP2 DUP2 DUP2 PUSH2 0xDEB ADD MSTORE PUSH2 0x2CAA ADD MSTORE PUSH2 0x220 MLOAD DUP2 DUP2 DUP2 PUSH2 0x11D3 ADD MSTORE PUSH2 0x2D79 ADD MSTORE PUSH2 0x240 MLOAD DUP2 DUP2 DUP2 PUSH2 0xF62 ADD MSTORE PUSH2 0x23F0 ADD MSTORE PUSH2 0x260 MLOAD DUP2 DUP2 DUP2 PUSH2 0x8FC ADD MSTORE DUP2 DUP2 PUSH2 0xBBE ADD MSTORE DUP2 DUP2 PUSH2 0x1AD1 ADD MSTORE PUSH2 0x2626 ADD MSTORE PUSH2 0x280 MLOAD DUP2 DUP2 DUP2 PUSH2 0x8BA ADD MSTORE DUP2 DUP2 PUSH2 0x120E ADD MSTORE PUSH2 0x1AA4 ADD MSTORE PUSH2 0x2A0 MLOAD DUP2 DUP2 DUP2 PUSH2 0x993 ADD MSTORE PUSH2 0x1337 ADD MSTORE PUSH2 0x2C0 MLOAD DUP2 DUP2 DUP2 PUSH2 0x9E0 ADD MSTORE PUSH2 0x14F7 ADD MSTORE PUSH2 0x2E0 MLOAD DUP2 DUP2 DUP2 PUSH2 0x885 ADD MSTORE PUSH2 0x1871 ADD MSTORE PUSH2 0x300 MLOAD DUP2 DUP2 DUP2 PUSH2 0x930 ADD MSTORE DUP2 DUP2 PUSH2 0xB9B ADD MSTORE DUP2 DUP2 PUSH2 0x1950 ADD MSTORE PUSH2 0x22CE ADD MSTORE PUSH2 0x320 MLOAD DUP2 DUP2 DUP2 PUSH2 0x28F ADD MSTORE PUSH2 0x762 ADD MSTORE PUSH2 0x3430 SWAP1 RETURN JUMPDEST PUSH2 0x3A0 MLOAD PUSH2 0x360 MLOAD LT PUSH3 0x298 JUMPI PUSH1 0x40 MLOAD PUSH3 0x461BCD PUSH1 0xE5 SHL DUP2 MSTORE PUSH1 0x20 PUSH1 0x4 DUP3 ADD MSTORE PUSH1 0xC PUSH1 0x24 DUP3 ADD MSTORE PUSH12 0x52616E676520626F756E6473 PUSH1 0xA0 SHL PUSH1 0x44 DUP3 ADD MSTORE PUSH1 0x64 SWAP1 REVERT JUMPDEST PUSH1 0x40 MLOAD PUSH3 0x461BCD PUSH1 0xE5 SHL DUP2 MSTORE PUSH1 0x20 PUSH1 0x4 DUP3 ADD MSTORE PUSH1 0x9 PUSH1 0x24 DUP3 ADD MSTORE PUSH9 0x5374616C656E657373 PUSH1 0xB8 SHL PUSH1 0x44 DUP3 ADD MSTORE PUSH1 0x64 SWAP1 REVERT JUMPDEST PUSH1 0x64 PUSH1 0x40 MLOAD PUSH3 0x461BCD PUSH1 0xE5 SHL DUP2 MSTORE PUSH1 0x20 PUSH1 0x4 DUP3 ADD MSTORE PUSH1 0x4 PUSH1 0x24 DUP3 ADD MSTORE PUSH4 0x11995959 PUSH1 0xE2 SHL PUSH1 0x44 DUP3 ADD MSTORE REVERT JUMPDEST PUSH1 0x1 PUSH1 0x1 PUSH1 0xA0 SHL SUB DUP2 AND ISZERO PUSH3 0x6F0 JUMPI DUP2 ISZERO PUSH3 0x6C2 JUMPI PUSH1 0x1 PUSH1 0x1 PUSH1 0x40 SHL SUB DUP4 AND ISZERO PUSH3 0x692 JUMPI PUSH1 0x1 PUSH1 0x1 PUSH1 0xA0 SHL SUB DUP7 AND ISZERO PUSH3 0x65E JUMPI PUSH1 0x0 PUSH2 0x1C0 MSTORE PUSH1 0x0 PUSH2 0x1E0 MSTORE PUSH1 0x0 PUSH2 0x200 MSTORE PUSH1 0x0 PUSH2 0x220 MSTORE PUSH1 0x0 PUSH2 0x240 MSTORE PUSH1 0x1 DUP1 PUSH1 0xA0 SHL SUB AND PUSH2 0x260 MSTORE PUSH2 0x280 MSTORE PUSH2 0x2A0 MSTORE PUSH2 0x2C0 MSTORE PUSH2 0x2E0 MSTORE PUSH2 0x300 MSTORE PUSH3 0x2E5 JUMP JUMPDEST PUSH1 0x40 MLOAD PUSH3 0x461BCD PUSH1 0xE5 SHL DUP2 MSTORE PUSH1 0x20 PUSH1 0x4 DUP3 ADD MSTORE PUSH1 0xC PUSH1 0x24 DUP3 ADD MSTORE PUSH12 0x554D412063757272656E6379 PUSH1 0xA0 SHL PUSH1 0x44 DUP3 ADD MSTORE PUSH1 0x64 SWAP1 REVERT JUMPDEST PUSH1 0x40 MLOAD PUSH3 0x461BCD PUSH1 0xE5 SHL DUP2 MSTORE PUSH1 0x20 PUSH1 0x4 DUP3 ADD MSTORE PUSH1 0x8 PUSH1 0x24 DUP3 ADD MSTORE PUSH8 0x4C6976656E657373 PUSH1 0xC0 SHL PUSH1 0x44 DUP3 ADD MSTORE PUSH1 0x64 SWAP1 REVERT JUMPDEST PUSH1 0x40 MLOAD PUSH3 0x461BCD PUSH1 0xE5 SHL DUP2 MSTORE PUSH1 0x20 PUSH1 0x4 DUP3 ADD MSTORE PUSH1 0x6 PUSH1 0x24 DUP3 ADD MSTORE PUSH6 0x155350481A59 PUSH1 0xD2 SHL PUSH1 0x44 DUP3 ADD MSTORE PUSH1 0x64 SWAP1 REVERT JUMPDEST PUSH1 0x64 PUSH1 0x40 MLOAD PUSH3 0x461BCD PUSH1 0xE5 SHL DUP2 MSTORE PUSH1 0x20 PUSH1 0x4 DUP3 ADD MSTORE PUSH1 0x4 PUSH1 0x24 DUP3 ADD MSTORE PUSH4 0x27A7BB19 PUSH1 0xE1 SHL PUSH1 0x44 DUP3 ADD MSTORE REVERT JUMPDEST PUSH1 0x12 PUSH1 0xFF DUP6 AND SUB ISZERO PUSH3 0x238 JUMPI PUSH1 0x40 MLOAD PUSH3 0x461BCD PUSH1 0xE5 SHL DUP2 MSTORE PUSH1 0x20 PUSH1 0x4 DUP3 ADD MSTORE PUSH1 0xA PUSH1 0x24 DUP3 ADD MSTORE PUSH10 0x45544820313820646563 PUSH1 0xB0 SHL PUSH1 0x44 DUP3 ADD MSTORE PUSH1 0x64 SWAP1 REVERT JUMPDEST PUSH1 0x40 MLOAD PUSH3 0x461BCD PUSH1 0xE5 SHL DUP2 MSTORE PUSH1 0x20 PUSH1 0x4 DUP3 ADD MSTORE PUSH1 0x8 PUSH1 0x24 DUP3 ADD MSTORE PUSH8 0x4D65746164617461 PUSH1 0xC0 SHL PUSH1 0x44 DUP3 ADD MSTORE PUSH1 0x64 SWAP1 REVERT JUMPDEST PUSH1 0x40 MLOAD PUSH3 0x461BCD PUSH1 0xE5 SHL DUP2 MSTORE PUSH1 0x20 PUSH1 0x4 DUP3 ADD MSTORE PUSH1 0xD PUSH1 0x24 DUP3 ADD MSTORE PUSH13 0x2932B9B7B63B329037B93232B9 PUSH1 0x99 SHL PUSH1 0x44 DUP3 ADD MSTORE PUSH1 0x64 SWAP1 REVERT JUMPDEST PUSH1 0x40 MLOAD PUSH3 0x461BCD PUSH1 0xE5 SHL DUP2 MSTORE PUSH1 0x20 PUSH1 0x4 DUP3 ADD MSTORE PUSH1 0xE PUSH1 0x24 DUP3 ADD MSTORE PUSH14 0x14DD185AD948195B99081C185CDD PUSH1 0x92 SHL PUSH1 0x44 DUP3 ADD MSTORE PUSH1 0x64 SWAP1 REVERT JUMPDEST PUSH1 0x40 MLOAD PUSH3 0x461BCD PUSH1 0xE5 SHL DUP2 MSTORE PUSH1 0x20 PUSH1 0x4 DUP3 ADD MSTORE PUSH1 0xF PUSH1 0x24 DUP3 ADD MSTORE PUSH15 0x5669727475616C2072657365727665 PUSH1 0x88 SHL PUSH1 0x44 DUP3 ADD MSTORE PUSH1 0x64 SWAP1 REVERT JUMPDEST PUSH1 0x40 MLOAD PUSH3 0x461BCD PUSH1 0xE5 SHL DUP2 MSTORE PUSH1 0x20 PUSH1 0x4 DUP3 ADD MSTORE PUSH1 0xE PUSH1 0x24 DUP3 ADD MSTORE PUSH14 0x4F7574636F6D65732072616E6765 PUSH1 0x90 SHL PUSH1 0x44 DUP3 ADD MSTORE PUSH1 0x64 SWAP1 REVERT JUMPDEST PUSH1 0x20 SWAP2 POP GT ISZERO CODESIZE PUSH3 0x200 JUMP JUMPDEST PUSH3 0x461BCD PUSH1 0xE5 SHL DUP2 MSTORE PUSH1 0x20 PUSH1 0x4 DUP3 ADD MSTORE PUSH1 0xC PUSH1 0x24 DUP3 ADD MSTORE PUSH12 0x5A65726F2061646472657373 PUSH1 0xA0 SHL PUSH1 0x44 DUP3 ADD MSTORE PUSH1 0x64 SWAP1 REVERT JUMPDEST POP PUSH1 0x1 PUSH1 0x1 PUSH1 0xA0 SHL SUB DUP4 AND ISZERO ISZERO PUSH3 0x1E8 JUMP JUMPDEST POP PUSH1 0x1 PUSH3 0x1E1 JUMP JUMPDEST PUSH1 0x40 MLOAD PUSH4 0x1E4FBDF7 PUSH1 0xE0 SHL DUP2 MSTORE PUSH1 0x0 PUSH1 0x4 DUP3 ADD MSTORE PUSH1 0x24 SWAP1 REVERT JUMPDEST PUSH1 0x0 DUP1 REVERT JUMPDEST PUSH4 0x4E487B71 PUSH1 0xE0 SHL PUSH1 0x0 MSTORE PUSH1 0x41 PUSH1 0x4 MSTORE PUSH1 0x24 PUSH1 0x0 REVERT JUMPDEST MLOAD SWAP1 PUSH1 0x1 PUSH1 0x1 PUSH1 0xA0 SHL SUB DUP3 AND DUP3 SUB PUSH3 0x8D5 JUMPI JUMP JUMPDEST MLOAD SWAP1 PUSH1 0xFF DUP3 AND DUP3 SUB PUSH3 0x8D5 JUMPI JUMP INVALID PUSH1 0x80 DUP1 PUSH1 0x40 MSTORE PUSH1 0x4 CALLDATASIZE LT ISZERO PUSH2 0x1D JUMPI JUMPDEST POP CALLDATASIZE ISZERO PUSH2 0x1B JUMPI PUSH1 0x0 DUP1 REVERT JUMPDEST STOP JUMPDEST PUSH1 0x0 SWAP1 DUP2 CALLDATALOAD PUSH1 0xE0 SHR SWAP1 DUP2 PUSH4 0x6FDCCC7 EQ PUSH2 0x26AC JUMPI POP DUP1 PUSH4 0x8460328 EQ PUSH2 0x268F JUMPI DUP1 PUSH4 0xC7BD33B EQ PUSH2 0x2655 JUMPI DUP1 PUSH4 0xD2AF8D3 EQ PUSH2 0x2610 JUMPI DUP1 PUSH4 0x116A343A EQ PUSH2 0x25E5 JUMPI DUP1 PUSH4 0x1448D312 EQ PUSH2 0x25C9 JUMPI DUP1 PUSH4 0x158EF93E EQ PUSH2 0x25A6 JUMPI DUP1 PUSH4 0x2567D7D6 EQ PUSH2 0x22FD JUMPI DUP1 PUSH4 0x2C4C5E50 EQ PUSH2 0x22B8 JUMPI DUP1 PUSH4 0x35142C8C EQ PUSH2 0x2292 JUMPI DUP1 PUSH4 0x3BFDBBC9 EQ PUSH2 0x1BD9 JUMPI DUP1 PUSH4 0x46904840 EQ PUSH2 0x1B94 JUMPI DUP1 PUSH4 0x48D399E7 EQ PUSH2 0x1B4F JUMPI DUP1 PUSH4 0x493DCAE1 EQ PUSH2 0x1A13 JUMPI DUP1 PUSH4 0x4B841D24 EQ PUSH2 0x19D8 JUMPI DUP1 PUSH4 0x4F12A39F EQ PUSH2 0x18EA JUMPI DUP1 PUSH4 0x540385A3 EQ PUSH2 0x18CC JUMPI DUP1 PUSH4 0x55C1ABE9 EQ PUSH2 0x1894 JUMPI DUP1 PUSH4 0x67BD151E EQ PUSH2 0x1859 JUMPI DUP1 PUSH4 0x698B0676 EQ PUSH2 0x1580 JUMPI DUP1 PUSH4 0x715018A6 EQ PUSH2 0x151A JUMPI DUP1 PUSH4 0x769DBD6E EQ PUSH2 0x14DF JUMPI DUP1 PUSH4 0x79BA5097 EQ PUSH2 0x1455 JUMPI DUP1 PUSH4 0x7D4035C5 EQ PUSH2 0x1437 JUMPI DUP1 PUSH4 0x7DBDF1F5 EQ PUSH2 0x13F2 JUMPI DUP1 PUSH4 0x80C08A5D EQ PUSH2 0x13B7 JUMPI DUP1 PUSH4 0x8192A437 EQ PUSH2 0x1399 JUMPI DUP1 PUSH4 0x8767D64E EQ PUSH2 0x135B JUMPI DUP1 PUSH4 0x8D56AA3E EQ PUSH2 0x1316 JUMPI DUP1 PUSH4 0x8DA5CB5B EQ PUSH2 0x12EF JUMPI DUP1 PUSH4 0x8E8DAA7C EQ PUSH2 0x12A9 JUMPI DUP1 PUSH4 0x912397C3 EQ PUSH2 0x127D JUMPI DUP1 PUSH4 0x9228C39B EQ PUSH2 0x1254 JUMPI DUP1 PUSH4 0xA2FFBE8E EQ PUSH2 0x1231 JUMPI DUP1 PUSH4 0xA5DC90F2 EQ PUSH2 0x11F6 JUMPI DUP1 PUSH4 0xB9728219 EQ PUSH2 0x11BB JUMPI DUP1 PUSH4 0xBB482F96 EQ PUSH2 0x102E JUMPI DUP1 PUSH4 0xC19D93FB EQ PUSH2 0x1005 JUMPI DUP1 PUSH4 0xC45A0155 EQ PUSH2 0xFC0 JUMPI DUP1 PUSH4 0xC5A1D7F0 EQ PUSH2 0xF85 JUMPI DUP1 PUSH4 0xC80D36B8 EQ PUSH2 0xF4A JUMPI DUP1 PUSH4 0xCA455047 EQ PUSH2 0xF2C JUMPI DUP1 PUSH4 0xCC2F6093 EQ PUSH2 0xEF1 JUMPI DUP1 PUSH4 0xD6ADC9EC EQ PUSH2 0xE1B JUMPI DUP1 PUSH4 0xD7F59F5B EQ PUSH2 0xDD6 JUMPI DUP1 PUSH4 0xE1A45218 EQ PUSH2 0xDB9 JUMPI DUP1 PUSH4 0xE30C3978 EQ PUSH2 0xD90 JUMPI DUP1 PUSH4 0xE3EECC6F EQ PUSH2 0xD72 JUMPI DUP1 PUSH4 0xEC9C6C30 EQ PUSH2 0xD34 JUMPI DUP1 PUSH4 0xEE879258 EQ PUSH2 0x7E4 JUMPI DUP1 PUSH4 0xF0D677D7 EQ PUSH2 0x35F JUMPI DUP1 PUSH4 0xF11D7BDF EQ PUSH2 0x326 JUMPI DUP1 PUSH4 0xF2FDE38B EQ PUSH2 0x2B5 JUMPI PUSH4 0xFF3BB37E SUB PUSH2 0xF JUMPI CALLVALUE PUSH2 0x2B2 JUMPI DUP1 PUSH1 0x3 NOT CALLDATASIZE ADD SLT PUSH2 0x2B2 JUMPI PUSH1 0x20 PUSH1 0x40 MLOAD PUSH32 0x0 DUP2 MSTORE RETURN JUMPDEST DUP1 REVERT JUMPDEST POP CALLVALUE PUSH2 0x2B2 JUMPI PUSH1 0x20 CALLDATASIZE PUSH1 0x3 NOT ADD SLT PUSH2 0x2B2 JUMPI PUSH1 0x4 CALLDATALOAD PUSH1 0x1 PUSH1 0x1 PUSH1 0xA0 SHL SUB DUP2 DUP2 AND SWAP2 DUP3 SWAP1 SUB PUSH2 0x321 JUMPI PUSH2 0x2E5 PUSH2 0x3291 JUMP JUMPDEST PUSH1 0x1 DUP1 SLOAD PUSH1 0x1 PUSH1 0x1 PUSH1 0xA0 SHL SUB NOT AND DUP4 OR SWAP1 SSTORE DUP3 SLOAD AND PUSH32 0x38D16B8CAC22D99FC7C124B9CD0DE2D3FA1FAEF420BFE791D8C362D765E22700 DUP4 DUP1 LOG3 DUP1 RETURN JUMPDEST PUSH1 0x0 DUP1 REVERT JUMPDEST POP CALLVALUE PUSH2 0x2B2 JUMPI PUSH1 0x20 CALLDATASIZE PUSH1 0x3 NOT ADD SLT PUSH2 0x2B2 JUMPI PUSH1 0x4 CALLDATALOAD SWAP1 PUSH1 0x5 SLOAD DUP3 LT ISZERO PUSH2 0x2B2 JUMPI PUSH1 0x20 PUSH2 0x351 DUP4 PUSH2 0x27A1 JUMP JUMPDEST SWAP1 SLOAD PUSH1 0x40 MLOAD SWAP2 PUSH1 0x3 SHL SHR DUP2 MSTORE RETURN JUMPDEST POP PUSH1 0x40 CALLDATASIZE PUSH1 0x3 NOT ADD SLT PUSH2 0x2B2 JUMPI PUSH1 0x24 CALLDATALOAD PUSH1 0x1 PUSH1 0x1 PUSH1 0xA0 SHL SUB DUP2 AND SWAP1 SUB PUSH2 0x321 JUMPI PUSH2 0x387 PUSH2 0x2C3B JUMP JUMPDEST PUSH1 0x6 SLOAD PUSH1 0xFF DUP2 AND ISZERO PUSH2 0x7D2 JUMPI PUSH1 0x8 SHR PUSH1 0xFF AND PUSH2 0x3A2 DUP2 PUSH2 0x2819 JUMP JUMPDEST PUSH2 0x7C0 JUMPI PUSH32 0x0 TIMESTAMP LT ISZERO PUSH2 0x7AE JUMPI PUSH1 0xFF PUSH1 0xD SLOAD PUSH1 0xA0 SHR AND PUSH2 0x79C JUMPI PUSH1 0x24 CALLDATALOAD PUSH1 0x1 PUSH1 0x1 PUSH1 0xA0 SHL SUB AND ISZERO PUSH2 0x78A JUMPI PUSH1 0x4 CALLDATALOAD ISZERO DUP1 ISZERO PUSH2 0x75F JUMPI JUMPDEST PUSH2 0x74D JUMPI PUSH1 0xFF PUSH32 0x0 AND ISZERO PUSH2 0x739 JUMPI PUSH1 0xFF PUSH32 0x0 AND PUSH1 0x4 CALLDATALOAD MOD PUSH2 0x727 JUMPI PUSH2 0x47F PUSH1 0xFF PUSH32 0x0 AND PUSH1 0x4 CALLDATALOAD PUSH2 0x295D JUMP JUMPDEST PUSH32 0x0 PUSH1 0x1 PUSH1 0x1 PUSH1 0xA0 SHL SUB AND DUP1 PUSH2 0x6F9 JUMPI POP PUSH1 0x4 CALLDATALOAD CALLVALUE SUB PUSH2 0x6E7 JUMPI SWAP1 JUMPDEST DUP1 PUSH8 0xDE0B6B3A7640000 SWAP3 DUP1 DUP5 DUP2 MUL DIV DUP5 EQ DUP2 ISZERO OR ISZERO SWAP3 JUMPDEST PUSH1 0xFF PUSH32 0x0 AND PUSH1 0xFF DUP3 AND LT ISZERO PUSH2 0x66B JUMPI PUSH2 0x509 DUP2 PUSH2 0x2B08 JUMP JUMPDEST DUP5 PUSH2 0x515 DUP3 ISZERO ISZERO PUSH2 0x2AC7 JUMP JUMPDEST PUSH2 0x657 JUMPI PUSH2 0x525 DUP2 DUP8 DUP6 MUL PUSH2 0x295D JUMP JUMPDEST SWAP1 DUP2 ISZERO PUSH2 0x645 JUMPI PUSH2 0x564 PUSH2 0x538 DUP5 PUSH2 0x26E6 JUMP JUMPDEST SWAP2 SWAP1 DUP1 SLOAD SWAP3 PUSH2 0x54D DUP9 PUSH1 0x3 SWAP6 DUP4 DUP8 SHL SHR PUSH2 0x2AFB JUMP JUMPDEST DUP3 SLOAD PUSH1 0x0 NOT PUSH1 0x3 SWAP4 SWAP1 SWAP4 SHL SWAP3 DUP4 SHL NOT AND SWAP2 SHL OR SWAP1 SSTORE JUMP JUMPDEST PUSH2 0x56D DUP5 PUSH2 0x276A JUMP JUMPDEST SWAP1 SLOAD SWAP2 SHL SHR PUSH1 0x1 PUSH1 0x1 PUSH1 0xA0 SHL SUB AND DUP1 EXTCODESIZE ISZERO PUSH2 0x641 JUMPI PUSH1 0x40 MLOAD PUSH4 0x40C10F19 PUSH1 0xE0 SHL DUP2 MSTORE PUSH1 0x24 DUP1 CALLDATALOAD PUSH1 0x1 PUSH1 0x1 PUSH1 0xA0 SHL SUB AND PUSH1 0x4 DUP4 ADD MSTORE DUP2 ADD DUP5 SWAP1 MSTORE SWAP1 DUP7 SWAP1 DUP3 SWAP1 DUP2 DUP4 DUP2 PUSH1 0x44 DUP2 ADD SUB SWAP3 GAS CALL DUP1 ISZERO PUSH2 0x636 JUMPI SWAP1 DUP7 SWAP2 PUSH2 0x61E JUMPI JUMPDEST POP POP PUSH1 0x40 DUP1 MLOAD DUP6 DUP2 MSTORE PUSH1 0x20 DUP2 ADD SWAP4 SWAP1 SWAP4 MSTORE DUP3 ADD MSTORE PUSH1 0xFF SWAP2 PUSH1 0x1 SWAP2 DUP2 DUP5 AND SWAP1 PUSH1 0x1 PUSH1 0x1 PUSH1 0xA0 SHL SUB PUSH1 0x24 CALLDATALOAD AND SWAP1 CALLER SWAP1 PUSH32 0x8241D0DEFADD8507317470D315422749A6C8F8B8C9C0872AAB09C665EAF3B66B SWAP1 PUSH1 0x60 SWAP1 LOG4 ADD AND PUSH2 0x4D2 JUMP JUMPDEST PUSH2 0x627 SWAP1 PUSH2 0x2873 JUMP JUMPDEST PUSH2 0x632 JUMPI DUP5 CODESIZE PUSH2 0x5C4 JUMP JUMPDEST DUP5 DUP1 REVERT JUMPDEST PUSH1 0x40 MLOAD RETURNDATASIZE DUP9 DUP3 RETURNDATACOPY RETURNDATASIZE SWAP1 REVERT JUMPDEST DUP6 DUP1 REVERT JUMPDEST PUSH1 0x40 MLOAD PUSH4 0x9811E0C7 PUSH1 0xE0 SHL DUP2 MSTORE PUSH1 0x4 SWAP1 REVERT JUMPDEST PUSH4 0x4E487B71 PUSH1 0xE0 SHL DUP5 MSTORE PUSH1 0x11 PUSH1 0x4 MSTORE PUSH1 0x24 DUP5 REVERT JUMPDEST POP PUSH1 0xD DUP1 SLOAD PUSH1 0x1 PUSH1 0x1 PUSH1 0xA8 SHL SUB NOT AND CALLER PUSH1 0xFF PUSH1 0xA0 SHL NOT DUP2 AND SWAP2 SWAP1 SWAP2 OR PUSH1 0x1 PUSH1 0xA0 SHL OR SWAP1 SWAP2 SSTORE PUSH1 0x40 DUP1 MLOAD PUSH1 0x4 CALLDATALOAD DUP2 MSTORE PUSH1 0x20 DUP2 ADD SWAP4 SWAP1 SWAP4 MSTORE PUSH1 0x24 CALLDATALOAD PUSH1 0x1 PUSH1 0x1 PUSH1 0xA0 SHL SUB AND SWAP3 PUSH32 0x95194D0FD3E6E16008575E16C429D993D868B1A25D9993D071D1039853D22A74 SWAP2 SWAP1 LOG3 PUSH1 0x1 PUSH1 0x0 DUP1 MLOAD PUSH1 0x20 PUSH2 0x33DB DUP4 CODECOPY DUP2 MLOAD SWAP2 MSTORE SSTORE DUP1 RETURN JUMPDEST PUSH1 0x40 MLOAD PUSH4 0x32AFE6D3 PUSH1 0xE2 SHL DUP2 MSTORE PUSH1 0x4 SWAP1 REVERT JUMPDEST CALLVALUE PUSH2 0x715 JUMPI PUSH2 0x70F SWAP1 PUSH1 0x4 CALLDATALOAD SWAP1 ADDRESS SWAP1 CALLER SWAP1 PUSH2 0x3204 JUMP JUMPDEST SWAP1 PUSH2 0x4BA JUMP JUMPDEST PUSH1 0x40 MLOAD PUSH4 0xCC43410F PUSH1 0xE0 SHL DUP2 MSTORE PUSH1 0x4 SWAP1 REVERT JUMPDEST PUSH1 0x40 MLOAD PUSH4 0x2E7D0D2D PUSH1 0xE2 SHL DUP2 MSTORE PUSH1 0x4 SWAP1 REVERT JUMPDEST PUSH4 0x4E487B71 PUSH1 0xE0 SHL DUP2 MSTORE PUSH1 0x12 PUSH1 0x4 MSTORE PUSH1 0x24 SWAP1 REVERT JUMPDEST PUSH1 0x40 MLOAD PUSH4 0x8568E8BD PUSH1 0xE0 SHL DUP2 MSTORE PUSH1 0x4 SWAP1 REVERT JUMPDEST POP PUSH32 0x0 PUSH1 0x4 CALLDATALOAD LT PUSH2 0x3F7 JUMP JUMPDEST PUSH1 0x40 MLOAD PUSH4 0x7A2A2069 PUSH1 0xE1 SHL DUP2 MSTORE PUSH1 0x4 SWAP1 REVERT JUMPDEST PUSH1 0x40 MLOAD PUSH4 0x5C03D075 PUSH1 0xE1 SHL DUP2 MSTORE PUSH1 0x4 SWAP1 REVERT JUMPDEST PUSH1 0x40 MLOAD PUSH4 0x9622D9CF PUSH1 0xE0 SHL DUP2 MSTORE PUSH1 0x4 SWAP1 REVERT JUMPDEST PUSH1 0x40 MLOAD PUSH4 0x300B4E33 PUSH1 0xE2 SHL DUP2 MSTORE PUSH1 0x4 SWAP1 REVERT JUMPDEST PUSH1 0x40 MLOAD PUSH4 0x21C4E357 PUSH1 0xE2 SHL DUP2 MSTORE PUSH1 0x4 SWAP1 REVERT JUMPDEST POP CALLVALUE PUSH2 0x2B2 JUMPI DUP1 PUSH1 0x3 NOT CALLDATASIZE ADD SLT PUSH2 0x2B2 JUMPI PUSH2 0x7FD PUSH2 0x2C3B JUMP JUMPDEST PUSH1 0x6 SLOAD PUSH1 0xFF DUP2 AND ISZERO PUSH2 0x7D2 JUMPI PUSH32 0x0 SWAP1 PUSH1 0x2 DUP3 LT ISZERO PUSH2 0xD20 JUMPI PUSH1 0x1 DUP1 SWAP3 SUB PUSH2 0xD0E JUMPI PUSH1 0x8 SHR PUSH1 0xFF AND PUSH2 0x84C DUP2 PUSH2 0x2819 JUMP JUMPDEST PUSH2 0xD0E JUMPI PUSH32 0x0 TIMESTAMP LT PUSH2 0xCFC JUMPI PUSH2 0x87F PUSH2 0x29BF JUMP JUMPDEST TIMESTAMP PUSH1 0x8 SSTORE PUSH32 0x0 SWAP1 DUP2 PUSH2 0xB91 JUMPI JUMPDEST PUSH1 0x40 MLOAD PUSH4 0x11DF92F1 PUSH1 0xE0 SHL DUP2 MSTORE PUSH32 0x0 PUSH1 0x4 DUP3 ADD DUP2 SWAP1 MSTORE TIMESTAMP PUSH1 0x24 DUP4 ADD MSTORE PUSH1 0xA0 PUSH1 0x44 DUP4 ADD MSTORE SWAP1 SWAP2 SWAP1 DUP6 SWAP1 PUSH1 0x1 PUSH1 0x1 PUSH1 0xA0 SHL SUB PUSH32 0x0 DUP2 AND SWAP1 DUP6 SWAP1 PUSH2 0x92D PUSH1 0xA4 DUP4 ADD DUP8 PUSH2 0x28BF JUMP JUMPDEST SWAP1 PUSH32 0x0 AND PUSH1 0x64 DUP4 ADD MSTORE DUP8 PUSH1 0x84 DUP4 ADD MSTORE DUP2 PUSH1 0x20 SWAP8 DUP9 SWAP3 SUB DUP2 DUP8 DUP7 GAS CALL SWAP1 DUP2 ISZERO PUSH2 0xB43 JUMPI DUP7 SWAP2 PUSH2 0xB62 JUMPI JUMPDEST POP POP DUP1 EXTCODESIZE ISZERO PUSH2 0xAD3 JUMPI PUSH1 0x40 MLOAD PUSH4 0x239E22FF PUSH1 0xE1 SHL DUP2 MSTORE DUP4 DUP2 DUP1 PUSH2 0x9C8 PUSH32 0x0 PUSH8 0xFFFFFFFFFFFFFFFF AND DUP10 TIMESTAMP DUP10 PUSH1 0x4 DUP7 ADD PUSH2 0x2C14 JUMP JUMPDEST SUB DUP2 DUP4 DUP7 GAS CALL SWAP1 DUP2 ISZERO PUSH2 0xB43 JUMPI DUP5 SWAP2 PUSH2 0xB4E JUMPI JUMPDEST POP POP PUSH32 0x0 DUP6 DUP2 PUSH2 0xAD7 JUMPI JUMPDEST POP POP DUP1 EXTCODESIZE ISZERO PUSH2 0xAD3 JUMPI DUP4 DUP4 SWAP2 PUSH2 0xA35 SWAP4 DUP4 PUSH1 0x40 MLOAD DUP1 SWAP7 DUP2 SWAP6 DUP3 SWAP5 PUSH4 0x120698AF PUSH1 0xE0 SHL DUP5 MSTORE TIMESTAMP SWAP1 PUSH1 0x4 DUP6 ADD PUSH2 0x2A73 JUMP JUMPDEST SUB SWAP3 GAS CALL DUP1 ISZERO PUSH2 0xAC8 JUMPI PUSH2 0xAB0 JUMPI JUMPDEST POP POP SWAP1 PUSH32 0xE4D3D3C620D2A4B140FA3731B55B8F71306ED6AB936D7B660B613ECDBBF69DB6 SWAP3 PUSH2 0xA94 PUSH1 0x60 SWAP4 PUSH2 0x100 PUSH2 0xFF00 NOT PUSH1 0x6 SLOAD AND OR PUSH1 0x6 SSTORE PUSH1 0x40 MLOAD SWAP5 DUP6 SWAP5 TIMESTAMP DUP7 MSTORE DUP6 ADD MSTORE PUSH1 0x60 DUP5 ADD SWAP1 PUSH2 0x28BF JUMP JUMPDEST SWAP1 PUSH1 0x40 DUP4 ADD MSTORE SUB SWAP1 LOG1 PUSH1 0x0 DUP1 MLOAD PUSH1 0x20 PUSH2 0x33DB DUP4 CODECOPY DUP2 MLOAD SWAP2 MSTORE SSTORE DUP1 RETURN JUMPDEST PUSH2 0xABC SWAP1 SWAP4 SWAP3 SWAP4 PUSH2 0x2873 JUMP JUMPDEST PUSH2 0x632 JUMPI SWAP1 DUP5 CODESIZE PUSH2 0xA44 JUMP JUMPDEST PUSH1 0x40 MLOAD RETURNDATASIZE DUP5 DUP3 RETURNDATACOPY RETURNDATASIZE SWAP1 REVERT JUMPDEST DUP3 DUP1 REVERT JUMPDEST PUSH1 0x40 MLOAD PUSH4 0x56AD3AAD PUSH1 0xE1 SHL DUP2 MSTORE SWAP2 DUP3 SWAP1 DUP2 SWAP1 PUSH2 0xAF9 SWAP1 DUP10 TIMESTAMP DUP10 PUSH1 0x4 DUP7 ADD PUSH2 0x2C14 JUMP JUMPDEST SUB DUP2 DUP8 DUP7 GAS CALL SWAP1 DUP2 ISZERO PUSH2 0xB43 JUMPI DUP7 SWAP2 PUSH2 0xB14 JUMPI JUMPDEST POP DUP1 PUSH2 0xA06 JUMP JUMPDEST SWAP1 DUP1 SWAP3 SWAP5 POP RETURNDATASIZE DUP4 GT PUSH2 0xB3C JUMPI JUMPDEST PUSH2 0xB2B DUP2 DUP4 PUSH2 0x289D JUMP JUMPDEST DUP2 ADD SUB SLT PUSH2 0x321 JUMPI DUP7 SWAP2 DUP5 CODESIZE PUSH2 0xB0D JUMP JUMPDEST POP RETURNDATASIZE PUSH2 0xB21 JUMP JUMPDEST PUSH1 0x40 MLOAD RETURNDATASIZE DUP7 DUP3 RETURNDATACOPY RETURNDATASIZE SWAP1 REVERT JUMPDEST PUSH2 0xB57 SWAP1 PUSH2 0x2873 JUMP JUMPDEST PUSH2 0xAD3 JUMPI DUP3 CODESIZE PUSH2 0x9DC JUMP JUMPDEST SWAP1 DUP1 SWAP3 SWAP5 POP RETURNDATASIZE DUP4 GT PUSH2 0xB8A JUMPI JUMPDEST PUSH2 0xB79 DUP2 DUP4 PUSH2 0x289D JUMP JUMPDEST DUP2 ADD SUB SLT PUSH2 0x321 JUMPI DUP7 SWAP2 DUP5 CODESIZE PUSH2 0x975 JUMP JUMPDEST POP RETURNDATASIZE PUSH2 0xB6F JUMP JUMPDEST PUSH1 0x1 DUP1 PUSH1 0xA0 SHL SUB DUP1 PUSH32 0x0 AND SWAP1 PUSH32 0x0 AND SWAP1 PUSH1 0x0 SWAP2 PUSH1 0x40 MLOAD PUSH1 0x20 PUSH4 0x95EA7B3 PUSH1 0xE0 SHL SWAP5 DUP6 DUP2 MSTORE DUP4 PUSH1 0x4 MSTORE DUP8 PUSH1 0x24 MSTORE PUSH1 0x44 DUP2 DUP1 DUP8 GAS CALL DUP8 PUSH1 0x0 MLOAD EQ DUP2 AND ISZERO PUSH2 0xCEF JUMPI JUMPDEST DUP2 PUSH1 0x40 MSTORE ISZERO PUSH2 0xC22 JUMPI JUMPDEST POP POP POP POP PUSH2 0x8AB JUMP JUMPDEST PUSH1 0x20 PUSH1 0x0 DUP6 DUP2 MSTORE DUP4 PUSH1 0x4 MSTORE DUP1 PUSH1 0x24 MSTORE PUSH1 0x44 DUP2 DUP1 DUP8 GAS CALL DUP8 PUSH1 0x0 MLOAD EQ DUP2 AND ISZERO PUSH2 0xCD0 JUMPI JUMPDEST DUP2 PUSH1 0x40 MSTORE ISZERO PUSH2 0xCBA JUMPI POP PUSH1 0x20 SWAP1 PUSH1 0x0 SWAP1 PUSH1 0x40 MLOAD SWAP5 DUP3 MSTORE PUSH1 0x4 MSTORE DUP6 PUSH1 0x24 MSTORE PUSH1 0x44 DUP2 DUP1 DUP6 GAS CALL DUP6 PUSH1 0x0 MLOAD EQ DUP2 AND ISZERO PUSH2 0xC9B JUMPI JUMPDEST DUP3 PUSH1 0x40 MSTORE ISZERO PUSH2 0xC86 JUMPI DUP1 DUP1 PUSH2 0xC19 JUMP JUMPDEST PUSH4 0x5274AFE7 PUSH1 0xE0 SHL DUP3 MSTORE PUSH1 0x4 DUP3 ADD MSTORE PUSH1 0x24 SWAP2 POP REVERT JUMPDEST DUP6 DUP2 ISZERO AND PUSH2 0xCB0 JUMPI DUP2 EXTCODESIZE ISZERO ISZERO RETURNDATASIZE ISZERO AND AND PUSH2 0xC76 JUMP JUMPDEST DUP3 RETURNDATASIZE PUSH1 0x0 DUP3 RETURNDATACOPY RETURNDATASIZE SWAP1 REVERT JUMPDEST PUSH4 0x5274AFE7 PUSH1 0xE0 SHL DUP2 MSTORE PUSH1 0x4 DUP2 ADD DUP4 SWAP1 MSTORE PUSH1 0x24 SWAP1 REVERT JUMPDEST DUP8 DUP2 ISZERO AND PUSH2 0xCE5 JUMPI DUP4 EXTCODESIZE ISZERO ISZERO RETURNDATASIZE ISZERO AND AND PUSH2 0xC45 JUMP JUMPDEST POP RETURNDATASIZE PUSH1 0x0 DUP3 RETURNDATACOPY RETURNDATASIZE SWAP1 REVERT JUMPDEST DUP4 EXTCODESIZE ISZERO ISZERO RETURNDATASIZE ISZERO AND AND PUSH2 0xC0F JUMP JUMPDEST PUSH1 0x40 MLOAD PUSH4 0xFCE133D PUSH1 0xE0 SHL DUP2 MSTORE PUSH1 0x4 SWAP1 REVERT JUMPDEST PUSH1 0x40 MLOAD PUSH4 0xBAF3F0F7 PUSH1 0xE0 SHL DUP2 MSTORE PUSH1 0x4 SWAP1 REVERT JUMPDEST PUSH4 0x4E487B71 PUSH1 0xE0 SHL DUP4 MSTORE PUSH1 0x21 PUSH1 0x4 MSTORE PUSH1 0x24 DUP4 REVERT JUMPDEST POP CALLVALUE PUSH2 0x2B2 JUMPI DUP1 PUSH1 0x3 NOT CALLDATASIZE ADD SLT PUSH2 0x2B2 JUMPI PUSH1 0x20 PUSH1 0x40 MLOAD PUSH1 0xFF PUSH32 0x0 AND DUP2 MSTORE RETURN JUMPDEST POP CALLVALUE PUSH2 0x2B2 JUMPI DUP1 PUSH1 0x3 NOT CALLDATASIZE ADD SLT PUSH2 0x2B2 JUMPI PUSH1 0x20 PUSH1 0xB SLOAD PUSH1 0x40 MLOAD SWAP1 DUP2 MSTORE RETURN JUMPDEST POP CALLVALUE PUSH2 0x2B2 JUMPI DUP1 PUSH1 0x3 NOT CALLDATASIZE ADD SLT PUSH2 0x2B2 JUMPI PUSH1 0x1 SLOAD PUSH1 0x40 MLOAD PUSH1 0x1 PUSH1 0x1 PUSH1 0xA0 SHL SUB SWAP1 SWAP2 AND DUP2 MSTORE PUSH1 0x20 SWAP1 RETURN JUMPDEST POP CALLVALUE PUSH2 0x2B2 JUMPI DUP1 PUSH1 0x3 NOT CALLDATASIZE ADD SLT PUSH2 0x2B2 JUMPI PUSH1 0x20 PUSH1 0x40 MLOAD PUSH2 0x2710 DUP2 MSTORE RETURN JUMPDEST POP CALLVALUE PUSH2 0x2B2 JUMPI DUP1 PUSH1 0x3 NOT CALLDATASIZE ADD SLT PUSH2 0x2B2 JUMPI PUSH1 0x20 PUSH32 0x0 PUSH1 0x40 MLOAD SWAP1 PUSH2 0xE17 DUP2 PUSH2 0x2819 JUMP JUMPDEST DUP2 MSTORE RETURN JUMPDEST POP CALLVALUE PUSH2 0x2B2 JUMPI DUP1 PUSH1 0x3 NOT CALLDATASIZE ADD SLT PUSH2 0x2B2 JUMPI PUSH1 0x40 MLOAD SWAP1 DUP1 DUP3 PUSH1 0x7 SLOAD SWAP2 PUSH2 0xE3F DUP4 PUSH2 0x2839 JUMP JUMPDEST SWAP3 DUP4 DUP4 MSTORE PUSH1 0x20 SWAP5 PUSH1 0x1 SWAP2 DUP7 PUSH1 0x1 DUP3 AND SWAP2 DUP3 PUSH1 0x0 EQ PUSH2 0xECF JUMPI POP POP PUSH1 0x1 EQ PUSH2 0xE87 JUMPI JUMPDEST POP POP PUSH2 0xE6F SWAP3 POP SUB DUP4 PUSH2 0x289D JUMP JUMPDEST PUSH2 0xE83 PUSH1 0x40 MLOAD SWAP3 DUP3 DUP5 SWAP4 DUP5 MSTORE DUP4 ADD SWAP1 PUSH2 0x28BF JUMP JUMPDEST SUB SWAP1 RETURN JUMPDEST SWAP1 DUP6 SWAP3 POP PUSH1 0x7 DUP3 MSTORE PUSH1 0x0 DUP1 MLOAD PUSH1 0x20 PUSH2 0x33BB DUP4 CODECOPY DUP2 MLOAD SWAP2 MSTORE JUMPDEST DUP6 DUP4 LT PUSH2 0xEB7 JUMPI POP POP PUSH2 0xE6F SWAP4 POP DUP3 ADD ADD CODESIZE DUP1 PUSH2 0xE61 JUMP JUMPDEST DUP1 SLOAD DUP4 DUP10 ADD DUP6 ADD MSTORE DUP8 SWAP5 POP DUP7 SWAP4 SWAP1 SWAP3 ADD SWAP2 DUP2 ADD PUSH2 0xE9F JUMP JUMPDEST SWAP3 POP SWAP4 POP POP PUSH2 0xE6F SWAP5 SWAP2 POP PUSH1 0xFF NOT AND DUP3 DUP5 ADD MSTORE ISZERO ISZERO PUSH1 0x5 SHL DUP3 ADD ADD CODESIZE DUP1 PUSH2 0xE61 JUMP JUMPDEST POP CALLVALUE PUSH2 0x2B2 JUMPI DUP1 PUSH1 0x3 NOT CALLDATASIZE ADD SLT PUSH2 0x2B2 JUMPI PUSH1 0x20 PUSH1 0x40 MLOAD PUSH32 0x0 DUP2 MSTORE RETURN JUMPDEST POP CALLVALUE PUSH2 0x2B2 JUMPI DUP1 PUSH1 0x3 NOT CALLDATASIZE ADD SLT PUSH2 0x2B2 JUMPI PUSH1 0x20 PUSH1 0x8 SLOAD PUSH1 0x40 MLOAD SWAP1 DUP2 MSTORE RETURN JUMPDEST POP CALLVALUE PUSH2 0x2B2 JUMPI DUP1 PUSH1 0x3 NOT CALLDATASIZE ADD SLT PUSH2 0x2B2 JUMPI PUSH1 0x20 PUSH1 0x40 MLOAD PUSH32 0x0 DUP2 MSTORE RETURN JUMPDEST POP CALLVALUE PUSH2 0x2B2 JUMPI DUP1 PUSH1 0x3 NOT CALLDATASIZE ADD SLT PUSH2 0x2B2 JUMPI PUSH1 0x20 PUSH1 0x40 MLOAD PUSH32 0x0 DUP2 MSTORE RETURN JUMPDEST POP CALLVALUE PUSH2 0x2B2 JUMPI DUP1 PUSH1 0x3 NOT CALLDATASIZE ADD SLT PUSH2 0x2B2 JUMPI PUSH1 0x40 MLOAD PUSH32 0x0 PUSH1 0x1 PUSH1 0x1 PUSH1 0xA0 SHL SUB AND DUP2 MSTORE PUSH1 0x20 SWAP1 RETURN JUMPDEST POP CALLVALUE PUSH2 0x2B2 JUMPI DUP1 PUSH1 0x3 NOT CALLDATASIZE ADD SLT PUSH2 0x2B2 JUMPI PUSH1 0x20 PUSH1 0xFF PUSH1 0x6 SLOAD PUSH1 0x8 SHR AND PUSH1 0x40 MLOAD SWAP1 PUSH2 0xE17 DUP2 PUSH2 0x2819 JUMP JUMPDEST POP CALLVALUE PUSH2 0x2B2 JUMPI PUSH1 0x40 CALLDATASIZE PUSH1 0x3 NOT ADD SLT PUSH2 0x2B2 JUMPI PUSH2 0x1048 PUSH2 0x2809 JUMP JUMPDEST PUSH1 0x24 CALLDATALOAD SWAP1 PUSH2 0x1054 PUSH2 0x2C3B JUMP JUMPDEST PUSH1 0x6 SLOAD PUSH1 0xFF DUP2 AND ISZERO PUSH2 0x7D2 JUMPI PUSH1 0xFF PUSH1 0x2 SWAP2 PUSH1 0x8 SHR AND PUSH2 0x1072 DUP2 PUSH2 0x2819 JUMP JUMPDEST SUB PUSH2 0xD0E JUMPI DUP2 ISZERO PUSH2 0x645 JUMPI PUSH1 0xFF DUP2 AND PUSH1 0xFF PUSH32 0x0 AND DUP2 LT ISZERO PUSH2 0x11A9 JUMPI PUSH1 0xFF PUSH1 0x9 SLOAD AND SUB PUSH2 0x11A9 JUMPI PUSH1 0xA SLOAD DUP1 ISZERO PUSH2 0x1197 JUMPI PUSH2 0x10D3 PUSH8 0xDE0B6B3A7640000 SWAP2 DUP5 PUSH2 0x294A JUMP JUMPDEST DIV SWAP2 DUP3 ISZERO PUSH2 0x1169 JUMPI PUSH2 0x10E5 DUP5 SWAP3 PUSH2 0x276A JUMP JUMPDEST SWAP1 SLOAD PUSH1 0x3 SWAP2 SWAP1 SWAP2 SHL SHR PUSH1 0x1 PUSH1 0x1 PUSH1 0xA0 SHL SUB AND DUP1 EXTCODESIZE ISZERO PUSH2 0xAD3 JUMPI PUSH1 0x40 MLOAD PUSH4 0x79CC679 PUSH1 0xE4 SHL DUP2 MSTORE CALLER PUSH1 0x4 DUP3 ADD MSTORE PUSH1 0x24 DUP2 ADD SWAP3 SWAP1 SWAP3 MSTORE DUP3 SWAP1 DUP3 SWAP1 PUSH1 0x44 SWAP1 DUP3 SWAP1 DUP5 SWAP1 GAS CALL DUP1 ISZERO PUSH2 0xAC8 JUMPI PUSH2 0x1151 JUMPI JUMPDEST POP PUSH2 0x113C DUP3 CALLER PUSH2 0x32A5 JUMP JUMPDEST PUSH1 0x1 PUSH1 0x0 DUP1 MLOAD PUSH1 0x20 PUSH2 0x33DB DUP4 CODECOPY DUP2 MLOAD SWAP2 MSTORE SSTORE DUP1 RETURN JUMPDEST PUSH2 0x115A SWAP1 PUSH2 0x2873 JUMP JUMPDEST PUSH2 0x1165 JUMPI DUP2 CODESIZE PUSH2 0x1131 JUMP JUMPDEST POP DUP1 REVERT JUMPDEST PUSH1 0x40 MLOAD PUSH3 0x461BCD PUSH1 0xE5 SHL DUP2 MSTORE PUSH1 0x20 PUSH1 0x4 DUP3 ADD MSTORE PUSH1 0x6 PUSH1 0x24 DUP3 ADD MSTORE PUSH6 0x14185E5BDD5D PUSH1 0xD2 SHL PUSH1 0x44 DUP3 ADD MSTORE PUSH1 0x64 SWAP1 REVERT JUMPDEST PUSH1 0x40 MLOAD PUSH4 0xB3B7D75F PUSH1 0xE0 SHL DUP2 MSTORE PUSH1 0x4 SWAP1 REVERT JUMPDEST PUSH1 0x40 MLOAD PUSH4 0xC74A206D PUSH1 0xE0 SHL DUP2 MSTORE PUSH1 0x4 SWAP1 REVERT JUMPDEST POP CALLVALUE PUSH2 0x2B2 JUMPI DUP1 PUSH1 0x3 NOT CALLDATASIZE ADD SLT PUSH2 0x2B2 JUMPI PUSH1 0x20 PUSH1 0x40 MLOAD PUSH32 0x0 DUP2 MSTORE RETURN JUMPDEST POP CALLVALUE PUSH2 0x2B2 JUMPI DUP1 PUSH1 0x3 NOT CALLDATASIZE ADD SLT PUSH2 0x2B2 JUMPI PUSH1 0x20 PUSH1 0x40 MLOAD PUSH32 0x0 DUP2 MSTORE RETURN JUMPDEST POP CALLVALUE PUSH2 0x2B2 JUMPI DUP1 PUSH1 0x3 NOT CALLDATASIZE ADD SLT PUSH2 0x2B2 JUMPI PUSH1 0x20 PUSH1 0x40 MLOAD PUSH8 0xDE0B6B3A7640000 DUP2 MSTORE RETURN JUMPDEST POP CALLVALUE PUSH2 0x2B2 JUMPI DUP1 PUSH1 0x3 NOT CALLDATASIZE ADD SLT PUSH2 0x2B2 JUMPI PUSH1 0xD SLOAD PUSH1 0x40 MLOAD PUSH1 0x1 PUSH1 0x1 PUSH1 0xA0 SHL SUB SWAP1 SWAP2 AND DUP2 MSTORE PUSH1 0x20 SWAP1 RETURN JUMPDEST POP CALLVALUE PUSH2 0x2B2 JUMPI PUSH1 0x20 CALLDATASIZE PUSH1 0x3 NOT ADD SLT PUSH2 0x2B2 JUMPI PUSH1 0x20 PUSH2 0x12A1 PUSH2 0x129C PUSH2 0x2809 JUMP JUMPDEST PUSH2 0x2B08 JUMP JUMPDEST PUSH1 0x40 MLOAD SWAP1 DUP2 MSTORE RETURN JUMPDEST POP CALLVALUE PUSH2 0x2B2 JUMPI DUP1 PUSH1 0x3 NOT CALLDATASIZE ADD SLT PUSH2 0x2B2 JUMPI PUSH1 0x40 MLOAD PUSH32 0x0 PUSH1 0x2 DUP2 LT ISZERO PUSH2 0xD20 JUMPI PUSH1 0x20 SWAP3 POP DUP2 MSTORE RETURN JUMPDEST POP CALLVALUE PUSH2 0x2B2 JUMPI DUP1 PUSH1 0x3 NOT CALLDATASIZE ADD SLT PUSH2 0x2B2 JUMPI SLOAD PUSH1 0x40 MLOAD PUSH1 0x1 PUSH1 0x1 PUSH1 0xA0 SHL SUB SWAP1 SWAP2 AND DUP2 MSTORE PUSH1 0x20 SWAP1 RETURN JUMPDEST POP CALLVALUE PUSH2 0x2B2 JUMPI DUP1 PUSH1 0x3 NOT CALLDATASIZE ADD SLT PUSH2 0x2B2 JUMPI PUSH1 0x20 PUSH1 0x40 MLOAD PUSH8 0xFFFFFFFFFFFFFFFF PUSH32 0x0 AND DUP2 MSTORE RETURN JUMPDEST POP CALLVALUE PUSH2 0x2B2 JUMPI DUP1 PUSH1 0x3 NOT CALLDATASIZE ADD SLT PUSH2 0x2B2 JUMPI PUSH1 0x20 PUSH1 0x40 MLOAD PUSH1 0xFF PUSH32 0x0 AND DUP2 MSTORE RETURN JUMPDEST POP CALLVALUE PUSH2 0x2B2 JUMPI DUP1 PUSH1 0x3 NOT CALLDATASIZE ADD SLT PUSH2 0x2B2 JUMPI PUSH1 0x20 PUSH1 0xC SLOAD PUSH1 0x40 MLOAD SWAP1 DUP2 MSTORE RETURN JUMPDEST POP CALLVALUE PUSH2 0x2B2 JUMPI DUP1 PUSH1 0x3 NOT CALLDATASIZE ADD SLT PUSH2 0x2B2 JUMPI PUSH1 0x20 PUSH1 0x40 MLOAD PUSH32 0x0 DUP2 MSTORE RETURN JUMPDEST POP CALLVALUE PUSH2 0x2B2 JUMPI DUP1 PUSH1 0x3 NOT CALLDATASIZE ADD SLT PUSH2 0x2B2 JUMPI PUSH1 0x40 MLOAD PUSH32 0x0 PUSH1 0x1 PUSH1 0x1 PUSH1 0xA0 SHL SUB AND DUP2 MSTORE PUSH1 0x20 SWAP1 RETURN JUMPDEST POP CALLVALUE PUSH2 0x2B2 JUMPI DUP1 PUSH1 0x3 NOT CALLDATASIZE ADD SLT PUSH2 0x2B2 JUMPI PUSH1 0x20 PUSH1 0x9 SLOAD PUSH1 0x40 MLOAD SWAP1 DUP2 MSTORE RETURN JUMPDEST POP CALLVALUE PUSH2 0x2B2 JUMPI DUP1 PUSH1 0x3 NOT CALLDATASIZE ADD SLT PUSH2 0x2B2 JUMPI PUSH1 0x1 SLOAD PUSH1 0x1 PUSH1 0x1 PUSH1 0xA0 SHL SUB CALLER DUP2 DUP4 AND SUB PUSH2 0x14C7 JUMPI PUSH12 0xFFFFFFFFFFFFFFFFFFFFFFFF PUSH1 0xA0 SHL DUP1 SWAP3 AND PUSH1 0x1 SSTORE PUSH1 0x0 SLOAD SWAP2 CALLER SWAP1 DUP4 AND OR PUSH1 0x0 SSTORE CALLER SWAP2 AND PUSH32 0x8BE0079C531659141344CD1FD0A4F28419497F9722A3DAAFE3B4186F6B6457E0 PUSH1 0x0 DUP1 LOG3 DUP1 RETURN JUMPDEST PUSH1 0x40 MLOAD PUSH4 0x118CDAA7 PUSH1 0xE0 SHL DUP2 MSTORE CALLER PUSH1 0x4 DUP3 ADD MSTORE PUSH1 0x24 SWAP1 REVERT JUMPDEST POP CALLVALUE PUSH2 0x2B2 JUMPI DUP1 PUSH1 0x3 NOT CALLDATASIZE ADD SLT PUSH2 0x2B2 JUMPI PUSH1 0x20 PUSH1 0x40 MLOAD PUSH32 0x0 DUP2 MSTORE RETURN JUMPDEST POP CALLVALUE PUSH2 0x2B2 JUMPI DUP1 PUSH1 0x3 NOT CALLDATASIZE ADD SLT PUSH2 0x2B2 JUMPI PUSH2 0x1533 PUSH2 0x3291 JUMP JUMPDEST PUSH1 0x1 DUP1 SLOAD PUSH1 0x1 PUSH1 0x1 PUSH1 0xA0 SHL SUB NOT SWAP1 DUP2 AND SWAP1 SWAP2 SSTORE PUSH1 0x0 DUP1 SLOAD SWAP2 DUP3 AND DUP2 SSTORE SWAP1 PUSH1 0x1 PUSH1 0x1 PUSH1 0xA0 SHL SUB AND PUSH32 0x8BE0079C531659141344CD1FD0A4F28419497F9722A3DAAFE3B4186F6B6457E0 DUP3 DUP1 LOG3 DUP1 RETURN JUMPDEST POP PUSH1 0x80 CALLDATASIZE PUSH1 0x3 NOT ADD SLT PUSH2 0x2B2 JUMPI PUSH2 0x1595 PUSH2 0x2809 JUMP JUMPDEST PUSH1 0x44 CALLDATALOAD SWAP1 PUSH1 0x1 PUSH1 0x1 PUSH1 0xA0 SHL SUB DUP1 DUP4 AND SWAP2 PUSH1 0x24 CALLDATALOAD SWAP2 DUP4 DUP6 SUB PUSH2 0x641 JUMPI PUSH2 0x15B8 PUSH2 0x2C3B JUMP JUMPDEST PUSH1 0x6 SLOAD PUSH1 0xFF DUP2 AND ISZERO PUSH2 0x7D2 JUMPI PUSH1 0x8 SHR PUSH1 0xFF AND PUSH2 0x15D3 DUP2 PUSH2 0x2819 JUMP JUMPDEST PUSH2 0x7C0 JUMPI PUSH32 0x0 TIMESTAMP LT ISZERO PUSH2 0x7AE JUMPI PUSH1 0xFF DUP3 AND SWAP5 PUSH1 0xFF PUSH32 0x0 AND DUP7 LT ISZERO PUSH2 0x11A9 JUMPI DUP4 ISZERO SWAP3 PUSH2 0x163C DUP5 ISZERO PUSH2 0x2A92 JUMP JUMPDEST DUP6 ISZERO PUSH2 0x1828 JUMPI PUSH32 0x0 DUP4 AND DUP1 PUSH2 0x17E2 JUMPI POP DUP5 CALLVALUE SUB PUSH2 0x6E7 JUMPI JUMPDEST PUSH2 0x167C DUP2 PUSH2 0x2B08 JUMP JUMPDEST SWAP4 PUSH2 0x1688 DUP6 ISZERO ISZERO PUSH2 0x2AC7 JUMP JUMPDEST PUSH8 0xDE0B6B3A7640000 SWAP1 DUP2 DUP8 MUL SWAP2 DUP8 DUP4 DIV EQ OR ISZERO PUSH2 0x17CE JUMPI DUP5 PUSH2 0x16AA SWAP2 PUSH2 0x295D JUMP JUMPDEST SWAP3 DUP4 ISZERO PUSH2 0x645 JUMPI PUSH1 0x64 CALLDATALOAD DUP5 LT PUSH2 0x17BC JUMPI PUSH2 0x16E0 DUP3 PUSH2 0x16DB PUSH2 0x16CB DUP13 SWAP6 PUSH2 0x26E6 JUMP JUMPDEST PUSH2 0x54D DUP12 DUP4 SLOAD DUP4 PUSH1 0x3 SHL SHR PUSH2 0x2AFB JUMP JUMPDEST PUSH2 0x276A JUMP JUMPDEST SWAP1 SLOAD SWAP1 PUSH1 0x3 SHL SHR AND SWAP2 DUP3 EXTCODESIZE ISZERO PUSH2 0x1165 JUMPI PUSH1 0x40 MLOAD PUSH4 0x40C10F19 PUSH1 0xE0 SHL DUP2 MSTORE PUSH1 0x1 PUSH1 0x1 PUSH1 0xA0 SHL SUB SWAP2 SWAP1 SWAP2 AND PUSH1 0x4 DUP3 ADD MSTORE PUSH1 0x24 DUP2 ADD DUP5 SWAP1 MSTORE SWAP2 DUP3 SWAP1 PUSH1 0x44 SWAP1 DUP3 SWAP1 DUP5 SWAP1 GAS CALL DUP1 ISZERO PUSH2 0x17B1 JUMPI PUSH2 0x177C JUMPI JUMPDEST POP PUSH1 0x40 DUP1 MLOAD SWAP4 DUP5 MSTORE PUSH1 0x20 DUP5 ADD SWAP2 SWAP1 SWAP2 MSTORE DUP3 ADD MSTORE CALLER SWAP1 PUSH32 0x8241D0DEFADD8507317470D315422749A6C8F8B8C9C0872AAB09C665EAF3B66B SWAP1 PUSH1 0x60 SWAP1 LOG4 PUSH1 0x1 PUSH1 0x0 DUP1 MLOAD PUSH1 0x20 PUSH2 0x33DB DUP4 CODECOPY DUP2 MLOAD SWAP2 MSTORE SSTORE DUP1 RETURN JUMPDEST SWAP6 PUSH2 0x17A9 PUSH32 0x8241D0DEFADD8507317470D315422749A6C8F8B8C9C0872AAB09C665EAF3B66B SWAP4 SWAP3 SWAP8 PUSH2 0x2873 JUMP JUMPDEST SWAP6 SWAP1 SWAP2 PUSH2 0x172C JUMP JUMPDEST PUSH1 0x40 MLOAD RETURNDATASIZE DUP10 DUP3 RETURNDATACOPY RETURNDATASIZE SWAP1 REVERT JUMPDEST PUSH1 0x40 MLOAD PUSH4 0x7DD37F7 PUSH1 0xE4 SHL DUP2 MSTORE PUSH1 0x4 SWAP1 REVERT JUMPDEST PUSH4 0x4E487B71 PUSH1 0xE0 SHL DUP10 MSTORE PUSH1 0x11 PUSH1 0x4 MSTORE PUSH1 0x24 DUP10 REVERT JUMPDEST CALLVALUE PUSH2 0x17FA JUMPI DUP6 PUSH2 0x17F5 SWAP2 ADDRESS SWAP1 CALLER SWAP1 PUSH2 0x3204 JUMP JUMPDEST PUSH2 0x1673 JUMP JUMPDEST PUSH1 0x40 MLOAD PUSH3 0x461BCD PUSH1 0xE5 SHL DUP2 MSTORE PUSH1 0x20 PUSH1 0x4 DUP3 ADD MSTORE PUSH1 0x6 PUSH1 0x24 DUP3 ADD MSTORE PUSH6 0x9CDE408AA89 PUSH1 0xD3 SHL PUSH1 0x44 DUP3 ADD MSTORE PUSH1 0x64 SWAP1 REVERT JUMPDEST PUSH1 0x40 MLOAD PUSH3 0x461BCD PUSH1 0xE5 SHL DUP2 MSTORE PUSH1 0x20 PUSH1 0x4 DUP3 ADD MSTORE PUSH1 0x9 PUSH1 0x24 DUP3 ADD MSTORE PUSH9 0x149958DA5C1A595B9D PUSH1 0xBA SHL PUSH1 0x44 DUP3 ADD MSTORE PUSH1 0x64 SWAP1 REVERT JUMPDEST POP CALLVALUE PUSH2 0x2B2 JUMPI DUP1 PUSH1 0x3 NOT CALLDATASIZE ADD SLT PUSH2 0x2B2 JUMPI PUSH1 0x20 PUSH1 0x40 MLOAD PUSH32 0x0 DUP2 MSTORE RETURN JUMPDEST POP CALLVALUE PUSH2 0x2B2 JUMPI PUSH1 0x20 CALLDATASIZE PUSH1 0x3 NOT ADD SLT PUSH2 0x2B2 JUMPI PUSH1 0x20 PUSH2 0x18B3 PUSH1 0x4 CALLDATALOAD PUSH2 0x276A JUMP JUMPDEST SWAP1 SLOAD PUSH1 0x40 MLOAD PUSH1 0x3 SWAP3 SWAP1 SWAP3 SHL SHR PUSH1 0x1 PUSH1 0x1 PUSH1 0xA0 SHL SUB AND DUP2 MSTORE RETURN JUMPDEST POP CALLVALUE PUSH2 0x2B2 JUMPI DUP1 PUSH1 0x3 NOT CALLDATASIZE ADD SLT PUSH2 0x2B2 JUMPI PUSH1 0x20 PUSH1 0xA SLOAD PUSH1 0x40 MLOAD SWAP1 DUP2 MSTORE RETURN JUMPDEST POP CALLVALUE PUSH2 0x2B2 JUMPI PUSH1 0x20 CALLDATASIZE PUSH1 0x3 NOT ADD SLT PUSH2 0x2B2 JUMPI PUSH1 0x4 CALLDATALOAD PUSH2 0x1907 PUSH2 0x2C3B JUMP JUMPDEST PUSH1 0xFF PUSH1 0x6 SLOAD AND ISZERO PUSH2 0x7D2 JUMPI PUSH32 0x0 PUSH1 0x2 DUP2 LT ISZERO PUSH2 0xD20 JUMPI PUSH1 0x1 SUB PUSH2 0x19C6 JUMPI PUSH2 0x194E DUP2 ISZERO ISZERO PUSH2 0x2A92 JUMP JUMPDEST PUSH32 0x0 PUSH1 0x1 PUSH1 0x1 PUSH1 0xA0 SHL SUB AND SWAP1 PUSH2 0x1985 DUP2 ADDRESS CALLER DUP6 PUSH2 0x3204 JUMP JUMPDEST PUSH1 0x40 MLOAD SWAP1 DUP2 MSTORE PUSH32 0xB70CCB2B3A65BA201E6B7107278D5064431BC3ACF6E932D8F869A913A6797387 PUSH1 0x20 CALLER SWAP3 LOG3 PUSH1 0x1 PUSH1 0x0 DUP1 MLOAD PUSH1 0x20 PUSH2 0x33DB DUP4 CODECOPY DUP2 MLOAD SWAP2 MSTORE SSTORE DUP1 RETURN JUMPDEST PUSH1 0x40 MLOAD PUSH4 0x588DCCFD PUSH1 0xE0 SHL DUP2 MSTORE PUSH1 0x4 SWAP1 REVERT JUMPDEST POP CALLVALUE PUSH2 0x2B2 JUMPI DUP1 PUSH1 0x3 NOT CALLDATASIZE ADD SLT PUSH2 0x2B2 JUMPI PUSH1 0x20 PUSH1 0x40 MLOAD PUSH32 0x0 DUP2 MSTORE RETURN JUMPDEST POP CALLVALUE PUSH2 0x2B2 JUMPI DUP1 PUSH1 0x3 NOT CALLDATASIZE ADD SLT PUSH2 0x2B2 JUMPI PUSH2 0x1A2C PUSH2 0x2C3B JUMP JUMPDEST PUSH1 0x6 SLOAD PUSH1 0xFF DUP2 AND ISZERO PUSH2 0x7D2 JUMPI PUSH32 0x0 PUSH1 0x2 DUP2 LT ISZERO PUSH2 0xD20 JUMPI PUSH1 0x1 SUB PUSH2 0xD0E JUMPI PUSH1 0xFF PUSH1 0x1 SWAP2 PUSH1 0x8 SHR AND PUSH2 0x1A7B DUP2 PUSH2 0x2819 JUMP JUMPDEST SUB PUSH2 0xD0E JUMPI PUSH2 0x1ACC PUSH1 0x20 PUSH2 0x1A8D PUSH2 0x29BF JUMP JUMPDEST PUSH1 0x8 SLOAD PUSH1 0x40 MLOAD PUSH4 0x53B59239 PUSH1 0xE0 SHL DUP2 MSTORE SWAP4 DUP5 SWAP3 DUP4 SWAP3 PUSH32 0x0 PUSH1 0x4 DUP6 ADD PUSH2 0x2A73 JUMP JUMPDEST SUB DUP2 DUP6 PUSH32 0x0 PUSH1 0x1 PUSH1 0x1 PUSH1 0xA0 SHL SUB AND GAS CALL DUP1 ISZERO PUSH2 0xAC8 JUMPI DUP3 SWAP1 PUSH2 0x1B1B JUMPI JUMPDEST PUSH2 0x113C SWAP2 POP PUSH2 0x1B16 DUP2 PUSH2 0x312E JUMP JUMPDEST PUSH2 0x2E59 JUMP JUMPDEST POP PUSH1 0x20 DUP2 RETURNDATASIZE PUSH1 0x20 GT PUSH2 0x1B47 JUMPI JUMPDEST DUP2 PUSH2 0x1B35 PUSH1 0x20 SWAP4 DUP4 PUSH2 0x289D JUMP JUMPDEST DUP2 ADD SUB SLT PUSH2 0x1165 JUMPI PUSH2 0x113C SWAP1 MLOAD PUSH2 0x1B08 JUMP JUMPDEST RETURNDATASIZE SWAP2 POP PUSH2 0x1B28 JUMP JUMPDEST POP CALLVALUE PUSH2 0x2B2 JUMPI DUP1 PUSH1 0x3 NOT CALLDATASIZE ADD SLT PUSH2 0x2B2 JUMPI PUSH1 0x40 MLOAD PUSH32 0x0 PUSH1 0x1 PUSH1 0x1 PUSH1 0xA0 SHL SUB AND DUP2 MSTORE PUSH1 0x20 SWAP1 RETURN JUMPDEST POP CALLVALUE PUSH2 0x2B2 JUMPI DUP1 PUSH1 0x3 NOT CALLDATASIZE ADD SLT PUSH2 0x2B2 JUMPI PUSH1 0x40 MLOAD PUSH32 0x0 PUSH1 0x1 PUSH1 0x1 PUSH1 0xA0 SHL SUB AND DUP2 MSTORE PUSH1 0x20 SWAP1 RETURN JUMPDEST POP CALLVALUE PUSH2 0x2B2 JUMPI PUSH1 0x80 CALLDATASIZE PUSH1 0x3 NOT ADD SLT PUSH2 0x2B2 JUMPI PUSH8 0xFFFFFFFFFFFFFFFF PUSH1 0x4 CALLDATALOAD DUP2 DUP2 GT PUSH2 0xAD3 JUMPI PUSH2 0x1C0C SWAP1 CALLDATASIZE SWAP1 PUSH1 0x4 ADD PUSH2 0x27D8 JUMP JUMPDEST SWAP2 DUP1 PUSH1 0x24 CALLDATALOAD GT PUSH2 0x228E JUMPI CALLDATASIZE PUSH1 0x23 PUSH1 0x24 CALLDATALOAD ADD SLT ISZERO PUSH2 0x228E JUMPI DUP1 PUSH1 0x24 CALLDATALOAD PUSH1 0x4 ADD CALLDATALOAD GT PUSH2 0x228E JUMPI CALLDATASIZE PUSH1 0x24 DUP1 CALLDATALOAD PUSH1 0x4 ADD CALLDATALOAD DUP2 CALLDATALOAD ADD ADD GT PUSH2 0x228E JUMPI PUSH1 0x44 CALLDATALOAD DUP2 DUP2 GT PUSH2 0x632 JUMPI PUSH2 0x1C5A SWAP1 CALLDATASIZE SWAP1 PUSH1 0x4 ADD PUSH2 0x27D8 JUMP JUMPDEST SWAP1 SWAP2 PUSH1 0x64 CALLDATALOAD SWAP1 DUP2 GT PUSH2 0x641 JUMPI PUSH2 0x1C74 SWAP1 CALLDATASIZE SWAP1 PUSH1 0x4 ADD PUSH2 0x27D8 JUMP JUMPDEST SWAP1 SWAP2 PUSH32 0x0 PUSH1 0x1 PUSH1 0x1 PUSH1 0xA0 SHL SUB AND CALLER SUB PUSH2 0x227C JUMPI PUSH1 0x6 SLOAD PUSH1 0xFF DUP2 AND PUSH2 0x226B JUMPI PUSH1 0xFF PUSH32 0x0 AND DUP8 SUB PUSH2 0x2238 JUMPI PUSH1 0xFF NOT AND PUSH1 0x1 OR PUSH1 0x6 SSTORE DUP7 JUMPDEST DUP7 DUP2 LT PUSH2 0x2182 JUMPI POP PUSH1 0x2 PUSH32 0x0 LT ISZERO PUSH2 0x216E JUMPI PUSH32 0x0 ISZERO PUSH2 0x1FA9 JUMPI JUMPDEST POP POP POP POP PUSH1 0x1 PUSH32 0x0 EQ PUSH2 0x1E1C JUMPI JUMPDEST PUSH1 0x40 MLOAD SWAP2 DUP1 PUSH1 0x40 DUP5 ADD PUSH1 0x40 DUP6 MSTORE MSTORE PUSH1 0x60 DUP4 ADD SWAP2 SWAP1 DUP5 JUMPDEST DUP2 DUP2 LT PUSH2 0x1DEE JUMPI DUP6 PUSH32 0xA8457C2BCBBDB92C70CAE1F959DE4C2FB0BD95A61C6FDABE79A02BFE7EA38601 DUP7 PUSH1 0x20 DUP2 DUP9 DUP2 DUP2 SUB DUP4 DUP4 ADD MSTORE PUSH1 0x24 CALLDATALOAD PUSH1 0x4 ADD CALLDATALOAD DUP2 MSTORE PUSH1 0x24 CALLDATALOAD PUSH1 0x4 ADD CALLDATALOAD PUSH1 0x24 DUP1 CALLDATALOAD ADD DUP5 DUP4 ADD CALLDATACOPY PUSH1 0x4 PUSH1 0x24 CALLDATALOAD ADD CALLDATALOAD DUP2 DUP2 ADD DUP5 ADD DUP8 SWAP1 MSTORE PUSH1 0x1F ADD PUSH1 0x1F NOT AND ADD SUB ADD SWAP1 LOG1 DUP1 RETURN JUMPDEST SWAP1 SWAP2 SWAP3 DUP4 CALLDATALOAD SWAP1 PUSH1 0x1 DUP1 PUSH1 0xA0 SHL SUB DUP3 AND DUP1 SWAP3 SUB PUSH2 0x1E18 JUMPI SWAP1 DUP2 MSTORE PUSH1 0x20 SWAP1 DUP2 ADD SWAP4 ADD SWAP2 SWAP1 PUSH1 0x1 ADD PUSH2 0x1D82 JUMP JUMPDEST DUP7 DUP1 REVERT JUMPDEST PUSH1 0x24 CALLDATALOAD PUSH1 0x4 ADD CALLDATALOAD ISZERO PUSH2 0x1F79 JUMPI PUSH2 0x1E33 PUSH1 0x7 SLOAD PUSH2 0x2839 JUMP JUMPDEST PUSH1 0x1F DUP2 GT PUSH2 0x1F1C JUMPI JUMPDEST POP DUP3 PUSH1 0x1F PUSH1 0x24 CALLDATALOAD PUSH1 0x4 ADD CALLDATALOAD GT PUSH1 0x1 EQ PUSH2 0x1E91 JUMPI DUP4 SWAP1 PUSH1 0x24 CALLDATALOAD PUSH1 0x4 ADD CALLDATALOAD PUSH2 0x1E82 JUMPI JUMPDEST POP PUSH1 0x24 CALLDATALOAD PUSH1 0x4 ADD CALLDATALOAD PUSH1 0x1 SHL SWAP1 PUSH1 0x0 NOT PUSH1 0x24 CALLDATALOAD PUSH1 0x4 ADD CALLDATALOAD PUSH1 0x3 SHL SHR NOT AND OR PUSH1 0x7 SSTORE PUSH2 0x1D6C JUMP JUMPDEST PUSH1 0x24 DUP1 SWAP3 POP CALLDATALOAD ADD ADD CALLDATALOAD CODESIZE PUSH2 0x1E5D JUMP JUMPDEST PUSH1 0x7 DUP5 MSTORE PUSH1 0x0 DUP1 MLOAD PUSH1 0x20 PUSH2 0x33BB DUP4 CODECOPY DUP2 MLOAD SWAP2 MSTORE SWAP1 PUSH1 0x4 PUSH1 0x24 CALLDATALOAD ADD CALLDATALOAD PUSH1 0x1F NOT AND DUP6 JUMPDEST DUP2 DUP2 LT PUSH2 0x1F00 JUMPI POP PUSH1 0x24 CALLDATALOAD PUSH1 0x4 ADD CALLDATALOAD GT PUSH2 0x1EDD JUMPI JUMPDEST POP POP PUSH1 0x1 PUSH1 0x24 CALLDATALOAD PUSH1 0x4 ADD CALLDATALOAD DUP2 SHL ADD PUSH1 0x7 SSTORE PUSH2 0x1D6C JUMP JUMPDEST PUSH1 0x24 PUSH1 0x0 NOT PUSH1 0xF8 DUP3 CALLDATALOAD PUSH1 0x4 ADD CALLDATALOAD PUSH1 0x3 SHL AND SHR NOT SWAP2 DUP2 CALLDATALOAD ADD ADD CALLDATALOAD AND SWAP1 SSTORE CODESIZE DUP1 PUSH2 0x1EC7 JUMP JUMPDEST SWAP2 SWAP3 PUSH1 0x20 PUSH1 0x1 DUP2 SWAP3 PUSH1 0x24 DUP8 DUP2 CALLDATALOAD ADD ADD CALLDATALOAD DUP2 SSTORE ADD SWAP5 ADD SWAP3 ADD PUSH2 0x1EB2 JUMP JUMPDEST PUSH1 0x7 DUP5 MSTORE PUSH1 0x0 DUP1 MLOAD PUSH1 0x20 PUSH2 0x33BB DUP4 CODECOPY DUP2 MLOAD SWAP2 MSTORE PUSH1 0x1F PUSH1 0x24 CALLDATALOAD PUSH1 0x4 ADD CALLDATALOAD ADD PUSH1 0x5 SHR DUP2 ADD SWAP2 PUSH1 0x20 PUSH1 0x24 CALLDATALOAD PUSH1 0x4 ADD CALLDATALOAD LT PUSH2 0x1F6F JUMPI JUMPDEST PUSH1 0x1F ADD PUSH1 0x5 SHR ADD SWAP1 JUMPDEST DUP2 DUP2 LT PUSH2 0x1F64 JUMPI POP PUSH2 0x1E3C JUMP JUMPDEST DUP5 DUP2 SSTORE PUSH1 0x1 ADD PUSH2 0x1F57 JUMP JUMPDEST SWAP1 SWAP2 POP DUP2 SWAP1 PUSH2 0x1F4E JUMP JUMPDEST PUSH1 0x40 MLOAD PUSH3 0x461BCD PUSH1 0xE5 SHL DUP2 MSTORE PUSH1 0x20 PUSH1 0x4 DUP3 ADD MSTORE PUSH1 0x8 PUSH1 0x24 DUP3 ADD MSTORE PUSH8 0x28BAB2B9BA34B7B7 PUSH1 0xC1 SHL PUSH1 0x44 DUP3 ADD MSTORE PUSH1 0x64 SWAP1 REVERT JUMPDEST DUP1 ISZERO PUSH2 0x210B JUMPI PUSH1 0xFF PUSH32 0x0 AND DUP2 EQ DUP1 PUSH2 0x20DF JUMPI JUMPDEST PUSH2 0x1FE4 SWAP1 PUSH2 0x298D JUMP JUMPDEST DUP7 JUMPDEST DUP2 DUP2 LT PUSH2 0x1FFC JUMPI POP POP POP POP POP JUMPDEST CODESIZE DUP1 DUP1 DUP1 PUSH2 0x1D3F JUMP JUMPDEST PUSH2 0x2007 DUP2 DUP4 DUP8 PUSH2 0x297D JUMP JUMPDEST CALLDATALOAD PUSH2 0x2013 DUP3 DUP6 DUP8 PUSH2 0x297D JUMP JUMPDEST CALLDATALOAD LT PUSH2 0x20AD JUMPI PUSH2 0x2024 DUP2 DUP4 DUP8 PUSH2 0x297D JUMP JUMPDEST CALLDATALOAD PUSH1 0x4 SLOAD SWAP1 PUSH1 0x1 PUSH1 0x40 SHL SWAP2 DUP3 DUP2 LT ISZERO PUSH2 0x2099 JUMPI SWAP1 PUSH2 0x204B DUP3 PUSH1 0x1 PUSH2 0x2064 SWAP5 ADD PUSH1 0x4 SSTORE PUSH2 0x2733 JUMP JUMPDEST SWAP1 SWAP2 SWAP1 DUP3 SLOAD SWAP1 PUSH1 0x3 SHL SWAP2 DUP3 SHL SWAP2 PUSH1 0x0 NOT SWAP1 SHL NOT AND OR SWAP1 SSTORE JUMP JUMPDEST PUSH2 0x206F DUP3 DUP6 DUP8 PUSH2 0x297D JUMP JUMPDEST CALLDATALOAD SWAP1 PUSH1 0x5 DUP1 SLOAD SWAP2 DUP3 LT ISZERO PUSH2 0x2099 JUMPI SWAP2 PUSH2 0x204B DUP3 PUSH1 0x1 SWAP6 SWAP5 DUP7 PUSH2 0x2093 SWAP6 ADD SWAP1 SSTORE PUSH2 0x27A1 JUMP JUMPDEST ADD PUSH2 0x1FE6 JUMP JUMPDEST PUSH4 0x4E487B71 PUSH1 0xE0 SHL DUP12 MSTORE PUSH1 0x41 PUSH1 0x4 MSTORE PUSH1 0x24 DUP12 REVERT JUMPDEST PUSH1 0x40 MLOAD PUSH3 0x461BCD PUSH1 0xE5 SHL DUP2 MSTORE PUSH1 0x20 PUSH1 0x4 DUP3 ADD MSTORE PUSH1 0xA PUSH1 0x24 DUP3 ADD MSTORE PUSH10 0x42696E20626F756E6473 PUSH1 0xB0 SHL PUSH1 0x44 DUP3 ADD MSTORE PUSH1 0x64 SWAP1 REVERT JUMPDEST POP PUSH32 0x0 PUSH1 0xFF AND DUP3 EQ PUSH2 0x1FDB JUMP JUMPDEST POP POP POP POP PUSH1 0x2 PUSH1 0xFF PUSH32 0x0 AND SUB ISZERO PUSH2 0x1FF3 JUMPI PUSH1 0x40 MLOAD PUSH3 0x461BCD PUSH1 0xE5 SHL DUP2 MSTORE PUSH1 0x20 PUSH1 0x4 DUP3 ADD MSTORE PUSH1 0xB PUSH1 0x24 DUP3 ADD MSTORE PUSH11 0x2134B7399037B910271E99 PUSH1 0xA9 SHL PUSH1 0x44 DUP3 ADD MSTORE PUSH1 0x64 SWAP1 REVERT JUMPDEST PUSH4 0x4E487B71 PUSH1 0xE0 SHL DUP8 MSTORE PUSH1 0x21 PUSH1 0x4 MSTORE PUSH1 0x24 DUP8 REVERT JUMPDEST PUSH2 0x218D DUP2 DUP9 DUP9 PUSH2 0x297D JUMP JUMPDEST CALLDATALOAD PUSH1 0x1 PUSH1 0x1 PUSH1 0xA0 SHL SUB DUP2 AND SWAP1 DUP2 SWAP1 SUB PUSH2 0x2234 JUMPI PUSH1 0x2 DUP1 SLOAD PUSH1 0x1 PUSH1 0x40 SHL SWAP2 DUP3 DUP3 LT ISZERO PUSH2 0x2220 JUMPI PUSH1 0x1 DUP3 ADD SWAP1 SSTORE PUSH2 0x21C1 SWAP1 PUSH2 0x276A JUMP JUMPDEST SWAP3 DUP2 SLOAD PUSH1 0x3 SWAP5 DUP6 SHL SWAP2 DUP3 SHL SWAP2 PUSH1 0x1 DUP1 PUSH1 0xA0 SHL SUB SWAP1 SHL NOT AND OR SWAP1 SSTORE DUP2 SLOAD SWAP1 DUP2 LT ISZERO PUSH2 0x220C JUMPI SWAP1 PUSH2 0x21F7 DUP3 PUSH1 0x1 DUP1 SWAP6 SWAP5 ADD DUP4 SSTORE PUSH2 0x26E6 JUMP JUMPDEST SWAP1 SWAP2 DUP3 SLOAD SWAP2 PUSH1 0x0 NOT SWAP2 SHL SHL NOT AND SWAP1 SSTORE ADD PUSH2 0x1CE7 JUMP JUMPDEST PUSH4 0x4E487B71 PUSH1 0xE0 SHL DUP11 MSTORE PUSH1 0x41 PUSH1 0x4 MSTORE PUSH1 0x24 DUP11 REVERT JUMPDEST PUSH4 0x4E487B71 PUSH1 0xE0 SHL DUP13 MSTORE PUSH1 0x41 PUSH1 0x4 MSTORE PUSH1 0x24 DUP13 REVERT JUMPDEST DUP9 DUP1 REVERT JUMPDEST PUSH1 0x40 MLOAD PUSH3 0x461BCD PUSH1 0xE5 SHL DUP2 MSTORE PUSH1 0x20 PUSH1 0x4 DUP3 ADD MSTORE PUSH1 0xB PUSH1 0x24 DUP3 ADD MSTORE PUSH11 0x151BDAD95B8818DBDD5B9D PUSH1 0xAA SHL PUSH1 0x44 DUP3 ADD MSTORE PUSH1 0x64 SWAP1 REVERT JUMPDEST PUSH1 0x40 MLOAD PUSH3 0xDC149F PUSH1 0xE4 SHL DUP2 MSTORE PUSH1 0x4 SWAP1 REVERT JUMPDEST PUSH1 0x40 MLOAD PUSH4 0x636A157 PUSH1 0xE1 SHL DUP2 MSTORE PUSH1 0x4 SWAP1 REVERT JUMPDEST DUP4 DUP1 REVERT JUMPDEST POP CALLVALUE PUSH2 0x2B2 JUMPI DUP1 PUSH1 0x3 NOT CALLDATASIZE ADD SLT PUSH2 0x2B2 JUMPI PUSH1 0x20 PUSH1 0xFF PUSH1 0xD SLOAD PUSH1 0xA0 SHR AND PUSH1 0x40 MLOAD SWAP1 ISZERO ISZERO DUP2 MSTORE RETURN JUMPDEST POP CALLVALUE PUSH2 0x2B2 JUMPI DUP1 PUSH1 0x3 NOT CALLDATASIZE ADD SLT PUSH2 0x2B2 JUMPI PUSH1 0x40 MLOAD PUSH32 0x0 PUSH1 0x1 PUSH1 0x1 PUSH1 0xA0 SHL SUB AND DUP2 MSTORE PUSH1 0x20 SWAP1 RETURN JUMPDEST POP CALLVALUE PUSH2 0x2B2 JUMPI DUP1 PUSH1 0x3 NOT CALLDATASIZE ADD SLT PUSH2 0x2B2 JUMPI PUSH2 0x2316 PUSH2 0x2C3B JUMP JUMPDEST PUSH1 0x6 SLOAD PUSH1 0xFF SWAP1 DUP2 DUP2 AND ISZERO PUSH2 0x7D2 JUMPI PUSH32 0x0 PUSH1 0x2 DUP2 LT ISZERO PUSH2 0x2592 JUMPI PUSH2 0xD0E JUMPI PUSH1 0x8 SHR DUP2 AND PUSH2 0x2360 DUP2 PUSH2 0x2819 JUMP JUMPDEST PUSH2 0xD0E JUMPI PUSH32 0x0 TIMESTAMP LT PUSH2 0xCFC JUMPI PUSH1 0x40 MLOAD PUSH4 0x3FABE5A3 PUSH1 0xE2 SHL DUP2 MSTORE SWAP1 PUSH32 0x0 PUSH1 0x1 PUSH1 0x1 PUSH1 0xA0 SHL SUB AND PUSH1 0xA0 DUP4 PUSH1 0x4 DUP2 DUP5 GAS STATICCALL DUP1 ISZERO PUSH2 0xB43 JUMPI DUP5 SWAP4 DUP6 SWAP2 PUSH2 0x253E JUMPI JUMPDEST POP DUP5 DUP5 SGT ISZERO PUSH2 0x2510 JUMPI PUSH2 0x23EE SWAP1 TIMESTAMP PUSH2 0x2916 JUMP JUMPDEST PUSH32 0x0 LT PUSH2 0x24E3 JUMPI PUSH1 0x20 PUSH1 0x4 SWAP2 PUSH1 0x40 MLOAD SWAP3 DUP4 DUP1 SWAP3 PUSH4 0x313CE567 PUSH1 0xE0 SHL DUP3 MSTORE GAS STATICCALL DUP1 ISZERO PUSH2 0xB43 JUMPI DUP3 SWAP2 DUP6 SWAP2 PUSH2 0x24A5 JUMPI JUMPDEST POP AND PUSH1 0x6 DUP2 LT PUSH2 0x2482 JUMPI PUSH1 0x5 NOT ADD SWAP1 DUP2 GT PUSH2 0x246E JUMPI SWAP1 PUSH2 0x1B16 PUSH2 0x2469 PUSH2 0x2463 PUSH2 0x113C SWAP5 PUSH2 0x2939 JUMP JUMPDEST DUP4 PUSH2 0x295D JUMP JUMPDEST PUSH2 0x2C6B JUMP JUMPDEST PUSH4 0x4E487B71 PUSH1 0xE0 SHL DUP4 MSTORE PUSH1 0x11 PUSH1 0x4 MSTORE PUSH1 0x24 DUP4 REVERT JUMPDEST PUSH1 0x6 SUB SWAP1 DUP2 GT PUSH2 0x246E JUMPI SWAP1 PUSH2 0x1B16 PUSH2 0x2469 PUSH2 0x249F PUSH2 0x113C SWAP5 PUSH2 0x2939 JUMP JUMPDEST DUP4 PUSH2 0x294A JUMP JUMPDEST SWAP2 POP POP PUSH1 0x20 DUP2 RETURNDATASIZE PUSH1 0x20 GT PUSH2 0x24DB JUMPI JUMPDEST DUP2 PUSH2 0x24C1 PUSH1 0x20 SWAP4 DUP4 PUSH2 0x289D JUMP JUMPDEST DUP2 ADD SUB SLT PUSH2 0x228E JUMPI MLOAD DUP2 DUP2 AND DUP2 SUB PUSH2 0x228E JUMPI DUP2 SWAP1 CODESIZE PUSH2 0x243B JUMP JUMPDEST RETURNDATASIZE SWAP2 POP PUSH2 0x24B4 JUMP JUMPDEST PUSH1 0x40 MLOAD PUSH3 0x461BCD PUSH1 0xE5 SHL DUP2 MSTORE PUSH1 0x20 PUSH1 0x4 DUP3 ADD MSTORE PUSH1 0x5 PUSH1 0x24 DUP3 ADD MSTORE PUSH5 0x5374616C65 PUSH1 0xD8 SHL PUSH1 0x44 DUP3 ADD MSTORE PUSH1 0x64 SWAP1 REVERT JUMPDEST PUSH1 0x40 MLOAD PUSH3 0x461BCD PUSH1 0xE5 SHL DUP2 MSTORE PUSH1 0x20 PUSH1 0x4 DUP3 ADD MSTORE PUSH1 0x6 PUSH1 0x24 DUP3 ADD MSTORE PUSH6 0x20B739BBB2B9 PUSH1 0xD1 SHL PUSH1 0x44 DUP3 ADD MSTORE PUSH1 0x64 SWAP1 REVERT JUMPDEST SWAP4 POP POP PUSH1 0xA0 DUP4 RETURNDATASIZE PUSH1 0xA0 GT PUSH2 0x258A JUMPI JUMPDEST DUP2 PUSH2 0x255A PUSH1 0xA0 SWAP4 DUP4 PUSH2 0x289D JUMP JUMPDEST DUP2 ADD SUB SLT PUSH2 0x228E JUMPI PUSH2 0x256B DUP4 PUSH2 0x28FF JUMP JUMPDEST POP PUSH1 0x20 DUP4 ADD MLOAD PUSH2 0x2582 PUSH1 0x80 PUSH1 0x60 DUP7 ADD MLOAD SWAP6 ADD PUSH2 0x28FF JUMP JUMPDEST POP SWAP3 CODESIZE PUSH2 0x23DB JUMP JUMPDEST RETURNDATASIZE SWAP2 POP PUSH2 0x254D JUMP JUMPDEST PUSH4 0x4E487B71 PUSH1 0xE0 SHL DUP5 MSTORE PUSH1 0x21 PUSH1 0x4 MSTORE PUSH1 0x24 DUP5 REVERT JUMPDEST POP CALLVALUE PUSH2 0x2B2 JUMPI DUP1 PUSH1 0x3 NOT CALLDATASIZE ADD SLT PUSH2 0x2B2 JUMPI PUSH1 0x20 PUSH1 0xFF PUSH1 0x6 SLOAD AND PUSH1 0x40 MLOAD SWAP1 ISZERO ISZERO DUP2 MSTORE RETURN JUMPDEST POP CALLVALUE PUSH2 0x2B2 JUMPI DUP1 PUSH1 0x3 NOT CALLDATASIZE ADD SLT PUSH2 0x2B2 JUMPI PUSH1 0x20 PUSH1 0x40 MLOAD PUSH1 0x32 DUP2 MSTORE RETURN JUMPDEST POP CALLVALUE PUSH2 0x2B2 JUMPI PUSH1 0x20 CALLDATASIZE PUSH1 0x3 NOT ADD SLT PUSH2 0x2B2 JUMPI PUSH1 0x4 CALLDATALOAD SWAP1 PUSH1 0x4 SLOAD DUP3 LT ISZERO PUSH2 0x2B2 JUMPI PUSH1 0x20 PUSH2 0x351 DUP4 PUSH2 0x2733 JUMP JUMPDEST POP CALLVALUE PUSH2 0x2B2 JUMPI DUP1 PUSH1 0x3 NOT CALLDATASIZE ADD SLT PUSH2 0x2B2 JUMPI PUSH1 0x40 MLOAD PUSH32 0x0 PUSH1 0x1 PUSH1 0x1 PUSH1 0xA0 SHL SUB AND DUP2 MSTORE PUSH1 0x20 SWAP1 RETURN JUMPDEST POP CALLVALUE PUSH2 0x2B2 JUMPI PUSH1 0x20 CALLDATASIZE PUSH1 0x3 NOT ADD SLT PUSH2 0x2B2 JUMPI PUSH1 0x4 CALLDATALOAD SWAP1 PUSH1 0x3 SLOAD DUP3 LT ISZERO PUSH2 0x2B2 JUMPI PUSH1 0x20 PUSH2 0x2680 DUP4 PUSH2 0x26E6 JUMP JUMPDEST SWAP1 SLOAD SWAP1 PUSH1 0x3 SHL SHR PUSH1 0x40 MLOAD SWAP1 DUP2 MSTORE RETURN JUMPDEST POP CALLVALUE PUSH2 0x2B2 JUMPI DUP1 PUSH1 0x3 NOT CALLDATASIZE ADD SLT PUSH2 0x2B2 JUMPI PUSH1 0x20 PUSH1 0x40 MLOAD PUSH2 0x12C DUP2 MSTORE RETURN JUMPDEST SWAP1 POP CALLVALUE PUSH2 0x1165 JUMPI DUP2 PUSH1 0x3 NOT CALLDATASIZE ADD SLT PUSH2 0x1165 JUMPI PUSH1 0x20 SWAP1 PUSH32 0x0 DUP2 MSTORE RETURN JUMPDEST PUSH1 0x3 SLOAD DUP2 LT ISZERO PUSH2 0x271D JUMPI PUSH1 0x3 PUSH1 0x0 MSTORE PUSH32 0xC2575A0E9E593C00F959F8C92F12DB2869C3395A3B0502D05E2516446F71F85B ADD SWAP1 PUSH1 0x0 SWAP1 JUMP JUMPDEST PUSH4 0x4E487B71 PUSH1 0xE0 SHL PUSH1 0x0 MSTORE PUSH1 0x32 PUSH1 0x4 MSTORE PUSH1 0x24 PUSH1 0x0 REVERT JUMPDEST PUSH1 0x4 SLOAD DUP2 LT ISZERO PUSH2 0x271D JUMPI PUSH1 0x4 PUSH1 0x0 MSTORE PUSH32 0x8A35ACFBC15FF81A39AE7D344FD709F28E8600B4AA8C65C6B64BFE7FE36BD19B ADD SWAP1 PUSH1 0x0 SWAP1 JUMP JUMPDEST PUSH1 0x2 SLOAD DUP2 LT ISZERO PUSH2 0x271D JUMPI PUSH1 0x2 PUSH1 0x0 MSTORE PUSH32 0x405787FA12A823E0F2B7631CC41B3BA8828B3321CA811111FA75CD3AA3BB5ACE ADD SWAP1 PUSH1 0x0 SWAP1 JUMP JUMPDEST PUSH1 0x5 SLOAD DUP2 LT ISZERO PUSH2 0x271D JUMPI PUSH1 0x5 PUSH1 0x0 MSTORE PUSH32 0x36B6384B5ECA791C62761152D0C79BB0604C104A5FB6F4EB0703F3154BB3DB0 ADD SWAP1 PUSH1 0x0 SWAP1 JUMP JUMPDEST SWAP2 DUP2 PUSH1 0x1F DUP5 ADD SLT ISZERO PUSH2 0x321 JUMPI DUP3 CALLDATALOAD SWAP2 PUSH8 0xFFFFFFFFFFFFFFFF DUP4 GT PUSH2 0x321 JUMPI PUSH1 0x20 DUP1 DUP6 ADD SWAP5 DUP5 PUSH1 0x5 SHL ADD ADD GT PUSH2 0x321 JUMPI JUMP JUMPDEST PUSH1 0x4 CALLDATALOAD SWAP1 PUSH1 0xFF DUP3 AND DUP3 SUB PUSH2 0x321 JUMPI JUMP JUMPDEST PUSH1 0x3 GT ISZERO PUSH2 0x2823 JUMPI JUMP JUMPDEST PUSH4 0x4E487B71 PUSH1 0xE0 SHL PUSH1 0x0 MSTORE PUSH1 0x21 PUSH1 0x4 MSTORE PUSH1 0x24 PUSH1 0x0 REVERT JUMPDEST SWAP1 PUSH1 0x1 DUP3 DUP2 SHR SWAP3 AND DUP1 ISZERO PUSH2 0x2869 JUMPI JUMPDEST PUSH1 0x20 DUP4 LT EQ PUSH2 0x2853 JUMPI JUMP JUMPDEST PUSH4 0x4E487B71 PUSH1 0xE0 SHL PUSH1 0x0 MSTORE PUSH1 0x22 PUSH1 0x4 MSTORE PUSH1 0x24 PUSH1 0x0 REVERT JUMPDEST SWAP2 PUSH1 0x7F AND SWAP2 PUSH2 0x2848 JUMP JUMPDEST PUSH8 0xFFFFFFFFFFFFFFFF DUP2 GT PUSH2 0x2887 JUMPI PUSH1 0x40 MSTORE JUMP JUMPDEST PUSH4 0x4E487B71 PUSH1 0xE0 SHL PUSH1 0x0 MSTORE PUSH1 0x41 PUSH1 0x4 MSTORE PUSH1 0x24 PUSH1 0x0 REVERT JUMPDEST SWAP1 PUSH1 0x1F DUP1 NOT SWAP2 ADD AND DUP2 ADD SWAP1 DUP2 LT PUSH8 0xFFFFFFFFFFFFFFFF DUP3 GT OR PUSH2 0x2887 JUMPI PUSH1 0x40 MSTORE JUMP JUMPDEST SWAP2 SWAP1 DUP3 MLOAD SWAP3 DUP4 DUP3 MSTORE PUSH1 0x0 JUMPDEST DUP5 DUP2 LT PUSH2 0x28EB JUMPI POP POP DUP3 PUSH1 0x0 PUSH1 0x20 DUP1 SWAP5 SWAP6 DUP5 ADD ADD MSTORE PUSH1 0x1F DUP1 NOT SWAP2 ADD AND ADD ADD SWAP1 JUMP JUMPDEST PUSH1 0x20 DUP2 DUP4 ADD DUP2 ADD MLOAD DUP5 DUP4 ADD DUP3 ADD MSTORE ADD PUSH2 0x28CA JUMP JUMPDEST MLOAD SWAP1 PUSH10 0xFFFFFFFFFFFFFFFFFFFF DUP3 AND DUP3 SUB PUSH2 0x321 JUMPI JUMP JUMPDEST SWAP2 SWAP1 DUP3 SUB SWAP2 DUP3 GT PUSH2 0x2923 JUMPI JUMP JUMPDEST PUSH4 0x4E487B71 PUSH1 0xE0 SHL PUSH1 0x0 MSTORE PUSH1 0x11 PUSH1 0x4 MSTORE PUSH1 0x24 PUSH1 0x0 REVERT JUMPDEST PUSH1 0xFF AND PUSH1 0x4D DUP2 GT PUSH2 0x2923 JUMPI PUSH1 0xA EXP SWAP1 JUMP JUMPDEST DUP2 DUP2 MUL SWAP3 SWAP2 DUP2 ISZERO SWAP2 DUP5 DIV EQ OR ISZERO PUSH2 0x2923 JUMPI JUMP JUMPDEST DUP2 ISZERO PUSH2 0x2967 JUMPI DIV SWAP1 JUMP JUMPDEST PUSH4 0x4E487B71 PUSH1 0xE0 SHL PUSH1 0x0 MSTORE PUSH1 0x12 PUSH1 0x4 MSTORE PUSH1 0x24 PUSH1 0x0 REVERT JUMPDEST SWAP2 SWAP1 DUP2 LT ISZERO PUSH2 0x271D JUMPI PUSH1 0x5 SHL ADD SWAP1 JUMP JUMPDEST ISZERO PUSH2 0x2994 JUMPI JUMP JUMPDEST PUSH1 0x64 PUSH1 0x40 MLOAD PUSH3 0x461BCD PUSH1 0xE5 SHL DUP2 MSTORE PUSH1 0x20 PUSH1 0x4 DUP3 ADD MSTORE PUSH1 0x4 PUSH1 0x24 DUP3 ADD MSTORE PUSH4 0x42696E73 PUSH1 0xE0 SHL PUSH1 0x44 DUP3 ADD MSTORE REVERT JUMPDEST PUSH1 0x40 MLOAD SWAP1 PUSH1 0x0 DUP3 PUSH1 0x7 SLOAD SWAP2 PUSH2 0x29D3 DUP4 PUSH2 0x2839 JUMP JUMPDEST DUP1 DUP4 MSTORE SWAP3 PUSH1 0x20 SWAP1 PUSH1 0x1 SWAP1 DUP2 DUP2 AND SWAP1 DUP2 ISZERO PUSH2 0x2A4F JUMPI POP PUSH1 0x1 EQ PUSH2 0x2A00 JUMPI JUMPDEST POP POP PUSH2 0x29FE SWAP3 POP SUB DUP4 PUSH2 0x289D JUMP JUMPDEST JUMP JUMPDEST SWAP2 POP SWAP3 PUSH1 0x7 PUSH1 0x0 MSTORE PUSH1 0x0 DUP1 MLOAD PUSH1 0x20 PUSH2 0x33BB DUP4 CODECOPY DUP2 MLOAD SWAP2 MSTORE SWAP4 PUSH1 0x0 SWAP3 JUMPDEST DUP3 DUP5 LT PUSH2 0x2A37 JUMPI POP PUSH2 0x29FE SWAP5 POP POP POP DUP2 ADD PUSH1 0x20 ADD CODESIZE DUP1 PUSH2 0x29F0 JUMP JUMPDEST DUP6 SLOAD DUP9 DUP6 ADD DUP4 ADD MSTORE SWAP5 DUP6 ADD SWAP5 DUP8 SWAP5 POP SWAP3 DUP2 ADD SWAP3 PUSH2 0x2A1C JUMP JUMPDEST SWAP2 POP POP PUSH1 0x20 SWAP3 POP PUSH2 0x29FE SWAP5 SWAP2 POP PUSH1 0xFF NOT AND DUP3 DUP5 ADD MSTORE ISZERO ISZERO PUSH1 0x5 SHL DUP3 ADD ADD CODESIZE DUP1 PUSH2 0x29F0 JUMP JUMPDEST PUSH2 0x2A8F SWAP4 SWAP3 PUSH1 0x60 SWAP3 DUP3 MSTORE PUSH1 0x20 DUP3 ADD MSTORE DUP2 PUSH1 0x40 DUP3 ADD MSTORE ADD SWAP1 PUSH2 0x28BF JUMP JUMPDEST SWAP1 JUMP JUMPDEST ISZERO PUSH2 0x2A99 JUMPI JUMP JUMPDEST PUSH1 0x40 MLOAD PUSH3 0x461BCD PUSH1 0xE5 SHL DUP2 MSTORE PUSH1 0x20 PUSH1 0x4 DUP3 ADD MSTORE PUSH1 0x6 PUSH1 0x24 DUP3 ADD MSTORE PUSH6 0x105B5BDD5B9D PUSH1 0xD2 SHL PUSH1 0x44 DUP3 ADD MSTORE PUSH1 0x64 SWAP1 REVERT JUMPDEST ISZERO PUSH2 0x2ACE JUMPI JUMP JUMPDEST PUSH1 0x40 MLOAD PUSH3 0x461BCD PUSH1 0xE5 SHL DUP2 MSTORE PUSH1 0x20 PUSH1 0x4 DUP3 ADD MSTORE PUSH1 0x5 PUSH1 0x24 DUP3 ADD MSTORE PUSH5 0x5072696365 PUSH1 0xD8 SHL PUSH1 0x44 DUP3 ADD MSTORE PUSH1 0x64 SWAP1 REVERT JUMPDEST SWAP2 SWAP1 DUP3 ADD DUP1 SWAP3 GT PUSH2 0x2923 JUMPI JUMP JUMPDEST PUSH1 0xFF PUSH1 0x6 SLOAD AND ISZERO PUSH2 0x7D2 JUMPI PUSH1 0xFF PUSH32 0x0 AND SWAP1 DUP2 PUSH1 0xFF DUP3 AND LT ISZERO PUSH2 0x11A9 JUMPI PUSH1 0x0 SWAP2 PUSH1 0x0 PUSH32 0x0 SWAP2 JUMPDEST DUP1 DUP3 LT PUSH2 0x2BE5 JUMPI POP POP DUP3 ISZERO PUSH2 0x2BB7 JUMPI PUSH2 0x2B86 PUSH2 0x2B93 SWAP3 PUSH2 0x26E6 JUMP JUMPDEST SWAP1 SLOAD SWAP1 PUSH1 0x3 SHL SHR SWAP1 PUSH2 0x2AFB JUMP JUMPDEST SWAP1 PUSH8 0xDE0B6B3A7640000 SWAP2 DUP3 DUP2 MUL SWAP3 DUP2 DUP5 DIV EQ SWAP1 ISZERO OR ISZERO PUSH2 0x2923 JUMPI PUSH2 0x2A8F SWAP2 PUSH2 0x295D JUMP JUMPDEST PUSH1 0x40 MLOAD PUSH3 0x461BCD PUSH1 0xE5 SHL DUP2 MSTORE PUSH1 0x20 PUSH1 0x4 DUP3 ADD MSTORE PUSH1 0x6 PUSH1 0x24 DUP3 ADD MSTORE PUSH6 0x15D95A59DA1D PUSH1 0xD2 SHL PUSH1 0x44 DUP3 ADD MSTORE PUSH1 0x64 SWAP1 REVERT JUMPDEST SWAP1 SWAP4 PUSH2 0x2C0C PUSH1 0x1 SWAP2 PUSH2 0x2C06 PUSH2 0x2BF9 DUP9 PUSH2 0x26E6 JUMP JUMPDEST SWAP1 SLOAD SWAP1 PUSH1 0x3 SHL SHR DUP7 PUSH2 0x2AFB JUMP JUMPDEST SWAP1 PUSH2 0x2AFB JUMP JUMPDEST SWAP5 ADD SWAP1 PUSH2 0x2B6B JUMP JUMPDEST SWAP5 SWAP4 SWAP3 PUSH1 0x60 SWAP3 PUSH2 0x2C36 SWAP3 DUP8 MSTORE PUSH1 0x20 DUP8 ADD MSTORE PUSH1 0x80 PUSH1 0x40 DUP8 ADD MSTORE PUSH1 0x80 DUP7 ADD SWAP1 PUSH2 0x28BF JUMP JUMPDEST SWAP4 ADD MSTORE JUMP JUMPDEST PUSH1 0x0 DUP1 MLOAD PUSH1 0x20 PUSH2 0x33DB DUP4 CODECOPY DUP2 MLOAD SWAP2 MSTORE PUSH1 0x2 DUP2 SLOAD EQ PUSH2 0x2C59 JUMPI PUSH1 0x2 SWAP1 SSTORE JUMP JUMPDEST PUSH1 0x40 MLOAD PUSH4 0x3EE5AEB5 PUSH1 0xE0 SHL DUP2 MSTORE PUSH1 0x4 SWAP1 REVERT JUMPDEST PUSH1 0x4 DUP1 SLOAD SWAP1 PUSH1 0xFF PUSH32 0x0 AND DUP1 SWAP3 EQ PUSH2 0x2DA0 JUMPI POP PUSH1 0x2 PUSH2 0x2CA8 SWAP2 EQ PUSH2 0x298D JUMP JUMPDEST PUSH32 0x0 PUSH2 0x2CD2 DUP2 PUSH2 0x2819 JUMP JUMPDEST DUP1 PUSH2 0x2D0B JUMPI POP PUSH32 0x0 GT ISZERO JUMPDEST ISZERO PUSH2 0x2D06 JUMPI PUSH1 0x0 SWAP1 JUMP JUMPDEST PUSH1 0x1 SWAP1 JUMP JUMPDEST DUP1 PUSH2 0x2D17 PUSH1 0x1 SWAP3 PUSH2 0x2819 JUMP JUMPDEST SUB PUSH2 0x2D44 JUMPI PUSH32 0x0 LT ISZERO PUSH2 0x2CFC JUMP JUMPDEST PUSH32 0x0 DUP2 LT ISZERO SWAP1 DUP2 PUSH2 0x2D75 JUMPI JUMPDEST POP PUSH2 0x2CFC JUMP JUMPDEST SWAP1 POP PUSH32 0x0 LT ISZERO CODESIZE PUSH2 0x2D6F JUMP JUMPDEST SWAP1 PUSH1 0x0 SWAP2 DUP3 SWAP4 DUP4 JUMPDEST DUP4 DUP2 LT PUSH2 0x2DEC JUMPI POP POP POP POP PUSH1 0x1 SUB PUSH2 0x2DBD JUMPI SWAP1 JUMP JUMPDEST PUSH1 0x40 MLOAD PUSH3 0x461BCD PUSH1 0xE5 SHL DUP2 MSTORE PUSH1 0x20 PUSH1 0x4 DUP3 ADD MSTORE PUSH1 0x7 PUSH1 0x24 DUP3 ADD MSTORE PUSH7 0x27B732903134B7 PUSH1 0xC9 SHL PUSH1 0x44 DUP3 ADD MSTORE PUSH1 0x64 SWAP1 REVERT JUMPDEST PUSH2 0x2DF5 DUP2 PUSH2 0x2733 JUMP JUMPDEST SWAP1 SLOAD PUSH1 0x3 SWAP2 DUP3 SHL SHR DUP4 LT ISZERO SWAP1 DUP2 PUSH2 0x2E40 JUMPI JUMPDEST POP PUSH2 0x2E15 JUMPI JUMPDEST PUSH1 0x1 ADD PUSH2 0x2DA8 JUMP JUMPDEST SWAP5 POP SWAP3 PUSH1 0x0 NOT DUP2 EQ PUSH2 0x2E2B JUMPI PUSH1 0x1 ADD SWAP3 DUP5 PUSH2 0x2E0D JUMP JUMPDEST PUSH1 0x11 DUP3 PUSH4 0x4E487B71 PUSH1 0xE0 SHL PUSH1 0x0 MSTORE MSTORE PUSH1 0x24 PUSH1 0x0 REVERT JUMPDEST SWAP1 POP PUSH2 0x2E4B DUP3 PUSH2 0x27A1 JUMP JUMPDEST SWAP1 SLOAD SWAP2 SHL SHR DUP3 GT ISZERO CODESIZE PUSH2 0x2E07 JUMP JUMPDEST PUSH1 0x0 SWAP1 PUSH32 0x0 PUSH1 0xFF AND DUP3 JUMPDEST DUP2 DUP2 LT PUSH2 0x3106 JUMPI POP POP PUSH2 0x12C SWAP2 DUP3 DUP2 MUL SWAP1 DUP1 ISZERO SWAP4 DUP2 DUP4 DIV EQ DUP5 OR ISZERO PUSH2 0x2923 JUMPI PUSH2 0x2710 DUP1 SWAP3 DIV SWAP4 PUSH1 0x32 DUP3 MUL SWAP1 DUP3 DUP3 DIV PUSH1 0x32 EQ OR ISZERO PUSH2 0x2923 JUMPI PUSH1 0x4 SWAP3 PUSH1 0x20 SWAP2 DIV PUSH2 0x2ED4 DUP7 PUSH2 0x2ECE DUP4 DUP3 PUSH2 0x2916 JUMP JUMPDEST SWAP5 PUSH2 0x2916 JUMP JUMPDEST SWAP3 PUSH2 0x2EDE DUP7 PUSH2 0x276A JUMP JUMPDEST SWAP1 SLOAD PUSH1 0x40 MLOAD PUSH4 0x18160DDD PUSH1 0xE0 SHL DUP2 MSTORE SWAP7 PUSH1 0x1 PUSH1 0x1 PUSH1 0xA0 SHL SUB SWAP6 SWAP3 DUP9 SWAP3 DUP4 SWAP2 PUSH1 0x3 SHL SHR DUP8 AND GAS STATICCALL SWAP5 DUP6 ISZERO PUSH2 0x30FA JUMPI PUSH1 0x0 SWAP6 PUSH2 0x30C6 JUMPI JUMPDEST POP PUSH2 0x2F1D DUP7 PUSH2 0x26E6 JUMP JUMPDEST SWAP1 SLOAD SWAP1 PUSH1 0x3 SHL SHR SWAP3 DUP8 PUSH2 0x303A JUMPI JUMPDEST POP POP DUP4 ISZERO SWAP1 POP PUSH2 0x2FC8 JUMPI DUP2 PUSH2 0x2F3F SWAP2 PUSH2 0x2AFB JUMP JUMPDEST SWAP5 PUSH8 0xDE0B6B3A7640000 SWAP6 DUP7 DUP2 MUL SWAP7 DUP2 DUP9 DIV EQ SWAP1 ISZERO OR ISZERO PUSH2 0x2923 JUMPI PUSH2 0x2F88 PUSH2 0x2FC3 SWAP4 PUSH32 0x1156C82479E3534DDD36CA57CD84557FD8B25737545B9B3572C4F2878613AF54 SWAP8 PUSH2 0x295D JUMP JUMPDEST PUSH1 0xA SSTORE JUMPDEST DUP4 PUSH1 0x9 SSTORE PUSH1 0xB SSTORE TIMESTAMP PUSH1 0xC SSTORE PUSH2 0x200 PUSH2 0xFF00 NOT PUSH1 0x6 SLOAD AND OR PUSH1 0x6 SSTORE PUSH1 0x40 MLOAD SWAP4 DUP5 SWAP4 DUP5 PUSH1 0x40 SWAP2 SWAP5 SWAP4 SWAP3 PUSH1 0x60 DUP3 ADD SWAP6 DUP3 MSTORE PUSH1 0x20 DUP3 ADD MSTORE ADD MSTORE JUMP JUMPDEST SUB SWAP1 LOG1 JUMP JUMPDEST PUSH2 0x2FC3 SWAP3 POP SWAP5 PUSH2 0x2FFE DUP3 PUSH32 0x1156C82479E3534DDD36CA57CD84557FD8B25737545B9B3572C4F2878613AF54 SWAP8 PUSH1 0x0 PUSH1 0xA SSTORE PUSH2 0x2AFB JUMP JUMPDEST DUP1 PUSH2 0x300A JUMPI JUMPDEST POP PUSH2 0x2F8C JUMP JUMPDEST PUSH2 0x3034 SWAP1 PUSH32 0x0 PUSH2 0x32A5 JUMP JUMPDEST CODESIZE PUSH2 0x3004 JUMP JUMPDEST DUP1 PUSH1 0xD SLOAD AND ISZERO ISZERO DUP1 PUSH2 0x30BD JUMPI JUMPDEST ISZERO PUSH2 0x308B JUMPI PUSH2 0x3083 SWAP3 PUSH2 0x305D SWAP2 PUSH1 0xD SLOAD AND PUSH2 0x32A5 JUMP JUMPDEST PUSH32 0x0 PUSH2 0x32A5 JUMP JUMPDEST CODESIZE DUP1 DUP1 PUSH2 0x2F2B JUMP JUMPDEST POP POP POP PUSH2 0x30B8 DUP6 PUSH32 0x0 PUSH2 0x32A5 JUMP JUMPDEST PUSH2 0x3083 JUMP JUMPDEST POP DUP3 ISZERO ISZERO PUSH2 0x3047 JUMP JUMPDEST SWAP1 SWAP5 POP PUSH1 0x20 DUP2 RETURNDATASIZE PUSH1 0x20 GT PUSH2 0x30F2 JUMPI JUMPDEST DUP2 PUSH2 0x30E2 PUSH1 0x20 SWAP4 DUP4 PUSH2 0x289D JUMP JUMPDEST DUP2 ADD SUB SLT PUSH2 0x321 JUMPI MLOAD SWAP4 CODESIZE PUSH2 0x2F13 JUMP JUMPDEST RETURNDATASIZE SWAP2 POP PUSH2 0x30D5 JUMP JUMPDEST PUSH1 0x40 MLOAD RETURNDATASIZE PUSH1 0x0 DUP3 RETURNDATACOPY RETURNDATASIZE SWAP1 REVERT JUMPDEST DUP3 DUP2 SUB PUSH2 0x3116 JUMPI JUMPDEST PUSH1 0x1 ADD PUSH2 0x2E82 JUMP JUMPDEST SWAP3 PUSH2 0x3126 PUSH1 0x1 SWAP2 PUSH2 0x2B86 DUP7 PUSH2 0x26E6 JUMP JUMPDEST SWAP4 SWAP1 POP PUSH2 0x310E JUMP JUMPDEST PUSH1 0xFF PUSH32 0x0 AND SWAP1 PUSH1 0x2 DUP3 EQ PUSH2 0x31EA JUMPI PUSH1 0x0 DUP2 SLT PUSH2 0x31B8 JUMPI PUSH8 0xDE0B6B3A7640000 SWAP1 DUP2 DUP2 LT PUSH2 0x31B0 JUMPI DIV SWAP1 JUMPDEST DUP2 LT ISZERO PUSH2 0x3181 JUMPI SWAP1 JUMP JUMPDEST PUSH1 0x40 MLOAD PUSH3 0x461BCD PUSH1 0xE5 SHL DUP2 MSTORE PUSH1 0x20 PUSH1 0x4 DUP3 ADD MSTORE PUSH1 0x7 PUSH1 0x24 DUP3 ADD MSTORE PUSH7 0xAA9A8240D2C8F PUSH1 0xCB SHL PUSH1 0x44 DUP3 ADD MSTORE PUSH1 0x64 SWAP1 REVERT JUMPDEST SWAP1 POP SWAP1 PUSH2 0x3177 JUMP JUMPDEST PUSH1 0x40 MLOAD PUSH3 0x461BCD PUSH1 0xE5 SHL DUP2 MSTORE PUSH1 0x20 PUSH1 0x4 DUP3 ADD MSTORE PUSH1 0xA PUSH1 0x24 DUP3 ADD MSTORE PUSH10 0x283934B1B29039B4B3B7 PUSH1 0xB1 SHL PUSH1 0x44 DUP3 ADD MSTORE PUSH1 0x64 SWAP1 REVERT JUMPDEST PUSH8 0xDE0B6B3A7640000 SWAP2 POP EQ PUSH2 0x31FF JUMPI PUSH1 0x1 SWAP1 JUMP JUMPDEST PUSH1 0x0 SWAP1 JUMP JUMPDEST PUSH1 0x40 MLOAD PUSH4 0x23B872DD PUSH1 0xE0 SHL PUSH1 0x0 SWAP1 DUP2 MSTORE PUSH1 0x1 PUSH1 0x1 PUSH1 0xA0 SHL SUB SWAP4 DUP5 AND PUSH1 0x4 MSTORE SWAP4 DUP4 AND PUSH1 0x24 MSTORE PUSH1 0x44 SWAP5 SWAP1 SWAP5 MSTORE SWAP1 SWAP2 PUSH1 0x20 SWAP1 PUSH1 0x64 DUP2 DUP1 DUP6 GAS CALL PUSH1 0x1 PUSH1 0x0 MLOAD EQ DUP2 AND ISZERO PUSH2 0x3271 JUMPI JUMPDEST DUP4 PUSH1 0x40 MSTORE PUSH1 0x0 PUSH1 0x60 MSTORE ISZERO PUSH2 0x325B JUMPI POP POP POP JUMP JUMPDEST PUSH4 0x5274AFE7 PUSH1 0xE0 SHL DUP4 MSTORE AND PUSH1 0x4 DUP3 ADD MSTORE PUSH1 0x24 SWAP2 POP REVERT JUMPDEST PUSH1 0x1 DUP2 ISZERO AND PUSH2 0x3287 JUMPI DUP2 EXTCODESIZE ISZERO ISZERO RETURNDATASIZE ISZERO AND AND PUSH2 0x3248 JUMP JUMPDEST DUP4 RETURNDATASIZE PUSH1 0x0 DUP3 RETURNDATACOPY RETURNDATASIZE SWAP1 REVERT JUMPDEST PUSH1 0x0 SLOAD PUSH1 0x1 PUSH1 0x1 PUSH1 0xA0 SHL SUB AND CALLER SUB PUSH2 0x14C7 JUMPI JUMP JUMPDEST SWAP1 PUSH1 0x1 PUSH1 0x1 PUSH1 0xA0 SHL SUB PUSH32 0x0 DUP2 AND DUP1 PUSH2 0x32E1 JUMPI POP PUSH2 0x29FE SWAP3 AND PUSH2 0x3336 JUMP JUMPDEST SWAP2 SWAP1 PUSH1 0x20 SWAP2 PUSH1 0x0 SWAP2 PUSH1 0x40 MLOAD SWAP6 PUSH4 0xA9059CBB PUSH1 0xE0 SHL DUP5 MSTORE AND PUSH1 0x4 MSTORE PUSH1 0x24 MSTORE PUSH1 0x44 DUP2 DUP1 DUP6 GAS CALL PUSH1 0x1 PUSH1 0x0 MLOAD EQ DUP2 AND ISZERO PUSH2 0x3320 JUMPI JUMPDEST DUP3 PUSH1 0x40 MSTORE ISZERO PUSH2 0xC86 JUMPI POP POP JUMP JUMPDEST PUSH1 0x1 DUP2 ISZERO AND PUSH2 0xCB0 JUMPI DUP2 EXTCODESIZE ISZERO ISZERO RETURNDATASIZE ISZERO AND AND PUSH2 0x3313 JUMP JUMPDEST DUP2 SELFBALANCE LT PUSH2 0x339B JUMPI PUSH1 0x40 MLOAD PUSH1 0x20 DUP2 ADD DUP2 DUP2 LT PUSH8 0xFFFFFFFFFFFFFFFF DUP3 GT OR PUSH2 0x2887 JUMPI PUSH1 0x40 MSTORE PUSH1 0x0 DUP1 DUP1 SWAP5 DUP2 SWAP5 DUP3 DUP1 SWAP6 MSTORE PUSH1 0x1 DUP1 PUSH1 0xA0 SHL SUB AND GAS CALL ISZERO PUSH2 0x3377 JUMPI POP JUMP JUMPDEST RETURNDATASIZE ISZERO PUSH2 0x3389 JUMPI PUSH1 0x40 MLOAD SWAP1 RETURNDATASIZE SWAP1 DUP3 RETURNDATACOPY RETURNDATASIZE SWAP1 REVERT JUMPDEST PUSH1 0x40 MLOAD PUSH4 0xD6BDA275 PUSH1 0xE0 SHL DUP2 MSTORE PUSH1 0x4 SWAP1 REVERT JUMPDEST PUSH1 0x40 MLOAD PUSH4 0xCF479181 PUSH1 0xE0 SHL DUP2 MSTORE SELFBALANCE PUSH1 0x4 DUP3 ADD MSTORE PUSH1 0x24 DUP2 ADD DUP4 SWAP1 MSTORE PUSH1 0x44 SWAP1 REVERT INVALID 0xA6 PUSH13 0xC928B5EDB82AF9BD4992295415 GAS 0xB7 0xB0 SWAP5 0x26 SWAP5 0xBE LOG4 0xCE PREVRANDAO PUSH7 0x1D9A8736C6889B PUSH24 0x9B17422D0DF92223018B32B4D1FA46E071723D6817E2486D STOP EXTCODESIZE 0xEC 0xC5 PUSH0 STOP LOG2 PUSH5 0x6970667358 0x22 SLT KECCAK256 SDIV CREATE DUP6 0xAA PUSH26 0xEF80A8757DB63E84779937039BBEC35DE8D2494B62C662804DE4 PUSH1 0x64 PUSH20 0x6F6C6343000818003360A060405234620003B257 PUSH3 0xE61 DUP1 CODESIZE SUB DUP1 PUSH3 0x1D DUP2 PUSH3 0x3B7 JUMP JUMPDEST SWAP3 DUP4 CODECOPY DUP2 ADD SWAP1 PUSH1 0x80 DUP2 DUP4 SUB SLT PUSH3 0x3B2 JUMPI DUP1 MLOAD PUSH1 0x1 PUSH1 0x1 PUSH1 0x40 SHL SUB SWAP1 DUP2 DUP2 GT PUSH3 0x3B2 JUMPI DUP4 PUSH3 0x4F SWAP2 DUP5 ADD PUSH3 0x3DD JUMP JUMPDEST SWAP3 PUSH1 0x20 SWAP1 DUP2 DUP5 ADD MLOAD SWAP1 DUP4 DUP3 GT PUSH3 0x3B2 JUMPI PUSH3 0x6D SWAP2 DUP6 ADD PUSH3 0x3DD JUMP JUMPDEST SWAP4 PUSH1 0x40 DUP5 ADD MLOAD SWAP4 PUSH1 0xFF DUP6 AND DUP6 SUB PUSH3 0x3B2 JUMPI PUSH1 0x60 ADD MLOAD PUSH1 0x1 PUSH1 0x1 PUSH1 0xA0 SHL SUB SWAP6 DUP7 DUP3 AND SWAP5 SWAP2 DUP6 SWAP1 SUB PUSH3 0x3B2 JUMPI DUP3 MLOAD DUP3 DUP2 GT PUSH3 0x2B2 JUMPI PUSH1 0x3 SWAP2 DUP3 SLOAD SWAP2 PUSH1 0x1 SWAP6 DUP7 DUP5 DUP2 SHR SWAP5 AND DUP1 ISZERO PUSH3 0x3A7 JUMPI JUMPDEST DUP9 DUP6 LT EQ PUSH3 0x391 JUMPI DUP2 SWAP1 PUSH1 0x1F SWAP5 DUP6 DUP2 GT PUSH3 0x33B JUMPI JUMPDEST POP DUP9 SWAP1 DUP6 DUP4 GT PUSH1 0x1 EQ PUSH3 0x2D4 JUMPI PUSH1 0x0 SWAP3 PUSH3 0x2C8 JUMPI JUMPDEST POP POP PUSH1 0x0 NOT DUP3 DUP7 SHL SHR NOT AND SWAP1 DUP7 SHL OR DUP4 SSTORE JUMPDEST DUP1 MLOAD SWAP4 DUP5 GT PUSH3 0x2B2 JUMPI PUSH1 0x4 SWAP6 DUP7 SLOAD DUP7 DUP2 DUP2 SHR SWAP2 AND DUP1 ISZERO PUSH3 0x2A7 JUMPI JUMPDEST DUP3 DUP3 LT EQ PUSH3 0x292 JUMPI DUP4 DUP2 GT PUSH3 0x247 JUMPI JUMPDEST POP DUP1 SWAP3 DUP6 GT PUSH1 0x1 EQ PUSH3 0x1D9 JUMPI POP SWAP4 DUP4 SWAP5 SWAP2 DUP5 SWAP3 PUSH1 0x0 SWAP6 PUSH3 0x1CD JUMPI JUMPDEST POP POP SHL SWAP3 PUSH1 0x0 NOT SWAP2 SHL SHR NOT AND OR DUP2 SSTORE JUMPDEST DUP2 ISZERO PUSH3 0x1B5 JUMPI POP PUSH1 0x5 DUP1 SLOAD PUSH1 0x1 PUSH1 0x1 PUSH1 0xA0 SHL SUB NOT DUP2 AND DUP4 OR SWAP1 SWAP2 SSTORE PUSH1 0x40 MLOAD SWAP4 AND PUSH32 0x8BE0079C531659141344CD1FD0A4F28419497F9722A3DAAFE3B4186F6B6457E0 PUSH1 0x0 DUP1 LOG3 PUSH1 0x80 MSTORE PUSH2 0xA11 SWAP1 DUP2 PUSH3 0x450 DUP3 CODECOPY PUSH1 0x80 MLOAD DUP2 PUSH2 0x564 ADD MSTORE RETURN JUMPDEST PUSH1 0x24 SWAP1 PUSH1 0x0 PUSH1 0x40 MLOAD SWAP2 PUSH4 0x1E4FBDF7 PUSH1 0xE0 SHL DUP4 MSTORE DUP3 ADD MSTORE REVERT JUMPDEST ADD MLOAD SWAP4 POP CODESIZE DUP1 PUSH3 0x146 JUMP JUMPDEST SWAP3 SWAP2 SWAP1 DUP5 PUSH1 0x1F NOT DUP2 AND DUP9 PUSH1 0x0 MSTORE DUP6 PUSH1 0x0 KECCAK256 SWAP6 PUSH1 0x0 SWAP1 JUMPDEST DUP10 DUP4 DUP4 LT PUSH3 0x22C JUMPI POP POP POP LT PUSH3 0x211 JUMPI JUMPDEST POP POP POP POP DUP2 SHL ADD DUP2 SSTORE PUSH3 0x156 JUMP JUMPDEST ADD MLOAD SWAP1 PUSH1 0xF8 DUP5 PUSH1 0x0 NOT SWAP3 SHL AND SHR NOT AND SWAP1 SSTORE CODESIZE DUP1 DUP1 DUP1 PUSH3 0x202 JUMP JUMPDEST DUP6 DUP8 ADD MLOAD DUP10 SSTORE SWAP1 SWAP8 ADD SWAP7 SWAP5 DUP6 ADD SWAP5 DUP9 SWAP4 POP SWAP1 DUP2 ADD SWAP1 PUSH3 0x1EF JUMP JUMPDEST DUP8 PUSH1 0x0 MSTORE DUP2 PUSH1 0x0 KECCAK256 DUP5 DUP1 DUP9 ADD PUSH1 0x5 SHR DUP3 ADD SWAP3 DUP5 DUP10 LT PUSH3 0x288 JUMPI JUMPDEST ADD PUSH1 0x5 SHR ADD SWAP1 DUP8 SWAP1 JUMPDEST DUP3 DUP2 LT PUSH3 0x27B JUMPI POP POP PUSH3 0x129 JUMP JUMPDEST PUSH1 0x0 DUP2 SSTORE ADD DUP8 SWAP1 PUSH3 0x26B JUMP JUMPDEST SWAP3 POP DUP2 SWAP3 PUSH3 0x262 JUMP JUMPDEST PUSH1 0x22 DUP9 PUSH4 0x4E487B71 PUSH1 0xE0 SHL PUSH1 0x0 MSTORE MSTORE PUSH1 0x24 PUSH1 0x0 REVERT JUMPDEST SWAP1 PUSH1 0x7F AND SWAP1 PUSH3 0x117 JUMP JUMPDEST PUSH4 0x4E487B71 PUSH1 0xE0 SHL PUSH1 0x0 MSTORE PUSH1 0x41 PUSH1 0x4 MSTORE PUSH1 0x24 PUSH1 0x0 REVERT JUMPDEST ADD MLOAD SWAP1 POP CODESIZE DUP1 PUSH3 0xE8 JUMP JUMPDEST SWAP1 DUP9 SWAP4 POP PUSH1 0x1F NOT DUP4 AND SWAP2 DUP8 PUSH1 0x0 MSTORE DUP11 PUSH1 0x0 KECCAK256 SWAP3 PUSH1 0x0 JUMPDEST DUP13 DUP3 DUP3 LT PUSH3 0x324 JUMPI POP POP DUP5 GT PUSH3 0x30B JUMPI JUMPDEST POP POP POP DUP2 SHL ADD DUP4 SSTORE PUSH3 0xFA JUMP JUMPDEST ADD MLOAD PUSH1 0x0 NOT DUP4 DUP9 SHL PUSH1 0xF8 AND SHR NOT AND SWAP1 SSTORE CODESIZE DUP1 DUP1 PUSH3 0x2FD JUMP JUMPDEST DUP4 DUP6 ADD MLOAD DUP7 SSTORE DUP13 SWAP8 SWAP1 SWAP6 ADD SWAP5 SWAP4 DUP5 ADD SWAP4 ADD PUSH3 0x2EA JUMP JUMPDEST SWAP1 SWAP2 POP DUP6 PUSH1 0x0 MSTORE DUP9 PUSH1 0x0 KECCAK256 DUP6 DUP1 DUP6 ADD PUSH1 0x5 SHR DUP3 ADD SWAP3 DUP12 DUP7 LT PUSH3 0x387 JUMPI JUMPDEST SWAP2 DUP11 SWAP2 DUP7 SWAP6 SWAP5 SWAP4 ADD PUSH1 0x5 SHR ADD SWAP2 JUMPDEST DUP3 DUP2 LT PUSH3 0x377 JUMPI POP POP PUSH3 0xD1 JUMP JUMPDEST PUSH1 0x0 DUP2 SSTORE DUP6 SWAP5 POP DUP11 SWAP2 ADD PUSH3 0x367 JUMP JUMPDEST SWAP3 POP DUP2 SWAP3 PUSH3 0x359 JUMP JUMPDEST PUSH4 0x4E487B71 PUSH1 0xE0 SHL PUSH1 0x0 MSTORE PUSH1 0x22 PUSH1 0x4 MSTORE PUSH1 0x24 PUSH1 0x0 REVERT JUMPDEST SWAP4 PUSH1 0x7F AND SWAP4 PUSH3 0xBA JUMP JUMPDEST PUSH1 0x0 DUP1 REVERT JUMPDEST PUSH1 0x40 MLOAD SWAP2 SWAP1 PUSH1 0x1F ADD PUSH1 0x1F NOT AND DUP3 ADD PUSH1 0x1 PUSH1 0x1 PUSH1 0x40 SHL SUB DUP2 GT DUP4 DUP3 LT OR PUSH3 0x2B2 JUMPI PUSH1 0x40 MSTORE JUMP JUMPDEST SWAP2 SWAP1 DUP1 PUSH1 0x1F DUP5 ADD SLT ISZERO PUSH3 0x3B2 JUMPI DUP3 MLOAD PUSH1 0x1 PUSH1 0x1 PUSH1 0x40 SHL SUB DUP2 GT PUSH3 0x2B2 JUMPI PUSH1 0x20 SWAP1 PUSH3 0x413 PUSH1 0x1F DUP3 ADD PUSH1 0x1F NOT AND DUP4 ADD PUSH3 0x3B7 JUMP JUMPDEST SWAP3 DUP2 DUP5 MSTORE DUP3 DUP3 DUP8 ADD ADD GT PUSH3 0x3B2 JUMPI PUSH1 0x0 JUMPDEST DUP2 DUP2 LT PUSH3 0x43B JUMPI POP DUP3 PUSH1 0x0 SWAP4 SWAP5 SWAP6 POP ADD ADD MSTORE SWAP1 JUMP JUMPDEST DUP6 DUP2 ADD DUP4 ADD MLOAD DUP5 DUP3 ADD DUP5 ADD MSTORE DUP3 ADD PUSH3 0x425 JUMP INVALID PUSH1 0x80 PUSH1 0x40 DUP2 DUP2 MSTORE PUSH1 0x4 DUP1 CALLDATASIZE LT ISZERO PUSH2 0x15 JUMPI PUSH1 0x0 DUP1 REVERT JUMPDEST PUSH1 0x0 SWAP3 DUP4 CALLDATALOAD PUSH1 0xE0 SHR SWAP1 DUP2 PUSH4 0x6FDDE03 EQ PUSH2 0x68D JUMPI POP DUP1 PUSH4 0x95EA7B3 EQ PUSH2 0x5E4 JUMPI DUP1 PUSH4 0x18160DDD EQ PUSH2 0x5C5 JUMPI DUP1 PUSH4 0x23B872DD EQ PUSH2 0x588 JUMPI DUP1 PUSH4 0x313CE567 EQ PUSH2 0x54A JUMPI DUP1 PUSH4 0x40C10F19 EQ PUSH2 0x49B JUMPI DUP1 PUSH4 0x70A08231 EQ PUSH2 0x464 JUMPI DUP1 PUSH4 0x715018A6 EQ PUSH2 0x404 JUMPI DUP1 PUSH4 0x79CC6790 EQ PUSH2 0x318 JUMPI DUP1 PUSH4 0x8DA5CB5B EQ PUSH2 0x2EF JUMPI DUP1 PUSH4 0x95D89B41 EQ PUSH2 0x1CD JUMPI DUP1 PUSH4 0xA9059CBB EQ PUSH2 0x19C JUMPI DUP1 PUSH4 0xDD62ED3E EQ PUSH2 0x14F JUMPI PUSH4 0xF2FDE38B EQ PUSH2 0xBD JUMPI PUSH1 0x0 DUP1 REVERT JUMPDEST CALLVALUE PUSH2 0x14B JUMPI PUSH1 0x20 CALLDATASIZE PUSH1 0x3 NOT ADD SLT PUSH2 0x14B JUMPI PUSH2 0xD6 PUSH2 0x7CD JUMP JUMPDEST SWAP1 PUSH2 0xDF PUSH2 0x9AF JUMP JUMPDEST PUSH1 0x1 PUSH1 0x1 PUSH1 0xA0 SHL SUB SWAP2 DUP3 AND SWAP3 DUP4 ISZERO PUSH2 0x135 JUMPI POP POP PUSH1 0x5 SLOAD DUP3 PUSH12 0xFFFFFFFFFFFFFFFFFFFFFFFF PUSH1 0xA0 SHL DUP3 AND OR PUSH1 0x5 SSTORE AND PUSH32 0x8BE0079C531659141344CD1FD0A4F28419497F9722A3DAAFE3B4186F6B6457E0 DUP4 DUP1 LOG3 DUP1 RETURN JUMPDEST MLOAD PUSH4 0x1E4FBDF7 PUSH1 0xE0 SHL DUP2 MSTORE SWAP1 DUP2 ADD DUP5 SWAP1 MSTORE PUSH1 0x24 SWAP1 REVERT JUMPDEST DUP3 DUP1 REVERT JUMPDEST POP POP CALLVALUE PUSH2 0x198 JUMPI DUP1 PUSH1 0x3 NOT CALLDATASIZE ADD SLT PUSH2 0x198 JUMPI DUP1 PUSH1 0x20 SWAP3 PUSH2 0x16D PUSH2 0x7CD JUMP JUMPDEST PUSH2 0x175 PUSH2 0x7E8 JUMP JUMPDEST PUSH1 0x1 PUSH1 0x1 PUSH1 0xA0 SHL SUB SWAP2 DUP3 AND DUP4 MSTORE PUSH1 0x1 DUP7 MSTORE DUP4 DUP4 KECCAK256 SWAP2 AND DUP3 MSTORE DUP5 MSTORE KECCAK256 SLOAD SWAP1 MLOAD SWAP1 DUP2 MSTORE RETURN JUMPDEST POP DUP1 REVERT JUMPDEST POP POP CALLVALUE PUSH2 0x198 JUMPI DUP1 PUSH1 0x3 NOT CALLDATASIZE ADD SLT PUSH2 0x198 JUMPI PUSH1 0x20 SWAP1 PUSH2 0x1C6 PUSH2 0x1BC PUSH2 0x7CD JUMP JUMPDEST PUSH1 0x24 CALLDATALOAD SWAP1 CALLER PUSH2 0x8D1 JUMP JUMPDEST MLOAD PUSH1 0x1 DUP2 MSTORE RETURN JUMPDEST POP SWAP2 SWAP1 CALLVALUE PUSH2 0x198 JUMPI DUP2 PUSH1 0x3 NOT CALLDATASIZE ADD SLT PUSH2 0x198 JUMPI DUP1 MLOAD SWAP1 DUP3 DUP5 SLOAD PUSH1 0x1 DUP2 PUSH1 0x1 SHR SWAP1 PUSH1 0x1 DUP4 AND SWAP3 DUP4 ISZERO PUSH2 0x2E5 JUMPI JUMPDEST PUSH1 0x20 SWAP4 DUP5 DUP5 LT DUP2 EQ PUSH2 0x2D2 JUMPI DUP4 DUP9 MSTORE SWAP1 DUP2 ISZERO PUSH2 0x2B6 JUMPI POP PUSH1 0x1 EQ PUSH2 0x261 JUMPI JUMPDEST POP POP POP DUP3 SWAP1 SUB PUSH1 0x1F ADD PUSH1 0x1F NOT AND DUP3 ADD SWAP3 PUSH8 0xFFFFFFFFFFFFFFFF DUP5 GT DUP4 DUP6 LT OR PUSH2 0x24E JUMPI POP DUP3 SWAP2 DUP3 PUSH2 0x24A SWAP3 MSTORE DUP3 PUSH2 0x784 JUMP JUMPDEST SUB SWAP1 RETURN JUMPDEST PUSH4 0x4E487B71 PUSH1 0xE0 SHL DUP2 MSTORE PUSH1 0x41 DUP6 MSTORE PUSH1 0x24 SWAP1 REVERT JUMPDEST DUP8 DUP8 MSTORE SWAP2 SWAP3 POP DUP6 SWAP2 DUP4 PUSH32 0x8A35ACFBC15FF81A39AE7D344FD709F28E8600B4AA8C65C6B64BFE7FE36BD19B JUMPDEST DUP4 DUP6 LT PUSH2 0x2A2 JUMPI POP POP POP POP DUP4 ADD ADD CODESIZE DUP1 DUP1 PUSH2 0x218 JUMP JUMPDEST DUP1 SLOAD DUP9 DUP7 ADD DUP4 ADD MSTORE SWAP4 ADD SWAP3 DUP5 SWAP1 DUP3 ADD PUSH2 0x28C JUMP JUMPDEST PUSH1 0xFF NOT AND DUP8 DUP6 ADD MSTORE POP POP ISZERO ISZERO PUSH1 0x5 SHL DUP5 ADD ADD SWAP1 POP CODESIZE DUP1 DUP1 PUSH2 0x218 JUMP JUMPDEST PUSH4 0x4E487B71 PUSH1 0xE0 SHL DUP10 MSTORE PUSH1 0x22 DUP11 MSTORE PUSH1 0x24 DUP10 REVERT JUMPDEST SWAP2 PUSH1 0x7F AND SWAP2 PUSH2 0x1F9 JUMP JUMPDEST POP POP CALLVALUE PUSH2 0x198 JUMPI DUP2 PUSH1 0x3 NOT CALLDATASIZE ADD SLT PUSH2 0x198 JUMPI PUSH1 0x5 SLOAD SWAP1 MLOAD PUSH1 0x1 PUSH1 0x1 PUSH1 0xA0 SHL SUB SWAP1 SWAP2 AND DUP2 MSTORE PUSH1 0x20 SWAP1 RETURN JUMPDEST POP DUP3 SWAP1 CALLVALUE PUSH2 0x198 JUMPI DUP3 PUSH1 0x3 NOT CALLDATASIZE ADD SLT PUSH2 0x198 JUMPI PUSH2 0x333 PUSH2 0x7CD JUMP JUMPDEST PUSH1 0x1 PUSH1 0x1 PUSH1 0xA0 SHL SUB DUP2 AND SWAP2 PUSH1 0x24 CALLDATALOAD SWAP2 CALLER DUP5 SWAP1 SUB PUSH2 0x3F4 JUMPI JUMPDEST DUP4 ISZERO PUSH2 0x3DD JUMPI DUP4 DUP6 MSTORE DUP5 PUSH1 0x20 MSTORE DUP6 DUP6 KECCAK256 SLOAD SWAP2 DUP4 DUP4 LT PUSH2 0x3A9 JUMPI POP POP DUP2 DUP5 SWAP6 PUSH32 0xDDF252AD1BE2C89B69C2B068FC378DAA952BA7F163C4A11628F55A4DF523B3EF SWAP4 PUSH1 0x20 SWAP4 DUP7 DUP9 MSTORE DUP8 DUP6 MSTORE SUB DUP2 DUP8 KECCAK256 SSTORE DUP2 PUSH1 0x2 SLOAD SUB PUSH1 0x2 SSTORE MLOAD SWAP1 DUP2 MSTORE LOG3 DUP1 RETURN JUMPDEST DUP7 MLOAD PUSH4 0x391434E3 PUSH1 0xE2 SHL DUP2 MSTORE PUSH1 0x1 PUSH1 0x1 PUSH1 0xA0 SHL SUB SWAP1 SWAP3 AND SWAP1 DUP3 ADD SWAP1 DUP2 MSTORE PUSH1 0x20 DUP2 ADD DUP4 SWAP1 MSTORE PUSH1 0x40 DUP2 ADD DUP5 SWAP1 MSTORE DUP2 SWAP1 PUSH1 0x60 ADD SUB SWAP1 REVERT JUMPDEST DUP6 MLOAD PUSH4 0x4B637E8F PUSH1 0xE1 SHL DUP2 MSTORE DUP1 DUP4 ADD DUP7 SWAP1 MSTORE PUSH1 0x24 SWAP1 REVERT JUMPDEST PUSH2 0x3FF DUP4 CALLER DUP4 PUSH2 0x7FE JUMP JUMPDEST PUSH2 0x34B JUMP JUMPDEST DUP4 CALLVALUE PUSH2 0x461 JUMPI DUP1 PUSH1 0x3 NOT CALLDATASIZE ADD SLT PUSH2 0x461 JUMPI PUSH2 0x41D PUSH2 0x9AF JUMP JUMPDEST PUSH1 0x5 DUP1 SLOAD PUSH1 0x1 PUSH1 0x1 PUSH1 0xA0 SHL SUB NOT DUP2 AND SWAP1 SWAP2 SSTORE DUP2 SWAP1 PUSH1 0x1 PUSH1 0x1 PUSH1 0xA0 SHL SUB AND PUSH32 0x8BE0079C531659141344CD1FD0A4F28419497F9722A3DAAFE3B4186F6B6457E0 DUP3 DUP1 LOG3 DUP1 RETURN JUMPDEST DUP1 REVERT JUMPDEST POP POP CALLVALUE PUSH2 0x198 JUMPI PUSH1 0x20 CALLDATASIZE PUSH1 0x3 NOT ADD SLT PUSH2 0x198 JUMPI PUSH1 0x20 SWAP2 DUP2 SWAP1 PUSH1 0x1 PUSH1 0x1 PUSH1 0xA0 SHL SUB PUSH2 0x48C PUSH2 0x7CD JUMP JUMPDEST AND DUP2 MSTORE DUP1 DUP5 MSTORE KECCAK256 SLOAD SWAP1 MLOAD SWAP1 DUP2 MSTORE RETURN JUMPDEST POP SWAP1 CALLVALUE PUSH2 0x14B JUMPI DUP1 PUSH1 0x3 NOT CALLDATASIZE ADD SLT PUSH2 0x14B JUMPI PUSH2 0x4B5 PUSH2 0x7CD JUMP JUMPDEST SWAP1 PUSH1 0x24 CALLDATALOAD SWAP2 PUSH2 0x4C2 PUSH2 0x9AF JUMP JUMPDEST PUSH1 0x1 PUSH1 0x1 PUSH1 0xA0 SHL SUB AND SWAP3 DUP4 ISZERO PUSH2 0x535 JUMPI PUSH1 0x2 SLOAD SWAP1 DUP4 DUP3 ADD DUP1 SWAP3 GT PUSH2 0x522 JUMPI POP DUP5 SWAP3 PUSH32 0xDDF252AD1BE2C89B69C2B068FC378DAA952BA7F163C4A11628F55A4DF523B3EF SWAP3 PUSH1 0x20 SWAP3 PUSH1 0x2 SSTORE DUP6 DUP6 MSTORE DUP5 DUP4 MSTORE DUP1 DUP6 KECCAK256 DUP3 DUP2 SLOAD ADD SWAP1 SSTORE MLOAD SWAP1 DUP2 MSTORE LOG3 DUP1 RETURN JUMPDEST PUSH4 0x4E487B71 PUSH1 0xE0 SHL DUP7 MSTORE PUSH1 0x11 SWAP1 MSTORE PUSH1 0x24 DUP6 REVERT JUMPDEST DUP5 PUSH1 0x24 SWAP3 MLOAD SWAP2 PUSH4 0xEC442F05 PUSH1 0xE0 SHL DUP4 MSTORE DUP3 ADD MSTORE REVERT JUMPDEST POP POP CALLVALUE PUSH2 0x198 JUMPI DUP2 PUSH1 0x3 NOT CALLDATASIZE ADD SLT PUSH2 0x198 JUMPI PUSH1 0x20 SWAP1 MLOAD PUSH1 0xFF PUSH32 0x0 AND DUP2 MSTORE RETURN JUMPDEST POP POP CALLVALUE PUSH2 0x198 JUMPI PUSH1 0x60 CALLDATASIZE PUSH1 0x3 NOT ADD SLT PUSH2 0x198 JUMPI PUSH1 0x20 SWAP1 PUSH2 0x1C6 PUSH2 0x5A9 PUSH2 0x7CD JUMP JUMPDEST PUSH2 0x5B1 PUSH2 0x7E8 JUMP JUMPDEST PUSH1 0x44 CALLDATALOAD SWAP2 PUSH2 0x5C0 DUP4 CALLER DUP4 PUSH2 0x7FE JUMP JUMPDEST PUSH2 0x8D1 JUMP JUMPDEST POP POP CALLVALUE PUSH2 0x198 JUMPI DUP2 PUSH1 0x3 NOT CALLDATASIZE ADD SLT PUSH2 0x198 JUMPI PUSH1 0x20 SWAP1 PUSH1 0x2 SLOAD SWAP1 MLOAD SWAP1 DUP2 MSTORE RETURN JUMPDEST POP CALLVALUE PUSH2 0x14B JUMPI DUP2 PUSH1 0x3 NOT CALLDATASIZE ADD SLT PUSH2 0x14B JUMPI PUSH2 0x5FD PUSH2 0x7CD JUMP JUMPDEST PUSH1 0x24 CALLDATALOAD SWAP1 CALLER ISZERO PUSH2 0x676 JUMPI PUSH1 0x1 PUSH1 0x1 PUSH1 0xA0 SHL SUB AND SWAP2 DUP3 ISZERO PUSH2 0x65F JUMPI POP DUP1 DUP4 PUSH1 0x20 SWAP6 CALLER DUP2 MSTORE PUSH1 0x1 DUP8 MSTORE DUP2 DUP2 KECCAK256 DUP6 DUP3 MSTORE DUP8 MSTORE KECCAK256 SSTORE DUP3 MLOAD SWAP1 DUP2 MSTORE PUSH32 0x8C5BE1E5EBEC7D5BD14F71427D1E84F3DD0314C0F7B2291E5B200AC8C7C3B925 DUP5 CALLER SWAP3 LOG3 MLOAD PUSH1 0x1 DUP2 MSTORE RETURN JUMPDEST DUP4 MLOAD PUSH4 0x4A1406B1 PUSH1 0xE1 SHL DUP2 MSTORE SWAP1 DUP2 ADD DUP6 SWAP1 MSTORE PUSH1 0x24 SWAP1 REVERT JUMPDEST DUP4 MLOAD PUSH4 0xE602DF05 PUSH1 0xE0 SHL DUP2 MSTORE DUP1 DUP5 ADD DUP7 SWAP1 MSTORE PUSH1 0x24 SWAP1 REVERT JUMPDEST DUP5 SWAP2 POP DUP4 CALLVALUE PUSH2 0x14B JUMPI DUP3 PUSH1 0x3 NOT CALLDATASIZE ADD SLT PUSH2 0x14B JUMPI DUP3 PUSH1 0x3 SLOAD PUSH1 0x1 DUP2 PUSH1 0x1 SHR SWAP1 PUSH1 0x1 DUP4 AND SWAP3 DUP4 ISZERO PUSH2 0x77A JUMPI JUMPDEST PUSH1 0x20 SWAP4 DUP5 DUP5 LT DUP2 EQ PUSH2 0x2D2 JUMPI DUP4 DUP9 MSTORE SWAP1 DUP2 ISZERO PUSH2 0x75E JUMPI POP PUSH1 0x1 EQ PUSH2 0x708 JUMPI POP POP POP DUP3 SWAP1 SUB PUSH1 0x1F ADD PUSH1 0x1F NOT AND DUP3 ADD SWAP3 PUSH8 0xFFFFFFFFFFFFFFFF DUP5 GT DUP4 DUP6 LT OR PUSH2 0x24E JUMPI POP DUP3 SWAP2 DUP3 PUSH2 0x24A SWAP3 MSTORE DUP3 PUSH2 0x784 JUMP JUMPDEST PUSH1 0x3 DUP8 MSTORE SWAP2 SWAP3 POP DUP6 SWAP2 DUP4 PUSH32 0xC2575A0E9E593C00F959F8C92F12DB2869C3395A3B0502D05E2516446F71F85B JUMPDEST DUP4 DUP6 LT PUSH2 0x74A JUMPI POP POP POP POP DUP4 ADD ADD DUP6 DUP1 DUP1 PUSH2 0x218 JUMP JUMPDEST DUP1 SLOAD DUP9 DUP7 ADD DUP4 ADD MSTORE SWAP4 ADD SWAP3 DUP5 SWAP1 DUP3 ADD PUSH2 0x734 JUMP JUMPDEST PUSH1 0xFF NOT AND DUP8 DUP6 ADD MSTORE POP POP ISZERO ISZERO PUSH1 0x5 SHL DUP5 ADD ADD SWAP1 POP DUP6 DUP1 DUP1 PUSH2 0x218 JUMP JUMPDEST SWAP2 PUSH1 0x7F AND SWAP2 PUSH2 0x6B8 JUMP JUMPDEST PUSH1 0x20 DUP1 DUP3 MSTORE DUP3 MLOAD DUP2 DUP4 ADD DUP2 SWAP1 MSTORE SWAP1 SWAP4 SWAP3 PUSH1 0x0 JUMPDEST DUP3 DUP2 LT PUSH2 0x7B9 JUMPI POP POP PUSH1 0x40 SWAP3 SWAP4 POP PUSH1 0x0 DUP4 DUP3 DUP5 ADD ADD MSTORE PUSH1 0x1F DUP1 NOT SWAP2 ADD AND ADD ADD SWAP1 JUMP JUMPDEST DUP2 DUP2 ADD DUP7 ADD MLOAD DUP5 DUP3 ADD PUSH1 0x40 ADD MSTORE DUP6 ADD PUSH2 0x797 JUMP JUMPDEST PUSH1 0x4 CALLDATALOAD SWAP1 PUSH1 0x1 PUSH1 0x1 PUSH1 0xA0 SHL SUB DUP3 AND DUP3 SUB PUSH2 0x7E3 JUMPI JUMP JUMPDEST PUSH1 0x0 DUP1 REVERT JUMPDEST PUSH1 0x24 CALLDATALOAD SWAP1 PUSH1 0x1 PUSH1 0x1 PUSH1 0xA0 SHL SUB DUP3 AND DUP3 SUB PUSH2 0x7E3 JUMPI JUMP JUMPDEST SWAP2 PUSH1 0x1 DUP1 PUSH1 0xA0 SHL SUB DUP1 SWAP4 AND SWAP2 PUSH1 0x0 SWAP4 DUP4 DUP6 MSTORE PUSH1 0x1 PUSH1 0x20 MSTORE PUSH1 0x40 SWAP4 DUP5 DUP7 KECCAK256 SWAP2 DUP4 AND SWAP2 DUP3 DUP8 MSTORE PUSH1 0x20 MSTORE DUP5 DUP7 KECCAK256 SLOAD SWAP3 PUSH1 0x0 NOT DUP5 LT PUSH2 0x83D JUMPI JUMPDEST POP POP POP POP POP POP POP JUMP JUMPDEST DUP5 DUP5 LT PUSH2 0x8A1 JUMPI POP DUP1 ISZERO PUSH2 0x889 JUMPI DUP2 ISZERO PUSH2 0x871 JUMPI DUP6 MSTORE PUSH1 0x1 PUSH1 0x20 MSTORE DUP4 DUP6 KECCAK256 SWAP1 DUP6 MSTORE PUSH1 0x20 MSTORE SUB SWAP2 KECCAK256 SSTORE CODESIZE DUP1 DUP1 DUP1 DUP1 DUP1 DUP1 PUSH2 0x834 JUMP JUMPDEST DUP5 MLOAD PUSH4 0x4A1406B1 PUSH1 0xE1 SHL DUP2 MSTORE PUSH1 0x4 DUP2 ADD DUP8 SWAP1 MSTORE PUSH1 0x24 SWAP1 REVERT JUMPDEST DUP5 MLOAD PUSH4 0xE602DF05 PUSH1 0xE0 SHL DUP2 MSTORE PUSH1 0x4 DUP2 ADD DUP8 SWAP1 MSTORE PUSH1 0x24 SWAP1 REVERT JUMPDEST DUP6 MLOAD PUSH4 0x7DC7A0D9 PUSH1 0xE1 SHL DUP2 MSTORE PUSH1 0x1 PUSH1 0x1 PUSH1 0xA0 SHL SUB SWAP2 SWAP1 SWAP2 AND PUSH1 0x4 DUP3 ADD MSTORE PUSH1 0x24 DUP2 ADD DUP5 SWAP1 MSTORE PUSH1 0x44 DUP2 ADD DUP6 SWAP1 MSTORE PUSH1 0x64 SWAP1 REVERT JUMPDEST SWAP2 PUSH1 0x1 PUSH1 0x1 PUSH1 0xA0 SHL SUB DUP1 DUP5 AND SWAP3 DUP4 ISZERO PUSH2 0x996 JUMPI AND SWAP3 DUP4 ISZERO PUSH2 0x97D JUMPI PUSH1 0x0 SWAP1 DUP4 DUP3 MSTORE DUP2 PUSH1 0x20 MSTORE PUSH1 0x40 DUP3 KECCAK256 SLOAD SWAP1 DUP4 DUP3 LT PUSH2 0x94B JUMPI POP SWAP2 PUSH1 0x40 DUP3 DUP3 PUSH32 0xDDF252AD1BE2C89B69C2B068FC378DAA952BA7F163C4A11628F55A4DF523B3EF SWAP6 DUP8 PUSH1 0x20 SWAP7 MSTORE DUP3 DUP7 MSTORE SUB DUP3 DUP3 KECCAK256 SSTORE DUP7 DUP2 MSTORE KECCAK256 DUP2 DUP2 SLOAD ADD SWAP1 SSTORE PUSH1 0x40 MLOAD SWAP1 DUP2 MSTORE LOG3 JUMP JUMPDEST PUSH1 0x40 MLOAD PUSH4 0x391434E3 PUSH1 0xE2 SHL DUP2 MSTORE PUSH1 0x1 PUSH1 0x1 PUSH1 0xA0 SHL SUB SWAP2 SWAP1 SWAP2 AND PUSH1 0x4 DUP3 ADD MSTORE PUSH1 0x24 DUP2 ADD SWAP2 SWAP1 SWAP2 MSTORE PUSH1 0x44 DUP2 ADD DUP4 SWAP1 MSTORE PUSH1 0x64 SWAP1 REVERT JUMPDEST PUSH1 0x40 MLOAD PUSH4 0xEC442F05 PUSH1 0xE0 SHL DUP2 MSTORE PUSH1 0x0 PUSH1 0x4 DUP3 ADD MSTORE PUSH1 0x24 SWAP1 REVERT JUMPDEST PUSH1 0x40 MLOAD PUSH4 0x4B637E8F PUSH1 0xE1 SHL DUP2 MSTORE PUSH1 0x0 PUSH1 0x4 DUP3 ADD MSTORE PUSH1 0x24 SWAP1 REVERT JUMPDEST PUSH1 0x5 SLOAD PUSH1 0x1 PUSH1 0x1 PUSH1 0xA0 SHL SUB AND CALLER SUB PUSH2 0x9C3 JUMPI JUMP JUMPDEST PUSH1 0x40 MLOAD PUSH4 0x118CDAA7 PUSH1 0xE0 SHL DUP2 MSTORE CALLER PUSH1 0x4 DUP3 ADD MSTORE PUSH1 0x24 SWAP1 REVERT INVALID LOG2 PUSH5 0x6970667358 0x22 SLT KECCAK256 DELEGATECALL PUSH7 0xAD3611F91C0035 0xAF 0xC9 DUP13 0xD2 SLT 0xA5 CHAINID 0xE1 0xBF DUP5 DUP3 PUSH31 0x5F6D1F969630EF715B53FC64736F6C63430008180033A26469706673582212 KECCAK256 0xB3 BYTE 0xCB PUSH14 0x9E4688E53E319E0F97E57BCC71F7 LOG1 BLOCKHASH SDIV PUSH27 0x16294A726F2683D1251764736F6C63430008180033000000000000 "},"methodIdentifiers":{"deployEventMarket(address,address,address,uint8,uint8,uint256,uint256,uint256,bytes32,address,bytes32,uint64,uint256,uint256,address,uint256,string[])":"53a4e6d7","deployPriceMarket(address,address,address,uint8,uint8,uint256,uint256,uint256,bytes32,address,uint256,uint8,uint256,uint256,uint256,string[])":"c494b3a6","factory()":"c45a0155"}}}}}