{"contracts/factory/AFTRParimutuelMarketFactory.sol":{"AFTRParimutuelMarketFactory":{"abi":[{"inputs":[{"internalType":"address","name":"owner_","type":"address"},{"internalType":"address","name":"feeRecipient_","type":"address"},{"internalType":"address","name":"optimisticOracleV2_","type":"address"},{"internalType":"address","name":"umaBondCurrency_","type":"address"}],"stateMutability":"nonpayable","type":"constructor"},{"inputs":[],"name":"InvalidAddress","type":"error"},{"inputs":[],"name":"InvalidBins","type":"error"},{"inputs":[],"name":"InvalidCollateral","type":"error"},{"inputs":[],"name":"InvalidConfig","type":"error"},{"inputs":[],"name":"InvalidDeployer","type":"error"},{"inputs":[],"name":"InvalidFeed","type":"error"},{"inputs":[],"name":"InvalidMeta","type":"error"},{"inputs":[],"name":"InvalidOutcomes","type":"error"},{"inputs":[],"name":"InvalidTime","type":"error"},{"inputs":[],"name":"NotCreator","type":"error"},{"inputs":[{"internalType":"address","name":"owner","type":"address"}],"name":"OwnableInvalidOwner","type":"error"},{"inputs":[{"internalType":"address","name":"account","type":"address"}],"name":"OwnableUnauthorizedAccount","type":"error"},{"anonymous":false,"inputs":[{"indexed":true,"internalType":"address","name":"recipient","type":"address"}],"name":"FeeRecipientUpdated","type":"event"},{"anonymous":false,"inputs":[{"indexed":true,"internalType":"address","name":"market","type":"address"},{"indexed":true,"internalType":"enum AFTRVParimutuelMarket.MarketKind","name":"kind","type":"uint8"},{"indexed":true,"internalType":"address","name":"collateralToken","type":"address"},{"indexed":false,"internalType":"address[]","name":"outcomeTokens","type":"address[]"},{"indexed":false,"internalType":"string[]","name":"outcomeLabels","type":"string[]"},{"indexed":false,"internalType":"uint256","name":"stakeEndTimestamp","type":"uint256"},{"indexed":false,"internalType":"uint256","name":"resolveAfterTimestamp","type":"uint256"},{"indexed":false,"internalType":"bytes32","name":"metadataHash","type":"bytes32"}],"name":"MarketCreated","type":"event"},{"anonymous":false,"inputs":[{"indexed":true,"internalType":"address","name":"deployer","type":"address"}],"name":"MarketDeployerUpdated","type":"event"},{"anonymous":false,"inputs":[{"indexed":true,"internalType":"address","name":"oracle","type":"address"}],"name":"OptimisticOracleV2Updated","type":"event"},{"anonymous":false,"inputs":[{"indexed":true,"internalType":"address","name":"previousOwner","type":"address"},{"indexed":true,"internalType":"address","name":"newOwner","type":"address"}],"name":"OwnershipTransferStarted","type":"event"},{"anonymous":false,"inputs":[{"indexed":true,"internalType":"address","name":"previousOwner","type":"address"},{"indexed":true,"internalType":"address","name":"newOwner","type":"address"}],"name":"OwnershipTransferred","type":"event"},{"anonymous":false,"inputs":[{"indexed":true,"internalType":"address","name":"token","type":"address"}],"name":"SupportedCollateralAdded","type":"event"},{"anonymous":false,"inputs":[{"indexed":true,"internalType":"address","name":"token","type":"address"}],"name":"SupportedCollateralRemoved","type":"event"},{"anonymous":false,"inputs":[{"indexed":true,"internalType":"address","name":"currency","type":"address"}],"name":"UmaBondCurrencyUpdated","type":"event"},{"inputs":[],"name":"acceptOwnership","outputs":[],"stateMutability":"nonpayable","type":"function"},{"inputs":[{"internalType":"address","name":"token","type":"address"}],"name":"addSupportedCollateral","outputs":[],"stateMutability":"nonpayable","type":"function"},{"inputs":[],"name":"batchExecutor","outputs":[{"internalType":"address","name":"","type":"address"}],"stateMutability":"view","type":"function"},{"inputs":[{"components":[{"internalType":"address","name":"collateralToken","type":"address"},{"internalType":"uint8","name":"collateralDecimals","type":"uint8"},{"internalType":"uint256","name":"virtualReserve","type":"uint256"},{"internalType":"uint256","name":"stakeEndTimestamp","type":"uint256"},{"internalType":"uint256","name":"resolveAfterTimestamp","type":"uint256"},{"internalType":"bytes32","name":"metadataHash","type":"bytes32"},{"internalType":"string[]","name":"outcomeLabels","type":"string[]"},{"internalType":"string","name":"metadataURI","type":"string"},{"internalType":"string","name":"umaAncillary","type":"string"},{"internalType":"bytes32","name":"umaIdentifier","type":"bytes32"},{"internalType":"uint64","name":"umaLiveness","type":"uint64"},{"internalType":"uint256","name":"umaProposerBond","type":"uint256"},{"internalType":"uint256","name":"umaReward","type":"uint256"},{"internalType":"address","name":"umaRewardCurrency","type":"address"},{"internalType":"uint256","name":"minBootstrapTotal","type":"uint256"}],"internalType":"struct AFTRParimutuelMarketFactory.EventMarketParams","name":"p","type":"tuple"}],"name":"createEventMarket","outputs":[{"internalType":"address","name":"market","type":"address"}],"stateMutability":"nonpayable","type":"function"},{"inputs":[{"components":[{"internalType":"address","name":"collateralToken","type":"address"},{"internalType":"uint8","name":"collateralDecimals","type":"uint8"},{"internalType":"uint256","name":"virtualReserve","type":"uint256"},{"internalType":"uint256","name":"stakeEndTimestamp","type":"uint256"},{"internalType":"uint256","name":"resolveAfterTimestamp","type":"uint256"},{"internalType":"bytes32","name":"metadataHash","type":"bytes32"},{"internalType":"string[]","name":"outcomeLabels","type":"string[]"},{"internalType":"address","name":"chainlinkFeed","type":"address"},{"internalType":"uint256","name":"priceThreshold","type":"uint256"},{"internalType":"enum AFTRVParimutuelMarket.PriceThresholdKind","name":"priceKind","type":"uint8"},{"internalType":"uint256","name":"priceUpperBound","type":"uint256"},{"internalType":"uint256","name":"maxPriceStaleness","type":"uint256"},{"internalType":"uint256[]","name":"priceBinLower","type":"uint256[]"},{"internalType":"uint256[]","name":"priceBinUpper","type":"uint256[]"},{"internalType":"uint256","name":"minBootstrapTotal","type":"uint256"}],"internalType":"struct AFTRParimutuelMarketFactory.PriceMarketParams","name":"p","type":"tuple"}],"name":"createPriceMarket","outputs":[{"internalType":"address","name":"market","type":"address"}],"stateMutability":"nonpayable","type":"function"},{"inputs":[],"name":"feeRecipient","outputs":[{"internalType":"address","name":"","type":"address"}],"stateMutability":"view","type":"function"},{"inputs":[{"internalType":"address","name":"market","type":"address"}],"name":"getMarketOutcomeTokens","outputs":[{"internalType":"address[]","name":"","type":"address[]"}],"stateMutability":"view","type":"function"},{"inputs":[{"internalType":"address","name":"","type":"address"}],"name":"isMarket","outputs":[{"internalType":"bool","name":"","type":"bool"}],"stateMutability":"view","type":"function"},{"inputs":[{"internalType":"address","name":"market","type":"address"},{"internalType":"address","name":"token","type":"address"}],"name":"isOutcomeTokenForMarket","outputs":[{"internalType":"bool","name":"","type":"bool"}],"stateMutability":"view","type":"function"},{"inputs":[{"internalType":"address","name":"","type":"address"}],"name":"isSupportedCollateral","outputs":[{"internalType":"bool","name":"","type":"bool"}],"stateMutability":"view","type":"function"},{"inputs":[],"name":"marketDeployer","outputs":[{"internalType":"address","name":"","type":"address"}],"stateMutability":"view","type":"function"},{"inputs":[{"internalType":"uint256","name":"","type":"uint256"}],"name":"markets","outputs":[{"internalType":"address","name":"","type":"address"}],"stateMutability":"view","type":"function"},{"inputs":[],"name":"marketsLength","outputs":[{"internalType":"uint256","name":"","type":"uint256"}],"stateMutability":"view","type":"function"},{"inputs":[],"name":"optimisticOracleV2","outputs":[{"internalType":"address","name":"","type":"address"}],"stateMutability":"view","type":"function"},{"inputs":[],"name":"owner","outputs":[{"internalType":"address","name":"","type":"address"}],"stateMutability":"view","type":"function"},{"inputs":[],"name":"pendingOwner","outputs":[{"internalType":"address","name":"","type":"address"}],"stateMutability":"view","type":"function"},{"inputs":[{"internalType":"address","name":"token","type":"address"}],"name":"removeSupportedCollateral","outputs":[],"stateMutability":"nonpayable","type":"function"},{"inputs":[],"name":"renounceOwnership","outputs":[],"stateMutability":"nonpayable","type":"function"},{"inputs":[{"internalType":"address","name":"executor","type":"address"}],"name":"setBatchExecutor","outputs":[],"stateMutability":"nonpayable","type":"function"},{"inputs":[{"internalType":"address","name":"r","type":"address"}],"name":"setFeeRecipient","outputs":[],"stateMutability":"nonpayable","type":"function"},{"inputs":[{"internalType":"address","name":"d","type":"address"}],"name":"setMarketDeployer","outputs":[],"stateMutability":"nonpayable","type":"function"},{"inputs":[{"internalType":"address","name":"oo","type":"address"}],"name":"setOptimisticOracleV2","outputs":[],"stateMutability":"nonpayable","type":"function"},{"inputs":[{"internalType":"address","name":"c","type":"address"}],"name":"setUmaBondCurrency","outputs":[],"stateMutability":"nonpayable","type":"function"},{"inputs":[{"internalType":"address","name":"newOwner","type":"address"}],"name":"transferOwnership","outputs":[],"stateMutability":"nonpayable","type":"function"},{"inputs":[],"name":"umaBondCurrency","outputs":[{"internalType":"address","name":"","type":"address"}],"stateMutability":"view","type":"function"}],"evm":{"bytecode":{"linkReferences":{},"object":"6080346200014b57601f62001c7838819003918201601f19168301916001600160401b0383118484101762000150578084926080946040528339810103126200014b576200004d8162000166565b6200005b6020830162000166565b91620000786060620000706040840162000166565b920162000166565b6001600160a01b03929091908316801562000132578360018060a01b03199586600154166001556000549280888516176000558260405194167f8be0079c531659141344cd1fd0a4f28419497f9722a3daafe3b4186f6b6457e0600080a316908115801562000127575b6200011857509083918560035416176003551683600454161760045516906005541617600555604051611afc90816200017c8239f35b63e6c4247b60e01b8152600490fd5b5084841615620000e2565b604051631e4fbdf760e01b815260006004820152602490fd5b600080fd5b634e487b7160e01b600052604160045260246000fd5b51906001600160a01b03821682036200014b5756fe608080604052600436101561001357600080fd5b60003560e01c9081630d2af8d31461139f5750806317dbc5381461135c5780631800d79f146112de5780631cba0d2914610da85780631d55530614610d655780631f470b2d14610ccd57806339f4c4da14610c8e5780634682be6114610c255780634690484014610bfc57806351e84b84146105f7578063536db2e6146105655780635e6607ff1461053c5780636ec934da146104fd578063715018a61461049857806379ba50971461040f5780638da5cb5b146103e65780639b307dc21461037d578063a54025441461035f578063b1283e7714610304578063b2d35b7a1461029d578063bb1e453114610274578063e30c39781461024b578063e74b981b146101d0578063ed460e56146101a75763f2fde38b1461013257600080fd5b346101a25760203660031901126101a25761014b6113c3565b610153611539565b60018060a01b0380911690816bffffffffffffffffffffffff60a01b6001541617600155600054167f38d16b8cac22d99fc7c124b9cd0de2d3fa1faef420bfe791d8c362d765e22700600080a3005b600080fd5b346101a25760003660031901126101a2576005546040516001600160a01b039091168152602090f35b346101a25760203660031901126101a2576101e96113c3565b6101f1611539565b6001600160a01b0316801561023957600380546001600160a01b031916821790557f7a7b5a0a132f9e0581eb8527f66eae9ee89c2a3e79d4ac7e41a1f1f4d48a7fc2600080a2005b60405163e6c4247b60e01b8152600490fd5b346101a25760003660031901126101a2576001546040516001600160a01b039091168152602090f35b346101a25760003660031901126101a2576007546040516001600160a01b039091168152602090f35b346101a25760203660031901126101a2576102b66113c3565b6102be611539565b600480546001600160a01b0319166001600160a01b039290921691821790557f6be240c3ce51532bc6f7066bd1c5c51947cc8e3e01fa03397d6ab44cfa7d198a600080a2005b346101a25760203660031901126101a2576004356008548110156101a25760086000527ff3f7a9fe364faab93b216da50a3214154f22a0a2b415b23a84c8169e8b636ee301546040516001600160a01b039091168152602090f35b346101a25760003660031901126101a2576020600854604051908152f35b346101a25760203660031901126101a2576103966113c3565b61039e611539565b6001600160a01b0316801561023957600780546001600160a01b031916821790557f605f04a31cf07d957f1c52208519e1cd6da20eb11dc98e67fc3eff63fe3933fc600080a2005b346101a25760003660031901126101a2576000546040516001600160a01b039091168152602090f35b346101a25760003660031901126101a2576001546001600160a01b033381831603610480576bffffffffffffffffffffffff60a01b8092166001556000549133908316176000553391167f8be0079c531659141344cd1fd0a4f28419497f9722a3daafe3b4186f6b6457e0600080a3005b60405163118cdaa760e01b8152336004820152602490fd5b346101a25760003660031901126101a2576104b1611539565b600180546001600160a01b0319908116909155600080549182168155906001600160a01b03167f8be0079c531659141344cd1fd0a4f28419497f9722a3daafe3b4186f6b6457e08280a3005b346101a25760203660031901126101a2576001600160a01b0361051e6113c3565b166000526009602052602060ff604060002054166040519015158152f35b346101a25760003660031901126101a2576006546040516001600160a01b039091168152602090f35b346101a25760203660031901126101a25761057e6113c3565b610586611539565b6001600160a01b031660008181526002602052604090205460ff166105e5578060005260026020526040600020600160ff198254161790557fbd8a8e5a223a7347dab9de83a90a67c6bb291a7ac7487fba3886f5ed162d1da5600080a2005b6040516306b7c75960e31b8152600490fd5b346101a257610605366113d9565b6000546001600160a01b0316903382141580610be7575b610bd5576106298161154d565b9161064160209361063b858501611561565b90611851565b6001600160a01b036106528461154d565b166000526002845260ff6040600020541615610bc3576001600160a01b036106798461154d565b161580610bb5575b6105e557600261069460c085018561156f565b9050108015610b9e575b610b8c576106ba6106b361010085018561180b565b3691611746565b9081518015908115610b80575b506105e5576001600160401b036106e1610140860161183d565b16156105e557610120840135908115610b2d575b6e5945535f4f525f4e4f5f515545525960881b821480610b14575b6105e5576004546001600160a01b03169384156105e5576101a086016001600160a01b0361073d8261154d565b1615610b015761074c9061154d565b915b6001600160a01b038316156105e55742606088013511801590610aef575b610add5760a087013515610acb576007546001600160a01b0316938415610ab9576003546001600160a01b0316936107a38961154d565b976107b160c08b018b61156f565b9390506107c16101408c0161183d565b916107cf60c08d018d61156f565b9590966040519c8d9a8b9a6353a4e6d760e01b8c5260048c015260248b0152600160a01b600190031660448a015260ff16606489015260ff16608488015260408c013560a488015260608c013560c488015260808c013560e488015260a08c01356101048801526101248701526101448601526001600160401b03166101648501526101608901356101848501526101808901356101a4850152600160a01b60019003166101c48401526101c08801356101e48401526102048301610220905261022483019061089e9261165f565b03815a6000948591f1908115610aad57600092600092610a80575b50610901906108cd60e0869496018461180b565b916108fa604051926108de846114fd565b60008452604051946108ef866114fd565b600086523691611746565b87876118f0565b61090a8161154d565b9261092261091b60c084018461156f565b369161178c565b9261092c81611a27565b60018060a01b031693849283600052600987526040600020600190600160ff19825416179055806000905b610a2d575b506109726040519460a0865260a086019061140b565b90848203898601528651808352898301928a808360051b8301019901936000915b8c8484106109f6578a8c6001827fb679f8bb353ccc2331bbeb116d31f96fe2836f68dd9cb37d0749ea0b26be22d68e808f8f80606060a092013560408501526080810135606085015201356080830152858060a01b0316950390a4604051908152f35b859798999a50610a17819294969395979c601f198682030187528d516118b0565b9b019301930190928a9897969593949294610993565b8482939495965051811015610a75576000888152600a8a5260409020829190610a6a906001600160a01b03610a62848b611868565b511690611a8b565b018795949392610957565b87959493925061095c565b6109019350610aa39192503d806000833e610a9b8183611518565b8101906115cf565b92909291906108b9565b6040513d6000823e3d90fd5b60405163043c669f60e01b8152600490fd5b6040516308bb27af60e41b8152600490fd5b6040516337bf561360e11b8152600490fd5b5060608701356080880135111561076c565b506005546001600160a01b03169161074e565b506002610b2460c087018761156f565b90501415610710565b90506002610b3e60c086018661156f565b905014600014610b62576e5945535f4f525f4e4f5f515545525960881b5b906106f5565b744d554c5449504c455f43484f4943455f515545525960581b610b5c565b612000915011866106c7565b6040516367d635e160e01b8152600490fd5b5083610bad60c085018561156f565b90501161069e565b50601260ff82161415610681565b6040516368f7a67560e11b8152600490fd5b6040516393687c0b60e01b8152600490fd5b506006546001600160a01b031633141561061c565b346101a25760003660031901126101a2576003546040516001600160a01b039091168152602090f35b346101a25760203660031901126101a257610c3e6113c3565b610c46611539565b6001600160a01b0316801561023957600580546001600160a01b031916821790557f523e520d3e5099d5b5ef94a4279b3b62d1f69afa84ab6d0ae03287a7a67c68f2600080a2005b346101a25760203660031901126101a2576001600160a01b03610caf6113c3565b166000526002602052602060ff604060002054166040519015158152f35b346101a2576020806003193601126101a2576001600160a01b039081610cf16113c3565b16600052600a81526040600020916040518093849184825491828152019160005284600020936000905b86838310610d49578590610d3182870383611518565b610d4560405192828493845283019061140b565b0390f35b8654821685526001968701968996509401939190910190610d1b565b346101a25760203660031901126101a257610d7e6113c3565b610d86611539565b600680546001600160a01b0319166001600160a01b0392909216919091179055005b346101a257610db6366113d9565b6000546001600160a01b03169033821415806112c9575b610bd557610de9610ddd8261154d565b61063b60208401611561565b916001600160a01b03610dfb8361154d565b16600052600260205260ff6040600020541615610bc3576001600160a01b03610e238361154d565b1615806112bb575b6105e5576002610e3e60c084018461156f565b90501080156112a3575b610b8c5760e082016001600160a01b03610e618261154d565b161561129157610160830135156105e5574260608401351180159061127f575b610add5760a083013515610acb57610e9d61018084018461156f565b15905061123057610eb261018084018461156f565b9050610ec160c085018561156f565b91905014801590611208575b6111f6575b6007546001600160a01b03168015610ab9576003546001600160a01b0316610ef98561154d565b92610f12610f0a60c088018861156f565b92905061154d565b94600361012088013510156101a257610ffb6000969260ff8894610f3960c08c018c61156f565b929093816040519e8f9c8d9b8c9a63624a59d360e11b8c5260048c015260248b015260018060a01b031660448a015216606488015216608486015260408b013560a486015260608b013560c486015260808b013560e486015260a08b013561010486015260018060a01b03166101248501526101008a01356101448501526101208a01356101648501526101408a01356101848501526101608a01356101a48501526101c08a01356101c48501526102006101e485015261020484019161165f565b03925af18015610aad576000926000916111d5575b5061107361106b611063604051611026816114fd565b6000815261103861018087018761156f565b93906110486101a089018961156f565b94909160405196611058886114fd565b6000885236916116f8565b9336916116f8565b9285886118f0565b61107c8261154d565b61108c61091b60c085018561156f565b9061109685611a27565b6001600160a01b0385166000908152600960205260408120805460ff191660011790555b83518110156110f5576001600160a01b038681166000908152600a60205260409020600192916110ef9190610a628489611868565b016110ba565b5090939261110e6040519360a0855260a085019061140b565b8381036020850152855180825260208201916020808360051b8301019801926000915b8383106111a8576020898960008d7fb679f8bb353ccc2331bbeb116d31f96fe2836f68dd9cb37d0749ea0b26be22d68c60a08d60608101356040880152608081013560608801520135608086015260018060a01b0316938060018060a01b038716930390a46040516001600160a01b039091168152f35b90919293986020806111c6600193601f198682030187528d516118b0565b9b019301930191939290611131565b90506111ed9192503d806000833e610a9b8183611518565b91909183611010565b60405163b2d4eceb60e01b8152600490fd5b506112176101a084018461156f565b905061122660c085018561156f565b9190501415610ecd565b600261123f60c085018561156f565b9050036111f65761012083013560038110156101a257600203610ed25761014083013561010084013510610ed2576040516306b7c75960e31b8152600490fd5b50606083013560808401351115610e81565b6040516301f86e1760e41b8152600490fd5b5060206112b360c084018461156f565b905011610e48565b50601260ff84161415610e2b565b506006546001600160a01b0316331415610dcd565b346101a25760203660031901126101a2576112f76113c3565b6112ff611539565b6001600160a01b031660008181526002602052604090205460ff16156105e557806000526002602052604060002060ff1981541690557f0ffbe34cfa1831023fd1e8602fc452dfa0e07b531dd9197a3fac11258aa17e75600080a2005b346101a25760403660031901126101a2576113756113c3565b602435906001600160a01b03821682036101a25760209161139591611476565b6040519015158152f35b346101a25760003660031901126101a2576004546001600160a01b03168152602090f35b600435906001600160a01b03821682036101a257565b600319906020818301126101a257600435916001600160401b0383116101a257826101e0920301126101a25760040190565b90815180825260208080930193019160005b82811061142b575050505090565b83516001600160a01b03168552938101939281019260010161141d565b80548210156114605760005260206000200190600090565b634e487b7160e01b600052603260045260246000fd5b6001600160a01b039081166000908152600a6020526040812080549390915b8481106114a6575050505050600090565b836114b18285611448565b9190548185169260031b1c16146114ca57600101611495565b5050505050600190565b6001600160401b0381116114e757604052565b634e487b7160e01b600052604160045260246000fd5b602081019081106001600160401b038211176114e757604052565b90601f801991011681019081106001600160401b038211176114e757604052565b6000546001600160a01b0316330361048057565b356001600160a01b03811681036101a25790565b3560ff811681036101a25790565b903590601e19813603018212156101a257018035906001600160401b0382116101a257602001918160051b360383136101a257565b51906001600160a01b03821682036101a257565b6001600160401b0381116114e75760051b60200190565b91906040838203126101a2576115e4836115a4565b9260209081810151906001600160401b0382116101a257019180601f840112156101a2578251611613816115b8565b936116216040519586611518565b818552838086019260051b8201019283116101a2578301905b828210611648575050505090565b838091611654846115a4565b81520191019061163a565b8183526020600583901b84018101939192906000818401855b848310611689575050505050505090565b90919293949596601f19808883030184528835601e19843603018112156101a257830186810190356001600160401b0381116101a25780360382136101a257838893601f83808796879660019a5286860137600085828601015201160101990193019301919594939290611678565b9291611703826115b8565b916117116040519384611518565b829481845260208094019160051b81019283116101a257905b8282106117375750505050565b8135815290830190830161172a565b9291926001600160401b0382116114e7576040519161176f601f8201601f191660200184611518565b8294818452818301116101a2578281602093846000960137010152565b92919092611799846115b8565b916117a76040519384611518565b829480845260208094019060051b8301928284116101a25780915b8483106117d157505050505050565b82356001600160401b0381116101a257820184601f820112156101a25786916118008683858095359101611746565b8152019201916117c2565b903590601e19813603018212156101a257018035906001600160401b0382116101a2576020019181360383136101a257565b356001600160401b03811681036101a25790565b6001600160a01b0316156118625790565b50601290565b80518210156114605760209160051b010190565b90815180825260208080930193019160005b82811061189c575050505090565b83518552938101939281019260010161188e565b919082519283825260005b8481106118dc575050826000602080949584010152601f8019910116010190565b6020818301810151848301820152016118bb565b9592949190939460005b8551811015611974576001600160a01b03806119168389611868565b511690813b156101a257600060409160248c838551968794859363f2fde38b60e01b85521660048401525af190811561196a5750906001929161195b575b50016118fa565b611964906114d4565b38611954565b513d6000823e3d90fd5b509295919490926001600160a01b0390921691823b156101a257600094611a0b6119c99387936119fc6119dc986119ec6040519c8d9b8c9a8b9963cc3e02ff60e01b8b5260a060048c015260a48b019061140b565b60031997888b83030160248c015261187c565b90868983030160448a015261187c565b90848783030160648801526118b0565b918483030160848501526118b0565b03925af18015610aad57611a1c5750565b611a25906114d4565b565b600854600160401b8110156114e75760018101806008558110156114605760086000527ff3f7a9fe364faab93b216da50a3214154f22a0a2b415b23a84c8169e8b636ee30180546001600160a01b0319166001600160a01b03909216919091179055565b8054600160401b8110156114e757611aa891600182018155611448565b60018060a09493941b038084549260031b9316831b921b191617905556fea26469706673582212206f5c4173d661c50582e10b441fef507dfd70226ad10f5fd3a499a9ba389a0d9d64736f6c63430008180033","opcodes":"PUSH1 0x80 CALLVALUE PUSH3 0x14B JUMPI PUSH1 0x1F PUSH3 0x1C78 CODESIZE DUP2 SWAP1 SUB SWAP2 DUP3 ADD PUSH1 0x1F NOT AND DUP4 ADD SWAP2 PUSH1 0x1 PUSH1 0x1 PUSH1 0x40 SHL SUB DUP4 GT DUP5 DUP5 LT OR PUSH3 0x150 JUMPI DUP1 DUP5 SWAP3 PUSH1 0x80 SWAP5 PUSH1 0x40 MSTORE DUP4 CODECOPY DUP2 ADD SUB SLT PUSH3 0x14B JUMPI PUSH3 0x4D DUP2 PUSH3 0x166 JUMP JUMPDEST PUSH3 0x5B PUSH1 0x20 DUP4 ADD PUSH3 0x166 JUMP JUMPDEST SWAP2 PUSH3 0x78 PUSH1 0x60 PUSH3 0x70 PUSH1 0x40 DUP5 ADD PUSH3 0x166 JUMP JUMPDEST SWAP3 ADD PUSH3 0x166 JUMP JUMPDEST PUSH1 0x1 PUSH1 0x1 PUSH1 0xA0 SHL SUB SWAP3 SWAP1 SWAP2 SWAP1 DUP4 AND DUP1 ISZERO PUSH3 0x132 JUMPI DUP4 PUSH1 0x1 DUP1 PUSH1 0xA0 SHL SUB NOT SWAP6 DUP7 PUSH1 0x1 SLOAD AND PUSH1 0x1 SSTORE PUSH1 0x0 SLOAD SWAP3 DUP1 DUP9 DUP6 AND OR PUSH1 0x0 SSTORE DUP3 PUSH1 0x40 MLOAD SWAP5 AND PUSH32 0x8BE0079C531659141344CD1FD0A4F28419497F9722A3DAAFE3B4186F6B6457E0 PUSH1 0x0 DUP1 LOG3 AND SWAP1 DUP2 ISZERO DUP1 ISZERO PUSH3 0x127 JUMPI JUMPDEST PUSH3 0x118 JUMPI POP SWAP1 DUP4 SWAP2 DUP6 PUSH1 0x3 SLOAD AND OR PUSH1 0x3 SSTORE AND DUP4 PUSH1 0x4 SLOAD AND OR PUSH1 0x4 SSTORE AND SWAP1 PUSH1 0x5 SLOAD AND OR PUSH1 0x5 SSTORE PUSH1 0x40 MLOAD PUSH2 0x1AFC SWAP1 DUP2 PUSH3 0x17C DUP3 CODECOPY RETURN JUMPDEST PUSH4 0xE6C4247B PUSH1 0xE0 SHL DUP2 MSTORE PUSH1 0x4 SWAP1 REVERT JUMPDEST POP DUP5 DUP5 AND ISZERO PUSH3 0xE2 JUMP JUMPDEST PUSH1 0x40 MLOAD PUSH4 0x1E4FBDF7 PUSH1 0xE0 SHL DUP2 MSTORE PUSH1 0x0 PUSH1 0x4 DUP3 ADD MSTORE PUSH1 0x24 SWAP1 REVERT JUMPDEST PUSH1 0x0 DUP1 REVERT JUMPDEST PUSH4 0x4E487B71 PUSH1 0xE0 SHL PUSH1 0x0 MSTORE PUSH1 0x41 PUSH1 0x4 MSTORE PUSH1 0x24 PUSH1 0x0 REVERT JUMPDEST MLOAD SWAP1 PUSH1 0x1 PUSH1 0x1 PUSH1 0xA0 SHL SUB DUP3 AND DUP3 SUB PUSH3 0x14B JUMPI JUMP INVALID PUSH1 0x80 DUP1 PUSH1 0x40 MSTORE PUSH1 0x4 CALLDATASIZE LT ISZERO PUSH2 0x13 JUMPI PUSH1 0x0 DUP1 REVERT JUMPDEST PUSH1 0x0 CALLDATALOAD PUSH1 0xE0 SHR SWAP1 DUP2 PUSH4 0xD2AF8D3 EQ PUSH2 0x139F JUMPI POP DUP1 PUSH4 0x17DBC538 EQ PUSH2 0x135C JUMPI DUP1 PUSH4 0x1800D79F EQ PUSH2 0x12DE JUMPI DUP1 PUSH4 0x1CBA0D29 EQ PUSH2 0xDA8 JUMPI DUP1 PUSH4 0x1D555306 EQ PUSH2 0xD65 JUMPI DUP1 PUSH4 0x1F470B2D EQ PUSH2 0xCCD JUMPI DUP1 PUSH4 0x39F4C4DA EQ PUSH2 0xC8E JUMPI DUP1 PUSH4 0x4682BE61 EQ PUSH2 0xC25 JUMPI DUP1 PUSH4 0x46904840 EQ PUSH2 0xBFC JUMPI DUP1 PUSH4 0x51E84B84 EQ PUSH2 0x5F7 JUMPI DUP1 PUSH4 0x536DB2E6 EQ PUSH2 0x565 JUMPI DUP1 PUSH4 0x5E6607FF EQ PUSH2 0x53C JUMPI DUP1 PUSH4 0x6EC934DA EQ PUSH2 0x4FD JUMPI DUP1 PUSH4 0x715018A6 EQ PUSH2 0x498 JUMPI DUP1 PUSH4 0x79BA5097 EQ PUSH2 0x40F JUMPI DUP1 PUSH4 0x8DA5CB5B EQ PUSH2 0x3E6 JUMPI DUP1 PUSH4 0x9B307DC2 EQ PUSH2 0x37D JUMPI DUP1 PUSH4 0xA5402544 EQ PUSH2 0x35F JUMPI DUP1 PUSH4 0xB1283E77 EQ PUSH2 0x304 JUMPI DUP1 PUSH4 0xB2D35B7A EQ PUSH2 0x29D JUMPI DUP1 PUSH4 0xBB1E4531 EQ PUSH2 0x274 JUMPI DUP1 PUSH4 0xE30C3978 EQ PUSH2 0x24B JUMPI DUP1 PUSH4 0xE74B981B EQ PUSH2 0x1D0 JUMPI DUP1 PUSH4 0xED460E56 EQ PUSH2 0x1A7 JUMPI PUSH4 0xF2FDE38B EQ PUSH2 0x132 JUMPI PUSH1 0x0 DUP1 REVERT JUMPDEST CALLVALUE PUSH2 0x1A2 JUMPI PUSH1 0x20 CALLDATASIZE PUSH1 0x3 NOT ADD SLT PUSH2 0x1A2 JUMPI PUSH2 0x14B PUSH2 0x13C3 JUMP JUMPDEST PUSH2 0x153 PUSH2 0x1539 JUMP JUMPDEST PUSH1 0x1 DUP1 PUSH1 0xA0 SHL SUB DUP1 SWAP2 AND SWAP1 DUP2 PUSH12 0xFFFFFFFFFFFFFFFFFFFFFFFF PUSH1 0xA0 SHL PUSH1 0x1 SLOAD AND OR PUSH1 0x1 SSTORE PUSH1 0x0 SLOAD AND PUSH32 0x38D16B8CAC22D99FC7C124B9CD0DE2D3FA1FAEF420BFE791D8C362D765E22700 PUSH1 0x0 DUP1 LOG3 STOP JUMPDEST PUSH1 0x0 DUP1 REVERT JUMPDEST CALLVALUE PUSH2 0x1A2 JUMPI PUSH1 0x0 CALLDATASIZE PUSH1 0x3 NOT ADD SLT PUSH2 0x1A2 JUMPI PUSH1 0x5 SLOAD PUSH1 0x40 MLOAD PUSH1 0x1 PUSH1 0x1 PUSH1 0xA0 SHL SUB SWAP1 SWAP2 AND DUP2 MSTORE PUSH1 0x20 SWAP1 RETURN JUMPDEST CALLVALUE PUSH2 0x1A2 JUMPI PUSH1 0x20 CALLDATASIZE PUSH1 0x3 NOT ADD SLT PUSH2 0x1A2 JUMPI PUSH2 0x1E9 PUSH2 0x13C3 JUMP JUMPDEST PUSH2 0x1F1 PUSH2 0x1539 JUMP JUMPDEST PUSH1 0x1 PUSH1 0x1 PUSH1 0xA0 SHL SUB AND DUP1 ISZERO PUSH2 0x239 JUMPI PUSH1 0x3 DUP1 SLOAD PUSH1 0x1 PUSH1 0x1 PUSH1 0xA0 SHL SUB NOT AND DUP3 OR SWAP1 SSTORE PUSH32 0x7A7B5A0A132F9E0581EB8527F66EAE9EE89C2A3E79D4AC7E41A1F1F4D48A7FC2 PUSH1 0x0 DUP1 LOG2 STOP JUMPDEST PUSH1 0x40 MLOAD PUSH4 0xE6C4247B PUSH1 0xE0 SHL DUP2 MSTORE PUSH1 0x4 SWAP1 REVERT JUMPDEST CALLVALUE PUSH2 0x1A2 JUMPI PUSH1 0x0 CALLDATASIZE PUSH1 0x3 NOT ADD SLT PUSH2 0x1A2 JUMPI PUSH1 0x1 SLOAD PUSH1 0x40 MLOAD PUSH1 0x1 PUSH1 0x1 PUSH1 0xA0 SHL SUB SWAP1 SWAP2 AND DUP2 MSTORE PUSH1 0x20 SWAP1 RETURN JUMPDEST CALLVALUE PUSH2 0x1A2 JUMPI PUSH1 0x0 CALLDATASIZE PUSH1 0x3 NOT ADD SLT PUSH2 0x1A2 JUMPI PUSH1 0x7 SLOAD PUSH1 0x40 MLOAD PUSH1 0x1 PUSH1 0x1 PUSH1 0xA0 SHL SUB SWAP1 SWAP2 AND DUP2 MSTORE PUSH1 0x20 SWAP1 RETURN JUMPDEST CALLVALUE PUSH2 0x1A2 JUMPI PUSH1 0x20 CALLDATASIZE PUSH1 0x3 NOT ADD SLT PUSH2 0x1A2 JUMPI PUSH2 0x2B6 PUSH2 0x13C3 JUMP JUMPDEST PUSH2 0x2BE PUSH2 0x1539 JUMP JUMPDEST PUSH1 0x4 DUP1 SLOAD PUSH1 0x1 PUSH1 0x1 PUSH1 0xA0 SHL SUB NOT AND PUSH1 0x1 PUSH1 0x1 PUSH1 0xA0 SHL SUB SWAP3 SWAP1 SWAP3 AND SWAP2 DUP3 OR SWAP1 SSTORE PUSH32 0x6BE240C3CE51532BC6F7066BD1C5C51947CC8E3E01FA03397D6AB44CFA7D198A PUSH1 0x0 DUP1 LOG2 STOP JUMPDEST CALLVALUE PUSH2 0x1A2 JUMPI PUSH1 0x20 CALLDATASIZE PUSH1 0x3 NOT ADD SLT PUSH2 0x1A2 JUMPI PUSH1 0x4 CALLDATALOAD PUSH1 0x8 SLOAD DUP2 LT ISZERO PUSH2 0x1A2 JUMPI PUSH1 0x8 PUSH1 0x0 MSTORE PUSH32 0xF3F7A9FE364FAAB93B216DA50A3214154F22A0A2B415B23A84C8169E8B636EE3 ADD SLOAD PUSH1 0x40 MLOAD PUSH1 0x1 PUSH1 0x1 PUSH1 0xA0 SHL SUB SWAP1 SWAP2 AND DUP2 MSTORE PUSH1 0x20 SWAP1 RETURN JUMPDEST CALLVALUE PUSH2 0x1A2 JUMPI PUSH1 0x0 CALLDATASIZE PUSH1 0x3 NOT ADD SLT PUSH2 0x1A2 JUMPI PUSH1 0x20 PUSH1 0x8 SLOAD PUSH1 0x40 MLOAD SWAP1 DUP2 MSTORE RETURN JUMPDEST CALLVALUE PUSH2 0x1A2 JUMPI PUSH1 0x20 CALLDATASIZE PUSH1 0x3 NOT ADD SLT PUSH2 0x1A2 JUMPI PUSH2 0x396 PUSH2 0x13C3 JUMP JUMPDEST PUSH2 0x39E PUSH2 0x1539 JUMP JUMPDEST PUSH1 0x1 PUSH1 0x1 PUSH1 0xA0 SHL SUB AND DUP1 ISZERO PUSH2 0x239 JUMPI PUSH1 0x7 DUP1 SLOAD PUSH1 0x1 PUSH1 0x1 PUSH1 0xA0 SHL SUB NOT AND DUP3 OR SWAP1 SSTORE PUSH32 0x605F04A31CF07D957F1C52208519E1CD6DA20EB11DC98E67FC3EFF63FE3933FC PUSH1 0x0 DUP1 LOG2 STOP JUMPDEST CALLVALUE PUSH2 0x1A2 JUMPI PUSH1 0x0 CALLDATASIZE PUSH1 0x3 NOT ADD SLT PUSH2 0x1A2 JUMPI PUSH1 0x0 SLOAD PUSH1 0x40 MLOAD PUSH1 0x1 PUSH1 0x1 PUSH1 0xA0 SHL SUB SWAP1 SWAP2 AND DUP2 MSTORE PUSH1 0x20 SWAP1 RETURN JUMPDEST CALLVALUE PUSH2 0x1A2 JUMPI PUSH1 0x0 CALLDATASIZE PUSH1 0x3 NOT ADD SLT PUSH2 0x1A2 JUMPI PUSH1 0x1 SLOAD PUSH1 0x1 PUSH1 0x1 PUSH1 0xA0 SHL SUB CALLER DUP2 DUP4 AND SUB PUSH2 0x480 JUMPI PUSH12 0xFFFFFFFFFFFFFFFFFFFFFFFF PUSH1 0xA0 SHL DUP1 SWAP3 AND PUSH1 0x1 SSTORE PUSH1 0x0 SLOAD SWAP2 CALLER SWAP1 DUP4 AND OR PUSH1 0x0 SSTORE CALLER SWAP2 AND PUSH32 0x8BE0079C531659141344CD1FD0A4F28419497F9722A3DAAFE3B4186F6B6457E0 PUSH1 0x0 DUP1 LOG3 STOP JUMPDEST PUSH1 0x40 MLOAD PUSH4 0x118CDAA7 PUSH1 0xE0 SHL DUP2 MSTORE CALLER PUSH1 0x4 DUP3 ADD MSTORE PUSH1 0x24 SWAP1 REVERT JUMPDEST CALLVALUE PUSH2 0x1A2 JUMPI PUSH1 0x0 CALLDATASIZE PUSH1 0x3 NOT ADD SLT PUSH2 0x1A2 JUMPI PUSH2 0x4B1 PUSH2 0x1539 JUMP JUMPDEST PUSH1 0x1 DUP1 SLOAD PUSH1 0x1 PUSH1 0x1 PUSH1 0xA0 SHL SUB NOT SWAP1 DUP2 AND SWAP1 SWAP2 SSTORE PUSH1 0x0 DUP1 SLOAD SWAP2 DUP3 AND DUP2 SSTORE SWAP1 PUSH1 0x1 PUSH1 0x1 PUSH1 0xA0 SHL SUB AND PUSH32 0x8BE0079C531659141344CD1FD0A4F28419497F9722A3DAAFE3B4186F6B6457E0 DUP3 DUP1 LOG3 STOP JUMPDEST CALLVALUE PUSH2 0x1A2 JUMPI PUSH1 0x20 CALLDATASIZE PUSH1 0x3 NOT ADD SLT PUSH2 0x1A2 JUMPI PUSH1 0x1 PUSH1 0x1 PUSH1 0xA0 SHL SUB PUSH2 0x51E PUSH2 0x13C3 JUMP JUMPDEST AND PUSH1 0x0 MSTORE PUSH1 0x9 PUSH1 0x20 MSTORE PUSH1 0x20 PUSH1 0xFF PUSH1 0x40 PUSH1 0x0 KECCAK256 SLOAD AND PUSH1 0x40 MLOAD SWAP1 ISZERO ISZERO DUP2 MSTORE RETURN JUMPDEST CALLVALUE PUSH2 0x1A2 JUMPI PUSH1 0x0 CALLDATASIZE PUSH1 0x3 NOT ADD SLT PUSH2 0x1A2 JUMPI PUSH1 0x6 SLOAD PUSH1 0x40 MLOAD PUSH1 0x1 PUSH1 0x1 PUSH1 0xA0 SHL SUB SWAP1 SWAP2 AND DUP2 MSTORE PUSH1 0x20 SWAP1 RETURN JUMPDEST CALLVALUE PUSH2 0x1A2 JUMPI PUSH1 0x20 CALLDATASIZE PUSH1 0x3 NOT ADD SLT PUSH2 0x1A2 JUMPI PUSH2 0x57E PUSH2 0x13C3 JUMP JUMPDEST PUSH2 0x586 PUSH2 0x1539 JUMP JUMPDEST PUSH1 0x1 PUSH1 0x1 PUSH1 0xA0 SHL SUB AND PUSH1 0x0 DUP2 DUP2 MSTORE PUSH1 0x2 PUSH1 0x20 MSTORE PUSH1 0x40 SWAP1 KECCAK256 SLOAD PUSH1 0xFF AND PUSH2 0x5E5 JUMPI DUP1 PUSH1 0x0 MSTORE PUSH1 0x2 PUSH1 0x20 MSTORE PUSH1 0x40 PUSH1 0x0 KECCAK256 PUSH1 0x1 PUSH1 0xFF NOT DUP3 SLOAD AND OR SWAP1 SSTORE PUSH32 0xBD8A8E5A223A7347DAB9DE83A90A67C6BB291A7AC7487FBA3886F5ED162D1DA5 PUSH1 0x0 DUP1 LOG2 STOP JUMPDEST PUSH1 0x40 MLOAD PUSH4 0x6B7C759 PUSH1 0xE3 SHL DUP2 MSTORE PUSH1 0x4 SWAP1 REVERT JUMPDEST CALLVALUE PUSH2 0x1A2 JUMPI PUSH2 0x605 CALLDATASIZE PUSH2 0x13D9 JUMP JUMPDEST PUSH1 0x0 SLOAD PUSH1 0x1 PUSH1 0x1 PUSH1 0xA0 SHL SUB AND SWAP1 CALLER DUP3 EQ ISZERO DUP1 PUSH2 0xBE7 JUMPI JUMPDEST PUSH2 0xBD5 JUMPI PUSH2 0x629 DUP2 PUSH2 0x154D JUMP JUMPDEST SWAP2 PUSH2 0x641 PUSH1 0x20 SWAP4 PUSH2 0x63B DUP6 DUP6 ADD PUSH2 0x1561 JUMP JUMPDEST SWAP1 PUSH2 0x1851 JUMP JUMPDEST PUSH1 0x1 PUSH1 0x1 PUSH1 0xA0 SHL SUB PUSH2 0x652 DUP5 PUSH2 0x154D JUMP JUMPDEST AND PUSH1 0x0 MSTORE PUSH1 0x2 DUP5 MSTORE PUSH1 0xFF PUSH1 0x40 PUSH1 0x0 KECCAK256 SLOAD AND ISZERO PUSH2 0xBC3 JUMPI PUSH1 0x1 PUSH1 0x1 PUSH1 0xA0 SHL SUB PUSH2 0x679 DUP5 PUSH2 0x154D JUMP JUMPDEST AND ISZERO DUP1 PUSH2 0xBB5 JUMPI JUMPDEST PUSH2 0x5E5 JUMPI PUSH1 0x2 PUSH2 0x694 PUSH1 0xC0 DUP6 ADD DUP6 PUSH2 0x156F JUMP JUMPDEST SWAP1 POP LT DUP1 ISZERO PUSH2 0xB9E JUMPI JUMPDEST PUSH2 0xB8C JUMPI PUSH2 0x6BA PUSH2 0x6B3 PUSH2 0x100 DUP6 ADD DUP6 PUSH2 0x180B JUMP JUMPDEST CALLDATASIZE SWAP2 PUSH2 0x1746 JUMP JUMPDEST SWAP1 DUP2 MLOAD DUP1 ISZERO SWAP1 DUP2 ISZERO PUSH2 0xB80 JUMPI JUMPDEST POP PUSH2 0x5E5 JUMPI PUSH1 0x1 PUSH1 0x1 PUSH1 0x40 SHL SUB PUSH2 0x6E1 PUSH2 0x140 DUP7 ADD PUSH2 0x183D JUMP JUMPDEST AND ISZERO PUSH2 0x5E5 JUMPI PUSH2 0x120 DUP5 ADD CALLDATALOAD SWAP1 DUP2 ISZERO PUSH2 0xB2D JUMPI JUMPDEST PUSH15 0x5945535F4F525F4E4F5F5155455259 PUSH1 0x88 SHL DUP3 EQ DUP1 PUSH2 0xB14 JUMPI JUMPDEST PUSH2 0x5E5 JUMPI PUSH1 0x4 SLOAD PUSH1 0x1 PUSH1 0x1 PUSH1 0xA0 SHL SUB AND SWAP4 DUP5 ISZERO PUSH2 0x5E5 JUMPI PUSH2 0x1A0 DUP7 ADD PUSH1 0x1 PUSH1 0x1 PUSH1 0xA0 SHL SUB PUSH2 0x73D DUP3 PUSH2 0x154D JUMP JUMPDEST AND ISZERO PUSH2 0xB01 JUMPI PUSH2 0x74C SWAP1 PUSH2 0x154D JUMP JUMPDEST SWAP2 JUMPDEST PUSH1 0x1 PUSH1 0x1 PUSH1 0xA0 SHL SUB DUP4 AND ISZERO PUSH2 0x5E5 JUMPI TIMESTAMP PUSH1 0x60 DUP9 ADD CALLDATALOAD GT DUP1 ISZERO SWAP1 PUSH2 0xAEF JUMPI JUMPDEST PUSH2 0xADD JUMPI PUSH1 0xA0 DUP8 ADD CALLDATALOAD ISZERO PUSH2 0xACB JUMPI PUSH1 0x7 SLOAD PUSH1 0x1 PUSH1 0x1 PUSH1 0xA0 SHL SUB AND SWAP4 DUP5 ISZERO PUSH2 0xAB9 JUMPI PUSH1 0x3 SLOAD PUSH1 0x1 PUSH1 0x1 PUSH1 0xA0 SHL SUB AND SWAP4 PUSH2 0x7A3 DUP10 PUSH2 0x154D JUMP JUMPDEST SWAP8 PUSH2 0x7B1 PUSH1 0xC0 DUP12 ADD DUP12 PUSH2 0x156F JUMP JUMPDEST SWAP4 SWAP1 POP PUSH2 0x7C1 PUSH2 0x140 DUP13 ADD PUSH2 0x183D JUMP JUMPDEST SWAP2 PUSH2 0x7CF PUSH1 0xC0 DUP14 ADD DUP14 PUSH2 0x156F JUMP JUMPDEST SWAP6 SWAP1 SWAP7 PUSH1 0x40 MLOAD SWAP13 DUP14 SWAP11 DUP12 SWAP11 PUSH4 0x53A4E6D7 PUSH1 0xE0 SHL DUP13 MSTORE PUSH1 0x4 DUP13 ADD MSTORE PUSH1 0x24 DUP12 ADD MSTORE PUSH1 0x1 PUSH1 0xA0 SHL PUSH1 0x1 SWAP1 SUB AND PUSH1 0x44 DUP11 ADD MSTORE PUSH1 0xFF AND PUSH1 0x64 DUP10 ADD MSTORE PUSH1 0xFF AND PUSH1 0x84 DUP9 ADD MSTORE PUSH1 0x40 DUP13 ADD CALLDATALOAD PUSH1 0xA4 DUP9 ADD MSTORE PUSH1 0x60 DUP13 ADD CALLDATALOAD PUSH1 0xC4 DUP9 ADD MSTORE PUSH1 0x80 DUP13 ADD CALLDATALOAD PUSH1 0xE4 DUP9 ADD MSTORE PUSH1 0xA0 DUP13 ADD CALLDATALOAD PUSH2 0x104 DUP9 ADD MSTORE PUSH2 0x124 DUP8 ADD MSTORE PUSH2 0x144 DUP7 ADD MSTORE PUSH1 0x1 PUSH1 0x1 PUSH1 0x40 SHL SUB AND PUSH2 0x164 DUP6 ADD MSTORE PUSH2 0x160 DUP10 ADD CALLDATALOAD PUSH2 0x184 DUP6 ADD MSTORE PUSH2 0x180 DUP10 ADD CALLDATALOAD PUSH2 0x1A4 DUP6 ADD MSTORE PUSH1 0x1 PUSH1 0xA0 SHL PUSH1 0x1 SWAP1 SUB AND PUSH2 0x1C4 DUP5 ADD MSTORE PUSH2 0x1C0 DUP9 ADD CALLDATALOAD PUSH2 0x1E4 DUP5 ADD MSTORE PUSH2 0x204 DUP4 ADD PUSH2 0x220 SWAP1 MSTORE PUSH2 0x224 DUP4 ADD SWAP1 PUSH2 0x89E SWAP3 PUSH2 0x165F JUMP JUMPDEST SUB DUP2 GAS PUSH1 0x0 SWAP5 DUP6 SWAP2 CALL SWAP1 DUP2 ISZERO PUSH2 0xAAD JUMPI PUSH1 0x0 SWAP3 PUSH1 0x0 SWAP3 PUSH2 0xA80 JUMPI JUMPDEST POP PUSH2 0x901 SWAP1 PUSH2 0x8CD PUSH1 0xE0 DUP7 SWAP5 SWAP7 ADD DUP5 PUSH2 0x180B JUMP JUMPDEST SWAP2 PUSH2 0x8FA PUSH1 0x40 MLOAD SWAP3 PUSH2 0x8DE DUP5 PUSH2 0x14FD JUMP JUMPDEST PUSH1 0x0 DUP5 MSTORE PUSH1 0x40 MLOAD SWAP5 PUSH2 0x8EF DUP7 PUSH2 0x14FD JUMP JUMPDEST PUSH1 0x0 DUP7 MSTORE CALLDATASIZE SWAP2 PUSH2 0x1746 JUMP JUMPDEST DUP8 DUP8 PUSH2 0x18F0 JUMP JUMPDEST PUSH2 0x90A DUP2 PUSH2 0x154D JUMP JUMPDEST SWAP3 PUSH2 0x922 PUSH2 0x91B PUSH1 0xC0 DUP5 ADD DUP5 PUSH2 0x156F JUMP JUMPDEST CALLDATASIZE SWAP2 PUSH2 0x178C JUMP JUMPDEST SWAP3 PUSH2 0x92C DUP2 PUSH2 0x1A27 JUMP JUMPDEST PUSH1 0x1 DUP1 PUSH1 0xA0 SHL SUB AND SWAP4 DUP5 SWAP3 DUP4 PUSH1 0x0 MSTORE PUSH1 0x9 DUP8 MSTORE PUSH1 0x40 PUSH1 0x0 KECCAK256 PUSH1 0x1 SWAP1 PUSH1 0x1 PUSH1 0xFF NOT DUP3 SLOAD AND OR SWAP1 SSTORE DUP1 PUSH1 0x0 SWAP1 JUMPDEST PUSH2 0xA2D JUMPI JUMPDEST POP PUSH2 0x972 PUSH1 0x40 MLOAD SWAP5 PUSH1 0xA0 DUP7 MSTORE PUSH1 0xA0 DUP7 ADD SWAP1 PUSH2 0x140B JUMP JUMPDEST SWAP1 DUP5 DUP3 SUB DUP10 DUP7 ADD MSTORE DUP7 MLOAD DUP1 DUP4 MSTORE DUP10 DUP4 ADD SWAP3 DUP11 DUP1 DUP4 PUSH1 0x5 SHL DUP4 ADD ADD SWAP10 ADD SWAP4 PUSH1 0x0 SWAP2 JUMPDEST DUP13 DUP5 DUP5 LT PUSH2 0x9F6 JUMPI DUP11 DUP13 PUSH1 0x1 DUP3 PUSH32 0xB679F8BB353CCC2331BBEB116D31F96FE2836F68DD9CB37D0749EA0B26BE22D6 DUP15 DUP1 DUP16 DUP16 DUP1 PUSH1 0x60 PUSH1 0xA0 SWAP3 ADD CALLDATALOAD PUSH1 0x40 DUP6 ADD MSTORE PUSH1 0x80 DUP2 ADD CALLDATALOAD PUSH1 0x60 DUP6 ADD MSTORE ADD CALLDATALOAD PUSH1 0x80 DUP4 ADD MSTORE DUP6 DUP1 PUSH1 0xA0 SHL SUB AND SWAP6 SUB SWAP1 LOG4 PUSH1 0x40 MLOAD SWAP1 DUP2 MSTORE RETURN JUMPDEST DUP6 SWAP8 SWAP9 SWAP10 SWAP11 POP PUSH2 0xA17 DUP2 SWAP3 SWAP5 SWAP7 SWAP4 SWAP6 SWAP8 SWAP13 PUSH1 0x1F NOT DUP7 DUP3 SUB ADD DUP8 MSTORE DUP14 MLOAD PUSH2 0x18B0 JUMP JUMPDEST SWAP12 ADD SWAP4 ADD SWAP4 ADD SWAP1 SWAP3 DUP11 SWAP9 SWAP8 SWAP7 SWAP6 SWAP4 SWAP5 SWAP3 SWAP5 PUSH2 0x993 JUMP JUMPDEST DUP5 DUP3 SWAP4 SWAP5 SWAP6 SWAP7 POP MLOAD DUP2 LT ISZERO PUSH2 0xA75 JUMPI PUSH1 0x0 DUP9 DUP2 MSTORE PUSH1 0xA DUP11 MSTORE PUSH1 0x40 SWAP1 KECCAK256 DUP3 SWAP2 SWAP1 PUSH2 0xA6A SWAP1 PUSH1 0x1 PUSH1 0x1 PUSH1 0xA0 SHL SUB PUSH2 0xA62 DUP5 DUP12 PUSH2 0x1868 JUMP JUMPDEST MLOAD AND SWAP1 PUSH2 0x1A8B JUMP JUMPDEST ADD DUP8 SWAP6 SWAP5 SWAP4 SWAP3 PUSH2 0x957 JUMP JUMPDEST DUP8 SWAP6 SWAP5 SWAP4 SWAP3 POP PUSH2 0x95C JUMP JUMPDEST PUSH2 0x901 SWAP4 POP PUSH2 0xAA3 SWAP2 SWAP3 POP RETURNDATASIZE DUP1 PUSH1 0x0 DUP4 RETURNDATACOPY PUSH2 0xA9B DUP2 DUP4 PUSH2 0x1518 JUMP JUMPDEST DUP2 ADD SWAP1 PUSH2 0x15CF JUMP JUMPDEST SWAP3 SWAP1 SWAP3 SWAP2 SWAP1 PUSH2 0x8B9 JUMP JUMPDEST PUSH1 0x40 MLOAD RETURNDATASIZE PUSH1 0x0 DUP3 RETURNDATACOPY RETURNDATASIZE SWAP1 REVERT JUMPDEST PUSH1 0x40 MLOAD PUSH4 0x43C669F PUSH1 0xE0 SHL DUP2 MSTORE PUSH1 0x4 SWAP1 REVERT JUMPDEST PUSH1 0x40 MLOAD PUSH4 0x8BB27AF PUSH1 0xE4 SHL DUP2 MSTORE PUSH1 0x4 SWAP1 REVERT JUMPDEST PUSH1 0x40 MLOAD PUSH4 0x37BF5613 PUSH1 0xE1 SHL DUP2 MSTORE PUSH1 0x4 SWAP1 REVERT JUMPDEST POP PUSH1 0x60 DUP8 ADD CALLDATALOAD PUSH1 0x80 DUP9 ADD CALLDATALOAD GT ISZERO PUSH2 0x76C JUMP JUMPDEST POP PUSH1 0x5 SLOAD PUSH1 0x1 PUSH1 0x1 PUSH1 0xA0 SHL SUB AND SWAP2 PUSH2 0x74E JUMP JUMPDEST POP PUSH1 0x2 PUSH2 0xB24 PUSH1 0xC0 DUP8 ADD DUP8 PUSH2 0x156F JUMP JUMPDEST SWAP1 POP EQ ISZERO PUSH2 0x710 JUMP JUMPDEST SWAP1 POP PUSH1 0x2 PUSH2 0xB3E PUSH1 0xC0 DUP7 ADD DUP7 PUSH2 0x156F JUMP JUMPDEST SWAP1 POP EQ PUSH1 0x0 EQ PUSH2 0xB62 JUMPI PUSH15 0x5945535F4F525F4E4F5F5155455259 PUSH1 0x88 SHL JUMPDEST SWAP1 PUSH2 0x6F5 JUMP JUMPDEST PUSH21 0x4D554C5449504C455F43484F4943455F5155455259 PUSH1 0x58 SHL PUSH2 0xB5C JUMP JUMPDEST PUSH2 0x2000 SWAP2 POP GT DUP7 PUSH2 0x6C7 JUMP JUMPDEST PUSH1 0x40 MLOAD PUSH4 0x67D635E1 PUSH1 0xE0 SHL DUP2 MSTORE PUSH1 0x4 SWAP1 REVERT JUMPDEST POP DUP4 PUSH2 0xBAD PUSH1 0xC0 DUP6 ADD DUP6 PUSH2 0x156F JUMP JUMPDEST SWAP1 POP GT PUSH2 0x69E JUMP JUMPDEST POP PUSH1 0x12 PUSH1 0xFF DUP3 AND EQ ISZERO PUSH2 0x681 JUMP JUMPDEST PUSH1 0x40 MLOAD PUSH4 0x68F7A675 PUSH1 0xE1 SHL DUP2 MSTORE PUSH1 0x4 SWAP1 REVERT JUMPDEST PUSH1 0x40 MLOAD PUSH4 0x93687C0B PUSH1 0xE0 SHL DUP2 MSTORE PUSH1 0x4 SWAP1 REVERT JUMPDEST POP PUSH1 0x6 SLOAD PUSH1 0x1 PUSH1 0x1 PUSH1 0xA0 SHL SUB AND CALLER EQ ISZERO PUSH2 0x61C JUMP JUMPDEST CALLVALUE PUSH2 0x1A2 JUMPI PUSH1 0x0 CALLDATASIZE PUSH1 0x3 NOT ADD SLT PUSH2 0x1A2 JUMPI PUSH1 0x3 SLOAD PUSH1 0x40 MLOAD PUSH1 0x1 PUSH1 0x1 PUSH1 0xA0 SHL SUB SWAP1 SWAP2 AND DUP2 MSTORE PUSH1 0x20 SWAP1 RETURN JUMPDEST CALLVALUE PUSH2 0x1A2 JUMPI PUSH1 0x20 CALLDATASIZE PUSH1 0x3 NOT ADD SLT PUSH2 0x1A2 JUMPI PUSH2 0xC3E PUSH2 0x13C3 JUMP JUMPDEST PUSH2 0xC46 PUSH2 0x1539 JUMP JUMPDEST PUSH1 0x1 PUSH1 0x1 PUSH1 0xA0 SHL SUB AND DUP1 ISZERO PUSH2 0x239 JUMPI PUSH1 0x5 DUP1 SLOAD PUSH1 0x1 PUSH1 0x1 PUSH1 0xA0 SHL SUB NOT AND DUP3 OR SWAP1 SSTORE PUSH32 0x523E520D3E5099D5B5EF94A4279B3B62D1F69AFA84AB6D0AE03287A7A67C68F2 PUSH1 0x0 DUP1 LOG2 STOP JUMPDEST CALLVALUE PUSH2 0x1A2 JUMPI PUSH1 0x20 CALLDATASIZE PUSH1 0x3 NOT ADD SLT PUSH2 0x1A2 JUMPI PUSH1 0x1 PUSH1 0x1 PUSH1 0xA0 SHL SUB PUSH2 0xCAF PUSH2 0x13C3 JUMP JUMPDEST AND PUSH1 0x0 MSTORE PUSH1 0x2 PUSH1 0x20 MSTORE PUSH1 0x20 PUSH1 0xFF PUSH1 0x40 PUSH1 0x0 KECCAK256 SLOAD AND PUSH1 0x40 MLOAD SWAP1 ISZERO ISZERO DUP2 MSTORE RETURN JUMPDEST CALLVALUE PUSH2 0x1A2 JUMPI PUSH1 0x20 DUP1 PUSH1 0x3 NOT CALLDATASIZE ADD SLT PUSH2 0x1A2 JUMPI PUSH1 0x1 PUSH1 0x1 PUSH1 0xA0 SHL SUB SWAP1 DUP2 PUSH2 0xCF1 PUSH2 0x13C3 JUMP JUMPDEST AND PUSH1 0x0 MSTORE PUSH1 0xA DUP2 MSTORE PUSH1 0x40 PUSH1 0x0 KECCAK256 SWAP2 PUSH1 0x40 MLOAD DUP1 SWAP4 DUP5 SWAP2 DUP5 DUP3 SLOAD SWAP2 DUP3 DUP2 MSTORE ADD SWAP2 PUSH1 0x0 MSTORE DUP5 PUSH1 0x0 KECCAK256 SWAP4 PUSH1 0x0 SWAP1 JUMPDEST DUP7 DUP4 DUP4 LT PUSH2 0xD49 JUMPI DUP6 SWAP1 PUSH2 0xD31 DUP3 DUP8 SUB DUP4 PUSH2 0x1518 JUMP JUMPDEST PUSH2 0xD45 PUSH1 0x40 MLOAD SWAP3 DUP3 DUP5 SWAP4 DUP5 MSTORE DUP4 ADD SWAP1 PUSH2 0x140B JUMP JUMPDEST SUB SWAP1 RETURN JUMPDEST DUP7 SLOAD DUP3 AND DUP6 MSTORE PUSH1 0x1 SWAP7 DUP8 ADD SWAP7 DUP10 SWAP7 POP SWAP5 ADD SWAP4 SWAP2 SWAP1 SWAP2 ADD SWAP1 PUSH2 0xD1B JUMP JUMPDEST CALLVALUE PUSH2 0x1A2 JUMPI PUSH1 0x20 CALLDATASIZE PUSH1 0x3 NOT ADD SLT PUSH2 0x1A2 JUMPI PUSH2 0xD7E PUSH2 0x13C3 JUMP JUMPDEST PUSH2 0xD86 PUSH2 0x1539 JUMP JUMPDEST PUSH1 0x6 DUP1 SLOAD PUSH1 0x1 PUSH1 0x1 PUSH1 0xA0 SHL SUB NOT AND PUSH1 0x1 PUSH1 0x1 PUSH1 0xA0 SHL SUB SWAP3 SWAP1 SWAP3 AND SWAP2 SWAP1 SWAP2 OR SWAP1 SSTORE STOP JUMPDEST CALLVALUE PUSH2 0x1A2 JUMPI PUSH2 0xDB6 CALLDATASIZE PUSH2 0x13D9 JUMP JUMPDEST PUSH1 0x0 SLOAD PUSH1 0x1 PUSH1 0x1 PUSH1 0xA0 SHL SUB AND SWAP1 CALLER DUP3 EQ ISZERO DUP1 PUSH2 0x12C9 JUMPI JUMPDEST PUSH2 0xBD5 JUMPI PUSH2 0xDE9 PUSH2 0xDDD DUP3 PUSH2 0x154D JUMP JUMPDEST PUSH2 0x63B PUSH1 0x20 DUP5 ADD PUSH2 0x1561 JUMP JUMPDEST SWAP2 PUSH1 0x1 PUSH1 0x1 PUSH1 0xA0 SHL SUB PUSH2 0xDFB DUP4 PUSH2 0x154D JUMP JUMPDEST AND PUSH1 0x0 MSTORE PUSH1 0x2 PUSH1 0x20 MSTORE PUSH1 0xFF PUSH1 0x40 PUSH1 0x0 KECCAK256 SLOAD AND ISZERO PUSH2 0xBC3 JUMPI PUSH1 0x1 PUSH1 0x1 PUSH1 0xA0 SHL SUB PUSH2 0xE23 DUP4 PUSH2 0x154D JUMP JUMPDEST AND ISZERO DUP1 PUSH2 0x12BB JUMPI JUMPDEST PUSH2 0x5E5 JUMPI PUSH1 0x2 PUSH2 0xE3E PUSH1 0xC0 DUP5 ADD DUP5 PUSH2 0x156F JUMP JUMPDEST SWAP1 POP LT DUP1 ISZERO PUSH2 0x12A3 JUMPI JUMPDEST PUSH2 0xB8C JUMPI PUSH1 0xE0 DUP3 ADD PUSH1 0x1 PUSH1 0x1 PUSH1 0xA0 SHL SUB PUSH2 0xE61 DUP3 PUSH2 0x154D JUMP JUMPDEST AND ISZERO PUSH2 0x1291 JUMPI PUSH2 0x160 DUP4 ADD CALLDATALOAD ISZERO PUSH2 0x5E5 JUMPI TIMESTAMP PUSH1 0x60 DUP5 ADD CALLDATALOAD GT DUP1 ISZERO SWAP1 PUSH2 0x127F JUMPI JUMPDEST PUSH2 0xADD JUMPI PUSH1 0xA0 DUP4 ADD CALLDATALOAD ISZERO PUSH2 0xACB JUMPI PUSH2 0xE9D PUSH2 0x180 DUP5 ADD DUP5 PUSH2 0x156F JUMP JUMPDEST ISZERO SWAP1 POP PUSH2 0x1230 JUMPI PUSH2 0xEB2 PUSH2 0x180 DUP5 ADD DUP5 PUSH2 0x156F JUMP JUMPDEST SWAP1 POP PUSH2 0xEC1 PUSH1 0xC0 DUP6 ADD DUP6 PUSH2 0x156F JUMP JUMPDEST SWAP2 SWAP1 POP EQ DUP1 ISZERO SWAP1 PUSH2 0x1208 JUMPI JUMPDEST PUSH2 0x11F6 JUMPI JUMPDEST PUSH1 0x7 SLOAD PUSH1 0x1 PUSH1 0x1 PUSH1 0xA0 SHL SUB AND DUP1 ISZERO PUSH2 0xAB9 JUMPI PUSH1 0x3 SLOAD PUSH1 0x1 PUSH1 0x1 PUSH1 0xA0 SHL SUB AND PUSH2 0xEF9 DUP6 PUSH2 0x154D JUMP JUMPDEST SWAP3 PUSH2 0xF12 PUSH2 0xF0A PUSH1 0xC0 DUP9 ADD DUP9 PUSH2 0x156F JUMP JUMPDEST SWAP3 SWAP1 POP PUSH2 0x154D JUMP JUMPDEST SWAP5 PUSH1 0x3 PUSH2 0x120 DUP9 ADD CALLDATALOAD LT ISZERO PUSH2 0x1A2 JUMPI PUSH2 0xFFB PUSH1 0x0 SWAP7 SWAP3 PUSH1 0xFF DUP9 SWAP5 PUSH2 0xF39 PUSH1 0xC0 DUP13 ADD DUP13 PUSH2 0x156F JUMP JUMPDEST SWAP3 SWAP1 SWAP4 DUP2 PUSH1 0x40 MLOAD SWAP15 DUP16 SWAP13 DUP14 SWAP12 DUP13 SWAP11 PUSH4 0x624A59D3 PUSH1 0xE1 SHL DUP13 MSTORE PUSH1 0x4 DUP13 ADD MSTORE PUSH1 0x24 DUP12 ADD MSTORE PUSH1 0x1 DUP1 PUSH1 0xA0 SHL SUB AND PUSH1 0x44 DUP11 ADD MSTORE AND PUSH1 0x64 DUP9 ADD MSTORE AND PUSH1 0x84 DUP7 ADD MSTORE PUSH1 0x40 DUP12 ADD CALLDATALOAD PUSH1 0xA4 DUP7 ADD MSTORE PUSH1 0x60 DUP12 ADD CALLDATALOAD PUSH1 0xC4 DUP7 ADD MSTORE PUSH1 0x80 DUP12 ADD CALLDATALOAD PUSH1 0xE4 DUP7 ADD MSTORE PUSH1 0xA0 DUP12 ADD CALLDATALOAD PUSH2 0x104 DUP7 ADD MSTORE PUSH1 0x1 DUP1 PUSH1 0xA0 SHL SUB AND PUSH2 0x124 DUP6 ADD MSTORE PUSH2 0x100 DUP11 ADD CALLDATALOAD PUSH2 0x144 DUP6 ADD MSTORE PUSH2 0x120 DUP11 ADD CALLDATALOAD PUSH2 0x164 DUP6 ADD MSTORE PUSH2 0x140 DUP11 ADD CALLDATALOAD PUSH2 0x184 DUP6 ADD MSTORE PUSH2 0x160 DUP11 ADD CALLDATALOAD PUSH2 0x1A4 DUP6 ADD MSTORE PUSH2 0x1C0 DUP11 ADD CALLDATALOAD PUSH2 0x1C4 DUP6 ADD MSTORE PUSH2 0x200 PUSH2 0x1E4 DUP6 ADD MSTORE PUSH2 0x204 DUP5 ADD SWAP2 PUSH2 0x165F JUMP JUMPDEST SUB SWAP3 GAS CALL DUP1 ISZERO PUSH2 0xAAD JUMPI PUSH1 0x0 SWAP3 PUSH1 0x0 SWAP2 PUSH2 0x11D5 JUMPI JUMPDEST POP PUSH2 0x1073 PUSH2 0x106B PUSH2 0x1063 PUSH1 0x40 MLOAD PUSH2 0x1026 DUP2 PUSH2 0x14FD JUMP JUMPDEST PUSH1 0x0 DUP2 MSTORE PUSH2 0x1038 PUSH2 0x180 DUP8 ADD DUP8 PUSH2 0x156F JUMP JUMPDEST SWAP4 SWAP1 PUSH2 0x1048 PUSH2 0x1A0 DUP10 ADD DUP10 PUSH2 0x156F JUMP JUMPDEST SWAP5 SWAP1 SWAP2 PUSH1 0x40 MLOAD SWAP7 PUSH2 0x1058 DUP9 PUSH2 0x14FD JUMP JUMPDEST PUSH1 0x0 DUP9 MSTORE CALLDATASIZE SWAP2 PUSH2 0x16F8 JUMP JUMPDEST SWAP4 CALLDATASIZE SWAP2 PUSH2 0x16F8 JUMP JUMPDEST SWAP3 DUP6 DUP9 PUSH2 0x18F0 JUMP JUMPDEST PUSH2 0x107C DUP3 PUSH2 0x154D JUMP JUMPDEST PUSH2 0x108C PUSH2 0x91B PUSH1 0xC0 DUP6 ADD DUP6 PUSH2 0x156F JUMP JUMPDEST SWAP1 PUSH2 0x1096 DUP6 PUSH2 0x1A27 JUMP JUMPDEST PUSH1 0x1 PUSH1 0x1 PUSH1 0xA0 SHL SUB DUP6 AND PUSH1 0x0 SWAP1 DUP2 MSTORE PUSH1 0x9 PUSH1 0x20 MSTORE PUSH1 0x40 DUP2 KECCAK256 DUP1 SLOAD PUSH1 0xFF NOT AND PUSH1 0x1 OR SWAP1 SSTORE JUMPDEST DUP4 MLOAD DUP2 LT ISZERO PUSH2 0x10F5 JUMPI PUSH1 0x1 PUSH1 0x1 PUSH1 0xA0 SHL SUB DUP7 DUP2 AND PUSH1 0x0 SWAP1 DUP2 MSTORE PUSH1 0xA PUSH1 0x20 MSTORE PUSH1 0x40 SWAP1 KECCAK256 PUSH1 0x1 SWAP3 SWAP2 PUSH2 0x10EF SWAP2 SWAP1 PUSH2 0xA62 DUP5 DUP10 PUSH2 0x1868 JUMP JUMPDEST ADD PUSH2 0x10BA JUMP JUMPDEST POP SWAP1 SWAP4 SWAP3 PUSH2 0x110E PUSH1 0x40 MLOAD SWAP4 PUSH1 0xA0 DUP6 MSTORE PUSH1 0xA0 DUP6 ADD SWAP1 PUSH2 0x140B JUMP JUMPDEST DUP4 DUP2 SUB PUSH1 0x20 DUP6 ADD MSTORE DUP6 MLOAD DUP1 DUP3 MSTORE PUSH1 0x20 DUP3 ADD SWAP2 PUSH1 0x20 DUP1 DUP4 PUSH1 0x5 SHL DUP4 ADD ADD SWAP9 ADD SWAP3 PUSH1 0x0 SWAP2 JUMPDEST DUP4 DUP4 LT PUSH2 0x11A8 JUMPI PUSH1 0x20 DUP10 DUP10 PUSH1 0x0 DUP14 PUSH32 0xB679F8BB353CCC2331BBEB116D31F96FE2836F68DD9CB37D0749EA0B26BE22D6 DUP13 PUSH1 0xA0 DUP14 PUSH1 0x60 DUP2 ADD CALLDATALOAD PUSH1 0x40 DUP9 ADD MSTORE PUSH1 0x80 DUP2 ADD CALLDATALOAD PUSH1 0x60 DUP9 ADD MSTORE ADD CALLDATALOAD PUSH1 0x80 DUP7 ADD MSTORE PUSH1 0x1 DUP1 PUSH1 0xA0 SHL SUB AND SWAP4 DUP1 PUSH1 0x1 DUP1 PUSH1 0xA0 SHL SUB DUP8 AND SWAP4 SUB SWAP1 LOG4 PUSH1 0x40 MLOAD PUSH1 0x1 PUSH1 0x1 PUSH1 0xA0 SHL SUB SWAP1 SWAP2 AND DUP2 MSTORE RETURN JUMPDEST SWAP1 SWAP2 SWAP3 SWAP4 SWAP9 PUSH1 0x20 DUP1 PUSH2 0x11C6 PUSH1 0x1 SWAP4 PUSH1 0x1F NOT DUP7 DUP3 SUB ADD DUP8 MSTORE DUP14 MLOAD PUSH2 0x18B0 JUMP JUMPDEST SWAP12 ADD SWAP4 ADD SWAP4 ADD SWAP2 SWAP4 SWAP3 SWAP1 PUSH2 0x1131 JUMP JUMPDEST SWAP1 POP PUSH2 0x11ED SWAP2 SWAP3 POP RETURNDATASIZE DUP1 PUSH1 0x0 DUP4 RETURNDATACOPY PUSH2 0xA9B DUP2 DUP4 PUSH2 0x1518 JUMP JUMPDEST SWAP2 SWAP1 SWAP2 DUP4 PUSH2 0x1010 JUMP JUMPDEST PUSH1 0x40 MLOAD PUSH4 0xB2D4ECEB PUSH1 0xE0 SHL DUP2 MSTORE PUSH1 0x4 SWAP1 REVERT JUMPDEST POP PUSH2 0x1217 PUSH2 0x1A0 DUP5 ADD DUP5 PUSH2 0x156F JUMP JUMPDEST SWAP1 POP PUSH2 0x1226 PUSH1 0xC0 DUP6 ADD DUP6 PUSH2 0x156F JUMP JUMPDEST SWAP2 SWAP1 POP EQ ISZERO PUSH2 0xECD JUMP JUMPDEST PUSH1 0x2 PUSH2 0x123F PUSH1 0xC0 DUP6 ADD DUP6 PUSH2 0x156F JUMP JUMPDEST SWAP1 POP SUB PUSH2 0x11F6 JUMPI PUSH2 0x120 DUP4 ADD CALLDATALOAD PUSH1 0x3 DUP2 LT ISZERO PUSH2 0x1A2 JUMPI PUSH1 0x2 SUB PUSH2 0xED2 JUMPI PUSH2 0x140 DUP4 ADD CALLDATALOAD PUSH2 0x100 DUP5 ADD CALLDATALOAD LT PUSH2 0xED2 JUMPI PUSH1 0x40 MLOAD PUSH4 0x6B7C759 PUSH1 0xE3 SHL DUP2 MSTORE PUSH1 0x4 SWAP1 REVERT JUMPDEST POP PUSH1 0x60 DUP4 ADD CALLDATALOAD PUSH1 0x80 DUP5 ADD CALLDATALOAD GT ISZERO PUSH2 0xE81 JUMP JUMPDEST PUSH1 0x40 MLOAD PUSH4 0x1F86E17 PUSH1 0xE4 SHL DUP2 MSTORE PUSH1 0x4 SWAP1 REVERT JUMPDEST POP PUSH1 0x20 PUSH2 0x12B3 PUSH1 0xC0 DUP5 ADD DUP5 PUSH2 0x156F JUMP JUMPDEST SWAP1 POP GT PUSH2 0xE48 JUMP JUMPDEST POP PUSH1 0x12 PUSH1 0xFF DUP5 AND EQ ISZERO PUSH2 0xE2B JUMP JUMPDEST POP PUSH1 0x6 SLOAD PUSH1 0x1 PUSH1 0x1 PUSH1 0xA0 SHL SUB AND CALLER EQ ISZERO PUSH2 0xDCD JUMP JUMPDEST CALLVALUE PUSH2 0x1A2 JUMPI PUSH1 0x20 CALLDATASIZE PUSH1 0x3 NOT ADD SLT PUSH2 0x1A2 JUMPI PUSH2 0x12F7 PUSH2 0x13C3 JUMP JUMPDEST PUSH2 0x12FF PUSH2 0x1539 JUMP JUMPDEST PUSH1 0x1 PUSH1 0x1 PUSH1 0xA0 SHL SUB AND PUSH1 0x0 DUP2 DUP2 MSTORE PUSH1 0x2 PUSH1 0x20 MSTORE PUSH1 0x40 SWAP1 KECCAK256 SLOAD PUSH1 0xFF AND ISZERO PUSH2 0x5E5 JUMPI DUP1 PUSH1 0x0 MSTORE PUSH1 0x2 PUSH1 0x20 MSTORE PUSH1 0x40 PUSH1 0x0 KECCAK256 PUSH1 0xFF NOT DUP2 SLOAD AND SWAP1 SSTORE PUSH32 0xFFBE34CFA1831023FD1E8602FC452DFA0E07B531DD9197A3FAC11258AA17E75 PUSH1 0x0 DUP1 LOG2 STOP JUMPDEST CALLVALUE PUSH2 0x1A2 JUMPI PUSH1 0x40 CALLDATASIZE PUSH1 0x3 NOT ADD SLT PUSH2 0x1A2 JUMPI PUSH2 0x1375 PUSH2 0x13C3 JUMP JUMPDEST PUSH1 0x24 CALLDATALOAD SWAP1 PUSH1 0x1 PUSH1 0x1 PUSH1 0xA0 SHL SUB DUP3 AND DUP3 SUB PUSH2 0x1A2 JUMPI PUSH1 0x20 SWAP2 PUSH2 0x1395 SWAP2 PUSH2 0x1476 JUMP JUMPDEST PUSH1 0x40 MLOAD SWAP1 ISZERO ISZERO DUP2 MSTORE RETURN JUMPDEST CALLVALUE PUSH2 0x1A2 JUMPI PUSH1 0x0 CALLDATASIZE PUSH1 0x3 NOT ADD SLT PUSH2 0x1A2 JUMPI PUSH1 0x4 SLOAD PUSH1 0x1 PUSH1 0x1 PUSH1 0xA0 SHL SUB AND DUP2 MSTORE PUSH1 0x20 SWAP1 RETURN JUMPDEST PUSH1 0x4 CALLDATALOAD SWAP1 PUSH1 0x1 PUSH1 0x1 PUSH1 0xA0 SHL SUB DUP3 AND DUP3 SUB PUSH2 0x1A2 JUMPI JUMP JUMPDEST PUSH1 0x3 NOT SWAP1 PUSH1 0x20 DUP2 DUP4 ADD SLT PUSH2 0x1A2 JUMPI PUSH1 0x4 CALLDATALOAD SWAP2 PUSH1 0x1 PUSH1 0x1 PUSH1 0x40 SHL SUB DUP4 GT PUSH2 0x1A2 JUMPI DUP3 PUSH2 0x1E0 SWAP3 SUB ADD SLT PUSH2 0x1A2 JUMPI PUSH1 0x4 ADD SWAP1 JUMP JUMPDEST SWAP1 DUP2 MLOAD DUP1 DUP3 MSTORE PUSH1 0x20 DUP1 DUP1 SWAP4 ADD SWAP4 ADD SWAP2 PUSH1 0x0 JUMPDEST DUP3 DUP2 LT PUSH2 0x142B JUMPI POP POP POP POP SWAP1 JUMP JUMPDEST DUP4 MLOAD PUSH1 0x1 PUSH1 0x1 PUSH1 0xA0 SHL SUB AND DUP6 MSTORE SWAP4 DUP2 ADD SWAP4 SWAP3 DUP2 ADD SWAP3 PUSH1 0x1 ADD PUSH2 0x141D JUMP JUMPDEST DUP1 SLOAD DUP3 LT ISZERO PUSH2 0x1460 JUMPI PUSH1 0x0 MSTORE PUSH1 0x20 PUSH1 0x0 KECCAK256 ADD SWAP1 PUSH1 0x0 SWAP1 JUMP JUMPDEST PUSH4 0x4E487B71 PUSH1 0xE0 SHL PUSH1 0x0 MSTORE PUSH1 0x32 PUSH1 0x4 MSTORE PUSH1 0x24 PUSH1 0x0 REVERT JUMPDEST PUSH1 0x1 PUSH1 0x1 PUSH1 0xA0 SHL SUB SWAP1 DUP2 AND PUSH1 0x0 SWAP1 DUP2 MSTORE PUSH1 0xA PUSH1 0x20 MSTORE PUSH1 0x40 DUP2 KECCAK256 DUP1 SLOAD SWAP4 SWAP1 SWAP2 JUMPDEST DUP5 DUP2 LT PUSH2 0x14A6 JUMPI POP POP POP POP POP PUSH1 0x0 SWAP1 JUMP JUMPDEST DUP4 PUSH2 0x14B1 DUP3 DUP6 PUSH2 0x1448 JUMP JUMPDEST SWAP2 SWAP1 SLOAD DUP2 DUP6 AND SWAP3 PUSH1 0x3 SHL SHR AND EQ PUSH2 0x14CA JUMPI PUSH1 0x1 ADD PUSH2 0x1495 JUMP JUMPDEST POP POP POP POP POP PUSH1 0x1 SWAP1 JUMP JUMPDEST PUSH1 0x1 PUSH1 0x1 PUSH1 0x40 SHL SUB DUP2 GT PUSH2 0x14E7 JUMPI PUSH1 0x40 MSTORE JUMP JUMPDEST PUSH4 0x4E487B71 PUSH1 0xE0 SHL PUSH1 0x0 MSTORE PUSH1 0x41 PUSH1 0x4 MSTORE PUSH1 0x24 PUSH1 0x0 REVERT JUMPDEST PUSH1 0x20 DUP2 ADD SWAP1 DUP2 LT PUSH1 0x1 PUSH1 0x1 PUSH1 0x40 SHL SUB DUP3 GT OR PUSH2 0x14E7 JUMPI PUSH1 0x40 MSTORE JUMP JUMPDEST SWAP1 PUSH1 0x1F DUP1 NOT SWAP2 ADD AND DUP2 ADD SWAP1 DUP2 LT PUSH1 0x1 PUSH1 0x1 PUSH1 0x40 SHL SUB DUP3 GT OR PUSH2 0x14E7 JUMPI PUSH1 0x40 MSTORE JUMP JUMPDEST PUSH1 0x0 SLOAD PUSH1 0x1 PUSH1 0x1 PUSH1 0xA0 SHL SUB AND CALLER SUB PUSH2 0x480 JUMPI JUMP JUMPDEST CALLDATALOAD PUSH1 0x1 PUSH1 0x1 PUSH1 0xA0 SHL SUB DUP2 AND DUP2 SUB PUSH2 0x1A2 JUMPI SWAP1 JUMP JUMPDEST CALLDATALOAD PUSH1 0xFF DUP2 AND DUP2 SUB PUSH2 0x1A2 JUMPI SWAP1 JUMP JUMPDEST SWAP1 CALLDATALOAD SWAP1 PUSH1 0x1E NOT DUP2 CALLDATASIZE SUB ADD DUP3 SLT ISZERO PUSH2 0x1A2 JUMPI ADD DUP1 CALLDATALOAD SWAP1 PUSH1 0x1 PUSH1 0x1 PUSH1 0x40 SHL SUB DUP3 GT PUSH2 0x1A2 JUMPI PUSH1 0x20 ADD SWAP2 DUP2 PUSH1 0x5 SHL CALLDATASIZE SUB DUP4 SGT PUSH2 0x1A2 JUMPI JUMP JUMPDEST MLOAD SWAP1 PUSH1 0x1 PUSH1 0x1 PUSH1 0xA0 SHL SUB DUP3 AND DUP3 SUB PUSH2 0x1A2 JUMPI JUMP JUMPDEST PUSH1 0x1 PUSH1 0x1 PUSH1 0x40 SHL SUB DUP2 GT PUSH2 0x14E7 JUMPI PUSH1 0x5 SHL PUSH1 0x20 ADD SWAP1 JUMP JUMPDEST SWAP2 SWAP1 PUSH1 0x40 DUP4 DUP3 SUB SLT PUSH2 0x1A2 JUMPI PUSH2 0x15E4 DUP4 PUSH2 0x15A4 JUMP JUMPDEST SWAP3 PUSH1 0x20 SWAP1 DUP2 DUP2 ADD MLOAD SWAP1 PUSH1 0x1 PUSH1 0x1 PUSH1 0x40 SHL SUB DUP3 GT PUSH2 0x1A2 JUMPI ADD SWAP2 DUP1 PUSH1 0x1F DUP5 ADD SLT ISZERO PUSH2 0x1A2 JUMPI DUP3 MLOAD PUSH2 0x1613 DUP2 PUSH2 0x15B8 JUMP JUMPDEST SWAP4 PUSH2 0x1621 PUSH1 0x40 MLOAD SWAP6 DUP7 PUSH2 0x1518 JUMP JUMPDEST DUP2 DUP6 MSTORE DUP4 DUP1 DUP7 ADD SWAP3 PUSH1 0x5 SHL DUP3 ADD ADD SWAP3 DUP4 GT PUSH2 0x1A2 JUMPI DUP4 ADD SWAP1 JUMPDEST DUP3 DUP3 LT PUSH2 0x1648 JUMPI POP POP POP POP SWAP1 JUMP JUMPDEST DUP4 DUP1 SWAP2 PUSH2 0x1654 DUP5 PUSH2 0x15A4 JUMP JUMPDEST DUP2 MSTORE ADD SWAP2 ADD SWAP1 PUSH2 0x163A JUMP JUMPDEST DUP2 DUP4 MSTORE PUSH1 0x20 PUSH1 0x5 DUP4 SWAP1 SHL DUP5 ADD DUP2 ADD SWAP4 SWAP2 SWAP3 SWAP1 PUSH1 0x0 DUP2 DUP5 ADD DUP6 JUMPDEST DUP5 DUP4 LT PUSH2 0x1689 JUMPI POP POP POP POP POP POP POP SWAP1 JUMP JUMPDEST SWAP1 SWAP2 SWAP3 SWAP4 SWAP5 SWAP6 SWAP7 PUSH1 0x1F NOT DUP1 DUP9 DUP4 SUB ADD DUP5 MSTORE DUP9 CALLDATALOAD PUSH1 0x1E NOT DUP5 CALLDATASIZE SUB ADD DUP2 SLT ISZERO PUSH2 0x1A2 JUMPI DUP4 ADD DUP7 DUP2 ADD SWAP1 CALLDATALOAD PUSH1 0x1 PUSH1 0x1 PUSH1 0x40 SHL SUB DUP2 GT PUSH2 0x1A2 JUMPI DUP1 CALLDATASIZE SUB DUP3 SGT PUSH2 0x1A2 JUMPI DUP4 DUP9 SWAP4 PUSH1 0x1F DUP4 DUP1 DUP8 SWAP7 DUP8 SWAP7 PUSH1 0x1 SWAP11 MSTORE DUP7 DUP7 ADD CALLDATACOPY PUSH1 0x0 DUP6 DUP3 DUP7 ADD ADD MSTORE ADD AND ADD ADD SWAP10 ADD SWAP4 ADD SWAP4 ADD SWAP2 SWAP6 SWAP5 SWAP4 SWAP3 SWAP1 PUSH2 0x1678 JUMP JUMPDEST SWAP3 SWAP2 PUSH2 0x1703 DUP3 PUSH2 0x15B8 JUMP JUMPDEST SWAP2 PUSH2 0x1711 PUSH1 0x40 MLOAD SWAP4 DUP5 PUSH2 0x1518 JUMP JUMPDEST DUP3 SWAP5 DUP2 DUP5 MSTORE PUSH1 0x20 DUP1 SWAP5 ADD SWAP2 PUSH1 0x5 SHL DUP2 ADD SWAP3 DUP4 GT PUSH2 0x1A2 JUMPI SWAP1 JUMPDEST DUP3 DUP3 LT PUSH2 0x1737 JUMPI POP POP POP POP JUMP JUMPDEST DUP2 CALLDATALOAD DUP2 MSTORE SWAP1 DUP4 ADD SWAP1 DUP4 ADD PUSH2 0x172A JUMP JUMPDEST SWAP3 SWAP2 SWAP3 PUSH1 0x1 PUSH1 0x1 PUSH1 0x40 SHL SUB DUP3 GT PUSH2 0x14E7 JUMPI PUSH1 0x40 MLOAD SWAP2 PUSH2 0x176F PUSH1 0x1F DUP3 ADD PUSH1 0x1F NOT AND PUSH1 0x20 ADD DUP5 PUSH2 0x1518 JUMP JUMPDEST DUP3 SWAP5 DUP2 DUP5 MSTORE DUP2 DUP4 ADD GT PUSH2 0x1A2 JUMPI DUP3 DUP2 PUSH1 0x20 SWAP4 DUP5 PUSH1 0x0 SWAP7 ADD CALLDATACOPY ADD ADD MSTORE JUMP JUMPDEST SWAP3 SWAP2 SWAP1 SWAP3 PUSH2 0x1799 DUP5 PUSH2 0x15B8 JUMP JUMPDEST SWAP2 PUSH2 0x17A7 PUSH1 0x40 MLOAD SWAP4 DUP5 PUSH2 0x1518 JUMP JUMPDEST DUP3 SWAP5 DUP1 DUP5 MSTORE PUSH1 0x20 DUP1 SWAP5 ADD SWAP1 PUSH1 0x5 SHL DUP4 ADD SWAP3 DUP3 DUP5 GT PUSH2 0x1A2 JUMPI DUP1 SWAP2 JUMPDEST DUP5 DUP4 LT PUSH2 0x17D1 JUMPI POP POP POP POP POP POP JUMP JUMPDEST DUP3 CALLDATALOAD PUSH1 0x1 PUSH1 0x1 PUSH1 0x40 SHL SUB DUP2 GT PUSH2 0x1A2 JUMPI DUP3 ADD DUP5 PUSH1 0x1F DUP3 ADD SLT ISZERO PUSH2 0x1A2 JUMPI DUP7 SWAP2 PUSH2 0x1800 DUP7 DUP4 DUP6 DUP1 SWAP6 CALLDATALOAD SWAP2 ADD PUSH2 0x1746 JUMP JUMPDEST DUP2 MSTORE ADD SWAP3 ADD SWAP2 PUSH2 0x17C2 JUMP JUMPDEST SWAP1 CALLDATALOAD SWAP1 PUSH1 0x1E NOT DUP2 CALLDATASIZE SUB ADD DUP3 SLT ISZERO PUSH2 0x1A2 JUMPI ADD DUP1 CALLDATALOAD SWAP1 PUSH1 0x1 PUSH1 0x1 PUSH1 0x40 SHL SUB DUP3 GT PUSH2 0x1A2 JUMPI PUSH1 0x20 ADD SWAP2 DUP2 CALLDATASIZE SUB DUP4 SGT PUSH2 0x1A2 JUMPI JUMP JUMPDEST CALLDATALOAD PUSH1 0x1 PUSH1 0x1 PUSH1 0x40 SHL SUB DUP2 AND DUP2 SUB PUSH2 0x1A2 JUMPI SWAP1 JUMP JUMPDEST PUSH1 0x1 PUSH1 0x1 PUSH1 0xA0 SHL SUB AND ISZERO PUSH2 0x1862 JUMPI SWAP1 JUMP JUMPDEST POP PUSH1 0x12 SWAP1 JUMP JUMPDEST DUP1 MLOAD DUP3 LT ISZERO PUSH2 0x1460 JUMPI PUSH1 0x20 SWAP2 PUSH1 0x5 SHL ADD ADD SWAP1 JUMP JUMPDEST SWAP1 DUP2 MLOAD DUP1 DUP3 MSTORE PUSH1 0x20 DUP1 DUP1 SWAP4 ADD SWAP4 ADD SWAP2 PUSH1 0x0 JUMPDEST DUP3 DUP2 LT PUSH2 0x189C JUMPI POP POP POP POP SWAP1 JUMP JUMPDEST DUP4 MLOAD DUP6 MSTORE SWAP4 DUP2 ADD SWAP4 SWAP3 DUP2 ADD SWAP3 PUSH1 0x1 ADD PUSH2 0x188E JUMP JUMPDEST SWAP2 SWAP1 DUP3 MLOAD SWAP3 DUP4 DUP3 MSTORE PUSH1 0x0 JUMPDEST DUP5 DUP2 LT PUSH2 0x18DC JUMPI POP POP DUP3 PUSH1 0x0 PUSH1 0x20 DUP1 SWAP5 SWAP6 DUP5 ADD ADD MSTORE PUSH1 0x1F DUP1 NOT SWAP2 ADD AND ADD ADD SWAP1 JUMP JUMPDEST PUSH1 0x20 DUP2 DUP4 ADD DUP2 ADD MLOAD DUP5 DUP4 ADD DUP3 ADD MSTORE ADD PUSH2 0x18BB JUMP JUMPDEST SWAP6 SWAP3 SWAP5 SWAP2 SWAP1 SWAP4 SWAP5 PUSH1 0x0 JUMPDEST DUP6 MLOAD DUP2 LT ISZERO PUSH2 0x1974 JUMPI PUSH1 0x1 PUSH1 0x1 PUSH1 0xA0 SHL SUB DUP1 PUSH2 0x1916 DUP4 DUP10 PUSH2 0x1868 JUMP JUMPDEST MLOAD AND SWAP1 DUP2 EXTCODESIZE ISZERO PUSH2 0x1A2 JUMPI PUSH1 0x0 PUSH1 0x40 SWAP2 PUSH1 0x24 DUP13 DUP4 DUP6 MLOAD SWAP7 DUP8 SWAP5 DUP6 SWAP4 PUSH4 0xF2FDE38B PUSH1 0xE0 SHL DUP6 MSTORE AND PUSH1 0x4 DUP5 ADD MSTORE GAS CALL SWAP1 DUP2 ISZERO PUSH2 0x196A JUMPI POP SWAP1 PUSH1 0x1 SWAP3 SWAP2 PUSH2 0x195B JUMPI JUMPDEST POP ADD PUSH2 0x18FA JUMP JUMPDEST PUSH2 0x1964 SWAP1 PUSH2 0x14D4 JUMP JUMPDEST CODESIZE PUSH2 0x1954 JUMP JUMPDEST MLOAD RETURNDATASIZE PUSH1 0x0 DUP3 RETURNDATACOPY RETURNDATASIZE SWAP1 REVERT JUMPDEST POP SWAP3 SWAP6 SWAP2 SWAP5 SWAP1 SWAP3 PUSH1 0x1 PUSH1 0x1 PUSH1 0xA0 SHL SUB SWAP1 SWAP3 AND SWAP2 DUP3 EXTCODESIZE ISZERO PUSH2 0x1A2 JUMPI PUSH1 0x0 SWAP5 PUSH2 0x1A0B PUSH2 0x19C9 SWAP4 DUP8 SWAP4 PUSH2 0x19FC PUSH2 0x19DC SWAP9 PUSH2 0x19EC PUSH1 0x40 MLOAD SWAP13 DUP14 SWAP12 DUP13 SWAP11 DUP12 SWAP10 PUSH4 0xCC3E02FF PUSH1 0xE0 SHL DUP12 MSTORE PUSH1 0xA0 PUSH1 0x4 DUP13 ADD MSTORE PUSH1 0xA4 DUP12 ADD SWAP1 PUSH2 0x140B JUMP JUMPDEST PUSH1 0x3 NOT SWAP8 DUP9 DUP12 DUP4 SUB ADD PUSH1 0x24 DUP13 ADD MSTORE PUSH2 0x187C JUMP JUMPDEST SWAP1 DUP7 DUP10 DUP4 SUB ADD PUSH1 0x44 DUP11 ADD MSTORE PUSH2 0x187C JUMP JUMPDEST SWAP1 DUP5 DUP8 DUP4 SUB ADD PUSH1 0x64 DUP9 ADD MSTORE PUSH2 0x18B0 JUMP JUMPDEST SWAP2 DUP5 DUP4 SUB ADD PUSH1 0x84 DUP6 ADD MSTORE PUSH2 0x18B0 JUMP JUMPDEST SUB SWAP3 GAS CALL DUP1 ISZERO PUSH2 0xAAD JUMPI PUSH2 0x1A1C JUMPI POP JUMP JUMPDEST PUSH2 0x1A25 SWAP1 PUSH2 0x14D4 JUMP JUMPDEST JUMP JUMPDEST PUSH1 0x8 SLOAD PUSH1 0x1 PUSH1 0x40 SHL DUP2 LT ISZERO PUSH2 0x14E7 JUMPI PUSH1 0x1 DUP2 ADD DUP1 PUSH1 0x8 SSTORE DUP2 LT ISZERO PUSH2 0x1460 JUMPI PUSH1 0x8 PUSH1 0x0 MSTORE PUSH32 0xF3F7A9FE364FAAB93B216DA50A3214154F22A0A2B415B23A84C8169E8B636EE3 ADD DUP1 SLOAD PUSH1 0x1 PUSH1 0x1 PUSH1 0xA0 SHL SUB NOT AND PUSH1 0x1 PUSH1 0x1 PUSH1 0xA0 SHL SUB SWAP1 SWAP3 AND SWAP2 SWAP1 SWAP2 OR SWAP1 SSTORE JUMP JUMPDEST DUP1 SLOAD PUSH1 0x1 PUSH1 0x40 SHL DUP2 LT ISZERO PUSH2 0x14E7 JUMPI PUSH2 0x1AA8 SWAP2 PUSH1 0x1 DUP3 ADD DUP2 SSTORE PUSH2 0x1448 JUMP JUMPDEST PUSH1 0x1 DUP1 PUSH1 0xA0 SWAP5 SWAP4 SWAP5 SHL SUB DUP1 DUP5 SLOAD SWAP3 PUSH1 0x3 SHL SWAP4 AND DUP4 SHL SWAP3 SHL NOT AND OR SWAP1 SSTORE JUMP INVALID LOG2 PUSH5 0x6970667358 0x22 SLT KECCAK256 PUSH16 0x5C4173D661C50582E10B441FEF507DFD PUSH17 0x226AD10F5FD3A499A9BA389A0D9D64736F PUSH13 0x63430008180033000000000000 "},"methodIdentifiers":{"acceptOwnership()":"79ba5097","addSupportedCollateral(address)":"536db2e6","batchExecutor()":"5e6607ff","createEventMarket((address,uint8,uint256,uint256,uint256,bytes32,string[],string,string,bytes32,uint64,uint256,uint256,address,uint256))":"51e84b84","createPriceMarket((address,uint8,uint256,uint256,uint256,bytes32,string[],address,uint256,uint8,uint256,uint256,uint256[],uint256[],uint256))":"1cba0d29","feeRecipient()":"46904840","getMarketOutcomeTokens(address)":"1f470b2d","isMarket(address)":"6ec934da","isOutcomeTokenForMarket(address,address)":"17dbc538","isSupportedCollateral(address)":"39f4c4da","marketDeployer()":"bb1e4531","markets(uint256)":"b1283e77","marketsLength()":"a5402544","optimisticOracleV2()":"0d2af8d3","owner()":"8da5cb5b","pendingOwner()":"e30c3978","removeSupportedCollateral(address)":"1800d79f","renounceOwnership()":"715018a6","setBatchExecutor(address)":"1d555306","setFeeRecipient(address)":"e74b981b","setMarketDeployer(address)":"9b307dc2","setOptimisticOracleV2(address)":"b2d35b7a","setUmaBondCurrency(address)":"4682be61","transferOwnership(address)":"f2fde38b","umaBondCurrency()":"ed460e56"}}}}}