{"contracts/orderbook/AFTRVParimutuelOrderBook.sol":{"AFTRVParimutuelOrderBook":{"abi":[{"inputs":[{"internalType":"address","name":"_marketFactory","type":"address"},{"internalType":"address","name":"_owner","type":"address"}],"stateMutability":"nonpayable","type":"constructor"},{"inputs":[],"name":"FailedCall","type":"error"},{"inputs":[{"internalType":"uint256","name":"balance","type":"uint256"},{"internalType":"uint256","name":"needed","type":"uint256"}],"name":"InsufficientBalance","type":"error"},{"inputs":[{"internalType":"address","name":"owner","type":"address"}],"name":"OwnableInvalidOwner","type":"error"},{"inputs":[{"internalType":"address","name":"account","type":"address"}],"name":"OwnableUnauthorizedAccount","type":"error"},{"inputs":[{"internalType":"address","name":"token","type":"address"}],"name":"SafeERC20FailedOperation","type":"error"},{"anonymous":false,"inputs":[{"indexed":true,"internalType":"address","name":"market","type":"address"},{"indexed":true,"internalType":"address","name":"token","type":"address"},{"indexed":true,"internalType":"address","name":"user","type":"address"},{"indexed":false,"internalType":"uint256","name":"price","type":"uint256"},{"indexed":false,"internalType":"bytes32","name":"orderId","type":"bytes32"}],"name":"OrderCancelled","type":"event"},{"anonymous":false,"inputs":[{"indexed":true,"internalType":"address","name":"market","type":"address"},{"indexed":true,"internalType":"address","name":"token","type":"address"},{"indexed":true,"internalType":"address","name":"maker","type":"address"},{"indexed":false,"internalType":"address","name":"taker","type":"address"},{"indexed":false,"internalType":"uint256","name":"price","type":"uint256"},{"indexed":false,"internalType":"uint256","name":"amount","type":"uint256"}],"name":"OrderMatched","type":"event"},{"anonymous":false,"inputs":[{"indexed":true,"internalType":"address","name":"market","type":"address"},{"indexed":true,"internalType":"address","name":"token","type":"address"},{"indexed":true,"internalType":"address","name":"user","type":"address"},{"indexed":false,"internalType":"uint256","name":"price","type":"uint256"},{"indexed":false,"internalType":"uint256","name":"amount","type":"uint256"},{"indexed":false,"internalType":"bytes32","name":"orderId","type":"bytes32"},{"indexed":false,"internalType":"bool","name":"isBuy","type":"bool"}],"name":"OrderPlaced","type":"event"},{"anonymous":false,"inputs":[{"indexed":true,"internalType":"address","name":"previousOwner","type":"address"},{"indexed":true,"internalType":"address","name":"newOwner","type":"address"}],"name":"OwnershipTransferred","type":"event"},{"inputs":[{"internalType":"address","name":"","type":"address"}],"name":"accumulatedFeeErc20","outputs":[{"internalType":"uint256","name":"","type":"uint256"}],"stateMutability":"view","type":"function"},{"inputs":[],"name":"accumulatedFeeNative","outputs":[{"internalType":"uint256","name":"","type":"uint256"}],"stateMutability":"view","type":"function"},{"inputs":[{"internalType":"address","name":"","type":"address"},{"internalType":"address","name":"","type":"address"},{"internalType":"uint256","name":"","type":"uint256"}],"name":"buyOrderBook","outputs":[{"internalType":"uint256","name":"length","type":"uint256"},{"internalType":"bytes32","name":"head","type":"bytes32"},{"internalType":"bytes32","name":"tail","type":"bytes32"}],"stateMutability":"view","type":"function"},{"inputs":[{"internalType":"address","name":"market","type":"address"},{"internalType":"address","name":"token","type":"address"},{"internalType":"uint256","name":"price","type":"uint256"},{"internalType":"bytes32","name":"orderId","type":"bytes32"}],"name":"cancelBuyOrder","outputs":[],"stateMutability":"nonpayable","type":"function"},{"inputs":[{"internalType":"address","name":"market","type":"address"},{"internalType":"address","name":"token","type":"address"},{"internalType":"uint256","name":"price","type":"uint256"},{"internalType":"bytes32","name":"orderId","type":"bytes32"}],"name":"cancelSellOrder","outputs":[],"stateMutability":"nonpayable","type":"function"},{"inputs":[{"internalType":"address","name":"collateralAsset","type":"address"}],"name":"collectFees","outputs":[],"stateMutability":"nonpayable","type":"function"},{"inputs":[],"name":"feeRate","outputs":[{"internalType":"uint16","name":"","type":"uint16"}],"stateMutability":"view","type":"function"},{"inputs":[{"internalType":"address","name":"market","type":"address"},{"internalType":"address","name":"token","type":"address"}],"name":"getBestAsk","outputs":[{"internalType":"uint256","name":"","type":"uint256"}],"stateMutability":"view","type":"function"},{"inputs":[{"internalType":"address","name":"market","type":"address"},{"internalType":"address","name":"token","type":"address"}],"name":"getBestBid","outputs":[{"internalType":"uint256","name":"","type":"uint256"}],"stateMutability":"view","type":"function"},{"inputs":[],"name":"marketFactory","outputs":[{"internalType":"contract IAFTRBookFactory","name":"","type":"address"}],"stateMutability":"view","type":"function"},{"inputs":[],"name":"owner","outputs":[{"internalType":"address","name":"","type":"address"}],"stateMutability":"view","type":"function"},{"inputs":[{"internalType":"address","name":"market","type":"address"},{"internalType":"address","name":"token","type":"address"},{"internalType":"uint256","name":"price","type":"uint256"},{"internalType":"uint256","name":"amount","type":"uint256"}],"name":"placeBuyOrder","outputs":[{"internalType":"bytes32","name":"orderId","type":"bytes32"}],"stateMutability":"payable","type":"function"},{"inputs":[{"internalType":"address","name":"market","type":"address"},{"internalType":"address","name":"token","type":"address"},{"internalType":"uint256","name":"price","type":"uint256"},{"internalType":"uint256","name":"amount","type":"uint256"}],"name":"placeSellOrder","outputs":[{"internalType":"bytes32","name":"orderId","type":"bytes32"}],"stateMutability":"nonpayable","type":"function"},{"inputs":[],"name":"renounceOwnership","outputs":[],"stateMutability":"nonpayable","type":"function"},{"inputs":[{"internalType":"address","name":"","type":"address"},{"internalType":"address","name":"","type":"address"},{"internalType":"uint256","name":"","type":"uint256"}],"name":"sellOrderBook","outputs":[{"internalType":"uint256","name":"length","type":"uint256"},{"internalType":"bytes32","name":"head","type":"bytes32"},{"internalType":"bytes32","name":"tail","type":"bytes32"}],"stateMutability":"view","type":"function"},{"inputs":[{"internalType":"uint16","name":"_feeRate","type":"uint16"}],"name":"setFeeRate","outputs":[],"stateMutability":"nonpayable","type":"function"},{"inputs":[{"internalType":"address","name":"newOwner","type":"address"}],"name":"transferOwnership","outputs":[],"stateMutability":"nonpayable","type":"function"},{"stateMutability":"payable","type":"receive"}],"evm":{"bytecode":{"linkReferences":{},"object":"60a034620000ef57601f620025e638819003918201601f19168301916001600160401b03831184841017620000f4578084926040948552833981010312620000ef5760206200004e826200010a565b916001600160a01b039182916200006691016200010a565b168015620000d6576000549160405193828285167f8be0079c531659141344cd1fd0a4f28419497f9722a3daafe3b4186f6b6457e0600080a3166080526001600160b01b031990911617601960a11b176000556124c6908162000120823960805181818161145801526117ca0152f35b604051631e4fbdf760e01b815260006004820152602490fd5b600080fd5b634e487b7160e01b600052604160045260246000fd5b51906001600160a01b0382168203620000ef5756fe608080604052600436101561001d575b50361561001b57600080fd5b005b60003560e01c90816306ae709514611445575080630933b2ae146113da57806310d16b5914610db3578063117c0bc014610ca857806329ff077314610c225780634926819114610bb3578063543ddf5114610b955780635671eed214610b69578063715018a614610b1057806375fcb6a314610ad65780638da5cb5b14610aad578063978bbdb914610a8857806399db37c514610971578063a05118c214610213578063a480ca79146101a7578063b9f8b5aa146101735763f2fde38b146100e5573861000f565b3461016e57602036600319011261016e576100fe611487565b610106612277565b6001600160a01b0390811690811561015557600054826001600160601b0360a01b821617600055167f8be0079c531659141344cd1fd0a4f28419497f9722a3daafe3b4186f6b6457e0600080a3005b604051631e4fbdf760e01b815260006004820152602490fd5b600080fd5b3461016e57604036600319011261016e57602061019f610191611487565b61019961149d565b90611705565b604051908152f35b3461016e57602036600319011261016e576101c0611487565b6101c8612277565b6001600160a01b0390811690816101f05761001b915060025490600060025560005416611dbb565b8161001b9260005260016020526040600020916000835493556000541690611d5a565b61021c366114e8565b9160009391939161022d82826117a1565b84151580610968575b61023f90611521565b61024982826122a3565b95909461026b61025983836116b8565b61026560ff8a1661198d565b906116cb565b61028c61271061028461ffff60005460a01c16846116b8565b0480926116eb565b906001600160a01b0388168061090557508134106108da57816102b99234116108c1575b506002546116eb565b6002559593955b956102cb84846122a3565b9790505b6001600160a01b0384811660009081526003602090815260408083209389168352928152828220868352905220541515806108b8575b156105b1576001600160a01b038481166000908152600360208181526040808420948a1684529381528383208784528152838320600180820154808652919093019091529183902060028082015494519395939290919061036584611553565b8101546001600160a01b03168352015460208201528a8383106104a057610498946104206103a66104519361026560ff61039f8d8b6116b8565b921661198d565b9160018060a01b038b166000526003602052604060002060018060a01b038d1660005260205260406000208a6000526020526103e5604060002061238e565b5060018060a01b038b166000526005602052604060002060018060a01b038d16600052602052604060002060018060a01b0386511690611fc9565b5061042c888b8b6121d2565b61044085336001600160a01b038d16611d5a565b82516001600160a01b03168c612365565b5160408051338152602081018890529081018490526001600160a01b039182169189811691908916906000805160206124718339815191529080606081015b0390a46116f8565b945b946102cf565b8280959294506104bf6105469261026560ff61039f8c61056c996116b8565b9260018060a01b038a166000526003602052604060002060018060a01b038c1660005260205260406000208960005260205260036040600020018160005260205260026040600020016105138382546116f8565b90556001600160a01b038a811660009081526005602090815260408083208f851684529091529020875190911690612302565b5061055b84336001600160a01b038b16611d5a565b82516001600160a01b03168a612365565b516040805133815260208101869052908101929092526001600160a01b03908116918682169186169060008051602061247183398151915290606090a460009461049a565b84849387836105c6575b602085604051908152f35b83945061026560ff61039f846105dd9596976116b8565b9360018060a01b03168060005260209360048552604060002060018060a01b03851660005285526040600020836000528552604060002054156000146108755760008281526004865260408082206001600160a01b03871683528752808220858352875290206106509087903390611a98565b60008381526009875260408082206001600160a01b03881683528852808220868352885290205490959060ff1615610702575b6106b36020975b60008581526006845260408082206001600160a01b038a16835285529020869089903390611bb3565b50604051938452830152836040830152600160608301527f08df2dfcfaa1d4b132f1ade3fb5f295ce8fa7d2257abef9845734f54d254a7706080339460018060a01b031693a4828080806105bb565b60008381526009825260408082206001600160a01b0388168084529084528183208784528452818320805460ff191660019081179091558684526008855282842091845290845290822080549091805b610835575b50600160401b81101561081f5780600161077492018355826115e5565b815491600019928360039360031b1b191690558254828101908111610809575b8481116107d35750505097856107c96107b26106b39460209c6115e5565b819391549060031b91821b91600019901b19161790565b9055975050610683565b828101818111610809576107e790856115e5565b905490831b1c6107fa6107b283876115e5565b90558015610809578201610794565b634e487b7160e01b600052601160045260246000fd5b634e487b7160e01b600052604160045260246000fd5b928181108061085c575b156108565760001981146108095783019280610752565b92610757565b508761086882856115e5565b90549060031b1c1161083f565b602095948260005260048152604060002060018060a01b038616600052815260406000208460005281526106b36108b2876040600020339061199b565b9661068a565b50801515610305565b6108ce6108d491346116f8565b33611dbb565b896102b0565b60405162461bcd60e51b815260206004820152600360248201526208aa8960eb1b6044820152606490fd5b90913461093a5761091890303384611900565b600052600160205261093060406000209182546116eb565b90559593956102c0565b60405162461bcd60e51b815260206004820152600660248201526509cde408aa8960d31b6044820152606490fd5b50831515610236565b3461016e5761097f366114e8565b60018060a0959493951b0392610a5785858316948560005260209360038552610a02604060002098808416998a6000528752604060002085600052875260036040600020018860005287526109fa6040600020886002604051946109e286611553565b600184015416928386520154930192835233146115ad565b51338a611d5a565b866000526003855260406000208860005285526040600020836000528552610a2e866040600020611e96565b5086600052600585526040600020886000528552610a5186336040600020611fc9565b506121d2565b6040519485528401527f4d808958216860d10b60c5927cdbbcff69e2318be11e150596eae39dc0d8ea1860403394a4005b3461016e57600036600319011261016e57602061ffff60005460a01c16604051908152f35b3461016e57600036600319011261016e576000546040516001600160a01b039091168152602090f35b3461016e57602036600319011261016e576001600160a01b03610af7611487565b1660005260016020526020604060002054604051908152f35b3461016e57600036600319011261016e57610b29612277565b600080546001600160a01b0319811682556001600160a01b03167f8be0079c531659141344cd1fd0a4f28419497f9722a3daafe3b4186f6b6457e08280a3005b3461016e57604036600319011261016e57602061019f610b87611487565b610b8f61149d565b90611613565b3461016e57600036600319011261016e576020600254604051908152f35b3461016e57610bc1366114b3565b9160018060a01b0380911660005260036020526040600020911660005260205260406000209060005260205260406000208054610c1e60026001840154930154604051938493846040919493926060820195825260208201520152565b0390f35b3461016e57602036600319011261016e5760043561ffff811680820361016e576103e890610c4e612277565b11610c74576000805461ffff60a01b191660a09290921b61ffff60a01b16919091179055005b60405162461bcd60e51b815260206004820152600c60248201526b08ccaca40e8dede40d0d2ced60a31b6044820152606490fd5b3461016e57610cb6366114e8565b60018060a0959493951b0392610a57858583169485600052602093600485526040600020978083169889600052865260406000208460005286526003604060002001876000528652604060002090610d3060405192610d1484611553565b88600284600184015416928387520154940193845233146115ad565b610d3983611c79565b501680610da15750610d4c905133611dbb565b866000526004855260406000208860005285526040600020836000528552610d78866040600020611e96565b5086600052600685526040600020886000528552610d9b86336040600020611fc9565b50612121565b610dae9151903390611d5a565b610d4c565b3461016e57610dc1366114e8565b91600093919392610dd282846117a1565b841515806113d1575b610de790949394611521565b610dfc8130336001600160a01b038616611900565b92610e0782826122a3565b9590945b6001600160a01b0383811660009081526004602090815260408083209388168352928152828220858352905220541515806113c8575b15611122576001600160a01b0383811660009081526004602090815260408083209388168352928152828220858352815282822060018101548084526003909101909152919020600201549091610eac84610ea7610ea160ff8d1661198d565b856116b8565b6116cb565b9160018060a01b0386166000526004602052604060002060018060a01b038816600052602052604060002085600052602052600360406000200184600052602052604060002090600260405192610f0284611553565b60018101546001600160a01b031684520154602083015283831061101457610fc990610f9b61100c9660018060a01b038a166000526004602052604060002060018060a01b038c16600052602052604060002089600052602052610f69604060002061238e565b506001600160a01b038a811660009081526006602090815260408083208f851684529091529020865190911690611fc9565b50610fa7878a8a612121565b8251610fc29086906001600160a01b03908116908c16611d5a565b338b612365565b5160408051338152602081018790529081018490526001600160a01b03918216918881169190881690600080516020612471833981519152908060608101610490565b935b93610e0b565b509150916110dd906110ba6110328b61026560ff61039f8a8a6116b8565b809260018060a01b0389166000526004602052604060002060018060a01b038b1660005260205260406000208860005260205260036040600020018160005260205260026040600020016110878382546116f8565b90556001600160a01b0389811660009081526006602090815260408083208e851684529091529020875190911690612302565b5082516110d69085906001600160a01b03908116908a16611d5a565b3389612365565b516040805133815260208101859052908101929092526001600160a01b03908116918582169185169060008051602061247183398151915290606090a460009361100e565b9092849282611137575b602084604051908152f35b9091925060018060a01b03169283600052600393602093858552604060002060018060a01b038516600052855260406000208360005285526040600020541560001461138c5781600052858552604060002060018060a01b038516600052855260406000208360005285526111b181336040600020611a98565b60008381526009875260408082206001600160a01b03881683528852808220868352885290205490959060ff1615611263575b602096505b8260005260058152604060002060018060a01b0386166000528152611215828588336040600020611bb3565b50604051938452830152836040830152600060608301527f08df2dfcfaa1d4b132f1ade3fb5f295ce8fa7d2257abef9845734f54d254a7706080339460018060a01b031693a482808061112c565b60008381526009825260408082206001600160a01b0388168084529084528183208784528452818320805460ff19166001908117909155868452600785528284209184529084529082208054929990929091805b61134d575b50600160401b81101561081f578060016112d992018455836115e5565b919080546000198094841b1b191690558254828101908111610809575b8a8111611317575050506113106107b260209987936115e5565b90556111e4565b8281018181116108095761132b90856115e5565b905490831b1c61133e6107b283876115e5565b905580156108095782016112f6565b9981811080611374575b1561136e576000198114610809578a0199806112b7565b996112bc565b508761138082866115e5565b905490851b1c10611357565b602095826000528552604060002060018060a01b038516600052855260406000208360005285526113c28133604060002061199b565b946111e9565b50801515610e41565b50801515610ddb565b3461016e576113e8366114b3565b9160018060a01b0380911660005260046020526040600020911660005260205260406000209060005260205260406000208054610c1e60026001840154930154604051938493846040919493926060820195825260208201520152565b3461016e57600036600319011261016e577f00000000000000000000000000000000000000000000000000000000000000006001600160a01b03168152602090f35b600435906001600160a01b038216820361016e57565b602435906001600160a01b038216820361016e57565b606090600319011261016e576001600160a01b0390600435828116810361016e5791602435908116810361016e579060443590565b608090600319011261016e576001600160a01b0390600435828116810361016e5791602435908116810361016e57906044359060643590565b1561152857565b606460405162461bcd60e51b81526020600482015260046024820152634172677360e01b6044820152fd5b6040810190811067ffffffffffffffff82111761081f57604052565b6060810190811067ffffffffffffffff82111761081f57604052565b90601f8019910116810190811067ffffffffffffffff82111761081f57604052565b156115b457565b60405162461bcd60e51b81526020600482015260096024820152682737ba1037bbb732b960b91b6044820152606490fd5b80548210156115fd5760005260206000200190600090565b634e487b7160e01b600052603260045260246000fd5b9060018060a01b0380921690600092828452602090600760205260409060408620931692838652602052604085209182549485156116af57865b86811061165e575050505050505090565b8188526003808452848920878a52845284892061167b83886115e5565b905490831b1c8a52845284892054611696575060010161164d565b975094505050506116a792506115e5565b9054911b1c90565b50505050505090565b8181029291811591840414171561080957565b81156116d5570490565b634e487b7160e01b600052601260045260246000fd5b9190820180921161080957565b9190820391821161080957565b60018060a01b0380911690600092828452602091600860205260409060408620921691828652602052604085209182549485156116af57865b86811061174f575050505050505090565b81885260048652838820838952865283882061176b82876115e5565b919054600392831b1c8a52875284892054611696575060010161173e565b9081602091031261016e5751801515810361016e5790565b604080516337649a6d60e11b81526001600160a01b0392831660048201819052602094929392917f00000000000000000000000000000000000000000000000000000000000000008416908681602481855afa9081156118f5576000916118d8575b50156118ab57859291604491865195869485936302fb78a760e31b855260048501521660248301525afa9081156118a057600091611873575b5015611846575050565b60649250519062461bcd60e51b8252600482015260076024820152664f7574636f6d6560c81b6044820152fd5b6118939150833d8511611899575b61188b818361158b565b810190611789565b3861183c565b503d611881565b82513d6000823e3d90fd5b845162461bcd60e51b815260048101879052600660248201526513585c9ad95d60d21b6044820152606490fd5b6118ef9150873d89116118995761188b818361158b565b38611803565b86513d6000823e3d90fd5b6040516323b872dd60e01b60009081526001600160a01b03938416600452938316602452604494909452909160209060648180855af160016000511481161561196d575b8360405260006060521561195757505050565b635274afe760e01b835216600482015260249150fd5b600181151661198357813b15153d151616611944565b833d6000823e3d90fd5b604d811161080957600a0a90565b60405192916119a984611553565b6001600160a01b038181168552602085810185905260405192600292906119cf85611553565b6000808652838601988952865460405160609390931b6bffffffffffffffffffffffff1916838601908152601481019990995260348901524260548901524460748901529690611a2c81609484015b03601f19810183528261158b565b519020968787526003860183526040872094518555600185019051918251166001600160601b0360a01b82541617905501519101558260028201805484528160408520555580549160018301809311611a8457505590565b634e487b7160e01b81526011600452602490fd5b600191926002602060405195611aad87611553565b858060a01b03908181168852848389015260405194611acb86611553565b60008652838601988952865460405160609390931b6bffffffffffffffffffffffff19168386019081526014810192909252603482015242605482015244607482015290611b1c8160948401611a1e565b51902096876000526003860183526040600020945185558685019051918251166001600160601b0360a01b825416179055015191015582828201558260028201555590565b80548210156115fd576000526003602060002091020190600090565b9190611b9d57604081600292518455602081015160018501550151910155565b634e487b7160e01b600052600060045260246000fd5b93909291936001810191600093868552836020526040958686205415600014611c555760018060a01b0316918286528360205286862090875192611bf68461156f565b898452602084015287830152805490600160401b821015611c415781611c25916001611c2b9594018155611b61565b90611b7d565b8352602052828220549382526020522055600190565b634e487b7160e01b87526041600452602487fd5b505050505091505090565b9081602091031261016e575160ff8116810361016e5790565b6040516348d399e760e01b8152602092916001600160a01b03908116918481600481865afa918215611d0d578591600093611d19575b5050604051630ec9c6c360e41b81529192829060049082905afa938415611d0d57600094611cde575b50509190565b611cfe929450803d10611d06575b611cf6818361158b565b810190611c60565b913880611cd8565b503d611cec565b6040513d6000823e3d90fd5b90929181813d8311611d53575b611d30818361158b565b81010312611d4f57519182168203611d4c575083600438611caf565b80fd5b5080fd5b503d611d26565b60405163a9059cbb60e01b60009081526001600160a01b039384166004526024949094529260209060448180855af1600160005114811615611da5575b836040521561195757505050565b600181151661198357813b15153d151616611d97565b814710611e20576040516020810181811067ffffffffffffffff82111761081f57604052600080809481948280955260018060a01b03165af115611dfc5750565b3d15611e0e57604051903d90823e3d90fd5b60405163d6bda27560e01b8152600490fd5b60405163cf47918160e01b815247600482015260248101839052604490fd5b15611e4657565b60405162461bcd60e51b815260206004820152602260248201527f556e617574686f726973656420746f2064656c6574652074686973206f726465604482015261391760f11b6064820152608490fd5b919060019182840182815414611f96576003859493950190549383600093868552602092846020526040978887205490845b611f07575b895162461bcd60e51b815260206004820152601360248201527227b93232b91024a2103737ba103337bab7321760691b6044820152606490fd5b8299989954851015611f8e578a8214611f33575080875285855287872054979897938801939088611ec8565b919697935091989460029488968752818152611f5d60018060a01b038b878a200154163314611e3f565b83875252828520549085528285205583528220828155828682015501558054916000198301928311611a8457505590565b889950611ecd565b5092611fc59160005260038101602052611fc060018060a01b038460406000200154163314611e3f565b61238e565b5090565b9060018201906000938085526020918383526040948587205491821515600014612117576000199280840191818311612103576001600160a01b0316808a52838752888a205490928582019182116120ef578782828c938e9503612090575b505050509050528352848620908154801561207c5701906120498282611b61565b6120685760028189809355826001820155015555845252812055600190565b634e487b7160e01b88526004889052602488fd5b634e487b7160e01b88526031600452602488fd5b6120da936120a9611c25938988528a8652828820611b61565b5095600282519788966120bb8861156f565b81548852600182015490880152015482860152888152898d5220611b61565b51895286865287892055388888878380612028565b634e487b7160e01b8b52601160045260248bfd5b634e487b7160e01b8a52601160045260248afd5b5050505050505090565b6001600160a01b03908116600081815260036020908152604080832095909416808352948152838220868352815283822054929594919215806121b0575b61216c575b505050505050565b856121a5968452600982528484208385528252848420868552825284842060ff19815416905583526008815283832091835252206123cf565b388080808080612164565b508583526004815283832082845281528383208584528152838320541561215f565b6001600160a01b0390811660008181526003602090815260408083209590941680835294815283822086835281528382205492959491921580612255575b61221c57505050505050565b856121a5968452600982528484208385528252848420868552825284842060ff19815416905583526007815283832091835252206123cf565b5085835260048152838320828452815283832085845281528383205415612210565b6000546001600160a01b0316330361228b57565b60405163118cdaa760e01b8152336004820152602490fd5b60206122b3600492949394611c79565b5060405163313ce56760e01b815290949092839182906001600160a01b03165afa908115611d0d576000916122e6575090565b6122ff915060203d602011611d0657611cf6818361158b565b90565b60009283526001810160205260408320549291831561235d576001600160a01b03168252602052604081206000198301929091908311611a84575061234c61235692600292611b61565b50019182546116f8565b9055600190565b505091505090565b6001600160a01b0392919083168061238457506123829216611dbb565b565b6123829350611d5a565b600181019081546002600093849283526003840160205260408320908154905582815582600182015501558054916000198301928311611a84575055600190565b60005b8154908181101561246a5783916123e982856115e5565b959054600396871b1c1461240357509092506001016123d2565b6000199250828101908111610809576107b261242261242f92866115e5565b905490871b1c92856115e5565b9055815480156124545781019261244684846115e5565b81939154921b1b1916905555565b634e487b7160e01b600052603160045260246000fd5b5050505056fe3cbbc8402f36c579ec0a401deda27129168a12e63fcc158db749aa8beb3b0379a2646970667358221220c47bbab4b6a171b9ef40fecc4d0a729a076fa6ddcc99c7af025f6bdcb5bacae064736f6c63430008180033","opcodes":"PUSH1 0xA0 CALLVALUE PUSH3 0xEF JUMPI PUSH1 0x1F PUSH3 0x25E6 CODESIZE DUP2 SWAP1 SUB SWAP2 DUP3 ADD PUSH1 0x1F NOT AND DUP4 ADD SWAP2 PUSH1 0x1 PUSH1 0x1 PUSH1 0x40 SHL SUB DUP4 GT DUP5 DUP5 LT OR PUSH3 0xF4 JUMPI DUP1 DUP5 SWAP3 PUSH1 0x40 SWAP5 DUP6 MSTORE DUP4 CODECOPY DUP2 ADD SUB SLT PUSH3 0xEF JUMPI PUSH1 0x20 PUSH3 0x4E DUP3 PUSH3 0x10A JUMP JUMPDEST SWAP2 PUSH1 0x1 PUSH1 0x1 PUSH1 0xA0 SHL SUB SWAP2 DUP3 SWAP2 PUSH3 0x66 SWAP2 ADD PUSH3 0x10A JUMP JUMPDEST AND DUP1 ISZERO PUSH3 0xD6 JUMPI PUSH1 0x0 SLOAD SWAP2 PUSH1 0x40 MLOAD SWAP4 DUP3 DUP3 DUP6 AND PUSH32 0x8BE0079C531659141344CD1FD0A4F28419497F9722A3DAAFE3B4186F6B6457E0 PUSH1 0x0 DUP1 LOG3 AND PUSH1 0x80 MSTORE PUSH1 0x1 PUSH1 0x1 PUSH1 0xB0 SHL SUB NOT SWAP1 SWAP2 AND OR PUSH1 0x19 PUSH1 0xA1 SHL OR PUSH1 0x0 SSTORE PUSH2 0x24C6 SWAP1 DUP2 PUSH3 0x120 DUP3 CODECOPY PUSH1 0x80 MLOAD DUP2 DUP2 DUP2 PUSH2 0x1458 ADD MSTORE PUSH2 0x17CA ADD MSTORE RETURN JUMPDEST PUSH1 0x40 MLOAD PUSH4 0x1E4FBDF7 PUSH1 0xE0 SHL DUP2 MSTORE PUSH1 0x0 PUSH1 0x4 DUP3 ADD MSTORE PUSH1 0x24 SWAP1 REVERT JUMPDEST PUSH1 0x0 DUP1 REVERT JUMPDEST PUSH4 0x4E487B71 PUSH1 0xE0 SHL PUSH1 0x0 MSTORE PUSH1 0x41 PUSH1 0x4 MSTORE PUSH1 0x24 PUSH1 0x0 REVERT JUMPDEST MLOAD SWAP1 PUSH1 0x1 PUSH1 0x1 PUSH1 0xA0 SHL SUB DUP3 AND DUP3 SUB PUSH3 0xEF JUMPI JUMP INVALID PUSH1 0x80 DUP1 PUSH1 0x40 MSTORE PUSH1 0x4 CALLDATASIZE LT ISZERO PUSH2 0x1D JUMPI JUMPDEST POP CALLDATASIZE ISZERO PUSH2 0x1B JUMPI PUSH1 0x0 DUP1 REVERT JUMPDEST STOP JUMPDEST PUSH1 0x0 CALLDATALOAD PUSH1 0xE0 SHR SWAP1 DUP2 PUSH4 0x6AE7095 EQ PUSH2 0x1445 JUMPI POP DUP1 PUSH4 0x933B2AE EQ PUSH2 0x13DA JUMPI DUP1 PUSH4 0x10D16B59 EQ PUSH2 0xDB3 JUMPI DUP1 PUSH4 0x117C0BC0 EQ PUSH2 0xCA8 JUMPI DUP1 PUSH4 0x29FF0773 EQ PUSH2 0xC22 JUMPI DUP1 PUSH4 0x49268191 EQ PUSH2 0xBB3 JUMPI DUP1 PUSH4 0x543DDF51 EQ PUSH2 0xB95 JUMPI DUP1 PUSH4 0x5671EED2 EQ PUSH2 0xB69 JUMPI DUP1 PUSH4 0x715018A6 EQ PUSH2 0xB10 JUMPI DUP1 PUSH4 0x75FCB6A3 EQ PUSH2 0xAD6 JUMPI DUP1 PUSH4 0x8DA5CB5B EQ PUSH2 0xAAD JUMPI DUP1 PUSH4 0x978BBDB9 EQ PUSH2 0xA88 JUMPI DUP1 PUSH4 0x99DB37C5 EQ PUSH2 0x971 JUMPI DUP1 PUSH4 0xA05118C2 EQ PUSH2 0x213 JUMPI DUP1 PUSH4 0xA480CA79 EQ PUSH2 0x1A7 JUMPI DUP1 PUSH4 0xB9F8B5AA EQ PUSH2 0x173 JUMPI PUSH4 0xF2FDE38B EQ PUSH2 0xE5 JUMPI CODESIZE PUSH2 0xF JUMP JUMPDEST CALLVALUE PUSH2 0x16E JUMPI PUSH1 0x20 CALLDATASIZE PUSH1 0x3 NOT ADD SLT PUSH2 0x16E JUMPI PUSH2 0xFE PUSH2 0x1487 JUMP JUMPDEST PUSH2 0x106 PUSH2 0x2277 JUMP JUMPDEST PUSH1 0x1 PUSH1 0x1 PUSH1 0xA0 SHL SUB SWAP1 DUP2 AND SWAP1 DUP2 ISZERO PUSH2 0x155 JUMPI PUSH1 0x0 SLOAD DUP3 PUSH1 0x1 PUSH1 0x1 PUSH1 0x60 SHL SUB PUSH1 0xA0 SHL DUP3 AND OR PUSH1 0x0 SSTORE AND PUSH32 0x8BE0079C531659141344CD1FD0A4F28419497F9722A3DAAFE3B4186F6B6457E0 PUSH1 0x0 DUP1 LOG3 STOP JUMPDEST PUSH1 0x40 MLOAD PUSH4 0x1E4FBDF7 PUSH1 0xE0 SHL DUP2 MSTORE PUSH1 0x0 PUSH1 0x4 DUP3 ADD MSTORE PUSH1 0x24 SWAP1 REVERT JUMPDEST PUSH1 0x0 DUP1 REVERT JUMPDEST CALLVALUE PUSH2 0x16E JUMPI PUSH1 0x40 CALLDATASIZE PUSH1 0x3 NOT ADD SLT PUSH2 0x16E JUMPI PUSH1 0x20 PUSH2 0x19F PUSH2 0x191 PUSH2 0x1487 JUMP JUMPDEST PUSH2 0x199 PUSH2 0x149D JUMP JUMPDEST SWAP1 PUSH2 0x1705 JUMP JUMPDEST PUSH1 0x40 MLOAD SWAP1 DUP2 MSTORE RETURN JUMPDEST CALLVALUE PUSH2 0x16E JUMPI PUSH1 0x20 CALLDATASIZE PUSH1 0x3 NOT ADD SLT PUSH2 0x16E JUMPI PUSH2 0x1C0 PUSH2 0x1487 JUMP JUMPDEST PUSH2 0x1C8 PUSH2 0x2277 JUMP JUMPDEST PUSH1 0x1 PUSH1 0x1 PUSH1 0xA0 SHL SUB SWAP1 DUP2 AND SWAP1 DUP2 PUSH2 0x1F0 JUMPI PUSH2 0x1B SWAP2 POP PUSH1 0x2 SLOAD SWAP1 PUSH1 0x0 PUSH1 0x2 SSTORE PUSH1 0x0 SLOAD AND PUSH2 0x1DBB JUMP JUMPDEST DUP2 PUSH2 0x1B SWAP3 PUSH1 0x0 MSTORE PUSH1 0x1 PUSH1 0x20 MSTORE PUSH1 0x40 PUSH1 0x0 KECCAK256 SWAP2 PUSH1 0x0 DUP4 SLOAD SWAP4 SSTORE PUSH1 0x0 SLOAD AND SWAP1 PUSH2 0x1D5A JUMP JUMPDEST PUSH2 0x21C CALLDATASIZE PUSH2 0x14E8 JUMP JUMPDEST SWAP2 PUSH1 0x0 SWAP4 SWAP2 SWAP4 SWAP2 PUSH2 0x22D DUP3 DUP3 PUSH2 0x17A1 JUMP JUMPDEST DUP5 ISZERO ISZERO DUP1 PUSH2 0x968 JUMPI JUMPDEST PUSH2 0x23F SWAP1 PUSH2 0x1521 JUMP JUMPDEST PUSH2 0x249 DUP3 DUP3 PUSH2 0x22A3 JUMP JUMPDEST SWAP6 SWAP1 SWAP5 PUSH2 0x26B PUSH2 0x259 DUP4 DUP4 PUSH2 0x16B8 JUMP JUMPDEST PUSH2 0x265 PUSH1 0xFF DUP11 AND PUSH2 0x198D JUMP JUMPDEST SWAP1 PUSH2 0x16CB JUMP JUMPDEST PUSH2 0x28C PUSH2 0x2710 PUSH2 0x284 PUSH2 0xFFFF PUSH1 0x0 SLOAD PUSH1 0xA0 SHR AND DUP5 PUSH2 0x16B8 JUMP JUMPDEST DIV DUP1 SWAP3 PUSH2 0x16EB JUMP JUMPDEST SWAP1 PUSH1 0x1 PUSH1 0x1 PUSH1 0xA0 SHL SUB DUP9 AND DUP1 PUSH2 0x905 JUMPI POP DUP2 CALLVALUE LT PUSH2 0x8DA JUMPI DUP2 PUSH2 0x2B9 SWAP3 CALLVALUE GT PUSH2 0x8C1 JUMPI JUMPDEST POP PUSH1 0x2 SLOAD PUSH2 0x16EB JUMP JUMPDEST PUSH1 0x2 SSTORE SWAP6 SWAP4 SWAP6 JUMPDEST SWAP6 PUSH2 0x2CB DUP5 DUP5 PUSH2 0x22A3 JUMP JUMPDEST SWAP8 SWAP1 POP JUMPDEST PUSH1 0x1 PUSH1 0x1 PUSH1 0xA0 SHL SUB DUP5 DUP2 AND PUSH1 0x0 SWAP1 DUP2 MSTORE PUSH1 0x3 PUSH1 0x20 SWAP1 DUP2 MSTORE PUSH1 0x40 DUP1 DUP4 KECCAK256 SWAP4 DUP10 AND DUP4 MSTORE SWAP3 DUP2 MSTORE DUP3 DUP3 KECCAK256 DUP7 DUP4 MSTORE SWAP1 MSTORE KECCAK256 SLOAD ISZERO ISZERO DUP1 PUSH2 0x8B8 JUMPI JUMPDEST ISZERO PUSH2 0x5B1 JUMPI PUSH1 0x1 PUSH1 0x1 PUSH1 0xA0 SHL SUB DUP5 DUP2 AND PUSH1 0x0 SWAP1 DUP2 MSTORE PUSH1 0x3 PUSH1 0x20 DUP2 DUP2 MSTORE PUSH1 0x40 DUP1 DUP5 KECCAK256 SWAP5 DUP11 AND DUP5 MSTORE SWAP4 DUP2 MSTORE DUP4 DUP4 KECCAK256 DUP8 DUP5 MSTORE DUP2 MSTORE DUP4 DUP4 KECCAK256 PUSH1 0x1 DUP1 DUP3 ADD SLOAD DUP1 DUP7 MSTORE SWAP2 SWAP1 SWAP4 ADD SWAP1 SWAP2 MSTORE SWAP2 DUP4 SWAP1 KECCAK256 PUSH1 0x2 DUP1 DUP3 ADD SLOAD SWAP5 MLOAD SWAP4 SWAP6 SWAP4 SWAP3 SWAP1 SWAP2 SWAP1 PUSH2 0x365 DUP5 PUSH2 0x1553 JUMP JUMPDEST DUP2 ADD SLOAD PUSH1 0x1 PUSH1 0x1 PUSH1 0xA0 SHL SUB AND DUP4 MSTORE ADD SLOAD PUSH1 0x20 DUP3 ADD MSTORE DUP11 DUP4 DUP4 LT PUSH2 0x4A0 JUMPI PUSH2 0x498 SWAP5 PUSH2 0x420 PUSH2 0x3A6 PUSH2 0x451 SWAP4 PUSH2 0x265 PUSH1 0xFF PUSH2 0x39F DUP14 DUP12 PUSH2 0x16B8 JUMP JUMPDEST SWAP3 AND PUSH2 0x198D JUMP JUMPDEST SWAP2 PUSH1 0x1 DUP1 PUSH1 0xA0 SHL SUB DUP12 AND PUSH1 0x0 MSTORE PUSH1 0x3 PUSH1 0x20 MSTORE PUSH1 0x40 PUSH1 0x0 KECCAK256 PUSH1 0x1 DUP1 PUSH1 0xA0 SHL SUB DUP14 AND PUSH1 0x0 MSTORE PUSH1 0x20 MSTORE PUSH1 0x40 PUSH1 0x0 KECCAK256 DUP11 PUSH1 0x0 MSTORE PUSH1 0x20 MSTORE PUSH2 0x3E5 PUSH1 0x40 PUSH1 0x0 KECCAK256 PUSH2 0x238E JUMP JUMPDEST POP PUSH1 0x1 DUP1 PUSH1 0xA0 SHL SUB DUP12 AND PUSH1 0x0 MSTORE PUSH1 0x5 PUSH1 0x20 MSTORE PUSH1 0x40 PUSH1 0x0 KECCAK256 PUSH1 0x1 DUP1 PUSH1 0xA0 SHL SUB DUP14 AND PUSH1 0x0 MSTORE PUSH1 0x20 MSTORE PUSH1 0x40 PUSH1 0x0 KECCAK256 PUSH1 0x1 DUP1 PUSH1 0xA0 SHL SUB DUP7 MLOAD AND SWAP1 PUSH2 0x1FC9 JUMP JUMPDEST POP PUSH2 0x42C DUP9 DUP12 DUP12 PUSH2 0x21D2 JUMP JUMPDEST PUSH2 0x440 DUP6 CALLER PUSH1 0x1 PUSH1 0x1 PUSH1 0xA0 SHL SUB DUP14 AND PUSH2 0x1D5A JUMP JUMPDEST DUP3 MLOAD PUSH1 0x1 PUSH1 0x1 PUSH1 0xA0 SHL SUB AND DUP13 PUSH2 0x2365 JUMP JUMPDEST MLOAD PUSH1 0x40 DUP1 MLOAD CALLER DUP2 MSTORE PUSH1 0x20 DUP2 ADD DUP9 SWAP1 MSTORE SWAP1 DUP2 ADD DUP5 SWAP1 MSTORE PUSH1 0x1 PUSH1 0x1 PUSH1 0xA0 SHL SUB SWAP2 DUP3 AND SWAP2 DUP10 DUP2 AND SWAP2 SWAP1 DUP10 AND SWAP1 PUSH1 0x0 DUP1 MLOAD PUSH1 0x20 PUSH2 0x2471 DUP4 CODECOPY DUP2 MLOAD SWAP2 MSTORE SWAP1 DUP1 PUSH1 0x60 DUP2 ADD JUMPDEST SUB SWAP1 LOG4 PUSH2 0x16F8 JUMP JUMPDEST SWAP5 JUMPDEST SWAP5 PUSH2 0x2CF JUMP JUMPDEST DUP3 DUP1 SWAP6 SWAP3 SWAP5 POP PUSH2 0x4BF PUSH2 0x546 SWAP3 PUSH2 0x265 PUSH1 0xFF PUSH2 0x39F DUP13 PUSH2 0x56C SWAP10 PUSH2 0x16B8 JUMP JUMPDEST SWAP3 PUSH1 0x1 DUP1 PUSH1 0xA0 SHL SUB DUP11 AND PUSH1 0x0 MSTORE PUSH1 0x3 PUSH1 0x20 MSTORE PUSH1 0x40 PUSH1 0x0 KECCAK256 PUSH1 0x1 DUP1 PUSH1 0xA0 SHL SUB DUP13 AND PUSH1 0x0 MSTORE PUSH1 0x20 MSTORE PUSH1 0x40 PUSH1 0x0 KECCAK256 DUP10 PUSH1 0x0 MSTORE PUSH1 0x20 MSTORE PUSH1 0x3 PUSH1 0x40 PUSH1 0x0 KECCAK256 ADD DUP2 PUSH1 0x0 MSTORE PUSH1 0x20 MSTORE PUSH1 0x2 PUSH1 0x40 PUSH1 0x0 KECCAK256 ADD PUSH2 0x513 DUP4 DUP3 SLOAD PUSH2 0x16F8 JUMP JUMPDEST SWAP1 SSTORE PUSH1 0x1 PUSH1 0x1 PUSH1 0xA0 SHL SUB DUP11 DUP2 AND PUSH1 0x0 SWAP1 DUP2 MSTORE PUSH1 0x5 PUSH1 0x20 SWAP1 DUP2 MSTORE PUSH1 0x40 DUP1 DUP4 KECCAK256 DUP16 DUP6 AND DUP5 MSTORE SWAP1 SWAP2 MSTORE SWAP1 KECCAK256 DUP8 MLOAD SWAP1 SWAP2 AND SWAP1 PUSH2 0x2302 JUMP JUMPDEST POP PUSH2 0x55B DUP5 CALLER PUSH1 0x1 PUSH1 0x1 PUSH1 0xA0 SHL SUB DUP12 AND PUSH2 0x1D5A JUMP JUMPDEST DUP3 MLOAD PUSH1 0x1 PUSH1 0x1 PUSH1 0xA0 SHL SUB AND DUP11 PUSH2 0x2365 JUMP JUMPDEST MLOAD PUSH1 0x40 DUP1 MLOAD CALLER DUP2 MSTORE PUSH1 0x20 DUP2 ADD DUP7 SWAP1 MSTORE SWAP1 DUP2 ADD SWAP3 SWAP1 SWAP3 MSTORE PUSH1 0x1 PUSH1 0x1 PUSH1 0xA0 SHL SUB SWAP1 DUP2 AND SWAP2 DUP7 DUP3 AND SWAP2 DUP7 AND SWAP1 PUSH1 0x0 DUP1 MLOAD PUSH1 0x20 PUSH2 0x2471 DUP4 CODECOPY DUP2 MLOAD SWAP2 MSTORE SWAP1 PUSH1 0x60 SWAP1 LOG4 PUSH1 0x0 SWAP5 PUSH2 0x49A JUMP JUMPDEST DUP5 DUP5 SWAP4 DUP8 DUP4 PUSH2 0x5C6 JUMPI JUMPDEST PUSH1 0x20 DUP6 PUSH1 0x40 MLOAD SWAP1 DUP2 MSTORE RETURN JUMPDEST DUP4 SWAP5 POP PUSH2 0x265 PUSH1 0xFF PUSH2 0x39F DUP5 PUSH2 0x5DD SWAP6 SWAP7 SWAP8 PUSH2 0x16B8 JUMP JUMPDEST SWAP4 PUSH1 0x1 DUP1 PUSH1 0xA0 SHL SUB AND DUP1 PUSH1 0x0 MSTORE PUSH1 0x20 SWAP4 PUSH1 0x4 DUP6 MSTORE PUSH1 0x40 PUSH1 0x0 KECCAK256 PUSH1 0x1 DUP1 PUSH1 0xA0 SHL SUB DUP6 AND PUSH1 0x0 MSTORE DUP6 MSTORE PUSH1 0x40 PUSH1 0x0 KECCAK256 DUP4 PUSH1 0x0 MSTORE DUP6 MSTORE PUSH1 0x40 PUSH1 0x0 KECCAK256 SLOAD ISZERO PUSH1 0x0 EQ PUSH2 0x875 JUMPI PUSH1 0x0 DUP3 DUP2 MSTORE PUSH1 0x4 DUP7 MSTORE PUSH1 0x40 DUP1 DUP3 KECCAK256 PUSH1 0x1 PUSH1 0x1 PUSH1 0xA0 SHL SUB DUP8 AND DUP4 MSTORE DUP8 MSTORE DUP1 DUP3 KECCAK256 DUP6 DUP4 MSTORE DUP8 MSTORE SWAP1 KECCAK256 PUSH2 0x650 SWAP1 DUP8 SWAP1 CALLER SWAP1 PUSH2 0x1A98 JUMP JUMPDEST PUSH1 0x0 DUP4 DUP2 MSTORE PUSH1 0x9 DUP8 MSTORE PUSH1 0x40 DUP1 DUP3 KECCAK256 PUSH1 0x1 PUSH1 0x1 PUSH1 0xA0 SHL SUB DUP9 AND DUP4 MSTORE DUP9 MSTORE DUP1 DUP3 KECCAK256 DUP7 DUP4 MSTORE DUP9 MSTORE SWAP1 KECCAK256 SLOAD SWAP1 SWAP6 SWAP1 PUSH1 0xFF AND ISZERO PUSH2 0x702 JUMPI JUMPDEST PUSH2 0x6B3 PUSH1 0x20 SWAP8 JUMPDEST PUSH1 0x0 DUP6 DUP2 MSTORE PUSH1 0x6 DUP5 MSTORE PUSH1 0x40 DUP1 DUP3 KECCAK256 PUSH1 0x1 PUSH1 0x1 PUSH1 0xA0 SHL SUB DUP11 AND DUP4 MSTORE DUP6 MSTORE SWAP1 KECCAK256 DUP7 SWAP1 DUP10 SWAP1 CALLER SWAP1 PUSH2 0x1BB3 JUMP JUMPDEST POP PUSH1 0x40 MLOAD SWAP4 DUP5 MSTORE DUP4 ADD MSTORE DUP4 PUSH1 0x40 DUP4 ADD MSTORE PUSH1 0x1 PUSH1 0x60 DUP4 ADD MSTORE PUSH32 0x8DF2DFCFAA1D4B132F1ADE3FB5F295CE8FA7D2257ABEF9845734F54D254A770 PUSH1 0x80 CALLER SWAP5 PUSH1 0x1 DUP1 PUSH1 0xA0 SHL SUB AND SWAP4 LOG4 DUP3 DUP1 DUP1 DUP1 PUSH2 0x5BB JUMP JUMPDEST PUSH1 0x0 DUP4 DUP2 MSTORE PUSH1 0x9 DUP3 MSTORE PUSH1 0x40 DUP1 DUP3 KECCAK256 PUSH1 0x1 PUSH1 0x1 PUSH1 0xA0 SHL SUB DUP9 AND DUP1 DUP5 MSTORE SWAP1 DUP5 MSTORE DUP2 DUP4 KECCAK256 DUP8 DUP5 MSTORE DUP5 MSTORE DUP2 DUP4 KECCAK256 DUP1 SLOAD PUSH1 0xFF NOT AND PUSH1 0x1 SWAP1 DUP2 OR SWAP1 SWAP2 SSTORE DUP7 DUP5 MSTORE PUSH1 0x8 DUP6 MSTORE DUP3 DUP5 KECCAK256 SWAP2 DUP5 MSTORE SWAP1 DUP5 MSTORE SWAP1 DUP3 KECCAK256 DUP1 SLOAD SWAP1 SWAP2 DUP1 JUMPDEST PUSH2 0x835 JUMPI JUMPDEST POP PUSH1 0x1 PUSH1 0x40 SHL DUP2 LT ISZERO PUSH2 0x81F JUMPI DUP1 PUSH1 0x1 PUSH2 0x774 SWAP3 ADD DUP4 SSTORE DUP3 PUSH2 0x15E5 JUMP JUMPDEST DUP2 SLOAD SWAP2 PUSH1 0x0 NOT SWAP3 DUP4 PUSH1 0x3 SWAP4 PUSH1 0x3 SHL SHL NOT AND SWAP1 SSTORE DUP3 SLOAD DUP3 DUP2 ADD SWAP1 DUP2 GT PUSH2 0x809 JUMPI JUMPDEST DUP5 DUP2 GT PUSH2 0x7D3 JUMPI POP POP POP SWAP8 DUP6 PUSH2 0x7C9 PUSH2 0x7B2 PUSH2 0x6B3 SWAP5 PUSH1 0x20 SWAP13 PUSH2 0x15E5 JUMP JUMPDEST DUP2 SWAP4 SWAP2 SLOAD SWAP1 PUSH1 0x3 SHL SWAP2 DUP3 SHL SWAP2 PUSH1 0x0 NOT SWAP1 SHL NOT AND OR SWAP1 JUMP JUMPDEST SWAP1 SSTORE SWAP8 POP POP PUSH2 0x683 JUMP JUMPDEST DUP3 DUP2 ADD DUP2 DUP2 GT PUSH2 0x809 JUMPI PUSH2 0x7E7 SWAP1 DUP6 PUSH2 0x15E5 JUMP JUMPDEST SWAP1 SLOAD SWAP1 DUP4 SHL SHR PUSH2 0x7FA PUSH2 0x7B2 DUP4 DUP8 PUSH2 0x15E5 JUMP JUMPDEST SWAP1 SSTORE DUP1 ISZERO PUSH2 0x809 JUMPI DUP3 ADD PUSH2 0x794 JUMP JUMPDEST PUSH4 0x4E487B71 PUSH1 0xE0 SHL PUSH1 0x0 MSTORE PUSH1 0x11 PUSH1 0x4 MSTORE PUSH1 0x24 PUSH1 0x0 REVERT JUMPDEST PUSH4 0x4E487B71 PUSH1 0xE0 SHL PUSH1 0x0 MSTORE PUSH1 0x41 PUSH1 0x4 MSTORE PUSH1 0x24 PUSH1 0x0 REVERT JUMPDEST SWAP3 DUP2 DUP2 LT DUP1 PUSH2 0x85C JUMPI JUMPDEST ISZERO PUSH2 0x856 JUMPI PUSH1 0x0 NOT DUP2 EQ PUSH2 0x809 JUMPI DUP4 ADD SWAP3 DUP1 PUSH2 0x752 JUMP JUMPDEST SWAP3 PUSH2 0x757 JUMP JUMPDEST POP DUP8 PUSH2 0x868 DUP3 DUP6 PUSH2 0x15E5 JUMP JUMPDEST SWAP1 SLOAD SWAP1 PUSH1 0x3 SHL SHR GT PUSH2 0x83F JUMP JUMPDEST PUSH1 0x20 SWAP6 SWAP5 DUP3 PUSH1 0x0 MSTORE PUSH1 0x4 DUP2 MSTORE PUSH1 0x40 PUSH1 0x0 KECCAK256 PUSH1 0x1 DUP1 PUSH1 0xA0 SHL SUB DUP7 AND PUSH1 0x0 MSTORE DUP2 MSTORE PUSH1 0x40 PUSH1 0x0 KECCAK256 DUP5 PUSH1 0x0 MSTORE DUP2 MSTORE PUSH2 0x6B3 PUSH2 0x8B2 DUP8 PUSH1 0x40 PUSH1 0x0 KECCAK256 CALLER SWAP1 PUSH2 0x199B JUMP JUMPDEST SWAP7 PUSH2 0x68A JUMP JUMPDEST POP DUP1 ISZERO ISZERO PUSH2 0x305 JUMP JUMPDEST PUSH2 0x8CE PUSH2 0x8D4 SWAP2 CALLVALUE PUSH2 0x16F8 JUMP JUMPDEST CALLER PUSH2 0x1DBB JUMP JUMPDEST DUP10 PUSH2 0x2B0 JUMP JUMPDEST PUSH1 0x40 MLOAD PUSH3 0x461BCD PUSH1 0xE5 SHL DUP2 MSTORE PUSH1 0x20 PUSH1 0x4 DUP3 ADD MSTORE PUSH1 0x3 PUSH1 0x24 DUP3 ADD MSTORE PUSH3 0x8AA89 PUSH1 0xEB SHL PUSH1 0x44 DUP3 ADD MSTORE PUSH1 0x64 SWAP1 REVERT JUMPDEST SWAP1 SWAP2 CALLVALUE PUSH2 0x93A JUMPI PUSH2 0x918 SWAP1 ADDRESS CALLER DUP5 PUSH2 0x1900 JUMP JUMPDEST PUSH1 0x0 MSTORE PUSH1 0x1 PUSH1 0x20 MSTORE PUSH2 0x930 PUSH1 0x40 PUSH1 0x0 KECCAK256 SWAP2 DUP3 SLOAD PUSH2 0x16EB JUMP JUMPDEST SWAP1 SSTORE SWAP6 SWAP4 SWAP6 PUSH2 0x2C0 JUMP JUMPDEST PUSH1 0x40 MLOAD PUSH3 0x461BCD PUSH1 0xE5 SHL DUP2 MSTORE PUSH1 0x20 PUSH1 0x4 DUP3 ADD MSTORE PUSH1 0x6 PUSH1 0x24 DUP3 ADD MSTORE PUSH6 0x9CDE408AA89 PUSH1 0xD3 SHL PUSH1 0x44 DUP3 ADD MSTORE PUSH1 0x64 SWAP1 REVERT JUMPDEST POP DUP4 ISZERO ISZERO PUSH2 0x236 JUMP JUMPDEST CALLVALUE PUSH2 0x16E JUMPI PUSH2 0x97F CALLDATASIZE PUSH2 0x14E8 JUMP JUMPDEST PUSH1 0x1 DUP1 PUSH1 0xA0 SWAP6 SWAP5 SWAP4 SWAP6 SHL SUB SWAP3 PUSH2 0xA57 DUP6 DUP6 DUP4 AND SWAP5 DUP6 PUSH1 0x0 MSTORE PUSH1 0x20 SWAP4 PUSH1 0x3 DUP6 MSTORE PUSH2 0xA02 PUSH1 0x40 PUSH1 0x0 KECCAK256 SWAP9 DUP1 DUP5 AND SWAP10 DUP11 PUSH1 0x0 MSTORE DUP8 MSTORE PUSH1 0x40 PUSH1 0x0 KECCAK256 DUP6 PUSH1 0x0 MSTORE DUP8 MSTORE PUSH1 0x3 PUSH1 0x40 PUSH1 0x0 KECCAK256 ADD DUP9 PUSH1 0x0 MSTORE DUP8 MSTORE PUSH2 0x9FA PUSH1 0x40 PUSH1 0x0 KECCAK256 DUP9 PUSH1 0x2 PUSH1 0x40 MLOAD SWAP5 PUSH2 0x9E2 DUP7 PUSH2 0x1553 JUMP JUMPDEST PUSH1 0x1 DUP5 ADD SLOAD AND SWAP3 DUP4 DUP7 MSTORE ADD SLOAD SWAP4 ADD SWAP3 DUP4 MSTORE CALLER EQ PUSH2 0x15AD JUMP JUMPDEST MLOAD CALLER DUP11 PUSH2 0x1D5A JUMP JUMPDEST DUP7 PUSH1 0x0 MSTORE PUSH1 0x3 DUP6 MSTORE PUSH1 0x40 PUSH1 0x0 KECCAK256 DUP9 PUSH1 0x0 MSTORE DUP6 MSTORE PUSH1 0x40 PUSH1 0x0 KECCAK256 DUP4 PUSH1 0x0 MSTORE DUP6 MSTORE PUSH2 0xA2E DUP7 PUSH1 0x40 PUSH1 0x0 KECCAK256 PUSH2 0x1E96 JUMP JUMPDEST POP DUP7 PUSH1 0x0 MSTORE PUSH1 0x5 DUP6 MSTORE PUSH1 0x40 PUSH1 0x0 KECCAK256 DUP9 PUSH1 0x0 MSTORE DUP6 MSTORE PUSH2 0xA51 DUP7 CALLER PUSH1 0x40 PUSH1 0x0 KECCAK256 PUSH2 0x1FC9 JUMP JUMPDEST POP PUSH2 0x21D2 JUMP JUMPDEST PUSH1 0x40 MLOAD SWAP5 DUP6 MSTORE DUP5 ADD MSTORE PUSH32 0x4D808958216860D10B60C5927CDBBCFF69E2318BE11E150596EAE39DC0D8EA18 PUSH1 0x40 CALLER SWAP5 LOG4 STOP JUMPDEST CALLVALUE PUSH2 0x16E JUMPI PUSH1 0x0 CALLDATASIZE PUSH1 0x3 NOT ADD SLT PUSH2 0x16E JUMPI PUSH1 0x20 PUSH2 0xFFFF PUSH1 0x0 SLOAD PUSH1 0xA0 SHR AND PUSH1 0x40 MLOAD SWAP1 DUP2 MSTORE RETURN JUMPDEST CALLVALUE PUSH2 0x16E JUMPI PUSH1 0x0 CALLDATASIZE PUSH1 0x3 NOT ADD SLT PUSH2 0x16E JUMPI PUSH1 0x0 SLOAD PUSH1 0x40 MLOAD PUSH1 0x1 PUSH1 0x1 PUSH1 0xA0 SHL SUB SWAP1 SWAP2 AND DUP2 MSTORE PUSH1 0x20 SWAP1 RETURN JUMPDEST CALLVALUE PUSH2 0x16E JUMPI PUSH1 0x20 CALLDATASIZE PUSH1 0x3 NOT ADD SLT PUSH2 0x16E JUMPI PUSH1 0x1 PUSH1 0x1 PUSH1 0xA0 SHL SUB PUSH2 0xAF7 PUSH2 0x1487 JUMP JUMPDEST AND PUSH1 0x0 MSTORE PUSH1 0x1 PUSH1 0x20 MSTORE PUSH1 0x20 PUSH1 0x40 PUSH1 0x0 KECCAK256 SLOAD PUSH1 0x40 MLOAD SWAP1 DUP2 MSTORE RETURN JUMPDEST CALLVALUE PUSH2 0x16E JUMPI PUSH1 0x0 CALLDATASIZE PUSH1 0x3 NOT ADD SLT PUSH2 0x16E JUMPI PUSH2 0xB29 PUSH2 0x2277 JUMP JUMPDEST PUSH1 0x0 DUP1 SLOAD PUSH1 0x1 PUSH1 0x1 PUSH1 0xA0 SHL SUB NOT DUP2 AND DUP3 SSTORE PUSH1 0x1 PUSH1 0x1 PUSH1 0xA0 SHL SUB AND PUSH32 0x8BE0079C531659141344CD1FD0A4F28419497F9722A3DAAFE3B4186F6B6457E0 DUP3 DUP1 LOG3 STOP JUMPDEST CALLVALUE PUSH2 0x16E JUMPI PUSH1 0x40 CALLDATASIZE PUSH1 0x3 NOT ADD SLT PUSH2 0x16E JUMPI PUSH1 0x20 PUSH2 0x19F PUSH2 0xB87 PUSH2 0x1487 JUMP JUMPDEST PUSH2 0xB8F PUSH2 0x149D JUMP JUMPDEST SWAP1 PUSH2 0x1613 JUMP JUMPDEST CALLVALUE PUSH2 0x16E JUMPI PUSH1 0x0 CALLDATASIZE PUSH1 0x3 NOT ADD SLT PUSH2 0x16E JUMPI PUSH1 0x20 PUSH1 0x2 SLOAD PUSH1 0x40 MLOAD SWAP1 DUP2 MSTORE RETURN JUMPDEST CALLVALUE PUSH2 0x16E JUMPI PUSH2 0xBC1 CALLDATASIZE PUSH2 0x14B3 JUMP JUMPDEST SWAP2 PUSH1 0x1 DUP1 PUSH1 0xA0 SHL SUB DUP1 SWAP2 AND PUSH1 0x0 MSTORE PUSH1 0x3 PUSH1 0x20 MSTORE PUSH1 0x40 PUSH1 0x0 KECCAK256 SWAP2 AND PUSH1 0x0 MSTORE PUSH1 0x20 MSTORE PUSH1 0x40 PUSH1 0x0 KECCAK256 SWAP1 PUSH1 0x0 MSTORE PUSH1 0x20 MSTORE PUSH1 0x40 PUSH1 0x0 KECCAK256 DUP1 SLOAD PUSH2 0xC1E PUSH1 0x2 PUSH1 0x1 DUP5 ADD SLOAD SWAP4 ADD SLOAD PUSH1 0x40 MLOAD SWAP4 DUP5 SWAP4 DUP5 PUSH1 0x40 SWAP2 SWAP5 SWAP4 SWAP3 PUSH1 0x60 DUP3 ADD SWAP6 DUP3 MSTORE PUSH1 0x20 DUP3 ADD MSTORE ADD MSTORE JUMP JUMPDEST SUB SWAP1 RETURN JUMPDEST CALLVALUE PUSH2 0x16E JUMPI PUSH1 0x20 CALLDATASIZE PUSH1 0x3 NOT ADD SLT PUSH2 0x16E JUMPI PUSH1 0x4 CALLDATALOAD PUSH2 0xFFFF DUP2 AND DUP1 DUP3 SUB PUSH2 0x16E JUMPI PUSH2 0x3E8 SWAP1 PUSH2 0xC4E PUSH2 0x2277 JUMP JUMPDEST GT PUSH2 0xC74 JUMPI PUSH1 0x0 DUP1 SLOAD PUSH2 0xFFFF PUSH1 0xA0 SHL NOT AND PUSH1 0xA0 SWAP3 SWAP1 SWAP3 SHL PUSH2 0xFFFF PUSH1 0xA0 SHL AND SWAP2 SWAP1 SWAP2 OR SWAP1 SSTORE STOP JUMPDEST PUSH1 0x40 MLOAD PUSH3 0x461BCD PUSH1 0xE5 SHL DUP2 MSTORE PUSH1 0x20 PUSH1 0x4 DUP3 ADD MSTORE PUSH1 0xC PUSH1 0x24 DUP3 ADD MSTORE PUSH12 0x8CCACA40E8DEDE40D0D2CED PUSH1 0xA3 SHL PUSH1 0x44 DUP3 ADD MSTORE PUSH1 0x64 SWAP1 REVERT JUMPDEST CALLVALUE PUSH2 0x16E JUMPI PUSH2 0xCB6 CALLDATASIZE PUSH2 0x14E8 JUMP JUMPDEST PUSH1 0x1 DUP1 PUSH1 0xA0 SWAP6 SWAP5 SWAP4 SWAP6 SHL SUB SWAP3 PUSH2 0xA57 DUP6 DUP6 DUP4 AND SWAP5 DUP6 PUSH1 0x0 MSTORE PUSH1 0x20 SWAP4 PUSH1 0x4 DUP6 MSTORE PUSH1 0x40 PUSH1 0x0 KECCAK256 SWAP8 DUP1 DUP4 AND SWAP9 DUP10 PUSH1 0x0 MSTORE DUP7 MSTORE PUSH1 0x40 PUSH1 0x0 KECCAK256 DUP5 PUSH1 0x0 MSTORE DUP7 MSTORE PUSH1 0x3 PUSH1 0x40 PUSH1 0x0 KECCAK256 ADD DUP8 PUSH1 0x0 MSTORE DUP7 MSTORE PUSH1 0x40 PUSH1 0x0 KECCAK256 SWAP1 PUSH2 0xD30 PUSH1 0x40 MLOAD SWAP3 PUSH2 0xD14 DUP5 PUSH2 0x1553 JUMP JUMPDEST DUP9 PUSH1 0x2 DUP5 PUSH1 0x1 DUP5 ADD SLOAD AND SWAP3 DUP4 DUP8 MSTORE ADD SLOAD SWAP5 ADD SWAP4 DUP5 MSTORE CALLER EQ PUSH2 0x15AD JUMP JUMPDEST PUSH2 0xD39 DUP4 PUSH2 0x1C79 JUMP JUMPDEST POP AND DUP1 PUSH2 0xDA1 JUMPI POP PUSH2 0xD4C SWAP1 MLOAD CALLER PUSH2 0x1DBB JUMP JUMPDEST DUP7 PUSH1 0x0 MSTORE PUSH1 0x4 DUP6 MSTORE PUSH1 0x40 PUSH1 0x0 KECCAK256 DUP9 PUSH1 0x0 MSTORE DUP6 MSTORE PUSH1 0x40 PUSH1 0x0 KECCAK256 DUP4 PUSH1 0x0 MSTORE DUP6 MSTORE PUSH2 0xD78 DUP7 PUSH1 0x40 PUSH1 0x0 KECCAK256 PUSH2 0x1E96 JUMP JUMPDEST POP DUP7 PUSH1 0x0 MSTORE PUSH1 0x6 DUP6 MSTORE PUSH1 0x40 PUSH1 0x0 KECCAK256 DUP9 PUSH1 0x0 MSTORE DUP6 MSTORE PUSH2 0xD9B DUP7 CALLER PUSH1 0x40 PUSH1 0x0 KECCAK256 PUSH2 0x1FC9 JUMP JUMPDEST POP PUSH2 0x2121 JUMP JUMPDEST PUSH2 0xDAE SWAP2 MLOAD SWAP1 CALLER SWAP1 PUSH2 0x1D5A JUMP JUMPDEST PUSH2 0xD4C JUMP JUMPDEST CALLVALUE PUSH2 0x16E JUMPI PUSH2 0xDC1 CALLDATASIZE PUSH2 0x14E8 JUMP JUMPDEST SWAP2 PUSH1 0x0 SWAP4 SWAP2 SWAP4 SWAP3 PUSH2 0xDD2 DUP3 DUP5 PUSH2 0x17A1 JUMP JUMPDEST DUP5 ISZERO ISZERO DUP1 PUSH2 0x13D1 JUMPI JUMPDEST PUSH2 0xDE7 SWAP1 SWAP5 SWAP4 SWAP5 PUSH2 0x1521 JUMP JUMPDEST PUSH2 0xDFC DUP2 ADDRESS CALLER PUSH1 0x1 PUSH1 0x1 PUSH1 0xA0 SHL SUB DUP7 AND PUSH2 0x1900 JUMP JUMPDEST SWAP3 PUSH2 0xE07 DUP3 DUP3 PUSH2 0x22A3 JUMP JUMPDEST SWAP6 SWAP1 SWAP5 JUMPDEST PUSH1 0x1 PUSH1 0x1 PUSH1 0xA0 SHL SUB DUP4 DUP2 AND PUSH1 0x0 SWAP1 DUP2 MSTORE PUSH1 0x4 PUSH1 0x20 SWAP1 DUP2 MSTORE PUSH1 0x40 DUP1 DUP4 KECCAK256 SWAP4 DUP9 AND DUP4 MSTORE SWAP3 DUP2 MSTORE DUP3 DUP3 KECCAK256 DUP6 DUP4 MSTORE SWAP1 MSTORE KECCAK256 SLOAD ISZERO ISZERO DUP1 PUSH2 0x13C8 JUMPI JUMPDEST ISZERO PUSH2 0x1122 JUMPI PUSH1 0x1 PUSH1 0x1 PUSH1 0xA0 SHL SUB DUP4 DUP2 AND PUSH1 0x0 SWAP1 DUP2 MSTORE PUSH1 0x4 PUSH1 0x20 SWAP1 DUP2 MSTORE PUSH1 0x40 DUP1 DUP4 KECCAK256 SWAP4 DUP9 AND DUP4 MSTORE SWAP3 DUP2 MSTORE DUP3 DUP3 KECCAK256 DUP6 DUP4 MSTORE DUP2 MSTORE DUP3 DUP3 KECCAK256 PUSH1 0x1 DUP2 ADD SLOAD DUP1 DUP5 MSTORE PUSH1 0x3 SWAP1 SWAP2 ADD SWAP1 SWAP2 MSTORE SWAP2 SWAP1 KECCAK256 PUSH1 0x2 ADD SLOAD SWAP1 SWAP2 PUSH2 0xEAC DUP5 PUSH2 0xEA7 PUSH2 0xEA1 PUSH1 0xFF DUP14 AND PUSH2 0x198D JUMP JUMPDEST DUP6 PUSH2 0x16B8 JUMP JUMPDEST PUSH2 0x16CB JUMP JUMPDEST SWAP2 PUSH1 0x1 DUP1 PUSH1 0xA0 SHL SUB DUP7 AND PUSH1 0x0 MSTORE PUSH1 0x4 PUSH1 0x20 MSTORE PUSH1 0x40 PUSH1 0x0 KECCAK256 PUSH1 0x1 DUP1 PUSH1 0xA0 SHL SUB DUP9 AND PUSH1 0x0 MSTORE PUSH1 0x20 MSTORE PUSH1 0x40 PUSH1 0x0 KECCAK256 DUP6 PUSH1 0x0 MSTORE PUSH1 0x20 MSTORE PUSH1 0x3 PUSH1 0x40 PUSH1 0x0 KECCAK256 ADD DUP5 PUSH1 0x0 MSTORE PUSH1 0x20 MSTORE PUSH1 0x40 PUSH1 0x0 KECCAK256 SWAP1 PUSH1 0x2 PUSH1 0x40 MLOAD SWAP3 PUSH2 0xF02 DUP5 PUSH2 0x1553 JUMP JUMPDEST PUSH1 0x1 DUP2 ADD SLOAD PUSH1 0x1 PUSH1 0x1 PUSH1 0xA0 SHL SUB AND DUP5 MSTORE ADD SLOAD PUSH1 0x20 DUP4 ADD MSTORE DUP4 DUP4 LT PUSH2 0x1014 JUMPI PUSH2 0xFC9 SWAP1 PUSH2 0xF9B PUSH2 0x100C SWAP7 PUSH1 0x1 DUP1 PUSH1 0xA0 SHL SUB DUP11 AND PUSH1 0x0 MSTORE PUSH1 0x4 PUSH1 0x20 MSTORE PUSH1 0x40 PUSH1 0x0 KECCAK256 PUSH1 0x1 DUP1 PUSH1 0xA0 SHL SUB DUP13 AND PUSH1 0x0 MSTORE PUSH1 0x20 MSTORE PUSH1 0x40 PUSH1 0x0 KECCAK256 DUP10 PUSH1 0x0 MSTORE PUSH1 0x20 MSTORE PUSH2 0xF69 PUSH1 0x40 PUSH1 0x0 KECCAK256 PUSH2 0x238E JUMP JUMPDEST POP PUSH1 0x1 PUSH1 0x1 PUSH1 0xA0 SHL SUB DUP11 DUP2 AND PUSH1 0x0 SWAP1 DUP2 MSTORE PUSH1 0x6 PUSH1 0x20 SWAP1 DUP2 MSTORE PUSH1 0x40 DUP1 DUP4 KECCAK256 DUP16 DUP6 AND DUP5 MSTORE SWAP1 SWAP2 MSTORE SWAP1 KECCAK256 DUP7 MLOAD SWAP1 SWAP2 AND SWAP1 PUSH2 0x1FC9 JUMP JUMPDEST POP PUSH2 0xFA7 DUP8 DUP11 DUP11 PUSH2 0x2121 JUMP JUMPDEST DUP3 MLOAD PUSH2 0xFC2 SWAP1 DUP7 SWAP1 PUSH1 0x1 PUSH1 0x1 PUSH1 0xA0 SHL SUB SWAP1 DUP2 AND SWAP1 DUP13 AND PUSH2 0x1D5A JUMP JUMPDEST CALLER DUP12 PUSH2 0x2365 JUMP JUMPDEST MLOAD PUSH1 0x40 DUP1 MLOAD CALLER DUP2 MSTORE PUSH1 0x20 DUP2 ADD DUP8 SWAP1 MSTORE SWAP1 DUP2 ADD DUP5 SWAP1 MSTORE PUSH1 0x1 PUSH1 0x1 PUSH1 0xA0 SHL SUB SWAP2 DUP3 AND SWAP2 DUP9 DUP2 AND SWAP2 SWAP1 DUP9 AND SWAP1 PUSH1 0x0 DUP1 MLOAD PUSH1 0x20 PUSH2 0x2471 DUP4 CODECOPY DUP2 MLOAD SWAP2 MSTORE SWAP1 DUP1 PUSH1 0x60 DUP2 ADD PUSH2 0x490 JUMP JUMPDEST SWAP4 JUMPDEST SWAP4 PUSH2 0xE0B JUMP JUMPDEST POP SWAP2 POP SWAP2 PUSH2 0x10DD SWAP1 PUSH2 0x10BA PUSH2 0x1032 DUP12 PUSH2 0x265 PUSH1 0xFF PUSH2 0x39F DUP11 DUP11 PUSH2 0x16B8 JUMP JUMPDEST DUP1 SWAP3 PUSH1 0x1 DUP1 PUSH1 0xA0 SHL SUB DUP10 AND PUSH1 0x0 MSTORE PUSH1 0x4 PUSH1 0x20 MSTORE PUSH1 0x40 PUSH1 0x0 KECCAK256 PUSH1 0x1 DUP1 PUSH1 0xA0 SHL SUB DUP12 AND PUSH1 0x0 MSTORE PUSH1 0x20 MSTORE PUSH1 0x40 PUSH1 0x0 KECCAK256 DUP9 PUSH1 0x0 MSTORE PUSH1 0x20 MSTORE PUSH1 0x3 PUSH1 0x40 PUSH1 0x0 KECCAK256 ADD DUP2 PUSH1 0x0 MSTORE PUSH1 0x20 MSTORE PUSH1 0x2 PUSH1 0x40 PUSH1 0x0 KECCAK256 ADD PUSH2 0x1087 DUP4 DUP3 SLOAD PUSH2 0x16F8 JUMP JUMPDEST SWAP1 SSTORE PUSH1 0x1 PUSH1 0x1 PUSH1 0xA0 SHL SUB DUP10 DUP2 AND PUSH1 0x0 SWAP1 DUP2 MSTORE PUSH1 0x6 PUSH1 0x20 SWAP1 DUP2 MSTORE PUSH1 0x40 DUP1 DUP4 KECCAK256 DUP15 DUP6 AND DUP5 MSTORE SWAP1 SWAP2 MSTORE SWAP1 KECCAK256 DUP8 MLOAD SWAP1 SWAP2 AND SWAP1 PUSH2 0x2302 JUMP JUMPDEST POP DUP3 MLOAD PUSH2 0x10D6 SWAP1 DUP6 SWAP1 PUSH1 0x1 PUSH1 0x1 PUSH1 0xA0 SHL SUB SWAP1 DUP2 AND SWAP1 DUP11 AND PUSH2 0x1D5A JUMP JUMPDEST CALLER DUP10 PUSH2 0x2365 JUMP JUMPDEST MLOAD PUSH1 0x40 DUP1 MLOAD CALLER DUP2 MSTORE PUSH1 0x20 DUP2 ADD DUP6 SWAP1 MSTORE SWAP1 DUP2 ADD SWAP3 SWAP1 SWAP3 MSTORE PUSH1 0x1 PUSH1 0x1 PUSH1 0xA0 SHL SUB SWAP1 DUP2 AND SWAP2 DUP6 DUP3 AND SWAP2 DUP6 AND SWAP1 PUSH1 0x0 DUP1 MLOAD PUSH1 0x20 PUSH2 0x2471 DUP4 CODECOPY DUP2 MLOAD SWAP2 MSTORE SWAP1 PUSH1 0x60 SWAP1 LOG4 PUSH1 0x0 SWAP4 PUSH2 0x100E JUMP JUMPDEST SWAP1 SWAP3 DUP5 SWAP3 DUP3 PUSH2 0x1137 JUMPI JUMPDEST PUSH1 0x20 DUP5 PUSH1 0x40 MLOAD SWAP1 DUP2 MSTORE RETURN JUMPDEST SWAP1 SWAP2 SWAP3 POP PUSH1 0x1 DUP1 PUSH1 0xA0 SHL SUB AND SWAP3 DUP4 PUSH1 0x0 MSTORE PUSH1 0x3 SWAP4 PUSH1 0x20 SWAP4 DUP6 DUP6 MSTORE PUSH1 0x40 PUSH1 0x0 KECCAK256 PUSH1 0x1 DUP1 PUSH1 0xA0 SHL SUB DUP6 AND PUSH1 0x0 MSTORE DUP6 MSTORE PUSH1 0x40 PUSH1 0x0 KECCAK256 DUP4 PUSH1 0x0 MSTORE DUP6 MSTORE PUSH1 0x40 PUSH1 0x0 KECCAK256 SLOAD ISZERO PUSH1 0x0 EQ PUSH2 0x138C JUMPI DUP2 PUSH1 0x0 MSTORE DUP6 DUP6 MSTORE PUSH1 0x40 PUSH1 0x0 KECCAK256 PUSH1 0x1 DUP1 PUSH1 0xA0 SHL SUB DUP6 AND PUSH1 0x0 MSTORE DUP6 MSTORE PUSH1 0x40 PUSH1 0x0 KECCAK256 DUP4 PUSH1 0x0 MSTORE DUP6 MSTORE PUSH2 0x11B1 DUP2 CALLER PUSH1 0x40 PUSH1 0x0 KECCAK256 PUSH2 0x1A98 JUMP JUMPDEST PUSH1 0x0 DUP4 DUP2 MSTORE PUSH1 0x9 DUP8 MSTORE PUSH1 0x40 DUP1 DUP3 KECCAK256 PUSH1 0x1 PUSH1 0x1 PUSH1 0xA0 SHL SUB DUP9 AND DUP4 MSTORE DUP9 MSTORE DUP1 DUP3 KECCAK256 DUP7 DUP4 MSTORE DUP9 MSTORE SWAP1 KECCAK256 SLOAD SWAP1 SWAP6 SWAP1 PUSH1 0xFF AND ISZERO PUSH2 0x1263 JUMPI JUMPDEST PUSH1 0x20 SWAP7 POP JUMPDEST DUP3 PUSH1 0x0 MSTORE PUSH1 0x5 DUP2 MSTORE PUSH1 0x40 PUSH1 0x0 KECCAK256 PUSH1 0x1 DUP1 PUSH1 0xA0 SHL SUB DUP7 AND PUSH1 0x0 MSTORE DUP2 MSTORE PUSH2 0x1215 DUP3 DUP6 DUP9 CALLER PUSH1 0x40 PUSH1 0x0 KECCAK256 PUSH2 0x1BB3 JUMP JUMPDEST POP PUSH1 0x40 MLOAD SWAP4 DUP5 MSTORE DUP4 ADD MSTORE DUP4 PUSH1 0x40 DUP4 ADD MSTORE PUSH1 0x0 PUSH1 0x60 DUP4 ADD MSTORE PUSH32 0x8DF2DFCFAA1D4B132F1ADE3FB5F295CE8FA7D2257ABEF9845734F54D254A770 PUSH1 0x80 CALLER SWAP5 PUSH1 0x1 DUP1 PUSH1 0xA0 SHL SUB AND SWAP4 LOG4 DUP3 DUP1 DUP1 PUSH2 0x112C JUMP JUMPDEST PUSH1 0x0 DUP4 DUP2 MSTORE PUSH1 0x9 DUP3 MSTORE PUSH1 0x40 DUP1 DUP3 KECCAK256 PUSH1 0x1 PUSH1 0x1 PUSH1 0xA0 SHL SUB DUP9 AND DUP1 DUP5 MSTORE SWAP1 DUP5 MSTORE DUP2 DUP4 KECCAK256 DUP8 DUP5 MSTORE DUP5 MSTORE DUP2 DUP4 KECCAK256 DUP1 SLOAD PUSH1 0xFF NOT AND PUSH1 0x1 SWAP1 DUP2 OR SWAP1 SWAP2 SSTORE DUP7 DUP5 MSTORE PUSH1 0x7 DUP6 MSTORE DUP3 DUP5 KECCAK256 SWAP2 DUP5 MSTORE SWAP1 DUP5 MSTORE SWAP1 DUP3 KECCAK256 DUP1 SLOAD SWAP3 SWAP10 SWAP1 SWAP3 SWAP1 SWAP2 DUP1 JUMPDEST PUSH2 0x134D JUMPI JUMPDEST POP PUSH1 0x1 PUSH1 0x40 SHL DUP2 LT ISZERO PUSH2 0x81F JUMPI DUP1 PUSH1 0x1 PUSH2 0x12D9 SWAP3 ADD DUP5 SSTORE DUP4 PUSH2 0x15E5 JUMP JUMPDEST SWAP2 SWAP1 DUP1 SLOAD PUSH1 0x0 NOT DUP1 SWAP5 DUP5 SHL SHL NOT AND SWAP1 SSTORE DUP3 SLOAD DUP3 DUP2 ADD SWAP1 DUP2 GT PUSH2 0x809 JUMPI JUMPDEST DUP11 DUP2 GT PUSH2 0x1317 JUMPI POP POP POP PUSH2 0x1310 PUSH2 0x7B2 PUSH1 0x20 SWAP10 DUP8 SWAP4 PUSH2 0x15E5 JUMP JUMPDEST SWAP1 SSTORE PUSH2 0x11E4 JUMP JUMPDEST DUP3 DUP2 ADD DUP2 DUP2 GT PUSH2 0x809 JUMPI PUSH2 0x132B SWAP1 DUP6 PUSH2 0x15E5 JUMP JUMPDEST SWAP1 SLOAD SWAP1 DUP4 SHL SHR PUSH2 0x133E PUSH2 0x7B2 DUP4 DUP8 PUSH2 0x15E5 JUMP JUMPDEST SWAP1 SSTORE DUP1 ISZERO PUSH2 0x809 JUMPI DUP3 ADD PUSH2 0x12F6 JUMP JUMPDEST SWAP10 DUP2 DUP2 LT DUP1 PUSH2 0x1374 JUMPI JUMPDEST ISZERO PUSH2 0x136E JUMPI PUSH1 0x0 NOT DUP2 EQ PUSH2 0x809 JUMPI DUP11 ADD SWAP10 DUP1 PUSH2 0x12B7 JUMP JUMPDEST SWAP10 PUSH2 0x12BC JUMP JUMPDEST POP DUP8 PUSH2 0x1380 DUP3 DUP7 PUSH2 0x15E5 JUMP JUMPDEST SWAP1 SLOAD SWAP1 DUP6 SHL SHR LT PUSH2 0x1357 JUMP JUMPDEST PUSH1 0x20 SWAP6 DUP3 PUSH1 0x0 MSTORE DUP6 MSTORE PUSH1 0x40 PUSH1 0x0 KECCAK256 PUSH1 0x1 DUP1 PUSH1 0xA0 SHL SUB DUP6 AND PUSH1 0x0 MSTORE DUP6 MSTORE PUSH1 0x40 PUSH1 0x0 KECCAK256 DUP4 PUSH1 0x0 MSTORE DUP6 MSTORE PUSH2 0x13C2 DUP2 CALLER PUSH1 0x40 PUSH1 0x0 KECCAK256 PUSH2 0x199B JUMP JUMPDEST SWAP5 PUSH2 0x11E9 JUMP JUMPDEST POP DUP1 ISZERO ISZERO PUSH2 0xE41 JUMP JUMPDEST POP DUP1 ISZERO ISZERO PUSH2 0xDDB JUMP JUMPDEST CALLVALUE PUSH2 0x16E JUMPI PUSH2 0x13E8 CALLDATASIZE PUSH2 0x14B3 JUMP JUMPDEST SWAP2 PUSH1 0x1 DUP1 PUSH1 0xA0 SHL SUB DUP1 SWAP2 AND PUSH1 0x0 MSTORE PUSH1 0x4 PUSH1 0x20 MSTORE PUSH1 0x40 PUSH1 0x0 KECCAK256 SWAP2 AND PUSH1 0x0 MSTORE PUSH1 0x20 MSTORE PUSH1 0x40 PUSH1 0x0 KECCAK256 SWAP1 PUSH1 0x0 MSTORE PUSH1 0x20 MSTORE PUSH1 0x40 PUSH1 0x0 KECCAK256 DUP1 SLOAD PUSH2 0xC1E PUSH1 0x2 PUSH1 0x1 DUP5 ADD SLOAD SWAP4 ADD SLOAD PUSH1 0x40 MLOAD SWAP4 DUP5 SWAP4 DUP5 PUSH1 0x40 SWAP2 SWAP5 SWAP4 SWAP3 PUSH1 0x60 DUP3 ADD SWAP6 DUP3 MSTORE PUSH1 0x20 DUP3 ADD MSTORE ADD MSTORE JUMP JUMPDEST CALLVALUE PUSH2 0x16E JUMPI PUSH1 0x0 CALLDATASIZE PUSH1 0x3 NOT ADD SLT PUSH2 0x16E JUMPI PUSH32 0x0 PUSH1 0x1 PUSH1 0x1 PUSH1 0xA0 SHL SUB AND DUP2 MSTORE PUSH1 0x20 SWAP1 RETURN JUMPDEST PUSH1 0x4 CALLDATALOAD SWAP1 PUSH1 0x1 PUSH1 0x1 PUSH1 0xA0 SHL SUB DUP3 AND DUP3 SUB PUSH2 0x16E JUMPI JUMP JUMPDEST PUSH1 0x24 CALLDATALOAD SWAP1 PUSH1 0x1 PUSH1 0x1 PUSH1 0xA0 SHL SUB DUP3 AND DUP3 SUB PUSH2 0x16E JUMPI JUMP JUMPDEST PUSH1 0x60 SWAP1 PUSH1 0x3 NOT ADD SLT PUSH2 0x16E JUMPI PUSH1 0x1 PUSH1 0x1 PUSH1 0xA0 SHL SUB SWAP1 PUSH1 0x4 CALLDATALOAD DUP3 DUP2 AND DUP2 SUB PUSH2 0x16E JUMPI SWAP2 PUSH1 0x24 CALLDATALOAD SWAP1 DUP2 AND DUP2 SUB PUSH2 0x16E JUMPI SWAP1 PUSH1 0x44 CALLDATALOAD SWAP1 JUMP JUMPDEST PUSH1 0x80 SWAP1 PUSH1 0x3 NOT ADD SLT PUSH2 0x16E JUMPI PUSH1 0x1 PUSH1 0x1 PUSH1 0xA0 SHL SUB SWAP1 PUSH1 0x4 CALLDATALOAD DUP3 DUP2 AND DUP2 SUB PUSH2 0x16E JUMPI SWAP2 PUSH1 0x24 CALLDATALOAD SWAP1 DUP2 AND DUP2 SUB PUSH2 0x16E JUMPI SWAP1 PUSH1 0x44 CALLDATALOAD SWAP1 PUSH1 0x64 CALLDATALOAD SWAP1 JUMP JUMPDEST ISZERO PUSH2 0x1528 JUMPI JUMP JUMPDEST PUSH1 0x64 PUSH1 0x40 MLOAD PUSH3 0x461BCD PUSH1 0xE5 SHL DUP2 MSTORE PUSH1 0x20 PUSH1 0x4 DUP3 ADD MSTORE PUSH1 0x4 PUSH1 0x24 DUP3 ADD MSTORE PUSH4 0x41726773 PUSH1 0xE0 SHL PUSH1 0x44 DUP3 ADD MSTORE REVERT JUMPDEST PUSH1 0x40 DUP2 ADD SWAP1 DUP2 LT PUSH8 0xFFFFFFFFFFFFFFFF DUP3 GT OR PUSH2 0x81F JUMPI PUSH1 0x40 MSTORE JUMP JUMPDEST PUSH1 0x60 DUP2 ADD SWAP1 DUP2 LT PUSH8 0xFFFFFFFFFFFFFFFF DUP3 GT OR PUSH2 0x81F JUMPI PUSH1 0x40 MSTORE JUMP JUMPDEST SWAP1 PUSH1 0x1F DUP1 NOT SWAP2 ADD AND DUP2 ADD SWAP1 DUP2 LT PUSH8 0xFFFFFFFFFFFFFFFF DUP3 GT OR PUSH2 0x81F JUMPI PUSH1 0x40 MSTORE JUMP JUMPDEST ISZERO PUSH2 0x15B4 JUMPI JUMP JUMPDEST PUSH1 0x40 MLOAD PUSH3 0x461BCD PUSH1 0xE5 SHL DUP2 MSTORE PUSH1 0x20 PUSH1 0x4 DUP3 ADD MSTORE PUSH1 0x9 PUSH1 0x24 DUP3 ADD MSTORE PUSH9 0x2737BA1037BBB732B9 PUSH1 0xB9 SHL PUSH1 0x44 DUP3 ADD MSTORE PUSH1 0x64 SWAP1 REVERT JUMPDEST DUP1 SLOAD DUP3 LT ISZERO PUSH2 0x15FD JUMPI PUSH1 0x0 MSTORE PUSH1 0x20 PUSH1 0x0 KECCAK256 ADD SWAP1 PUSH1 0x0 SWAP1 JUMP JUMPDEST PUSH4 0x4E487B71 PUSH1 0xE0 SHL PUSH1 0x0 MSTORE PUSH1 0x32 PUSH1 0x4 MSTORE PUSH1 0x24 PUSH1 0x0 REVERT JUMPDEST SWAP1 PUSH1 0x1 DUP1 PUSH1 0xA0 SHL SUB DUP1 SWAP3 AND SWAP1 PUSH1 0x0 SWAP3 DUP3 DUP5 MSTORE PUSH1 0x20 SWAP1 PUSH1 0x7 PUSH1 0x20 MSTORE PUSH1 0x40 SWAP1 PUSH1 0x40 DUP7 KECCAK256 SWAP4 AND SWAP3 DUP4 DUP7 MSTORE PUSH1 0x20 MSTORE PUSH1 0x40 DUP6 KECCAK256 SWAP2 DUP3 SLOAD SWAP5 DUP6 ISZERO PUSH2 0x16AF JUMPI DUP7 JUMPDEST DUP7 DUP2 LT PUSH2 0x165E JUMPI POP POP POP POP POP POP POP SWAP1 JUMP JUMPDEST DUP2 DUP9 MSTORE PUSH1 0x3 DUP1 DUP5 MSTORE DUP5 DUP10 KECCAK256 DUP8 DUP11 MSTORE DUP5 MSTORE DUP5 DUP10 KECCAK256 PUSH2 0x167B DUP4 DUP9 PUSH2 0x15E5 JUMP JUMPDEST SWAP1 SLOAD SWAP1 DUP4 SHL SHR DUP11 MSTORE DUP5 MSTORE DUP5 DUP10 KECCAK256 SLOAD PUSH2 0x1696 JUMPI POP PUSH1 0x1 ADD PUSH2 0x164D JUMP JUMPDEST SWAP8 POP SWAP5 POP POP POP POP PUSH2 0x16A7 SWAP3 POP PUSH2 0x15E5 JUMP JUMPDEST SWAP1 SLOAD SWAP2 SHL SHR SWAP1 JUMP JUMPDEST POP POP POP POP POP POP SWAP1 JUMP JUMPDEST DUP2 DUP2 MUL SWAP3 SWAP2 DUP2 ISZERO SWAP2 DUP5 DIV EQ OR ISZERO PUSH2 0x809 JUMPI JUMP JUMPDEST DUP2 ISZERO PUSH2 0x16D5 JUMPI DIV SWAP1 JUMP JUMPDEST PUSH4 0x4E487B71 PUSH1 0xE0 SHL PUSH1 0x0 MSTORE PUSH1 0x12 PUSH1 0x4 MSTORE PUSH1 0x24 PUSH1 0x0 REVERT JUMPDEST SWAP2 SWAP1 DUP3 ADD DUP1 SWAP3 GT PUSH2 0x809 JUMPI JUMP JUMPDEST SWAP2 SWAP1 DUP3 SUB SWAP2 DUP3 GT PUSH2 0x809 JUMPI JUMP JUMPDEST PUSH1 0x1 DUP1 PUSH1 0xA0 SHL SUB DUP1 SWAP2 AND SWAP1 PUSH1 0x0 SWAP3 DUP3 DUP5 MSTORE PUSH1 0x20 SWAP2 PUSH1 0x8 PUSH1 0x20 MSTORE PUSH1 0x40 SWAP1 PUSH1 0x40 DUP7 KECCAK256 SWAP3 AND SWAP2 DUP3 DUP7 MSTORE PUSH1 0x20 MSTORE PUSH1 0x40 DUP6 KECCAK256 SWAP2 DUP3 SLOAD SWAP5 DUP6 ISZERO PUSH2 0x16AF JUMPI DUP7 JUMPDEST DUP7 DUP2 LT PUSH2 0x174F JUMPI POP POP POP POP POP POP POP SWAP1 JUMP JUMPDEST DUP2 DUP9 MSTORE PUSH1 0x4 DUP7 MSTORE DUP4 DUP9 KECCAK256 DUP4 DUP10 MSTORE DUP7 MSTORE DUP4 DUP9 KECCAK256 PUSH2 0x176B DUP3 DUP8 PUSH2 0x15E5 JUMP JUMPDEST SWAP2 SWAP1 SLOAD PUSH1 0x3 SWAP3 DUP4 SHL SHR DUP11 MSTORE DUP8 MSTORE DUP5 DUP10 KECCAK256 SLOAD PUSH2 0x1696 JUMPI POP PUSH1 0x1 ADD PUSH2 0x173E JUMP JUMPDEST SWAP1 DUP2 PUSH1 0x20 SWAP2 SUB SLT PUSH2 0x16E JUMPI MLOAD DUP1 ISZERO ISZERO DUP2 SUB PUSH2 0x16E JUMPI SWAP1 JUMP JUMPDEST PUSH1 0x40 DUP1 MLOAD PUSH4 0x37649A6D PUSH1 0xE1 SHL DUP2 MSTORE PUSH1 0x1 PUSH1 0x1 PUSH1 0xA0 SHL SUB SWAP3 DUP4 AND PUSH1 0x4 DUP3 ADD DUP2 SWAP1 MSTORE PUSH1 0x20 SWAP5 SWAP3 SWAP4 SWAP3 SWAP2 PUSH32 0x0 DUP5 AND SWAP1 DUP7 DUP2 PUSH1 0x24 DUP2 DUP6 GAS STATICCALL SWAP1 DUP2 ISZERO PUSH2 0x18F5 JUMPI PUSH1 0x0 SWAP2 PUSH2 0x18D8 JUMPI JUMPDEST POP ISZERO PUSH2 0x18AB JUMPI DUP6 SWAP3 SWAP2 PUSH1 0x44 SWAP2 DUP7 MLOAD SWAP6 DUP7 SWAP5 DUP6 SWAP4 PUSH4 0x2FB78A7 PUSH1 0xE3 SHL DUP6 MSTORE PUSH1 0x4 DUP6 ADD MSTORE AND PUSH1 0x24 DUP4 ADD MSTORE GAS STATICCALL SWAP1 DUP2 ISZERO PUSH2 0x18A0 JUMPI PUSH1 0x0 SWAP2 PUSH2 0x1873 JUMPI JUMPDEST POP ISZERO PUSH2 0x1846 JUMPI POP POP JUMP JUMPDEST PUSH1 0x64 SWAP3 POP MLOAD SWAP1 PUSH3 0x461BCD PUSH1 0xE5 SHL DUP3 MSTORE PUSH1 0x4 DUP3 ADD MSTORE PUSH1 0x7 PUSH1 0x24 DUP3 ADD MSTORE PUSH7 0x4F7574636F6D65 PUSH1 0xC8 SHL PUSH1 0x44 DUP3 ADD MSTORE REVERT JUMPDEST PUSH2 0x1893 SWAP2 POP DUP4 RETURNDATASIZE DUP6 GT PUSH2 0x1899 JUMPI JUMPDEST PUSH2 0x188B DUP2 DUP4 PUSH2 0x158B JUMP JUMPDEST DUP2 ADD SWAP1 PUSH2 0x1789 JUMP JUMPDEST CODESIZE PUSH2 0x183C JUMP JUMPDEST POP RETURNDATASIZE PUSH2 0x1881 JUMP JUMPDEST DUP3 MLOAD RETURNDATASIZE PUSH1 0x0 DUP3 RETURNDATACOPY RETURNDATASIZE SWAP1 REVERT JUMPDEST DUP5 MLOAD PUSH3 0x461BCD PUSH1 0xE5 SHL DUP2 MSTORE PUSH1 0x4 DUP2 ADD DUP8 SWAP1 MSTORE PUSH1 0x6 PUSH1 0x24 DUP3 ADD MSTORE PUSH6 0x13585C9AD95D PUSH1 0xD2 SHL PUSH1 0x44 DUP3 ADD MSTORE PUSH1 0x64 SWAP1 REVERT JUMPDEST PUSH2 0x18EF SWAP2 POP DUP8 RETURNDATASIZE DUP10 GT PUSH2 0x1899 JUMPI PUSH2 0x188B DUP2 DUP4 PUSH2 0x158B JUMP JUMPDEST CODESIZE PUSH2 0x1803 JUMP JUMPDEST DUP7 MLOAD RETURNDATASIZE PUSH1 0x0 DUP3 RETURNDATACOPY RETURNDATASIZE SWAP1 REVERT JUMPDEST PUSH1 0x40 MLOAD PUSH4 0x23B872DD PUSH1 0xE0 SHL PUSH1 0x0 SWAP1 DUP2 MSTORE PUSH1 0x1 PUSH1 0x1 PUSH1 0xA0 SHL SUB SWAP4 DUP5 AND PUSH1 0x4 MSTORE SWAP4 DUP4 AND PUSH1 0x24 MSTORE PUSH1 0x44 SWAP5 SWAP1 SWAP5 MSTORE SWAP1 SWAP2 PUSH1 0x20 SWAP1 PUSH1 0x64 DUP2 DUP1 DUP6 GAS CALL PUSH1 0x1 PUSH1 0x0 MLOAD EQ DUP2 AND ISZERO PUSH2 0x196D JUMPI JUMPDEST DUP4 PUSH1 0x40 MSTORE PUSH1 0x0 PUSH1 0x60 MSTORE ISZERO PUSH2 0x1957 JUMPI POP POP POP JUMP JUMPDEST PUSH4 0x5274AFE7 PUSH1 0xE0 SHL DUP4 MSTORE AND PUSH1 0x4 DUP3 ADD MSTORE PUSH1 0x24 SWAP2 POP REVERT JUMPDEST PUSH1 0x1 DUP2 ISZERO AND PUSH2 0x1983 JUMPI DUP2 EXTCODESIZE ISZERO ISZERO RETURNDATASIZE ISZERO AND AND PUSH2 0x1944 JUMP JUMPDEST DUP4 RETURNDATASIZE PUSH1 0x0 DUP3 RETURNDATACOPY RETURNDATASIZE SWAP1 REVERT JUMPDEST PUSH1 0x4D DUP2 GT PUSH2 0x809 JUMPI PUSH1 0xA EXP SWAP1 JUMP JUMPDEST PUSH1 0x40 MLOAD SWAP3 SWAP2 PUSH2 0x19A9 DUP5 PUSH2 0x1553 JUMP JUMPDEST PUSH1 0x1 PUSH1 0x1 PUSH1 0xA0 SHL SUB DUP2 DUP2 AND DUP6 MSTORE PUSH1 0x20 DUP6 DUP2 ADD DUP6 SWAP1 MSTORE PUSH1 0x40 MLOAD SWAP3 PUSH1 0x2 SWAP3 SWAP1 PUSH2 0x19CF DUP6 PUSH2 0x1553 JUMP JUMPDEST PUSH1 0x0 DUP1 DUP7 MSTORE DUP4 DUP7 ADD SWAP9 DUP10 MSTORE DUP7 SLOAD PUSH1 0x40 MLOAD PUSH1 0x60 SWAP4 SWAP1 SWAP4 SHL PUSH12 0xFFFFFFFFFFFFFFFFFFFFFFFF NOT AND DUP4 DUP7 ADD SWAP1 DUP2 MSTORE PUSH1 0x14 DUP2 ADD SWAP10 SWAP1 SWAP10 MSTORE PUSH1 0x34 DUP10 ADD MSTORE TIMESTAMP PUSH1 0x54 DUP10 ADD MSTORE PREVRANDAO PUSH1 0x74 DUP10 ADD MSTORE SWAP7 SWAP1 PUSH2 0x1A2C DUP2 PUSH1 0x94 DUP5 ADD JUMPDEST SUB PUSH1 0x1F NOT DUP2 ADD DUP4 MSTORE DUP3 PUSH2 0x158B JUMP JUMPDEST MLOAD SWAP1 KECCAK256 SWAP7 DUP8 DUP8 MSTORE PUSH1 0x3 DUP7 ADD DUP4 MSTORE PUSH1 0x40 DUP8 KECCAK256 SWAP5 MLOAD DUP6 SSTORE PUSH1 0x1 DUP6 ADD SWAP1 MLOAD SWAP2 DUP3 MLOAD AND PUSH1 0x1 PUSH1 0x1 PUSH1 0x60 SHL SUB PUSH1 0xA0 SHL DUP3 SLOAD AND OR SWAP1 SSTORE ADD MLOAD SWAP2 ADD SSTORE DUP3 PUSH1 0x2 DUP3 ADD DUP1 SLOAD DUP5 MSTORE DUP2 PUSH1 0x40 DUP6 KECCAK256 SSTORE SSTORE DUP1 SLOAD SWAP2 PUSH1 0x1 DUP4 ADD DUP1 SWAP4 GT PUSH2 0x1A84 JUMPI POP SSTORE SWAP1 JUMP JUMPDEST PUSH4 0x4E487B71 PUSH1 0xE0 SHL DUP2 MSTORE PUSH1 0x11 PUSH1 0x4 MSTORE PUSH1 0x24 SWAP1 REVERT JUMPDEST PUSH1 0x1 SWAP2 SWAP3 PUSH1 0x2 PUSH1 0x20 PUSH1 0x40 MLOAD SWAP6 PUSH2 0x1AAD DUP8 PUSH2 0x1553 JUMP JUMPDEST DUP6 DUP1 PUSH1 0xA0 SHL SUB SWAP1 DUP2 DUP2 AND DUP9 MSTORE DUP5 DUP4 DUP10 ADD MSTORE PUSH1 0x40 MLOAD SWAP5 PUSH2 0x1ACB DUP7 PUSH2 0x1553 JUMP JUMPDEST PUSH1 0x0 DUP7 MSTORE DUP4 DUP7 ADD SWAP9 DUP10 MSTORE DUP7 SLOAD PUSH1 0x40 MLOAD PUSH1 0x60 SWAP4 SWAP1 SWAP4 SHL PUSH12 0xFFFFFFFFFFFFFFFFFFFFFFFF NOT AND DUP4 DUP7 ADD SWAP1 DUP2 MSTORE PUSH1 0x14 DUP2 ADD SWAP3 SWAP1 SWAP3 MSTORE PUSH1 0x34 DUP3 ADD MSTORE TIMESTAMP PUSH1 0x54 DUP3 ADD MSTORE PREVRANDAO PUSH1 0x74 DUP3 ADD MSTORE SWAP1 PUSH2 0x1B1C DUP2 PUSH1 0x94 DUP5 ADD PUSH2 0x1A1E JUMP JUMPDEST MLOAD SWAP1 KECCAK256 SWAP7 DUP8 PUSH1 0x0 MSTORE PUSH1 0x3 DUP7 ADD DUP4 MSTORE PUSH1 0x40 PUSH1 0x0 KECCAK256 SWAP5 MLOAD DUP6 SSTORE DUP7 DUP6 ADD SWAP1 MLOAD SWAP2 DUP3 MLOAD AND PUSH1 0x1 PUSH1 0x1 PUSH1 0x60 SHL SUB PUSH1 0xA0 SHL DUP3 SLOAD AND OR SWAP1 SSTORE ADD MLOAD SWAP2 ADD SSTORE DUP3 DUP3 DUP3 ADD SSTORE DUP3 PUSH1 0x2 DUP3 ADD SSTORE SSTORE SWAP1 JUMP JUMPDEST DUP1 SLOAD DUP3 LT ISZERO PUSH2 0x15FD JUMPI PUSH1 0x0 MSTORE PUSH1 0x3 PUSH1 0x20 PUSH1 0x0 KECCAK256 SWAP2 MUL ADD SWAP1 PUSH1 0x0 SWAP1 JUMP JUMPDEST SWAP2 SWAP1 PUSH2 0x1B9D JUMPI PUSH1 0x40 DUP2 PUSH1 0x2 SWAP3 MLOAD DUP5 SSTORE PUSH1 0x20 DUP2 ADD MLOAD PUSH1 0x1 DUP6 ADD SSTORE ADD MLOAD SWAP2 ADD SSTORE JUMP JUMPDEST PUSH4 0x4E487B71 PUSH1 0xE0 SHL PUSH1 0x0 MSTORE PUSH1 0x0 PUSH1 0x4 MSTORE PUSH1 0x24 PUSH1 0x0 REVERT JUMPDEST SWAP4 SWAP1 SWAP3 SWAP2 SWAP4 PUSH1 0x1 DUP2 ADD SWAP2 PUSH1 0x0 SWAP4 DUP7 DUP6 MSTORE DUP4 PUSH1 0x20 MSTORE PUSH1 0x40 SWAP6 DUP7 DUP7 KECCAK256 SLOAD ISZERO PUSH1 0x0 EQ PUSH2 0x1C55 JUMPI PUSH1 0x1 DUP1 PUSH1 0xA0 SHL SUB AND SWAP2 DUP3 DUP7 MSTORE DUP4 PUSH1 0x20 MSTORE DUP7 DUP7 KECCAK256 SWAP1 DUP8 MLOAD SWAP3 PUSH2 0x1BF6 DUP5 PUSH2 0x156F JUMP JUMPDEST DUP10 DUP5 MSTORE PUSH1 0x20 DUP5 ADD MSTORE DUP8 DUP4 ADD MSTORE DUP1 SLOAD SWAP1 PUSH1 0x1 PUSH1 0x40 SHL DUP3 LT ISZERO PUSH2 0x1C41 JUMPI DUP2 PUSH2 0x1C25 SWAP2 PUSH1 0x1 PUSH2 0x1C2B SWAP6 SWAP5 ADD DUP2 SSTORE PUSH2 0x1B61 JUMP JUMPDEST SWAP1 PUSH2 0x1B7D JUMP JUMPDEST DUP4 MSTORE PUSH1 0x20 MSTORE DUP3 DUP3 KECCAK256 SLOAD SWAP4 DUP3 MSTORE PUSH1 0x20 MSTORE KECCAK256 SSTORE PUSH1 0x1 SWAP1 JUMP JUMPDEST PUSH4 0x4E487B71 PUSH1 0xE0 SHL DUP8 MSTORE PUSH1 0x41 PUSH1 0x4 MSTORE PUSH1 0x24 DUP8 REVERT JUMPDEST POP POP POP POP POP SWAP2 POP POP SWAP1 JUMP JUMPDEST SWAP1 DUP2 PUSH1 0x20 SWAP2 SUB SLT PUSH2 0x16E JUMPI MLOAD PUSH1 0xFF DUP2 AND DUP2 SUB PUSH2 0x16E JUMPI SWAP1 JUMP JUMPDEST PUSH1 0x40 MLOAD PUSH4 0x48D399E7 PUSH1 0xE0 SHL DUP2 MSTORE PUSH1 0x20 SWAP3 SWAP2 PUSH1 0x1 PUSH1 0x1 PUSH1 0xA0 SHL SUB SWAP1 DUP2 AND SWAP2 DUP5 DUP2 PUSH1 0x4 DUP2 DUP7 GAS STATICCALL SWAP2 DUP3 ISZERO PUSH2 0x1D0D JUMPI DUP6 SWAP2 PUSH1 0x0 SWAP4 PUSH2 0x1D19 JUMPI JUMPDEST POP POP PUSH1 0x40 MLOAD PUSH4 0xEC9C6C3 PUSH1 0xE4 SHL DUP2 MSTORE SWAP2 SWAP3 DUP3 SWAP1 PUSH1 0x4 SWAP1 DUP3 SWAP1 GAS STATICCALL SWAP4 DUP5 ISZERO PUSH2 0x1D0D JUMPI PUSH1 0x0 SWAP5 PUSH2 0x1CDE JUMPI JUMPDEST POP POP SWAP2 SWAP1 JUMP JUMPDEST PUSH2 0x1CFE SWAP3 SWAP5 POP DUP1 RETURNDATASIZE LT PUSH2 0x1D06 JUMPI JUMPDEST PUSH2 0x1CF6 DUP2 DUP4 PUSH2 0x158B JUMP JUMPDEST DUP2 ADD SWAP1 PUSH2 0x1C60 JUMP JUMPDEST SWAP2 CODESIZE DUP1 PUSH2 0x1CD8 JUMP JUMPDEST POP RETURNDATASIZE PUSH2 0x1CEC JUMP JUMPDEST PUSH1 0x40 MLOAD RETURNDATASIZE PUSH1 0x0 DUP3 RETURNDATACOPY RETURNDATASIZE SWAP1 REVERT JUMPDEST SWAP1 SWAP3 SWAP2 DUP2 DUP2 RETURNDATASIZE DUP4 GT PUSH2 0x1D53 JUMPI JUMPDEST PUSH2 0x1D30 DUP2 DUP4 PUSH2 0x158B JUMP JUMPDEST DUP2 ADD SUB SLT PUSH2 0x1D4F JUMPI MLOAD SWAP2 DUP3 AND DUP3 SUB PUSH2 0x1D4C JUMPI POP DUP4 PUSH1 0x4 CODESIZE PUSH2 0x1CAF JUMP JUMPDEST DUP1 REVERT JUMPDEST POP DUP1 REVERT JUMPDEST POP RETURNDATASIZE PUSH2 0x1D26 JUMP JUMPDEST PUSH1 0x40 MLOAD PUSH4 0xA9059CBB PUSH1 0xE0 SHL PUSH1 0x0 SWAP1 DUP2 MSTORE PUSH1 0x1 PUSH1 0x1 PUSH1 0xA0 SHL SUB SWAP4 DUP5 AND PUSH1 0x4 MSTORE PUSH1 0x24 SWAP5 SWAP1 SWAP5 MSTORE SWAP3 PUSH1 0x20 SWAP1 PUSH1 0x44 DUP2 DUP1 DUP6 GAS CALL PUSH1 0x1 PUSH1 0x0 MLOAD EQ DUP2 AND ISZERO PUSH2 0x1DA5 JUMPI JUMPDEST DUP4 PUSH1 0x40 MSTORE ISZERO PUSH2 0x1957 JUMPI POP POP POP JUMP JUMPDEST PUSH1 0x1 DUP2 ISZERO AND PUSH2 0x1983 JUMPI DUP2 EXTCODESIZE ISZERO ISZERO RETURNDATASIZE ISZERO AND AND PUSH2 0x1D97 JUMP JUMPDEST DUP2 SELFBALANCE LT PUSH2 0x1E20 JUMPI PUSH1 0x40 MLOAD PUSH1 0x20 DUP2 ADD DUP2 DUP2 LT PUSH8 0xFFFFFFFFFFFFFFFF DUP3 GT OR PUSH2 0x81F JUMPI PUSH1 0x40 MSTORE PUSH1 0x0 DUP1 DUP1 SWAP5 DUP2 SWAP5 DUP3 DUP1 SWAP6 MSTORE PUSH1 0x1 DUP1 PUSH1 0xA0 SHL SUB AND GAS CALL ISZERO PUSH2 0x1DFC JUMPI POP JUMP JUMPDEST RETURNDATASIZE ISZERO PUSH2 0x1E0E JUMPI PUSH1 0x40 MLOAD SWAP1 RETURNDATASIZE SWAP1 DUP3 RETURNDATACOPY RETURNDATASIZE SWAP1 REVERT JUMPDEST PUSH1 0x40 MLOAD PUSH4 0xD6BDA275 PUSH1 0xE0 SHL DUP2 MSTORE PUSH1 0x4 SWAP1 REVERT JUMPDEST PUSH1 0x40 MLOAD PUSH4 0xCF479181 PUSH1 0xE0 SHL DUP2 MSTORE SELFBALANCE PUSH1 0x4 DUP3 ADD MSTORE PUSH1 0x24 DUP2 ADD DUP4 SWAP1 MSTORE PUSH1 0x44 SWAP1 REVERT JUMPDEST ISZERO PUSH2 0x1E46 JUMPI JUMP JUMPDEST PUSH1 0x40 MLOAD PUSH3 0x461BCD PUSH1 0xE5 SHL DUP2 MSTORE PUSH1 0x20 PUSH1 0x4 DUP3 ADD MSTORE PUSH1 0x22 PUSH1 0x24 DUP3 ADD MSTORE PUSH32 0x556E617574686F726973656420746F2064656C6574652074686973206F726465 PUSH1 0x44 DUP3 ADD MSTORE PUSH2 0x3917 PUSH1 0xF1 SHL PUSH1 0x64 DUP3 ADD MSTORE PUSH1 0x84 SWAP1 REVERT JUMPDEST SWAP2 SWAP1 PUSH1 0x1 SWAP2 DUP3 DUP5 ADD DUP3 DUP2 SLOAD EQ PUSH2 0x1F96 JUMPI PUSH1 0x3 DUP6 SWAP5 SWAP4 SWAP6 ADD SWAP1 SLOAD SWAP4 DUP4 PUSH1 0x0 SWAP4 DUP7 DUP6 MSTORE PUSH1 0x20 SWAP3 DUP5 PUSH1 0x20 MSTORE PUSH1 0x40 SWAP8 DUP9 DUP8 KECCAK256 SLOAD SWAP1 DUP5 JUMPDEST PUSH2 0x1F07 JUMPI JUMPDEST DUP10 MLOAD PUSH3 0x461BCD PUSH1 0xE5 SHL DUP2 MSTORE PUSH1 0x20 PUSH1 0x4 DUP3 ADD MSTORE PUSH1 0x13 PUSH1 0x24 DUP3 ADD MSTORE PUSH19 0x27B93232B91024A2103737BA103337BAB73217 PUSH1 0x69 SHL PUSH1 0x44 DUP3 ADD MSTORE PUSH1 0x64 SWAP1 REVERT JUMPDEST DUP3 SWAP10 SWAP9 SWAP10 SLOAD DUP6 LT ISZERO PUSH2 0x1F8E JUMPI DUP11 DUP3 EQ PUSH2 0x1F33 JUMPI POP DUP1 DUP8 MSTORE DUP6 DUP6 MSTORE DUP8 DUP8 KECCAK256 SLOAD SWAP8 SWAP9 SWAP8 SWAP4 DUP9 ADD SWAP4 SWAP1 DUP9 PUSH2 0x1EC8 JUMP JUMPDEST SWAP2 SWAP7 SWAP8 SWAP4 POP SWAP2 SWAP9 SWAP5 PUSH1 0x2 SWAP5 DUP9 SWAP7 DUP8 MSTORE DUP2 DUP2 MSTORE PUSH2 0x1F5D PUSH1 0x1 DUP1 PUSH1 0xA0 SHL SUB DUP12 DUP8 DUP11 KECCAK256 ADD SLOAD AND CALLER EQ PUSH2 0x1E3F JUMP JUMPDEST DUP4 DUP8 MSTORE MSTORE DUP3 DUP6 KECCAK256 SLOAD SWAP1 DUP6 MSTORE DUP3 DUP6 KECCAK256 SSTORE DUP4 MSTORE DUP3 KECCAK256 DUP3 DUP2 SSTORE DUP3 DUP7 DUP3 ADD SSTORE ADD SSTORE DUP1 SLOAD SWAP2 PUSH1 0x0 NOT DUP4 ADD SWAP3 DUP4 GT PUSH2 0x1A84 JUMPI POP SSTORE SWAP1 JUMP JUMPDEST DUP9 SWAP10 POP PUSH2 0x1ECD JUMP JUMPDEST POP SWAP3 PUSH2 0x1FC5 SWAP2 PUSH1 0x0 MSTORE PUSH1 0x3 DUP2 ADD PUSH1 0x20 MSTORE PUSH2 0x1FC0 PUSH1 0x1 DUP1 PUSH1 0xA0 SHL SUB DUP5 PUSH1 0x40 PUSH1 0x0 KECCAK256 ADD SLOAD AND CALLER EQ PUSH2 0x1E3F JUMP JUMPDEST PUSH2 0x238E JUMP JUMPDEST POP SWAP1 JUMP JUMPDEST SWAP1 PUSH1 0x1 DUP3 ADD SWAP1 PUSH1 0x0 SWAP4 DUP1 DUP6 MSTORE PUSH1 0x20 SWAP2 DUP4 DUP4 MSTORE PUSH1 0x40 SWAP5 DUP6 DUP8 KECCAK256 SLOAD SWAP2 DUP3 ISZERO ISZERO PUSH1 0x0 EQ PUSH2 0x2117 JUMPI PUSH1 0x0 NOT SWAP3 DUP1 DUP5 ADD SWAP2 DUP2 DUP4 GT PUSH2 0x2103 JUMPI PUSH1 0x1 PUSH1 0x1 PUSH1 0xA0 SHL SUB AND DUP1 DUP11 MSTORE DUP4 DUP8 MSTORE DUP9 DUP11 KECCAK256 SLOAD SWAP1 SWAP3 DUP6 DUP3 ADD SWAP2 DUP3 GT PUSH2 0x20EF JUMPI DUP8 DUP3 DUP3 DUP13 SWAP4 DUP15 SWAP6 SUB PUSH2 0x2090 JUMPI JUMPDEST POP POP POP POP SWAP1 POP MSTORE DUP4 MSTORE DUP5 DUP7 KECCAK256 SWAP1 DUP2 SLOAD DUP1 ISZERO PUSH2 0x207C JUMPI ADD SWAP1 PUSH2 0x2049 DUP3 DUP3 PUSH2 0x1B61 JUMP JUMPDEST PUSH2 0x2068 JUMPI PUSH1 0x2 DUP2 DUP10 DUP1 SWAP4 SSTORE DUP3 PUSH1 0x1 DUP3 ADD SSTORE ADD SSTORE SSTORE DUP5 MSTORE MSTORE DUP2 KECCAK256 SSTORE PUSH1 0x1 SWAP1 JUMP JUMPDEST PUSH4 0x4E487B71 PUSH1 0xE0 SHL DUP9 MSTORE PUSH1 0x4 DUP9 SWAP1 MSTORE PUSH1 0x24 DUP9 REVERT JUMPDEST PUSH4 0x4E487B71 PUSH1 0xE0 SHL DUP9 MSTORE PUSH1 0x31 PUSH1 0x4 MSTORE PUSH1 0x24 DUP9 REVERT JUMPDEST PUSH2 0x20DA SWAP4 PUSH2 0x20A9 PUSH2 0x1C25 SWAP4 DUP10 DUP9 MSTORE DUP11 DUP7 MSTORE DUP3 DUP9 KECCAK256 PUSH2 0x1B61 JUMP JUMPDEST POP SWAP6 PUSH1 0x2 DUP3 MLOAD SWAP8 DUP9 SWAP7 PUSH2 0x20BB DUP9 PUSH2 0x156F JUMP JUMPDEST DUP2 SLOAD DUP9 MSTORE PUSH1 0x1 DUP3 ADD SLOAD SWAP1 DUP9 ADD MSTORE ADD SLOAD DUP3 DUP7 ADD MSTORE DUP9 DUP2 MSTORE DUP10 DUP14 MSTORE KECCAK256 PUSH2 0x1B61 JUMP JUMPDEST MLOAD DUP10 MSTORE DUP7 DUP7 MSTORE DUP8 DUP10 KECCAK256 SSTORE CODESIZE DUP9 DUP9 DUP8 DUP4 DUP1 PUSH2 0x2028 JUMP JUMPDEST PUSH4 0x4E487B71 PUSH1 0xE0 SHL DUP12 MSTORE PUSH1 0x11 PUSH1 0x4 MSTORE PUSH1 0x24 DUP12 REVERT JUMPDEST PUSH4 0x4E487B71 PUSH1 0xE0 SHL DUP11 MSTORE PUSH1 0x11 PUSH1 0x4 MSTORE PUSH1 0x24 DUP11 REVERT JUMPDEST POP POP POP POP POP POP POP SWAP1 JUMP JUMPDEST PUSH1 0x1 PUSH1 0x1 PUSH1 0xA0 SHL SUB SWAP1 DUP2 AND PUSH1 0x0 DUP2 DUP2 MSTORE PUSH1 0x3 PUSH1 0x20 SWAP1 DUP2 MSTORE PUSH1 0x40 DUP1 DUP4 KECCAK256 SWAP6 SWAP1 SWAP5 AND DUP1 DUP4 MSTORE SWAP5 DUP2 MSTORE DUP4 DUP3 KECCAK256 DUP7 DUP4 MSTORE DUP2 MSTORE DUP4 DUP3 KECCAK256 SLOAD SWAP3 SWAP6 SWAP5 SWAP2 SWAP3 ISZERO DUP1 PUSH2 0x21B0 JUMPI JUMPDEST PUSH2 0x216C JUMPI JUMPDEST POP POP POP POP POP POP JUMP JUMPDEST DUP6 PUSH2 0x21A5 SWAP7 DUP5 MSTORE PUSH1 0x9 DUP3 MSTORE DUP5 DUP5 KECCAK256 DUP4 DUP6 MSTORE DUP3 MSTORE DUP5 DUP5 KECCAK256 DUP7 DUP6 MSTORE DUP3 MSTORE DUP5 DUP5 KECCAK256 PUSH1 0xFF NOT DUP2 SLOAD AND SWAP1 SSTORE DUP4 MSTORE PUSH1 0x8 DUP2 MSTORE DUP4 DUP4 KECCAK256 SWAP2 DUP4 MSTORE MSTORE KECCAK256 PUSH2 0x23CF JUMP JUMPDEST CODESIZE DUP1 DUP1 DUP1 DUP1 DUP1 PUSH2 0x2164 JUMP JUMPDEST POP DUP6 DUP4 MSTORE PUSH1 0x4 DUP2 MSTORE DUP4 DUP4 KECCAK256 DUP3 DUP5 MSTORE DUP2 MSTORE DUP4 DUP4 KECCAK256 DUP6 DUP5 MSTORE DUP2 MSTORE DUP4 DUP4 KECCAK256 SLOAD ISZERO PUSH2 0x215F JUMP JUMPDEST PUSH1 0x1 PUSH1 0x1 PUSH1 0xA0 SHL SUB SWAP1 DUP2 AND PUSH1 0x0 DUP2 DUP2 MSTORE PUSH1 0x3 PUSH1 0x20 SWAP1 DUP2 MSTORE PUSH1 0x40 DUP1 DUP4 KECCAK256 SWAP6 SWAP1 SWAP5 AND DUP1 DUP4 MSTORE SWAP5 DUP2 MSTORE DUP4 DUP3 KECCAK256 DUP7 DUP4 MSTORE DUP2 MSTORE DUP4 DUP3 KECCAK256 SLOAD SWAP3 SWAP6 SWAP5 SWAP2 SWAP3 ISZERO DUP1 PUSH2 0x2255 JUMPI JUMPDEST PUSH2 0x221C JUMPI POP POP POP POP POP POP JUMP JUMPDEST DUP6 PUSH2 0x21A5 SWAP7 DUP5 MSTORE PUSH1 0x9 DUP3 MSTORE DUP5 DUP5 KECCAK256 DUP4 DUP6 MSTORE DUP3 MSTORE DUP5 DUP5 KECCAK256 DUP7 DUP6 MSTORE DUP3 MSTORE DUP5 DUP5 KECCAK256 PUSH1 0xFF NOT DUP2 SLOAD AND SWAP1 SSTORE DUP4 MSTORE PUSH1 0x7 DUP2 MSTORE DUP4 DUP4 KECCAK256 SWAP2 DUP4 MSTORE MSTORE KECCAK256 PUSH2 0x23CF JUMP JUMPDEST POP DUP6 DUP4 MSTORE PUSH1 0x4 DUP2 MSTORE DUP4 DUP4 KECCAK256 DUP3 DUP5 MSTORE DUP2 MSTORE DUP4 DUP4 KECCAK256 DUP6 DUP5 MSTORE DUP2 MSTORE DUP4 DUP4 KECCAK256 SLOAD ISZERO PUSH2 0x2210 JUMP JUMPDEST PUSH1 0x0 SLOAD PUSH1 0x1 PUSH1 0x1 PUSH1 0xA0 SHL SUB AND CALLER SUB PUSH2 0x228B JUMPI JUMP JUMPDEST PUSH1 0x40 MLOAD PUSH4 0x118CDAA7 PUSH1 0xE0 SHL DUP2 MSTORE CALLER PUSH1 0x4 DUP3 ADD MSTORE PUSH1 0x24 SWAP1 REVERT JUMPDEST PUSH1 0x20 PUSH2 0x22B3 PUSH1 0x4 SWAP3 SWAP5 SWAP4 SWAP5 PUSH2 0x1C79 JUMP JUMPDEST POP PUSH1 0x40 MLOAD PUSH4 0x313CE567 PUSH1 0xE0 SHL DUP2 MSTORE SWAP1 SWAP5 SWAP1 SWAP3 DUP4 SWAP2 DUP3 SWAP1 PUSH1 0x1 PUSH1 0x1 PUSH1 0xA0 SHL SUB AND GAS STATICCALL SWAP1 DUP2 ISZERO PUSH2 0x1D0D JUMPI PUSH1 0x0 SWAP2 PUSH2 0x22E6 JUMPI POP SWAP1 JUMP JUMPDEST PUSH2 0x22FF SWAP2 POP PUSH1 0x20 RETURNDATASIZE PUSH1 0x20 GT PUSH2 0x1D06 JUMPI PUSH2 0x1CF6 DUP2 DUP4 PUSH2 0x158B JUMP JUMPDEST SWAP1 JUMP JUMPDEST PUSH1 0x0 SWAP3 DUP4 MSTORE PUSH1 0x1 DUP2 ADD PUSH1 0x20 MSTORE PUSH1 0x40 DUP4 KECCAK256 SLOAD SWAP3 SWAP2 DUP4 ISZERO PUSH2 0x235D JUMPI PUSH1 0x1 PUSH1 0x1 PUSH1 0xA0 SHL SUB AND DUP3 MSTORE PUSH1 0x20 MSTORE PUSH1 0x40 DUP2 KECCAK256 PUSH1 0x0 NOT DUP4 ADD SWAP3 SWAP1 SWAP2 SWAP1 DUP4 GT PUSH2 0x1A84 JUMPI POP PUSH2 0x234C PUSH2 0x2356 SWAP3 PUSH1 0x2 SWAP3 PUSH2 0x1B61 JUMP JUMPDEST POP ADD SWAP2 DUP3 SLOAD PUSH2 0x16F8 JUMP JUMPDEST SWAP1 SSTORE PUSH1 0x1 SWAP1 JUMP JUMPDEST POP POP SWAP2 POP POP SWAP1 JUMP JUMPDEST PUSH1 0x1 PUSH1 0x1 PUSH1 0xA0 SHL SUB SWAP3 SWAP2 SWAP1 DUP4 AND DUP1 PUSH2 0x2384 JUMPI POP PUSH2 0x2382 SWAP3 AND PUSH2 0x1DBB JUMP JUMPDEST JUMP JUMPDEST PUSH2 0x2382 SWAP4 POP PUSH2 0x1D5A JUMP JUMPDEST PUSH1 0x1 DUP2 ADD SWAP1 DUP2 SLOAD PUSH1 0x2 PUSH1 0x0 SWAP4 DUP5 SWAP3 DUP4 MSTORE PUSH1 0x3 DUP5 ADD PUSH1 0x20 MSTORE PUSH1 0x40 DUP4 KECCAK256 SWAP1 DUP2 SLOAD SWAP1 SSTORE DUP3 DUP2 SSTORE DUP3 PUSH1 0x1 DUP3 ADD SSTORE ADD SSTORE DUP1 SLOAD SWAP2 PUSH1 0x0 NOT DUP4 ADD SWAP3 DUP4 GT PUSH2 0x1A84 JUMPI POP SSTORE PUSH1 0x1 SWAP1 JUMP JUMPDEST PUSH1 0x0 JUMPDEST DUP2 SLOAD SWAP1 DUP2 DUP2 LT ISZERO PUSH2 0x246A JUMPI DUP4 SWAP2 PUSH2 0x23E9 DUP3 DUP6 PUSH2 0x15E5 JUMP JUMPDEST SWAP6 SWAP1 SLOAD PUSH1 0x3 SWAP7 DUP8 SHL SHR EQ PUSH2 0x2403 JUMPI POP SWAP1 SWAP3 POP PUSH1 0x1 ADD PUSH2 0x23D2 JUMP JUMPDEST PUSH1 0x0 NOT SWAP3 POP DUP3 DUP2 ADD SWAP1 DUP2 GT PUSH2 0x809 JUMPI PUSH2 0x7B2 PUSH2 0x2422 PUSH2 0x242F SWAP3 DUP7 PUSH2 0x15E5 JUMP JUMPDEST SWAP1 SLOAD SWAP1 DUP8 SHL SHR SWAP3 DUP6 PUSH2 0x15E5 JUMP JUMPDEST SWAP1 SSTORE DUP2 SLOAD DUP1 ISZERO PUSH2 0x2454 JUMPI DUP2 ADD SWAP3 PUSH2 0x2446 DUP5 DUP5 PUSH2 0x15E5 JUMP JUMPDEST DUP2 SWAP4 SWAP2 SLOAD SWAP3 SHL SHL NOT AND SWAP1 SSTORE SSTORE JUMP JUMPDEST PUSH4 0x4E487B71 PUSH1 0xE0 SHL PUSH1 0x0 MSTORE PUSH1 0x31 PUSH1 0x4 MSTORE PUSH1 0x24 PUSH1 0x0 REVERT JUMPDEST POP POP POP POP JUMP INVALID EXTCODECOPY 0xBB 0xC8 BLOCKHASH 0x2F CALLDATASIZE 0xC5 PUSH26 0xEC0A401DEDA27129168A12E63FCC158DB749AA8BEB3B0379A264 PUSH10 0x70667358221220C47BBA 0xB4 0xB6 LOG1 PUSH18 0xB9EF40FECC4D0A729A076FA6DDCC99C7AF02 PUSH0 PUSH12 0xDCB5BACAE064736F6C634300 ADDMOD XOR STOP CALLER "},"methodIdentifiers":{"accumulatedFeeErc20(address)":"75fcb6a3","accumulatedFeeNative()":"543ddf51","buyOrderBook(address,address,uint256)":"0933b2ae","cancelBuyOrder(address,address,uint256,bytes32)":"117c0bc0","cancelSellOrder(address,address,uint256,bytes32)":"99db37c5","collectFees(address)":"a480ca79","feeRate()":"978bbdb9","getBestAsk(address,address)":"5671eed2","getBestBid(address,address)":"b9f8b5aa","marketFactory()":"06ae7095","owner()":"8da5cb5b","placeBuyOrder(address,address,uint256,uint256)":"a05118c2","placeSellOrder(address,address,uint256,uint256)":"10d16b59","renounceOwnership()":"715018a6","sellOrderBook(address,address,uint256)":"49268191","setFeeRate(uint16)":"29ff0773","transferOwnership(address)":"f2fde38b"}}}}}