{
  "_format": "hh-sol-artifact-1",
  "contractName": "AFTRVParimutuelMarket",
  "sourceName": "contracts/core/AFTRVParimutuelMarket.sol",
  "abi": [
    {
      "inputs": [
        {
          "internalType": "address",
          "name": "factory_",
          "type": "address"
        },
        {
          "internalType": "address",
          "name": "owner_",
          "type": "address"
        },
        {
          "internalType": "address",
          "name": "feeRecipient_",
          "type": "address"
        },
        {
          "internalType": "address",
          "name": "collateralAddress_",
          "type": "address"
        },
        {
          "internalType": "uint8",
          "name": "collateralDecimals_",
          "type": "uint8"
        },
        {
          "internalType": "uint8",
          "name": "numOutcomes_",
          "type": "uint8"
        },
        {
          "internalType": "uint256",
          "name": "virtualReserve_",
          "type": "uint256"
        },
        {
          "internalType": "uint256",
          "name": "stakeEndTimestamp_",
          "type": "uint256"
        },
        {
          "internalType": "uint256",
          "name": "resolveAfterTimestamp_",
          "type": "uint256"
        },
        {
          "internalType": "enum AFTRVParimutuelMarket.MarketKind",
          "name": "kind_",
          "type": "uint8"
        },
        {
          "internalType": "bytes32",
          "name": "metadataHash_",
          "type": "bytes32"
        },
        {
          "internalType": "address",
          "name": "chainlinkFeed_",
          "type": "address"
        },
        {
          "internalType": "uint256",
          "name": "priceThreshold_",
          "type": "uint256"
        },
        {
          "internalType": "enum AFTRVParimutuelMarket.PriceThresholdKind",
          "name": "priceKind_",
          "type": "uint8"
        },
        {
          "internalType": "uint256",
          "name": "priceUpperBound_",
          "type": "uint256"
        },
        {
          "internalType": "uint256",
          "name": "maxPriceStaleness_",
          "type": "uint256"
        },
        {
          "internalType": "address",
          "name": "optimisticOracleV2_",
          "type": "address"
        },
        {
          "internalType": "bytes32",
          "name": "umaIdentifier_",
          "type": "bytes32"
        },
        {
          "internalType": "uint64",
          "name": "umaLiveness_",
          "type": "uint64"
        },
        {
          "internalType": "uint256",
          "name": "umaProposerBond_",
          "type": "uint256"
        },
        {
          "internalType": "uint256",
          "name": "umaReward_",
          "type": "uint256"
        },
        {
          "internalType": "address",
          "name": "umaRewardCurrency_",
          "type": "address"
        },
        {
          "internalType": "uint256",
          "name": "minBootstrapTotal_",
          "type": "uint256"
        }
      ],
      "stateMutability": "nonpayable",
      "type": "constructor"
    },
    {
      "inputs": [],
      "name": "AlreadyBootstrapped",
      "type": "error"
    },
    {
      "inputs": [],
      "name": "AlreadyInitialized",
      "type": "error"
    },
    {
      "inputs": [],
      "name": "BelowMinBootstrap",
      "type": "error"
    },
    {
      "inputs": [],
      "name": "EthAmount",
      "type": "error"
    },
    {
      "inputs": [],
      "name": "FailedCall",
      "type": "error"
    },
    {
      "inputs": [
        {
          "internalType": "uint256",
          "name": "balance",
          "type": "uint256"
        },
        {
          "internalType": "uint256",
          "name": "needed",
          "type": "uint256"
        }
      ],
      "name": "InsufficientBalance",
      "type": "error"
    },
    {
      "inputs": [],
      "name": "InvalidOutcome",
      "type": "error"
    },
    {
      "inputs": [],
      "name": "InvalidShareRecipient",
      "type": "error"
    },
    {
      "inputs": [],
      "name": "InvalidState",
      "type": "error"
    },
    {
      "inputs": [],
      "name": "MarketNotOpen",
      "type": "error"
    },
    {
      "inputs": [],
      "name": "NoRedemption",
      "type": "error"
    },
    {
      "inputs": [],
      "name": "NotDivisibleBootstrap",
      "type": "error"
    },
    {
      "inputs": [],
      "name": "NotEventMarket",
      "type": "error"
    },
    {
      "inputs": [],
      "name": "NotInitialized",
      "type": "error"
    },
    {
      "inputs": [],
      "name": "OnlyFactory",
      "type": "error"
    },
    {
      "inputs": [
        {
          "internalType": "address",
          "name": "owner",
          "type": "address"
        }
      ],
      "name": "OwnableInvalidOwner",
      "type": "error"
    },
    {
      "inputs": [
        {
          "internalType": "address",
          "name": "account",
          "type": "address"
        }
      ],
      "name": "OwnableUnauthorizedAccount",
      "type": "error"
    },
    {
      "inputs": [],
      "name": "ReentrancyGuardReentrantCall",
      "type": "error"
    },
    {
      "inputs": [
        {
          "internalType": "address",
          "name": "token",
          "type": "address"
        }
      ],
      "name": "SafeERC20FailedOperation",
      "type": "error"
    },
    {
      "inputs": [],
      "name": "Slippage",
      "type": "error"
    },
    {
      "inputs": [],
      "name": "StakePeriodEnded",
      "type": "error"
    },
    {
      "inputs": [],
      "name": "TooEarlyToResolve",
      "type": "error"
    },
    {
      "inputs": [],
      "name": "UmaInvalidResolution",
      "type": "error"
    },
    {
      "inputs": [],
      "name": "UnexpectedEth",
      "type": "error"
    },
    {
      "inputs": [],
      "name": "ZeroShares",
      "type": "error"
    },
    {
      "anonymous": false,
      "inputs": [
        {
          "indexed": true,
          "internalType": "address",
          "name": "buyer",
          "type": "address"
        },
        {
          "indexed": true,
          "internalType": "address",
          "name": "recipient",
          "type": "address"
        },
        {
          "indexed": true,
          "internalType": "uint8",
          "name": "outcomeIndex",
          "type": "uint8"
        },
        {
          "indexed": false,
          "internalType": "uint256",
          "name": "collateralAmount",
          "type": "uint256"
        },
        {
          "indexed": false,
          "internalType": "uint256",
          "name": "sharesMinted",
          "type": "uint256"
        },
        {
          "indexed": false,
          "internalType": "uint256",
          "name": "price1e18",
          "type": "uint256"
        }
      ],
      "name": "Deposited",
      "type": "event"
    },
    {
      "anonymous": false,
      "inputs": [
        {
          "indexed": true,
          "internalType": "address",
          "name": "funder",
          "type": "address"
        },
        {
          "indexed": true,
          "internalType": "address",
          "name": "shareRecipient",
          "type": "address"
        },
        {
          "indexed": false,
          "internalType": "uint256",
          "name": "totalAmount",
          "type": "uint256"
        },
        {
          "indexed": false,
          "internalType": "uint256",
          "name": "perOutcome",
          "type": "uint256"
        }
      ],
      "name": "LiquidityBootstrapped",
      "type": "event"
    },
    {
      "anonymous": false,
      "inputs": [
        {
          "indexed": false,
          "internalType": "address[]",
          "name": "outcomeTokens",
          "type": "address[]"
        },
        {
          "indexed": false,
          "internalType": "string",
          "name": "metadataURI",
          "type": "string"
        },
        {
          "indexed": false,
          "internalType": "bytes",
          "name": "umaAncillaryData",
          "type": "bytes"
        }
      ],
      "name": "MarketInitialized",
      "type": "event"
    },
    {
      "anonymous": false,
      "inputs": [
        {
          "indexed": false,
          "internalType": "uint256",
          "name": "winningOutcomeIndex",
          "type": "uint256"
        },
        {
          "indexed": false,
          "internalType": "uint256",
          "name": "feeFromLosers",
          "type": "uint256"
        },
        {
          "indexed": false,
          "internalType": "uint256",
          "name": "distributableToWinners",
          "type": "uint256"
        }
      ],
      "name": "MarketSettled",
      "type": "event"
    },
    {
      "anonymous": false,
      "inputs": [
        {
          "indexed": true,
          "internalType": "address",
          "name": "previousOwner",
          "type": "address"
        },
        {
          "indexed": true,
          "internalType": "address",
          "name": "newOwner",
          "type": "address"
        }
      ],
      "name": "OwnershipTransferStarted",
      "type": "event"
    },
    {
      "anonymous": false,
      "inputs": [
        {
          "indexed": true,
          "internalType": "address",
          "name": "previousOwner",
          "type": "address"
        },
        {
          "indexed": true,
          "internalType": "address",
          "name": "newOwner",
          "type": "address"
        }
      ],
      "name": "OwnershipTransferred",
      "type": "event"
    },
    {
      "anonymous": false,
      "inputs": [
        {
          "indexed": true,
          "internalType": "address",
          "name": "user",
          "type": "address"
        },
        {
          "indexed": true,
          "internalType": "uint8",
          "name": "outcomeIndex",
          "type": "uint8"
        },
        {
          "indexed": false,
          "internalType": "uint256",
          "name": "shares",
          "type": "uint256"
        },
        {
          "indexed": false,
          "internalType": "uint256",
          "name": "payout",
          "type": "uint256"
        }
      ],
      "name": "TokensRedeemed",
      "type": "event"
    },
    {
      "anonymous": false,
      "inputs": [
        {
          "indexed": true,
          "internalType": "address",
          "name": "from",
          "type": "address"
        },
        {
          "indexed": true,
          "internalType": "address",
          "name": "currency",
          "type": "address"
        },
        {
          "indexed": false,
          "internalType": "uint256",
          "name": "amount",
          "type": "uint256"
        }
      ],
      "name": "UmaBondFunded",
      "type": "event"
    },
    {
      "anonymous": false,
      "inputs": [
        {
          "indexed": false,
          "internalType": "uint256",
          "name": "timestamp",
          "type": "uint256"
        },
        {
          "indexed": false,
          "internalType": "bytes",
          "name": "ancillaryData",
          "type": "bytes"
        },
        {
          "indexed": false,
          "internalType": "uint256",
          "name": "reward",
          "type": "uint256"
        }
      ],
      "name": "UmaResolutionRequested",
      "type": "event"
    },
    {
      "inputs": [],
      "name": "BOOTSTRAP_FEE_BPS",
      "outputs": [
        {
          "internalType": "uint256",
          "name": "",
          "type": "uint256"
        }
      ],
      "stateMutability": "view",
      "type": "function"
    },
    {
      "inputs": [],
      "name": "BPS_DENOMINATOR",
      "outputs": [
        {
          "internalType": "uint256",
          "name": "",
          "type": "uint256"
        }
      ],
      "stateMutability": "view",
      "type": "function"
    },
    {
      "inputs": [],
      "name": "LOSER_FEE_TOTAL_BPS",
      "outputs": [
        {
          "internalType": "uint256",
          "name": "",
          "type": "uint256"
        }
      ],
      "stateMutability": "view",
      "type": "function"
    },
    {
      "inputs": [],
      "name": "UMA_BINARY_WIN_OUTCOME0",
      "outputs": [
        {
          "internalType": "uint256",
          "name": "",
          "type": "uint256"
        }
      ],
      "stateMutability": "view",
      "type": "function"
    },
    {
      "inputs": [],
      "name": "acceptOwnership",
      "outputs": [],
      "stateMutability": "nonpayable",
      "type": "function"
    },
    {
      "inputs": [],
      "name": "bootstrapFunder",
      "outputs": [
        {
          "internalType": "address",
          "name": "",
          "type": "address"
        }
      ],
      "stateMutability": "view",
      "type": "function"
    },
    {
      "inputs": [
        {
          "internalType": "uint256",
          "name": "totalAmount",
          "type": "uint256"
        },
        {
          "internalType": "address",
          "name": "shareRecipient",
          "type": "address"
        }
      ],
      "name": "bootstrapLiquidity",
      "outputs": [],
      "stateMutability": "payable",
      "type": "function"
    },
    {
      "inputs": [],
      "name": "bootstrapped",
      "outputs": [
        {
          "internalType": "bool",
          "name": "",
          "type": "bool"
        }
      ],
      "stateMutability": "view",
      "type": "function"
    },
    {
      "inputs": [],
      "name": "chainlinkFeed",
      "outputs": [
        {
          "internalType": "address",
          "name": "",
          "type": "address"
        }
      ],
      "stateMutability": "view",
      "type": "function"
    },
    {
      "inputs": [],
      "name": "collateralAddress",
      "outputs": [
        {
          "internalType": "address",
          "name": "",
          "type": "address"
        }
      ],
      "stateMutability": "view",
      "type": "function"
    },
    {
      "inputs": [],
      "name": "collateralDecimals",
      "outputs": [
        {
          "internalType": "uint8",
          "name": "",
          "type": "uint8"
        }
      ],
      "stateMutability": "view",
      "type": "function"
    },
    {
      "inputs": [
        {
          "internalType": "uint8",
          "name": "outcomeIndex",
          "type": "uint8"
        },
        {
          "internalType": "uint256",
          "name": "amount",
          "type": "uint256"
        },
        {
          "internalType": "address",
          "name": "recipient",
          "type": "address"
        },
        {
          "internalType": "uint256",
          "name": "minSharesOut",
          "type": "uint256"
        }
      ],
      "name": "deposit",
      "outputs": [],
      "stateMutability": "payable",
      "type": "function"
    },
    {
      "inputs": [],
      "name": "factory",
      "outputs": [
        {
          "internalType": "address",
          "name": "",
          "type": "address"
        }
      ],
      "stateMutability": "view",
      "type": "function"
    },
    {
      "inputs": [],
      "name": "feeRecipient",
      "outputs": [
        {
          "internalType": "address",
          "name": "",
          "type": "address"
        }
      ],
      "stateMutability": "view",
      "type": "function"
    },
    {
      "inputs": [
        {
          "internalType": "uint256",
          "name": "amount",
          "type": "uint256"
        }
      ],
      "name": "fundUmaBond",
      "outputs": [],
      "stateMutability": "nonpayable",
      "type": "function"
    },
    {
      "inputs": [
        {
          "internalType": "address[]",
          "name": "outcomeTokenAddresses",
          "type": "address[]"
        },
        {
          "internalType": "uint256[]",
          "name": "binLower",
          "type": "uint256[]"
        },
        {
          "internalType": "uint256[]",
          "name": "binUpper",
          "type": "uint256[]"
        },
        {
          "internalType": "string",
          "name": "metadataURI_",
          "type": "string"
        },
        {
          "internalType": "bytes",
          "name": "umaAncillaryData_",
          "type": "bytes"
        }
      ],
      "name": "initialize",
      "outputs": [],
      "stateMutability": "nonpayable",
      "type": "function"
    },
    {
      "inputs": [],
      "name": "initialized",
      "outputs": [
        {
          "internalType": "bool",
          "name": "",
          "type": "bool"
        }
      ],
      "stateMutability": "view",
      "type": "function"
    },
    {
      "inputs": [],
      "name": "marketKind",
      "outputs": [
        {
          "internalType": "enum AFTRVParimutuelMarket.MarketKind",
          "name": "",
          "type": "uint8"
        }
      ],
      "stateMutability": "view",
      "type": "function"
    },
    {
      "inputs": [],
      "name": "maxPriceStaleness",
      "outputs": [
        {
          "internalType": "uint256",
          "name": "",
          "type": "uint256"
        }
      ],
      "stateMutability": "view",
      "type": "function"
    },
    {
      "inputs": [],
      "name": "metadataHash",
      "outputs": [
        {
          "internalType": "bytes32",
          "name": "",
          "type": "bytes32"
        }
      ],
      "stateMutability": "view",
      "type": "function"
    },
    {
      "inputs": [],
      "name": "metadataURI",
      "outputs": [
        {
          "internalType": "string",
          "name": "",
          "type": "string"
        }
      ],
      "stateMutability": "view",
      "type": "function"
    },
    {
      "inputs": [],
      "name": "minBootstrapTotal",
      "outputs": [
        {
          "internalType": "uint256",
          "name": "",
          "type": "uint256"
        }
      ],
      "stateMutability": "view",
      "type": "function"
    },
    {
      "inputs": [],
      "name": "numOutcomes",
      "outputs": [
        {
          "internalType": "uint8",
          "name": "",
          "type": "uint8"
        }
      ],
      "stateMutability": "view",
      "type": "function"
    },
    {
      "inputs": [],
      "name": "optimisticOracleV2",
      "outputs": [
        {
          "internalType": "contract IAFTROptimisticOracleV2",
          "name": "",
          "type": "address"
        }
      ],
      "stateMutability": "view",
      "type": "function"
    },
    {
      "inputs": [
        {
          "internalType": "uint256",
          "name": "index",
          "type": "uint256"
        }
      ],
      "name": "outcomeToken",
      "outputs": [
        {
          "internalType": "address",
          "name": "",
          "type": "address"
        }
      ],
      "stateMutability": "view",
      "type": "function"
    },
    {
      "inputs": [],
      "name": "owner",
      "outputs": [
        {
          "internalType": "address",
          "name": "",
          "type": "address"
        }
      ],
      "stateMutability": "view",
      "type": "function"
    },
    {
      "inputs": [],
      "name": "pendingOwner",
      "outputs": [
        {
          "internalType": "address",
          "name": "",
          "type": "address"
        }
      ],
      "stateMutability": "view",
      "type": "function"
    },
    {
      "inputs": [
        {
          "internalType": "uint256",
          "name": "",
          "type": "uint256"
        }
      ],
      "name": "priceBinLower",
      "outputs": [
        {
          "internalType": "uint256",
          "name": "",
          "type": "uint256"
        }
      ],
      "stateMutability": "view",
      "type": "function"
    },
    {
      "inputs": [
        {
          "internalType": "uint256",
          "name": "",
          "type": "uint256"
        }
      ],
      "name": "priceBinUpper",
      "outputs": [
        {
          "internalType": "uint256",
          "name": "",
          "type": "uint256"
        }
      ],
      "stateMutability": "view",
      "type": "function"
    },
    {
      "inputs": [
        {
          "internalType": "uint8",
          "name": "outcomeIndex",
          "type": "uint8"
        }
      ],
      "name": "priceOf",
      "outputs": [
        {
          "internalType": "uint256",
          "name": "",
          "type": "uint256"
        }
      ],
      "stateMutability": "view",
      "type": "function"
    },
    {
      "inputs": [],
      "name": "priceThreshold",
      "outputs": [
        {
          "internalType": "uint256",
          "name": "",
          "type": "uint256"
        }
      ],
      "stateMutability": "view",
      "type": "function"
    },
    {
      "inputs": [],
      "name": "priceThresholdKind",
      "outputs": [
        {
          "internalType": "enum AFTRVParimutuelMarket.PriceThresholdKind",
          "name": "",
          "type": "uint8"
        }
      ],
      "stateMutability": "view",
      "type": "function"
    },
    {
      "inputs": [],
      "name": "priceUpperBound",
      "outputs": [
        {
          "internalType": "uint256",
          "name": "",
          "type": "uint256"
        }
      ],
      "stateMutability": "view",
      "type": "function"
    },
    {
      "inputs": [
        {
          "internalType": "uint256",
          "name": "",
          "type": "uint256"
        }
      ],
      "name": "realPool",
      "outputs": [
        {
          "internalType": "uint256",
          "name": "",
          "type": "uint256"
        }
      ],
      "stateMutability": "view",
      "type": "function"
    },
    {
      "inputs": [
        {
          "internalType": "uint8",
          "name": "outcomeIndex",
          "type": "uint8"
        },
        {
          "internalType": "uint256",
          "name": "shareAmount",
          "type": "uint256"
        }
      ],
      "name": "redeem",
      "outputs": [],
      "stateMutability": "nonpayable",
      "type": "function"
    },
    {
      "inputs": [],
      "name": "redemptionRate",
      "outputs": [
        {
          "internalType": "uint256",
          "name": "",
          "type": "uint256"
        }
      ],
      "stateMutability": "view",
      "type": "function"
    },
    {
      "inputs": [],
      "name": "renounceOwnership",
      "outputs": [],
      "stateMutability": "nonpayable",
      "type": "function"
    },
    {
      "inputs": [],
      "name": "requestEventResolution",
      "outputs": [],
      "stateMutability": "nonpayable",
      "type": "function"
    },
    {
      "inputs": [],
      "name": "resolveAfterTimestamp",
      "outputs": [
        {
          "internalType": "uint256",
          "name": "",
          "type": "uint256"
        }
      ],
      "stateMutability": "view",
      "type": "function"
    },
    {
      "inputs": [],
      "name": "settlePrice",
      "outputs": [],
      "stateMutability": "nonpayable",
      "type": "function"
    },
    {
      "inputs": [],
      "name": "settleWithUmaResult",
      "outputs": [],
      "stateMutability": "nonpayable",
      "type": "function"
    },
    {
      "inputs": [],
      "name": "settledOraclePrice",
      "outputs": [
        {
          "internalType": "int256",
          "name": "",
          "type": "int256"
        }
      ],
      "stateMutability": "view",
      "type": "function"
    },
    {
      "inputs": [],
      "name": "settlementTimestamp",
      "outputs": [
        {
          "internalType": "uint256",
          "name": "",
          "type": "uint256"
        }
      ],
      "stateMutability": "view",
      "type": "function"
    },
    {
      "inputs": [],
      "name": "stakeEndTimestamp",
      "outputs": [
        {
          "internalType": "uint256",
          "name": "",
          "type": "uint256"
        }
      ],
      "stateMutability": "view",
      "type": "function"
    },
    {
      "inputs": [],
      "name": "state",
      "outputs": [
        {
          "internalType": "enum AFTRVParimutuelMarket.MarketState",
          "name": "",
          "type": "uint8"
        }
      ],
      "stateMutability": "view",
      "type": "function"
    },
    {
      "inputs": [
        {
          "internalType": "address",
          "name": "newOwner",
          "type": "address"
        }
      ],
      "name": "transferOwnership",
      "outputs": [],
      "stateMutability": "nonpayable",
      "type": "function"
    },
    {
      "inputs": [],
      "name": "umaAncillaryData",
      "outputs": [
        {
          "internalType": "bytes",
          "name": "",
          "type": "bytes"
        }
      ],
      "stateMutability": "view",
      "type": "function"
    },
    {
      "inputs": [],
      "name": "umaIdentifier",
      "outputs": [
        {
          "internalType": "bytes32",
          "name": "",
          "type": "bytes32"
        }
      ],
      "stateMutability": "view",
      "type": "function"
    },
    {
      "inputs": [],
      "name": "umaLiveness",
      "outputs": [
        {
          "internalType": "uint64",
          "name": "",
          "type": "uint64"
        }
      ],
      "stateMutability": "view",
      "type": "function"
    },
    {
      "inputs": [],
      "name": "umaProposerBond",
      "outputs": [
        {
          "internalType": "uint256",
          "name": "",
          "type": "uint256"
        }
      ],
      "stateMutability": "view",
      "type": "function"
    },
    {
      "inputs": [],
      "name": "umaRequestTimestamp",
      "outputs": [
        {
          "internalType": "uint256",
          "name": "",
          "type": "uint256"
        }
      ],
      "stateMutability": "view",
      "type": "function"
    },
    {
      "inputs": [],
      "name": "umaReward",
      "outputs": [
        {
          "internalType": "uint256",
          "name": "",
          "type": "uint256"
        }
      ],
      "stateMutability": "view",
      "type": "function"
    },
    {
      "inputs": [],
      "name": "umaRewardCurrency",
      "outputs": [
        {
          "internalType": "address",
          "name": "",
          "type": "address"
        }
      ],
      "stateMutability": "view",
      "type": "function"
    },
    {
      "inputs": [],
      "name": "virtualReserve",
      "outputs": [
        {
          "internalType": "uint256",
          "name": "",
          "type": "uint256"
        }
      ],
      "stateMutability": "view",
      "type": "function"
    },
    {
      "inputs": [],
      "name": "winningOutcomeIndex",
      "outputs": [
        {
          "internalType": "uint256",
          "name": "",
          "type": "uint256"
        }
      ],
      "stateMutability": "view",
      "type": "function"
    },
    {
      "stateMutability": "payable",
      "type": "receive"
    }
  ],
  "bytecode": "0x34620008e35762003ff938819003610400601f8201601f19168101906001600160401b03821190821017620008e8576102e09282916040526104003912620008e3576200004e610400620008fe565b6200005b610420620008fe565b6103e0526200006c610440620008fe565b62000079610460620008fe565b6200008661048062000913565b620000936104a062000913565b6104c0516104e0516105005161052051906002821015620008e3576105405190620000c0610560620008fe565b6103405261058051610360526105a05161038081905260031115620008e3576105c0516103a0526105e0516103c052620000fc610600620008fe565b6106205161064051979096919591906001600160401b0389168903620008e35761066051610680519b909a90620001356106a0620008fe565b9d6102c061040001519f60018060a01b036103e0511615620008ca57600180546001600160a01b0319908116909155600080546103e0516001600160a01b039081169382168417835560405193929116907f8be0079c531659141344cd1fd0a4f28419497f9722a3daafe3b4186f6b6457e09080a360017f9b779b17422d0df92223018b32b4d1fa46e071723d6817e2486d003becc55f00556001600160a01b038216151580620008c1575b80620008ae575b156200087d575060ff85166002811015908162000870575b50156200083a578515620008035742871115620007cd57868811156200079857881562000768576001600160a01b0383161562000729575b60805260a05260c05260e0526101005261012052610140526101605281610180526101a05215600014620005f1575050610340516001600160a01b0316159350620005c692505050576103c0511562000595576002610380511462000553575b610340516101c052610360516101e05261038051610200526103a051610220526103c0516102405260006102605260006102805260006102a05260006102c05260006102e0526000610300525b61032052600019600a556040516136d6620009238239608051818181610edf0152611774015260a05181818161237701528181613262015281816132b101526132e6015260c05181818161048c01528181611e11015281816123320152613577015260e05181610d5801526101005181818161040a0152818161043301528181610462015281816104e101528181610f1c0152818161137b015281816114e1015281816115140152818161182301528181611b0e01528181611dd501528181612cef01528181612ec6015281816130b0015281816133ee0152613491015261012051818181611b680152612d220152610140518181816103b301528181611da601526121bd01526101605181818161085d0152818161247a01526127d801526101805181818161081601528181610f5a01528181610f810152818161100401528181611a59015281816120e101528181612207015261243a01526101a0518161173b01526101c051818181611ba101526124af01526101e0518181816116a701528181612f2c01528181612f700152612f98015261020051818181610df50152612efc01526102205181818161196d0152612fcb015261024051818181611700015261250401526102605181818161090701528181610bc80152818161229e015261273a0152610280518181816108c5015281816119a801528181612271015261339401526102a05181818161099e0152611ad001526102c0518181816109ea0152611c9001526102e051818181610890015261203e01526103005181818161093b01528181610ba50152818161211d01526123e201526103205181818161029a015261076d01526136d690f35b6103a0516103605110620002985760405162461bcd60e51b815260206004820152600c60248201526b52616e676520626f756e647360a01b6044820152606490fd5b60405162461bcd60e51b81526020600482015260096024820152685374616c656e65737360b81b6044820152606490fd5b606460405162461bcd60e51b81526020600482015260046024820152631199595960e21b6044820152fd5b6001600160a01b03811615620006fe578115620006d0576001600160401b03831615620006a0576001600160a01b038616156200066c5760006101c05260006101e05260006102005260006102205260006102405260018060a01b031661026052610280526102a0526102c0526102e05261030052620002e5565b60405162461bcd60e51b815260206004820152600c60248201526b554d412063757272656e637960a01b6044820152606490fd5b60405162461bcd60e51b81526020600482015260086024820152674c6976656e65737360c01b6044820152606490fd5b60405162461bcd60e51b8152602060048201526006602482015265155350481a5960d21b6044820152606490fd5b606460405162461bcd60e51b815260206004820152600460248201526327a7bb1960e11b6044820152fd5b601260ff85160315620002385760405162461bcd60e51b815260206004820152600a6024820152694554482031382064656360b01b6044820152606490fd5b60405162461bcd60e51b81526020600482015260086024820152674d6574616461746160c01b6044820152606490fd5b60405162461bcd60e51b815260206004820152600d60248201526c2932b9b7b63b329037b93232b960991b6044820152606490fd5b60405162461bcd60e51b815260206004820152600e60248201526d14dd185ad948195b99081c185cdd60921b6044820152606490fd5b60405162461bcd60e51b815260206004820152600f60248201526e5669727475616c207265736572766560881b6044820152606490fd5b60405162461bcd60e51b815260206004820152600e60248201526d4f7574636f6d65732072616e676560901b6044820152606490fd5b6020915011153862000200565b62461bcd60e51b815260206004820152600c60248201526b5a65726f206164647265737360a01b6044820152606490fd5b506001600160a01b0383161515620001e8565b506001620001e1565b604051631e4fbdf760e01b815260006004820152602490fd5b600080fd5b634e487b7160e01b600052604160045260246000fd5b51906001600160a01b0382168203620008e357565b519060ff82168203620008e35756fe608080604052600436101561001d575b50361561001b57600080fd5b005b600090813560e01c90816303ee438c146127fb5750806306fdccc7146127c057806308460328146127a35780630c7bd33b146127695780630d2af8d314612724578063116a343a146126f95780631448d312146126dd578063158ef93e146126ba5780632567d7d6146124115780632c4c5e50146123cc57806335142c8c146123a6578063469048401461236157806348d399e71461231c578063493dcae1146121e05780634b841d24146121a55780634f12a39f146120b7578063540385a31461209957806355c1abe91461206157806367bd151e14612026578063698b067614611d4d578063715018a614611ce75780637375b16814611cb3578063769dbd6e14611c7857806379ba509714611bee5780637d4035c514611bd05780637dbdf1f514611b8b57806380c08a5d14611b505780638192a43714611b325780638767d64e14611af45780638d56aa3e14611ab05780638da5cb5b14611a895780638e8daa7c14611a43578063912397c314611a175780639228c39b146119ee578063a2ffbe8e146119cb578063a5dc90f214611990578063b972821914611955578063bb482f96146117cc578063c19d93fb146117a3578063c45a01551461175e578063c5a1d7f014611723578063c80d36b8146116e8578063ca455047146116ca578063cc2f60931461168f578063cc3e02ff14610e25578063d7f59f5b14610de0578063e1a4521814610dc3578063e30c397814610d9a578063e3eecc6f14610d7c578063ec9c6c3014610d3e578063ee879258146107ef578063f0d677d71461036a578063f11d7bdf14610331578063f2fde38b146102c05763ff3bb37e0361000f57346102bd57806003193601126102bd5760206040517f00000000000000000000000000000000000000000000000000000000000000008152f35b80fd5b50346102bd5760203660031901126102bd576004356001600160a01b038181169182900361032c576102f0613558565b600180546001600160a01b031916831790558254167f38d16b8cac22d99fc7c124b9cd0de2d3fa1faef420bfe791d8c362d765e227008380a380f35b600080fd5b50346102bd5760203660031901126102bd57600435906005548210156102bd57602061035c83612a43565b90546040519160031b1c8152f35b5060403660031901126102bd576024356001600160a01b038116900361032c57610392612e8d565b60065460ff8116156107dd5760081c60ff166103ad81612b50565b6107cb577f00000000000000000000000000000000000000000000000000000000000000004210156107b95760ff600e5460a01c166107a7576024356001600160a01b0316156107955760043515801561076a575b6107585760ff7f000000000000000000000000000000000000000000000000000000000000000016156107445760ff7f000000000000000000000000000000000000000000000000000000000000000016600435066107325761048a60ff7f000000000000000000000000000000000000000000000000000000000000000016600435612c2b565b7f00000000000000000000000000000000000000000000000000000000000000006001600160a01b031680610704575060043534036106f257905b80670de0b6b3a7640000928084810204841481151715925b60ff7f00000000000000000000000000000000000000000000000000000000000000001660ff821610156106765761051481612ce0565b84610520821515612c9f565b6106625761053081878502612c2b565b9081156106505761056f61054384612988565b91908054926105588860039583871b1c612cd3565b825460001960039390931b92831b1916911b179055565b61057884612a0c565b9054911b1c6001600160a01b0316803b1561064c576040516340c10f1960e01b8152602480356001600160a01b03166004830152810184905290869082908183816044810103925af1801561064157908691610629575b505060408051858152602081019390935282015260ff91600191818416906001600160a01b03602435169033907f8241d0defadd8507317470d315422749a6c8f8b8c9c0872aab09c665eaf3b66b90606090a401166104dd565b61063290612914565b61063d5784386105cf565b8480fd5b6040513d88823e3d90fd5b8580fd5b604051639811e0c760e01b8152600490fd5b634e487b7160e01b84526011600452602484fd5b50600e80546001600160a81b0319163360ff60a01b19811691909117600160a01b1790915560408051600435815260208101939093526024356001600160a01b0316927f95194d0fd3e6e16008575e16c429d993d868b1a25d9993d071d1039853d22a749190a360016000805160206136818339815191525580f35b6040516332afe6d360e21b8152600490fd5b346107205761071a9060043590309033906134cb565b906104c5565b60405163cc43410f60e01b8152600490fd5b604051632e7d0d2d60e21b8152600490fd5b634e487b7160e01b81526012600452602490fd5b604051638568e8bd60e01b8152600490fd5b507f000000000000000000000000000000000000000000000000000000000000000060043510610402565b604051637a2a206960e11b8152600490fd5b604051635c03d07560e11b8152600490fd5b604051639622d9cf60e01b8152600490fd5b60405163300b4e3360e21b8152600490fd5b6040516321c4e35760e21b8152600490fd5b50346102bd57806003193601126102bd57610808612e8d565b60065460ff8116156107dd577f0000000000000000000000000000000000000000000000000000000000000000906002821015610d2a576001809203610d185760081c60ff1661085781612b50565b610d18577f00000000000000000000000000000000000000000000000000000000000000004210610d065761088a612a8a565b426009557f00000000000000000000000000000000000000000000000000000000000000009081610b9b575b6040516311df92f160e01b81527f00000000000000000000000000000000000000000000000000000000000000006004820181905242602483015260a0604483015290919085906001600160a01b037f0000000000000000000000000000000000000000000000000000000000000000811690859061093860a4830187612948565b907f0000000000000000000000000000000000000000000000000000000000000000166064830152876084830152816020978892038187865af1908115610b4d578691610b6c575b5050803b15610add5760405163239e22ff60e11b81528381806109d27f00000000000000000000000000000000000000000000000000000000000000006001600160401b031689428960048601612e66565b038183865af1908115610b4d578491610b58575b50507f00000000000000000000000000000000000000000000000000000000000000008581610ae1575b5050803b15610add57838391610a3f938360405180968195829463120698af60e01b8452429060048501612c4b565b03925af18015610ad257610aba575b5050907fe4d3d3c620d2a4b140fa3731b55b8f71306ed6ab936d7b660b613ecdbbf69db692610a9e60609361010061ff001960065416176006556040519485944286528501526060840190612948565b9060408301520390a16000805160206136818339815191525580f35b610ac690939293612914565b61063d57908438610a4e565b6040513d84823e3d90fd5b8280fd5b6040516356ad3aad60e11b81529182908190610b039089428960048601612e66565b038187865af1908115610b4d578691610b1e575b5080610a10565b90809294503d8311610b46575b610b358183612927565b8101031261032c5786918438610b17565b503d610b2b565b6040513d86823e3d90fd5b610b6190612914565b610add5782386109e6565b90809294503d8311610b94575b610b838183612927565b8101031261032c5786918438610980565b503d610b79565b60018060a01b03807f000000000000000000000000000000000000000000000000000000000000000016907f00000000000000000000000000000000000000000000000000000000000000001690600091604051602063095ea7b360e01b94858152836004528760245260448180875af18760005114811615610cf9575b8160405215610c2c575b505050506108b6565b60206000858152836004528060245260448180875af18760005114811615610cda575b8160405215610cc457506020906000906040519482526004528560245260448180855af18560005114811615610ca5575b8260405215610c90578080610c23565b635274afe760e01b8252600482015260249150fd5b85811516610cba57813b15153d151616610c80565b823d6000823e3d90fd5b635274afe760e01b815260048101839052602490fd5b87811516610cef57833b15153d151616610c4f565b503d6000823e3d90fd5b833b15153d151616610c19565b604051630fce133d60e01b8152600490fd5b60405163baf3f0f760e01b8152600490fd5b634e487b7160e01b83526021600452602483fd5b50346102bd57806003193601126102bd57602060405160ff7f0000000000000000000000000000000000000000000000000000000000000000168152f35b50346102bd57806003193601126102bd576020600c54604051908152f35b50346102bd57806003193601126102bd576001546040516001600160a01b039091168152602090f35b50346102bd57806003193601126102bd5760206040516127108152f35b50346102bd57806003193601126102bd5760207f000000000000000000000000000000000000000000000000000000000000000060405190610e2181612b50565b8152f35b50346102bd5760a03660031901126102bd576004356001600160401b03811161168b57610e56903690600401612b70565b906024356001600160401b03811161168757610e76903690600401612b70565b916044356001600160401b03811161064c57610e96903690600401612b70565b926064356001600160401b03811161168357610eb6903690600401612ba0565b9290916084356001600160401b03811161167f57610ed8903690600401612ba0565b90979096907f00000000000000000000000000000000000000000000000000000000000000006001600160a01b0316330361166d5760065460ff811661165c5760ff7f0000000000000000000000000000000000000000000000000000000000000000168b036116295760ff19166001176006558a5b8a8110611581575060027f0000000000000000000000000000000000000000000000000000000000000000101561156d577f000000000000000000000000000000000000000000000000000000000000000015611371575b505050506001600160401b03821161135d576007610fc481546128da565b90601f91828111611311575b5088848381116001146112915780610ffd928c91611286575b508160011b916000199060031b1c19161790565b81555b60017f0000000000000000000000000000000000000000000000000000000000000000146110c3575b5050604051958060608801606089525260808701939088905b80821061109957897fd4440a27c9cbc5d7a01c508e84787333a316746cdf5ce32c8c5a4568304e0fb98a806110938c8c6110858d8d8d8783036020890152612e45565b918483036040860152612e45565b0390a180f35b90919485359060018060a01b03821680920361032c57600191815260208091019601920190611042565b851561125857506120008511611223576001600160401b03851161120f576110ec6008546128da565b8181116111b8575b5084889181116001146111365780611120928a9161112b57508160011b916000199060031b1c19161790565b6008555b3880611029565b905087013538610fe9565b50600888527ff3f7a9fe364faab93b216da50a3214154f22a0a2b415b23a84c8169e8b636ee39085601f1981168a5b81811061119d575010611183575b5050600184811b01600855611124565b860135600019600387901b60f8161c191690553880611173565b89840135855560019094019360209384019389935001611165565b6112009060086000527ff3f7a9fe364faab93b216da50a3214154f22a0a2b415b23a84c8169e8b636ee38380890160051c82019260208a10611206575b0160051c0190612e2e565b386110f4565b925081926111f5565b634e487b7160e01b88526041600452602488fd5b60405162461bcd60e51b815260206004820152600d60248201526c20b731b4b63630b93c903632b760991b6044820152606490fd5b6064906040519062461bcd60e51b825260206004830152602482015266554d4120616e6360c81b6044820152fd5b905085013538610fe9565b50818a527fa66cc928b5edb82af9bd49922954155ab7b0942694bea4ce44661d9a8736c6889085601f1981168c5b8181106112f65750106112dc575b5050600184811b018155611000565b840135600019600387901b60f8161c1916905538806112cd565b878401358555600190940193602093840193899350016112bf565b61135790826000527fa66cc928b5edb82af9bd49922954155ab7b0942694bea4ce44661d9a8736c6888480880160051c82019260208910611206570160051c0190612e2e565b38610fd0565b634e487b7160e01b87526041600452602487fd5b801561150a5760ff7f0000000000000000000000000000000000000000000000000000000000000000168114806114de575b6113ac90612dfc565b8a5b8181106113fb5750505050505b836113c95738808080610fa6565b60405162461bcd60e51b815260206004820152600a6024820152694e6f20554d4120616e6360b01b6044820152606490fd5b611406818386612dec565b35611412828588612dec565b35106114ac57611423818386612dec565b3590600454600160401b92838210156114965761144982600161146294016004556129d5565b90919082549060031b91821b91600019901b1916179055565b61146d818588612dec565b359160059283549182101561149657611449826001958661149095019055612a43565b016113ae565b634e487b7160e01b600052604160045260246000fd5b60405162461bcd60e51b815260206004820152600a60248201526942696e20626f756e647360b01b6044820152606490fd5b507f000000000000000000000000000000000000000000000000000000000000000060ff1682146113a3565b50505050600260ff7f00000000000000000000000000000000000000000000000000000000000000001603156113bb5760405162461bcd60e51b815260206004820152600b60248201526a2134b7399037b910271e9960a91b6044820152606490fd5b634e487b7160e01b8b52602160045260248bfd5b61158c818c8a612dec565b35906001600160a01b038216820361162557600254600160401b811015611611578060016115bd9201600255612a0c565b81546001600160a01b03600392831b81811b199092169516901b939093179055815491600160401b831015611496576115fc8360018095018355612988565b9091825491600019911b1b1916905501610f4e565b634e487b7160e01b8e52604160045260248efd5b8c80fd5b60405162461bcd60e51b815260206004820152600b60248201526a151bdad95b8818dbdd5b9d60aa1b6044820152606490fd5b60405162dc149f60e41b8152600490fd5b604051630636a15760e11b8152600490fd5b8980fd5b8780fd5b8380fd5b5080fd5b50346102bd57806003193601126102bd5760206040517f00000000000000000000000000000000000000000000000000000000000000008152f35b50346102bd57806003193601126102bd576020600954604051908152f35b50346102bd57806003193601126102bd5760206040517f00000000000000000000000000000000000000000000000000000000000000008152f35b50346102bd57806003193601126102bd5760206040517f00000000000000000000000000000000000000000000000000000000000000008152f35b50346102bd57806003193601126102bd576040517f00000000000000000000000000000000000000000000000000000000000000006001600160a01b03168152602090f35b50346102bd57806003193601126102bd57602060ff60065460081c1660405190610e2181612b50565b50346102bd5760403660031901126102bd576117e6612a7a565b602435906117f2612e8d565b60065460ff8116156107dd5760ff60029160081c1661181081612b50565b03610d185781156106505760ff811660ff7f0000000000000000000000000000000000000000000000000000000000000000168110156119435760ff600a54160361194357600b54801561193157611871670de0b6b3a76400009184612c18565b04918215611903576118838492612a0c565b905460039190911b1c6001600160a01b0316803b15610add5760405163079cc67960e41b8152336004820152602481019290925282908290604490829084905af18015610ad2576118ef575b506118da823361356c565b60016000805160206136818339815191525580f35b6118f890612914565b61168b5781386118cf565b60405162461bcd60e51b815260206004820152600660248201526514185e5bdd5d60d21b6044820152606490fd5b60405163b3b7d75f60e01b8152600490fd5b60405163c74a206d60e01b8152600490fd5b50346102bd57806003193601126102bd5760206040517f00000000000000000000000000000000000000000000000000000000000000008152f35b50346102bd57806003193601126102bd5760206040517f00000000000000000000000000000000000000000000000000000000000000008152f35b50346102bd57806003193601126102bd576020604051670de0b6b3a76400008152f35b50346102bd57806003193601126102bd57600e546040516001600160a01b039091168152602090f35b50346102bd5760203660031901126102bd576020611a3b611a36612a7a565b612ce0565b604051908152f35b50346102bd57806003193601126102bd576040517f00000000000000000000000000000000000000000000000000000000000000006002811015610d2a57602092508152f35b50346102bd57806003193601126102bd57546040516001600160a01b039091168152602090f35b50346102bd57806003193601126102bd5760206040516001600160401b037f0000000000000000000000000000000000000000000000000000000000000000168152f35b50346102bd57806003193601126102bd57602060405160ff7f0000000000000000000000000000000000000000000000000000000000000000168152f35b50346102bd57806003193601126102bd576020600d54604051908152f35b50346102bd57806003193601126102bd5760206040517f00000000000000000000000000000000000000000000000000000000000000008152f35b50346102bd57806003193601126102bd576040517f00000000000000000000000000000000000000000000000000000000000000006001600160a01b03168152602090f35b50346102bd57806003193601126102bd576020600a54604051908152f35b50346102bd57806003193601126102bd576001546001600160a01b033381831603611c60576bffffffffffffffffffffffff60a01b8092166001556000549133908316176000553391167f8be0079c531659141344cd1fd0a4f28419497f9722a3daafe3b4186f6b6457e0600080a380f35b60405163118cdaa760e01b8152336004820152602490fd5b50346102bd57806003193601126102bd5760206040517f00000000000000000000000000000000000000000000000000000000000000008152f35b50346102bd57806003193601126102bd57611ce3611ccf612a8a565b604051918291602083526020830190612948565b0390f35b50346102bd57806003193601126102bd57611d00613558565b600180546001600160a01b0319908116909155600080549182168155906001600160a01b03167f8be0079c531659141344cd1fd0a4f28419497f9722a3daafe3b4186f6b6457e08280a380f35b5060803660031901126102bd57611d62612a7a565b604435906001600160a01b03808316916024359183850361064c57611d85612e8d565b60065460ff8116156107dd5760081c60ff16611da081612b50565b6107cb577f00000000000000000000000000000000000000000000000000000000000000004210156107b95760ff82169460ff7f00000000000000000000000000000000000000000000000000000000000000001686101561194357831592611e098415612c6a565b8515611ff5577f0000000000000000000000000000000000000000000000000000000000000000831680611faf57508434036106f2575b611e4981612ce0565b93611e55851515612c9f565b670de0b6b3a76400009081870291878304141715611f9b5784611e7791612c2b565b928315610650576064358410611f8957611ead82611ea8611e988c95612988565b6105588b83548360031b1c612cd3565b612a0c565b90549060031b1c1691823b1561168b576040516340c10f1960e01b81526001600160a01b0391909116600482015260248101849052918290604490829084905af18015611f7e57611f49575b5060408051938452602084019190915282015233907f8241d0defadd8507317470d315422749a6c8f8b8c9c0872aab09c665eaf3b66b90606090a460016000805160206136818339815191525580f35b95611f767f8241d0defadd8507317470d315422749a6c8f8b8c9c0872aab09c665eaf3b66b939297612914565b959091611ef9565b6040513d89823e3d90fd5b6040516307dd37f760e41b8152600490fd5b634e487b7160e01b89526011600452602489fd5b34611fc75785611fc291309033906134cb565b611e40565b60405162461bcd60e51b815260206004820152600660248201526509cde408aa8960d31b6044820152606490fd5b60405162461bcd60e51b8152602060048201526009602482015268149958da5c1a595b9d60ba1b6044820152606490fd5b50346102bd57806003193601126102bd5760206040517f00000000000000000000000000000000000000000000000000000000000000008152f35b50346102bd5760203660031901126102bd576020612080600435612a0c565b905460405160039290921b1c6001600160a01b03168152f35b50346102bd57806003193601126102bd576020600b54604051908152f35b50346102bd5760203660031901126102bd576004356120d4612e8d565b60ff60065416156107dd577f00000000000000000000000000000000000000000000000000000000000000006002811015610d2a576001036121935761211b811515612c6a565b7f00000000000000000000000000000000000000000000000000000000000000006001600160a01b031690612152813033856134cb565b6040519081527fb70ccb2b3a65ba201e6b7107278d5064431bc3acf6e932d8f869a913a679738760203392a360016000805160206136818339815191525580f35b60405163588dccfd60e01b8152600490fd5b50346102bd57806003193601126102bd5760206040517f00000000000000000000000000000000000000000000000000000000000000008152f35b50346102bd57806003193601126102bd576121f9612e8d565b60065460ff8116156107dd577f00000000000000000000000000000000000000000000000000000000000000006002811015610d2a57600103610d185760ff60019160081c1661224881612b50565b03610d1857612299602061225a612a8a565b6009546040516353b5923960e01b815293849283927f000000000000000000000000000000000000000000000000000000000000000060048501612c4b565b0381857f00000000000000000000000000000000000000000000000000000000000000006001600160a01b03165af18015610ad25782906122e8575b6118da91506122e381613380565b6130ab565b506020813d602011612314575b8161230260209383612927565b8101031261168b576118da90516122d5565b3d91506122f5565b50346102bd57806003193601126102bd576040517f00000000000000000000000000000000000000000000000000000000000000006001600160a01b03168152602090f35b50346102bd57806003193601126102bd576040517f00000000000000000000000000000000000000000000000000000000000000006001600160a01b03168152602090f35b50346102bd57806003193601126102bd57602060ff600e5460a01c166040519015158152f35b50346102bd57806003193601126102bd576040517f00000000000000000000000000000000000000000000000000000000000000006001600160a01b03168152602090f35b50346102bd57806003193601126102bd5761242a612e8d565b60065460ff90818116156107dd577f000000000000000000000000000000000000000000000000000000000000000060028110156126a657610d185760081c811661247481612b50565b610d18577f00000000000000000000000000000000000000000000000000000000000000004210610d0657604051633fabe5a360e21b8152907f00000000000000000000000000000000000000000000000000000000000000006001600160a01b031660a083600481845afa8015610b4d5784938591612652575b5084841315612624576125029042612be4565b7f0000000000000000000000000000000000000000000000000000000000000000106125f75760206004916040519283809263313ce56760e01b82525afa8015610b4d57829185916125b9575b501660068110612596576005190190811161258257906122e361257d6125776118da94612c07565b83612c2b565b612ebd565b634e487b7160e01b83526011600452602483fd5b60060390811161258257906122e361257d6125b36118da94612c07565b83612c18565b9150506020813d6020116125ef575b816125d560209383612927565b81010312611687575181811681036116875781903861254f565b3d91506125c8565b60405162461bcd60e51b81526020600482015260056024820152645374616c6560d81b6044820152606490fd5b60405162461bcd60e51b815260206004820152600660248201526520b739bbb2b960d11b6044820152606490fd5b93505060a0833d60a01161269e575b8161266e60a09383612927565b810103126116875761267f83612bcd565b506020830151612696608060608601519501612bcd565b5092386124ef565b3d9150612661565b634e487b7160e01b84526021600452602484fd5b50346102bd57806003193601126102bd57602060ff600654166040519015158152f35b50346102bd57806003193601126102bd57602060405160328152f35b50346102bd5760203660031901126102bd57600435906004548210156102bd57602061035c836129d5565b50346102bd57806003193601126102bd576040517f00000000000000000000000000000000000000000000000000000000000000006001600160a01b03168152602090f35b50346102bd5760203660031901126102bd57600435906003548210156102bd57602061279483612988565b90549060031b1c604051908152f35b50346102bd57806003193601126102bd57602060405161012c8152f35b50346102bd57806003193601126102bd5760206040517f00000000000000000000000000000000000000000000000000000000000000008152f35b82346102bd57806003193601126102bd57600754828261281a836128da565b92838352602094600191866001821691826000146128b857505060011461285e575b505061284a92500383612927565b611ce3604051928284938452830190612948565b90859250600782527fa66cc928b5edb82af9bd49922954155ab7b0942694bea4ce44661d9a8736c6885b8583106128a057505061284a9350820101858061283c565b80548389018501528794508693909201918101612888565b925093505061284a94915060ff191682840152151560051b820101858061283c565b90600182811c9216801561290a575b60208310146128f457565b634e487b7160e01b600052602260045260246000fd5b91607f16916128e9565b6001600160401b03811161149657604052565b90601f801991011681019081106001600160401b0382111761149657604052565b919082519283825260005b848110612974575050826000602080949584010152601f8019910116010190565b602081830181015184830182015201612953565b6003548110156129bf5760036000527fc2575a0e9e593c00f959f8c92f12db2869c3395a3b0502d05e2516446f71f85b0190600090565b634e487b7160e01b600052603260045260246000fd5b6004548110156129bf5760046000527f8a35acfbc15ff81a39ae7d344fd709f28e8600b4aa8c65c6b64bfe7fe36bd19b0190600090565b6002548110156129bf5760026000527f405787fa12a823e0f2b7631cc41b3ba8828b3321ca811111fa75cd3aa3bb5ace0190600090565b6005548110156129bf5760056000527f036b6384b5eca791c62761152d0c79bb0604c104a5fb6f4eb0703f3154bb3db00190600090565b6004359060ff8216820361032c57565b6040519060008260085491612a9e836128da565b80835292602090600190818116908115612b2c5750600114612acb575b5050612ac992500383612927565b565b91509260086000527ff3f7a9fe364faab93b216da50a3214154f22a0a2b415b23a84c8169e8b636ee3936000925b828410612b145750612ac99450505081016020013880612abb565b85548885018301529485019487945092810192612af9565b91505060209250612ac994915060ff191682840152151560051b8201013880612abb565b60031115612b5a57565b634e487b7160e01b600052602160045260246000fd5b9181601f8401121561032c578235916001600160401b03831161032c576020808501948460051b01011161032c57565b9181601f8401121561032c578235916001600160401b03831161032c576020838186019501011161032c57565b519069ffffffffffffffffffff8216820361032c57565b91908203918211612bf157565b634e487b7160e01b600052601160045260246000fd5b60ff16604d8111612bf157600a0a90565b81810292918115918404141715612bf157565b8115612c35570490565b634e487b7160e01b600052601260045260246000fd5b612c679392606092825260208201528160408201520190612948565b90565b15612c7157565b60405162461bcd60e51b8152602060048201526006602482015265105b5bdd5b9d60d21b6044820152606490fd5b15612ca657565b60405162461bcd60e51b8152602060048201526005602482015264507269636560d81b6044820152606490fd5b91908201809211612bf157565b60ff60065416156107dd5760ff7f000000000000000000000000000000000000000000000000000000000000000016908160ff821610156119435760009160007f0000000000000000000000000000000000000000000000000000000000000000915b808210612dbd5750508215612d8f57612d5e612d6b92612988565b90549060031b1c90612cd3565b90670de0b6b3a764000091828102928184041490151715612bf157612c6791612c2b565b60405162461bcd60e51b815260206004820152600660248201526515d95a59da1d60d21b6044820152606490fd5b9093612de4600191612dde612dd188612988565b90549060031b1c86612cd3565b90612cd3565b940190612d43565b91908110156129bf5760051b0190565b15612e0357565b606460405162461bcd60e51b815260206004820152600460248201526342696e7360e01b6044820152fd5b818110612e39575050565b60008155600101612e2e565b908060209392818452848401376000828201840152601f01601f1916010190565b949392606092612e889287526020870152608060408701526080860190612948565b930152565b6000805160206136818339815191526002815414612eab5760029055565b604051633ee5aeb560e01b8152600490fd5b600480549060ff7f000000000000000000000000000000000000000000000000000000000000000016809214612ff257506002612efa9114612dfc565b7f0000000000000000000000000000000000000000000000000000000000000000612f2481612b50565b80612f5d57507f000000000000000000000000000000000000000000000000000000000000000011155b15612f5857600090565b600190565b80612f69600192612b50565b03612f96577f00000000000000000000000000000000000000000000000000000000000000001015612f4e565b7f00000000000000000000000000000000000000000000000000000000000000008110159081612fc7575b50612f4e565b90507f0000000000000000000000000000000000000000000000000000000000000000101538612fc1565b906000918293835b83811061303e575050505060010361300f5790565b60405162461bcd60e51b815260206004820152600760248201526627b732903134b760c91b6044820152606490fd5b613047816129d5565b9054600391821b1c8310159081613092575b50613067575b600101612ffa565b945092600019811461307d57600101928461305f565b601182634e487b7160e01b6000525260246000fd5b905061309d82612a43565b9054911b1c82111538613059565b6000907f000000000000000000000000000000000000000000000000000000000000000060ff16825b81811061335857505061012c918281029080159381830414841715612bf1576127108092049360328202908282046032141715612bf15760049260209104613126866131208382612be4565b94612be4565b9261313086612a0c565b90546040516318160ddd60e01b8152966001600160a01b0395928892839160031b1c87165afa94851561334c57600095613318575b5061316f86612988565b90549060031b1c928761328c575b50508315905061321a578161319191612cd3565b94670de0b6b3a764000095868102968188041490151715612bf1576131da613215937f1156c82479e3534ddd36ca57cd84557fd8b25737545b9b3572c4f2878613af5497612c2b565b600b555b83600a55600c5542600d5561020061ff00196006541617600655604051938493846040919493926060820195825260208201520152565b0390a1565b613215925094613250827f1156c82479e3534ddd36ca57cd84557fd8b25737545b9b3572c4f2878613af54976000600b55612cd3565b8061325c575b506131de565b613286907f000000000000000000000000000000000000000000000000000000000000000061356c565b38613256565b80600e541615158061330f575b156132dd576132d5926132af91600e541661356c565b7f000000000000000000000000000000000000000000000000000000000000000061356c565b38808061317d565b50505061330a857f000000000000000000000000000000000000000000000000000000000000000061356c565b6132d5565b50821515613299565b9094506020813d602011613344575b8161333460209383612927565b8101031261032c57519338613165565b3d9150613327565b6040513d6000823e3d90fd5b828103613368575b6001016130d4565b92613378600191612d5e86612988565b939050613360565b600160ff1b811480156134bb575b61343d577f0000000000000000000000000000000000000000000000000000000000000000744d554c5449504c455f43484f4943455f515545525960581b8114613484576e5945535f4f525f4e4f5f515545525960881b146134715760ff7f0000000000000000000000000000000000000000000000000000000000000000169060028214613457576000811261343d57670de0b6b3a76400009081811061344f5704905b81101561343d5790565b60405163437d7ad760e11b8152600490fd5b905090613433565b670de0b6b3a764000091501461346c57600190565b600090565b670de0b6b3a76400001461346c57600190565b506000811261343d5760ff7f00000000000000000000000000000000000000000000000000000000000000001681101561343d5790565b506001600160ff1b03811461338e565b6040516323b872dd60e01b60009081526001600160a01b03938416600452938316602452604494909452909160209060648180855af1600160005114811615613538575b8360405260006060521561352257505050565b635274afe760e01b835216600482015260249150fd5b600181151661354e57813b15153d15161661350f565b833d6000823e3d90fd5b6000546001600160a01b03163303611c6057565b906001600160a01b037f00000000000000000000000000000000000000000000000000000000000000008116806135a85750612ac992166135fd565b91906020916000916040519563a9059cbb60e01b84521660045260245260448180855af16001600051148116156135e7575b8260405215610c90575050565b6001811516610cba57813b15153d1516166135da565b81471061366157604051602081018181106001600160401b0382111761149657604052600080809481948280955260018060a01b03165af11561363d5750565b3d1561364f57604051903d90823e3d90fd5b60405163d6bda27560e01b8152600490fd5b60405163cf47918160e01b815247600482015260248101839052604490fdfe9b779b17422d0df92223018b32b4d1fa46e071723d6817e2486d003becc55f00a2646970667358221220223039fe7b6c479ab645221800aa0439df7dc9b5a1c5cec732bc0e737954af8564736f6c63430008180033",
  "linkReferences": {},
  "deployedLinkReferences": {}
}