{
  "_format": "hh-sol-artifact-1",
  "contractName": "AFTRParimutuelMarketFactory",
  "sourceName": "contracts/factory/AFTRParimutuelMarketFactory.sol",
  "abi": [
    {
      "inputs": [
        {
          "internalType": "address",
          "name": "owner_",
          "type": "address"
        },
        {
          "internalType": "address",
          "name": "feeRecipient_",
          "type": "address"
        },
        {
          "internalType": "address",
          "name": "optimisticOracleV2_",
          "type": "address"
        },
        {
          "internalType": "address",
          "name": "umaBondCurrency_",
          "type": "address"
        }
      ],
      "stateMutability": "nonpayable",
      "type": "constructor"
    },
    {
      "inputs": [],
      "name": "InvalidAddress",
      "type": "error"
    },
    {
      "inputs": [],
      "name": "InvalidBins",
      "type": "error"
    },
    {
      "inputs": [],
      "name": "InvalidCollateral",
      "type": "error"
    },
    {
      "inputs": [],
      "name": "InvalidConfig",
      "type": "error"
    },
    {
      "inputs": [],
      "name": "InvalidDeployer",
      "type": "error"
    },
    {
      "inputs": [],
      "name": "InvalidFeed",
      "type": "error"
    },
    {
      "inputs": [],
      "name": "InvalidMeta",
      "type": "error"
    },
    {
      "inputs": [],
      "name": "InvalidOutcomes",
      "type": "error"
    },
    {
      "inputs": [],
      "name": "InvalidTime",
      "type": "error"
    },
    {
      "inputs": [],
      "name": "NotCreator",
      "type": "error"
    },
    {
      "inputs": [
        {
          "internalType": "address",
          "name": "owner",
          "type": "address"
        }
      ],
      "name": "OwnableInvalidOwner",
      "type": "error"
    },
    {
      "inputs": [
        {
          "internalType": "address",
          "name": "account",
          "type": "address"
        }
      ],
      "name": "OwnableUnauthorizedAccount",
      "type": "error"
    },
    {
      "anonymous": false,
      "inputs": [
        {
          "indexed": true,
          "internalType": "address",
          "name": "recipient",
          "type": "address"
        }
      ],
      "name": "FeeRecipientUpdated",
      "type": "event"
    },
    {
      "anonymous": false,
      "inputs": [
        {
          "indexed": true,
          "internalType": "address",
          "name": "market",
          "type": "address"
        },
        {
          "indexed": true,
          "internalType": "enum AFTRVParimutuelMarket.MarketKind",
          "name": "kind",
          "type": "uint8"
        },
        {
          "indexed": true,
          "internalType": "address",
          "name": "collateralToken",
          "type": "address"
        },
        {
          "indexed": false,
          "internalType": "address[]",
          "name": "outcomeTokens",
          "type": "address[]"
        },
        {
          "indexed": false,
          "internalType": "string[]",
          "name": "outcomeLabels",
          "type": "string[]"
        },
        {
          "indexed": false,
          "internalType": "uint256",
          "name": "stakeEndTimestamp",
          "type": "uint256"
        },
        {
          "indexed": false,
          "internalType": "uint256",
          "name": "resolveAfterTimestamp",
          "type": "uint256"
        },
        {
          "indexed": false,
          "internalType": "bytes32",
          "name": "metadataHash",
          "type": "bytes32"
        }
      ],
      "name": "MarketCreated",
      "type": "event"
    },
    {
      "anonymous": false,
      "inputs": [
        {
          "indexed": true,
          "internalType": "address",
          "name": "deployer",
          "type": "address"
        }
      ],
      "name": "MarketDeployerUpdated",
      "type": "event"
    },
    {
      "anonymous": false,
      "inputs": [
        {
          "indexed": true,
          "internalType": "address",
          "name": "oracle",
          "type": "address"
        }
      ],
      "name": "OptimisticOracleV2Updated",
      "type": "event"
    },
    {
      "anonymous": false,
      "inputs": [
        {
          "indexed": true,
          "internalType": "address",
          "name": "previousOwner",
          "type": "address"
        },
        {
          "indexed": true,
          "internalType": "address",
          "name": "newOwner",
          "type": "address"
        }
      ],
      "name": "OwnershipTransferStarted",
      "type": "event"
    },
    {
      "anonymous": false,
      "inputs": [
        {
          "indexed": true,
          "internalType": "address",
          "name": "previousOwner",
          "type": "address"
        },
        {
          "indexed": true,
          "internalType": "address",
          "name": "newOwner",
          "type": "address"
        }
      ],
      "name": "OwnershipTransferred",
      "type": "event"
    },
    {
      "anonymous": false,
      "inputs": [
        {
          "indexed": true,
          "internalType": "address",
          "name": "token",
          "type": "address"
        }
      ],
      "name": "SupportedCollateralAdded",
      "type": "event"
    },
    {
      "anonymous": false,
      "inputs": [
        {
          "indexed": true,
          "internalType": "address",
          "name": "token",
          "type": "address"
        }
      ],
      "name": "SupportedCollateralRemoved",
      "type": "event"
    },
    {
      "anonymous": false,
      "inputs": [
        {
          "indexed": true,
          "internalType": "address",
          "name": "currency",
          "type": "address"
        }
      ],
      "name": "UmaBondCurrencyUpdated",
      "type": "event"
    },
    {
      "inputs": [],
      "name": "acceptOwnership",
      "outputs": [],
      "stateMutability": "nonpayable",
      "type": "function"
    },
    {
      "inputs": [
        {
          "internalType": "address",
          "name": "token",
          "type": "address"
        }
      ],
      "name": "addSupportedCollateral",
      "outputs": [],
      "stateMutability": "nonpayable",
      "type": "function"
    },
    {
      "inputs": [],
      "name": "batchExecutor",
      "outputs": [
        {
          "internalType": "address",
          "name": "",
          "type": "address"
        }
      ],
      "stateMutability": "view",
      "type": "function"
    },
    {
      "inputs": [
        {
          "components": [
            {
              "internalType": "address",
              "name": "collateralToken",
              "type": "address"
            },
            {
              "internalType": "uint8",
              "name": "collateralDecimals",
              "type": "uint8"
            },
            {
              "internalType": "uint256",
              "name": "virtualReserve",
              "type": "uint256"
            },
            {
              "internalType": "uint256",
              "name": "stakeEndTimestamp",
              "type": "uint256"
            },
            {
              "internalType": "uint256",
              "name": "resolveAfterTimestamp",
              "type": "uint256"
            },
            {
              "internalType": "bytes32",
              "name": "metadataHash",
              "type": "bytes32"
            },
            {
              "internalType": "string[]",
              "name": "outcomeLabels",
              "type": "string[]"
            },
            {
              "internalType": "string",
              "name": "metadataURI",
              "type": "string"
            },
            {
              "internalType": "string",
              "name": "umaAncillary",
              "type": "string"
            },
            {
              "internalType": "bytes32",
              "name": "umaIdentifier",
              "type": "bytes32"
            },
            {
              "internalType": "uint64",
              "name": "umaLiveness",
              "type": "uint64"
            },
            {
              "internalType": "uint256",
              "name": "umaProposerBond",
              "type": "uint256"
            },
            {
              "internalType": "uint256",
              "name": "umaReward",
              "type": "uint256"
            },
            {
              "internalType": "address",
              "name": "umaRewardCurrency",
              "type": "address"
            },
            {
              "internalType": "uint256",
              "name": "minBootstrapTotal",
              "type": "uint256"
            }
          ],
          "internalType": "struct AFTRParimutuelMarketFactory.EventMarketParams",
          "name": "p",
          "type": "tuple"
        }
      ],
      "name": "createEventMarket",
      "outputs": [
        {
          "internalType": "address",
          "name": "market",
          "type": "address"
        }
      ],
      "stateMutability": "nonpayable",
      "type": "function"
    },
    {
      "inputs": [
        {
          "components": [
            {
              "internalType": "address",
              "name": "collateralToken",
              "type": "address"
            },
            {
              "internalType": "uint8",
              "name": "collateralDecimals",
              "type": "uint8"
            },
            {
              "internalType": "uint256",
              "name": "virtualReserve",
              "type": "uint256"
            },
            {
              "internalType": "uint256",
              "name": "stakeEndTimestamp",
              "type": "uint256"
            },
            {
              "internalType": "uint256",
              "name": "resolveAfterTimestamp",
              "type": "uint256"
            },
            {
              "internalType": "bytes32",
              "name": "metadataHash",
              "type": "bytes32"
            },
            {
              "internalType": "string[]",
              "name": "outcomeLabels",
              "type": "string[]"
            },
            {
              "internalType": "address",
              "name": "chainlinkFeed",
              "type": "address"
            },
            {
              "internalType": "uint256",
              "name": "priceThreshold",
              "type": "uint256"
            },
            {
              "internalType": "enum AFTRVParimutuelMarket.PriceThresholdKind",
              "name": "priceKind",
              "type": "uint8"
            },
            {
              "internalType": "uint256",
              "name": "priceUpperBound",
              "type": "uint256"
            },
            {
              "internalType": "uint256",
              "name": "maxPriceStaleness",
              "type": "uint256"
            },
            {
              "internalType": "uint256[]",
              "name": "priceBinLower",
              "type": "uint256[]"
            },
            {
              "internalType": "uint256[]",
              "name": "priceBinUpper",
              "type": "uint256[]"
            },
            {
              "internalType": "uint256",
              "name": "minBootstrapTotal",
              "type": "uint256"
            }
          ],
          "internalType": "struct AFTRParimutuelMarketFactory.PriceMarketParams",
          "name": "p",
          "type": "tuple"
        }
      ],
      "name": "createPriceMarket",
      "outputs": [
        {
          "internalType": "address",
          "name": "market",
          "type": "address"
        }
      ],
      "stateMutability": "nonpayable",
      "type": "function"
    },
    {
      "inputs": [],
      "name": "feeRecipient",
      "outputs": [
        {
          "internalType": "address",
          "name": "",
          "type": "address"
        }
      ],
      "stateMutability": "view",
      "type": "function"
    },
    {
      "inputs": [
        {
          "internalType": "address",
          "name": "market",
          "type": "address"
        }
      ],
      "name": "getMarketOutcomeTokens",
      "outputs": [
        {
          "internalType": "address[]",
          "name": "",
          "type": "address[]"
        }
      ],
      "stateMutability": "view",
      "type": "function"
    },
    {
      "inputs": [
        {
          "internalType": "address",
          "name": "",
          "type": "address"
        }
      ],
      "name": "isMarket",
      "outputs": [
        {
          "internalType": "bool",
          "name": "",
          "type": "bool"
        }
      ],
      "stateMutability": "view",
      "type": "function"
    },
    {
      "inputs": [
        {
          "internalType": "address",
          "name": "market",
          "type": "address"
        },
        {
          "internalType": "address",
          "name": "token",
          "type": "address"
        }
      ],
      "name": "isOutcomeTokenForMarket",
      "outputs": [
        {
          "internalType": "bool",
          "name": "",
          "type": "bool"
        }
      ],
      "stateMutability": "view",
      "type": "function"
    },
    {
      "inputs": [
        {
          "internalType": "address",
          "name": "",
          "type": "address"
        }
      ],
      "name": "isSupportedCollateral",
      "outputs": [
        {
          "internalType": "bool",
          "name": "",
          "type": "bool"
        }
      ],
      "stateMutability": "view",
      "type": "function"
    },
    {
      "inputs": [],
      "name": "marketDeployer",
      "outputs": [
        {
          "internalType": "address",
          "name": "",
          "type": "address"
        }
      ],
      "stateMutability": "view",
      "type": "function"
    },
    {
      "inputs": [
        {
          "internalType": "uint256",
          "name": "",
          "type": "uint256"
        }
      ],
      "name": "markets",
      "outputs": [
        {
          "internalType": "address",
          "name": "",
          "type": "address"
        }
      ],
      "stateMutability": "view",
      "type": "function"
    },
    {
      "inputs": [],
      "name": "marketsLength",
      "outputs": [
        {
          "internalType": "uint256",
          "name": "",
          "type": "uint256"
        }
      ],
      "stateMutability": "view",
      "type": "function"
    },
    {
      "inputs": [],
      "name": "optimisticOracleV2",
      "outputs": [
        {
          "internalType": "address",
          "name": "",
          "type": "address"
        }
      ],
      "stateMutability": "view",
      "type": "function"
    },
    {
      "inputs": [],
      "name": "owner",
      "outputs": [
        {
          "internalType": "address",
          "name": "",
          "type": "address"
        }
      ],
      "stateMutability": "view",
      "type": "function"
    },
    {
      "inputs": [],
      "name": "pendingOwner",
      "outputs": [
        {
          "internalType": "address",
          "name": "",
          "type": "address"
        }
      ],
      "stateMutability": "view",
      "type": "function"
    },
    {
      "inputs": [
        {
          "internalType": "address",
          "name": "token",
          "type": "address"
        }
      ],
      "name": "removeSupportedCollateral",
      "outputs": [],
      "stateMutability": "nonpayable",
      "type": "function"
    },
    {
      "inputs": [],
      "name": "renounceOwnership",
      "outputs": [],
      "stateMutability": "nonpayable",
      "type": "function"
    },
    {
      "inputs": [
        {
          "internalType": "address",
          "name": "executor",
          "type": "address"
        }
      ],
      "name": "setBatchExecutor",
      "outputs": [],
      "stateMutability": "nonpayable",
      "type": "function"
    },
    {
      "inputs": [
        {
          "internalType": "address",
          "name": "r",
          "type": "address"
        }
      ],
      "name": "setFeeRecipient",
      "outputs": [],
      "stateMutability": "nonpayable",
      "type": "function"
    },
    {
      "inputs": [
        {
          "internalType": "address",
          "name": "d",
          "type": "address"
        }
      ],
      "name": "setMarketDeployer",
      "outputs": [],
      "stateMutability": "nonpayable",
      "type": "function"
    },
    {
      "inputs": [
        {
          "internalType": "address",
          "name": "oo",
          "type": "address"
        }
      ],
      "name": "setOptimisticOracleV2",
      "outputs": [],
      "stateMutability": "nonpayable",
      "type": "function"
    },
    {
      "inputs": [
        {
          "internalType": "address",
          "name": "c",
          "type": "address"
        }
      ],
      "name": "setUmaBondCurrency",
      "outputs": [],
      "stateMutability": "nonpayable",
      "type": "function"
    },
    {
      "inputs": [
        {
          "internalType": "address",
          "name": "newOwner",
          "type": "address"
        }
      ],
      "name": "transferOwnership",
      "outputs": [],
      "stateMutability": "nonpayable",
      "type": "function"
    },
    {
      "inputs": [],
      "name": "umaBondCurrency",
      "outputs": [
        {
          "internalType": "address",
          "name": "",
          "type": "address"
        }
      ],
      "stateMutability": "view",
      "type": "function"
    }
  ],
  "bytecode": "0x6080346200014b57601f62001c7838819003918201601f19168301916001600160401b0383118484101762000150578084926080946040528339810103126200014b576200004d8162000166565b6200005b6020830162000166565b91620000786060620000706040840162000166565b920162000166565b6001600160a01b03929091908316801562000132578360018060a01b03199586600154166001556000549280888516176000558260405194167f8be0079c531659141344cd1fd0a4f28419497f9722a3daafe3b4186f6b6457e0600080a316908115801562000127575b6200011857509083918560035416176003551683600454161760045516906005541617600555604051611afc90816200017c8239f35b63e6c4247b60e01b8152600490fd5b5084841615620000e2565b604051631e4fbdf760e01b815260006004820152602490fd5b600080fd5b634e487b7160e01b600052604160045260246000fd5b51906001600160a01b03821682036200014b5756fe608080604052600436101561001357600080fd5b60003560e01c9081630d2af8d31461139f5750806317dbc5381461135c5780631800d79f146112de5780631cba0d2914610da85780631d55530614610d655780631f470b2d14610ccd57806339f4c4da14610c8e5780634682be6114610c255780634690484014610bfc57806351e84b84146105f7578063536db2e6146105655780635e6607ff1461053c5780636ec934da146104fd578063715018a61461049857806379ba50971461040f5780638da5cb5b146103e65780639b307dc21461037d578063a54025441461035f578063b1283e7714610304578063b2d35b7a1461029d578063bb1e453114610274578063e30c39781461024b578063e74b981b146101d0578063ed460e56146101a75763f2fde38b1461013257600080fd5b346101a25760203660031901126101a25761014b6113c3565b610153611539565b60018060a01b0380911690816bffffffffffffffffffffffff60a01b6001541617600155600054167f38d16b8cac22d99fc7c124b9cd0de2d3fa1faef420bfe791d8c362d765e22700600080a3005b600080fd5b346101a25760003660031901126101a2576005546040516001600160a01b039091168152602090f35b346101a25760203660031901126101a2576101e96113c3565b6101f1611539565b6001600160a01b0316801561023957600380546001600160a01b031916821790557f7a7b5a0a132f9e0581eb8527f66eae9ee89c2a3e79d4ac7e41a1f1f4d48a7fc2600080a2005b60405163e6c4247b60e01b8152600490fd5b346101a25760003660031901126101a2576001546040516001600160a01b039091168152602090f35b346101a25760003660031901126101a2576007546040516001600160a01b039091168152602090f35b346101a25760203660031901126101a2576102b66113c3565b6102be611539565b600480546001600160a01b0319166001600160a01b039290921691821790557f6be240c3ce51532bc6f7066bd1c5c51947cc8e3e01fa03397d6ab44cfa7d198a600080a2005b346101a25760203660031901126101a2576004356008548110156101a25760086000527ff3f7a9fe364faab93b216da50a3214154f22a0a2b415b23a84c8169e8b636ee301546040516001600160a01b039091168152602090f35b346101a25760003660031901126101a2576020600854604051908152f35b346101a25760203660031901126101a2576103966113c3565b61039e611539565b6001600160a01b0316801561023957600780546001600160a01b031916821790557f605f04a31cf07d957f1c52208519e1cd6da20eb11dc98e67fc3eff63fe3933fc600080a2005b346101a25760003660031901126101a2576000546040516001600160a01b039091168152602090f35b346101a25760003660031901126101a2576001546001600160a01b033381831603610480576bffffffffffffffffffffffff60a01b8092166001556000549133908316176000553391167f8be0079c531659141344cd1fd0a4f28419497f9722a3daafe3b4186f6b6457e0600080a3005b60405163118cdaa760e01b8152336004820152602490fd5b346101a25760003660031901126101a2576104b1611539565b600180546001600160a01b0319908116909155600080549182168155906001600160a01b03167f8be0079c531659141344cd1fd0a4f28419497f9722a3daafe3b4186f6b6457e08280a3005b346101a25760203660031901126101a2576001600160a01b0361051e6113c3565b166000526009602052602060ff604060002054166040519015158152f35b346101a25760003660031901126101a2576006546040516001600160a01b039091168152602090f35b346101a25760203660031901126101a25761057e6113c3565b610586611539565b6001600160a01b031660008181526002602052604090205460ff166105e5578060005260026020526040600020600160ff198254161790557fbd8a8e5a223a7347dab9de83a90a67c6bb291a7ac7487fba3886f5ed162d1da5600080a2005b6040516306b7c75960e31b8152600490fd5b346101a257610605366113d9565b6000546001600160a01b0316903382141580610be7575b610bd5576106298161154d565b9161064160209361063b858501611561565b90611851565b6001600160a01b036106528461154d565b166000526002845260ff6040600020541615610bc3576001600160a01b036106798461154d565b161580610bb5575b6105e557600261069460c085018561156f565b9050108015610b9e575b610b8c576106ba6106b361010085018561180b565b3691611746565b9081518015908115610b80575b506105e5576001600160401b036106e1610140860161183d565b16156105e557610120840135908115610b2d575b6e5945535f4f525f4e4f5f515545525960881b821480610b14575b6105e5576004546001600160a01b03169384156105e5576101a086016001600160a01b0361073d8261154d565b1615610b015761074c9061154d565b915b6001600160a01b038316156105e55742606088013511801590610aef575b610add5760a087013515610acb576007546001600160a01b0316938415610ab9576003546001600160a01b0316936107a38961154d565b976107b160c08b018b61156f565b9390506107c16101408c0161183d565b916107cf60c08d018d61156f565b9590966040519c8d9a8b9a6353a4e6d760e01b8c5260048c015260248b0152600160a01b600190031660448a015260ff16606489015260ff16608488015260408c013560a488015260608c013560c488015260808c013560e488015260a08c01356101048801526101248701526101448601526001600160401b03166101648501526101608901356101848501526101808901356101a4850152600160a01b60019003166101c48401526101c08801356101e48401526102048301610220905261022483019061089e9261165f565b03815a6000948591f1908115610aad57600092600092610a80575b50610901906108cd60e0869496018461180b565b916108fa604051926108de846114fd565b60008452604051946108ef866114fd565b600086523691611746565b87876118f0565b61090a8161154d565b9261092261091b60c084018461156f565b369161178c565b9261092c81611a27565b60018060a01b031693849283600052600987526040600020600190600160ff19825416179055806000905b610a2d575b506109726040519460a0865260a086019061140b565b90848203898601528651808352898301928a808360051b8301019901936000915b8c8484106109f6578a8c6001827fb679f8bb353ccc2331bbeb116d31f96fe2836f68dd9cb37d0749ea0b26be22d68e808f8f80606060a092013560408501526080810135606085015201356080830152858060a01b0316950390a4604051908152f35b859798999a50610a17819294969395979c601f198682030187528d516118b0565b9b019301930190928a9897969593949294610993565b8482939495965051811015610a75576000888152600a8a5260409020829190610a6a906001600160a01b03610a62848b611868565b511690611a8b565b018795949392610957565b87959493925061095c565b6109019350610aa39192503d806000833e610a9b8183611518565b8101906115cf565b92909291906108b9565b6040513d6000823e3d90fd5b60405163043c669f60e01b8152600490fd5b6040516308bb27af60e41b8152600490fd5b6040516337bf561360e11b8152600490fd5b5060608701356080880135111561076c565b506005546001600160a01b03169161074e565b506002610b2460c087018761156f565b90501415610710565b90506002610b3e60c086018661156f565b905014600014610b62576e5945535f4f525f4e4f5f515545525960881b5b906106f5565b744d554c5449504c455f43484f4943455f515545525960581b610b5c565b612000915011866106c7565b6040516367d635e160e01b8152600490fd5b5083610bad60c085018561156f565b90501161069e565b50601260ff82161415610681565b6040516368f7a67560e11b8152600490fd5b6040516393687c0b60e01b8152600490fd5b506006546001600160a01b031633141561061c565b346101a25760003660031901126101a2576003546040516001600160a01b039091168152602090f35b346101a25760203660031901126101a257610c3e6113c3565b610c46611539565b6001600160a01b0316801561023957600580546001600160a01b031916821790557f523e520d3e5099d5b5ef94a4279b3b62d1f69afa84ab6d0ae03287a7a67c68f2600080a2005b346101a25760203660031901126101a2576001600160a01b03610caf6113c3565b166000526002602052602060ff604060002054166040519015158152f35b346101a2576020806003193601126101a2576001600160a01b039081610cf16113c3565b16600052600a81526040600020916040518093849184825491828152019160005284600020936000905b86838310610d49578590610d3182870383611518565b610d4560405192828493845283019061140b565b0390f35b8654821685526001968701968996509401939190910190610d1b565b346101a25760203660031901126101a257610d7e6113c3565b610d86611539565b600680546001600160a01b0319166001600160a01b0392909216919091179055005b346101a257610db6366113d9565b6000546001600160a01b03169033821415806112c9575b610bd557610de9610ddd8261154d565b61063b60208401611561565b916001600160a01b03610dfb8361154d565b16600052600260205260ff6040600020541615610bc3576001600160a01b03610e238361154d565b1615806112bb575b6105e5576002610e3e60c084018461156f565b90501080156112a3575b610b8c5760e082016001600160a01b03610e618261154d565b161561129157610160830135156105e5574260608401351180159061127f575b610add5760a083013515610acb57610e9d61018084018461156f565b15905061123057610eb261018084018461156f565b9050610ec160c085018561156f565b91905014801590611208575b6111f6575b6007546001600160a01b03168015610ab9576003546001600160a01b0316610ef98561154d565b92610f12610f0a60c088018861156f565b92905061154d565b94600361012088013510156101a257610ffb6000969260ff8894610f3960c08c018c61156f565b929093816040519e8f9c8d9b8c9a63624a59d360e11b8c5260048c015260248b015260018060a01b031660448a015216606488015216608486015260408b013560a486015260608b013560c486015260808b013560e486015260a08b013561010486015260018060a01b03166101248501526101008a01356101448501526101208a01356101648501526101408a01356101848501526101608a01356101a48501526101c08a01356101c48501526102006101e485015261020484019161165f565b03925af18015610aad576000926000916111d5575b5061107361106b611063604051611026816114fd565b6000815261103861018087018761156f565b93906110486101a089018961156f565b94909160405196611058886114fd565b6000885236916116f8565b9336916116f8565b9285886118f0565b61107c8261154d565b61108c61091b60c085018561156f565b9061109685611a27565b6001600160a01b0385166000908152600960205260408120805460ff191660011790555b83518110156110f5576001600160a01b038681166000908152600a60205260409020600192916110ef9190610a628489611868565b016110ba565b5090939261110e6040519360a0855260a085019061140b565b8381036020850152855180825260208201916020808360051b8301019801926000915b8383106111a8576020898960008d7fb679f8bb353ccc2331bbeb116d31f96fe2836f68dd9cb37d0749ea0b26be22d68c60a08d60608101356040880152608081013560608801520135608086015260018060a01b0316938060018060a01b038716930390a46040516001600160a01b039091168152f35b90919293986020806111c6600193601f198682030187528d516118b0565b9b019301930191939290611131565b90506111ed9192503d806000833e610a9b8183611518565b91909183611010565b60405163b2d4eceb60e01b8152600490fd5b506112176101a084018461156f565b905061122660c085018561156f565b9190501415610ecd565b600261123f60c085018561156f565b9050036111f65761012083013560038110156101a257600203610ed25761014083013561010084013510610ed2576040516306b7c75960e31b8152600490fd5b50606083013560808401351115610e81565b6040516301f86e1760e41b8152600490fd5b5060206112b360c084018461156f565b905011610e48565b50601260ff84161415610e2b565b506006546001600160a01b0316331415610dcd565b346101a25760203660031901126101a2576112f76113c3565b6112ff611539565b6001600160a01b031660008181526002602052604090205460ff16156105e557806000526002602052604060002060ff1981541690557f0ffbe34cfa1831023fd1e8602fc452dfa0e07b531dd9197a3fac11258aa17e75600080a2005b346101a25760403660031901126101a2576113756113c3565b602435906001600160a01b03821682036101a25760209161139591611476565b6040519015158152f35b346101a25760003660031901126101a2576004546001600160a01b03168152602090f35b600435906001600160a01b03821682036101a257565b600319906020818301126101a257600435916001600160401b0383116101a257826101e0920301126101a25760040190565b90815180825260208080930193019160005b82811061142b575050505090565b83516001600160a01b03168552938101939281019260010161141d565b80548210156114605760005260206000200190600090565b634e487b7160e01b600052603260045260246000fd5b6001600160a01b039081166000908152600a6020526040812080549390915b8481106114a6575050505050600090565b836114b18285611448565b9190548185169260031b1c16146114ca57600101611495565b5050505050600190565b6001600160401b0381116114e757604052565b634e487b7160e01b600052604160045260246000fd5b602081019081106001600160401b038211176114e757604052565b90601f801991011681019081106001600160401b038211176114e757604052565b6000546001600160a01b0316330361048057565b356001600160a01b03811681036101a25790565b3560ff811681036101a25790565b903590601e19813603018212156101a257018035906001600160401b0382116101a257602001918160051b360383136101a257565b51906001600160a01b03821682036101a257565b6001600160401b0381116114e75760051b60200190565b91906040838203126101a2576115e4836115a4565b9260209081810151906001600160401b0382116101a257019180601f840112156101a2578251611613816115b8565b936116216040519586611518565b818552838086019260051b8201019283116101a2578301905b828210611648575050505090565b838091611654846115a4565b81520191019061163a565b8183526020600583901b84018101939192906000818401855b848310611689575050505050505090565b90919293949596601f19808883030184528835601e19843603018112156101a257830186810190356001600160401b0381116101a25780360382136101a257838893601f83808796879660019a5286860137600085828601015201160101990193019301919594939290611678565b9291611703826115b8565b916117116040519384611518565b829481845260208094019160051b81019283116101a257905b8282106117375750505050565b8135815290830190830161172a565b9291926001600160401b0382116114e7576040519161176f601f8201601f191660200184611518565b8294818452818301116101a2578281602093846000960137010152565b92919092611799846115b8565b916117a76040519384611518565b829480845260208094019060051b8301928284116101a25780915b8483106117d157505050505050565b82356001600160401b0381116101a257820184601f820112156101a25786916118008683858095359101611746565b8152019201916117c2565b903590601e19813603018212156101a257018035906001600160401b0382116101a2576020019181360383136101a257565b356001600160401b03811681036101a25790565b6001600160a01b0316156118625790565b50601290565b80518210156114605760209160051b010190565b90815180825260208080930193019160005b82811061189c575050505090565b83518552938101939281019260010161188e565b919082519283825260005b8481106118dc575050826000602080949584010152601f8019910116010190565b6020818301810151848301820152016118bb565b9592949190939460005b8551811015611974576001600160a01b03806119168389611868565b511690813b156101a257600060409160248c838551968794859363f2fde38b60e01b85521660048401525af190811561196a5750906001929161195b575b50016118fa565b611964906114d4565b38611954565b513d6000823e3d90fd5b509295919490926001600160a01b0390921691823b156101a257600094611a0b6119c99387936119fc6119dc986119ec6040519c8d9b8c9a8b9963cc3e02ff60e01b8b5260a060048c015260a48b019061140b565b60031997888b83030160248c015261187c565b90868983030160448a015261187c565b90848783030160648801526118b0565b918483030160848501526118b0565b03925af18015610aad57611a1c5750565b611a25906114d4565b565b600854600160401b8110156114e75760018101806008558110156114605760086000527ff3f7a9fe364faab93b216da50a3214154f22a0a2b415b23a84c8169e8b636ee30180546001600160a01b0319166001600160a01b03909216919091179055565b8054600160401b8110156114e757611aa891600182018155611448565b60018060a09493941b038084549260031b9316831b921b191617905556fea26469706673582212206f5c4173d661c50582e10b441fef507dfd70226ad10f5fd3a499a9ba389a0d9d64736f6c63430008180033",
  "linkReferences": {},
  "deployedLinkReferences": {}
}