{
  "_format": "hh-sol-artifact-1",
  "contractName": "AFTRParimutuelMarketFactory",
  "sourceName": "contracts/factory/AFTRParimutuelMarketFactory.sol",
  "abi": [
    {
      "inputs": [
        {
          "internalType": "address",
          "name": "owner_",
          "type": "address"
        },
        {
          "internalType": "address",
          "name": "feeRecipient_",
          "type": "address"
        },
        {
          "internalType": "address",
          "name": "optimisticOracleV2_",
          "type": "address"
        },
        {
          "internalType": "address",
          "name": "umaBondCurrency_",
          "type": "address"
        }
      ],
      "stateMutability": "nonpayable",
      "type": "constructor"
    },
    {
      "inputs": [],
      "name": "InvalidAddress",
      "type": "error"
    },
    {
      "inputs": [],
      "name": "InvalidBins",
      "type": "error"
    },
    {
      "inputs": [],
      "name": "InvalidCollateral",
      "type": "error"
    },
    {
      "inputs": [],
      "name": "InvalidConfig",
      "type": "error"
    },
    {
      "inputs": [],
      "name": "InvalidDeployer",
      "type": "error"
    },
    {
      "inputs": [],
      "name": "InvalidFeed",
      "type": "error"
    },
    {
      "inputs": [],
      "name": "InvalidMeta",
      "type": "error"
    },
    {
      "inputs": [],
      "name": "InvalidOutcomes",
      "type": "error"
    },
    {
      "inputs": [],
      "name": "InvalidTime",
      "type": "error"
    },
    {
      "inputs": [],
      "name": "NotCreator",
      "type": "error"
    },
    {
      "inputs": [
        {
          "internalType": "address",
          "name": "owner",
          "type": "address"
        }
      ],
      "name": "OwnableInvalidOwner",
      "type": "error"
    },
    {
      "inputs": [
        {
          "internalType": "address",
          "name": "account",
          "type": "address"
        }
      ],
      "name": "OwnableUnauthorizedAccount",
      "type": "error"
    },
    {
      "anonymous": false,
      "inputs": [
        {
          "indexed": true,
          "internalType": "address",
          "name": "recipient",
          "type": "address"
        }
      ],
      "name": "FeeRecipientUpdated",
      "type": "event"
    },
    {
      "anonymous": false,
      "inputs": [
        {
          "indexed": true,
          "internalType": "address",
          "name": "market",
          "type": "address"
        },
        {
          "indexed": true,
          "internalType": "enum AFTRVParimutuelMarket.MarketKind",
          "name": "kind",
          "type": "uint8"
        },
        {
          "indexed": true,
          "internalType": "address",
          "name": "collateralToken",
          "type": "address"
        },
        {
          "indexed": false,
          "internalType": "address[]",
          "name": "outcomeTokens",
          "type": "address[]"
        },
        {
          "indexed": false,
          "internalType": "string[]",
          "name": "outcomeLabels",
          "type": "string[]"
        },
        {
          "indexed": false,
          "internalType": "uint256",
          "name": "stakeEndTimestamp",
          "type": "uint256"
        },
        {
          "indexed": false,
          "internalType": "uint256",
          "name": "resolveAfterTimestamp",
          "type": "uint256"
        },
        {
          "indexed": false,
          "internalType": "bytes32",
          "name": "metadataHash",
          "type": "bytes32"
        }
      ],
      "name": "MarketCreated",
      "type": "event"
    },
    {
      "anonymous": false,
      "inputs": [
        {
          "indexed": true,
          "internalType": "address",
          "name": "deployer",
          "type": "address"
        }
      ],
      "name": "MarketDeployerUpdated",
      "type": "event"
    },
    {
      "anonymous": false,
      "inputs": [
        {
          "indexed": true,
          "internalType": "address",
          "name": "oracle",
          "type": "address"
        }
      ],
      "name": "OptimisticOracleV2Updated",
      "type": "event"
    },
    {
      "anonymous": false,
      "inputs": [
        {
          "indexed": true,
          "internalType": "address",
          "name": "previousOwner",
          "type": "address"
        },
        {
          "indexed": true,
          "internalType": "address",
          "name": "newOwner",
          "type": "address"
        }
      ],
      "name": "OwnershipTransferStarted",
      "type": "event"
    },
    {
      "anonymous": false,
      "inputs": [
        {
          "indexed": true,
          "internalType": "address",
          "name": "previousOwner",
          "type": "address"
        },
        {
          "indexed": true,
          "internalType": "address",
          "name": "newOwner",
          "type": "address"
        }
      ],
      "name": "OwnershipTransferred",
      "type": "event"
    },
    {
      "anonymous": false,
      "inputs": [
        {
          "indexed": true,
          "internalType": "address",
          "name": "token",
          "type": "address"
        }
      ],
      "name": "SupportedCollateralAdded",
      "type": "event"
    },
    {
      "anonymous": false,
      "inputs": [
        {
          "indexed": true,
          "internalType": "address",
          "name": "token",
          "type": "address"
        }
      ],
      "name": "SupportedCollateralRemoved",
      "type": "event"
    },
    {
      "anonymous": false,
      "inputs": [
        {
          "indexed": true,
          "internalType": "address",
          "name": "currency",
          "type": "address"
        }
      ],
      "name": "UmaBondCurrencyUpdated",
      "type": "event"
    },
    {
      "inputs": [],
      "name": "acceptOwnership",
      "outputs": [],
      "stateMutability": "nonpayable",
      "type": "function"
    },
    {
      "inputs": [
        {
          "internalType": "address",
          "name": "token",
          "type": "address"
        }
      ],
      "name": "addSupportedCollateral",
      "outputs": [],
      "stateMutability": "nonpayable",
      "type": "function"
    },
    {
      "inputs": [],
      "name": "batchExecutor",
      "outputs": [
        {
          "internalType": "address",
          "name": "",
          "type": "address"
        }
      ],
      "stateMutability": "view",
      "type": "function"
    },
    {
      "inputs": [
        {
          "components": [
            {
              "internalType": "address",
              "name": "collateralToken",
              "type": "address"
            },
            {
              "internalType": "uint8",
              "name": "collateralDecimals",
              "type": "uint8"
            },
            {
              "internalType": "uint256",
              "name": "virtualReserve",
              "type": "uint256"
            },
            {
              "internalType": "uint256",
              "name": "stakeEndTimestamp",
              "type": "uint256"
            },
            {
              "internalType": "uint256",
              "name": "resolveAfterTimestamp",
              "type": "uint256"
            },
            {
              "internalType": "bytes32",
              "name": "metadataHash",
              "type": "bytes32"
            },
            {
              "internalType": "string[]",
              "name": "outcomeLabels",
              "type": "string[]"
            },
            {
              "internalType": "string",
              "name": "metadataURI",
              "type": "string"
            },
            {
              "internalType": "string",
              "name": "umaAncillary",
              "type": "string"
            },
            {
              "internalType": "bytes32",
              "name": "umaIdentifier",
              "type": "bytes32"
            },
            {
              "internalType": "uint64",
              "name": "umaLiveness",
              "type": "uint64"
            },
            {
              "internalType": "uint256",
              "name": "umaProposerBond",
              "type": "uint256"
            },
            {
              "internalType": "uint256",
              "name": "umaReward",
              "type": "uint256"
            },
            {
              "internalType": "address",
              "name": "umaRewardCurrency",
              "type": "address"
            },
            {
              "internalType": "uint256",
              "name": "minBootstrapTotal",
              "type": "uint256"
            }
          ],
          "internalType": "struct AFTRParimutuelMarketFactory.EventMarketParams",
          "name": "p",
          "type": "tuple"
        }
      ],
      "name": "createEventMarket",
      "outputs": [
        {
          "internalType": "address",
          "name": "market",
          "type": "address"
        }
      ],
      "stateMutability": "nonpayable",
      "type": "function"
    },
    {
      "inputs": [
        {
          "components": [
            {
              "internalType": "address",
              "name": "collateralToken",
              "type": "address"
            },
            {
              "internalType": "uint8",
              "name": "collateralDecimals",
              "type": "uint8"
            },
            {
              "internalType": "uint256",
              "name": "virtualReserve",
              "type": "uint256"
            },
            {
              "internalType": "uint256",
              "name": "stakeEndTimestamp",
              "type": "uint256"
            },
            {
              "internalType": "uint256",
              "name": "resolveAfterTimestamp",
              "type": "uint256"
            },
            {
              "internalType": "bytes32",
              "name": "metadataHash",
              "type": "bytes32"
            },
            {
              "internalType": "string[]",
              "name": "outcomeLabels",
              "type": "string[]"
            },
            {
              "internalType": "string",
              "name": "metadataURI",
              "type": "string"
            },
            {
              "internalType": "address",
              "name": "chainlinkFeed",
              "type": "address"
            },
            {
              "internalType": "uint256",
              "name": "priceThreshold",
              "type": "uint256"
            },
            {
              "internalType": "enum AFTRVParimutuelMarket.PriceThresholdKind",
              "name": "priceKind",
              "type": "uint8"
            },
            {
              "internalType": "uint256",
              "name": "priceUpperBound",
              "type": "uint256"
            },
            {
              "internalType": "uint256",
              "name": "maxPriceStaleness",
              "type": "uint256"
            },
            {
              "internalType": "uint256[]",
              "name": "priceBinLower",
              "type": "uint256[]"
            },
            {
              "internalType": "uint256[]",
              "name": "priceBinUpper",
              "type": "uint256[]"
            },
            {
              "internalType": "uint256",
              "name": "minBootstrapTotal",
              "type": "uint256"
            }
          ],
          "internalType": "struct AFTRParimutuelMarketFactory.PriceMarketParams",
          "name": "p",
          "type": "tuple"
        }
      ],
      "name": "createPriceMarket",
      "outputs": [
        {
          "internalType": "address",
          "name": "market",
          "type": "address"
        }
      ],
      "stateMutability": "nonpayable",
      "type": "function"
    },
    {
      "inputs": [],
      "name": "feeRecipient",
      "outputs": [
        {
          "internalType": "address",
          "name": "",
          "type": "address"
        }
      ],
      "stateMutability": "view",
      "type": "function"
    },
    {
      "inputs": [
        {
          "internalType": "address",
          "name": "market",
          "type": "address"
        }
      ],
      "name": "getMarketOutcomeTokens",
      "outputs": [
        {
          "internalType": "address[]",
          "name": "",
          "type": "address[]"
        }
      ],
      "stateMutability": "view",
      "type": "function"
    },
    {
      "inputs": [
        {
          "internalType": "address",
          "name": "",
          "type": "address"
        }
      ],
      "name": "isMarket",
      "outputs": [
        {
          "internalType": "bool",
          "name": "",
          "type": "bool"
        }
      ],
      "stateMutability": "view",
      "type": "function"
    },
    {
      "inputs": [
        {
          "internalType": "address",
          "name": "market",
          "type": "address"
        },
        {
          "internalType": "address",
          "name": "token",
          "type": "address"
        }
      ],
      "name": "isOutcomeTokenForMarket",
      "outputs": [
        {
          "internalType": "bool",
          "name": "",
          "type": "bool"
        }
      ],
      "stateMutability": "view",
      "type": "function"
    },
    {
      "inputs": [
        {
          "internalType": "address",
          "name": "",
          "type": "address"
        }
      ],
      "name": "isSupportedCollateral",
      "outputs": [
        {
          "internalType": "bool",
          "name": "",
          "type": "bool"
        }
      ],
      "stateMutability": "view",
      "type": "function"
    },
    {
      "inputs": [],
      "name": "marketDeployer",
      "outputs": [
        {
          "internalType": "address",
          "name": "",
          "type": "address"
        }
      ],
      "stateMutability": "view",
      "type": "function"
    },
    {
      "inputs": [
        {
          "internalType": "uint256",
          "name": "",
          "type": "uint256"
        }
      ],
      "name": "markets",
      "outputs": [
        {
          "internalType": "address",
          "name": "",
          "type": "address"
        }
      ],
      "stateMutability": "view",
      "type": "function"
    },
    {
      "inputs": [],
      "name": "marketsLength",
      "outputs": [
        {
          "internalType": "uint256",
          "name": "",
          "type": "uint256"
        }
      ],
      "stateMutability": "view",
      "type": "function"
    },
    {
      "inputs": [],
      "name": "optimisticOracleV2",
      "outputs": [
        {
          "internalType": "address",
          "name": "",
          "type": "address"
        }
      ],
      "stateMutability": "view",
      "type": "function"
    },
    {
      "inputs": [],
      "name": "owner",
      "outputs": [
        {
          "internalType": "address",
          "name": "",
          "type": "address"
        }
      ],
      "stateMutability": "view",
      "type": "function"
    },
    {
      "inputs": [],
      "name": "pendingOwner",
      "outputs": [
        {
          "internalType": "address",
          "name": "",
          "type": "address"
        }
      ],
      "stateMutability": "view",
      "type": "function"
    },
    {
      "inputs": [
        {
          "internalType": "address",
          "name": "token",
          "type": "address"
        }
      ],
      "name": "removeSupportedCollateral",
      "outputs": [],
      "stateMutability": "nonpayable",
      "type": "function"
    },
    {
      "inputs": [],
      "name": "renounceOwnership",
      "outputs": [],
      "stateMutability": "nonpayable",
      "type": "function"
    },
    {
      "inputs": [
        {
          "internalType": "address",
          "name": "executor",
          "type": "address"
        }
      ],
      "name": "setBatchExecutor",
      "outputs": [],
      "stateMutability": "nonpayable",
      "type": "function"
    },
    {
      "inputs": [
        {
          "internalType": "address",
          "name": "r",
          "type": "address"
        }
      ],
      "name": "setFeeRecipient",
      "outputs": [],
      "stateMutability": "nonpayable",
      "type": "function"
    },
    {
      "inputs": [
        {
          "internalType": "address",
          "name": "d",
          "type": "address"
        }
      ],
      "name": "setMarketDeployer",
      "outputs": [],
      "stateMutability": "nonpayable",
      "type": "function"
    },
    {
      "inputs": [
        {
          "internalType": "address",
          "name": "oo",
          "type": "address"
        }
      ],
      "name": "setOptimisticOracleV2",
      "outputs": [],
      "stateMutability": "nonpayable",
      "type": "function"
    },
    {
      "inputs": [
        {
          "internalType": "address",
          "name": "c",
          "type": "address"
        }
      ],
      "name": "setUmaBondCurrency",
      "outputs": [],
      "stateMutability": "nonpayable",
      "type": "function"
    },
    {
      "inputs": [
        {
          "internalType": "address",
          "name": "newOwner",
          "type": "address"
        }
      ],
      "name": "transferOwnership",
      "outputs": [],
      "stateMutability": "nonpayable",
      "type": "function"
    },
    {
      "inputs": [],
      "name": "umaBondCurrency",
      "outputs": [
        {
          "internalType": "address",
          "name": "",
          "type": "address"
        }
      ],
      "stateMutability": "view",
      "type": "function"
    }
  ],
  "bytecode": "0x6080346200014b57601f62001d9a38819003918201601f19168301916001600160401b0383118484101762000150578084926080946040528339810103126200014b576200004d8162000166565b6200005b6020830162000166565b91620000786060620000706040840162000166565b920162000166565b6001600160a01b03929091908316801562000132578360018060a01b03199586600154166001556000549280888516176000558260405194167f8be0079c531659141344cd1fd0a4f28419497f9722a3daafe3b4186f6b6457e0600080a316908115801562000127575b6200011857509083918560035416176003551683600454161760045516906005541617600555604051611c1e90816200017c8239f35b63e6c4247b60e01b8152600490fd5b5084841615620000e2565b604051631e4fbdf760e01b815260006004820152602490fd5b600080fd5b634e487b7160e01b600052604160045260246000fd5b51906001600160a01b03821682036200014b5756fe608080604052600436101561001357600080fd5b60003560e01c9081630d2af8d3146114f35750806317dbc538146114b05780631800d79f146114325780631d555306146113ef5780631f470b2d1461135757806339f4c4da146113185780634682be61146112af578063469048401461128657806351e84b8414610c97578063536db2e614610c175780635e6607ff14610bee5780636ec934da14610baf578063715018a614610b4a57806379ba509714610ac15780638da5cb5b14610a985780639b307dc214610a2f578063a540254414610a11578063b1283e77146109b6578063b2d35b7a1461094f578063b6fdfc121461029d578063bb1e453114610274578063e30c39781461024b578063e74b981b146101d0578063ed460e56146101a75763f2fde38b1461013257600080fd5b346101a25760203660031901126101a25761014b611517565b61015361165b565b60018060a01b0380911690816bffffffffffffffffffffffff60a01b6001541617600155600054167f38d16b8cac22d99fc7c124b9cd0de2d3fa1faef420bfe791d8c362d765e22700600080a3005b600080fd5b346101a25760003660031901126101a2576005546040516001600160a01b039091168152602090f35b346101a25760203660031901126101a2576101e9611517565b6101f161165b565b6001600160a01b0316801561023957600380546001600160a01b031916821790557f7a7b5a0a132f9e0581eb8527f66eae9ee89c2a3e79d4ac7e41a1f1f4d48a7fc2600080a2005b60405163e6c4247b60e01b8152600490fd5b346101a25760003660031901126101a2576001546040516001600160a01b039091168152602090f35b346101a25760003660031901126101a2576007546040516001600160a01b039091168152602090f35b346101a2576003196020368201126101a2576001600160401b03600435116101a25761020090600435360301126101a2576000546001600160a01b0316338114158061093a575b6109285761030d6102f960043560040161166f565b610307602460043501611683565b90611973565b906001600160a01b03610323600480350161166f565b16600052600260205260ff6040600020541615610916576001600160a01b0361034f600480350161166f565b161580610908575b61087957600261037160c460043501600435600401611691565b90501080156108e9575b6108d7576001600160a01b036103966004356101040161166f565b16156108c557610184600435013515610879574260646004350135118015906108af575b61089d5760a460043501351561088b576103df6101a460043501600435600401611691565b159050610827576103fb6101a460043501600435600401611691565b905061041160c460043501600435600401611691565b919050148015906107f1575b6107df575b6007546001600160a01b031680156107cd576003546001600160a01b03169061044e600480350161166f565b9061046360c460043501600435600401611691565b9390506104756101046004350161166f565b936003610144600435013510156101a25760ff9561057c6000969287936104a660c460043501600435600401611691565b9a9092816040519d8e9b8c9a8b9963624a59d360e11b8b5260048b015260248a015260018060a01b031660448901521660648701521660848501526044600435013560a48501526064600435013560c48501526084600435013560e485015260a4600435013561010485015260018060a01b031661012484015261012460043501356101448401526101446004350135610164840152610164600435013561018484015261018460043501356101a48401526101c4986101e460043501358a8501526102006101e485015261020484019161180d565b03925af19081156107c15760009260009261078c575b506105f261060c610614926105b160e4600435016004356004016116c6565b610604604094929451936105c48561161f565b600085526105fc6105e06101a460043501600435600401611691565b98909260043501600435600401611691565b97909436916116f8565b963691611925565b933691611925565b928587611a12565b61062260043560040161166f565b9061064161063a60c460043501600435600401611691565b36916118a6565b61064a84611b49565b6001600160a01b0384166000908152600960205260408120805460ff191660011790555b82518110156106b1576001600160a01b038581166000908152600a60205260409020600192916106ab91906106a3848861198a565b511690611bad565b0161066e565b5092916106c96040519260a0845260a084019061152d565b8281036020840152845180825260208201916020808360051b8301019701926000915b83831061075f57600435606481013560408901526084810135606089015260a4013560808801526020886001600160a01b038089169060009083167fb679f8bb353ccc2331bbeb116d31f96fe2836f68dd9cb37d0749ea0b26be22d68c8f038da46040516001600160a01b039091168152f35b909192939760208061077d600193601f198682030187528c516119d2565b9a0193019301919392906106ec565b61060c93506106149192506107b66105f2913d806000833e6107ae818361163a565b81019061177d565b909450929150610592565b6040513d6000823e3d90fd5b60405163043c669f60e01b8152600490fd5b60405163b2d4eceb60e01b8152600490fd5b506108076101c460043501600435600401611691565b905061081d60c460043501600435600401611691565b919050141561041d565b600261083d60c460043501600435600401611691565b9050036107df576003610144600435013510156101a2576002610144600435013503610422576101646004350135610124600435013510610422575b6040516306b7c75960e31b8152600490fd5b6040516308bb27af60e41b8152600490fd5b6040516337bf561360e11b8152600490fd5b50606460043501356084600435013511156103ba565b6040516301f86e1760e41b8152600490fd5b6040516367d635e160e01b8152600490fd5b50602061090060c460043501600435600401611691565b90501161037b565b50601260ff83161415610357565b6040516368f7a67560e11b8152600490fd5b6040516393687c0b60e01b8152600490fd5b506006546001600160a01b03163314156102e4565b346101a25760203660031901126101a257610968611517565b61097061165b565b600480546001600160a01b0319166001600160a01b039290921691821790557f6be240c3ce51532bc6f7066bd1c5c51947cc8e3e01fa03397d6ab44cfa7d198a600080a2005b346101a25760203660031901126101a2576004356008548110156101a25760086000527ff3f7a9fe364faab93b216da50a3214154f22a0a2b415b23a84c8169e8b636ee301546040516001600160a01b039091168152602090f35b346101a25760003660031901126101a2576020600854604051908152f35b346101a25760203660031901126101a257610a48611517565b610a5061165b565b6001600160a01b0316801561023957600780546001600160a01b031916821790557f605f04a31cf07d957f1c52208519e1cd6da20eb11dc98e67fc3eff63fe3933fc600080a2005b346101a25760003660031901126101a2576000546040516001600160a01b039091168152602090f35b346101a25760003660031901126101a2576001546001600160a01b033381831603610b32576bffffffffffffffffffffffff60a01b8092166001556000549133908316176000553391167f8be0079c531659141344cd1fd0a4f28419497f9722a3daafe3b4186f6b6457e0600080a3005b60405163118cdaa760e01b8152336004820152602490fd5b346101a25760003660031901126101a257610b6361165b565b600180546001600160a01b0319908116909155600080549182168155906001600160a01b03167f8be0079c531659141344cd1fd0a4f28419497f9722a3daafe3b4186f6b6457e08280a3005b346101a25760203660031901126101a2576001600160a01b03610bd0611517565b166000526009602052602060ff604060002054166040519015158152f35b346101a25760003660031901126101a2576006546040516001600160a01b039091168152602090f35b346101a25760203660031901126101a257610c30611517565b610c3861165b565b6001600160a01b031660008181526002602052604090205460ff16610879578060005260026020526040600020600160ff198254161790557fbd8a8e5a223a7347dab9de83a90a67c6bb291a7ac7487fba3886f5ed162d1da5600080a2005b346101a257602060031981813601126101a2576001600160401b03600435116101a2576101e090600435360301126101a2576000546001600160a01b03163381141580611271575b61092857610cf46102f960043560040161166f565b906001600160a01b03610d0a600480350161166f565b166000526002835260ff6040600020541615610916576001600160a01b03610d35600480350161166f565b161580611263575b610879576002610d5760c460043501600435600401611691565b9050108015611245575b6108d757610d84610d7d610104600435016004356004016116c6565b36916116f8565b9182518015908115611239575b50610879576001600160401b03610dad6101446004350161173e565b16156108795761012460043501359081156111df575b6e5945535f4f525f4e4f5f515545525960881b8214806111bf575b610879576004546001600160a01b0316928315610879576004356101a4016001600160a01b03610e0d8261166f565b16156111ac57610e1c9061166f565b915b6001600160a01b0383161561087957426064600435013511801590611196575b61089d5760a460043501351561088b576007546001600160a01b03169384156107cd576003546001600160a01b031693610e7b600480350161166f565b96610e8e6004803560c481019101611691565b939050610ea06101446004350161173e565b91610eb36004803560c481019101611691565b9590966040519b8c9a8b9a6353a4e6d760e01b8c5260048c015260248b0152600160a01b600190031660448a015260ff16606489015260ff1660848801526004356044013560a48801526004356064013560c48801526004356084013560e488015260043560a401356101048801526101248701526101448601526001600160401b0316610164850152600435610164013561018485015260043561018401356101a4850152600160a01b60019003166101c48401526004356101c401356101e484015261020483016102209052610224830190610f909261180d565b03815a6000948591f19182156107c157600091600093611173575b50610ff890610fc460e4600435016004356004016116c6565b91610ff160405192610fd58461161f565b6000845260405194610fe68661161f565b6000865236916116f8565b8686611a12565b61100660043560040161166f565b61101d61063a60c460043501600435600401611691565b9161102781611b49565b60018060a01b031692839182600052600986526040600020600190600160ff19825416179055806000905b61112b575b5061106d6040519360a0855260a085019061152d565b908382038885015285518083528883019289808360051b8301019801936000915b8b8484106110f657898b6001827fb679f8bb353ccc2331bbeb116d31f96fe2836f68dd9cb37d0749ea0b26be22d68d808e60646004350135604083015260846004350135606083015260a460043501356080830152858060a01b0316950390a4604051908152f35b8597989950611116819294969395979b601f198682030187528c516119d2565b9a01930193019092899796959394929461108e565b83829394955051811015611169576000878152600a89526040902082919061115f906001600160a01b036106a3848a61198a565b0186949392611052565b8694939250611057565b61118e919350610ff892503d806000833e6107ae818361163a565b929091610fab565b5060646004350135608460043501351115610e3e565b506005546001600160a01b031691610e1e565b5060026111d660c460043501600435600401611691565b90501415610dde565b905060026111f760c460043501600435600401611691565b90501460001461121b576e5945535f4f525f4e4f5f515545525960881b5b90610dc3565b744d554c5449504c455f43484f4943455f515545525960581b611215565b61200091501185610d91565b508261125b60c460043501600435600401611691565b905011610d61565b50601260ff83161415610d3d565b506006546001600160a01b0316331415610cdf565b346101a25760003660031901126101a2576003546040516001600160a01b039091168152602090f35b346101a25760203660031901126101a2576112c8611517565b6112d061165b565b6001600160a01b0316801561023957600580546001600160a01b031916821790557f523e520d3e5099d5b5ef94a4279b3b62d1f69afa84ab6d0ae03287a7a67c68f2600080a2005b346101a25760203660031901126101a2576001600160a01b03611339611517565b166000526002602052602060ff604060002054166040519015158152f35b346101a2576020806003193601126101a2576001600160a01b03908161137b611517565b16600052600a81526040600020916040518093849184825491828152019160005284600020936000905b868383106113d35785906113bb8287038361163a565b6113cf60405192828493845283019061152d565b0390f35b86548216855260019687019689965094019391909101906113a5565b346101a25760203660031901126101a257611408611517565b61141061165b565b600680546001600160a01b0319166001600160a01b0392909216919091179055005b346101a25760203660031901126101a25761144b611517565b61145361165b565b6001600160a01b031660008181526002602052604090205460ff161561087957806000526002602052604060002060ff1981541690557f0ffbe34cfa1831023fd1e8602fc452dfa0e07b531dd9197a3fac11258aa17e75600080a2005b346101a25760403660031901126101a2576114c9611517565b602435906001600160a01b03821682036101a2576020916114e991611598565b6040519015158152f35b346101a25760003660031901126101a2576004546001600160a01b03168152602090f35b600435906001600160a01b03821682036101a257565b90815180825260208080930193019160005b82811061154d575050505090565b83516001600160a01b03168552938101939281019260010161153f565b80548210156115825760005260206000200190600090565b634e487b7160e01b600052603260045260246000fd5b6001600160a01b039081166000908152600a6020526040812080549390915b8481106115c8575050505050600090565b836115d3828561156a565b9190548185169260031b1c16146115ec576001016115b7565b5050505050600190565b6001600160401b03811161160957604052565b634e487b7160e01b600052604160045260246000fd5b602081019081106001600160401b0382111761160957604052565b90601f801991011681019081106001600160401b0382111761160957604052565b6000546001600160a01b03163303610b3257565b356001600160a01b03811681036101a25790565b3560ff811681036101a25790565b903590601e19813603018212156101a257018035906001600160401b0382116101a257602001918160051b360383136101a257565b903590601e19813603018212156101a257018035906001600160401b0382116101a2576020019181360383136101a257565b9291926001600160401b0382116116095760405191611721601f8201601f19166020018461163a565b8294818452818301116101a2578281602093846000960137010152565b356001600160401b03811681036101a25790565b51906001600160a01b03821682036101a257565b6001600160401b0381116116095760051b60200190565b91906040838203126101a25761179283611752565b9260209081810151906001600160401b0382116101a257019180601f840112156101a25782516117c181611766565b936117cf604051958661163a565b818552838086019260051b8201019283116101a2578301905b8282106117f6575050505090565b83809161180284611752565b8152019101906117e8565b8183526020600583901b84018101939192906000818401855b848310611837575050505050505090565b90919293949596601f19808883030184528835601e19843603018112156101a257830186810190356001600160401b0381116101a25780360382136101a257838893601f83808796879660019a5286860137600085828601015201160101990193019301919594939290611826565b929190926118b384611766565b916118c1604051938461163a565b829480845260208094019060051b8301928284116101a25780915b8483106118eb57505050505050565b82356001600160401b0381116101a257820184601f820112156101a257869161191a86838580953591016116f8565b8152019201916118dc565b929161193082611766565b9161193e604051938461163a565b829481845260208094019160051b81019283116101a257905b8282106119645750505050565b81358152908301908301611957565b6001600160a01b0316156119845790565b50601290565b80518210156115825760209160051b010190565b90815180825260208080930193019160005b8281106119be575050505090565b8351855293810193928101926001016119b0565b919082519283825260005b8481106119fe575050826000602080949584010152601f8019910116010190565b6020818301810151848301820152016119dd565b9592949190939460005b8551811015611a96576001600160a01b0380611a38838961198a565b511690813b156101a257600060409160248c838551968794859363f2fde38b60e01b85521660048401525af1908115611a8c57509060019291611a7d575b5001611a1c565b611a86906115f6565b38611a76565b513d6000823e3d90fd5b509295919490926001600160a01b0390921691823b156101a257600094611b2d611aeb938793611b1e611afe98611b0e6040519c8d9b8c9a8b9963cc3e02ff60e01b8b5260a060048c015260a48b019061152d565b60031997888b83030160248c015261199e565b90868983030160448a015261199e565b90848783030160648801526119d2565b918483030160848501526119d2565b03925af180156107c157611b3e5750565b611b47906115f6565b565b600854600160401b8110156116095760018101806008558110156115825760086000527ff3f7a9fe364faab93b216da50a3214154f22a0a2b415b23a84c8169e8b636ee30180546001600160a01b0319166001600160a01b03909216919091179055565b8054600160401b81101561160957611bca9160018201815561156a565b60018060a09493941b038084549260031b9316831b921b191617905556fea2646970667358221220aa94ae89e586f6e1fd29c4294c3883aef6dbf6a3d6cf08d3d410cb8705d55f2464736f6c63430008180033",
  "linkReferences": {},
  "deployedLinkReferences": {}
}