{
  "_format": "hh-sol-artifact-1",
  "contractName": "AFTRParimutuelDeployer",
  "sourceName": "contracts/factory/AFTRParimutuelDeployer.sol",
  "abi": [
    {
      "inputs": [
        {
          "internalType": "address",
          "name": "factory_",
          "type": "address"
        }
      ],
      "stateMutability": "nonpayable",
      "type": "constructor"
    },
    {
      "inputs": [],
      "name": "EmptyLabel",
      "type": "error"
    },
    {
      "inputs": [],
      "name": "OnlyFactory",
      "type": "error"
    },
    {
      "inputs": [
        {
          "internalType": "address",
          "name": "owner_",
          "type": "address"
        },
        {
          "internalType": "address",
          "name": "feeRecipient_",
          "type": "address"
        },
        {
          "internalType": "address",
          "name": "collateralToken_",
          "type": "address"
        },
        {
          "internalType": "uint8",
          "name": "collateralDecimals_",
          "type": "uint8"
        },
        {
          "internalType": "uint8",
          "name": "numOutcomes_",
          "type": "uint8"
        },
        {
          "internalType": "uint256",
          "name": "virtualReserve_",
          "type": "uint256"
        },
        {
          "internalType": "uint256",
          "name": "stakeEndTimestamp_",
          "type": "uint256"
        },
        {
          "internalType": "uint256",
          "name": "resolveAfterTimestamp_",
          "type": "uint256"
        },
        {
          "internalType": "bytes32",
          "name": "metadataHash_",
          "type": "bytes32"
        },
        {
          "internalType": "address",
          "name": "optimisticOracleV2_",
          "type": "address"
        },
        {
          "internalType": "bytes32",
          "name": "umaIdentifier_",
          "type": "bytes32"
        },
        {
          "internalType": "uint64",
          "name": "umaLiveness_",
          "type": "uint64"
        },
        {
          "internalType": "uint256",
          "name": "umaProposerBond_",
          "type": "uint256"
        },
        {
          "internalType": "uint256",
          "name": "umaReward_",
          "type": "uint256"
        },
        {
          "internalType": "address",
          "name": "bondToken_",
          "type": "address"
        },
        {
          "internalType": "uint256",
          "name": "minBootstrapTotal_",
          "type": "uint256"
        },
        {
          "internalType": "string[]",
          "name": "outcomeLabels",
          "type": "string[]"
        }
      ],
      "name": "deployEventMarket",
      "outputs": [
        {
          "internalType": "address",
          "name": "market",
          "type": "address"
        },
        {
          "internalType": "address[]",
          "name": "tokens",
          "type": "address[]"
        }
      ],
      "stateMutability": "nonpayable",
      "type": "function"
    },
    {
      "inputs": [
        {
          "internalType": "address",
          "name": "owner_",
          "type": "address"
        },
        {
          "internalType": "address",
          "name": "feeRecipient_",
          "type": "address"
        },
        {
          "internalType": "address",
          "name": "collateralToken_",
          "type": "address"
        },
        {
          "internalType": "uint8",
          "name": "collateralDecimals_",
          "type": "uint8"
        },
        {
          "internalType": "uint8",
          "name": "numOutcomes_",
          "type": "uint8"
        },
        {
          "internalType": "uint256",
          "name": "virtualReserve_",
          "type": "uint256"
        },
        {
          "internalType": "uint256",
          "name": "stakeEndTimestamp_",
          "type": "uint256"
        },
        {
          "internalType": "uint256",
          "name": "resolveAfterTimestamp_",
          "type": "uint256"
        },
        {
          "internalType": "bytes32",
          "name": "metadataHash_",
          "type": "bytes32"
        },
        {
          "internalType": "address",
          "name": "chainlinkFeed_",
          "type": "address"
        },
        {
          "internalType": "uint256",
          "name": "priceThreshold_",
          "type": "uint256"
        },
        {
          "internalType": "enum AFTRVParimutuelMarket.PriceThresholdKind",
          "name": "priceKind_",
          "type": "uint8"
        },
        {
          "internalType": "uint256",
          "name": "priceUpperBound_",
          "type": "uint256"
        },
        {
          "internalType": "uint256",
          "name": "maxPriceStaleness_",
          "type": "uint256"
        },
        {
          "internalType": "uint256",
          "name": "minBootstrapTotal_",
          "type": "uint256"
        },
        {
          "internalType": "string[]",
          "name": "outcomeLabels",
          "type": "string[]"
        }
      ],
      "name": "deployPriceMarket",
      "outputs": [
        {
          "internalType": "address",
          "name": "market",
          "type": "address"
        },
        {
          "internalType": "address[]",
          "name": "tokens",
          "type": "address[]"
        }
      ],
      "stateMutability": "nonpayable",
      "type": "function"
    },
    {
      "inputs": [],
      "name": "factory",
      "outputs": [
        {
          "internalType": "address",
          "name": "",
          "type": "address"
        }
      ],
      "stateMutability": "view",
      "type": "function"
    }
  ],
  "bytecode": "0x60a03461007e57601f6156e238819003918201601f19168301916001600160401b038311848410176100835780849260209460405283398101031261007e57516001600160a01b038116810361007e57608052604051615648908161009a823960805181818160de015281816102770152818161035101526106a50152f35b600080fd5b634e487b7160e01b600052604160045260246000fdfe60806040908082526004803610156200001757600080fd5b600091823560e01c90816353a4e6d714620002a657508063c45a015514620002605763c494b3a6146200004957600080fd5b346200025c576102009283600319360112620002585762000069620004a5565b9162000074620004c1565b946200007f620004d8565b906200008a62000507565b6200009462000518565b6200009e620004ef565b9061016435926003841015620002545767ffffffffffffffff956101e4358781116200025057620000d39036908a0162000529565b6001600160a01b039d7f00000000000000000000000000000000000000000000000000000000000000008f169c9092909190338e900362000240576200011b9186916200063a565b9b8b519a613ff690818d019b8d8d10908d11176200022d57508f94958f98948c9a978f8f9d9a956102e09f938f9460208c60ff9b8198958d9b8397620007bc903984521691015216908d01521660608b01521660808901521660a087015260a43560c087015260c43560e087015260e435610100870152846101208701526101043561014087015216610160850152610144356101808501526101a0840152610184356101c08401526101a4356101e084015282015286610220820152866102408201528661026082015286610280820152866102a08201526101c4356102c082015203019084f0928315620002225750906200021e915193849316836200055d565b0390f35b9051903d90823e3d90fd5b8f6041602492634e487b7160e01b835252fd5b8c51630636a15760e11b81528c90fd5b8b80fd5b8980fd5b8280fd5b5080fd5b8284346200025c57816003193601126200025c57517f00000000000000000000000000000000000000000000000000000000000000006001600160a01b03168152602090f35b919390503462000258576102203660031901126200025857620002c8620004a5565b93620002d3620004c1565b620002dd620004d8565b90620002e862000507565b620002f262000518565b620002fc620004ef565b90610164359267ffffffffffffffff95868516809503620004a1576001600160a01b039b6101c4358d81169791908890036200049d576102043589811162000499576200034e8f9136908d0162000529565b917f0000000000000000000000000000000000000000000000000000000000000000169d8e33036200048b5750620003889186916200063a565b9b8b519a613ff690818d019b8d8d10908d11176200022d5750948f8c9a98958e8260ff976102e09f8f819f9d99849d908c9a8692602094620007bc903984521691015216908c01521660608a01521660808801521660a086015260a43560c086015260c43560e086015260e4356101008601526001610120860152610104356101408601528a6101608601528a6101808601528a6101a08601528a6101c08601528a6101e08601521661020084015261014435610220840152610240830152610184356102608301526101a4356102808301526102a08201526101e4356102c082015203019084f0928315620002225750906200021e915193849316836200055d565b630636a15760e11b81528c90fd5b8d80fd5b8c80fd5b8a80fd5b600435906001600160a01b0382168203620004bc57565b600080fd5b602435906001600160a01b0382168203620004bc57565b604435906001600160a01b0382168203620004bc57565b61012435906001600160a01b0382168203620004bc57565b6064359060ff82168203620004bc57565b6084359060ff82168203620004bc57565b9181601f84011215620004bc5782359167ffffffffffffffff8311620004bc576020808501948460051b010111620004bc57565b6001600160a01b03918216815260406020808301829052845191830182905260609092019382019160005b8281106200059857505050505090565b835185168652948101949281019260010162000588565b67ffffffffffffffff8111620005c85760051b60200190565b634e487b7160e01b600052604160045260246000fd5b9190811015620006245760051b81013590601e1981360301821215620004bc57019081359167ffffffffffffffff8311620004bc576020018236038113620004bc579190565b634e487b7160e01b600052603260045260246000fd5b9291926200064882620005af565b91604092835191601f1980601f8094011684019067ffffffffffffffff9185811083821117620005c85787528285526200068283620005af565b93816020950136602088013785996000610e61620047b29560018060a01b0397887f000000000000000000000000000000000000000000000000000000000000000016935b818110620006df575050505050505050505050505050565b620006ec81838f620005de565b905015620007aa578d62000703828f8590620005de565b90918051928784019084821088831117620005c8578f916060908f948f8f8f908f968f9360039260e09c60ff968f9d8e39806080808b528a01528060a094858b0137600084828b010152011686019881878b0301908701528801526213d55560ea1b60c0880152169082015201520301906000f09081156200079f578c5181101562000624578c8c8c60019416918360051b01015201620006c7565b8e513d6000823e3d90fd5b8d5163cccf65f560e01b8152600490fdfe34620008e35762003ff638819003610400601f8201601f19168101906001600160401b03821190821017620008e8576102e09282916040526104003912620008e3576200004e610400620008fe565b6200005b610420620008fe565b6103e0526200006c610440620008fe565b62000079610460620008fe565b6200008661048062000913565b620000936104a062000913565b6104c0516104e0516105005161052051906002821015620008e3576105405190620000c0610560620008fe565b6103405261058051610360526105a05161038081905260031115620008e3576105c0516103a0526105e0516103c052620000fc610600620008fe565b6106205161064051979096919591906001600160401b0389168903620008e35761066051610680519b909a90620001356106a0620008fe565b9d6102c061040001519f60018060a01b036103e0511615620008ca57600180546001600160a01b0319908116909155600080546103e0516001600160a01b039081169382168417835560405193929116907f8be0079c531659141344cd1fd0a4f28419497f9722a3daafe3b4186f6b6457e09080a360017f9b779b17422d0df92223018b32b4d1fa46e071723d6817e2486d003becc55f00556001600160a01b038216151580620008c1575b80620008ae575b156200087d575060ff85166002811015908162000870575b50156200083a578515620008035742871115620007cd57868811156200079857881562000768576001600160a01b0383161562000729575b60805260a05260c05260e0526101005261012052610140526101605281610180526101a05215600014620005f1575050610340516001600160a01b0316159350620005c692505050576103c0511562000595576002610380511462000553575b610340516101c052610360516101e05261038051610200526103a051610220526103c0516102405260006102605260006102805260006102a05260006102c05260006102e0526000610300525b61032052600019600a556040516136d3620009238239608051818181610edf0152611771015260a0518181816123740152818161325f015281816132ae01526132e3015260c05181818161048c01528181611e0e0152818161232f0152613574015260e05181610d5801526101005181818161040a0152818161043301528181610462015281816104e101528181610f1c01528181611378015281816114de015281816115110152818161182001528181611b0b01528181611dd201528181612cec01528181612ec3015281816130ad015281816133eb015261348e015261012051818181611b650152612d1f0152610140518181816103b301528181611da301526121ba01526101605181818161085d0152818161247701526127d501526101805181818161081601528181610f5a01528181610f8101528181610fae01528181611a56015281816120de01528181612204015261243701526101a0518161173801526101c051818181611b9e01526124ac01526101e0518181816116a401528181612f2901528181612f6d0152612f95015261020051818181610df50152612ef901526102205181818161196a0152612fc80152610240518181816116fd015261250101526102605181818161090701528181610bc80152818161229b01526127370152610280518181816108c5015281816119a50152818161226e015261339101526102a05181818161099e0152611acd01526102c0518181816109ea0152611c8d01526102e051818181610890015261203b01526103005181818161093b01528181610ba50152818161211a01526123df01526103205181818161029a015261076d01526136d390f35b6103a0516103605110620002985760405162461bcd60e51b815260206004820152600c60248201526b52616e676520626f756e647360a01b6044820152606490fd5b60405162461bcd60e51b81526020600482015260096024820152685374616c656e65737360b81b6044820152606490fd5b606460405162461bcd60e51b81526020600482015260046024820152631199595960e21b6044820152fd5b6001600160a01b03811615620006fe578115620006d0576001600160401b03831615620006a0576001600160a01b038616156200066c5760006101c05260006101e05260006102005260006102205260006102405260018060a01b031661026052610280526102a0526102c0526102e05261030052620002e5565b60405162461bcd60e51b815260206004820152600c60248201526b554d412063757272656e637960a01b6044820152606490fd5b60405162461bcd60e51b81526020600482015260086024820152674c6976656e65737360c01b6044820152606490fd5b60405162461bcd60e51b8152602060048201526006602482015265155350481a5960d21b6044820152606490fd5b606460405162461bcd60e51b815260206004820152600460248201526327a7bb1960e11b6044820152fd5b601260ff85160315620002385760405162461bcd60e51b815260206004820152600a6024820152694554482031382064656360b01b6044820152606490fd5b60405162461bcd60e51b81526020600482015260086024820152674d6574616461746160c01b6044820152606490fd5b60405162461bcd60e51b815260206004820152600d60248201526c2932b9b7b63b329037b93232b960991b6044820152606490fd5b60405162461bcd60e51b815260206004820152600e60248201526d14dd185ad948195b99081c185cdd60921b6044820152606490fd5b60405162461bcd60e51b815260206004820152600f60248201526e5669727475616c207265736572766560881b6044820152606490fd5b60405162461bcd60e51b815260206004820152600e60248201526d4f7574636f6d65732072616e676560901b6044820152606490fd5b6020915011153862000200565b62461bcd60e51b815260206004820152600c60248201526b5a65726f206164647265737360a01b6044820152606490fd5b506001600160a01b0383161515620001e8565b506001620001e1565b604051631e4fbdf760e01b815260006004820152602490fd5b600080fd5b634e487b7160e01b600052604160045260246000fd5b51906001600160a01b0382168203620008e357565b519060ff82168203620008e35756fe608080604052600436101561001d575b50361561001b57600080fd5b005b600090813560e01c90816303ee438c146127f85750806306fdccc7146127bd57806308460328146127a05780630c7bd33b146127665780630d2af8d314612721578063116a343a146126f65780631448d312146126da578063158ef93e146126b75780632567d7d61461240e5780632c4c5e50146123c957806335142c8c146123a3578063469048401461235e57806348d399e714612319578063493dcae1146121dd5780634b841d24146121a25780634f12a39f146120b4578063540385a31461209657806355c1abe91461205e57806367bd151e14612023578063698b067614611d4a578063715018a614611ce45780637375b16814611cb0578063769dbd6e14611c7557806379ba509714611beb5780637d4035c514611bcd5780637dbdf1f514611b8857806380c08a5d14611b4d5780638192a43714611b2f5780638767d64e14611af15780638d56aa3e14611aad5780638da5cb5b14611a865780638e8daa7c14611a40578063912397c314611a145780639228c39b146119eb578063a2ffbe8e146119c8578063a5dc90f21461198d578063b972821914611952578063bb482f96146117c9578063c19d93fb146117a0578063c45a01551461175b578063c5a1d7f014611720578063c80d36b8146116e5578063ca455047146116c7578063cc2f60931461168c578063cc3e02ff14610e25578063d7f59f5b14610de0578063e1a4521814610dc3578063e30c397814610d9a578063e3eecc6f14610d7c578063ec9c6c3014610d3e578063ee879258146107ef578063f0d677d71461036a578063f11d7bdf14610331578063f2fde38b146102c05763ff3bb37e0361000f57346102bd57806003193601126102bd5760206040517f00000000000000000000000000000000000000000000000000000000000000008152f35b80fd5b50346102bd5760203660031901126102bd576004356001600160a01b038181169182900361032c576102f0613555565b600180546001600160a01b031916831790558254167f38d16b8cac22d99fc7c124b9cd0de2d3fa1faef420bfe791d8c362d765e227008380a380f35b600080fd5b50346102bd5760203660031901126102bd57600435906005548210156102bd57602061035c83612a40565b90546040519160031b1c8152f35b5060403660031901126102bd576024356001600160a01b038116900361032c57610392612e8a565b60065460ff8116156107dd5760081c60ff166103ad81612b4d565b6107cb577f00000000000000000000000000000000000000000000000000000000000000004210156107b95760ff600e5460a01c166107a7576024356001600160a01b0316156107955760043515801561076a575b6107585760ff7f000000000000000000000000000000000000000000000000000000000000000016156107445760ff7f000000000000000000000000000000000000000000000000000000000000000016600435066107325761048a60ff7f000000000000000000000000000000000000000000000000000000000000000016600435612c28565b7f00000000000000000000000000000000000000000000000000000000000000006001600160a01b031680610704575060043534036106f257905b80670de0b6b3a7640000928084810204841481151715925b60ff7f00000000000000000000000000000000000000000000000000000000000000001660ff821610156106765761051481612cdd565b84610520821515612c9c565b6106625761053081878502612c28565b9081156106505761056f61054384612985565b91908054926105588860039583871b1c612cd0565b825460001960039390931b92831b1916911b179055565b61057884612a09565b9054911b1c6001600160a01b0316803b1561064c576040516340c10f1960e01b8152602480356001600160a01b03166004830152810184905290869082908183816044810103925af1801561064157908691610629575b505060408051858152602081019390935282015260ff91600191818416906001600160a01b03602435169033907f8241d0defadd8507317470d315422749a6c8f8b8c9c0872aab09c665eaf3b66b90606090a401166104dd565b61063290612911565b61063d5784386105cf565b8480fd5b6040513d88823e3d90fd5b8580fd5b604051639811e0c760e01b8152600490fd5b634e487b7160e01b84526011600452602484fd5b50600e80546001600160a81b0319163360ff60a01b19811691909117600160a01b1790915560408051600435815260208101939093526024356001600160a01b0316927f95194d0fd3e6e16008575e16c429d993d868b1a25d9993d071d1039853d22a749190a3600160008051602061367e8339815191525580f35b6040516332afe6d360e21b8152600490fd5b346107205761071a9060043590309033906134c8565b906104c5565b60405163cc43410f60e01b8152600490fd5b604051632e7d0d2d60e21b8152600490fd5b634e487b7160e01b81526012600452602490fd5b604051638568e8bd60e01b8152600490fd5b507f000000000000000000000000000000000000000000000000000000000000000060043510610402565b604051637a2a206960e11b8152600490fd5b604051635c03d07560e11b8152600490fd5b604051639622d9cf60e01b8152600490fd5b60405163300b4e3360e21b8152600490fd5b6040516321c4e35760e21b8152600490fd5b50346102bd57806003193601126102bd57610808612e8a565b60065460ff8116156107dd577f0000000000000000000000000000000000000000000000000000000000000000906002821015610d2a576001809203610d185760081c60ff1661085781612b4d565b610d18577f00000000000000000000000000000000000000000000000000000000000000004210610d065761088a612a87565b426009557f00000000000000000000000000000000000000000000000000000000000000009081610b9b575b6040516311df92f160e01b81527f00000000000000000000000000000000000000000000000000000000000000006004820181905242602483015260a0604483015290919085906001600160a01b037f0000000000000000000000000000000000000000000000000000000000000000811690859061093860a4830187612945565b907f0000000000000000000000000000000000000000000000000000000000000000166064830152876084830152816020978892038187865af1908115610b4d578691610b6c575b5050803b15610add5760405163239e22ff60e11b81528381806109d27f00000000000000000000000000000000000000000000000000000000000000006001600160401b031689428960048601612e63565b038183865af1908115610b4d578491610b58575b50507f00000000000000000000000000000000000000000000000000000000000000008581610ae1575b5050803b15610add57838391610a3f938360405180968195829463120698af60e01b8452429060048501612c48565b03925af18015610ad257610aba575b5050907fe4d3d3c620d2a4b140fa3731b55b8f71306ed6ab936d7b660b613ecdbbf69db692610a9e60609361010061ff001960065416176006556040519485944286528501526060840190612945565b9060408301520390a160008051602061367e8339815191525580f35b610ac690939293612911565b61063d57908438610a4e565b6040513d84823e3d90fd5b8280fd5b6040516356ad3aad60e11b81529182908190610b039089428960048601612e63565b038187865af1908115610b4d578691610b1e575b5080610a10565b90809294503d8311610b46575b610b358183612924565b8101031261032c5786918438610b17565b503d610b2b565b6040513d86823e3d90fd5b610b6190612911565b610add5782386109e6565b90809294503d8311610b94575b610b838183612924565b8101031261032c5786918438610980565b503d610b79565b60018060a01b03807f000000000000000000000000000000000000000000000000000000000000000016907f00000000000000000000000000000000000000000000000000000000000000001690600091604051602063095ea7b360e01b94858152836004528760245260448180875af18760005114811615610cf9575b8160405215610c2c575b505050506108b6565b60206000858152836004528060245260448180875af18760005114811615610cda575b8160405215610cc457506020906000906040519482526004528560245260448180855af18560005114811615610ca5575b8260405215610c90578080610c23565b635274afe760e01b8252600482015260249150fd5b85811516610cba57813b15153d151616610c80565b823d6000823e3d90fd5b635274afe760e01b815260048101839052602490fd5b87811516610cef57833b15153d151616610c4f565b503d6000823e3d90fd5b833b15153d151616610c19565b604051630fce133d60e01b8152600490fd5b60405163baf3f0f760e01b8152600490fd5b634e487b7160e01b83526021600452602483fd5b50346102bd57806003193601126102bd57602060405160ff7f0000000000000000000000000000000000000000000000000000000000000000168152f35b50346102bd57806003193601126102bd576020600c54604051908152f35b50346102bd57806003193601126102bd576001546040516001600160a01b039091168152602090f35b50346102bd57806003193601126102bd5760206040516127108152f35b50346102bd57806003193601126102bd5760207f000000000000000000000000000000000000000000000000000000000000000060405190610e2181612b4d565b8152f35b50346102bd5760a03660031901126102bd576004356001600160401b03811161168857610e56903690600401612b6d565b906024356001600160401b03811161168457610e76903690600401612b6d565b916044356001600160401b03811161064c57610e96903690600401612b6d565b926064356001600160401b03811161168057610eb6903690600401612b9d565b9290916084356001600160401b03811161167c57610ed8903690600401612b9d565b90979096907f00000000000000000000000000000000000000000000000000000000000000006001600160a01b0316330361166a5760065460ff81166116595760ff7f0000000000000000000000000000000000000000000000000000000000000000168b036116265760ff19166001176006558a5b8a811061157e575060027f0000000000000000000000000000000000000000000000000000000000000000101561156a577f00000000000000000000000000000000000000000000000000000000000000001561136e575b5050505060017f00000000000000000000000000000000000000000000000000000000000000001461106b575b604051958060608801606089525260808701939088905b80821061104157897fd4440a27c9cbc5d7a01c508e84787333a316746cdf5ce32c8c5a4568304e0fb98a8061103b8c8c61102d8d8d8d8783036020890152612e42565b918483036040860152612e42565b0390a180f35b90919485359060018060a01b03821680920361032c57600191815260208091019601920190610fea565b831561133f57612000841161130a576001600160401b0382116112f6576110936007546128d7565b601f908181116112a9575b50878382811160011461122757806110cb928b9161121c575b508160011b916000199060031b1c19161790565b6007555b6001600160401b038511611208576110e86008546128d7565b8181116111b1575b50848891811160011461112f578061111c928a9161112457508160011b916000199060031b1c19161790565b600855610fd3565b9050870135386110b7565b50600888527ff3f7a9fe364faab93b216da50a3214154f22a0a2b415b23a84c8169e8b636ee39085601f1981168a5b81811061119657501061117c575b5050600184811b01600855610fd3565b860135600019600387901b60f8161c19169055388061116c565b8984013585556001909401936020938401938993500161115e565b6111f99060086000527ff3f7a9fe364faab93b216da50a3214154f22a0a2b415b23a84c8169e8b636ee38380890160051c82019260208a106111ff575b0160051c0190612e2b565b386110f0565b925081926111ee565b634e487b7160e01b88526041600452602488fd5b9050840135386110b7565b50600789527fa66cc928b5edb82af9bd49922954155ab7b0942694bea4ce44661d9a8736c6889084601f1981168b5b81811061128e575010611274575b5050600183811b016007556110cf565b830135600019600386901b60f8161c191690553880611264565b86840135855560019094019360209384019388935001611256565b6112f09060076000527fa66cc928b5edb82af9bd49922954155ab7b0942694bea4ce44661d9a8736c6888380870160051c820192602088106111ff570160051c0190612e2b565b3861109e565b634e487b7160e01b87526041600452602487fd5b60405162461bcd60e51b815260206004820152600d60248201526c20b731b4b63630b93c903632b760991b6044820152606490fd5b60405162461bcd60e51b8152602060048201526007602482015266554d4120616e6360c81b6044820152606490fd5b80156115075760ff7f0000000000000000000000000000000000000000000000000000000000000000168114806114db575b6113a990612df9565b8a5b8181106113f85750505050505b836113c65738808080610fa6565b60405162461bcd60e51b815260206004820152600a6024820152694e6f20554d4120616e6360b01b6044820152606490fd5b611403818386612de9565b3561140f828588612de9565b35106114a957611420818386612de9565b3590600454600160401b92838210156114935761144682600161145f94016004556129d2565b90919082549060031b91821b91600019901b1916179055565b61146a818588612de9565b359160059283549182101561149357611446826001958661148d95019055612a40565b016113ab565b634e487b7160e01b600052604160045260246000fd5b60405162461bcd60e51b815260206004820152600a60248201526942696e20626f756e647360b01b6044820152606490fd5b507f000000000000000000000000000000000000000000000000000000000000000060ff1682146113a0565b50505050600260ff7f00000000000000000000000000000000000000000000000000000000000000001603156113b85760405162461bcd60e51b815260206004820152600b60248201526a2134b7399037b910271e9960a91b6044820152606490fd5b634e487b7160e01b8b52602160045260248bfd5b611589818c8a612de9565b35906001600160a01b038216820361162257600254600160401b81101561160e578060016115ba9201600255612a09565b81546001600160a01b03600392831b81811b199092169516901b939093179055815491600160401b831015611493576115f98360018095018355612985565b9091825491600019911b1b1916905501610f4e565b634e487b7160e01b8e52604160045260248efd5b8c80fd5b60405162461bcd60e51b815260206004820152600b60248201526a151bdad95b8818dbdd5b9d60aa1b6044820152606490fd5b60405162dc149f60e41b8152600490fd5b604051630636a15760e11b8152600490fd5b8980fd5b8780fd5b8380fd5b5080fd5b50346102bd57806003193601126102bd5760206040517f00000000000000000000000000000000000000000000000000000000000000008152f35b50346102bd57806003193601126102bd576020600954604051908152f35b50346102bd57806003193601126102bd5760206040517f00000000000000000000000000000000000000000000000000000000000000008152f35b50346102bd57806003193601126102bd5760206040517f00000000000000000000000000000000000000000000000000000000000000008152f35b50346102bd57806003193601126102bd576040517f00000000000000000000000000000000000000000000000000000000000000006001600160a01b03168152602090f35b50346102bd57806003193601126102bd57602060ff60065460081c1660405190610e2181612b4d565b50346102bd5760403660031901126102bd576117e3612a77565b602435906117ef612e8a565b60065460ff8116156107dd5760ff60029160081c1661180d81612b4d565b03610d185781156106505760ff811660ff7f0000000000000000000000000000000000000000000000000000000000000000168110156119405760ff600a54160361194057600b54801561192e5761186e670de0b6b3a76400009184612c15565b04918215611900576118808492612a09565b905460039190911b1c6001600160a01b0316803b15610add5760405163079cc67960e41b8152336004820152602481019290925282908290604490829084905af18015610ad2576118ec575b506118d78233613569565b600160008051602061367e8339815191525580f35b6118f590612911565b6116885781386118cc565b60405162461bcd60e51b815260206004820152600660248201526514185e5bdd5d60d21b6044820152606490fd5b60405163b3b7d75f60e01b8152600490fd5b60405163c74a206d60e01b8152600490fd5b50346102bd57806003193601126102bd5760206040517f00000000000000000000000000000000000000000000000000000000000000008152f35b50346102bd57806003193601126102bd5760206040517f00000000000000000000000000000000000000000000000000000000000000008152f35b50346102bd57806003193601126102bd576020604051670de0b6b3a76400008152f35b50346102bd57806003193601126102bd57600e546040516001600160a01b039091168152602090f35b50346102bd5760203660031901126102bd576020611a38611a33612a77565b612cdd565b604051908152f35b50346102bd57806003193601126102bd576040517f00000000000000000000000000000000000000000000000000000000000000006002811015610d2a57602092508152f35b50346102bd57806003193601126102bd57546040516001600160a01b039091168152602090f35b50346102bd57806003193601126102bd5760206040516001600160401b037f0000000000000000000000000000000000000000000000000000000000000000168152f35b50346102bd57806003193601126102bd57602060405160ff7f0000000000000000000000000000000000000000000000000000000000000000168152f35b50346102bd57806003193601126102bd576020600d54604051908152f35b50346102bd57806003193601126102bd5760206040517f00000000000000000000000000000000000000000000000000000000000000008152f35b50346102bd57806003193601126102bd576040517f00000000000000000000000000000000000000000000000000000000000000006001600160a01b03168152602090f35b50346102bd57806003193601126102bd576020600a54604051908152f35b50346102bd57806003193601126102bd576001546001600160a01b033381831603611c5d576bffffffffffffffffffffffff60a01b8092166001556000549133908316176000553391167f8be0079c531659141344cd1fd0a4f28419497f9722a3daafe3b4186f6b6457e0600080a380f35b60405163118cdaa760e01b8152336004820152602490fd5b50346102bd57806003193601126102bd5760206040517f00000000000000000000000000000000000000000000000000000000000000008152f35b50346102bd57806003193601126102bd57611ce0611ccc612a87565b604051918291602083526020830190612945565b0390f35b50346102bd57806003193601126102bd57611cfd613555565b600180546001600160a01b0319908116909155600080549182168155906001600160a01b03167f8be0079c531659141344cd1fd0a4f28419497f9722a3daafe3b4186f6b6457e08280a380f35b5060803660031901126102bd57611d5f612a77565b604435906001600160a01b03808316916024359183850361064c57611d82612e8a565b60065460ff8116156107dd5760081c60ff16611d9d81612b4d565b6107cb577f00000000000000000000000000000000000000000000000000000000000000004210156107b95760ff82169460ff7f00000000000000000000000000000000000000000000000000000000000000001686101561194057831592611e068415612c67565b8515611ff2577f0000000000000000000000000000000000000000000000000000000000000000831680611fac57508434036106f2575b611e4681612cdd565b93611e52851515612c9c565b670de0b6b3a76400009081870291878304141715611f985784611e7491612c28565b928315610650576064358410611f8657611eaa82611ea5611e958c95612985565b6105588b83548360031b1c612cd0565b612a09565b90549060031b1c1691823b15611688576040516340c10f1960e01b81526001600160a01b0391909116600482015260248101849052918290604490829084905af18015611f7b57611f46575b5060408051938452602084019190915282015233907f8241d0defadd8507317470d315422749a6c8f8b8c9c0872aab09c665eaf3b66b90606090a4600160008051602061367e8339815191525580f35b95611f737f8241d0defadd8507317470d315422749a6c8f8b8c9c0872aab09c665eaf3b66b939297612911565b959091611ef6565b6040513d89823e3d90fd5b6040516307dd37f760e41b8152600490fd5b634e487b7160e01b89526011600452602489fd5b34611fc45785611fbf91309033906134c8565b611e3d565b60405162461bcd60e51b815260206004820152600660248201526509cde408aa8960d31b6044820152606490fd5b60405162461bcd60e51b8152602060048201526009602482015268149958da5c1a595b9d60ba1b6044820152606490fd5b50346102bd57806003193601126102bd5760206040517f00000000000000000000000000000000000000000000000000000000000000008152f35b50346102bd5760203660031901126102bd57602061207d600435612a09565b905460405160039290921b1c6001600160a01b03168152f35b50346102bd57806003193601126102bd576020600b54604051908152f35b50346102bd5760203660031901126102bd576004356120d1612e8a565b60ff60065416156107dd577f00000000000000000000000000000000000000000000000000000000000000006002811015610d2a5760010361219057612118811515612c67565b7f00000000000000000000000000000000000000000000000000000000000000006001600160a01b03169061214f813033856134c8565b6040519081527fb70ccb2b3a65ba201e6b7107278d5064431bc3acf6e932d8f869a913a679738760203392a3600160008051602061367e8339815191525580f35b60405163588dccfd60e01b8152600490fd5b50346102bd57806003193601126102bd5760206040517f00000000000000000000000000000000000000000000000000000000000000008152f35b50346102bd57806003193601126102bd576121f6612e8a565b60065460ff8116156107dd577f00000000000000000000000000000000000000000000000000000000000000006002811015610d2a57600103610d185760ff60019160081c1661224581612b4d565b03610d18576122966020612257612a87565b6009546040516353b5923960e01b815293849283927f000000000000000000000000000000000000000000000000000000000000000060048501612c48565b0381857f00000000000000000000000000000000000000000000000000000000000000006001600160a01b03165af18015610ad25782906122e5575b6118d791506122e08161337d565b6130a8565b506020813d602011612311575b816122ff60209383612924565b81010312611688576118d790516122d2565b3d91506122f2565b50346102bd57806003193601126102bd576040517f00000000000000000000000000000000000000000000000000000000000000006001600160a01b03168152602090f35b50346102bd57806003193601126102bd576040517f00000000000000000000000000000000000000000000000000000000000000006001600160a01b03168152602090f35b50346102bd57806003193601126102bd57602060ff600e5460a01c166040519015158152f35b50346102bd57806003193601126102bd576040517f00000000000000000000000000000000000000000000000000000000000000006001600160a01b03168152602090f35b50346102bd57806003193601126102bd57612427612e8a565b60065460ff90818116156107dd577f000000000000000000000000000000000000000000000000000000000000000060028110156126a357610d185760081c811661247181612b4d565b610d18577f00000000000000000000000000000000000000000000000000000000000000004210610d0657604051633fabe5a360e21b8152907f00000000000000000000000000000000000000000000000000000000000000006001600160a01b031660a083600481845afa8015610b4d578493859161264f575b5084841315612621576124ff9042612be1565b7f0000000000000000000000000000000000000000000000000000000000000000106125f45760206004916040519283809263313ce56760e01b82525afa8015610b4d57829185916125b6575b501660068110612593576005190190811161257f57906122e061257a6125746118d794612c04565b83612c28565b612eba565b634e487b7160e01b83526011600452602483fd5b60060390811161257f57906122e061257a6125b06118d794612c04565b83612c15565b9150506020813d6020116125ec575b816125d260209383612924565b81010312611684575181811681036116845781903861254c565b3d91506125c5565b60405162461bcd60e51b81526020600482015260056024820152645374616c6560d81b6044820152606490fd5b60405162461bcd60e51b815260206004820152600660248201526520b739bbb2b960d11b6044820152606490fd5b93505060a0833d60a01161269b575b8161266b60a09383612924565b810103126116845761267c83612bca565b506020830151612693608060608601519501612bca565b5092386124ec565b3d915061265e565b634e487b7160e01b84526021600452602484fd5b50346102bd57806003193601126102bd57602060ff600654166040519015158152f35b50346102bd57806003193601126102bd57602060405160328152f35b50346102bd5760203660031901126102bd57600435906004548210156102bd57602061035c836129d2565b50346102bd57806003193601126102bd576040517f00000000000000000000000000000000000000000000000000000000000000006001600160a01b03168152602090f35b50346102bd5760203660031901126102bd57600435906003548210156102bd57602061279183612985565b90549060031b1c604051908152f35b50346102bd57806003193601126102bd57602060405161012c8152f35b50346102bd57806003193601126102bd5760206040517f00000000000000000000000000000000000000000000000000000000000000008152f35b82346102bd57806003193601126102bd576007548282612817836128d7565b92838352602094600191866001821691826000146128b557505060011461285b575b505061284792500383612924565b611ce0604051928284938452830190612945565b90859250600782527fa66cc928b5edb82af9bd49922954155ab7b0942694bea4ce44661d9a8736c6885b85831061289d57505061284793508201018580612839565b80548389018501528794508693909201918101612885565b925093505061284794915060ff191682840152151560051b8201018580612839565b90600182811c92168015612907575b60208310146128f157565b634e487b7160e01b600052602260045260246000fd5b91607f16916128e6565b6001600160401b03811161149357604052565b90601f801991011681019081106001600160401b0382111761149357604052565b919082519283825260005b848110612971575050826000602080949584010152601f8019910116010190565b602081830181015184830182015201612950565b6003548110156129bc5760036000527fc2575a0e9e593c00f959f8c92f12db2869c3395a3b0502d05e2516446f71f85b0190600090565b634e487b7160e01b600052603260045260246000fd5b6004548110156129bc5760046000527f8a35acfbc15ff81a39ae7d344fd709f28e8600b4aa8c65c6b64bfe7fe36bd19b0190600090565b6002548110156129bc5760026000527f405787fa12a823e0f2b7631cc41b3ba8828b3321ca811111fa75cd3aa3bb5ace0190600090565b6005548110156129bc5760056000527f036b6384b5eca791c62761152d0c79bb0604c104a5fb6f4eb0703f3154bb3db00190600090565b6004359060ff8216820361032c57565b6040519060008260085491612a9b836128d7565b80835292602090600190818116908115612b295750600114612ac8575b5050612ac692500383612924565b565b91509260086000527ff3f7a9fe364faab93b216da50a3214154f22a0a2b415b23a84c8169e8b636ee3936000925b828410612b115750612ac69450505081016020013880612ab8565b85548885018301529485019487945092810192612af6565b91505060209250612ac694915060ff191682840152151560051b8201013880612ab8565b60031115612b5757565b634e487b7160e01b600052602160045260246000fd5b9181601f8401121561032c578235916001600160401b03831161032c576020808501948460051b01011161032c57565b9181601f8401121561032c578235916001600160401b03831161032c576020838186019501011161032c57565b519069ffffffffffffffffffff8216820361032c57565b91908203918211612bee57565b634e487b7160e01b600052601160045260246000fd5b60ff16604d8111612bee57600a0a90565b81810292918115918404141715612bee57565b8115612c32570490565b634e487b7160e01b600052601260045260246000fd5b612c649392606092825260208201528160408201520190612945565b90565b15612c6e57565b60405162461bcd60e51b8152602060048201526006602482015265105b5bdd5b9d60d21b6044820152606490fd5b15612ca357565b60405162461bcd60e51b8152602060048201526005602482015264507269636560d81b6044820152606490fd5b91908201809211612bee57565b60ff60065416156107dd5760ff7f000000000000000000000000000000000000000000000000000000000000000016908160ff821610156119405760009160007f0000000000000000000000000000000000000000000000000000000000000000915b808210612dba5750508215612d8c57612d5b612d6892612985565b90549060031b1c90612cd0565b90670de0b6b3a764000091828102928184041490151715612bee57612c6491612c28565b60405162461bcd60e51b815260206004820152600660248201526515d95a59da1d60d21b6044820152606490fd5b9093612de1600191612ddb612dce88612985565b90549060031b1c86612cd0565b90612cd0565b940190612d40565b91908110156129bc5760051b0190565b15612e0057565b606460405162461bcd60e51b815260206004820152600460248201526342696e7360e01b6044820152fd5b818110612e36575050565b60008155600101612e2b565b908060209392818452848401376000828201840152601f01601f1916010190565b949392606092612e859287526020870152608060408701526080860190612945565b930152565b60008051602061367e8339815191526002815414612ea85760029055565b604051633ee5aeb560e01b8152600490fd5b600480549060ff7f000000000000000000000000000000000000000000000000000000000000000016809214612fef57506002612ef79114612df9565b7f0000000000000000000000000000000000000000000000000000000000000000612f2181612b4d565b80612f5a57507f000000000000000000000000000000000000000000000000000000000000000011155b15612f5557600090565b600190565b80612f66600192612b4d565b03612f93577f00000000000000000000000000000000000000000000000000000000000000001015612f4b565b7f00000000000000000000000000000000000000000000000000000000000000008110159081612fc4575b50612f4b565b90507f0000000000000000000000000000000000000000000000000000000000000000101538612fbe565b906000918293835b83811061303b575050505060010361300c5790565b60405162461bcd60e51b815260206004820152600760248201526627b732903134b760c91b6044820152606490fd5b613044816129d2565b9054600391821b1c831015908161308f575b50613064575b600101612ff7565b945092600019811461307a57600101928461305c565b601182634e487b7160e01b6000525260246000fd5b905061309a82612a40565b9054911b1c82111538613056565b6000907f000000000000000000000000000000000000000000000000000000000000000060ff16825b81811061335557505061012c918281029080159381830414841715612bee576127108092049360328202908282046032141715612bee57600492602091046131238661311d8382612be1565b94612be1565b9261312d86612a09565b90546040516318160ddd60e01b8152966001600160a01b0395928892839160031b1c87165afa94851561334957600095613315575b5061316c86612985565b90549060031b1c9287613289575b505083159050613217578161318e91612cd0565b94670de0b6b3a764000095868102968188041490151715612bee576131d7613212937f1156c82479e3534ddd36ca57cd84557fd8b25737545b9b3572c4f2878613af5497612c28565b600b555b83600a55600c5542600d5561020061ff00196006541617600655604051938493846040919493926060820195825260208201520152565b0390a1565b61321292509461324d827f1156c82479e3534ddd36ca57cd84557fd8b25737545b9b3572c4f2878613af54976000600b55612cd0565b80613259575b506131db565b613283907f0000000000000000000000000000000000000000000000000000000000000000613569565b38613253565b80600e541615158061330c575b156132da576132d2926132ac91600e5416613569565b7f0000000000000000000000000000000000000000000000000000000000000000613569565b38808061317a565b505050613307857f0000000000000000000000000000000000000000000000000000000000000000613569565b6132d2565b50821515613296565b9094506020813d602011613341575b8161333160209383612924565b8101031261032c57519338613162565b3d9150613324565b6040513d6000823e3d90fd5b828103613365575b6001016130d1565b92613375600191612d5b86612985565b93905061335d565b600160ff1b811480156134b8575b61343a577f0000000000000000000000000000000000000000000000000000000000000000744d554c5449504c455f43484f4943455f515545525960581b8114613481576e5945535f4f525f4e4f5f515545525960881b1461346e5760ff7f0000000000000000000000000000000000000000000000000000000000000000169060028214613454576000811261343a57670de0b6b3a76400009081811061344c5704905b81101561343a5790565b60405163437d7ad760e11b8152600490fd5b905090613430565b670de0b6b3a764000091501461346957600190565b600090565b670de0b6b3a76400001461346957600190565b506000811261343a5760ff7f00000000000000000000000000000000000000000000000000000000000000001681101561343a5790565b506001600160ff1b03811461338b565b6040516323b872dd60e01b60009081526001600160a01b03938416600452938316602452604494909452909160209060648180855af1600160005114811615613535575b8360405260006060521561351f57505050565b635274afe760e01b835216600482015260249150fd5b600181151661354b57813b15153d15161661350c565b833d6000823e3d90fd5b6000546001600160a01b03163303611c5d57565b906001600160a01b037f00000000000000000000000000000000000000000000000000000000000000008116806135a55750612ac692166135fa565b91906020916000916040519563a9059cbb60e01b84521660045260245260448180855af16001600051148116156135e4575b8260405215610c90575050565b6001811516610cba57813b15153d1516166135d7565b81471061365e57604051602081018181106001600160401b0382111761149357604052600080809481948280955260018060a01b03165af11561363a5750565b3d1561364c57604051903d90823e3d90fd5b60405163d6bda27560e01b8152600490fd5b60405163cf47918160e01b815247600482015260248101839052604490fdfe9b779b17422d0df92223018b32b4d1fa46e071723d6817e2486d003becc55f00a2646970667358221220b4d81bfcf9cb07e88eeac6d28dd2263fb579302ac37353262cd41cd2c0b5aacf64736f6c6343000818003360a060405234620003b25762000e61803803806200001d81620003b7565b928339810190608081830312620003b25780516001600160401b0390818111620003b257836200004f918401620003dd565b926020908184015190838211620003b2576200006d918501620003dd565b9360408401519360ff85168503620003b257606001516001600160a01b03958682169491859003620003b2578251828111620002b2576003918254916001958684811c94168015620003a7575b8885101462000391578190601f948581116200033b575b508890858311600114620002d457600092620002c8575b505060001982861b1c191690861b1783555b8051938411620002b25760049586548681811c91168015620002a7575b82821014620002925783811162000247575b5080928511600114620001d95750938394918492600095620001cd575b50501b92600019911b1c19161781555b8115620001b55750600580546001600160a01b03198116831790915560405193167f8be0079c531659141344cd1fd0a4f28419497f9722a3daafe3b4186f6b6457e0600080a3608052610a119081620004508239608051816105640152f35b602490600060405191631e4fbdf760e01b8352820152fd5b01519350388062000146565b92919084601f1981168860005285600020956000905b898383106200022c575050501062000211575b50505050811b01815562000156565b01519060f884600019921b161c191690553880808062000202565b858701518955909701969485019488935090810190620001ef565b87600052816000208480880160051c82019284891062000288575b0160051c019087905b8281106200027b57505062000129565b600081550187906200026b565b9250819262000262565b602288634e487b7160e01b6000525260246000fd5b90607f169062000117565b634e487b7160e01b600052604160045260246000fd5b015190503880620000e8565b90889350601f19831691876000528a6000209260005b8c8282106200032457505084116200030b575b505050811b018355620000fa565b015160001983881b60f8161c19169055388080620002fd565b8385015186558c97909501949384019301620002ea565b90915085600052886000208580850160051c8201928b861062000387575b918a91869594930160051c01915b82811062000377575050620000d1565b600081558594508a910162000367565b9250819262000359565b634e487b7160e01b600052602260045260246000fd5b93607f1693620000ba565b600080fd5b6040519190601f01601f191682016001600160401b03811183821017620002b257604052565b919080601f84011215620003b25782516001600160401b038111620002b25760209062000413601f8201601f19168301620003b7565b92818452828287010111620003b25760005b8181106200043b57508260009394955001015290565b85810183015184820184015282016200042556fe6080604081815260048036101561001557600080fd5b600092833560e01c90816306fdde031461068d57508063095ea7b3146105e457806318160ddd146105c557806323b872dd14610588578063313ce5671461054a57806340c10f191461049b57806370a0823114610464578063715018a61461040457806379cc6790146103185780638da5cb5b146102ef57806395d89b41146101cd578063a9059cbb1461019c578063dd62ed3e1461014f5763f2fde38b146100bd57600080fd5b3461014b57602036600319011261014b576100d66107cd565b906100df6109af565b6001600160a01b03918216928315610135575050600554826bffffffffffffffffffffffff60a01b821617600555167f8be0079c531659141344cd1fd0a4f28419497f9722a3daafe3b4186f6b6457e08380a380f35b51631e4fbdf760e01b8152908101849052602490fd5b8280fd5b5050346101985780600319360112610198578060209261016d6107cd565b6101756107e8565b6001600160a01b0391821683526001865283832091168252845220549051908152f35b5080fd5b5050346101985780600319360112610198576020906101c66101bc6107cd565b60243590336108d1565b5160018152f35b5091903461019857816003193601126101985780519082845460018160011c90600183169283156102e5575b60209384841081146102d2578388529081156102b65750600114610261575b505050829003601f01601f191682019267ffffffffffffffff84118385101761024e575082918261024a925282610784565b0390f35b634e487b7160e01b815260418552602490fd5b8787529192508591837f8a35acfbc15ff81a39ae7d344fd709f28e8600b4aa8c65c6b64bfe7fe36bd19b5b8385106102a25750505050830101388080610218565b80548886018301529301928490820161028c565b60ff1916878501525050151560051b8401019050388080610218565b634e487b7160e01b895260228a52602489fd5b91607f16916101f9565b50503461019857816003193601126101985760055490516001600160a01b039091168152602090f35b508290346101985782600319360112610198576103336107cd565b6001600160a01b0381169160243591338490036103f4575b83156103dd578385528460205285852054918383106103a95750508184957fddf252ad1be2c89b69c2b068fc378daa952ba7f163c4a11628f55a4df523b3ef936020938688528785520381872055816002540360025551908152a380f35b865163391434e360e21b81526001600160a01b03909216908201908152602081018390526040810184905281906060010390fd5b8551634b637e8f60e11b8152808301869052602490fd5b6103ff8333836107fe565b61034b565b833461046157806003193601126104615761041d6109af565b600580546001600160a01b0319811690915581906001600160a01b03167f8be0079c531659141344cd1fd0a4f28419497f9722a3daafe3b4186f6b6457e08280a380f35b80fd5b5050346101985760203660031901126101985760209181906001600160a01b0361048c6107cd565b16815280845220549051908152f35b50903461014b578060031936011261014b576104b56107cd565b90602435916104c26109af565b6001600160a01b03169283156105355760025490838201809211610522575084927fddf252ad1be2c89b69c2b068fc378daa952ba7f163c4a11628f55a4df523b3ef9260209260025585855284835280852082815401905551908152a380f35b634e487b7160e01b865260119052602485fd5b84602492519163ec442f0560e01b8352820152fd5b5050346101985781600319360112610198576020905160ff7f0000000000000000000000000000000000000000000000000000000000000000168152f35b505034610198576060366003190112610198576020906101c66105a96107cd565b6105b16107e8565b604435916105c08333836107fe565b6108d1565b5050346101985781600319360112610198576020906002549051908152f35b503461014b578160031936011261014b576105fd6107cd565b602435903315610676576001600160a01b031691821561065f57508083602095338152600187528181208582528752205582519081527f8c5be1e5ebec7d5bd14f71427d1e84f3dd0314c0f7b2291e5b200ac8c7c3b925843392a35160018152f35b8351634a1406b160e11b8152908101859052602490fd5b835163e602df0560e01b8152808401869052602490fd5b849150833461014b578260031936011261014b578260035460018160011c906001831692831561077a575b60209384841081146102d25783885290811561075e575060011461070857505050829003601f01601f191682019267ffffffffffffffff84118385101761024e575082918261024a925282610784565b600387529192508591837fc2575a0e9e593c00f959f8c92f12db2869c3395a3b0502d05e2516446f71f85b5b83851061074a5750505050830101858080610218565b805488860183015293019284908201610734565b60ff1916878501525050151560051b8401019050858080610218565b91607f16916106b8565b6020808252825181830181905290939260005b8281106107b957505060409293506000838284010152601f8019910116010190565b818101860151848201604001528501610797565b600435906001600160a01b03821682036107e357565b600080fd5b602435906001600160a01b03821682036107e357565b9160018060a01b03809316916000938385526001602052604093848620918316918287526020528486205492600019841061083d575b50505050505050565b8484106108a15750801561088957811561087157855260016020528385209085526020520391205538808080808080610834565b8451634a1406b160e11b815260048101879052602490fd5b845163e602df0560e01b815260048101879052602490fd5b8551637dc7a0d960e11b81526001600160a01b039190911660048201526024810184905260448101859052606490fd5b916001600160a01b03808416928315610996571692831561097d576000908382528160205260408220549083821061094b575091604082827fddf252ad1be2c89b69c2b068fc378daa952ba7f163c4a11628f55a4df523b3ef958760209652828652038282205586815220818154019055604051908152a3565b60405163391434e360e21b81526001600160a01b03919091166004820152602481019190915260448101839052606490fd5b60405163ec442f0560e01b815260006004820152602490fd5b604051634b637e8f60e11b815260006004820152602490fd5b6005546001600160a01b031633036109c357565b60405163118cdaa760e01b8152336004820152602490fdfea2646970667358221220f466ad3611f91c0035afc98cd212a546e1bf84827e5f6d1f969630ef715b53fc64736f6c63430008180033a26469706673582212207833e259347c4143bc593a44027d8fbb25051eb6b0045343f5d4f66e3e0d2c5f64736f6c63430008180033",
  "linkReferences": {},
  "deployedLinkReferences": {}
}