{
  "_format": "hh-sol-artifact-1",
  "contractName": "AFTROutcomeToken",
  "sourceName": "contracts/token/AFTROutcomeToken.sol",
  "abi": [
    {
      "inputs": [
        {
          "internalType": "string",
          "name": "name_",
          "type": "string"
        },
        {
          "internalType": "string",
          "name": "symbol_",
          "type": "string"
        },
        {
          "internalType": "uint8",
          "name": "decimals_",
          "type": "uint8"
        },
        {
          "internalType": "address",
          "name": "initialOwner",
          "type": "address"
        }
      ],
      "stateMutability": "nonpayable",
      "type": "constructor"
    },
    {
      "inputs": [
        {
          "internalType": "address",
          "name": "spender",
          "type": "address"
        },
        {
          "internalType": "uint256",
          "name": "allowance",
          "type": "uint256"
        },
        {
          "internalType": "uint256",
          "name": "needed",
          "type": "uint256"
        }
      ],
      "name": "ERC20InsufficientAllowance",
      "type": "error"
    },
    {
      "inputs": [
        {
          "internalType": "address",
          "name": "sender",
          "type": "address"
        },
        {
          "internalType": "uint256",
          "name": "balance",
          "type": "uint256"
        },
        {
          "internalType": "uint256",
          "name": "needed",
          "type": "uint256"
        }
      ],
      "name": "ERC20InsufficientBalance",
      "type": "error"
    },
    {
      "inputs": [
        {
          "internalType": "address",
          "name": "approver",
          "type": "address"
        }
      ],
      "name": "ERC20InvalidApprover",
      "type": "error"
    },
    {
      "inputs": [
        {
          "internalType": "address",
          "name": "receiver",
          "type": "address"
        }
      ],
      "name": "ERC20InvalidReceiver",
      "type": "error"
    },
    {
      "inputs": [
        {
          "internalType": "address",
          "name": "sender",
          "type": "address"
        }
      ],
      "name": "ERC20InvalidSender",
      "type": "error"
    },
    {
      "inputs": [
        {
          "internalType": "address",
          "name": "spender",
          "type": "address"
        }
      ],
      "name": "ERC20InvalidSpender",
      "type": "error"
    },
    {
      "inputs": [
        {
          "internalType": "address",
          "name": "owner",
          "type": "address"
        }
      ],
      "name": "OwnableInvalidOwner",
      "type": "error"
    },
    {
      "inputs": [
        {
          "internalType": "address",
          "name": "account",
          "type": "address"
        }
      ],
      "name": "OwnableUnauthorizedAccount",
      "type": "error"
    },
    {
      "anonymous": false,
      "inputs": [
        {
          "indexed": true,
          "internalType": "address",
          "name": "owner",
          "type": "address"
        },
        {
          "indexed": true,
          "internalType": "address",
          "name": "spender",
          "type": "address"
        },
        {
          "indexed": false,
          "internalType": "uint256",
          "name": "value",
          "type": "uint256"
        }
      ],
      "name": "Approval",
      "type": "event"
    },
    {
      "anonymous": false,
      "inputs": [
        {
          "indexed": true,
          "internalType": "address",
          "name": "previousOwner",
          "type": "address"
        },
        {
          "indexed": true,
          "internalType": "address",
          "name": "newOwner",
          "type": "address"
        }
      ],
      "name": "OwnershipTransferred",
      "type": "event"
    },
    {
      "anonymous": false,
      "inputs": [
        {
          "indexed": true,
          "internalType": "address",
          "name": "from",
          "type": "address"
        },
        {
          "indexed": true,
          "internalType": "address",
          "name": "to",
          "type": "address"
        },
        {
          "indexed": false,
          "internalType": "uint256",
          "name": "value",
          "type": "uint256"
        }
      ],
      "name": "Transfer",
      "type": "event"
    },
    {
      "inputs": [
        {
          "internalType": "address",
          "name": "owner",
          "type": "address"
        },
        {
          "internalType": "address",
          "name": "spender",
          "type": "address"
        }
      ],
      "name": "allowance",
      "outputs": [
        {
          "internalType": "uint256",
          "name": "",
          "type": "uint256"
        }
      ],
      "stateMutability": "view",
      "type": "function"
    },
    {
      "inputs": [
        {
          "internalType": "address",
          "name": "spender",
          "type": "address"
        },
        {
          "internalType": "uint256",
          "name": "value",
          "type": "uint256"
        }
      ],
      "name": "approve",
      "outputs": [
        {
          "internalType": "bool",
          "name": "",
          "type": "bool"
        }
      ],
      "stateMutability": "nonpayable",
      "type": "function"
    },
    {
      "inputs": [
        {
          "internalType": "address",
          "name": "account",
          "type": "address"
        }
      ],
      "name": "balanceOf",
      "outputs": [
        {
          "internalType": "uint256",
          "name": "",
          "type": "uint256"
        }
      ],
      "stateMutability": "view",
      "type": "function"
    },
    {
      "inputs": [
        {
          "internalType": "address",
          "name": "from",
          "type": "address"
        },
        {
          "internalType": "uint256",
          "name": "amount",
          "type": "uint256"
        }
      ],
      "name": "burnFrom",
      "outputs": [],
      "stateMutability": "nonpayable",
      "type": "function"
    },
    {
      "inputs": [],
      "name": "decimals",
      "outputs": [
        {
          "internalType": "uint8",
          "name": "",
          "type": "uint8"
        }
      ],
      "stateMutability": "view",
      "type": "function"
    },
    {
      "inputs": [
        {
          "internalType": "address",
          "name": "to",
          "type": "address"
        },
        {
          "internalType": "uint256",
          "name": "amount",
          "type": "uint256"
        }
      ],
      "name": "mint",
      "outputs": [],
      "stateMutability": "nonpayable",
      "type": "function"
    },
    {
      "inputs": [],
      "name": "name",
      "outputs": [
        {
          "internalType": "string",
          "name": "",
          "type": "string"
        }
      ],
      "stateMutability": "view",
      "type": "function"
    },
    {
      "inputs": [],
      "name": "owner",
      "outputs": [
        {
          "internalType": "address",
          "name": "",
          "type": "address"
        }
      ],
      "stateMutability": "view",
      "type": "function"
    },
    {
      "inputs": [],
      "name": "renounceOwnership",
      "outputs": [],
      "stateMutability": "nonpayable",
      "type": "function"
    },
    {
      "inputs": [],
      "name": "symbol",
      "outputs": [
        {
          "internalType": "string",
          "name": "",
          "type": "string"
        }
      ],
      "stateMutability": "view",
      "type": "function"
    },
    {
      "inputs": [],
      "name": "totalSupply",
      "outputs": [
        {
          "internalType": "uint256",
          "name": "",
          "type": "uint256"
        }
      ],
      "stateMutability": "view",
      "type": "function"
    },
    {
      "inputs": [
        {
          "internalType": "address",
          "name": "to",
          "type": "address"
        },
        {
          "internalType": "uint256",
          "name": "value",
          "type": "uint256"
        }
      ],
      "name": "transfer",
      "outputs": [
        {
          "internalType": "bool",
          "name": "",
          "type": "bool"
        }
      ],
      "stateMutability": "nonpayable",
      "type": "function"
    },
    {
      "inputs": [
        {
          "internalType": "address",
          "name": "from",
          "type": "address"
        },
        {
          "internalType": "address",
          "name": "to",
          "type": "address"
        },
        {
          "internalType": "uint256",
          "name": "value",
          "type": "uint256"
        }
      ],
      "name": "transferFrom",
      "outputs": [
        {
          "internalType": "bool",
          "name": "",
          "type": "bool"
        }
      ],
      "stateMutability": "nonpayable",
      "type": "function"
    },
    {
      "inputs": [
        {
          "internalType": "address",
          "name": "newOwner",
          "type": "address"
        }
      ],
      "name": "transferOwnership",
      "outputs": [],
      "stateMutability": "nonpayable",
      "type": "function"
    }
  ],
  "bytecode": "0x60a060405234620003b25762000e61803803806200001d81620003b7565b928339810190608081830312620003b25780516001600160401b0390818111620003b257836200004f918401620003dd565b926020908184015190838211620003b2576200006d918501620003dd565b9360408401519360ff85168503620003b257606001516001600160a01b03958682169491859003620003b2578251828111620002b2576003918254916001958684811c94168015620003a7575b8885101462000391578190601f948581116200033b575b508890858311600114620002d457600092620002c8575b505060001982861b1c191690861b1783555b8051938411620002b25760049586548681811c91168015620002a7575b82821014620002925783811162000247575b5080928511600114620001d95750938394918492600095620001cd575b50501b92600019911b1c19161781555b8115620001b55750600580546001600160a01b03198116831790915560405193167f8be0079c531659141344cd1fd0a4f28419497f9722a3daafe3b4186f6b6457e0600080a3608052610a119081620004508239608051816105640152f35b602490600060405191631e4fbdf760e01b8352820152fd5b01519350388062000146565b92919084601f1981168860005285600020956000905b898383106200022c575050501062000211575b50505050811b01815562000156565b01519060f884600019921b161c191690553880808062000202565b858701518955909701969485019488935090810190620001ef565b87600052816000208480880160051c82019284891062000288575b0160051c019087905b8281106200027b57505062000129565b600081550187906200026b565b9250819262000262565b602288634e487b7160e01b6000525260246000fd5b90607f169062000117565b634e487b7160e01b600052604160045260246000fd5b015190503880620000e8565b90889350601f19831691876000528a6000209260005b8c8282106200032457505084116200030b575b505050811b018355620000fa565b015160001983881b60f8161c19169055388080620002fd565b8385015186558c97909501949384019301620002ea565b90915085600052886000208580850160051c8201928b861062000387575b918a91869594930160051c01915b82811062000377575050620000d1565b600081558594508a910162000367565b9250819262000359565b634e487b7160e01b600052602260045260246000fd5b93607f1693620000ba565b600080fd5b6040519190601f01601f191682016001600160401b03811183821017620002b257604052565b919080601f84011215620003b25782516001600160401b038111620002b25760209062000413601f8201601f19168301620003b7565b92818452828287010111620003b25760005b8181106200043b57508260009394955001015290565b85810183015184820184015282016200042556fe6080604081815260048036101561001557600080fd5b600092833560e01c90816306fdde031461068d57508063095ea7b3146105e457806318160ddd146105c557806323b872dd14610588578063313ce5671461054a57806340c10f191461049b57806370a0823114610464578063715018a61461040457806379cc6790146103185780638da5cb5b146102ef57806395d89b41146101cd578063a9059cbb1461019c578063dd62ed3e1461014f5763f2fde38b146100bd57600080fd5b3461014b57602036600319011261014b576100d66107cd565b906100df6109af565b6001600160a01b03918216928315610135575050600554826bffffffffffffffffffffffff60a01b821617600555167f8be0079c531659141344cd1fd0a4f28419497f9722a3daafe3b4186f6b6457e08380a380f35b51631e4fbdf760e01b8152908101849052602490fd5b8280fd5b5050346101985780600319360112610198578060209261016d6107cd565b6101756107e8565b6001600160a01b0391821683526001865283832091168252845220549051908152f35b5080fd5b5050346101985780600319360112610198576020906101c66101bc6107cd565b60243590336108d1565b5160018152f35b5091903461019857816003193601126101985780519082845460018160011c90600183169283156102e5575b60209384841081146102d2578388529081156102b65750600114610261575b505050829003601f01601f191682019267ffffffffffffffff84118385101761024e575082918261024a925282610784565b0390f35b634e487b7160e01b815260418552602490fd5b8787529192508591837f8a35acfbc15ff81a39ae7d344fd709f28e8600b4aa8c65c6b64bfe7fe36bd19b5b8385106102a25750505050830101388080610218565b80548886018301529301928490820161028c565b60ff1916878501525050151560051b8401019050388080610218565b634e487b7160e01b895260228a52602489fd5b91607f16916101f9565b50503461019857816003193601126101985760055490516001600160a01b039091168152602090f35b508290346101985782600319360112610198576103336107cd565b6001600160a01b0381169160243591338490036103f4575b83156103dd578385528460205285852054918383106103a95750508184957fddf252ad1be2c89b69c2b068fc378daa952ba7f163c4a11628f55a4df523b3ef936020938688528785520381872055816002540360025551908152a380f35b865163391434e360e21b81526001600160a01b03909216908201908152602081018390526040810184905281906060010390fd5b8551634b637e8f60e11b8152808301869052602490fd5b6103ff8333836107fe565b61034b565b833461046157806003193601126104615761041d6109af565b600580546001600160a01b0319811690915581906001600160a01b03167f8be0079c531659141344cd1fd0a4f28419497f9722a3daafe3b4186f6b6457e08280a380f35b80fd5b5050346101985760203660031901126101985760209181906001600160a01b0361048c6107cd565b16815280845220549051908152f35b50903461014b578060031936011261014b576104b56107cd565b90602435916104c26109af565b6001600160a01b03169283156105355760025490838201809211610522575084927fddf252ad1be2c89b69c2b068fc378daa952ba7f163c4a11628f55a4df523b3ef9260209260025585855284835280852082815401905551908152a380f35b634e487b7160e01b865260119052602485fd5b84602492519163ec442f0560e01b8352820152fd5b5050346101985781600319360112610198576020905160ff7f0000000000000000000000000000000000000000000000000000000000000000168152f35b505034610198576060366003190112610198576020906101c66105a96107cd565b6105b16107e8565b604435916105c08333836107fe565b6108d1565b5050346101985781600319360112610198576020906002549051908152f35b503461014b578160031936011261014b576105fd6107cd565b602435903315610676576001600160a01b031691821561065f57508083602095338152600187528181208582528752205582519081527f8c5be1e5ebec7d5bd14f71427d1e84f3dd0314c0f7b2291e5b200ac8c7c3b925843392a35160018152f35b8351634a1406b160e11b8152908101859052602490fd5b835163e602df0560e01b8152808401869052602490fd5b849150833461014b578260031936011261014b578260035460018160011c906001831692831561077a575b60209384841081146102d25783885290811561075e575060011461070857505050829003601f01601f191682019267ffffffffffffffff84118385101761024e575082918261024a925282610784565b600387529192508591837fc2575a0e9e593c00f959f8c92f12db2869c3395a3b0502d05e2516446f71f85b5b83851061074a5750505050830101858080610218565b805488860183015293019284908201610734565b60ff1916878501525050151560051b8401019050858080610218565b91607f16916106b8565b6020808252825181830181905290939260005b8281106107b957505060409293506000838284010152601f8019910116010190565b818101860151848201604001528501610797565b600435906001600160a01b03821682036107e357565b600080fd5b602435906001600160a01b03821682036107e357565b9160018060a01b03809316916000938385526001602052604093848620918316918287526020528486205492600019841061083d575b50505050505050565b8484106108a15750801561088957811561087157855260016020528385209085526020520391205538808080808080610834565b8451634a1406b160e11b815260048101879052602490fd5b845163e602df0560e01b815260048101879052602490fd5b8551637dc7a0d960e11b81526001600160a01b039190911660048201526024810184905260448101859052606490fd5b916001600160a01b03808416928315610996571692831561097d576000908382528160205260408220549083821061094b575091604082827fddf252ad1be2c89b69c2b068fc378daa952ba7f163c4a11628f55a4df523b3ef958760209652828652038282205586815220818154019055604051908152a3565b60405163391434e360e21b81526001600160a01b03919091166004820152602481019190915260448101839052606490fd5b60405163ec442f0560e01b815260006004820152602490fd5b604051634b637e8f60e11b815260006004820152602490fd5b6005546001600160a01b031633036109c357565b60405163118cdaa760e01b8152336004820152602490fdfea2646970667358221220f466ad3611f91c0035afc98cd212a546e1bf84827e5f6d1f969630ef715b53fc64736f6c63430008180033",
  "linkReferences": {},
  "deployedLinkReferences": {}
}