{
  "_format": "hh-sol-artifact-1",
  "contractName": "AFTRVParimutuelOrderBook",
  "sourceName": "contracts/orderbook/AFTRVParimutuelOrderBook.sol",
  "abi": [
    {
      "inputs": [
        {
          "internalType": "address",
          "name": "_marketFactory",
          "type": "address"
        },
        {
          "internalType": "address",
          "name": "_owner",
          "type": "address"
        }
      ],
      "stateMutability": "nonpayable",
      "type": "constructor"
    },
    {
      "inputs": [],
      "name": "FailedCall",
      "type": "error"
    },
    {
      "inputs": [
        {
          "internalType": "uint256",
          "name": "balance",
          "type": "uint256"
        },
        {
          "internalType": "uint256",
          "name": "needed",
          "type": "uint256"
        }
      ],
      "name": "InsufficientBalance",
      "type": "error"
    },
    {
      "inputs": [
        {
          "internalType": "address",
          "name": "owner",
          "type": "address"
        }
      ],
      "name": "OwnableInvalidOwner",
      "type": "error"
    },
    {
      "inputs": [
        {
          "internalType": "address",
          "name": "account",
          "type": "address"
        }
      ],
      "name": "OwnableUnauthorizedAccount",
      "type": "error"
    },
    {
      "inputs": [
        {
          "internalType": "address",
          "name": "token",
          "type": "address"
        }
      ],
      "name": "SafeERC20FailedOperation",
      "type": "error"
    },
    {
      "anonymous": false,
      "inputs": [
        {
          "indexed": true,
          "internalType": "address",
          "name": "market",
          "type": "address"
        },
        {
          "indexed": true,
          "internalType": "address",
          "name": "token",
          "type": "address"
        },
        {
          "indexed": true,
          "internalType": "address",
          "name": "user",
          "type": "address"
        },
        {
          "indexed": false,
          "internalType": "uint256",
          "name": "price",
          "type": "uint256"
        },
        {
          "indexed": false,
          "internalType": "bytes32",
          "name": "orderId",
          "type": "bytes32"
        }
      ],
      "name": "OrderCancelled",
      "type": "event"
    },
    {
      "anonymous": false,
      "inputs": [
        {
          "indexed": true,
          "internalType": "address",
          "name": "market",
          "type": "address"
        },
        {
          "indexed": true,
          "internalType": "address",
          "name": "token",
          "type": "address"
        },
        {
          "indexed": true,
          "internalType": "address",
          "name": "maker",
          "type": "address"
        },
        {
          "indexed": false,
          "internalType": "address",
          "name": "taker",
          "type": "address"
        },
        {
          "indexed": false,
          "internalType": "uint256",
          "name": "price",
          "type": "uint256"
        },
        {
          "indexed": false,
          "internalType": "uint256",
          "name": "amount",
          "type": "uint256"
        }
      ],
      "name": "OrderMatched",
      "type": "event"
    },
    {
      "anonymous": false,
      "inputs": [
        {
          "indexed": true,
          "internalType": "address",
          "name": "market",
          "type": "address"
        },
        {
          "indexed": true,
          "internalType": "address",
          "name": "token",
          "type": "address"
        },
        {
          "indexed": true,
          "internalType": "address",
          "name": "user",
          "type": "address"
        },
        {
          "indexed": false,
          "internalType": "uint256",
          "name": "price",
          "type": "uint256"
        },
        {
          "indexed": false,
          "internalType": "uint256",
          "name": "amount",
          "type": "uint256"
        },
        {
          "indexed": false,
          "internalType": "bytes32",
          "name": "orderId",
          "type": "bytes32"
        },
        {
          "indexed": false,
          "internalType": "bool",
          "name": "isBuy",
          "type": "bool"
        }
      ],
      "name": "OrderPlaced",
      "type": "event"
    },
    {
      "anonymous": false,
      "inputs": [
        {
          "indexed": true,
          "internalType": "address",
          "name": "previousOwner",
          "type": "address"
        },
        {
          "indexed": true,
          "internalType": "address",
          "name": "newOwner",
          "type": "address"
        }
      ],
      "name": "OwnershipTransferred",
      "type": "event"
    },
    {
      "inputs": [
        {
          "internalType": "address",
          "name": "",
          "type": "address"
        }
      ],
      "name": "accumulatedFeeErc20",
      "outputs": [
        {
          "internalType": "uint256",
          "name": "",
          "type": "uint256"
        }
      ],
      "stateMutability": "view",
      "type": "function"
    },
    {
      "inputs": [],
      "name": "accumulatedFeeNative",
      "outputs": [
        {
          "internalType": "uint256",
          "name": "",
          "type": "uint256"
        }
      ],
      "stateMutability": "view",
      "type": "function"
    },
    {
      "inputs": [
        {
          "internalType": "address",
          "name": "",
          "type": "address"
        },
        {
          "internalType": "address",
          "name": "",
          "type": "address"
        },
        {
          "internalType": "uint256",
          "name": "",
          "type": "uint256"
        }
      ],
      "name": "buyOrderBook",
      "outputs": [
        {
          "internalType": "uint256",
          "name": "length",
          "type": "uint256"
        },
        {
          "internalType": "bytes32",
          "name": "head",
          "type": "bytes32"
        },
        {
          "internalType": "bytes32",
          "name": "tail",
          "type": "bytes32"
        }
      ],
      "stateMutability": "view",
      "type": "function"
    },
    {
      "inputs": [
        {
          "internalType": "address",
          "name": "market",
          "type": "address"
        },
        {
          "internalType": "address",
          "name": "token",
          "type": "address"
        },
        {
          "internalType": "uint256",
          "name": "price",
          "type": "uint256"
        },
        {
          "internalType": "bytes32",
          "name": "orderId",
          "type": "bytes32"
        }
      ],
      "name": "cancelBuyOrder",
      "outputs": [],
      "stateMutability": "nonpayable",
      "type": "function"
    },
    {
      "inputs": [
        {
          "internalType": "address",
          "name": "market",
          "type": "address"
        },
        {
          "internalType": "address",
          "name": "token",
          "type": "address"
        },
        {
          "internalType": "uint256",
          "name": "price",
          "type": "uint256"
        },
        {
          "internalType": "bytes32",
          "name": "orderId",
          "type": "bytes32"
        }
      ],
      "name": "cancelSellOrder",
      "outputs": [],
      "stateMutability": "nonpayable",
      "type": "function"
    },
    {
      "inputs": [
        {
          "internalType": "address",
          "name": "collateralAsset",
          "type": "address"
        }
      ],
      "name": "collectFees",
      "outputs": [],
      "stateMutability": "nonpayable",
      "type": "function"
    },
    {
      "inputs": [],
      "name": "feeRate",
      "outputs": [
        {
          "internalType": "uint16",
          "name": "",
          "type": "uint16"
        }
      ],
      "stateMutability": "view",
      "type": "function"
    },
    {
      "inputs": [
        {
          "internalType": "address",
          "name": "market",
          "type": "address"
        },
        {
          "internalType": "address",
          "name": "token",
          "type": "address"
        }
      ],
      "name": "getBestAsk",
      "outputs": [
        {
          "internalType": "uint256",
          "name": "",
          "type": "uint256"
        }
      ],
      "stateMutability": "view",
      "type": "function"
    },
    {
      "inputs": [
        {
          "internalType": "address",
          "name": "market",
          "type": "address"
        },
        {
          "internalType": "address",
          "name": "token",
          "type": "address"
        }
      ],
      "name": "getBestBid",
      "outputs": [
        {
          "internalType": "uint256",
          "name": "",
          "type": "uint256"
        }
      ],
      "stateMutability": "view",
      "type": "function"
    },
    {
      "inputs": [],
      "name": "marketFactory",
      "outputs": [
        {
          "internalType": "contract IAFTRBookFactory",
          "name": "",
          "type": "address"
        }
      ],
      "stateMutability": "view",
      "type": "function"
    },
    {
      "inputs": [],
      "name": "owner",
      "outputs": [
        {
          "internalType": "address",
          "name": "",
          "type": "address"
        }
      ],
      "stateMutability": "view",
      "type": "function"
    },
    {
      "inputs": [
        {
          "internalType": "address",
          "name": "market",
          "type": "address"
        },
        {
          "internalType": "address",
          "name": "token",
          "type": "address"
        },
        {
          "internalType": "uint256",
          "name": "price",
          "type": "uint256"
        },
        {
          "internalType": "uint256",
          "name": "amount",
          "type": "uint256"
        }
      ],
      "name": "placeBuyOrder",
      "outputs": [
        {
          "internalType": "bytes32",
          "name": "orderId",
          "type": "bytes32"
        }
      ],
      "stateMutability": "payable",
      "type": "function"
    },
    {
      "inputs": [
        {
          "internalType": "address",
          "name": "market",
          "type": "address"
        },
        {
          "internalType": "address",
          "name": "token",
          "type": "address"
        },
        {
          "internalType": "uint256",
          "name": "price",
          "type": "uint256"
        },
        {
          "internalType": "uint256",
          "name": "amount",
          "type": "uint256"
        }
      ],
      "name": "placeSellOrder",
      "outputs": [
        {
          "internalType": "bytes32",
          "name": "orderId",
          "type": "bytes32"
        }
      ],
      "stateMutability": "nonpayable",
      "type": "function"
    },
    {
      "inputs": [],
      "name": "renounceOwnership",
      "outputs": [],
      "stateMutability": "nonpayable",
      "type": "function"
    },
    {
      "inputs": [
        {
          "internalType": "address",
          "name": "",
          "type": "address"
        },
        {
          "internalType": "address",
          "name": "",
          "type": "address"
        },
        {
          "internalType": "uint256",
          "name": "",
          "type": "uint256"
        }
      ],
      "name": "sellOrderBook",
      "outputs": [
        {
          "internalType": "uint256",
          "name": "length",
          "type": "uint256"
        },
        {
          "internalType": "bytes32",
          "name": "head",
          "type": "bytes32"
        },
        {
          "internalType": "bytes32",
          "name": "tail",
          "type": "bytes32"
        }
      ],
      "stateMutability": "view",
      "type": "function"
    },
    {
      "inputs": [
        {
          "internalType": "uint16",
          "name": "_feeRate",
          "type": "uint16"
        }
      ],
      "name": "setFeeRate",
      "outputs": [],
      "stateMutability": "nonpayable",
      "type": "function"
    },
    {
      "inputs": [
        {
          "internalType": "address",
          "name": "newOwner",
          "type": "address"
        }
      ],
      "name": "transferOwnership",
      "outputs": [],
      "stateMutability": "nonpayable",
      "type": "function"
    },
    {
      "stateMutability": "payable",
      "type": "receive"
    }
  ],
  "bytecode": "0x60a034620000ef57601f6200257d38819003918201601f19168301916001600160401b03831184841017620000f4578084926040948552833981010312620000ef5760206200004e826200010a565b916001600160a01b039182916200006691016200010a565b168015620000d6576000549160405193828285167f8be0079c531659141344cd1fd0a4f28419497f9722a3daafe3b4186f6b6457e0600080a3166080526001600160b01b031990911617601960a11b1760005561245d90816200012082396080518181816117880152611afa0152f35b604051631e4fbdf760e01b815260006004820152602490fd5b600080fd5b634e487b7160e01b600052604160045260246000fd5b51906001600160a01b0382168203620000ef5756fe608080604052600436101561001d575b50361561001b57600080fd5b005b60003560e01c90816306ae709514611775575080630933b2ae1461170a57806310d16b5914610fbb578063117c0bc014610e5857806329ff077314610dd25780634926819114610d63578063543ddf5114610d455780635671eed214610d19578063715018a614610cc057806375fcb6a314610c865780638da5cb5b14610c5d578063978bbdb914610c3857806399db37c514610ac9578063a05118c214610218578063a480ca79146101ac578063b9f8b5aa146101785763f2fde38b146100e5573861000f565b34610173576020366003190112610173576100fe6117b7565b61010661223b565b6001600160a01b0390811690811561015a57600054826bffffffffffffffffffffffff60a01b821617600055167f8be0079c531659141344cd1fd0a4f28419497f9722a3daafe3b4186f6b6457e0600080a3005b604051631e4fbdf760e01b815260006004820152602490fd5b600080fd5b346101735760403660031901126101735760206101a46101966117b7565b61019e6117cd565b90611a4d565b604051908152f35b34610173576020366003190112610173576101c56117b7565b6101cd61223b565b6001600160a01b0390811690816101f55761001b915060025490600060025560005416611f09565b8161001b9260005260016020526040600020916000835493556000541690611ea8565b61022136611818565b9290916000916102318282611ad1565b83151580610ac0575b61024390611851565b61024d8282612267565b94909561026f61025d8383611a00565b61026960ff8916611cad565b90611a13565b61029061271061028861ffff60005460a01c1684611a00565b048092611a33565b906001600160a01b03891680610a5d5750813410610a3257816102bd923411610a19575b50600254611a33565b6002559493945b946102cf8484612267565b9690505b6001600160a01b038481166000908152600360209081526040808320938916835292815282822086835290522054151580610a10575b15610629576001600160a01b038481166000908152600360208181526040808420948a1684529381528383208784528152838320600180820154808652919093019091529183902060028082015494519395939290919061036984611883565b8101546001600160a01b03168352015460208201528282106105125761039e6103928785611a00565b61026960ff8d16611cad565b60018060a01b0388166000526003602052604060002060018060a01b038a166000526020526040600020876000526020526040600020906040519163b3d3fb9d60e01b8352600483015260208260248173__$c4a3267dc0ad9004dd41e6a27ff0e111ab$__5af48015610506576104cf9661048893610457926104d7575b5060018060a01b038b166000526005602052604060002060018060a01b038d16600052602052604060002060018060a01b0386511690611f8d565b50610463888b8b612196565b61047785336001600160a01b038d16611ea8565b82516001600160a01b03168d61233d565b5160408051338152602081018890529081018490526001600160a01b039182169189811691908916906000805160206124088339815191529080606081015b0390a4611a40565b945b946102d3565b6104f89060203d6020116104ff575b6104f081836118bb565b810190611915565b508f61041c565b503d6104e6565b6040513d6000823e3d90fd5b9150916105e4906105be846105378c61026960ff6105308c86611a00565b9216611cad565b9260018060a01b038a166000526003602052604060002060018060a01b038c16600052602052604060002089600052602052600360406000200181600052602052600260406000200161058b838254611a40565b90556001600160a01b038a811660009081526005602090815260408083208f8516845290915290208751909116906122c6565b506105d384336001600160a01b038b16611ea8565b82516001600160a01b03168b61233d565b516040805133815260208101869052908101929092526001600160a01b03908116918682169186169060008051602061240883398151915290606090a46000946104d1565b848493878361063e575b602085604051908152f35b83945061026960ff61053084610655959697611a00565b9360018060a01b03168060005260209360048552604060002060018060a01b038516600052855260406000208360005285526040600020541560001461095c576000828152600480875260408083206001600160a01b038816845288528083208684528852918290209151630ede5d8760e31b81529081019190915233602482015260448101879052858160648173__$c4a3267dc0ad9004dd41e6a27ff0e111ab$__5af49081156105065760009161092f575b5060008381526009875260408082206001600160a01b03881683528852808220868352885290205490959060ff16156107bc575b61076d6020975b60008581526006845260408082206001600160a01b038a16835285529020869089903390611d0d565b50604051938452830152836040830152600160608301527f08df2dfcfaa1d4b132f1ade3fb5f295ce8fa7d2257abef9845734f54d254a7706080339460018060a01b031693a482808080610633565b60008381526009825260408082206001600160a01b0388168084529084528183208784528452818320805460ff191660019081179091558684526008855282842091845290845290822080549091805b6108ef575b50600160401b8110156108d95780600161082e920183558261192d565b815491600019928360039360031b1b1916905582548281019081116108c3575b84811161088d57505050978561088361086c61076d9460209c61192d565b819391549060031b91821b91600019901b19161790565b905597505061073d565b8281018181116108c3576108a1908561192d565b905490831b1c6108b461086c838761192d565b905580156108c357820161084e565b634e487b7160e01b600052601160045260246000fd5b634e487b7160e01b600052604160045260246000fd5b9281811080610916575b156109105760001981146108c3578301928061080c565b92610811565b5087610922828561192d565b90549060031b1c116108f9565b90508581813d8311610955575b61094681836118bb565b81010312610173575187610709565b503d61093c565b6000828152600480875260408083206001600160a01b0388168452885280832086845288529182902091516350fe157760e01b815290810191909152336024820152604481018790529594808760648173__$c4a3267dc0ad9004dd41e6a27ff0e111ab$__5af4968715610506576000976109df575b5061076d60209796610744565b96508087813d8311610a09575b6109f681836118bb565b810103126101735795519561076d6109d2565b503d6109ec565b50801515610309565b610a26610a2c9134611a40565b33611f09565b896102b4565b60405162461bcd60e51b815260206004820152600360248201526208aa8960eb1b6044820152606490fd5b909134610a9257610a7090303384611c20565b6000526001602052610a886040600020918254611a33565b90559493946102c4565b60405162461bcd60e51b815260206004820152600660248201526509cde408aa8960d31b6044820152606490fd5b5084151561023a565b3461017357610ad736611818565b60018060a0959493951b0392838116928360005260209160038352610b566040600020968084169788600052855260406000208960005285526003604060002001866000528552610b4e604060002086600260405194610b3686611883565b600184015416928386520154930192835233146118dd565b513388611ea8565b84600052600383526040600020866000528352604060002087600052835260406000209160405192632014b08b60e21b84526004840152846024840152838360448173__$c4a3267dc0ad9004dd41e6a27ff0e111ab$__5af491821561050657610bea938993610c1b575b5086600052600585526040600020886000528552610be486336040600020611f8d565b50612196565b6040519485528401527f4d808958216860d10b60c5927cdbbcff69e2318be11e150596eae39dc0d8ea1860403394a4005b610c3190863d88116104ff576104f081836118bb565b5089610bc1565b3461017357600036600319011261017357602061ffff60005460a01c16604051908152f35b34610173576000366003190112610173576000546040516001600160a01b039091168152602090f35b34610173576020366003190112610173576001600160a01b03610ca76117b7565b1660005260016020526020604060002054604051908152f35b3461017357600036600319011261017357610cd961223b565b600080546001600160a01b0319811682556001600160a01b03167f8be0079c531659141344cd1fd0a4f28419497f9722a3daafe3b4186f6b6457e08280a3005b346101735760403660031901126101735760206101a4610d376117b7565b610d3f6117cd565b9061195b565b34610173576000366003190112610173576020600254604051908152f35b3461017357610d71366117e3565b9160018060a01b0380911660005260036020526040600020911660005260205260406000209060005260205260406000208054610dce60026001840154930154604051938493846040919493926060820195825260208201520152565b0390f35b346101735760203660031901126101735760043561ffff8116808203610173576103e890610dfe61223b565b11610e24576000805461ffff60a01b191660a09290921b61ffff60a01b16919091179055005b60405162461bcd60e51b815260206004820152600c60248201526b08ccaca40e8dede40d0d2ced60a31b6044820152606490fd5b3461017357610e6636611818565b60018060a0959493951b03928381169283600052602091600483526040600020958083169687600052845260406000208860005284526003604060002001856000528452604060002090610edc60405192610ec084611883565b86600284600184015416928387520154940193845233146118dd565b610ee583611dd3565b501680610fa95750610ef8905133611f09565b84600052600483526040600020866000528352604060002087600052835260406000209160405192632014b08b60e21b84526004840152846024840152838360448173__$c4a3267dc0ad9004dd41e6a27ff0e111ab$__5af491821561050657610bea938993610f8c575b5086600052600685526040600020886000528552610f8686336040600020611f8d565b506120e5565b610fa290863d88116104ff576104f081836118bb565b5089610f63565b610fb69151903390611ea8565b610ef8565b3461017357610fc936611818565b929091600093610fd98284611ad1565b83151580611701575b610fee90959395611851565b6110038130336001600160a01b038616611c20565b9361100e8282612267565b9490955b6001600160a01b0383811660009081526004602090815260408083209388168352928152828220858352905220541515806116f8575b15611377576001600160a01b03838116600090815260046020908152604080832093881683529281528282208583528152828220600181015480845260039091019091529190206002015490916110b3846110ae6110a860ff8c16611cad565b85611a00565b611a13565b9160018060a01b0386166000526004602052604060002060018060a01b03881660005260205260406000208560005260205260036040600020018460005260205260406000209060026040519261110984611883565b60018101546001600160a01b031684520154602083015283831061126f5760018060a01b0387166000526004602052604060002060018060a01b0389166000526020526040600020866000526020526040600020906040519163b3d3fb9d60e01b8352600483015260208260248173__$c4a3267dc0ad9004dd41e6a27ff0e111ab$__5af480156105065761124896611205936111d792611250575b506001600160a01b038a811660009081526006602090815260408083208f851684529091529020865190911690611f8d565b506111e3878a8a6120e5565b82516111fe9086906001600160a01b03908116908c16611ea8565b338c61233d565b5160408051338152602081018790529081018490526001600160a01b039182169188811691908816906000805160206124088339815191529080606081016104c7565b935b93611012565b6112689060203d6020116104ff576104f081836118bb565b508e6111a5565b509150916113329061130f6112876103928787611a00565b809260018060a01b0389166000526004602052604060002060018060a01b038b1660005260205260406000208860005260205260036040600020018160005260205260026040600020016112dc838254611a40565b90556001600160a01b0389811660009081526006602090815260408083208e8516845290915290208751909116906122c6565b50825161132b9085906001600160a01b03908116908a16611ea8565b338a61233d565b516040805133815260208101859052908101929092526001600160a01b03908116918582169185169060008051602061240883398151915290606090a460009361124a565b909284928261138c575b602084604051908152f35b9091925060018060a01b03169283600052600393602093858552604060002060018060a01b038516600052855260406000208360005285526040600020541560001461164e57600082815286865260408082206001600160a01b038716835287528082208583528752908190209051630ede5d8760e31b8152600481019190915233602482015260448101829052858160648173__$c4a3267dc0ad9004dd41e6a27ff0e111ab$__5af490811561050657600091611621575b5060008381526009875260408082206001600160a01b03881683528852808220868352885290205490959060ff16156114f8575b602096505b8260005260058152604060002060018060a01b03861660005281526114aa828588336040600020611d0d565b50604051938452830152836040830152600060608301527f08df2dfcfaa1d4b132f1ade3fb5f295ce8fa7d2257abef9845734f54d254a7706080339460018060a01b031693a4828080611381565b60008381526009825260408082206001600160a01b0388168084529084528183208784528452818320805460ff19166001908117909155868452600785528284209184529084529082208054929990929091805b6115e2575b50600160401b8110156108d95780600161156e920184558361192d565b919080546000198094841b1b1916905582548281019081116108c3575b8a81116115ac575050506115a561086c602099879361192d565b9055611479565b8281018181116108c3576115c0908561192d565b905490831b1c6115d361086c838761192d565b905580156108c357820161158b565b9981811080611609575b156116035760001981146108c3578a01998061154c565b99611551565b5087611615828661192d565b905490851b1c106115ec565b90508581813d8311611647575b61163881836118bb565b81010312610173575187611445565b503d61162e565b600082815295855260408087206001600160a01b0386168852865280872084885286529586902095516350fe157760e01b8152600481019690965233602487015260448601819052848660648173__$c4a3267dc0ad9004dd41e6a27ff0e111ab$__5af48015610506576000906116ca575b602096509461147e565b508486813d83116116f1575b6116e081836118bb565b8101031261017357602095516116c0565b503d6116d6565b50801515611048565b50801515610fe2565b3461017357611718366117e3565b9160018060a01b0380911660005260046020526040600020911660005260205260406000209060005260205260406000208054610dce60026001840154930154604051938493846040919493926060820195825260208201520152565b34610173576000366003190112610173577f00000000000000000000000000000000000000000000000000000000000000006001600160a01b03168152602090f35b600435906001600160a01b038216820361017357565b602435906001600160a01b038216820361017357565b6060906003190112610173576001600160a01b0390600435828116810361017357916024359081168103610173579060443590565b6080906003190112610173576001600160a01b039060043582811681036101735791602435908116810361017357906044359060643590565b1561185857565b606460405162461bcd60e51b81526020600482015260046024820152634172677360e01b6044820152fd5b6040810190811067ffffffffffffffff8211176108d957604052565b6060810190811067ffffffffffffffff8211176108d957604052565b90601f8019910116810190811067ffffffffffffffff8211176108d957604052565b156118e457565b60405162461bcd60e51b81526020600482015260096024820152682737ba1037bbb732b960b91b6044820152606490fd5b90816020910312610173575180151581036101735790565b80548210156119455760005260206000200190600090565b634e487b7160e01b600052603260045260246000fd5b9060018060a01b0380921690600092828452602090600760205260409060408620931692838652602052604085209182549485156119f757865b8681106119a6575050505050505090565b8188526003808452848920878a5284528489206119c3838861192d565b905490831b1c8a528452848920546119de5750600101611995565b975094505050506119ef925061192d565b9054911b1c90565b50505050505090565b818102929181159184041417156108c357565b8115611a1d570490565b634e487b7160e01b600052601260045260246000fd5b919082018092116108c357565b919082039182116108c357565b60018060a01b0380911690600092828452602091600860205260409060408620921691828652602052604085209182549485156119f757865b868110611a97575050505050505090565b818852600486528388208389528652838820611ab3828761192d565b919054600392831b1c8a528752848920546119de5750600101611a86565b604080516337649a6d60e11b81526001600160a01b0392831660048201819052602094929392917f00000000000000000000000000000000000000000000000000000000000000008416908681602481855afa908115611c1557600091611bf8575b5015611bcb57859291604491865195869485936302fb78a760e31b855260048501521660248301525afa908115611bc057600091611ba3575b5015611b76575050565b60649250519062461bcd60e51b8252600482015260076024820152664f7574636f6d6560c81b6044820152fd5b611bba9150833d85116104ff576104f081836118bb565b38611b6c565b82513d6000823e3d90fd5b845162461bcd60e51b815260048101879052600660248201526513585c9ad95d60d21b6044820152606490fd5b611c0f9150873d89116104ff576104f081836118bb565b38611b33565b86513d6000823e3d90fd5b6040516323b872dd60e01b60009081526001600160a01b03938416600452938316602452604494909452909160209060648180855af1600160005114811615611c8d575b83604052600060605215611c7757505050565b635274afe760e01b835216600482015260249150fd5b6001811516611ca357813b15153d151616611c64565b833d6000823e3d90fd5b604d81116108c357600a0a90565b8054821015611945576000526003602060002091020190600090565b9190611cf757604081600292518455602081015160018501550151910155565b634e487b7160e01b600052600060045260246000fd5b93909291936001810191600093868552836020526040958686205415600014611daf5760018060a01b0316918286528360205286862090875192611d508461189f565b898452602084015287830152805490600160401b821015611d9b5781611d7f916001611d859594018155611cbb565b90611cd7565b8352602052828220549382526020522055600190565b634e487b7160e01b87526041600452602487fd5b505050505091505090565b90816020910312610173575160ff811681036101735790565b6040516348d399e760e01b8152602092916001600160a01b03908116918481600481865afa918215610506578591600093611e67575b5050604051630ec9c6c360e41b81529192829060049082905afa93841561050657600094611e38575b50509190565b611e58929450803d10611e60575b611e5081836118bb565b810190611dba565b913880611e32565b503d611e46565b90929181813d8311611ea1575b611e7e81836118bb565b81010312611e9d57519182168203611e9a575083600438611e09565b80fd5b5080fd5b503d611e74565b60405163a9059cbb60e01b60009081526001600160a01b039384166004526024949094529260209060448180855af1600160005114811615611ef3575b8360405215611c7757505050565b6001811516611ca357813b15153d151616611ee5565b814710611f6e576040516020810181811067ffffffffffffffff8211176108d957604052600080809481948280955260018060a01b03165af115611f4a5750565b3d15611f5c57604051903d90823e3d90fd5b60405163d6bda27560e01b8152600490fd5b60405163cf47918160e01b815247600482015260248101839052604490fd5b90600182019060009380855260209183835260409485872054918215156000146120db5760001992808401918183116120c7576001600160a01b0316808a52838752888a205490928582019182116120b3578782828c938e9503612054575b505050509050528352848620908154801561204057019061200d8282611cbb565b61202c5760028189809355826001820155015555845252812055600190565b634e487b7160e01b88526004889052602488fd5b634e487b7160e01b88526031600452602488fd5b61209e9361206d611d7f938988528a8652828820611cbb565b50956002825197889661207f8861189f565b81548852600182015490880152015482860152888152898d5220611cbb565b51895286865287892055388888878380611fec565b634e487b7160e01b8b52601160045260248bfd5b634e487b7160e01b8a52601160045260248afd5b5050505050505090565b6001600160a01b0390811660008181526003602090815260408083209590941680835294815283822086835281528382205492959491921580612174575b612130575b505050505050565b85612169968452600982528484208385528252848420868552825284842060ff1981541690558352600881528383209183525220612366565b388080808080612128565b5085835260048152838320828452815283832085845281528383205415612123565b6001600160a01b0390811660008181526003602090815260408083209590941680835294815283822086835281528382205492959491921580612219575b6121e057505050505050565b85612169968452600982528484208385528252848420868552825284842060ff1981541690558352600781528383209183525220612366565b50858352600481528383208284528152838320858452815283832054156121d4565b6000546001600160a01b0316330361224f57565b60405163118cdaa760e01b8152336004820152602490fd5b6020612277600492949394611dd3565b5060405163313ce56760e01b815290949092839182906001600160a01b03165afa908115610506576000916122aa575090565b6122c3915060203d602011611e6057611e5081836118bb565b90565b600092835260018101602052604083205492918315612335576001600160a01b03168252602052604081206000198301929091908311612321575061231061231a92600292611cbb565b5001918254611a40565b9055600190565b634e487b7160e01b81526011600452602490fd5b505091505090565b6001600160a01b0392919083168061235c575061235a9216611f09565b565b61235a9350611ea8565b60005b81549081811015612401578391612380828561192d565b959054600396871b1c1461239a5750909250600101612369565b60001992508281019081116108c35761086c6123b96123c6928661192d565b905490871b1c928561192d565b9055815480156123eb578101926123dd848461192d565b81939154921b1b1916905555565b634e487b7160e01b600052603160045260246000fd5b5050505056fe3cbbc8402f36c579ec0a401deda27129168a12e63fcc158db749aa8beb3b0379a2646970667358221220aa9e4b8347882e12112352da1e0fb3f45036ef288e0290c83ee64e5d02feb85c64736f6c63430008180033",
  "linkReferences": {
    "contracts/libraries/OrderBookLinkedList.sol": {
      "OrderBookLinkedList": [
        {
          "length": 20,
          "start": 1296
        },
        {
          "length": 20,
          "start": 2053
        },
        {
          "length": 20,
          "start": 2766
        },
        {
          "length": 20,
          "start": 3258
        },
        {
          "length": 20,
          "start": 4188
        },
        {
          "length": 20,
          "start": 4761
        },
        {
          "length": 20,
          "start": 5441
        },
        {
          "length": 20,
          "start": 6077
        }
      ]
    }
  },
  "deployedLinkReferences": {
    "contracts/libraries/OrderBookLinkedList.sol": {
      "OrderBookLinkedList": [
        {
          "length": 20,
          "start": 1008
        },
        {
          "length": 20,
          "start": 1765
        },
        {
          "length": 20,
          "start": 2478
        },
        {
          "length": 20,
          "start": 2970
        },
        {
          "length": 20,
          "start": 3900
        },
        {
          "length": 20,
          "start": 4473
        },
        {
          "length": 20,
          "start": 5153
        },
        {
          "length": 20,
          "start": 5789
        }
      ]
    }
  }
}