{
  "_format": "hh-sol-artifact-1",
  "contractName": "AFTRVParimutuelOrderBook",
  "sourceName": "contracts/orderbook/AFTRVParimutuelOrderBook.sol",
  "abi": [
    {
      "inputs": [
        {
          "internalType": "address",
          "name": "_marketFactory",
          "type": "address"
        },
        {
          "internalType": "address",
          "name": "_owner",
          "type": "address"
        }
      ],
      "stateMutability": "nonpayable",
      "type": "constructor"
    },
    {
      "inputs": [],
      "name": "FailedCall",
      "type": "error"
    },
    {
      "inputs": [
        {
          "internalType": "uint256",
          "name": "balance",
          "type": "uint256"
        },
        {
          "internalType": "uint256",
          "name": "needed",
          "type": "uint256"
        }
      ],
      "name": "InsufficientBalance",
      "type": "error"
    },
    {
      "inputs": [
        {
          "internalType": "address",
          "name": "owner",
          "type": "address"
        }
      ],
      "name": "OwnableInvalidOwner",
      "type": "error"
    },
    {
      "inputs": [
        {
          "internalType": "address",
          "name": "account",
          "type": "address"
        }
      ],
      "name": "OwnableUnauthorizedAccount",
      "type": "error"
    },
    {
      "inputs": [
        {
          "internalType": "address",
          "name": "token",
          "type": "address"
        }
      ],
      "name": "SafeERC20FailedOperation",
      "type": "error"
    },
    {
      "anonymous": false,
      "inputs": [
        {
          "indexed": true,
          "internalType": "address",
          "name": "market",
          "type": "address"
        },
        {
          "indexed": true,
          "internalType": "address",
          "name": "token",
          "type": "address"
        },
        {
          "indexed": true,
          "internalType": "address",
          "name": "user",
          "type": "address"
        },
        {
          "indexed": false,
          "internalType": "uint256",
          "name": "price",
          "type": "uint256"
        },
        {
          "indexed": false,
          "internalType": "bytes32",
          "name": "orderId",
          "type": "bytes32"
        }
      ],
      "name": "OrderCancelled",
      "type": "event"
    },
    {
      "anonymous": false,
      "inputs": [
        {
          "indexed": true,
          "internalType": "address",
          "name": "market",
          "type": "address"
        },
        {
          "indexed": true,
          "internalType": "address",
          "name": "token",
          "type": "address"
        },
        {
          "indexed": true,
          "internalType": "address",
          "name": "maker",
          "type": "address"
        },
        {
          "indexed": false,
          "internalType": "address",
          "name": "taker",
          "type": "address"
        },
        {
          "indexed": false,
          "internalType": "uint256",
          "name": "price",
          "type": "uint256"
        },
        {
          "indexed": false,
          "internalType": "uint256",
          "name": "amount",
          "type": "uint256"
        }
      ],
      "name": "OrderMatched",
      "type": "event"
    },
    {
      "anonymous": false,
      "inputs": [
        {
          "indexed": true,
          "internalType": "address",
          "name": "market",
          "type": "address"
        },
        {
          "indexed": true,
          "internalType": "address",
          "name": "token",
          "type": "address"
        },
        {
          "indexed": true,
          "internalType": "address",
          "name": "user",
          "type": "address"
        },
        {
          "indexed": false,
          "internalType": "uint256",
          "name": "price",
          "type": "uint256"
        },
        {
          "indexed": false,
          "internalType": "uint256",
          "name": "amount",
          "type": "uint256"
        },
        {
          "indexed": false,
          "internalType": "bytes32",
          "name": "orderId",
          "type": "bytes32"
        },
        {
          "indexed": false,
          "internalType": "bool",
          "name": "isBuy",
          "type": "bool"
        }
      ],
      "name": "OrderPlaced",
      "type": "event"
    },
    {
      "anonymous": false,
      "inputs": [
        {
          "indexed": true,
          "internalType": "address",
          "name": "previousOwner",
          "type": "address"
        },
        {
          "indexed": true,
          "internalType": "address",
          "name": "newOwner",
          "type": "address"
        }
      ],
      "name": "OwnershipTransferred",
      "type": "event"
    },
    {
      "inputs": [
        {
          "internalType": "address",
          "name": "",
          "type": "address"
        }
      ],
      "name": "accumulatedFeeErc20",
      "outputs": [
        {
          "internalType": "uint256",
          "name": "",
          "type": "uint256"
        }
      ],
      "stateMutability": "view",
      "type": "function"
    },
    {
      "inputs": [],
      "name": "accumulatedFeeNative",
      "outputs": [
        {
          "internalType": "uint256",
          "name": "",
          "type": "uint256"
        }
      ],
      "stateMutability": "view",
      "type": "function"
    },
    {
      "inputs": [
        {
          "internalType": "address",
          "name": "",
          "type": "address"
        },
        {
          "internalType": "address",
          "name": "",
          "type": "address"
        },
        {
          "internalType": "uint256",
          "name": "",
          "type": "uint256"
        }
      ],
      "name": "buyOrderBook",
      "outputs": [
        {
          "internalType": "uint256",
          "name": "length",
          "type": "uint256"
        },
        {
          "internalType": "bytes32",
          "name": "head",
          "type": "bytes32"
        },
        {
          "internalType": "bytes32",
          "name": "tail",
          "type": "bytes32"
        }
      ],
      "stateMutability": "view",
      "type": "function"
    },
    {
      "inputs": [
        {
          "internalType": "address",
          "name": "market",
          "type": "address"
        },
        {
          "internalType": "address",
          "name": "token",
          "type": "address"
        },
        {
          "internalType": "uint256",
          "name": "price",
          "type": "uint256"
        },
        {
          "internalType": "bytes32",
          "name": "orderId",
          "type": "bytes32"
        }
      ],
      "name": "cancelBuyOrder",
      "outputs": [],
      "stateMutability": "nonpayable",
      "type": "function"
    },
    {
      "inputs": [
        {
          "internalType": "address",
          "name": "market",
          "type": "address"
        },
        {
          "internalType": "address",
          "name": "token",
          "type": "address"
        },
        {
          "internalType": "uint256",
          "name": "price",
          "type": "uint256"
        },
        {
          "internalType": "bytes32",
          "name": "orderId",
          "type": "bytes32"
        }
      ],
      "name": "cancelSellOrder",
      "outputs": [],
      "stateMutability": "nonpayable",
      "type": "function"
    },
    {
      "inputs": [
        {
          "internalType": "address",
          "name": "collateralAsset",
          "type": "address"
        }
      ],
      "name": "collectFees",
      "outputs": [],
      "stateMutability": "nonpayable",
      "type": "function"
    },
    {
      "inputs": [],
      "name": "feeRate",
      "outputs": [
        {
          "internalType": "uint16",
          "name": "",
          "type": "uint16"
        }
      ],
      "stateMutability": "view",
      "type": "function"
    },
    {
      "inputs": [
        {
          "internalType": "address",
          "name": "market",
          "type": "address"
        },
        {
          "internalType": "address",
          "name": "token",
          "type": "address"
        }
      ],
      "name": "getBestAsk",
      "outputs": [
        {
          "internalType": "uint256",
          "name": "",
          "type": "uint256"
        }
      ],
      "stateMutability": "view",
      "type": "function"
    },
    {
      "inputs": [
        {
          "internalType": "address",
          "name": "market",
          "type": "address"
        },
        {
          "internalType": "address",
          "name": "token",
          "type": "address"
        }
      ],
      "name": "getBestBid",
      "outputs": [
        {
          "internalType": "uint256",
          "name": "",
          "type": "uint256"
        }
      ],
      "stateMutability": "view",
      "type": "function"
    },
    {
      "inputs": [],
      "name": "marketFactory",
      "outputs": [
        {
          "internalType": "contract IAFTRBookFactory",
          "name": "",
          "type": "address"
        }
      ],
      "stateMutability": "view",
      "type": "function"
    },
    {
      "inputs": [],
      "name": "owner",
      "outputs": [
        {
          "internalType": "address",
          "name": "",
          "type": "address"
        }
      ],
      "stateMutability": "view",
      "type": "function"
    },
    {
      "inputs": [
        {
          "internalType": "address",
          "name": "market",
          "type": "address"
        },
        {
          "internalType": "address",
          "name": "token",
          "type": "address"
        },
        {
          "internalType": "uint256",
          "name": "price",
          "type": "uint256"
        },
        {
          "internalType": "uint256",
          "name": "amount",
          "type": "uint256"
        }
      ],
      "name": "placeBuyOrder",
      "outputs": [
        {
          "internalType": "bytes32",
          "name": "orderId",
          "type": "bytes32"
        }
      ],
      "stateMutability": "payable",
      "type": "function"
    },
    {
      "inputs": [
        {
          "internalType": "address",
          "name": "market",
          "type": "address"
        },
        {
          "internalType": "address",
          "name": "token",
          "type": "address"
        },
        {
          "internalType": "uint256",
          "name": "price",
          "type": "uint256"
        },
        {
          "internalType": "uint256",
          "name": "amount",
          "type": "uint256"
        }
      ],
      "name": "placeSellOrder",
      "outputs": [
        {
          "internalType": "bytes32",
          "name": "orderId",
          "type": "bytes32"
        }
      ],
      "stateMutability": "nonpayable",
      "type": "function"
    },
    {
      "inputs": [],
      "name": "renounceOwnership",
      "outputs": [],
      "stateMutability": "nonpayable",
      "type": "function"
    },
    {
      "inputs": [
        {
          "internalType": "address",
          "name": "",
          "type": "address"
        },
        {
          "internalType": "address",
          "name": "",
          "type": "address"
        },
        {
          "internalType": "uint256",
          "name": "",
          "type": "uint256"
        }
      ],
      "name": "sellOrderBook",
      "outputs": [
        {
          "internalType": "uint256",
          "name": "length",
          "type": "uint256"
        },
        {
          "internalType": "bytes32",
          "name": "head",
          "type": "bytes32"
        },
        {
          "internalType": "bytes32",
          "name": "tail",
          "type": "bytes32"
        }
      ],
      "stateMutability": "view",
      "type": "function"
    },
    {
      "inputs": [
        {
          "internalType": "uint16",
          "name": "_feeRate",
          "type": "uint16"
        }
      ],
      "name": "setFeeRate",
      "outputs": [],
      "stateMutability": "nonpayable",
      "type": "function"
    },
    {
      "inputs": [
        {
          "internalType": "address",
          "name": "newOwner",
          "type": "address"
        }
      ],
      "name": "transferOwnership",
      "outputs": [],
      "stateMutability": "nonpayable",
      "type": "function"
    },
    {
      "stateMutability": "payable",
      "type": "receive"
    }
  ],
  "bytecode": "0x60a034620000ef57601f620025e638819003918201601f19168301916001600160401b03831184841017620000f4578084926040948552833981010312620000ef5760206200004e826200010a565b916001600160a01b039182916200006691016200010a565b168015620000d6576000549160405193828285167f8be0079c531659141344cd1fd0a4f28419497f9722a3daafe3b4186f6b6457e0600080a3166080526001600160b01b031990911617601960a11b176000556124c6908162000120823960805181818161145801526117ca0152f35b604051631e4fbdf760e01b815260006004820152602490fd5b600080fd5b634e487b7160e01b600052604160045260246000fd5b51906001600160a01b0382168203620000ef5756fe608080604052600436101561001d575b50361561001b57600080fd5b005b60003560e01c90816306ae709514611445575080630933b2ae146113da57806310d16b5914610db3578063117c0bc014610ca857806329ff077314610c225780634926819114610bb3578063543ddf5114610b955780635671eed214610b69578063715018a614610b1057806375fcb6a314610ad65780638da5cb5b14610aad578063978bbdb914610a8857806399db37c514610971578063a05118c214610213578063a480ca79146101a7578063b9f8b5aa146101735763f2fde38b146100e5573861000f565b3461016e57602036600319011261016e576100fe611487565b610106612277565b6001600160a01b0390811690811561015557600054826001600160601b0360a01b821617600055167f8be0079c531659141344cd1fd0a4f28419497f9722a3daafe3b4186f6b6457e0600080a3005b604051631e4fbdf760e01b815260006004820152602490fd5b600080fd5b3461016e57604036600319011261016e57602061019f610191611487565b61019961149d565b90611705565b604051908152f35b3461016e57602036600319011261016e576101c0611487565b6101c8612277565b6001600160a01b0390811690816101f05761001b915060025490600060025560005416611dbb565b8161001b9260005260016020526040600020916000835493556000541690611d5a565b61021c366114e8565b9160009391939161022d82826117a1565b84151580610968575b61023f90611521565b61024982826122a3565b95909461026b61025983836116b8565b61026560ff8a1661198d565b906116cb565b61028c61271061028461ffff60005460a01c16846116b8565b0480926116eb565b906001600160a01b0388168061090557508134106108da57816102b99234116108c1575b506002546116eb565b6002559593955b956102cb84846122a3565b9790505b6001600160a01b0384811660009081526003602090815260408083209389168352928152828220868352905220541515806108b8575b156105b1576001600160a01b038481166000908152600360208181526040808420948a1684529381528383208784528152838320600180820154808652919093019091529183902060028082015494519395939290919061036584611553565b8101546001600160a01b03168352015460208201528a8383106104a057610498946104206103a66104519361026560ff61039f8d8b6116b8565b921661198d565b9160018060a01b038b166000526003602052604060002060018060a01b038d1660005260205260406000208a6000526020526103e5604060002061238e565b5060018060a01b038b166000526005602052604060002060018060a01b038d16600052602052604060002060018060a01b0386511690611fc9565b5061042c888b8b6121d2565b61044085336001600160a01b038d16611d5a565b82516001600160a01b03168c612365565b5160408051338152602081018890529081018490526001600160a01b039182169189811691908916906000805160206124718339815191529080606081015b0390a46116f8565b945b946102cf565b8280959294506104bf6105469261026560ff61039f8c61056c996116b8565b9260018060a01b038a166000526003602052604060002060018060a01b038c1660005260205260406000208960005260205260036040600020018160005260205260026040600020016105138382546116f8565b90556001600160a01b038a811660009081526005602090815260408083208f851684529091529020875190911690612302565b5061055b84336001600160a01b038b16611d5a565b82516001600160a01b03168a612365565b516040805133815260208101869052908101929092526001600160a01b03908116918682169186169060008051602061247183398151915290606090a460009461049a565b84849387836105c6575b602085604051908152f35b83945061026560ff61039f846105dd9596976116b8565b9360018060a01b03168060005260209360048552604060002060018060a01b03851660005285526040600020836000528552604060002054156000146108755760008281526004865260408082206001600160a01b03871683528752808220858352875290206106509087903390611a98565b60008381526009875260408082206001600160a01b03881683528852808220868352885290205490959060ff1615610702575b6106b36020975b60008581526006845260408082206001600160a01b038a16835285529020869089903390611bb3565b50604051938452830152836040830152600160608301527f08df2dfcfaa1d4b132f1ade3fb5f295ce8fa7d2257abef9845734f54d254a7706080339460018060a01b031693a4828080806105bb565b60008381526009825260408082206001600160a01b0388168084529084528183208784528452818320805460ff191660019081179091558684526008855282842091845290845290822080549091805b610835575b50600160401b81101561081f5780600161077492018355826115e5565b815491600019928360039360031b1b191690558254828101908111610809575b8481116107d35750505097856107c96107b26106b39460209c6115e5565b819391549060031b91821b91600019901b19161790565b9055975050610683565b828101818111610809576107e790856115e5565b905490831b1c6107fa6107b283876115e5565b90558015610809578201610794565b634e487b7160e01b600052601160045260246000fd5b634e487b7160e01b600052604160045260246000fd5b928181108061085c575b156108565760001981146108095783019280610752565b92610757565b508761086882856115e5565b90549060031b1c1161083f565b602095948260005260048152604060002060018060a01b038616600052815260406000208460005281526106b36108b2876040600020339061199b565b9661068a565b50801515610305565b6108ce6108d491346116f8565b33611dbb565b896102b0565b60405162461bcd60e51b815260206004820152600360248201526208aa8960eb1b6044820152606490fd5b90913461093a5761091890303384611900565b600052600160205261093060406000209182546116eb565b90559593956102c0565b60405162461bcd60e51b815260206004820152600660248201526509cde408aa8960d31b6044820152606490fd5b50831515610236565b3461016e5761097f366114e8565b60018060a0959493951b0392610a5785858316948560005260209360038552610a02604060002098808416998a6000528752604060002085600052875260036040600020018860005287526109fa6040600020886002604051946109e286611553565b600184015416928386520154930192835233146115ad565b51338a611d5a565b866000526003855260406000208860005285526040600020836000528552610a2e866040600020611e96565b5086600052600585526040600020886000528552610a5186336040600020611fc9565b506121d2565b6040519485528401527f4d808958216860d10b60c5927cdbbcff69e2318be11e150596eae39dc0d8ea1860403394a4005b3461016e57600036600319011261016e57602061ffff60005460a01c16604051908152f35b3461016e57600036600319011261016e576000546040516001600160a01b039091168152602090f35b3461016e57602036600319011261016e576001600160a01b03610af7611487565b1660005260016020526020604060002054604051908152f35b3461016e57600036600319011261016e57610b29612277565b600080546001600160a01b0319811682556001600160a01b03167f8be0079c531659141344cd1fd0a4f28419497f9722a3daafe3b4186f6b6457e08280a3005b3461016e57604036600319011261016e57602061019f610b87611487565b610b8f61149d565b90611613565b3461016e57600036600319011261016e576020600254604051908152f35b3461016e57610bc1366114b3565b9160018060a01b0380911660005260036020526040600020911660005260205260406000209060005260205260406000208054610c1e60026001840154930154604051938493846040919493926060820195825260208201520152565b0390f35b3461016e57602036600319011261016e5760043561ffff811680820361016e576103e890610c4e612277565b11610c74576000805461ffff60a01b191660a09290921b61ffff60a01b16919091179055005b60405162461bcd60e51b815260206004820152600c60248201526b08ccaca40e8dede40d0d2ced60a31b6044820152606490fd5b3461016e57610cb6366114e8565b60018060a0959493951b0392610a57858583169485600052602093600485526040600020978083169889600052865260406000208460005286526003604060002001876000528652604060002090610d3060405192610d1484611553565b88600284600184015416928387520154940193845233146115ad565b610d3983611c79565b501680610da15750610d4c905133611dbb565b866000526004855260406000208860005285526040600020836000528552610d78866040600020611e96565b5086600052600685526040600020886000528552610d9b86336040600020611fc9565b50612121565b610dae9151903390611d5a565b610d4c565b3461016e57610dc1366114e8565b91600093919392610dd282846117a1565b841515806113d1575b610de790949394611521565b610dfc8130336001600160a01b038616611900565b92610e0782826122a3565b9590945b6001600160a01b0383811660009081526004602090815260408083209388168352928152828220858352905220541515806113c8575b15611122576001600160a01b0383811660009081526004602090815260408083209388168352928152828220858352815282822060018101548084526003909101909152919020600201549091610eac84610ea7610ea160ff8d1661198d565b856116b8565b6116cb565b9160018060a01b0386166000526004602052604060002060018060a01b038816600052602052604060002085600052602052600360406000200184600052602052604060002090600260405192610f0284611553565b60018101546001600160a01b031684520154602083015283831061101457610fc990610f9b61100c9660018060a01b038a166000526004602052604060002060018060a01b038c16600052602052604060002089600052602052610f69604060002061238e565b506001600160a01b038a811660009081526006602090815260408083208f851684529091529020865190911690611fc9565b50610fa7878a8a612121565b8251610fc29086906001600160a01b03908116908c16611d5a565b338b612365565b5160408051338152602081018790529081018490526001600160a01b03918216918881169190881690600080516020612471833981519152908060608101610490565b935b93610e0b565b509150916110dd906110ba6110328b61026560ff61039f8a8a6116b8565b809260018060a01b0389166000526004602052604060002060018060a01b038b1660005260205260406000208860005260205260036040600020018160005260205260026040600020016110878382546116f8565b90556001600160a01b0389811660009081526006602090815260408083208e851684529091529020875190911690612302565b5082516110d69085906001600160a01b03908116908a16611d5a565b3389612365565b516040805133815260208101859052908101929092526001600160a01b03908116918582169185169060008051602061247183398151915290606090a460009361100e565b9092849282611137575b602084604051908152f35b9091925060018060a01b03169283600052600393602093858552604060002060018060a01b038516600052855260406000208360005285526040600020541560001461138c5781600052858552604060002060018060a01b038516600052855260406000208360005285526111b181336040600020611a98565b60008381526009875260408082206001600160a01b03881683528852808220868352885290205490959060ff1615611263575b602096505b8260005260058152604060002060018060a01b0386166000528152611215828588336040600020611bb3565b50604051938452830152836040830152600060608301527f08df2dfcfaa1d4b132f1ade3fb5f295ce8fa7d2257abef9845734f54d254a7706080339460018060a01b031693a482808061112c565b60008381526009825260408082206001600160a01b0388168084529084528183208784528452818320805460ff19166001908117909155868452600785528284209184529084529082208054929990929091805b61134d575b50600160401b81101561081f578060016112d992018455836115e5565b919080546000198094841b1b191690558254828101908111610809575b8a8111611317575050506113106107b260209987936115e5565b90556111e4565b8281018181116108095761132b90856115e5565b905490831b1c61133e6107b283876115e5565b905580156108095782016112f6565b9981811080611374575b1561136e576000198114610809578a0199806112b7565b996112bc565b508761138082866115e5565b905490851b1c10611357565b602095826000528552604060002060018060a01b038516600052855260406000208360005285526113c28133604060002061199b565b946111e9565b50801515610e41565b50801515610ddb565b3461016e576113e8366114b3565b9160018060a01b0380911660005260046020526040600020911660005260205260406000209060005260205260406000208054610c1e60026001840154930154604051938493846040919493926060820195825260208201520152565b3461016e57600036600319011261016e577f00000000000000000000000000000000000000000000000000000000000000006001600160a01b03168152602090f35b600435906001600160a01b038216820361016e57565b602435906001600160a01b038216820361016e57565b606090600319011261016e576001600160a01b0390600435828116810361016e5791602435908116810361016e579060443590565b608090600319011261016e576001600160a01b0390600435828116810361016e5791602435908116810361016e57906044359060643590565b1561152857565b606460405162461bcd60e51b81526020600482015260046024820152634172677360e01b6044820152fd5b6040810190811067ffffffffffffffff82111761081f57604052565b6060810190811067ffffffffffffffff82111761081f57604052565b90601f8019910116810190811067ffffffffffffffff82111761081f57604052565b156115b457565b60405162461bcd60e51b81526020600482015260096024820152682737ba1037bbb732b960b91b6044820152606490fd5b80548210156115fd5760005260206000200190600090565b634e487b7160e01b600052603260045260246000fd5b9060018060a01b0380921690600092828452602090600760205260409060408620931692838652602052604085209182549485156116af57865b86811061165e575050505050505090565b8188526003808452848920878a52845284892061167b83886115e5565b905490831b1c8a52845284892054611696575060010161164d565b975094505050506116a792506115e5565b9054911b1c90565b50505050505090565b8181029291811591840414171561080957565b81156116d5570490565b634e487b7160e01b600052601260045260246000fd5b9190820180921161080957565b9190820391821161080957565b60018060a01b0380911690600092828452602091600860205260409060408620921691828652602052604085209182549485156116af57865b86811061174f575050505050505090565b81885260048652838820838952865283882061176b82876115e5565b919054600392831b1c8a52875284892054611696575060010161173e565b9081602091031261016e5751801515810361016e5790565b604080516337649a6d60e11b81526001600160a01b0392831660048201819052602094929392917f00000000000000000000000000000000000000000000000000000000000000008416908681602481855afa9081156118f5576000916118d8575b50156118ab57859291604491865195869485936302fb78a760e31b855260048501521660248301525afa9081156118a057600091611873575b5015611846575050565b60649250519062461bcd60e51b8252600482015260076024820152664f7574636f6d6560c81b6044820152fd5b6118939150833d8511611899575b61188b818361158b565b810190611789565b3861183c565b503d611881565b82513d6000823e3d90fd5b845162461bcd60e51b815260048101879052600660248201526513585c9ad95d60d21b6044820152606490fd5b6118ef9150873d89116118995761188b818361158b565b38611803565b86513d6000823e3d90fd5b6040516323b872dd60e01b60009081526001600160a01b03938416600452938316602452604494909452909160209060648180855af160016000511481161561196d575b8360405260006060521561195757505050565b635274afe760e01b835216600482015260249150fd5b600181151661198357813b15153d151616611944565b833d6000823e3d90fd5b604d811161080957600a0a90565b60405192916119a984611553565b6001600160a01b038181168552602085810185905260405192600292906119cf85611553565b6000808652838601988952865460405160609390931b6bffffffffffffffffffffffff1916838601908152601481019990995260348901524260548901524460748901529690611a2c81609484015b03601f19810183528261158b565b519020968787526003860183526040872094518555600185019051918251166001600160601b0360a01b82541617905501519101558260028201805484528160408520555580549160018301809311611a8457505590565b634e487b7160e01b81526011600452602490fd5b600191926002602060405195611aad87611553565b858060a01b03908181168852848389015260405194611acb86611553565b60008652838601988952865460405160609390931b6bffffffffffffffffffffffff19168386019081526014810192909252603482015242605482015244607482015290611b1c8160948401611a1e565b51902096876000526003860183526040600020945185558685019051918251166001600160601b0360a01b825416179055015191015582828201558260028201555590565b80548210156115fd576000526003602060002091020190600090565b9190611b9d57604081600292518455602081015160018501550151910155565b634e487b7160e01b600052600060045260246000fd5b93909291936001810191600093868552836020526040958686205415600014611c555760018060a01b0316918286528360205286862090875192611bf68461156f565b898452602084015287830152805490600160401b821015611c415781611c25916001611c2b9594018155611b61565b90611b7d565b8352602052828220549382526020522055600190565b634e487b7160e01b87526041600452602487fd5b505050505091505090565b9081602091031261016e575160ff8116810361016e5790565b6040516348d399e760e01b8152602092916001600160a01b03908116918481600481865afa918215611d0d578591600093611d19575b5050604051630ec9c6c360e41b81529192829060049082905afa938415611d0d57600094611cde575b50509190565b611cfe929450803d10611d06575b611cf6818361158b565b810190611c60565b913880611cd8565b503d611cec565b6040513d6000823e3d90fd5b90929181813d8311611d53575b611d30818361158b565b81010312611d4f57519182168203611d4c575083600438611caf565b80fd5b5080fd5b503d611d26565b60405163a9059cbb60e01b60009081526001600160a01b039384166004526024949094529260209060448180855af1600160005114811615611da5575b836040521561195757505050565b600181151661198357813b15153d151616611d97565b814710611e20576040516020810181811067ffffffffffffffff82111761081f57604052600080809481948280955260018060a01b03165af115611dfc5750565b3d15611e0e57604051903d90823e3d90fd5b60405163d6bda27560e01b8152600490fd5b60405163cf47918160e01b815247600482015260248101839052604490fd5b15611e4657565b60405162461bcd60e51b815260206004820152602260248201527f556e617574686f726973656420746f2064656c6574652074686973206f726465604482015261391760f11b6064820152608490fd5b919060019182840182815414611f96576003859493950190549383600093868552602092846020526040978887205490845b611f07575b895162461bcd60e51b815260206004820152601360248201527227b93232b91024a2103737ba103337bab7321760691b6044820152606490fd5b8299989954851015611f8e578a8214611f33575080875285855287872054979897938801939088611ec8565b919697935091989460029488968752818152611f5d60018060a01b038b878a200154163314611e3f565b83875252828520549085528285205583528220828155828682015501558054916000198301928311611a8457505590565b889950611ecd565b5092611fc59160005260038101602052611fc060018060a01b038460406000200154163314611e3f565b61238e565b5090565b9060018201906000938085526020918383526040948587205491821515600014612117576000199280840191818311612103576001600160a01b0316808a52838752888a205490928582019182116120ef578782828c938e9503612090575b505050509050528352848620908154801561207c5701906120498282611b61565b6120685760028189809355826001820155015555845252812055600190565b634e487b7160e01b88526004889052602488fd5b634e487b7160e01b88526031600452602488fd5b6120da936120a9611c25938988528a8652828820611b61565b5095600282519788966120bb8861156f565b81548852600182015490880152015482860152888152898d5220611b61565b51895286865287892055388888878380612028565b634e487b7160e01b8b52601160045260248bfd5b634e487b7160e01b8a52601160045260248afd5b5050505050505090565b6001600160a01b03908116600081815260036020908152604080832095909416808352948152838220868352815283822054929594919215806121b0575b61216c575b505050505050565b856121a5968452600982528484208385528252848420868552825284842060ff19815416905583526008815283832091835252206123cf565b388080808080612164565b508583526004815283832082845281528383208584528152838320541561215f565b6001600160a01b0390811660008181526003602090815260408083209590941680835294815283822086835281528382205492959491921580612255575b61221c57505050505050565b856121a5968452600982528484208385528252848420868552825284842060ff19815416905583526007815283832091835252206123cf565b5085835260048152838320828452815283832085845281528383205415612210565b6000546001600160a01b0316330361228b57565b60405163118cdaa760e01b8152336004820152602490fd5b60206122b3600492949394611c79565b5060405163313ce56760e01b815290949092839182906001600160a01b03165afa908115611d0d576000916122e6575090565b6122ff915060203d602011611d0657611cf6818361158b565b90565b60009283526001810160205260408320549291831561235d576001600160a01b03168252602052604081206000198301929091908311611a84575061234c61235692600292611b61565b50019182546116f8565b9055600190565b505091505090565b6001600160a01b0392919083168061238457506123829216611dbb565b565b6123829350611d5a565b600181019081546002600093849283526003840160205260408320908154905582815582600182015501558054916000198301928311611a84575055600190565b60005b8154908181101561246a5783916123e982856115e5565b959054600396871b1c1461240357509092506001016123d2565b6000199250828101908111610809576107b261242261242f92866115e5565b905490871b1c92856115e5565b9055815480156124545781019261244684846115e5565b81939154921b1b1916905555565b634e487b7160e01b600052603160045260246000fd5b5050505056fe3cbbc8402f36c579ec0a401deda27129168a12e63fcc158db749aa8beb3b0379a2646970667358221220c47bbab4b6a171b9ef40fecc4d0a729a076fa6ddcc99c7af025f6bdcb5bacae064736f6c63430008180033",
  "linkReferences": {},
  "deployedLinkReferences": {}
}