{
  "_format": "hh-sol-artifact-1",
  "contractName": "AFTROrderBook",
  "sourceName": "contracts/orderbook/AFTROrderBook.sol",
  "abi": [
    {
      "inputs": [
        {
          "internalType": "address",
          "name": "_marketFactory",
          "type": "address"
        },
        {
          "internalType": "address",
          "name": "_owner",
          "type": "address"
        },
        {
          "internalType": "address",
          "name": "_treasury",
          "type": "address"
        }
      ],
      "stateMutability": "nonpayable",
      "type": "constructor"
    },
    {
      "inputs": [],
      "name": "FailedCall",
      "type": "error"
    },
    {
      "inputs": [
        {
          "internalType": "uint256",
          "name": "balance",
          "type": "uint256"
        },
        {
          "internalType": "uint256",
          "name": "needed",
          "type": "uint256"
        }
      ],
      "name": "InsufficientBalance",
      "type": "error"
    },
    {
      "inputs": [],
      "name": "OnlyTreasury",
      "type": "error"
    },
    {
      "inputs": [
        {
          "internalType": "address",
          "name": "owner",
          "type": "address"
        }
      ],
      "name": "OwnableInvalidOwner",
      "type": "error"
    },
    {
      "inputs": [
        {
          "internalType": "address",
          "name": "account",
          "type": "address"
        }
      ],
      "name": "OwnableUnauthorizedAccount",
      "type": "error"
    },
    {
      "inputs": [],
      "name": "ReentrancyGuardReentrantCall",
      "type": "error"
    },
    {
      "inputs": [
        {
          "internalType": "address",
          "name": "token",
          "type": "address"
        }
      ],
      "name": "SafeERC20FailedOperation",
      "type": "error"
    },
    {
      "inputs": [],
      "name": "ZeroAddress",
      "type": "error"
    },
    {
      "anonymous": false,
      "inputs": [
        {
          "indexed": true,
          "internalType": "address",
          "name": "collateral",
          "type": "address"
        },
        {
          "indexed": true,
          "internalType": "address",
          "name": "recipient",
          "type": "address"
        },
        {
          "indexed": false,
          "internalType": "uint256",
          "name": "amount",
          "type": "uint256"
        }
      ],
      "name": "FeesWithdrawn",
      "type": "event"
    },
    {
      "anonymous": false,
      "inputs": [
        {
          "indexed": true,
          "internalType": "address",
          "name": "market",
          "type": "address"
        },
        {
          "indexed": true,
          "internalType": "address",
          "name": "token",
          "type": "address"
        },
        {
          "indexed": true,
          "internalType": "address",
          "name": "user",
          "type": "address"
        },
        {
          "indexed": false,
          "internalType": "uint256",
          "name": "price",
          "type": "uint256"
        },
        {
          "indexed": false,
          "internalType": "bytes32",
          "name": "orderId",
          "type": "bytes32"
        }
      ],
      "name": "OrderCancelled",
      "type": "event"
    },
    {
      "anonymous": false,
      "inputs": [
        {
          "indexed": true,
          "internalType": "address",
          "name": "market",
          "type": "address"
        },
        {
          "indexed": true,
          "internalType": "address",
          "name": "token",
          "type": "address"
        },
        {
          "indexed": true,
          "internalType": "address",
          "name": "maker",
          "type": "address"
        },
        {
          "indexed": false,
          "internalType": "address",
          "name": "taker",
          "type": "address"
        },
        {
          "indexed": false,
          "internalType": "uint256",
          "name": "price",
          "type": "uint256"
        },
        {
          "indexed": false,
          "internalType": "uint256",
          "name": "amount",
          "type": "uint256"
        }
      ],
      "name": "OrderMatched",
      "type": "event"
    },
    {
      "anonymous": false,
      "inputs": [
        {
          "indexed": true,
          "internalType": "address",
          "name": "market",
          "type": "address"
        },
        {
          "indexed": true,
          "internalType": "address",
          "name": "token",
          "type": "address"
        },
        {
          "indexed": true,
          "internalType": "address",
          "name": "user",
          "type": "address"
        },
        {
          "indexed": false,
          "internalType": "uint256",
          "name": "price",
          "type": "uint256"
        },
        {
          "indexed": false,
          "internalType": "uint256",
          "name": "amount",
          "type": "uint256"
        },
        {
          "indexed": false,
          "internalType": "bytes32",
          "name": "orderId",
          "type": "bytes32"
        },
        {
          "indexed": false,
          "internalType": "bool",
          "name": "isBuy",
          "type": "bool"
        }
      ],
      "name": "OrderPlaced",
      "type": "event"
    },
    {
      "anonymous": false,
      "inputs": [
        {
          "indexed": true,
          "internalType": "address",
          "name": "previousOwner",
          "type": "address"
        },
        {
          "indexed": true,
          "internalType": "address",
          "name": "newOwner",
          "type": "address"
        }
      ],
      "name": "OwnershipTransferred",
      "type": "event"
    },
    {
      "inputs": [
        {
          "internalType": "address",
          "name": "",
          "type": "address"
        }
      ],
      "name": "accumulatedFeeErc20",
      "outputs": [
        {
          "internalType": "uint256",
          "name": "",
          "type": "uint256"
        }
      ],
      "stateMutability": "view",
      "type": "function"
    },
    {
      "inputs": [],
      "name": "accumulatedFeeNative",
      "outputs": [
        {
          "internalType": "uint256",
          "name": "",
          "type": "uint256"
        }
      ],
      "stateMutability": "view",
      "type": "function"
    },
    {
      "inputs": [
        {
          "internalType": "address",
          "name": "",
          "type": "address"
        },
        {
          "internalType": "address",
          "name": "",
          "type": "address"
        },
        {
          "internalType": "uint256",
          "name": "",
          "type": "uint256"
        }
      ],
      "name": "buyOrderBook",
      "outputs": [
        {
          "internalType": "uint256",
          "name": "length",
          "type": "uint256"
        },
        {
          "internalType": "bytes32",
          "name": "head",
          "type": "bytes32"
        },
        {
          "internalType": "bytes32",
          "name": "tail",
          "type": "bytes32"
        }
      ],
      "stateMutability": "view",
      "type": "function"
    },
    {
      "inputs": [
        {
          "internalType": "address",
          "name": "market",
          "type": "address"
        },
        {
          "internalType": "address",
          "name": "token",
          "type": "address"
        },
        {
          "internalType": "uint256",
          "name": "price",
          "type": "uint256"
        },
        {
          "internalType": "bytes32",
          "name": "orderId",
          "type": "bytes32"
        }
      ],
      "name": "cancelBuyOrder",
      "outputs": [],
      "stateMutability": "nonpayable",
      "type": "function"
    },
    {
      "inputs": [
        {
          "internalType": "address",
          "name": "market",
          "type": "address"
        },
        {
          "internalType": "address",
          "name": "token",
          "type": "address"
        },
        {
          "internalType": "uint256",
          "name": "price",
          "type": "uint256"
        },
        {
          "internalType": "bytes32",
          "name": "orderId",
          "type": "bytes32"
        }
      ],
      "name": "cancelSellOrder",
      "outputs": [],
      "stateMutability": "nonpayable",
      "type": "function"
    },
    {
      "inputs": [],
      "name": "feeRate",
      "outputs": [
        {
          "internalType": "uint16",
          "name": "",
          "type": "uint16"
        }
      ],
      "stateMutability": "view",
      "type": "function"
    },
    {
      "inputs": [
        {
          "internalType": "address",
          "name": "market",
          "type": "address"
        },
        {
          "internalType": "address",
          "name": "token",
          "type": "address"
        }
      ],
      "name": "getBestAsk",
      "outputs": [
        {
          "internalType": "uint256",
          "name": "best",
          "type": "uint256"
        }
      ],
      "stateMutability": "view",
      "type": "function"
    },
    {
      "inputs": [
        {
          "internalType": "address",
          "name": "market",
          "type": "address"
        },
        {
          "internalType": "address",
          "name": "token",
          "type": "address"
        }
      ],
      "name": "getBestBid",
      "outputs": [
        {
          "internalType": "uint256",
          "name": "best",
          "type": "uint256"
        }
      ],
      "stateMutability": "view",
      "type": "function"
    },
    {
      "inputs": [
        {
          "internalType": "address",
          "name": "market",
          "type": "address"
        },
        {
          "internalType": "address",
          "name": "token",
          "type": "address"
        }
      ],
      "name": "getOrderBookSnapshot",
      "outputs": [
        {
          "internalType": "uint256[]",
          "name": "bidPrices",
          "type": "uint256[]"
        },
        {
          "internalType": "uint256[]",
          "name": "bidVolumes",
          "type": "uint256[]"
        },
        {
          "internalType": "uint256[]",
          "name": "askPrices",
          "type": "uint256[]"
        },
        {
          "internalType": "uint256[]",
          "name": "askVolumes",
          "type": "uint256[]"
        }
      ],
      "stateMutability": "view",
      "type": "function"
    },
    {
      "inputs": [
        {
          "internalType": "address",
          "name": "market",
          "type": "address"
        },
        {
          "internalType": "address",
          "name": "token",
          "type": "address"
        },
        {
          "internalType": "address",
          "name": "user",
          "type": "address"
        }
      ],
      "name": "getUserBuyOrders",
      "outputs": [
        {
          "components": [
            {
              "internalType": "bytes32",
              "name": "_orderId",
              "type": "bytes32"
            },
            {
              "internalType": "uint256",
              "name": "_price",
              "type": "uint256"
            },
            {
              "internalType": "uint256",
              "name": "_volume",
              "type": "uint256"
            }
          ],
          "internalType": "struct OrderPriceVolumeSet.OPVnode[]",
          "name": "",
          "type": "tuple[]"
        }
      ],
      "stateMutability": "view",
      "type": "function"
    },
    {
      "inputs": [
        {
          "internalType": "address",
          "name": "market",
          "type": "address"
        },
        {
          "internalType": "address",
          "name": "token",
          "type": "address"
        },
        {
          "internalType": "address",
          "name": "user",
          "type": "address"
        }
      ],
      "name": "getUserSellOrders",
      "outputs": [
        {
          "components": [
            {
              "internalType": "bytes32",
              "name": "_orderId",
              "type": "bytes32"
            },
            {
              "internalType": "uint256",
              "name": "_price",
              "type": "uint256"
            },
            {
              "internalType": "uint256",
              "name": "_volume",
              "type": "uint256"
            }
          ],
          "internalType": "struct OrderPriceVolumeSet.OPVnode[]",
          "name": "",
          "type": "tuple[]"
        }
      ],
      "stateMutability": "view",
      "type": "function"
    },
    {
      "inputs": [],
      "name": "marketFactory",
      "outputs": [
        {
          "internalType": "contract IAFTROrderBookFactory",
          "name": "",
          "type": "address"
        }
      ],
      "stateMutability": "view",
      "type": "function"
    },
    {
      "inputs": [],
      "name": "owner",
      "outputs": [
        {
          "internalType": "address",
          "name": "",
          "type": "address"
        }
      ],
      "stateMutability": "view",
      "type": "function"
    },
    {
      "inputs": [
        {
          "internalType": "address",
          "name": "market",
          "type": "address"
        },
        {
          "internalType": "address",
          "name": "token",
          "type": "address"
        },
        {
          "internalType": "uint256",
          "name": "price",
          "type": "uint256"
        },
        {
          "internalType": "uint256",
          "name": "amount",
          "type": "uint256"
        }
      ],
      "name": "placeBuyOrder",
      "outputs": [
        {
          "internalType": "bytes32",
          "name": "orderId",
          "type": "bytes32"
        }
      ],
      "stateMutability": "payable",
      "type": "function"
    },
    {
      "inputs": [
        {
          "internalType": "address",
          "name": "market",
          "type": "address"
        },
        {
          "internalType": "address",
          "name": "token",
          "type": "address"
        },
        {
          "internalType": "uint256",
          "name": "price",
          "type": "uint256"
        },
        {
          "internalType": "uint256",
          "name": "amount",
          "type": "uint256"
        }
      ],
      "name": "placeSellOrder",
      "outputs": [
        {
          "internalType": "bytes32",
          "name": "orderId",
          "type": "bytes32"
        }
      ],
      "stateMutability": "nonpayable",
      "type": "function"
    },
    {
      "inputs": [],
      "name": "renounceOwnership",
      "outputs": [],
      "stateMutability": "nonpayable",
      "type": "function"
    },
    {
      "inputs": [
        {
          "internalType": "address",
          "name": "",
          "type": "address"
        },
        {
          "internalType": "address",
          "name": "",
          "type": "address"
        },
        {
          "internalType": "uint256",
          "name": "",
          "type": "uint256"
        }
      ],
      "name": "sellOrderBook",
      "outputs": [
        {
          "internalType": "uint256",
          "name": "length",
          "type": "uint256"
        },
        {
          "internalType": "bytes32",
          "name": "head",
          "type": "bytes32"
        },
        {
          "internalType": "bytes32",
          "name": "tail",
          "type": "bytes32"
        }
      ],
      "stateMutability": "view",
      "type": "function"
    },
    {
      "inputs": [
        {
          "internalType": "uint16",
          "name": "_feeRate",
          "type": "uint16"
        }
      ],
      "name": "setFeeRate",
      "outputs": [],
      "stateMutability": "nonpayable",
      "type": "function"
    },
    {
      "inputs": [
        {
          "internalType": "address",
          "name": "newOwner",
          "type": "address"
        }
      ],
      "name": "transferOwnership",
      "outputs": [],
      "stateMutability": "nonpayable",
      "type": "function"
    },
    {
      "inputs": [],
      "name": "treasury",
      "outputs": [
        {
          "internalType": "address",
          "name": "",
          "type": "address"
        }
      ],
      "stateMutability": "view",
      "type": "function"
    },
    {
      "inputs": [
        {
          "internalType": "address",
          "name": "collateralAsset",
          "type": "address"
        }
      ],
      "name": "withdrawFees",
      "outputs": [],
      "stateMutability": "nonpayable",
      "type": "function"
    },
    {
      "stateMutability": "payable",
      "type": "receive"
    }
  ],
  "bytecode": "0x60c0346200018057601f6200304238819003918201601f19168301916001600160401b03831184841017620001855780849260609460405283398101031262000180576200004d816200019b565b906200006a604062000062602084016200019b565b92016200019b565b6001600160a01b039182169182156200016757600054938160405191858288167f8be0079c531659141344cd1fd0a4f28419497f9722a3daafe3b4186f6b6457e0600080a360017f9b779b17422d0df92223018b32b4d1fa46e071723d6817e2486d003becc55f0055169182159081156200015d575b811562000151575b5062000142575060805260a0526001600160b01b031990911617601960a11b17600055604051612e919081620001b182396080518181816105940152818161113b0152611410015260a051818181610c350152610f4a0152f35b63d92e233d60e01b8152600490fd5b905083161538620000e8565b60009150620000e0565b604051631e4fbdf760e01b815260006004820152602490fd5b600080fd5b634e487b7160e01b600052604160045260246000fd5b51906001600160a01b0382168203620001805756fe60a06040818152600480361015610021575b505050361561001f57600080fd5b005b600092833560e01c90816306ae7095146113fc575080630933b2ae1461139f57806310d16b59146110fd578063117c0bc014611022578063164e68de14610ef457806329ff077314610e6d5780634926819114610e0d5780634b1ad46414610d5f578063543ddf5114610d405780635671eed214610c6457806361d027b314610c20578063715018a614610bc657806375fcb6a314610b8e5780638da5cb5b14610b6657806391356c8514610ab5578063978bbdb914610a9157806399db37c51461098b578063a05118c214610559578063b9f8b5aa14610484578063ec952c421461019a5763f2fde38b0361001157346101965760203660031901126101965761012a61143f565b906101336126cc565b6001600160a01b0391821692831561018057505082546001600160a01b0319811683178455167f8be0079c531659141344cd1fd0a4f28419497f9722a3daafe3b4186f6b6457e08380a380f35b51631e4fbdf760e01b8152908101849052602490fd5b8280fd5b509190346104805780600319360112610480576101b561143f565b6101bd61145a565b9060018060a01b03809116918285526020916008835284862091169081865282528385209280865260078352848620828752835284862095845491610201836117f6565b9761020b846117f6565b94815494610218866117f6565b98610222876117f6565b9c868d8b8e5b8684106103845750505050505050835b858110610290576102648b61028c8e61027e8e8e6102718f8f8451998a9960808b5260808b0190611548565b91898303908a0152611548565b9186830390870152611548565b908382036060850152611548565b0390f35b61029a81846117a5565b9054600391821b1c6102ac838c611828565b528486528089528a862083875289528a86206102c883866117a5565b905490831b1c875289528a8620600101548d8c888c845b6102f157505050505050600101610238565b60026103469383610340938d8b96528981528282208c835281528c61031987858520926117a5565b9054908c1b1c83528152888a848420019252528c20015461033a8386611828565b5161183c565b92611828565b52858752818a528b87208488528a528b872061036284876117a5565b905490841b1c88528a528b8720908752810189528a8620548d8c888c846102df565b848a9285946103a5610396878b6117a5565b979054600398891b1c92611828565b52838d5252808b20888c528e52808b208e6103c086896117a5565b905490861b1c8d52528d8d8c888b896001878520015497885b6103f257505050505050505050506001018d8b8e610228565b878561043f958d95610340956002958f9d9c9b9a528a52838320908352895261041e86848420926117a5565b9054908c1b1c8252885289828220018b8252885220015461033a8386611828565b528b8d52868152818d208a8e528152818d20908d61045d888b6117a5565b905490861b1c9052528b20918b52018c528d8920548e8d8d8c888b898f886103d9565b5080fd5b5091903461048057806003193601126104805761049f61143f565b926104a861145a565b908360018060a01b03809616928382526020966008885285832091169081835287528482209282948454955b8681106104e45789898951908152f35b818552828a528785208486528a528785206104ff82886117a5565b919054600392831b1c87528b5288862054151580610541575b610526575b506001016104d4565b819950610535600192886117a5565b9054911b1c989061051d565b508961054d83896117a5565b905490831b1c11610518565b5090610564366114bb565b84516337649a6d60e11b81526001600160a01b0380861682890181905260209998899795969591949193919290917f00000000000000000000000000000000000000000000000000000000000000008216908c81602481855afa90811561098157906105d9918e8c92610964575b5050611604565b89516302fb78a760e31b81526001600160a01b03808716858301908152908916602082015290918d918391908290819060400103915afa90811561095a5790610629918a9161092d575b50611641565b61063487151561168d565b61063f8315156116cd565b610648846120dd565b5092818716968a519563313ce56760e01b87528d8786818c5afa968715610923578e8c986108f4575b505061067e878b856126f8565b93861680610893575083341061085d579286928a87936106a59684341161084a575b61272b565b80949194938515159283600014610842576106c1908a886126f8565b915b828111610820575b5050506106dc575b89898951908152f35b86985083610769939495969752808a52878920868a528a52878920878a528a5287892054156000146107f6578489528952868820858952895286882086895289528561072b82338a8c20611ed3565b8986829b5260098c528981208882528c528981208382528c5260ff8a82205416156107b1575b86815260068c528981208882528c5289339120612030565b508451938452868401528484840152600160608401527f08df2dfcfaa1d4b132f1ade3fb5f295ce8fa7d2257abef9845734f54d254a77060803394a4388080808080806106d3565b86815260098c528981208882528c528981208382528c52898120600160ff1982541617905586815260088c528981208882528c526107f1838b8320611fa1565b610751565b8489528952868820858952895286882086895289528561081982338a8c20611dd1565b8099610751565b8261083993949650610831916117d3565b90339061219d565b913880806106cb565b5089916106c3565b6106a061085786346117d3565b33612648565b8b5162461bcd60e51b81528086018f9052601060248201526f092dce6eaccccd2c6d2cadce8408aa8960831b6044820152606490fd5b346108b057928a879386936106a06106a5988c9830903390611849565b508b5162461bcd60e51b81528086018f9052601760248201527f4e6f2045544820666f72204552433230206d61726b65740000000000000000006044820152606490fd5b610914929850803d1061091c575b61090c81836115ca565b81019061170e565b95388e610671565b503d610902565b8c513d8d823e3d90fd5b61094d91508d803d10610953575b61094581836115ca565b8101906115ec565b38610623565b503d61093b565b8a513d8b823e3d90fd5b61097a9250803d106109535761094581836115ca565b388e6105d2565b8b513d8c823e3d90fd5b5050346104805761099b366114bb565b6001600160a01b0380851680885260036020818152888a20848816808c52908252898b20878c528252898b20868c529092018152888a2089519298939791948793919086906109e98461157c565b600183015416918284526002015492019182523314610a0790611727565b51610a1390338a6125e7565b868a5260038452888a20888b528452888a20828b52845284898b2090610a389161221d565b50868a5260058452888a20888b52845233858a8c2091610a5792612350565b50610a6192612542565b855192835282015233937f4d808958216860d10b60c5927cdbbcff69e2318be11e150596eae39dc0d8ea1891a480f35b50503461048057816003193601126104805761ffff6020925460a01c169051908152f35b828434610b63576060366003190112610b6357610ad061143f565b610ad861145a565b90610ae1611470565b6001600160a01b039182168452600560209081528585209383168552928352848420911683528152828220805491610b1883611765565b93610b25865195866115ca565b8385529182528082208185015b848410610b465786518061028c88826114f4565b600383600192610b558561177d565b815201920193019290610b32565b80fd5b505034610480578160031936011261048057905490516001600160a01b039091168152602090f35b5050346104805760203660031901126104805760209181906001600160a01b03610bb661143f565b1681526001845220549051908152f35b8334610b635780600319360112610b6357610bdf6126cc565b80546001600160a01b03198116825581906001600160a01b03167f8be0079c531659141344cd1fd0a4f28419497f9722a3daafe3b4186f6b6457e08280a380f35b505034610480578160031936011261048057517f00000000000000000000000000000000000000000000000000000000000000006001600160a01b03168152602090f35b828434610b635781600319360112610b6357610c7e61143f565b91610c8761145a565b6001600160a01b039384168084526007602090815283852092909516808552918552828420805492918590815b858110610cc45788888851908152f35b8183526003808a528784208685528a52878420610ce183876117a5565b905490831b1c85528a5287842054151580610d20575b610d05575b50600101610cb4565b819850610d14600192866117a5565b9054911b1c9790610cfc565b50881580610cf7575088610d3483876117a5565b905490831b1c10610cf7565b5050346104805781600319360112610480576020906002549051908152f35b828434610b63576060366003190112610b6357610d7a61143f565b610d8261145a565b90610d8b611470565b6001600160a01b039182168452600660209081528585209383168552928352848420911683528152828220805491610dc283611765565b93610dcf865195866115ca565b8385529182528082208185015b848410610df05786518061028c88826114f4565b600383600192610dff8561177d565b815201920193019290610ddc565b505034610480578091610e1f36611486565b6001600160a01b039283168452600360209081528585209290931684529082528383209083528152919020805460018201546002909201549351908152918201526040810191909152606090f35b50346101965760203660031901126101965780359161ffff8316808403610ef0576103e890610e9a6126cc565b11610ebe575050815461ffff60a01b191660a09190911b61ffff60a01b1617815580f35b906020606492519162461bcd60e51b8352820152600c60248201526b08ccaca40e8dede40d0d2ced60a31b6044820152fd5b8480fd5b5082903461048057602036600319011261048057610f1061143f565b907f9b779b17422d0df92223018b32b4d1fa46e071723d6817e2486d003becc55f0091600283541461101357600283556001600160a01b037f00000000000000000000000000000000000000000000000000000000000000008181169390929033859003611005575085967f5e110f8bc8a20b65dcc87f224bdf1cc039346e267118bae2739847f07321ffa8926020926001985016938415600014610fd65750600254908860025581610fc7575b51908152a35580f35b610fd18287612648565b610fbe565b908489528783528089209189835493558280610ff4575b5050610fbe565b610ffe91876125e7565b8982610fed565b8751632298d39d60e11b8152fd5b508351633ee5aeb560e01b8152fd5b503461019657611031366114bb565b90919293600160a01b60019003948386821695868a52602093808552898b2098808316998a8d5286528a8c20848d5286528a8c20600301878d5286528a8c20868c519261107d8461157c565b60018301541691828452600201549201918252331461109b90611727565b6110a4856120dd565b509051336110b19261219d565b878b528452888a20888b528452888a20828b52845284898b20906110d49161221d565b50868a5260068452888a20888b52845233858a8c20916110f392612350565b50610a6192612491565b5090346101965761110d366114bb565b84516337649a6d60e11b81526001600160a01b038086168289018190526020999889979596919490939092907f00000000000000000000000000000000000000000000000000000000000000008216908c81602481855afa908115610981579061117f918e8c92610964575050611604565b89516302fb78a760e31b81526001600160a01b03808916878301908152908516602082015290918d918391908290819060400103915afa90811561095a57906111ce918a9161092d5750611641565b6111d987151561168d565b6111e48315156116cd565b8116946111f383303389611849565b8a8951809563313ce56760e01b825281895afa938415611395579187916112239594938a95611376575b50611926565b9384611233575b87878751908152f35b9080929394965081526003875284812083825287528481208482528752848120541560001461134c5781815260038752848120838252875284812084825287526112808633878420611ed3565b95828252600988528582208483528852858220858352885260ff868320541615611307575b8282526005885285822084835288526112c3818689338a8720612030565b50855194855287850152858585015260608401527f08df2dfcfaa1d4b132f1ade3fb5f295ce8fa7d2257abef9845734f54d254a77060803394a4388080808061122a565b8282526009885285822084835288528582208583528852858220600160ff1982541617905582825260078852858220848352885261134785878420611fa1565b6112a5565b81815260038752848120838252875284812084825287526113708633878420611dd1565b956112a5565b61138e9195508d803d1061091c5761090c81836115ca565b933861121d565b89513d8a823e3d90fd5b5034610196579181926113b136611486565b6001600160a01b039283168552602093845285852091909216845282528383209083528152919020805460018201546002909201549351908152918201526040810191909152606090f35b8490346104805781600319360112610480577f00000000000000000000000000000000000000000000000000000000000000006001600160a01b03168152602090f35b600435906001600160a01b038216820361145557565b600080fd5b602435906001600160a01b038216820361145557565b604435906001600160a01b038216820361145557565b6060906003190112611455576001600160a01b0390600435828116810361145557916024359081168103611455579060443590565b6080906003190112611455576001600160a01b039060043582811681036114555791602435908116810361145557906044359060643590565b60208082019080835283518092528060408094019401926000905b83821061151e57505050505090565b8451805187528084015187850152810151868201526060909501949382019360019091019061150f565b90815180825260208080930193019160005b828110611568575050505090565b83518552938101939281019260010161155a565b6040810190811067ffffffffffffffff82111761159857604052565b634e487b7160e01b600052604160045260246000fd5b6060810190811067ffffffffffffffff82111761159857604052565b90601f8019910116810190811067ffffffffffffffff82111761159857604052565b90816020910312611455575180151581036114555790565b1561160b57565b60405162461bcd60e51b815260206004820152600e60248201526d125b9d985b1a59081b585c9ad95d60921b6044820152606490fd5b1561164857565b60405162461bcd60e51b815260206004820152601860248201527f496e76616c696420746f6b656e20666f72206d61726b657400000000000000006044820152606490fd5b1561169457565b60405162461bcd60e51b815260206004820152601160248201527005072696365206d757374206265203e203607c1b6044820152606490fd5b156116d457565b60405162461bcd60e51b81526020600482015260126024820152710416d6f756e74206d757374206265203e20360741b6044820152606490fd5b90816020910312611455575160ff811681036114555790565b1561172e57565b60405162461bcd60e51b815260206004820152600f60248201526e2737ba1037b93232b91037bbb732b960891b6044820152606490fd5b67ffffffffffffffff81116115985760051b60200190565b9060405161178a816115ae565b60406002829480548452600181015460208501520154910152565b80548210156117bd5760005260206000200190600090565b634e487b7160e01b600052603260045260246000fd5b919082039182116117e057565b634e487b7160e01b600052601160045260246000fd5b9061180082611765565b61180d60405191826115ca565b828152809261181e601f1991611765565b0190602036910137565b80518210156117bd5760209160051b010190565b919082018092116117e057565b6040516323b872dd60e01b60009081526001600160a01b03938416600452938316602452604494909452909160209060648180855af16001600051148116156118b6575b836040526000606052156118a057505050565b635274afe760e01b835216600482015260249150fd5b60018115166118cc57813b15153d15161661188d565b833d6000823e3d90fd5b60001981146117e05760010190565b818102929181159184041417156117e057565b604d81116117e057600a0a90565b8115611910570490565b634e487b7160e01b600052601260045260246000fd5b9394909294611934856120dd565b509160018060a01b0386166000526008602052604060002060018060a01b038616600052602052604060002096875461196c816117f6565b9860005b828110611d99575050506001955b8851871015611a1a57611991878a611828565b5197875b801515806119f8575b156119d4576000198101908082116117e0578b6119c9826119c26119cf9584611828565b5192611828565b52612c1e565b611995565b986119e9600193969992959894979a8c611828565b5201959296939094919661197e565b50806000198101116117e05789611a1360001983018d611828565b511061199e565b949550969196959290956000955b8351871080611d90575b15611d8657611a418785611828565b5193818510611d7b57915b6001600160a01b038681166000908152600460209081526040808320938b16835292815282822088835290522054151580611d72575b15611d5e576001600160a01b038681166000908152600460209081526040808320938b1683529281528282208883528152828220600181015480845260039091019091529082902060028082015493519294938e92909190611ae38561157c565b60018101546001600160a01b031685520154602084015260005460a01c61ffff1691611b129083868c85612c2b565b948515611d4d57828f93611c3a888f8f968f8f611c4699611c3f99611c9f9f9e9d9c92612710611b7081611b68611b618b98611b5b60ff8f8d611b54916118e5565b92166118f8565b90611906565b9d8e6118e5565b049c8c6118e5565b048b611b7d829d8d61183c565b926001600160a01b038116611d1b5750611ba291611b9a9161183c565b60025461183c565b6002555b858110611ca457506001600160a01b0382811660009081526004602090815260408083209387168352928152828220878352905220611c269550611c209190611bee90612d79565b506001600160a01b038381166000908152600660209081526040808320888516845290915290208f5190911690612350565b50612491565b87516001600160a01b0390811691166125e7565b6117d3565b338961219d565b5160408051338152602081018a90529081018490526001600160a01b03918216918b811691908b16907f3cbbc8402f36c579ec0a401deda27129168a12e63fcc158db749aa8beb3b03799080606081015b0390a46117d3565b611a4c565b93909250611cb584611d15966117d3565b6001600160a01b0392831660008181526004602090815260408083208b88168085529083528184209684529582528083208884526003018252808320600201949094559181526006825282812093815292905290208c5190911690612d16565b50611c26565b91611d259161183c565b9060018060a01b03166000526001602052611d46604060002091825461183c565b9055611ba6565b50929c505050505050505050505050565b96611d6a9194506118d6565b959092611a28565b50801515611a82565b505096505050505050565b5096505050505050565b50811515611a32565b808b611dc182611db46001959b9e999c989b879e9b9e6117a5565b90549060031b1c92611828565b5201989592969398979497611970565b6040519291611ddf8461157c565b6001600160a01b03818116855260208581018590526040519260029290611e058561157c565b6000808652838601988952865460405160609390931b6bffffffffffffffffffffffff1916838601908152601481019990995260348901524260548901524460748901529690611e6281609484015b03601f1981018352826115ca565b519020968787526003860183526040872094518555600185019051918251166bffffffffffffffffffffffff60a01b82541617905501519101558260028201805484528160408520555580549160018301809311611ebf57505590565b634e487b7160e01b81526011600452602490fd5b600191926002602060405195611ee88761157c565b858060a01b03908181168852848389015260405194611f068661157c565b60008652838601988952865460405160609390931b6bffffffffffffffffffffffff19168386019081526014810192909252603482015242605482015244607482015290611f578160948401611e54565b51902096876000526003860183526040600020945185558685019051918251166bffffffffffffffffffffffff60a01b825416179055015191015582828201558260028201555590565b805490600160401b8210156115985781611fc3916001611fda940181556117a5565b819391549060031b91821b91600019901b19161790565b9055565b80548210156117bd576000526003602060002091020190600090565b919061201a57604081600292518455602081015160018501550151910155565b634e487b7160e01b600052600060045260246000fd5b939092919360018101916000938685528360205260409586862054156000146120d25760018060a01b0316918286528360205286862090875192612073846115ae565b898452602084015287830152805490600160401b8210156120be57816120a29160016120a89594018155611fde565b90611ffa565b8352602052828220549382526020522055600190565b634e487b7160e01b87526041600452602487fd5b505050505091505090565b6040516348d399e760e01b81526001600160a01b0391821692916020918281600481885afa8015612157578391600091612163575b50600492509460405192838092630ec9c6c360e41b82525afa9182156121575760009261213e57505090565b6121549250803d1061091c5761090c81836115ca565b90565b6040513d6000823e3d90fd5b909181813d8311612196575b61217981836115ca565b8101031261048057519182168203610b6357508160049138612112565b503d61216f565b6001600160a01b039291908316806121bc57506121ba9216612648565b565b6121ba93506125e7565b156121cd57565b60405162461bcd60e51b815260206004820152602260248201527f556e617574686f726973656420746f2064656c6574652074686973206f726465604482015261391760f11b6064820152608490fd5b91906001918284018281541461231d576003859493950190549383600093868552602092846020526040978887205490845b61228e575b895162461bcd60e51b815260206004820152601360248201527227b93232b91024a2103737ba103337bab7321760691b6044820152606490fd5b8299989954851015612315578a82146122ba57508087528585528787205497989793880193908861224f565b9196979350919894600294889687528181526122e460018060a01b038b878a2001541633146121c6565b83875252828520549085528285205583528220828155828682015501558054916000198301928311611ebf57505590565b889950612254565b509261234c916000526003810160205261234760018060a01b0384604060002001541633146121c6565b612d79565b5090565b9060018201906000938085526020918383526040948587205491821515600014612487576000199280840191818311612473576001600160a01b0316808a52838752888a2054909285820191821161245f578a8282878b948e9603612419575b5050509250505052835284862090815480156124055701906123d28282611fde565b6123f15760028189809355826001820155015555845252812055600190565b634e487b7160e01b88526004889052602488fd5b634e487b7160e01b88526031600452602488fd5b6124346120a29361243a92612449978b885252878620611fde565b5061177d565b948388879552898d5220611fde565b518952868652878920553887868a8380876123b0565b634e487b7160e01b8b52601160045260248bfd5b634e487b7160e01b8a52601160045260248afd5b5050505050505090565b6001600160a01b0390811660008181526003602090815260408083209590941680835294815283822086835281528382205492959491921580612520575b6124dc575b505050505050565b85612515968452600982528484208385528252848420868552825284842060ff1981541690558352600881528383209183525220612dba565b3880808080806124d4565b50858352600481528383208284528152838320858452815283832054156124cf565b6001600160a01b03908116600081815260036020908152604080832095909416808352948152838220868352815283822054929594919215806125c5575b61258c57505050505050565b85612515968452600982528484208385528252848420868552825284842060ff1981541690558352600781528383209183525220612dba565b5085835260048152838320828452815283832085845281528383205415612580565b60405163a9059cbb60e01b60009081526001600160a01b039384166004526024949094529260209060448180855af1600160005114811615612632575b83604052156118a057505050565b60018115166118cc57813b15153d151616612624565b8147106126ad576040516020810181811067ffffffffffffffff82111761159857604052600080809481948280955260018060a01b03165af1156126895750565b3d1561269b57604051903d90823e3d90fd5b60405163d6bda27560e01b8152600490fd5b60405163cf47918160e01b815247600482015260248101839052604490fd5b6000546001600160a01b031633036126e057565b60405163118cdaa760e01b8152336004820152602490fd5b91611b5b60ff611b5461270e94612154966118e5565b61271061272461ffff60005460a01c16836118e5565b049061183c565b94929690969593919560018060a01b0386166000526007602052604060002060018060a01b038916600052602052604060002097885461276a816117f6565b9960005b828110612bf1575050506001965b89518810156128105761278f888b611828565b5198885b801515806127ee575b156127c857806000198101116117e0576127c3908c6119c9826119c2600019820184611828565b612793565b996127de600193969994979a9295989b8d611828565b520196939095929794919761277c565b50806000198101116117e0578a61280960001983018e611828565b511161279c565b9894929796509492906000965b8551881080612be8575b80612bdf575b15612bd35761283c8887611828565b5195818711612bc65791925b6001600160a01b038b81166000908152600360209081526040808320938c1683529281528282208a835290522054151580612bbd575b80612bb4575b15612b98576001600160a01b038b81166000908152600360208181526040808420948d1684529381528383208b84528152838320600181015460808190528452909101905281902060028082015492519296916128e08461157c565b60018101546001600160a01b031684520154602083015285811015612b925780955b6129198961ffff60005460a01c1680998d88612c2b565b928315612b80578a8f9192858e94818d8f61293487846118e5565b9060ff16612941906118f8565b61294a91611906565b9d6127109b8f8d61295b84836118e5565b049d6129688f94836118e5565b049d6129739161183c565b6129a1929091908e906001600160a01b03861680612b56575061299991611b9a9161183c565b6002556117d3565b9d858314600014612ab49c7f3cbbc8402f36c579ec0a401deda27129168a12e63fcc158db749aa8beb3b037997612a8395612a7d93612aba5750506001600160a01b038a81166000908152600360209081526040808320938f1683529281528282208c8352905220612a1290612d79565b506001600160a01b038a811660009081526005602090815260408083208f8516845290915290206080518851612a4c939192911690612350565b50612a58898c8c612542565b612a6c87336001600160a01b038e166125e7565b85516001600160a01b0316926117d3565b9161219d565b516040805133815260208101959095528401919091526001600160a01b039081169481169316918060608101611c97565b92612848565b612ac3916117d3565b60018060a01b038b166000526003602052604060002060018060a01b038d1660005260205260406000208a600052602052600360406000200160805160005260205260026040600020015560018060a01b038a166000526005602052604060002060018060a01b038c16600052602052612b508760406000206080519060018060a01b038a511690612d16565b50612a58565b91612b609161183c565b906000526001602052612b79604060002091825461183c565b90556117d3565b50509950509950505050505050509190565b85612902565b99955093929196612ba8906118d6565b9690949891929361281d565b50801515612884565b5083151561287e565b5050975095945050505050565b50975095945050505050565b5082151561282d565b50811515612827565b808c612c0d82611db49b9e989b6001959b9e9a9d989b876117a5565b52019996939998959297949861276e565b80156117e0576000190190565b90929382158015612d0e575b8015612d06575b612cfc57829484156119105760001993858504809111612cf4575b5094939291906000955b858710612c735750505050505090565b909192939495612c83878261183c565b60018082018092116117e0571c9084612cbf612cae612ca28a866118e5565b611b5b60ff89166118f8565b61271061272461ffff8816836118e5565b11612cd15750955b9493929190612c63565b965084810190811115612cc757634e487b7160e01b600052601160045260246000fd5b955038612c59565b5050505050600090565b508315612c3e565b508115612c37565b600092835260018101602052604083205492918315612d71576001600160a01b03168252602052604081206000198301929091908311611ebf5750612d60612d6a92600292611fde565b50019182546117d3565b9055600190565b505091505090565b600181019081546002600093849283526003840160205260408320908154905582815582600182015501558054916000198301928311611ebf575055600190565b60005b81549081811015612e55578391612dd482856117a5565b959054600396871b1c14612dee5750909250600101612dbd565b60001992508281019081116117e057611fc3612e0d612e1a92866117a5565b905490871b1c92856117a5565b905581548015612e3f57810192612e3184846117a5565b81939154921b1b1916905555565b634e487b7160e01b600052603160045260246000fd5b5050505056fea2646970667358221220ee2885077641094250d166eabd0ea4c1b2aa5f08aee70b6376f82a37234edc1e64736f6c63430008180033",
  "linkReferences": {},
  "deployedLinkReferences": {}
}